:020000040800F2
:1000000060090020210200083B190008AB16000817
:1000100039190008B9080008211E00080000000076
:10002000000000000000000000000000E1190008CE
:1000300005090008000000003D190008E319000848
:100040003B0200083B0200083B0200083B0200089C
:100050003B0200083B0200083B0200083B0200088C
:100060003B0200083B0200083B0200083B0200087C
:100070003B0200083B0200083B0200083B0200086C
:100080003B0200083B0200083B0200083B0200085C
:100090003B0200083B0200083B0200083B0200084C
:1000A000000000003B0200083B0200083B02000881
:1000B0003B0200083B020008591A00083B020008F6
:1000C0003B0200083B0200083B0200083B0200081C
:1000D0003B020008F51D00083B0200083B02000837
:1000E0003B0200083B0200083B0200083B020008FC
:1000F0003B020008000000003B0200083B02000831
:1001000000000000000000003B0200083B02000865
:100110003B0200083B0200083B0200080000000010
:100120003B02000800F002F800F06BF80AA090E82B
:10013000000C82448344AAF10107DA4501D100F0A2
:1001400060F8AFF2090EBAE80F0013F0010F18BF04
:10015000FB1A43F001031847F02D0000102E000099
:100160000A444FF0000C10F8013B13F0070408BFDD
:1001700010F8014B1D1108BF10F8015B641E05D07B
:1001800010F8016B641E01F8016BF9D113F0080F30
:100190001EBF10F8014BAD1C0C1B09D16D1E58BFC2
:1001A00001F801CBFAD505E014F8016B01F8016BF9
:1001B0006D1EF9D59142D6D370470000002300246C
:1001C00000250026103A28BF78C1FBD8520728BF67
:1001D00030C148BF0B607047642900F01581752954
:1001E00000F01281782900F04B81632900F0108320
:1001F000732900F01583002070471FB51FBD10B58F
:1002000010BD00F02BFB1146FFF7F7FF01F060FE79
:1002100000F049FB03B4FFF7F2FF03BC01F018FE46
:100220000948804709480047FEE7FEE7FEE7FEE78A
:10023000FEE7FEE7FEE7FEE7FEE7FEE704480549C6
:10024000054A064B70470000491A000825010008BE
:100250006003002060090020600500206005002088
:10026000704753EA020C00F069802DE9F04B4FF023
:100270000006002B1FBFB3FA83F503FA05F424FA36
:1002800005F65E4012BF1643B2FA82F502FA05F493
:10029000C5F120051EBF22FA05FC44EA0C042035F6
:1002A00056EA044C4FEA144418BF641C4FF000088F
:1002B0004FF00009904271EB030C39D3002919BFAC
:1002C000B1FA81F701FA07F6B0FA80F700FA07F6FB
:1002D000C7F120071EBF20FA07FC46EA0C062037AC
:1002E000B6FBF4FCA7EB0507103F07F01F0BCBF1A3
:1002F00020060CFA0BFB2CFA06F644BFB346002688
:10030000202FA4BF5E464FF0000B5BEA060C08BF2F
:100310004FF0010B19EB0B09ABFB027C48EB060815
:10032000C01B06FB02CC0BFB03CC71EB0C01C1E73D
:100330000B46024641464846BDE8F08B13B54FF0E8
:1003400000004FF00001AFF30080BDE81C40704793
:100350000FB4044910B503AA029800F065FA10BC66
:100360005DF814FB3400002070B504468569006810
:10037000C10601D5302600E02026C00707D070BD99
:10038000D4E9012130469047206A401C20626D1E4E
:10039000F6D570BD70B5044685690078C00707D1F1
:1003A00070BDD4E9012120209047206A401C2062C2
:1003B0006D1EF6D570BD70B50C460546012A05D0F8
:1003C0002878800600D5EA69002302E0012305E0D1
:1003D0005B1C934202D2E05C0028F9D1A869E618C0
:1003E000C01AA861286A184428622846FFF7BCFF93
:1003F00004E0D5E9012114F8010B9047B442F8D389
:100400002846FFF7C7FF70BD2DE9F04106460024DE
:1004100010687529314616A510D0AFF3008000286A
:1004200002DA404213A507E031688A0701D512A518
:1004300002E0490704D511A5012401E0AFF30080D3
:1004400000210A2206F1240709E0B0FBF2FCB0FB10
:10045000F2F302FB1C00303078541846491C002887
:10046000F3D123462A463046BDE8F04100F055B9A5
:10047000000000002D0000002B0000002000000004
:1004800070B504460D4621461068AFF30080218800
:10049000090502D50F4A7A4402E00E4A7A440E3228
:1004A000002104F1240305E000F00F060009965D29
:1004B0005E54491C0028F7D120780023000704D59A
:1004C000702D02D009B1022311322046BDE87040E0
:1004D00000F023B9AB2900002DE9F05F89460446FE
:1004E0004FF0000ADFF874B1FB44C0F820A02046AA
:1004F000E1688847002874D0252806D0D4E9012176
:100500009047206A401C2062F1E700265F462046A3
:10051000E16888472028054607DB312D05D2781988
:1005200010F8200C08B10643F1E7B00701D526F01A
:100530000406C4F81CA00027C4F818A02A2D09D06E
:10054000284601F07EFC38B304EB8708303DC8F83C
:10055000185019E059F8041B204604EB87029161FA
:10056000E1688847012F054618D1E069002820DAA4
:1005700026F020061DE0D8F8180000EB800005EBFF
:1005800040003038C8F818002046E1688847054622
:1005900001F057FC0028EED1012F0AD02E2D08D1F2
:1005A0002046E16888477F1C0546022F46F020065A
:1005B000C4DBA069002803DA404246F00106A061CE
:1005C000F00701D026F010066C2D0BD0682D09D055
:1005D0004C2D39D06A2D35D0742D35D07A2D33D0AD
:1005E00016E038E0E1682F4620468847B8420546C5
:1005F00009D16C2F26D04FF48060E1680643204675
:100600008847054604E06C2F1AD04FF480700643EB
:100610000DB3A5F14100192802D8203546F4006633
:100620004A462946204626604E46FFF7D5FD80B152
:1006300001280BD0F61D26F0070000F1080956E747
:100640004020E4E78020D8E70020D6E706F104093F
:100650004DE7284652E7206ABDE8F09F8129000057
:1006600010B5203AC0F00B80B1E81850203AA0E84D
:100670001850B1E81850A0E81850BFF4F5AF5FEA81
:10068000027C24BFB1E81850A0E8185044BF18C934
:1006900018C0BDE810405FEA827C24BF51F8043BDB
:1006A00040F8043B08BF7047D20728BF31F8023B2F
:1006B00048BF11F8012B28BF20F8023B48BF00F8C3
:1006C000012B70474FF0000200B513469446964642
:1006D000203922BFA0E80C50A0E80C50B1F1200155
:1006E000BFF4F7AF090728BFA0E80C5048BF0CC003
:1006F0005DF804EB890028BF40F8042B08BF704761
:1007000048BF20F8022B11F0804F18BF00F8012BD2
:10071000704770477047704770472DE9F0470D46A6
:1007200099469246044600F124080168880604D5DB
:10073000E06921F01001216000E00120A84201DD04
:10074000471B00E00027A1697A1902EB0900081A8B
:10075000A0612078C00602D42046FFF705FE0026DF
:1007600008E0D4E901211AF806009047206A401CED
:10077000761C20624E45F4DB2078C0060AD5204660
:10078000FFF7F2FD06E0D4E9012130209047206A0E
:10079000401C2062381EA7F10107F4DC07E0D4E911
:1007A000012118F805009047206A401C2062281E8D
:1007B000A5F10105F3DC2046FFF7ECFD20780006EB
:1007C00002D50220BDE8F0870120FBE701694A1C41
:1007D00002610878704700B58FB0CDE90131002182
:1007E000059105497944CDE9031011466846FFF7A4
:1007F00073FE0FB000BD0000E5FFFFFF10B54369B9
:1008000013B1AFF3008001E0FFF7D5FD012010BD6B
:10081000127800F124010A7000224A700122EDE7EB
:1008200011684FF0FF32E9E7074B70B50D467B4486
:10083000FFF7D1FF0446284600F008F810B14FF04A
:10084000FF3070BD204670BD87160000007B00F0B1
:100850008000704700487047000300207546FFF78E
:10086000F9FFAE4605006946534620F0070085466D
:1008700018B020B5FFF7E2FCBDE820404FF00006BD
:100880004FF000074FF000084FF0000B21F0070178
:10089000AC46ACE8C009ACE8C009ACE8C009ACE8BB
:1008A000C0098D46704710B50446AFF3008020465E
:1008B000BDE81040FFF7AEBCFEE710B501F052F9FD
:1008C00000F0FCFEBDE8104001F039B8FFF7F5FF7D
:1008D00000F000F803A0FFF73BFD05A0FFF738FD8F
:1008E000FEE70000C6F4B6AFB3C9B9A6210D0A00F1
:1008F000CBC4BCBE2D4C3135312DBACBD0C40D0A82
:1009000000000000704772B6FEE710B590F82110A5
:100910000024022903D00421816301241AE0016824
:100920000A6822F00E020A6001680A6822F00102D9
:100930000A6090F84010C36B01F01C02012101FA1B
:1009400002F25A6080F82110002180F82010416BDB
:1009500001B18847204610BD2DE9FC4FDFF894A176
:10096000002301250AF1040B03244FF00F0C0BF1B7
:10097000040EB8E005FA03F6324071D04F68012F3B
:1009800005D0022F03D0112F01D0122F17D1D0F88C
:1009900008905F0004FA07F829EA08090097D1F8DF
:1009A0000C8008FA07F848EA0908C0F80880476888
:1009B000B7430E79C6F300169E403E434660C668B4
:1009C0004FEA430804FA08F7BE4301978F6807FA15
:1009D00008F73743C7604E68022E01D0122E13D19C
:1009E000DE0800EB86060096366A5F07FF0E0CFAFB
:1009F00007F926EA0906D1F8109009FA07F949EA39
:100A00000609009EC6F820900768019EB7430E793C
:100A100006F0030606FA08F63E4306604E68F60046
:100A200060D5354E376847F001073760366823F0E8
:100A3000030706F001060096304E3E44B146B66804
:100A40009F074FEA17780CFA08F7BE432C4FB842BD
:100A500001D1002715E02B4FB84202D1012710E049
:100A600040E0294FB84201D102270AE0274FB8429F
:100A700001D1032705E0264FB84201D1042700E049
:100A8000052707FA08F73743C9F80870DAF8007045
:100A90005646D1F8048097435FEAC83800D517431B
:100AA0003760DBF800605F46D1F8048096435FEA68
:100AB000883800D516433E60DEF800607746D1F8EE
:100AC000048096435FEAC82800D516433E60094F6C
:100AD0000C373E68D1F8048096435FEA882800D539
:100AE00016433E605B1C0A6832FA03F67FF442AF9D
:100AF000BDE8FC8F000401402038024000000140A6
:100B0000000002400004024000080240000C0240C5
:100B1000001002400069084000D0012070470AB16F
:100B2000816170470904FBE7014880687047000055
:100B300000000020024881684268114481607047CB
:100B40000000002010B50024032000F07DF80320F1
:100B500000F008F808B1012401E000F025F8204673
:100B600010BD000070B50E4E05460024706898B1A7
:100B70004FF47A71B1FBF0F00A490968B1FBF0F06B
:100B800000F0B8FB40B9102D06D200222946501EB5
:100B900000F03AF8356000E00124204670BD000006
:100BA000000000200C0000200F4882B0016841F0D6
:100BB00000410160016801F000410091011F0A68D5
:100BC00042F001020A60096801F001010091016828
:100BD00041F080510160006800F0805000900520D5
:100BE00002B000F031B8000024380240002809DBD0
:100BF00000F01F02012191404009800000F1E02037
:100C0000C0F8001170470000F0B40E4B1B680C4692
:100C1000C3F30223C3F10705042D00D90425191DD0
:100C2000072901D2002300E0DB1E012606FA05F1A8
:100C3000491E214099409E40761E16403143F0BC2B
:100C400001F0EFB80CED00E0064900F0070208687B
:100C50004FF6FF03184040EA0220034A10430860A1
:100C6000704700000CED00E00000FA052DE9F047A8
:100C70000E46050079D0DFF88481D8F8000000F036
:100C80000100B04214D2012E05D1D8F8001041F075
:100C90000401C8F80010D8F8001021F00101314318
:100CA000C8F80010D8F8000000F00100B0425CD194
:100CB0002878534C800705D52068A96820F0F000FB
:100CC000084320602878C0075CD04D49686808391F
:100CD00002281AD003281BD0096801281BD08905D7
:100CE000002966DA216821F0030101432160FFF742
:100CF0001BFF6968074641F28830022914D0032996
:100D000020D0012981462AD038E009688903E7E725
:100D100009688901E4E78907E2E700BFFFF704FFFC
:100D2000C11B494501D926E081462068C0F38100F6
:100D30000228F3D126E000BFFFF7F6FEC11B4945AC
:100D400001D918E081462068C0F381000328F3D15F
:100D500018E000BFFFF7E8FEC11B49450BD820682B
:100D6000C0F381000128F5D10CE022E0FFF7DCFEA2
:100D7000C11B494502D90320BDE8F087206810F067
:100D80000C0FF3D1D8F80010404601F00101B14238
:100D900011D9012E03D1016841F0040101600168FD
:100DA00021F0010131430160006800F00100B04210
:100DB00001D00120E0E72878400705D52068E968E0
:100DC00020F4E060084320602878000706D52068FA
:100DD000296920F4605040EAC100206000F038F832
:100DE0002168084AC1F30311515CC84006490860F4
:100DF00006480068BDE8F047FFF7B4BE003C02407B
:100E0000083802402D2E00080C00002000000020B1
:100E10000448054900680968044AC1F30221515C8D
:100E2000C84070470C000020083802403D2E0008E2
:100E30000448054900680968044AC1F3C221515CAD
:100E4000C84070470C000020083802403D2E0008C2
:100E500070B5154D2968154801F00C02042A0CD014
:100E60004410082A0AD00C2A0AD0281F0068C0F3B0
:100E700042314FF40040491C884070BD204670BD8F
:100E80000B4AC1F38343D35CC1F381522968521CDE
:100E9000C90302D5A3FB040101E0A3FB0001002369
:100EA000FFF7DFF970BD0000083802400024F400AD
:100EB000242E00082DE9F84F04007DD0FC4801687D
:100EC000006801F00C0700F480362078F94DC00767
:100ED00041D0082F12D00C2F02D1B6F5803F0DD093
:100EE0006068012811D008B1052818D0286820F4BE
:100EF00080302860286820F4802009E0286880037A
:100F000029D560680028D8D025E0286840F48030D2
:100F10002860606890B1FFF707FE80460AE0286805
:100F200040F480202860F0E7FFF7FEFDA0EB08000A
:100F300064287BD828688003F6D50CE0FFF7F4FD21
:100F4000804605E0FFF7F0FDA0EB08006428F0D82C
:100F500028688003F6D42078DFF85CB3DFF85C8380
:100F600080074FF001094FF0000A35D5042F0AD051
:100F70000C2F00D13EB1E068F8B1C8F80090FFF73F
:100F8000D3FD06460BE0286880070BD5E0680128F2
:100F900012D107E0FFF7C8FD801B0228C9D82868D6
:100FA0008007F7D5DBF80010226921F4F85141EAF7
:100FB0000221CBF800100FE077E1C8F800A0FFF79E
:100FC000B3FD064605E000BFFFF7AEFD801B02281B
:100FD000AFD828688007F7D42078C00674D53FB111
:100FE000A069E0B3C8F82090FFF79EFD06464AE0EE
:100FF0002868800502D5A069002884D0206ADBF823
:1010000000105E4601F46041884210D900F0A8FC4F
:101010000028BDD13068216A20F460400843306068
:10102000217F306861F31F6030600FE096E0316827
:1010300021F4604101433160217F306861F31F601A
:101040003060206A00F08CFC0028A1D1216A4FF4A6
:10105000004009EB513188409549096800E025E0DE
:10106000974AC1F30311515CC840964908609648FD
:101070000068FFF777FD00286FD125E0FFF754FDEA
:10108000801B02286AD828688005F7D5DBF8001095
:10109000226A21F460411143CBF80010227FDBF873
:1010A000001062F31F61CBF800100DE0C8F820A01B
:1010B000FFF73AFD064604E0FFF736FD801B0228E5
:1010C0004CD828688005F7D42078804E000722D5B8
:1010D0007F48616981B1C0F80090FFF725FD834624
:1010E00006E000BFFFF720FDA0EB0B00022835D87B
:1010F00030688007F6D50EE0C0F800A0FFF714FDB9
:10110000834605E0FFF710FDA0EB0B00022825D871
:1011100030688007F6D4207840076DD56B484FF0D3
:10112000000B10380068C0000BD468481038016804
:1011300041F08051016000684FF0010B00F08050D9
:10114000009064480168C90514D4016841F48071B5
:101150000160FFF7E9FC009008E08DE079E000BF56
:10116000FFF7E2FC0099401A642872D859480068D9
:10117000C005F5D5A06801280AD008B1052811D00E
:10118000306820F480703060306820F4806002E0C5
:10119000306840F480703060A068A8B1FFF7C4FCEC
:1011A00000900DE0306840F480603060F0E700BFF0
:1011B000FFF7BAFC0099411A41F2883081425AD8AF
:1011C00030688005F4D50EE0FFF7AEFC009007E034
:1011D000FFF7AAFC0099411A41F2883081424AD8AF
:1011E00030688005F4D4BBF1000F05D037481038C3
:1011F000016821F080510160606A58B30C2F41D022
:101200000228504605D0C8F86000FFF78DFC044660
:1012100034E04746C8F86000FFF786FC064604E065
:10122000FFF782FC801B022825D828688001F7D4AC
:10123000D4E90A1001431E48226B036823F47D039E
:101240001A4311430160C7F86090FFF76DFC044634
:1012500007E010E040E000BFFFF766FC001B02283B
:1012600009D828688001F7D536E000BFFFF75CFC9D
:10127000001B022802D90320BDE8F88F28688001EE
:10128000F4D429E00128F7D009480068A26A00F4E4
:101290008031914209D1E26A00F47011914204D187
:1012A000216B00F44000884216D00120E4E70000E2
:1012B000083802400038024004380240000047422B
:1012C0002D2E00080C0000200000002034380240C1
:1012D00080064742007000400020CDE74FF0E0213B
:1012E0000428086903D020F004000861704740F02A
:1012F0000400FAE710B5401EB0F1807F01D3012051
:1013000010BD4FF0E02460610F21601700F089FDEF
:101310000020A06107202061002010BD10B504004E
:1013200003D094F8390010B107E0012010BD00206F
:1013300084F83800204600F017F8022084F83900BD
:10134000211D206800F0A2FB012084F83E0084F8F3
:101350003A0084F83B0084F83C0084F83D0084F8AF
:101360003900002010BD000008B500680B49884214
:1013700012D10B48016841F00401016000680322AA
:1013800000F00400009011461E20FFF73DFCBDE870
:1013900008401E20FFF72ABC08BD000000080040DE
:1013A0002438024090F83910012901D001207047FB
:1013B000022180F839100168CA6842F00102CA604F
:1013C0000068B0F1804F08D00949884205D009492A
:1013D000884202D00849884204D1816801F007019F
:1013E000062903D0016841F0010101600020704727
:1013F000000400400008004000080140704710F859
:10140000391F40780843704770B502680446106879
:10141000D168536910F00F0F53D003F0010501F4A8
:1014200090762E435FD0C20705D0CA0503D5E26B84
:1014300042F00102E263420705D5DA0703D0E26B0E
:1014400042F00202E263820705D5DA0703D0E26BBD
:1014500042F00402E263020707D501F020022A43AA
:1014600003D0E26B42F00802E263E26B002A34D060
:10147000800604D5880602D5204600F0AFFB206820
:101480004069E16BC0F3801001F008010143204680
:1014900024D000F095FB2068416949061AD54169BE
:1014A00021F040014161606BA0B11B494163606B59
:1014B000FFF72BFA002810D0606B416BBDE870403D
:1014C000084783060FD58B060DD52046BDE8704032
:1014D00000F084BB2046FFF791FF70BDFFF78EFF41
:1014E0000020E06370BD030606D50B0604D5204638
:1014F000BDE8704000F04CBC4006F3D54806F1D57D
:10150000D168204621F04001D160202184F83910B3
:1015100000F0CAF870BD0000B11B000870B50400EF
:1015200004D094F83900002510B106E0012070BD08
:1015300084F83850204600F023F8242084F839003D
:101540002068C16821F40051C160204600F092FB80
:101550002068016921F4904101612068416921F00E
:101560002A0141612068C16841F40051C160E5630E
:10157000202084F8390084F83A00002070BD000073
:1015800010B586B0044614216846FFF79BF8184949
:101590002068884229D11748016841F480410160E0
:1015A000006800F4804005901248001F016841F077
:1015B000010101600068694600F0010005904FF4E8
:1015C000C06000900220019001200290032003904F
:1015D000072004900848FFF7BFF903221146252091
:1015E000FFF712FB2520FFF701FB06B010BD00003E
:1015F00000380140203802400000024090F83A30A4
:10160000202B22D1F9B1F2B190F83830012B1CD047
:1016100081628285C2850021C163222280F83A203E
:1016200080F838100168CA6842F48072CA600168A4
:101630004A6942F001024A610068C16841F0200134
:10164000C1600020704701207047022070470000F1
:1016500030B50068114988420CD1114841880A040C
:1016600008D402464C0412784FF0000306D50A2A2B
:1016700001D0438030BD41F400410DE00D2A09D076
:10168000C1F30D04074D491C89B22A554180C72971
:10169000EFD830BD41F48041418030BD0038014079
:1016A00030000020B80100207047FEE713460A46CC
:1016B0000146014800F00AB81C00002000B585B0C2
:1016C00014216846FEF7FEFF05B000BD2DE9F0418C
:1016D0001E4617460C46054600F01AF821462846D5
:1016E00000F057F8284600F035F83946284600F053
:1016F00050F8284600F02EF83146284600F049F808
:10170000284600F027F82846BDE8F04100F013B85D
:1017100010B50446012100F06AF80121204600F0CE
:1017200060F80021204600F062F82046BDE8104035
:10173000002100F056B810B50446002100F057F81B
:101740000121204600F04DF82046BDE8104001215F
:1017500000F04DB870B505460024012100F047F8AF
:101760000121284600F03DF808E0641CE4B2FA2CA0
:1017700004D92846FFF7DFFF002070BD284600F09F
:101780002CF80028F1D10021284600F02AF8012089
:1017900070BD70B50C46064600250021304600F0AD
:1017A00020F8200601D5012100E00021304600F09C
:1017B0001EF80121304600F014F80021304600F0F8
:1017C00010F860066D1C040EEDB2082DE5D330460E
:1017D000BDE87040012100F00AB80189C068FFF738
:1017E00099B903880A4640681946FFF798B90389F2
:1017F0000A46C0681946FFF792B9FFF757BF0000C5
:101800002DE9F04186B014216846FEF75BFF2248BF
:10181000016841F004010160016801F004010591D3
:10182000016841F020010160016801F0200105918B
:10183000016841F001010160016801F001010591B9
:10184000016841F0020101600068012200F002001D
:10185000124F5403059021463846FFF760F9DFF830
:1018600040800122C0214046FFF759F9009401AAA7
:1018700011240125032682E8700069463846FFF7E7
:101880006BF8C0208DE8710069464046FFF764F8A8
:1018900006B0BDE8F08100001C380240000802409C
:1018A0000004024070B51B4C19480C2120604FF415
:1018B000E13060600020A060E060C4E90401A06144
:1018C000E0612046FFF72AFE08B1FFF71CF8262248
:1018D00010491148FEF7C4FEE08C0F4DE884A06A61
:1018E000A862A08DA885E08DE8850A4909223031DB
:1018F00005F13000FEF7B4FE94F8390085F83900A0
:1019000094F83A0085F83A00E06BE86370BD000097
:10191000003801407801002080020020427A0188CE
:101920004068FFF7FCB8027A01884068FFF7F7B813
:1019300001884068FFF7EEB8FEE7FEE7704710B594
:1019400001220B211A20FFF758FF1D2209211A201E
:10195000FFF753FFBDE810400A2000F085BA0000F1
:1019600038B51C49002309681B4A11F0F00F23D138
:1019700018491C310C68E500184C03D5216801F4A6
:10198000C0540EE00D6845F080550D600D6805F0FF
:101990008055009524680D6804F4C05425F08055E6
:1019A0000D60B4F5C05F07D1B0F5404F04D11068A9
:1019B000012340F004001060106820F0010018437B
:1019C0001060106800F00100984201D0012038BD7D
:1019D000002038BD08380240003C02400070004042
:1019E0007047FFF7A7B8000010B592B034216846E1
:1019F000FEF768FE14210DA8FEF764FE1148016889
:101A000021F4C05141F400610160012000900024E4
:101A1000019009946846FFF74DFA08B172B6FEE7E7
:101A20000F200D900220CDE90E04109400210DA886
:101A30001194FFF71BF9002801D072B6FEE712B02F
:101A400010BD00000070004002494FF000600860C7
:101A50007047000008ED00E010B50A4C2068C0682F
:101A6000C043C00709D108480069804721680020A9
:101A7000486221686420C862E06021686FF001005C
:101A8000086110BDC002002084000020F0B502688B
:101A90004FF0804C184B194C194D1A4E604507D029
:101AA000984205D0A04203D0A84201D0B04205D14F
:101AB00022F070074A683A4360450DD098420BD037
:101AC000A04209D0A84207D0B04205D00E4B9842A0
:101AD00002D00E4B984203D122F44073CA681A43D5
:101AE0000B6922F080021A4302608A68C2620968A8
:101AF000816201214161F0BD000400400008004006
:101B0000000C004000080140000C014000100140A2
:101B100038B5114A05460C46106840F004001060C4
:101B20001068032200F00400009011461E20FFF709
:101B30006BF81E20FFF75AF8094A0848C2E900046A
:101B40000020C2E9020510611046FFF7E7FBBDE87F
:101B500038400348FFF726BC243802400008004004
:101B6000C002002010B5082000F074F9FFF79AFEBB
:101B7000012206490648FFF741FD542000F0FCFC15
:101B8000BDE8104003A0FEF7E3BB000030000020DA
:101B900080020020287965732920D4DAD3C3D5FDCB
:101BA000B5E3D4ADD7D3B5C4BAAFCAFD2E0D0A0084
:101BB00010B5406A0021C185C184FFF71FFC10BD2C
:101BC0000168CA6822F49072CA6001684A6922F00A
:101BD00001024A61202180F83A10704710B590F850
:101BE0003A10222901D0022010BD8168B1F5805F32
:101BF00011D00169002901681FD0496801F07F03F5
:101C0000816A4A1C82620B70C18D491E0904090C4D
:101C1000C18518D02BE00269816A002A02685268E7
:101C200005D0D2B20A80816A491C8162ECE7C2F316
:101C300008020A80816A891CF7E74A68816A4B1C9E
:101C400083620A70E0E70168CA6822F02002CA6075
:101C50000168CA6822F48072CA6001684A6922F089
:101C600001024A61202180F83A10FFF7F1FC0020C0
:101C700010BD00002DE9F041044600680169E268EA
:101C800021F44051114301612169A068E2690843D0
:101C90006169114322680843D16849F20C63994392
:101CA0000143D16020684169A26921F44071114368
:101CB000416136492068884202D1FFF7B9F801E056
:101CC000FFF7A6F80246E36964203221B3F5004F1E
:101CD00002EBC20303EB021362682BD09200B3FB4A
:101CE000F2F5B5FBF0F5B3FBF2F66FF018077D43A4
:101CF00006EB8505B3FBF2F601EB0515B5FBF0F538
:101D0000B6FBF0F605F0F00505EB0615B3FBF2F6B1
:101D1000B3FBF2F2B2FBF0F27A4306EB820201EB84
:101D20000211B1FBF0F000F00F0021682844886038
:101D3000BDE8F0815200B3FBF2F6B6FBF0F6B3FB60
:101D4000F2F7B3FBF2F56FF0180C06FB0CF607EB9D
:101D5000860601EBC606B5FBF0F5B6FBF0F62D01E5
:101D600006F0F80605EB4605B3FBF2F6B3FBF2F21C
:101D7000B2FBF0F202FB0CF206EB820201EBC201B5
:101D8000B1FBF0F000F00700CFE7000000380140A1
:101D900090F83910212901D0022070478168B1F5EF
:101DA000805F016A0BD04A1C0262026809785160A8
:101DB000C18C491E0904090CC1840ED017E00988A2
:101DC0000268C1F30801516001690029016A02D06B
:101DD000491C0162ECE7891CFBE70168CA6822F034
:101DE0008002CA600068C16841F04001C160002003
:101DF0007047000010B50848FFF706FB0648FFF7DC
:101E0000FEFA2028FAD1012204490348FFF7F6FB25
:101E10000028F8D110BD0000800200203000002012
:101E2000FEE70907090E002804DB00F1E02080F836
:101E30000014704700F00F0000F1E02080F8141D3E
:101E4000704730380A2801D20120704700207047BF
:101E50007047000010B504460420FFF73FFA014820
:101E6000046010BD2C00002070B5054600244FF41E
:101E70007A7603E0304600F005F8641CAC42F9D3F2
:101E800070BD000070B54FF0E0240022656909497B
:101E9000A36909684843A1699942FCD002D2A3EB27
:101EA000010302E0A5EB010633441A440B468242CB
:101EB000F1D370BD2C00002004490A685206FCD5FD
:101EC000024AC1B2121D1160704700000038014083
:101ED000FEF738FEFFF788FDFFF792FCFEF7F6FCF1
:101EE000FEE7000010B50848FFF722FD0649097A11
:101EF0008842054803D1BDE81040FFF70FBDBDE89B
:101F00001040FFF710BD000010000020704700686F
:101F10007047000070B596B0054614AB01AA03A93E
:101F200000F0DEF9002824D18DF84C001D4C042669
:101F300015E000BF216806EBC00014AB08586A46E4
:101F40000BA900F0CDF9002813D103A90BA800F0CC
:101F500008FC80B19DF84C00401C8DF84C00217DA0
:101F6000C0B28142E6D8207D9DF84C1088420ED147
:101F7000042016B070BD9DF800009DF80410884242
:101F800001D90220F5E79DF84C00A075EBE713A9F5
:101F9000284600F05DFA0028EBD19DF84C006075F2
:101FA0000020E6E7840000202DE9F0417F4C9AB044
:101FB000A57D207DA8427DD90421206801EBC501C3
:101FC00019AB405810AA11A900F08AF911A978A0FC
:101FD000FEF7BEF900270DF1180833E0208B012130
:101FE000B940084217D0222173A0FEF7B1F9384654
:101FF00000F098FA011971A02431FEF7A9F9222105
:102000006DA0FEF7A5F9384600F08CFA2044243084
:1020100048F827000CE0384600F084FA2044416A72
:1020200048F82710E07D08B365A000BFFEF790F9DF
:102030009DF84000401E874202D063A0FEF788F959
:102040007F1CFFB29DF840008742C7D35FA0FEF718
:102050007FF900F0ADFA607D0B2814D2DFE800F0C4
:10206000080D31384048525E6B78880058A0DDE793
:10207000206850F83500804704E0206850F835109B
:1020800006988847064600F05FFA9DF8640001282C
:102090007DD050A0FEF75CF994F8EC0000280DD03C
:1020A000D4F8F0100A20B1FBF0F200FB1212B1FBE1
:1020B000F0F100E002E048A0FEF74AF91AB0BDE8EE
:1020C000F081206850F83520DDE906019047D9E716
:1020D000206806AE50F8353096E807009847D1E7FB
:1020E000206806AE50F8355096E80F00A847C9E7BB
:1020F0000A980090206806AE50F8355096E80F0018
:10210000A847BFE7DDE90A01CDE90001206806AE76
:1021100050F8355096E80F00A847B3E70AAB06AE73
:1021200093E807008DE80700206850F8355096E8DE
:102130000F00A847A6E70AAE96E80F008DE80F004B
:10214000206806AE50F8355096E80F00A84799E78A
:102150000BAE96E80F0001AE86E80F000A980090DB
:10216000206806AE50F8355096E80F00A84789E77A
:102170000CAE96E80F0002AE86E80F00DDE90A011A
:10218000CDE90001206806AE50F8355000E003E0CC
:1021900096E80F00A84775E7E07D314618B116A014
:1021A000FEF7D6F878E717A0FAE7000084000020D1
:1021B0000D0A257328000000256300002573000028
:1021C00030582558000000002C00000029000000B5
:1021D000256C64003B0D0A0046756E6374696F6E72
:1021E0002052756E2054696D653A25642E25316440
:1021F0006D730D0A000000003D305825583B0D0A54
:10220000000000003D256C753B0D0A00F0B504464A
:10221000002007460646054623782C2B03D0292BA1
:1022200004D01BB103E015B9012700E015B31EB1BE
:10223000222B2BD0F7B92FE0A3F1300CBCF1090F02
:1022400019D92D2B17D02B2B15D0A3F1610CBCF174
:10225000050F10D9A3F1410CBCF1050F0BD9582B78
:1022600009D0782B07D0222B0CD0202B1DD02C2B63
:102270001BD0FF260CE05FB9612B00D3203B01F897
:10228000013B12E027B9012635460EE0002567B173
:1022900000230B701670F0BD3DB15C2B02D1401CC9
:1022A000C0B2641C237801F8013B401CC0B2641C1E
:1022B000B2E730B5002515700AE001F8014B14783B
:1022C000401C641CE4B214709C4201D3012030BD58
:1022D0000478202C01D0002CEFD10D70002030BDEF
:1022E0002DE9FF4F002582B0984604462F462E4622
:1022F0004FF0010BAA462A46A94615E0202910D026
:1023000002F07F03052B0CD202B9802202F07F037A
:10231000042B01D12A290AD1521C0DF80310D2B284
:1023200001E0852A04D0401C01780029E6D162B181
:1023300002F07F0244A10DF80290684600F011FA05
:1023400038B1012188F8001000224FF00008234620
:1023500014E088F80090F7E708F1010000F0FF08AA
:1023600013F8010F202801D02A2807D1184600F0C1
:1023700085F9282802D02A2800D04746187828282E
:1023800001D00028E8D10FB13C44641C0027394635
:10239000207888B1282804D0292806D022280FD0F8
:1023A00010E079B96D1CEDB20CE059B925B16D1E84
:1023B00015F0FF0501D00CE00127012E32D039E0E5
:1023C00049B100214DB12C280FD020281FD028283A
:1023D0001DD07AB117E00121F4E7202820D0039B1B
:1023E00018700398401C03901AE0521C4FF0010B28
:1023F000D2B20CE0BAF1050F05D20DF80A000AF1CD
:10240000010000F0FF0A0BF1010000F0FF0B012DAD
:1024100006D1BBF1020F03D1761C4FF0030BF6B2CD
:10242000641CB5E70DF80A9007A1684600F099F919
:1024300000B9002604980670039880F8009006B052
:102440003846BDE8F08F0000766F69640000000038
:102450002DE9F04300248946314DB5B0214622468E
:102460006B18491CC9B29A760A29F9D303E000BF58
:1024700010F8011F91B101782829F9D1461C0127D4
:1024800033AA69463046FFF7C1FE06449DF8CC00EA
:1024900040B1012824D0FF2839D10BE0012035B00C
:1024A000BDE8F0839DF8000080B334A9684600F0D1
:1024B000EDF808B10220F2E7204600F033F8284496
:1024C00034994162288B07FA04F188432883042059
:1024D00029198876641CE4B20A2C18D90320DEE797
:1024E000684600F053F900F10108204600F01AF8A0
:1024F00041196846243100F040F9288B07FA04F1AD
:1025000008432919288381F81A80E3E7FFE7307828
:10251000292801D00028B3D189F800400020BEE767
:1025200084000020024610B500200146054B05E05E
:102530005C18491CA47EC9B22044C0B29142F7D3B2
:1025400010BD000084000020094800680169C943EB
:10255000CA070849D1F8F02004D14FF6FF731A4496
:10256000C1F8F020406A1044C1F8F0007047000044
:10257000C00200208400002000EBC00101EB00102D
:102580004FF0FF3101EB800010B581B24FF47A704B
:10259000FFF7BEFA01490120C87510BD8400002074
:1025A0000246012000E05043491EC9B2FBD27047E9
:1025B00007486FF00101026811610268090CD162DD
:1025C000C1600068002141620248C0F8F010704705
:1025D000C0020020840000202DE9F041164D28881B
:1025E000010426D51549C0B2154F00260E54B9680E
:1025F0001248884704000FD0104800F0D1F8012895
:1026000001D0040014D0012C09D0022C09D0032CD5
:1026100009D0042C0CD108E0F868804708E009A034
:1026200004E00BA002E00DA000E00FA0FDF790FE7B
:102630002E80BDE8F081000032000020B8010020AB
:1026400084000020BAAFCAFDB4EDCEF3210D0A001C
:10265000B2CECAFDB4EDCEF3210D0A00B2CECAFD52
:10266000CCABB6E0210D0A00CEB4D5D2B5BDC6A51F
:10267000C5E4B5C4BAAFCAFD210D0A0010F8011FA8
:10268000202901D10028F9D1C8B270472DE9F043C3
:102690000D4600244FF00A09264601462C600A78B0
:1026A000A2F13003092B14D903782D2B01D02B2B49
:1026B00000D174B1A2F14103052B0AD9582A05D0E3
:1026C00012F0FF0F17D00120BDE8F083012C02D0DB
:1026D000F9E7412A01D34FF0100902782D2A04D0DE
:1026E0002B2A04D0641CE4B203E0022600E0012699
:1026F000401C491CD3E70746B9F1100F01D084B143
:1027000012E0032C01D20220DEE73878302802D113
:102710007878582801D00320D6E7A41EE4B2BF1C65
:1027200001E00420D0E70CB1641EE4B23878A0F1D7
:102730003001092901D8884601E0A0F13708214677
:102740004846FFF72DFF2A6808FB0020286017F88D
:10275000011F0029E7D1022E01D14042286000204C
:10276000B2E702780B789A4201D00120704712B18B
:10277000401C491CF5E70020704702780A70027877
:10278000002A02D0401C491CF7E77047002102785C
:102790001AB1491CC9B2401CF9E70846704700004D
:1027A000F0B58DB004461E236A4602A9FFF781FDED
:1027B0000190002872D19DF80000271800263E4C99
:1027C0008DF800609DF8000054F8201002A8FFF773
:1027D000C8FF38B19DF80000401CC0B28DF8000061
:1027E0000728EFD39DF800000425344C072855D264
:1027F000DFE800F00404395A605F5E0030A0FDF7A6
:10280000A7FD30A0FDF7A4FD3EA0FDF7A1FD4DA062
:10281000FDF79EFD5BA0FDF79BFD6AA0FDF798FD0F
:1028200078A0FDF795FD86A0FDF792FD8BA0FDF742
:102830008FFD93A0FDF78CFD97A0FDF789FD9CA06F
:10284000FDF786FDA1A0FDF783FDA7A0FDF780FDA4
:10285000B3A0FDF77DFDC0A0FDF77AFDCBA0FDF78D
:1028600077FDD7A01BE016A0FDF772FDE4A0FDF7F1
:102870006FFD8DF800600BE0216805EBC000095882
:10288000EFA0FDF765FD9DF80000401C8DF80000ED
:10289000217D9DF800008142EED856E257E2FDF717
:1028A00057FD00200DB0F0BD05A0FDF751FDCBE1B7
:1028B0002CE20CE2EBE10000380000208400002054
:1028C0000D0A00002D2D2D2D2D2D2D2D2D2D2D2DD5
:1028D0002D2D2D2D2D2D2D2D2D2D2D2D55534D41A6
:1028E00052542056332E332D2D2D2D2D2D2D2D2DA3
:1028F0002D2D2D2D2D2D2D2D2D2D2D2D2D2D2D2015
:102900000D0A00002020202055534D415254CAC7C3
:10291000D3C9414C49454E54454BBFAAB7A2B5C493
:10292000D2BBB8F6C1E9C7C9B5C4B4AEBFDAB5F712
:10293000CAD4BBA5BDBBD7E9BCFE2CCDA8B9FD2030
:102940000D0A0000CBFC2CC4E3BFC9D2D4CDA8B97A
:10295000FDB4AEBFDAD6FACAD6B5F7D3C3B3CCD07E
:10296000F2C0EFC3E6B5C4C8CEBACEBAAFCAFD2C2A
:10297000B2A2D6B4D0D02ED2F2B4CB2CC4E3BFC90D
:102980000D0A0000D2D4CBE6D2E2B8FCB8C4BAAF8C
:10299000CAFDB5C4CAE4C8EBB2CECAFD28D6A7B3F7
:1029A000D6CAFDD7D62831302F3136BDF8D6C62C41
:1029B000D6A7B3D6B8BACAFD29A1A2D7D6B7FBB459
:1029C000AE0D0A00A1A2BAAFCAFDC8EBBFDAB5D8F6
:1029D000D6B7B5C8D7F7CEAAB2CECAFD292CB5A5B1
:1029E000B8F6BAAFCAFDD7EEB6E0D6A7B3D6313047
:1029F000B8F6CAE4C8EBB2CECAFD2CB2A2D6A7B3D1
:102A0000D60D0A00BAAFCAFDB7B5BBD8D6B5CFD47C
:102A1000CABE2ED6A7B3D6B2CECAFDCFD4CABEBDCB
:102A2000F8D6C6C9E8D6C3B9A6C4DC2CD6A7B3D697
:102A3000BDF8D6C6D7AABBBBB9A6C4DC2E0D0A000A
:102A4000BCBCCAF5D6A7B3D63A7777772E6F706538
:102A50006E6564762E636F6D0D0A000055534D410F
:102A60005254D3D037B8F6CFB5CDB3C3FCC1EE289E
:102A7000B1D8D0EBD0A1D0B4293A0D0A00000000A3
:102A80003F3A202020202020BBF1C8A1B0EFD6FA89
:102A9000D0C5CFA20D0A000068656C703A202020D6
:102AA000BBF1C8A1B0EFD6FAD0C5CFA20D0A000085
:102AB0006C6973743A202020BFC9D3C3B5C4BAAFC0
:102AC000CAFDC1D0B1ED0D0A0A00000069643A20C8
:102AD00020202020BFC9D3C3BAAFCAFDB5C4494422
:102AE000C1D0B1ED0D0A0A006865783A2020202097
:102AF000B2CECAFD3136BDF8D6C6CFD4CABE2CBAC6
:102B0000F3B8FABFD5B8F12BCAFDD7D6BCB4D6B44A
:102B1000D0D0BDF8D6C6D7AABBBB0D0A0A000000AC
:102B20006465633A20202020B2CECAFD3130BDF862
:102B3000D6C6CFD4CABE2CBAF3B8FABFD5B8F12BDB
:102B4000CAFDD7D6BCB4D6B4D0D0BDF8D6C6D7AAA5
:102B5000BBBB0D0A0A00000072756E74696D653AA0
:102B6000312CBFAAC6F4BAAFCAFDD4CBD0D0BCC6F4
:102B7000CAB13B302CB9D8B1D5BAAFCAFDD4CBD08D
:102B8000D0BCC6CAB13B0D0A0A000000C7EBB0B406
:102B9000D5D5B3CCD0F2B1E0D0B4B8F1CABDCAE457
:102BA000C8EBBAAFCAFDC3FBBCB0B2CECAFDB2A27D
:102BB000D2D4BBD8B3B5BCFCBDE1CAF82E0D0A0017
:102BC0002D2D2D2D2D2D2D2D2D2D2D2D2D2D2D2D35
:102BD0002D2D2D2D2D2D2D2D2D2D414C49454E5476
:102BE000454B2D2D2D2D2D2D2D2D2D2D2D2D2D2DDF
:102BF0002D2D2D2D2D2D2D2D2D2D2D200D0A0000AF
:102C00002D2D2D2D2D2D2D2D2D2D2D2D2D2D2D2DF4
:102C10002D2D2D2D2D2D2D2D2DBAAFCAFDC7E5B58E
:102C2000A52D2D2D2D2D2D2D2D2D2D2D2D2D2D2D5C
:102C30002D2D2D2D2D2D2D2D2D2D2D2D200D0A0041
:102C400025730D0A0000000042A0FDF781FB8DF8FE
:102C5000006016E0216805EBC0000BAB08580AAA1B
:102C600002A9FFF73DFB9DF80010206850F83120C5
:102C700002A948A0FDF76CFB9DF80000401C8DF8F0
:102C80000000217D9DF800008142E3D85DE0AFF2B5
:102C9000D030FDF75DFB6A4602A93846FFF7B6FA69
:102CA0009DF80000002843D101A902A8FFF7EEFC1F
:102CB0008DF8000010B104283AD102E03AA0019941
:102CC0001CE03CA0FDF744FB0120E0753DE038A08E
:102CD000FDF73EFB6A4602A93846FFF797FA9DF8D2
:102CE000000028BB01A902A8FFF7D0FC8DF8000066
:102CF00010B104281CD104E033A00199FDF728FB92
:102D000023E034A0FDF724FBE6751EE028A0FDF7C4
:102D10001FFB6A4602A93846FFF778FA9DF80000C3
:102D200030B901A902A8FFF7B1FC8DF8000008B185
:102D30000220B7E5019810F0FF0084F8EC0001D004
:102D400029A000E02FA0FDF703FB19A0A7E50120B3
:102D5000A8E500002D2D2D2D2D2D2D2D2D2D2D2DCA
:102D60002D2D2D2D2D2D2D2D2D2D2D2D2DBAAFCAE7
:102D7000FD204944202D2D2D2D2D2D2D2D2D2D2D9A
:102D80002D2D2D2D2D2D2D2D2D2D2D2D2D2D2D2D73
:102D9000200D0A0025732069642069733A0D0A30FA
:102DA00058253038580D0A004845583A30582558AB
:102DB0000D0A00003136BDF8D6C6B2CECAFDCFD45A
:102DC000CABE210D0A0000004445433A256C750D2A
:102DD0000A0000003130BDF8D6C6B2CECAFDCFD44D
:102DE000CABE210D0A00000052756E2054696D653F
:102DF0002043616C63756C6174696F6E204F4E0D7A
:102E00000A00000052756E2054696D652043616CA4
:102E100063756C6174696F6E204F46460D0A000041
:102E200001607047030406080C10182030000000F1
:102E3000000000000001020304060708090000006A
:102E4000000102030430313233343536373839412A
:102E500042434445464030580030313233343536F1
:102E60003738396162636465664030780004000079
:102E70000800000000000000020001000010000037
:102E80003F000000646563006964000072756E7441
:102E9000696D650068656C70000000006C69737492
:102EA0000000000068657800766F6964206D795FC6
:102EB0006770696F5F73656C665F7465737428769D
:102EC0006F69642900000000696E74206D795F7479
:102ED00065737428766F696429000000766F6964F1
:102EE0002077726974655F6164647228753332207B
:102EF000616464722C7533322076616C29000000A5
:102F000075333220726561645F6164647228753361
:102F10003220616464722900766F69642064656C94
:102F200061795F6D7328753136206E6D73290000ED
:102F3000766F69642064656C61795F757328753399
:102F400032206E7573290000682F000800000020F1
:102F50007801000060010008D42F000878010020EB
:102F6000E8070000BC010008321072012468FF1F4E
:102F700032202C0802401542405D0402408008C106
:102F800013802E1B0894041A9C041A88041AA404A3
:102F90001A84041A8C04130F1F1208122F1B082105
:102FA0000C1ADC0413691E1B0818101A85081A3045
:102FB000081A0D201AC8181AE5101AA8081A54760B
:102FC0001379251B0815181AA9041AD90C8A069713
:042FD00001D5000027
:0400000508000125C9
:00000001FF
