:020000040800F2
:10000000E80A002021020008EB200008E71C000895
:10001000E7200008DD080008393300080000000070
:10002000000000000000000000000000F12D0008AA
:10003000A109000800000000EF200008F32D0008CF
:100040003B0200083B0200083B0200083B0200089C
:100050003B0200083B0200083B0200083B0200088C
:100060003B0200083B0200083B0200083B0200087C
:100070003B0200083B0200083B0200083B0200086C
:100080003B0200083B0200083B0200083B0200085C
:100090003B0200083B0200083B0200083B0200084C
:1000A000000000003B0200083B0200083B02000881
:1000B0003B0200083B0200086D2E00083B020008CE
:1000C0003B0200083B0200083B0200083B0200081C
:1000D0003B020008F93200083B0200083B0200081E
:1000E0003B0200083B0200083B0200083B020008FC
:1000F0003B020008000000003B0200083B02000831
:1001000000000000000000003B0200083B02000865
:100110003B0200083B0200083B0200080000000010
:100120003B02000800F002F800F06BF80AA090E82B
:10013000000C82448344AAF10107DA4501D100F0A2
:1001400060F8AFF2090EBAE80F0013F0010F18BF04
:10015000FB1A43F001031847A0560000C0560000E8
:100160000A444FF0000C10F8013B13F0070408BFDD
:1001700010F8014B1D1108BF10F8015B641E05D07B
:1001800010F8016B641E01F8016BF9D113F0080F30
:100190001EBF10F8014BAD1C0C1B09D16D1E58BFC2
:1001A00001F801CBFAD505E014F8016B01F8016BF9
:1001B0006D1EF9D59142D6D370470000002300246C
:1001C00000250026103A28BF78C1FBD8520728BF67
:1001D00030C148BF0B607047642900F01581752954
:1001E00000F01281782900F04B81632900F0108320
:1001F000732900F01583002070471FB51FBD10B58F
:1002000010BD00F02BFB1146FFF7F7FF03F0B5FF21
:1002100000F049FB03B4FFF7F2FF03BC03F05DFFFE
:100220000948804709480047FEE7FEE7FEE7FEE78A
:10023000FEE7FEE7FEE7FEE7FEE7FEE704480549C6
:10024000054A064B704700005D2E00082501000896
:10025000E8040020E80A0020E8060020E806002064
:10026000704753EA020C00F069802DE9F04B4FF023
:100270000006002B1FBFB3FA83F503FA05F424FA36
:1002800005F65E4012BF1643B2FA82F502FA05F493
:10029000C5F120051EBF22FA05FC44EA0C042035F6
:1002A00056EA044C4FEA144418BF641C4FF000088F
:1002B0004FF00009904271EB030C39D3002919BFAC
:1002C000B1FA81F701FA07F6B0FA80F700FA07F6FB
:1002D000C7F120071EBF20FA07FC46EA0C062037AC
:1002E000B6FBF4FCA7EB0507103F07F01F0BCBF1A3
:1002F00020060CFA0BFB2CFA06F644BFB346002688
:10030000202FA4BF5E464FF0000B5BEA060C08BF2F
:100310004FF0010B19EB0B09ABFB027C48EB060815
:10032000C01B06FB02CC0BFB03CC71EB0C01C1E73D
:100330000B46024641464846BDE8F08B13B54FF0E8
:1003400000004FF00001AFF30080BDE81C40704793
:100350000FB4044910B503AA029800F065FA10BC66
:100360005DF814FB7801002070B5044685690068CB
:10037000C10601D5302600E02026C00707D070BD99
:10038000D4E9012130469047206A401C20626D1E4E
:10039000F6D570BD70B5044685690078C00707D1F1
:1003A00070BDD4E9012120209047206A401C2062C2
:1003B0006D1EF6D570BD70B50C460546012A05D0F8
:1003C0002878800600D5EA69002302E0012305E0D1
:1003D0005B1C934202D2E05C0028F9D1A869E618C0
:1003E000C01AA861286A184428622846FFF7BCFF93
:1003F00004E0D5E9012114F8010B9047B442F8D389
:100400002846FFF7C7FF70BD2DE9F04106460024DE
:1004100010687529314616A510D0AFF3008000286A
:1004200002DA404213A507E031688A0701D512A518
:1004300002E0490704D511A5012401E0AFF30080D3
:1004400000210A2206F1240709E0B0FBF2FCB0FB10
:10045000F2F302FB1C00303078541846491C002887
:10046000F3D123462A463046BDE8F04100F055B9A5
:10047000000000002D0000002B0000002000000004
:1004800070B504460D4621461068AFF30080218800
:10049000090502D50F4A7A4402E00E4A7A440E3228
:1004A000002104F1240305E000F00F060009965D29
:1004B0005E54491C0028F7D120780023000704D59A
:1004C000702D02D009B1022311322046BDE87040E0
:1004D00000F023B9275200002DE9F05F8946044659
:1004E0004FF0000ADFF874B1FB44C0F820A02046AA
:1004F000E1688847002874D0252806D0D4E9012176
:100500009047206A401C2062F1E700265F462046A3
:10051000E16888472028054607DB312D05D2781988
:1005200010F8200C08B10643F1E7B00701D526F01A
:100530000406C4F81CA00027C4F818A02A2D09D06E
:10054000284603F0C3FD38B304EB8708303DC8F8F4
:10055000185019E059F8041B204604EB87029161FA
:10056000E1688847012F054618D1E069002820DAA4
:1005700026F020061DE0D8F8180000EB800005EBFF
:1005800040003038C8F818002046E1688847054622
:1005900003F09CFD0028EED1012F0AD02E2D08D1AA
:1005A0002046E16888477F1C0546022F46F020065A
:1005B000C4DBA069002803DA404246F00106A061CE
:1005C000F00701D026F010066C2D0BD0682D09D055
:1005D0004C2D39D06A2D35D0742D35D07A2D33D0AD
:1005E00016E038E0E1682F4620468847B8420546C5
:1005F00009D16C2F26D04FF48060E1680643204675
:100600008847054604E06C2F1AD04FF480700643EB
:100610000DB3A5F14100192802D8203546F4006633
:100620004A462946204626604E46FFF7D5FD80B152
:1006300001280BD0F61D26F0070000F1080956E747
:100640004020E4E78020D8E70020D6E706F104093F
:100650004DE7284652E7206ABDE8F09FFD510000B3
:1006600010B5203AC0F00B80B1E81850203AA0E84D
:100670001850B1E81850A0E81850BFF4F5AF5FEA81
:10068000027C24BFB1E81850A0E8185044BF18C934
:1006900018C0BDE810405FEA827C24BF51F8043BDB
:1006A00040F8043B08BF7047D20728BF31F8023B2F
:1006B00048BF11F8012B28BF20F8023B48BF00F8C3
:1006C000012B70474FF0000200B513469446964642
:1006D000203922BFA0E80C50A0E80C50B1F1200155
:1006E000BFF4F7AF090728BFA0E80C5048BF0CC003
:1006F0005DF804EB890028BF40F8042B08BF704761
:1007000048BF20F8022B11F0804F18BF00F8012BD2
:10071000704770477047704770472DE9F0470D46A6
:1007200099469246044600F124080168880604D5DB
:10073000E06921F01001216000E00120A84201DD04
:10074000471B00E00027A1697A1902EB0900081A8B
:10075000A0612078C00602D42046FFF705FE0026DF
:1007600008E0D4E901211AF806009047206A401CED
:10077000761C20624E45F4DB2078C0060AD5204660
:10078000FFF7F2FD06E0D4E9012130209047206A0E
:10079000401C2062381EA7F10107F4DC07E0D4E911
:1007A000012118F805009047206A401C2062281E8D
:1007B000A5F10105F3DC2046FFF7ECFD20780006EB
:1007C00002D50220BDE8F0870120FBE701694A1C41
:1007D00002610878704700B58FB0CDE90131002182
:1007E000059105497944CDE9031011466846FFF7A4
:1007F00073FE0FB000BD0000E5FFFFFF10B54369B9
:1008000013B1AFF3008001E0FFF7D5FD012010BD6B
:10081000127800F124010A7000224A700122EDE7EB
:1008200011684FF0FF32E9E7074B70B50D467B4486
:10083000FFF7D1FF0446284600F008F810B14FF04A
:10084000FF3070BD204670BD23390000007B00F0F2
:100850008000704700487047880400207546FFF705
:10086000F9FFAE4605006946534620F0070085466D
:1008700018B020B5FFF7E2FCBDE820404FF00006BD
:100880004FF000074FF000084FF0000B21F0070178
:10089000AC46ACE8C009ACE8C009ACE8C009ACE8BB
:1008A000C0098D46704710B50446AFF3008020465E
:1008B000BDE81040FFF7AEBC10B5034607E018785E
:1008C0000C78A04201D0002010BD5B1C491C101EFA
:1008D000A2F10104A2B2F2D10120F5E700BFFEE7C8
:1008E00000B5B9B002F05AFB01F00EFA01F000FCBD
:1008F00020221A491BA8FFF7B3FE362217492031E0
:1009000023A8FFF7ADFE1548B0F85610ADF8C21099
:100910001BA812498A6D3192B1F85C10ADF8C8106D
:100920000E48B0F85E10ADF8CA10112200F1600157
:1009300033A8FFF795FE094890F871108DF8DD1087
:10094000416F1BA8416768221FA96846FFF788FE10
:100950001BA80FC801F0BDFF39B000BD400000204A
:10096000FFF7BEFF00F000F805A0FFF7F1FC07A0BD
:10097000FFF7EEFC03E003F01FFC00BFFEE7FAE721
:10098000C6F4B6AFB3C9B9A6210D0A00CBC4BCBE2C
:100990002D4C3135312DBACBD0C40D0A00000000EA
:1009A000704772B600BFFEE770B50446002594F8A4
:1009B0002100022803D00420A063012520E0206844
:1009C000006820F00E00216808602068006820F0B0
:1009D00001002168086094F8400000F01C0101202B
:1009E0008840E16B4860012084F8210000BF0020AE
:1009F00084F8200000BF606B10B12046616B88470F
:100A0000284670BD78B50346002200240020CAE0C5
:100A1000012696400D6805EA0604002C71D04D6849
:100A2000012D08D04D68022D05D04D68112D02D042
:100A30004D68122D13D1986856000325B540A84380
:100A40005600CD68B5402843986058680125954008
:100A5000A8430D79C5F30015954028435860D86820
:100A600056000325B540A84356008D68B54028437D
:100A7000D8604D68022D02D04D68122D13D1D608D2
:100A800003F1200555F826005507EE0E0F25B54059
:100A9000A8435607F60E0D69B5402843D60803F162
:100AA000200545F82600186856000325B540A843E0
:100AB0000D7905F003055600B540284318604D68D0
:100AC00005F08055B5F1805F6CD100BF394D2D68C0
:100AD00045F00105374E356035462D6805F00105B6
:100AE000009500BF00BF344D960855F826009507C5
:100AF0002E0F0F25B540A843304DAB4202D1002543
:100B000015E04FE02E4DAB4201D101250FE02D4DF8
:100B1000AB4201D102250AE02B4DAB4201D10325A6
:100B200005E02A4DAB4201D1042500E005259607DA
:100B3000360FB5402843204D960845F82600244D31
:100B40002868A0434D6805F48035B5F5803F00D195
:100B500020431F4D28602D1D2868A0434D6805F4D3
:100B60000035B5F5003F00D12043194D2D1D2860FB
:100B70002D1D2868A0434D6805F48015B5F5801F2C
:100B800000D12043124D083528602D1D2868A04350
:100B90004D6805F40015B5F5001F00D120430C4D3C
:100BA0000C352860521C0D68D540002D7FF430AF05
:100BB00078BD0000203802400800014000000240DB
:100BC0000004024000080240000C024000100240F5
:100BD00000040140024613690B400BB1012000E004
:100BE000002070470AB1816101E00B048361704706
:100BF00001480068704700000000002003480068BA
:100C00000349096808440149086070470000002052
:100C10000800002010B50024032000F0B7F80320DE
:100C200000F008F808B1012401E000F02FF8204698
:100C300010BD000070B50446002511480068D8B109
:100C40000F4800684FF47A71B1FBF0F00D49096864
:100C5000B1FBF0F6304600F0F3FD58B9102C07D286
:100C600000222146501E00F053F80748046004E0BB
:100C7000012502E0012500E00125284670BD0000A5
:100C8000080000200C0000200400002008B500BF70
:100C90001648006840F000401449086008460068A3
:100CA00000F00040009000BF00BF00BF081F0068B8
:100CB00040F00100091F08600846006800F00100CC
:100CC000009000BF00BF00BF081D006840F08050CA
:100CD000091D08600846006800F08050009000BFC1
:100CE00000BF052000F052F808BD00002438024083
:100CF00001460846002809DB00F01F0301229A4044
:100D000043099B0003F1E023C3F8002100BF7047B3
:100D10002DE9F05F80460D461646002703F0BAF92C
:100D2000074639462A46334601F00700C0F1070A54
:100D3000BAF1040F02D94FF0040A01E0C0F1070A2A
:100D4000D14600F1040ABAF1070F02D24FF0000AAF
:100D500001E0A0F1030AD4464FF0010A0AFA09FAA9
:100D6000AAF1010A0AEA020A0AFA0CFA4FF0010B88
:100D70000BFA0CFBABF1010B0BEA030B4AEA0B0479
:100D80002146404603F08EF9BDE8F09F00BF00F019
:100D90000702064B19684FF6FF031940044B0B433B
:100DA00043EA0221014B196000BF70470CED00E0DF
:100DB0000000FA0500BF00BF00BF00BF00BFBFF3C7
:100DC0004F8F00BF00BF00BF0948006800F4E0601B
:100DD00008490843001D0649086000BF00BF00BF66
:100DE000BFF34F8F00BF00BF00BF00BF00BFFDE7D4
:100DF0000CED00E00000FA052DE9F04104460D4637
:100E000014B90120BDE8F0817E48006800F00100BF
:100E1000A84218D200BF012D05D17A48006840F0E1
:100E20000400784908607748006820F001002843F2
:100E30007449086000BF0846006800F00100A8423D
:100E400001D00120DEE7207800F00200022807D15F
:100E50006D48006820F0F000A16808436A49086006
:100E6000207800F0010000287FD06068022807D1B8
:100E700065480838006800F40030F8B90120C1E77F
:100E80006068032807D160480838006800F00070E7
:100E9000A0B90120B6E76068012807D15A48083890
:100EA000006800F0020048B90120ABE75648083856
:100EB000006800F4007008B90120A3E752480068F8
:100EC00020F00300616808434F490860FFF790FE77
:100ED00006466068022810D108E0FFF789FE801BF3
:100EE00041F28831884201D903208BE746480068E7
:100EF00000F00C000828F0D137E06068032810D11A
:100F000008E0FFF775FE801B41F28831884201D965
:100F1000032077E73C48006800F00C000C28F0D173
:100F200023E06068012810D108E0FFF761FE801B14
:100F300041F28831884201D9032063E732480068D2
:100F400000F00C000428F0D10FE008E0FFF750FE9D
:100F5000801B41F28831884201D9032052E72A4898
:100F6000006800F00C000028F0D12648006800F06E
:100F70000100A84218D900BF012D05D12148006801
:100F800040F004001F4908601E48006820F001007E
:100F900028431C49086000BF0846006800F00100B3
:100FA000A84201D001202DE7207800F00400042899
:100FB00007D11548006820F4E060E1680843124951
:100FC0000860207800F00800082808D10E48006862
:100FD00020F46050216940EAC1000B49086000F02C
:100FE00041F809490968C1F30311084A515CC84036
:100FF0000749086007480068FFF71CFE07463846A7
:1010000000E70000003C024008380240A9560008F2
:101010000C00002004000020014800687047000018
:101020000C00002000B5FFF7F7FF04490968C1F381
:101030000221034A515CC84000BD0000083802404C
:10104000B956000800B5FFF7E7FF04490968C1F386
:10105000C221034A515CC84000BD0000083802406C
:10106000B95600082DE9F05F2248D0F8009009F049
:101070000C0070B3042804D0082804D00C2829D10F
:1010800003E01D4D32E01D4D30E01D48C9F38341A2
:1010900010F801A0C9F38150441C1648006800F400
:1010A000803050B11548A0FB0A700146224600234B
:1010B0003846FFF7D6F8064609E00F48A0FB0A704D
:1010C0000146224600233846FFF7CBF80646354650
:1010D0000CE000E000BF0748001F0068C0F3423B7F
:1010E0000BF1010001218140CD0300BF00BF284664
:1010F000BDE8F09F083802400024F40000127A0096
:10110000A05600082DE9F843044614B90120BDE8B3
:10111000F883FE48006800F00C06FC48006800F404
:101120008037207800F00100002875D0082E04D008
:101130000C2E0ED1B7F5803F0BD1F448083800686B
:1011400000F40030002867D06068002864D10120D6
:10115000DDE700BF6068012808D1EC480838006866
:1011600040F48030E949083908602DE0606868B9CA
:10117000E6480838006820F48030E44908390860FF
:101180000846006820F4802008601DE0606805289B
:101190000DD1DE480838006840F48020DB4908396A
:1011A00008600846006840F4803008600CE0D748CA
:1011B0000838006820F48030D449083908600846AF
:1011C000006820F48020086000BF606890B1FFF7DD
:1011D0000FFD054606E0FFF70BFD401B642801D913
:1011E000032094E7C9480838006800F4003000285C
:1011F000F1D011E0FFF7FCFC054606E0FFF7F8FC34
:10120000401B642801D9032081E7C04808380068E2
:1012100000F400300028F1D1207800F0020002280C
:1012200053D1042E02D00C2E17D1B7B9B7480838C5
:10123000006800F0020020B1E068012801D0012020
:1012400065E7B248001F006820F4F850216940EAC1
:101250000120AE49091F086037E0E06800B30120B3
:10126000AB490860FFF7C4FC054606E0FFF7C0FC89
:10127000401B022801D9032049E7A4480838006828
:1012800000F002000028F1D0A048001F006820F400
:10129000F850216940EA01209C49091F086014E0C8
:1012A00000209B490860FFF7A3FC054606E0FFF716
:1012B0009FFC401B022801D9032028E793480838E7
:1012C000006800F002000028F1D1207800F0100042
:1012D000102871D1F6BB8D480838006800F4007002
:1012E00018B1A06908B9012011E78849091F206ACF
:1012F000096801F46041884219D9206A00F008FFAA
:1013000008B1012003E78148001F006820F4604015
:10131000216A08437D49091F0860217F7B48001F1F
:10132000006861F31F607949091F08601AE0774877
:10133000001F006820F46040216A08437349091FB8
:101340000860217F7148001F006861F31F606F49CA
:10135000091F00E020E00860206A00F0D9FE08B113
:101360000120D4E60121206A01EB503101208840A0
:10137000C00366490968C1F30311664A515CC8405D
:101380006549086065480068FFF754FC8046B8F17D
:10139000000F42D04046BAE6A06948B301205C493C
:1013A0000862FFF725FC054607E0FFF721FC401B1C
:1013B000022802D90320AAE62FE054480838006822
:1013C00000F400700028F0D05048001F006820F49E
:1013D0006040216A08434D49091F0860217F4B483E
:1013E000001F006861F31F604849091F086014E08E
:1013F000002047490862FFF7FBFB054606E0FFF7C0
:10140000F7FB401B022801D9032080E63F4808383B
:10141000006800F400700028F1D1207800F0080086
:1014200008282CD16069A8B101203D490860FFF768
:10143000DFFB054606E0FFF7DBFB401B022801D976
:10144000032064E631482C30006800F002000028D8
:10145000F1D014E0002032490860FFF7C9FB0546CF
:1014600006E0FFF7C5FB401B022801D903204EE62A
:1014700026482C30006800F002000028F1D12078C6
:1014800000F0040004286ED14FF000091F481C3002
:10149000006800F0805088B900BF1C481C3000680C
:1014A00040F0805019491C3108600846006800F07F
:1014B0008050009000BF00BF4FF00109194800683C
:1014C00000F48070B0B91748006840F48070154986
:1014D0000860FFF78DFB054606E0FFF789FB401B20
:1014E000642801D9032012E60E48006800F48070D9
:1014F0000028F2D000BFA068012817D103482C3083
:10150000006840F4807001492C310DE00838024039
:1015100000004742A95600080C00002004000020EB
:101520008006474200700040086028E0A06858B973
:101530006648006820F480706449086008460068C6
:1015400020F4806008601AE0A06805280CD15F488C
:10155000006840F480605D4908600846006840F417
:10156000807008600BE040E05848006820F480700C
:10157000564908600846006820F48060086000BF93
:10158000A06898B1FFF734FB054608E0FFF730FB91
:10159000401B41F28831884201D90320B7E54B480E
:1015A000006800F400700028F0D012E0FFF720FB84
:1015B000054608E0FFF71CFB401B41F288318842DA
:1015C00001D90320A3E54148006800F40070002819
:1015D000F0D1B9F1010F07D13C481038006820F074
:1015E00080503A491039086000BF606AA8B30C2ED9
:1015F00052D0606A022839D1002035490866FFF7C9
:10160000F7FA054606E0FFF7F3FA401B022801D976
:1016100003207CE52D483438006800F00070002875
:10162000F1D1D4E90A010843216B084327492C3939
:10163000096821F47D01084324492C390860012000
:1016400023490866FFF7D4FA054607E0FFF7D0FA0A
:10165000401B022802D9032059E535E01B483438E5
:10166000006800F000700028F0D02DE0002018493C
:101670000866FFF7BDFA054606E0FFF7B9FA401B1A
:10168000022801D9032042E510483438006800F0F0
:1016900000700028F1D117E0606A012800D136E51A
:1016A0000A482C38076807F48031A06A814209D1C2
:1016B00007F47011E06A814204D107F44001206B05
:1016C000814201D0012022E5002020E5343802408B
:1016D0000000474210B504460CB9012010BD606AF5
:1016E00038B96068B0F5827F00D105E00021E16182
:1016F00002E00021216161610021A16294F85100A2
:1017000028B9002084F85000204600F047F8022055
:1017100084F851002068006820F0400021680860CB
:10172000A08800F48270218901F404410843A18952
:1017300001F400610843217C01F002010843217D8E
:1017400001F001010843218B01F400710843217F5E
:1017500001F0380108432021095D01F080010843B0
:10176000218D01F400510843216808600421A0691B
:1017700001EA104094F8241001F010010843216898
:1017800048602068C06920F400602168C8610020BA
:101790006065012084F8510000209FE710B586B0F5
:1017A0000446142101A8FEF78DFF184920688842DD
:1017B00029D100BF1648006840F4805014490860E1
:1017C0000846006800F48050009000BF00BF00BFD2
:1017D000081F006840F00100091F08600846006803
:1017E00000F00100009000BF00BFE0200190022047
:1017F000029000200390032004900520059001A989
:101800000448FFF7FFF806B010BD000000300140AB
:101810002038024000000240042808D14FF0E021A7
:10182000096941F004014FF0E022116107E04FF037
:10183000E021096921F004014FF0E02211617047B5
:1018400070B504462546681EB0F1807F01D30120A3
:101850000FE0681E4FF0E02148610F214FF0FF308C
:1018600002F020FC00204FF0E02188610720086191
:10187000002070BD10B504460CB9012010BD94F8CD
:10188000390028B9002084F83800204600F01AF802
:10189000022084F83900211D206801F009FB012095
:1018A00084F83E0000BF84F83A0001213B20015536
:1018B0003C2001553D20015500BF012084F839002E
:1018C0000020DBE738B504460D492068884215D171
:1018D00000BF0C48006840F004000A490860084650
:1018E000006800F00400009000BF00BF0322114612
:1018F0001E20FFF70DFA1E20FFF7FAF938BD000091
:101900000008004024380240014691F839000128BF
:1019100001D001207047022081F839000868C068B2
:1019200040F001000B68D8600868B0F1804F0BD020
:10193000104B0868984207D00F4B0868984203D0B4
:101940000E4B086898420CD10868806800F00702C6
:10195000062A0CD00868006840F001000B68186087
:1019600005E00868006840F001000B68186000207E
:10197000D0E70000000400400008004000080140DB
:10198000704701460022002391F8392091F83A303F
:1019900042EA0300704700002DE9F0470446206842
:1019A00005682068C668206847694FF00008C1468E
:1019B00005F00F08B8F1000F0AD105F0200038B18A
:1019C00006F0200020B1204601F036FBBDE8F0878C
:1019D000B8F1000F72D007F0010018B906F490704A
:1019E00000286BD005F0010030B106F4807018B10A
:1019F000E06B40F00100E06305F0040030B107F057
:101A0000010018B1E06B40F00200E06305F0020055
:101A100030B107F0010018B1E06B40F00400E06362
:101A200005F0080048B106F0200010B907F00100E9
:101A300018B1E06B40F00800E063E06B70B305F0B4
:101A4000200028B106F0200010B1204601F0F4FA81
:101A500020684069C0F38019E06B00F0080010B9FD
:101A6000B9F1000F23D0204601F0C6FA2068406982
:101A700000F04000402816D12068406920F0400066
:101A800021684861606B50B11748616B4863606BB7
:101A9000FEF78AFF10B1606B416B88470CE020466F
:101AA000FFF76EFF08E02046FFF76AFF04E02046DC
:101AB000FFF766FF0020E06388E7FFE705F080009E
:101AC00030B106F0800018B1204601F0E1FB7DE75F
:101AD00005F0400030B106F0400018B1204601F09A
:101AE0009BFA73E700BF71E7E52F000810B50446C5
:101AF0000CB9012010BDA06900B100E000BF94F84E
:101B0000390028B9002084F83800204600F028F871
:101B1000242084F839002068C06820F4005021682F
:101B2000C860204601F0DCFA2068006920F490408B
:101B3000216808612068406920F02A002168486116
:101B40002068C06840F400502168C8600020E0634D
:101B5000202084F8390084F83A000020CAE7000009
:101B600010B586B00446142101A8FEF7ABFD1C4950
:101B70002068884232D100BF1A48006840F4804093
:101B8000184908600846006800F48040009000BFD3
:101B900000BF00BF081F006840F00100091F086077
:101BA0000846006800F00100009000BF00BF4FF43D
:101BB000C060019002200290012003900320049055
:101BC0000720059001A90848FEF71CFF03221146D3
:101BD0002520FFF79DF82520FFF78AF806B010BDF5
:101BE00000380140203802400000024010B5034692
:101BF00093F83A0020282FD101B10AB9012010BD75
:101C000000BF93F83800012801D10220F7E7012036
:101C100083F8380000BF99629A85DA850020D8637E
:101C2000222083F83A0000BF002083F8380000BF6C
:101C30001868C06840F480701C68E06018684069EB
:101C400040F001001C6860611868C06840F0200026
:101C50001C68E0600020D2E70220D0E71D4A01683E
:101C6000914236D11C49098801F4004189BB1A49C7
:101C7000098801F4804171B1184909780A2903D013
:101C80000021154A118024E01349098841F40041DC
:101C9000114A11801DE0114909780D2906D10E491C
:101CA000098841F480410C4A118012E00B490978FF
:101CB000094A1288C2F30D02094B99540649098852
:101CC000491C054A118011460988C72901DD0021F8
:101CD00011807047003801407C0100207E01002007
:101CE00040030020704700BFFEE7000070B50446C7
:101CF0000D46164633462A462146024800F02AF889
:101D000070BD00002C00002000B587B0142102A88F
:101D1000FEF7D8FC00BF0D48006840F002000B49F8
:101D200008600846006800F00200019000BF00BF94
:101D3000C02002900120039004900320059002A986
:101D40000348FEF75FFE07B000BD00001C380240EC
:101D5000000402402DE9F04107460C4615461E4698
:101D6000384600F022F82146384600F07CF8384624
:101D700000F051F810B1384600F032F829463846E4
:101D800000F071F8384600F046F83146384600F069
:101D90006AF8384600F03FF810B1384600F020F8F5
:101DA000384600F01DF8BDE8F08110B50446012169
:101DB000204600F08AF80121204600F0ABF801210E
:101DC000204600F09EF802F0D3F90021204600F0F2
:101DD000A1F802F0CDF90021204600F092F810BDE4
:101DE00010B504460121204600F06FF8002120467E
:101DF00000F087F80021204600F08CF802F0B8F9D6
:101E00000121204600F07DF80121204600F082F8F3
:101E100002F0AEF910BD70B5054600240021284639
:101E200000F053F80121284600F074F802F0A0F900
:101E30000121284600F065F802F09AF908E0601CDC
:101E4000C4B2FA2C04DD2846FFF7CAFF012070BD9A
:101E5000284600F04FF80028F1D10021284600F074
:101E600050F80020F3E770B506460C4601213046D5
:101E700000F02BF80021304600F043F800251DE06B
:101E800004F0800020B10121304600F043F803E067
:101E90000021304600F03EF86006040E02F068F9BA
:101EA0000121304600F02DF802F062F900213046A1
:101EB00000F027F802F05CF9681CC5B2082DDFDBE2
:101EC0000121304600F026F870BD30B585B00446DB
:101ED0000D460220039020890090012D02D101209F
:101EE000019001E0002001906946E068FEF78AFD5C
:101EF00005B030BD10B504462189E068FEF76AFEE2
:101F000010BD70B504460D4621882A466068FEF76C
:101F100069FE70BD70B504460D4621892A46E06809
:101F2000FEF760FE70BD70B504460D46164632469B
:101F300029462046FFF7DAFE70BD000000B587B0E5
:101F4000142102A8FEF7BEFB00BF3448006840F031
:101F50000400324908600846006800F0040001905F
:101F600000BF00BF00BF0846006840F020000860C6
:101F70000846006800F02000019000BF00BF00BFCD
:101F80000846006840F0010008600846006800F05C
:101F90000100019000BF00BF00BF0846006840F08C
:101FA000020008600846006800F00200019000BFCF
:101FB00000BF012251031A48FEF714FE002210212F
:101FC0001848FEF70FFE0122C0211748FEF70AFE4F
:101FD0004FF4005002901120039001200490032040
:101FE000059002A90E48FEF70DFD10200290012079
:101FF00003900490059002A90A48FEF703FDC02053
:10200000029011200390012004900320059002A962
:102010000548FEF7F7FC07B000BD00001C38024081
:1020200000080240000002400004024010B51F48B2
:102030001F4908604FF4E130486000211C4881606E
:10204000C16001610C21416100218161C161FFF723
:102050004DFD08B1FEF7A5FC262215491548FEF7EF
:10206000FFFA1348C08C1349C884084610498A6A8D
:102070008262898D81850E48C08D0E49C8850922EE
:102080000B4930310B483030FEF7EAFA084890F837
:102090003900084981F83900054890F83A0081F87C
:1020A0003A000348C06BC86310BD0000003801400F
:1020B000C80200200804002010B50446627A218876
:1020C0006068FEF78FFD10BD10B50446227A2188A6
:1020D0006068FEF787FD10BD10B504462188606872
:1020E000FEF778FD10BD00BFFEE700BFFEE77047BA
:1020F00010B501220B211A20FFF715FF1D2209211F
:102100001A20FFF710FF0A2001F0F4FF10BD0000B5
:1021100018B5034600222548006800F0F00050BBC7
:1021200022481C30006800F0805020B12048006830
:1021300000F4C05118E000BF1C481C30006840F09B
:1021400080501A4C1C3420602046006800F08050FB
:10215000009000BF00BF1648006800F4C051204640
:10216000006820F080502060B1F5C05F03D1B3F566
:10217000404F00D1012200BF012A05D10D4800685F
:1021800040F004000B4C20600A48006820F0010079
:102190001043084C206000BF2046006800F001009A
:1021A000904201D0012018BD0020FCE70838024011
:1021B00000700040003C02400FB470B5BAB05D9EA4
:1021C0005C9D5E9C20223EA91CA8FEF749FA36229F
:1021D00046A924A8FEF744FABDF84E11ADF8C61082
:1021E000549A3292BDF85411ADF8CC10BDF8561186
:1021F000ADF8CE10112256A934A8FEF731FA9DF899
:1022000069118DF8E1103EA8416F1CA841670020BC
:10221000682220A91A906846FEF722FA1CA80FC867
:1022200000F010FD20223EA91CA8FEF719FA362264
:1022300046A924A8FEF714FABDF84E11ADF8C61051
:10224000549A3292BDF85411ADF8CC10BDF8561125
:10225000ADF8CE10112256A934A8FEF701FA9DF868
:1022600069118DF8E1103EA8416F1CA84167032059
:10227000682220A91A906846FEF7F2F91CA80FC838
:1022800000F00EFD20223EA91CA8FEF7E9F9362237
:1022900046A924A8FEF7E4F9BDF84E11ADF8C61022
:1022A000549A3292BDF85411ADF8CC10BDF85611C5
:1022B000ADF8CE10112256A934A8FEF7D1F99DF839
:1022C00069118DF8E1103EA8416F1CA84167C4F365
:1022D0000740682220A91A906846FEF7C1F91CA899
:1022E0000FC800F0DDFC20223EA91CA8FEF7B8F9BB
:1022F000362246A924A8FEF7B3F9BDF84E11ADF871
:10230000C610549A3292BDF85411ADF8CC10BDF8F5
:102310005611ADF8CE10112256A934A8FEF7A0F937
:102320009DF869118DF8E1103EA8416F1CA8416726
:10233000C4F30720682220A91A906846FEF790F996
:102340001CA80FC800F0ACFC20223EA91CA8FEF778
:1023500087F9362246A924A8FEF782F9BDF84E1166
:10236000ADF8C610549A3292BDF85411ADF8CC10A5
:10237000BDF85611ADF8CE10112256A934A8FEF7BB
:102380006FF99DF869118DF8E1103EA8416F1CA806
:102390004167E0B2682220A91A906846FEF760F90A
:1023A0001CA80FC800F07CFC31E020223EA91CA82C
:1023B000FEF756F9362246A924A8FEF751F9BDF8D2
:1023C0004E11ADF8C610549A3292BDF85411ADF8C2
:1023D000CC10BDF85611ADF8CE10112256A934A874
:1023E000FEF73EF99DF869118DF8E1103EA8416FA6
:1023F0001CA84167FF20682220A91A906846FEF7B2
:102400002FF91CA80FC800F04BFC28706D1C301E63
:10241000A6F101018EB2C8D120223EA91CA8FEF768
:102420001FF9362246A924A8FEF71AF9BDF84E1165
:10243000ADF8C610549A3292BDF85411ADF8CC10D4
:10244000BDF85611ADF8CE10112256A934A8FEF7EA
:1024500007F99DF869118DF8E1103EA8416F1CA89D
:1024600041670120682220A91A906846FEF7F8F813
:102470001CA80FC800F0E6FB3AB070BC5DF814FB76
:102480000FB42DE9F04FBBB0629E649D639C4FF08A
:102490000009C846C2460027BB4605F0FF0ACAF13C
:1024A0000000C7B22046E11704EB1161C1F3072910
:1024B000E11704EB11610912A4EB012101F0FF08FF
:1024C000BAF1000F7ED1B9F1000F31D1202244A919
:1024D0001DA8FEF7C5F836224CA925A8FEF7C0F8BE
:1024E000BDF86611ADF8CA105A9A3392BDF86C1156
:1024F000ADF8D010BDF86E11ADF8D21011225CA964
:1025000035A8FEF7ADF89DF881118DF8E51044A8C7
:10251000416F1DA84167682221A96846CDE91A6468
:102520001C95FEF79DF81DA80FC800F001FACBE13D
:1025300036E0202244A91DA8FEF792F836224CA9C5
:1025400025A8FEF78DF8BDF86611ADF8CA105A9AA5
:102550003392BDF86C11ADF8D010BDF86E11ADF826
:10256000D21011225CA935A8FEF77AF89DF88111E6
:102570008DF8E51044A8416F1DA841674FF48070A5
:10258000682221A9CDE91A601C956846FEF768F813
:102590001DA80FC800F0CCF905F5807506F580760A
:1025A000B9F10000A9F1010101F0FF09C1D1202218
:1025B00044A91DA8FEF754F836224CA925A8FEF719
:1025C0004FF800E027E0BDF86611ADF8CA105A9A3E
:1025D0003392BDF86C11ADF8D010BDF86E11ADF8A6
:1025E000D21011225CA935A8FEF73AF89DF88111A6
:1025F0008DF8E51044A8416F1DA84167682221A904
:102600006846CDE91A681C95FEF72AF81DA80FC880
:1026100000F08EF958E1B9F1000F7DD1B84568DDC1
:10262000A8EB070000F0FF0B202244A91DA8FEF72D
:1026300017F836224CA925A8FEF712F8BDF8661146
:10264000ADF8CA105A9A3392BDF86C11ADF8D0109B
:10265000BDF86E11ADF8D21011225CA935A8FDF7B6
:10266000FFFF9DF881118DF8E51044A8416F1DA86A
:102670004167682221A96846CDE91A671C95FDF7D4
:10268000EFFF1DA80FC800F053F93D443E4420223F
:1026900044A91DA8FDF7E4FF36224CA925A8FDF7A3
:1026A000DFFFBDF86611ADF8CA105A9A3392BDF833
:1026B0006C11ADF8D010BDF86E11ADF8D21011222A
:1026C0005CA935A8FDF7CCFF9DF881118DF8E510C8
:1026D00044A8416F1DA84167682221A96846CDE939
:1026E0001A6B1C95FDF7BCFF1DA80FC800F020F960
:1026F000EAE0202244A91DA8FDF7B2FF36224CA92A
:1027000025A8FDF7ADFFBDF86611ADF8CA105A9ABD
:102710003392BDF86C1100E01FE0ADF8D010BDF8A9
:102720006E11ADF8D21011225CA935A8FDF798FF03
:102730009DF881118DF8E51044A8416F1DA84167EF
:10274000682221A96846CDE91A641C95FDF788FF27
:102750001DA80FC800F0ECF8B6E0E01B84B22046DC
:10276000E11704EB1161C1F30729E11704EB1161D3
:102770000912A4EB012101F0FF08202244A91DA8A1
:10278000FDF76EFF36224CA925A8FDF769FFBDF8BD
:102790006611ADF8CA105A9A3392BDF86C11ADF8B3
:1027A000D010BDF86E11ADF8D21011225CA935A879
:1027B000FDF756FF9DF881118DF8E51044A8416F93
:1027C0001DA84167682221A96846CDE91A671C95B2
:1027D000FDF746FF1DA80FC800F0AAF83D443E448F
:1027E00036E0202244A91DA8FDF73AFF36224CA965
:1027F00025A8FDF735FFBDF86611ADF8CA105A9A45
:102800003392BDF86C11ADF8D010BDF86E11ADF873
:10281000D21011225CA935A8FDF722FF9DF8811185
:102820008DF8E51044A8416F1DA841674FF48070F2
:10283000682221A9CDE91A601C956846FDF710FFB2
:102840001DA80FC800F074F805F5807506F58076B0
:10285000B9F10000A9F1010101F0FF09C1D1B8F1FE
:10286000000F31D0202244A91DA8FDF7F9FE362221
:102870004CA925A8FDF7F4FEBDF86611ADF8CA1005
:102880001DA95A9A3392BDF86C01ADF8D000BDF87D
:102890006E11ADF8D21011225CA935A8FDF7E0FE4B
:1028A0009DF881118DF8E51044A8416F1DA841677E
:1028B000682221A96846CDE91A681C95FDF7D0FE6B
:1028C0001DA80FC800F034F83BB0BDE8F00F5DF86C
:1028D00014FB0FB400B597B0362220A901A8FDF76C
:1028E000BFFEBDF8B600ADF83A002E990F91BDF8C5
:1028F000BC00ADF84000BDF8BE00ADF842001122AA
:1029000030A911A8FDF7ACFE9DF8D1008DF8550057
:1029100018A8406F169001A8FEF7DCFE0198006829
:1029200040F040000199086017B05DF814FB00000A
:102930000FB470B5BAB05D9E5C9D5E9C01F002FB69
:1029400020223EA91CA8FDF78BFE362246A924A80A
:10295000FDF786FEBDF84E11ADF8C610549A3292BE
:10296000BDF85411ADF8CC10BDF85611ADF8CE102D
:10297000112256A934A8FDF773FE9DF869118DF850
:10298000E1103EA8416F1CA841670020682220A9E1
:102990001A906846FDF764FE1CA80FC800F052F9B3
:1029A00020223EA91CA8FDF75BFE362246A924A8DA
:1029B000FDF756FEBDF84E11ADF8C610549A32928E
:1029C000BDF85411ADF8CC10BDF85611ADF8CE10CD
:1029D000112256A934A8FDF743FE9DF869118DF820
:1029E000E1103EA8416F1CA841670220682220A97F
:1029F0001A906846FDF734FE1CA80FC800F050F985
:102A000020223EA91CA8FDF72BFE362246A924A8A9
:102A1000FDF726FEBDF84E11ADF8C610549A32925D
:102A2000BDF85411ADF8CC10BDF85611ADF8CE106C
:102A3000112256A934A8FDF713FE9DF869118DF8EF
:102A4000E1103EA8416F1CA84167C4F3074068220B
:102A500020A91A906846FDF703FE1CA80FC800F0D5
:102A60001FF920223EA91CA8FDF7FAFD362246A92F
:102A700024A8FDF7F5FDBDF84E11ADF8C610549A27
:102A80003292BDF85411ADF8CC10BDF85611ADF826
:102A9000CE10112256A934A8FDF7E2FD9DF8691168
:102AA0008DF8E1103EA8416F1CA84167C4F30720D0
:102AB000682220A91A906846FDF7D2FD1CA80FC80D
:102AC00000F0EEF820223EA91CA8FDF7C9FD362231
:102AD00046A924A8FDF7C4FDBDF84E11ADF8C610F7
:102AE000549A3292BDF85411ADF8CC10BDF856117D
:102AF000ADF8CE10112256A934A8FDF7B1FD9DF80E
:102B000069118DF8E1103EA8416F1CA84167E0B241
:102B1000682220A91A906846FDF7A2FD1CA80FC8DC
:102B200000F0BEF8B6F5807F04DD4FF4807638A063
:102B3000FDF70EFC30E020223EA91CA8FDF790FD19
:102B4000362246A924A8FDF78BFDBDF84E11ADF83D
:102B5000C610549A3292BDF85411ADF8CC10BDF89D
:102B60005611ADF8CE10112256A934A8FDF778FD04
:102B70009DF869118DF8E1103EA8416F1CA84167CE
:102B80002878682220A91A906846FDF769FD1CA8DC
:102B90000FC800F085F86D1C301EA6F101018EB241
:102BA000C9D120223EA91CA8FDF75AFD362246A90C
:102BB00024A8FDF755FDBDF84E11ADF8C610549A86
:102BC0003292BDF85411ADF8CC10BDF85611ADF8E5
:102BD000CE10112256A934A8FDF742FD9DF86911C7
:102BE0008DF8E1103EA8416F1CA8416701206822C2
:102BF00020A91A906846FDF733FD1CA80FC800F005
:102C000021F801F073F83AB070BC5DF814FB0000D5
:102C10003C3C2D464C4153482D4552524F522D3E7F
:102C20003E205350495F464C4153485F50616765B1
:102C3000577269746520746F6F206C6172676521CB
:102C40000A0000000FB470B5229C059DBDF810600D
:102C5000224631462846FDF7C5FF70BC5DF814FBDF
:102C600010B51C9C214602A0FDF772FB002010BD90
:102C70003C3C2D464C4153482D4552524F522D3E1F
:102C80003E2053504920B5C8B4FDB3ACCAB121654C
:102C900072726F72436F6465203D2025640A0000E4
:102CA0000FB430B5EDB08E9D362278A957A8FDF748
:102CB000D7FCBDF81602ADF8920186996591BDF872
:102CC0001C02ADF89801BDF81E02ADF89A01112260
:102CD00088A967A8FDF7C4FC9DF831028DF8AD0105
:102CE00070A8406F6C904FF4005437E0201EA4F1A0
:102CF000010433D1202270A939A8FDF7B1FC362296
:102D000078A941A8FDF7ACFCBDF81612ADF83A1150
:102D1000869A4F92BDF81C12ADF84011BDF81E12F4
:102D2000ADF84211112288A951A8FDF799FC9DF830
:102D300031128DF8551170A8416F39A841670020F4
:102D400068223DA91A906846FDF78AFC39A80FC889
:102D5000FFF786FF6DB030BC5DF814FB57988068B4
:102D6000C0F340000028C1D05798C5604FF400540C
:102D700034E0201EA4F1010430D1202270A91BA848
:102D8000FDF76EFC362278A923A8FDF769FCBDF893
:102D90001612ADF8C210869A3192BDF81C12ADF829
:102DA000C810BDF81E12ADF8CA10112288A933A8A8
:102DB000FDF756FC9DF831128DF8DD1070A8416FBB
:102DC0001BA84167012068221FA91A906846FDF7D9
:102DD00047FC1BA80FC8FFF743FFBBE75798806865
:102DE00000F001000028C4D05798C068C0B2B1E715
:102DF000704710B5FDF702FF10BD000000B593B09D
:102E0000342106A8FDF75EFC142101A8FDF75AFC49
:102E10001148006820F4C05040F400600E4908607A
:102E200001200690079000200F9006A8FEF76AF98F
:102E300008B1FDF7B6FD0F2001900220029000209E
:102E4000039004900590002101A8FDF7D5FF08B17B
:102E5000FDF7A7FD13B000BD007000404FF000600B
:102E6000014908607047000008ED00E010B50E4809
:102E70000068C06800F0010078B10C49086980471B
:102E8000002009490968486200BF642006490968B2
:102E9000C86264210448C16000BF6FF001000249AC
:102EA0000968086110BD000048040020D40100201A
:102EB00010B50268B0F1804F0BD01B4B984208D080
:102EC0001A4B984205D01A4B984202D0194B98429F
:102ED00003D122F070024B681A43B0F1804F11D039
:102EE000114B98420ED0114B98420BD0104B984288
:102EF00008D0104B984205D00F4B984202D00F4B90
:102F0000984203D122F44072CB681A4322F0800326
:102F10000C6943EA040202608B68C3620B68836237
:102F20000123436110BD0000000400400008004080
:102F3000000C004000080140000C0140001001405E
:102F400038B504460D4600BF1148006840F0040043
:102F50000F4908600846006800F00400009000BFB8
:102F600000BF032211461E20FDF7D2FE1E20FDF7F2
:102F7000BFFE084808490860084645600021816096
:102F8000C4600161FEF776FC0348FEF7BDFC38BD66
:102F900024380240000800404804002010B50820F2
:102FA00001F09EF8FFF742F8012205490548FEF7B7
:102FB0001DFE542001F0A4FE03A0FDF7C9F910BDC9
:102FC0007E01002008040020287965732920D4DAC6
:102FD000D3C3D5FDB5E3D4ADD7D3B5C4BAAFCAFD1D
:102FE0002E0D0A0070B505466C6A0020E085E0846D
:102FF0002046FEF7C5FC70BD0168C96821F49071D8
:103000000268D1600168496921F0010102685161DB
:10301000202180F83A10704710B504462068C06837
:1030200020F040002168C860202084F83900204644
:10303000FEF758FE002010BD70B5044694F83A0023
:1030400022284AD1A068B0F5805F13D1A56A206913
:1030500040B920684068C0F308002880A06A801C3E
:10306000A06219E020684068C0B22880A06A401CB5
:10307000A06211E0206938B920684068C1B2A26A34
:10308000501CA062117007E02068406800F07F01CA
:10309000A26A501CA0621170E08D401E80B2E085D3
:1030A000C8B92068C06820F020002168C860206886
:1030B000C06820F480702168C8602068406920F0F2
:1030C000010021684861202084F83A002046FEF77C
:1030D000C5FD002070BD0020FCE70220FAE70000DB
:1030E00070B504462168096921F44051E268114332
:1030F000226811612269A168114362691143E26982
:1031000041EA02052168C96849F20C6291432943EA
:103110002268D1602168496921F44071A269114394
:1031200022685161594A2168914202D1FDF78AFF14
:1031300001E0FDF777FFE169B1F5004F53D100EBF6
:10314000C00101EB001162685200B1FBF2F1642290
:10315000B1FBF2F10A0100EBC00101EB0011636861
:103160005B00B1FBF3F100EBC00303EB00136668F7
:103170007600B3FBF6F36426B3FBF6F303EBC3066A
:1031800006EB0313A1EB8301322303EBC10164239C
:10319000B1FBF3F101F0F80102EB410200EBC001D9
:1031A00001EB001163685B00B1FBF3F100EBC003BE
:1031B00003EB001366687600B3FBF6F36426B3FBFB
:1031C000F6F303EBC30606EB0313A1EB83013223F3
:1031D00003EBC1016423B1FBF3F101F007011144DA
:1031E0002268916051E000EBC00101EB00116268C0
:1031F0009200B1FBF2F100EBC00202EB0012636837
:103200009B00B2FBF3F26423B2FBF3F202EBC203C6
:1032100003EB0212A1EB8201322202EB01116422C4
:10322000B1FBF2F101F0F00100EBC00202EB001281
:1032300063689B00B2FBF3F26423B2FBF3F201EB91
:10324000021200EBC00101EB001163689B00B1FBAF
:10325000F3F100EBC00303EB00136668B600B3FBA9
:10326000F6F36426B3FBF6F303EBC30606EB031396
:10327000A1EB8301322303EB01116423B1FBF3F1D2
:1032800001F00F0111442268916070BD00380140C7
:10329000014691F8390021282CD18868B0F5805F6B
:1032A0000FD10A6A1088C0F308000B6858600869DB
:1032B00018B9086A801C086209E0086A401C0862A4
:1032C00005E00B6A581C086218780B685860C88CB7
:1032D000401E80B2C88458B90868C06820F08000D9
:1032E0000B68D8600868C06840F040000B68D86080
:1032F000002070470220FCE710B500240C48FEF7C0
:103300004BFB00BF01E0641C00BF0948FEF739FB1E
:103310002028F8D100BF002401E0641C00BF012276
:1033200004490348FEF762FC0028F6D100BF10BD37
:10333000080400207E01002000BFFEE710B5BAB0EF
:10334000044600F0FFFD00F0D1FC2022A4491CA897
:10335000FDF786F93622A249203124A8FDF780F92D
:103360009F48B0F85610ADF8C6101CA89C498A6D4D
:103370003292B1F85C10ADF8CC109948B0F85E10FC
:10338000ADF8CE10112200F1600134A8FDF768F904
:10339000934890F871108DF8E110416F1CA84167B7
:1033A0000020682220A91A906846FDF759F91CA848
:1033B0000FC8FFF747FC202289491CA8FDF750F9E8
:1033C00036228749203124A8FDF74AF98448B0F80D
:1033D0005610ADF8C6101CA881498A6D3292B1F81A
:1033E0005C10ADF8CC107E48B0F85E10ADF8CE1091
:1033F000112200F1600134A8FDF732F9784890F805
:1034000071108DF8E110416F1CA8416720206822DF
:1034100020A91A906846FDF723F91CA80FC8FFF7EA
:103420003FFC20226E491CA8FDF71AF936226C4990
:10343000203124A8FDF714F96948B0F85610ADF80A
:10344000C6101CA866498A6D3292B1F85C10ADF8BE
:10345000CC106348B0F85E10ADF8CE10112200F128
:10346000600134A8FDF7FCF85D4890F871108DF804
:10347000E110416F1CA84167C4F30740682220A9EE
:103480001A906846FDF7ECF81CA80FC8FFF708FC77
:10349000202253491CA8FDF7E3F836225049203179
:1034A00024A8FDF7DDF84E48B0F85610ADF8C61068
:1034B0001CA84B498A6D3292B1F85C10ADF8CC1063
:1034C0004748B0F85E10ADF8CE10112200F160014F
:1034D00034A8FDF7C5F8424890F871108DF8E11056
:1034E000416F1CA84167C4F30720682220A91A90E5
:1034F0006846FDF7B5F81CA80FC8FFF7D1FB2022DE
:1035000037491CA8FDF7ACF836223549203124A8EC
:10351000FDF7A6F83248B0F85610ADF8C6101CA852
:103520002F498A6D3292B1F85C10ADF8CC102C485E
:10353000B0F85E10ADF8CE10112200F1600134A891
:10354000FDF78EF8264890F871108DF8E110416F64
:103550001CA84167E0B2682220A91A906846FDF7CE
:103560007FF81CA80FC8FFF79BFB20221C491CA852
:10357000FDF776F836221A49203124A8FDF770F8B5
:103580001748B0F85610ADF8C6101CA814498A6D3B
:103590003292B1F85C10ADF8CC101148B0F85E1062
:1035A000ADF8CE10112200F1600134A8FDF758F8F3
:1035B0000B4890F871108DF8E110416F1CA841671D
:1035C0000120682220A91A906846FDF749F81CA836
:1035D0000FC8FFF737FB00F089FB3AB010BD0000C1
:1035E0004000002000B5B9B0202251491BA8FDF7CA
:1035F00037F836224E49203123A8FDF731F84C48E0
:10360000B0F85610ADF8C2101BA849498A6D319226
:10361000B1F85C10ADF8C8104548B0F85E10ADF8D0
:10362000CA10112200F1600133A8FDF719F84048D3
:1036300090F871108DF8DD10416F1BA841670020D4
:1036400068221FA91A906846FDF70AF81BA80FC840
:10365000FFF7F8FA202236491BA8FDF701F83622B9
:103660003349203123A8FCF7FBFF3148B0F856104E
:10367000ADF8C2101BA82E498A6D3192B1F85C10CA
:10368000ADF8C8102A48B0F85E10ADF8CA10112283
:1036900000F1600133A8FCF7E3FF254890F87110B2
:1036A0008DF8DD10416F1BA84167B92068221FA962
:1036B0001A906846FCF7D4FF1BA80FC8FFF7F0FA72
:1036C00020221B491BA8FCF7CBFF362218492031CA
:1036D00023A8FCF7C5FF1648B0F85610ADF8C21085
:1036E0001BA813498A6D3192B1F85C10ADF8C8106F
:1036F0000F48B0F85E10ADF8CA10112200F1600159
:1037000033A8FCF7ADFF0A4890F871108DF8DD1072
:10371000416F1BA84167012068221FA91A906846C3
:10372000FCF79EFF1BA80FC8FFF78CFA39B000BD4D
:103730004000002010B5BAB000242022BE491CA8C9
:10374000FCF78EFF3622BC49203124A8FCF788FF05
:10375000B948B0F85610ADF8C6101CA8B6498A6D25
:103760003292B1F85C10ADF8CC10B348B0F85E10EE
:10377000ADF8CE10112200F1600134A8FCF770FF03
:10378000AD4890F871108DF8E110416F1CA84167A9
:103790000020682220A91A906846FCF761FF1CA847
:1037A0000FC8FFF74FFA2022A3491CA8FCF758FFC7
:1037B0003622A149203124A8FCF752FF9E48B0F8D8
:1037C0005610ADF8C6101CA89B498A6D3292B1F80C
:1037D0005C10ADF8CC109848B0F85E10ADF8CE1083
:1037E000112200F1600134A8FCF73AFF924890F8EA
:1037F00071108DF8E110416F1CA84167AB20682261
:1038000020A91A906846FCF72BFF1CA80FC8FFF7E9
:1038100047FA202288491CA8FCF722FF3622864955
:10382000203124A8FCF71CFF8348B0F85610ADF8EF
:10383000C6101CA880498A6D3292B1F85C10ADF8B0
:10384000CC107D48B0F85E10ADF8CE10112200F11A
:10385000600134A8FCF704FF774890F871108DF8E8
:10386000E110416F1CA84167FF20682220A91A902F
:103870006846FCF7F5FE1CA80FC8FFF711FA2022D6
:103880006D491CA8FCF7ECFE36226B49203124A8B8
:10389000FCF7E6FE6848B0F85610ADF8C6101CA854
:1038A00065498A6D3292B1F85C10ADF8CC1062486F
:1038B000B0F85E10ADF8CE10112200F1600134A80E
:1038C000FCF7CEFE5C4890F871108DF8E110416F66
:1038D0001CA84167FF20682220A91A906846FCF7BF
:1038E000BFFE1CA80FC8FFF7DBF9202252491CA815
:1038F000FCF7B6FE36225049203124A8FCF7B0FE72
:103900004D48B0F85610ADF8C6101CA84A498A6D4B
:103910003292B1F85C10ADF8CC104748B0F85E10A8
:10392000ADF8CE10112200F1600134A8FCF798FE2A
:10393000414890F871108DF8E110416F1CA8416763
:10394000FF20682220A91A906846FCF789FE1CA86F
:103950000FC8FFF7A5F9202237491CA8FCF780FE05
:1039600036223549203124A8FCF77AFE3248B0F8D7
:103970005610ADF8C6101CA82F498A6D3292B1F8C6
:103980005C10ADF8CC102C48B0F85E10ADF8CE103D
:10399000112200F1600134A8FCF762FE264890F87D
:1039A00071108DF8E110416F1CA84167FF2068225B
:1039B00020A91A906846FCF753FE1CA80FC8FFF711
:1039C0006FF9044620221C491CA8FCF749FE362248
:1039D0001949203124A8FCF743FE1748B0F85610C7
:1039E000ADF8C6101CA814498A6D3292B1F85C106B
:1039F000ADF8CC101048B0F85E10ADF8CE10112222
:103A000000F1600134A8FCF72BFE0B4890F8711010
:103A10008DF8E110416F1CA841670120682220A9A0
:103A20001A906846FCF71CFE1CA80FC8FFF70AF99D
:103A300020463AB010BD000040000020F0B5B9B0FB
:103A400000240025002600272022A7491BA8FCF7F8
:103A500007FE3622A449203123A8FCF701FEA24824
:103A6000B0F85610ADF8C2101BA89F498A6D31926C
:103A7000B1F85C10ADF8C8109B48B0F85E10ADF816
:103A8000CA10112200F1600133A8FCF7E9FD964845
:103A900090F871108DF8DD10416F1BA84167002070
:103AA00068221FA91A906846FCF7DAFD1BA80FC808
:103AB000FFF7C8F820228C491BA8FCF7D1FD36225D
:103AC0008949203123A8FCF7CBFD8748B0F8561070
:103AD000ADF8C2101BA884498A6D3192B1F85C1010
:103AE000ADF8C8108048B0F85E10ADF8CA101122C9
:103AF00000F1600133A8FCF7B3FD7B4890F871102A
:103B00008DF8DD10416F1BA841679F2068221FA917
:103B10001A906846FCF7A4FD1BA80FC8FFF7C0F871
:103B2000202271491BA8FCF79BFD36226E492031EB
:103B300023A8FCF795FD6C48B0F85610ADF8C210FC
:103B40001BA869498A6D3192B1F85C10ADF8C810B4
:103B50006548B0F85E10ADF8CA10112200F160019E
:103B600033A8FCF77DFD604890F871108DF8DD10EA
:103B7000416F1BA84167FF2068221FA91A90684661
:103B8000FCF76EFD1BA80FC8FFF78AF80546202238
:103B900055491BA8FCF764FD36225349203123A860
:103BA000FCF75EFD5048B0F85610ADF8C2101BA8E7
:103BB0004D498A6D3192B1F85C10ADF8C8104A4891
:103BC000B0F85E10ADF8CA10112200F1600133A800
:103BD000FCF746FD444890F871108DF8DD10416FF8
:103BE0001BA84167FF2068221FA91A906846FCF7AE
:103BF00037FD1BA80FC8FFF753F8064620223A49A5
:103C00001BA8FCF72DFD36223749203123A8FCF7ED
:103C100027FD3548B0F85610ADF8C2101BA8324940
:103C20008A6D3192B1F85C10ADF8C8102E48B0F82A
:103C30005E10ADF8CA10112200F1600133A8FCF744
:103C40000FFD294890F871108DF8DD10416F1BA809
:103C50004167FF2068221FA91A906846FCF700FD03
:103C60001BA80FC8FFF71CF8074620221E491BA8F7
:103C7000FCF7F6FC36221C49203123A8FCF7F0FCA7
:103C80001948B0F85610ADF8C2101BA816498A6D35
:103C90003192B1F85C10ADF8C8101348B0F85E105E
:103CA000ADF8CA10112200F1600133A8FCF7D8FC6E
:103CB0000D4890F871108DF8DD10416F1BA8416719
:103CC000012068221FA91A906846FCF7C9FC1BA8AE
:103CD0000FC8FEF7B7FF280440EA062040EA0704B1
:103CE000204639B0F0BD00004000002010B5BAB049
:103CF0000024202291491CA8FCF7B2FC36228F49EF
:103D0000203124A8FCF7ACFC8C48B0F85610ADF874
:103D1000C6101CA889498A6D3292B1F85C10ADF8C2
:103D2000CC108648B0F85E10ADF8CE10112200F12C
:103D3000600134A8FCF794FC804890F871108DF86D
:103D4000E110416F1CA841670020682220A91A9049
:103D50006846FCF785FC1CA80FC8FEF773FF2022FD
:103D600076491CA8FCF77CFC36227449203124A833
:103D7000FCF776FC7148B0F85610ADF8C6101CA8D8
:103D80006E498A6D3292B1F85C10ADF8CC106B4878
:103D9000B0F85E10ADF8CE10112200F1600134A829
:103DA000FCF75EFC654890F871108DF8E110416FEA
:103DB0001CA841670520682220A91A906846FCF7D4
:103DC0004FFC1CA80FC8FEF76BFF4FF400505C4976
:103DD0000860086000BF202258491CA8FCF740FC7E
:103DE00036225649203124A8FCF73AFC5348B0F853
:103DF0005610ADF8C6101CA850498A6D3292B1F821
:103E00005C10ADF8CC104D48B0F85E10ADF8CE1097
:103E1000112200F1600134A8FCF722FC474890F819
:103E200071108DF8E110416F1CA84167FF206822D6
:103E300020A91A906846FCF713FC1CA80FC8FEF7CF
:103E40002FFF04463E490868411E3D4A1160B8BB39
:103E500020223A491CA8FCF703FC362237492031BE
:103E600024A8FCF7FDFB3548B0F85610ADF8C61095
:103E70001CA832498A6D3292B1F85C10ADF8CC10B2
:103E80002E48B0F85E10ADF8CE10112200F160019E
:103E900034A8FCF7E5FB294890F871108DF8E11083
:103EA000416F1CA841670420682220A91A90684627
:103EB000FCF7D6FB1CA80FC8FEF7D2FE3AB010BD27
:103EC000FFE704F00100002885D120221B491CA82F
:103ED000FCF7C6FB36221949203124A8FCF7C0FBA9
:103EE0001648B0F85610ADF8C6101CA813498A6DD4
:103EF0003292B1F85C10ADF8CC101048B0F85E10FA
:103F0000ADF8CE10112200F1600134A8FCF7A8FB37
:103F10000A4890F871108DF8E110416F1CA84167B4
:103F20000120682220A91A906846FCF799FB1CA87A
:103F30000FC8FEF787FE00BFC0E70000400000206A
:103F40003C00002000B5B9B0202251491BA8FCF765
:103F500087FB36224E49203123A8FCF781FB4C48D1
:103F6000B0F85610ADF8C2101BA849498A6D3192BD
:103F7000B1F85C10ADF8C8104548B0F85E10ADF867
:103F8000CA10112200F1600133A8FCF769FB404818
:103F900090F871108DF8DD10416F1BA8416700206B
:103FA00068221FA91A906846FCF75AFB1BA80FC885
:103FB000FEF748FE202236491BA8FCF751FB3622AB
:103FC0003349203123A8FCF74BFB3148B0F8561099
:103FD000ADF8C2101BA82E498A6D3192B1F85C1061
:103FE000ADF8C8102A48B0F85E10ADF8CA1011221A
:103FF00000F1600133A8FCF733FB254890F87110FD
:104000008DF8DD10416F1BA84167062068221FA9AB
:104010001A906846FCF724FB1BA80FC8FEF740FE69
:1040200020221B491BA8FCF71BFB36221849203114
:1040300023A8FCF715FB1648B0F85610ADF8C210CF
:104040001BA813498A6D3192B1F85C10ADF8C81005
:104050000F48B0F85E10ADF8CA10112200F16001EF
:1040600033A8FCF7FDFA0A4890F871108DF8DD10BE
:10407000416F1BA84167012068221FA91A9068465A
:10408000FCF7EEFA1BA80FC8FEF7DCFD39B000BD47
:104090004000002002480068C0F302207047000082
:1040A0000CED00E010B5002804DB0A07130E054AEA
:1040B000135406E00A07140E034A00F00F031B1FF7
:1040C000D45410BD00E400E018ED00E030380A28B8
:1040D00001D2012070470020704700BF70470000E8
:1040E00010B504460420FDF797FB0148046010BD9D
:1040F0007401002030B50446002504E04FF47A70C6
:1041000000F004F86D1CA542F8D330BD70B503462D
:1041100000224FF0E02675690D4E366803FB06F469
:104120004FF0E026B16910E04FF0E026B069884218
:104130000BD0884202D20E1A324402E02E1A0E44EC
:1041400032440146A24200D300E0EDE700BF70BD5B
:104150007401002000BF054A126802F04002002AE4
:10416000F9D0C2B2014B1B1D1A60704700380140E4
:1041700010B50220FFF7CAFF10BDFCF74BFDFEF79C
:104180003DFEFDF7DBFEFCF7EBFB00BFFEE70000AA
:1041900010B50748FDF7A0FF0549097A884203D109
:1041A0000348FDF789FF02E00148FDF78DFF10BDD0
:1041B000100000207047000000B5BBB05BA0FCF70A
:1041C000C7F8FFF7B7FA65490860C820FFF792FF04
:1041D000FFF734FC624908606048026808460168DD
:1041E00060A0FCF7B5F85E4800686C4988427CD155
:1041F0006BA0FCF7ADF80020FFF7A0F82022704973
:104200001DA8FCF72DFA36226D49203125A8FCF7B0
:1042100027FA6B48B0F85610ADF8CA101DA86849C7
:104220008A6D3392B1F85C10ADF8D0106448B0F8E4
:104230005E10ADF8D210112200F1600135A8FCF734
:104240000FFA5F4890F871108DF8E510416F1DA8C6
:104250004167002036215B4ACDE91A211C90682273
:1042600021A96846FCF7FCF91DA80FC8FEF708F95C
:10427000544955A0FCF76CF8202251491DA8FCF7C1
:10428000EFF936224E49203125A8FCF7E9F94C48D0
:10429000B0F85610ADF8CA101DA849498A6D33927E
:1042A000B1F85C10ADF8D0104548B0F85E10ADF82C
:1042B000D210112200F1600135A8FCF7D1F9404875
:1042C00090F871108DF8E510416F1DA8416700202E
:1042D0003621434ACDE91A211C90682221A968465B
:1042E000FCF7BEF91DA80FC800E018E0FDF764FF59
:1042F0003B493CA0FCF72CF8362239493148FCF701
:10430000DBFA3E49087008460078012803D13CA03A
:10431000FCF71EF806E043A0FCF71AF802E04AA0FA
:10432000FCF716F8FFF75EF93BB000BD0D0AD5E2C9
:10433000CAC7D2BBB8F6384DB4AED0D0666C617384
:10434000682857323551363429CAB5D1E928535037
:1043500049C7FDB6AF29200D0A0000006801002002
:104360006C0100200D0A466C617368494420697332
:1043700020307825582C20204D616E75666163745D
:1043800075726572204465766963652049442069C9
:104390007320307825580D0A000000001740EF0008
:1043A0000D0ABCECB2E2B5BD53504920464C415316
:1043B000482057323551363420210D0A00000000C4
:1043C00040000020300100200D0AD0B4C8EBB5C475
:1043D000CAFDBEDDCEAAA3BA0D0A257300000000F7
:1043E000080300200D0AB6C1B3F6B5C4CAFDBEDD90
:1043F000CEAAA3BA0D0A25730000000070010020A8
:104400000D0A384DB4AED0D0666C6173682857324F
:104410003551363429B2E2CAD4B3C9B9A6210A0D3E
:10442000000000000D0A384DB4AED0D0666C617348
:10443000682857323551363429B2E2CAD4CAA7B0F7
:10444000DC210A0D000000000D0ABBF1C8A1B2BBBF
:10445000B5BD20573235513634204944210A0D006C
:10446000014608687047000070B504461BA0FBF7C2
:104470006FFF002520781E4909680978884205D118
:104480001CA0FBF765FF00F04FFC0546207818499B
:1044900049680978884205D11AA0FBF759FF01F055
:1044A000FBF805462078124989680978884205D1C9
:1044B00018A0FBF74DFF00F0C8FC054620780C491A
:1044C000C9680978884204D116A0FBF741FFFCF7C0
:1044D00071FC18A0FBF73CFF284670BD0D0A6974FB
:1044E000206973204749444C45210D0A0000000013
:1044F0001C0000206974206973206D696E6E696507
:10450000210D0A0069742069732079757169210D84
:104510000A0000006974206973207368756875610A
:10452000210D0A00D5FDD4DAD6D8C6F42E2E2E0DD4
:104530000A000000656E64206F662069740D0A0031
:1045400030B595B0054613AB12AA09A9284600F06C
:104550003FFA044614B1204615B030BD0020149037
:1045600026E0224909689DF8502001EBC20113ABF7
:1045700011AA486801A900F02BFA04460CB12046A4
:10458000EAE709A901A800F0E5FC60B99DF844003C
:104590009DF84810884201DD0220DDE79DF85000BB
:1045A000124988750AE09DF85000401CC0B2149072
:1045B0000E48007D9DF850108842D2DC00BF0B48A9
:1045C000007D9DF85010884201D10420C4E714A951
:1045D000284600F0DDFA04460CB12046BCE79DF801
:1045E0005000024948750020B6E70000D4010020C1
:1045F0002DE9F0419AB09C48847D007DA04202DC08
:104600001AB0BDE8F0819849096801EBC40106AB16
:1046100007AA486808A900F0DBF908A993A0FBF7EE
:1046200097FE002644E09048008B0121B1400840ED
:10463000D8B122218FA0FBF78BFE304600F02EFB75
:1046400089492431471839468BA0FBF781FE222186
:1046500088A0FBF77DFE304600F020FB8249243124
:10466000084410A941F8260018E0304600F016FB77
:104670007D492431085810A941F826007A48C07DA8
:1046800030B910A850F826107CA0FBF761FE05E0B9
:1046900010A850F826107AA0FBF75AFE9DF81C00CF
:1046A000401EB04202D078A0FBF752FE701CC6B28A
:1046B0009DF81C008642B6DB74A0FBF749FE00F0B3
:1046C00041FB6948407D0B280DD2DFE800F0060D64
:1046D000151E27323F4E5F7287006349096851F803
:1046E00034008047054690E05F4A126852F8341063
:1046F00010988847054688E05B4B1B6853F83420C8
:10470000DDE91001904705467FE0574F3F6857F8B5
:10471000343010A807C89847054676E0DFF848C14E
:10472000DCF800C05CF8347010A80FC8B847054624
:104730006BE01498DFF830C10090DCF800C05CF842
:10474000347010A80FC8B84705465EE0DDE91401D3
:10475000DFF814C1CDE90001DCF800C05CF834706A
:1047600010A80FC8B84705464FE0DDE914121698A7
:10477000DFF8F4C0CDE900120290DCF800C05CF86C
:10478000347010A80FC8B84705463EE0DDE9142391
:10479000DDE91610DFF8D0C0CDE90023CDE9021025
:1047A000DCF800C05CF8347010A80FC8B8470546A4
:1047B0002BE0DDE91523DDE91710CDE90123CDE973
:1047C00003101498DFF8A0C00090DCF800C05CF87B
:1047D000347010A80FC8B847054616E0DDE9162367
:1047E000DDE91810CDE90223CDE90410DDE914015B
:1047F000DFF874C0CDE90001DCF800C05CF834706B
:1048000010A80FC8B847054600BF00BF00F056FA11
:104810009DF8180001280CD11348C07D20B9294605
:104820001BA0FBF795FD07E029461BA0FBF790FDB9
:1048300002E018A0FBF78CFD0B4890F8EC0088B163
:104840000948D0F8F0000A21B0FBF1F201FB120791
:104850000548D0F8F000B0FBF1F83A46414611A007
:10486000FBF776FD00BFCBE6D40100200D0A2573CF
:10487000280000002563000025730000256C6400FB
:1048800030582558000000002C00000029000000CE
:104890003D256C753B0D0A003D305825583B0D0AEF
:1048A0000000000046756E6374696F6E2052756E6D
:1048B0002054696D653A25642E2531646D730D0AA7
:1048C00000000000F0B50346154600200022002637
:1048D00000245BE01F782C2F01D104B901221F783E
:1048E000292F01D01F780FB904B950E0002E3AD11A
:1048F0001F78302F02DB1F78392F17DD1F782D2FFF
:1049000014D01F782B2F11D01F78612F02DB1F7856
:10491000662F0BDD1F78412F02DB1F78462F05DD48
:104920001F78582F02D01F78782F0CD102B12EE0BB
:104930001F78612F03DB1F78203F0F7001E01F7885
:104940000F70491C1FE01F78222F04D102B11EE016
:104950000126012417E01F78202F14D01F782C2F58
:1049600011D0FF2613E01F78222F00D1002402B1BE
:104970000DE044B11F785C2F02D15B1C471CF8B2DC
:104980001F780F70491C471CF8B25B1CA2E700BFE0
:1049900000270F702E70F0BD10B504460020107077
:1049A0000BE020780870641C491C1078401C1070C3
:1049B0001078984201DB012010BD2078202802D019
:1049C00020780028EDD10020087000BFF4E7000037
:1049D0002DE9FF4F85B080468946002700200490CE
:1049E0000390012002904FF0000B002544461DE08B
:1049F0002078202816D005F07F00052812DA0DB99E
:104A000045F0800505F07F00042803D120782A288E
:104A100000D00EE0207805F07F010DF80100681C41
:104A2000C5B202E0852D00D103E0641C2078002887
:104A3000DED100BF8DB1002005F07F010DF801002F
:104A400051A1684600F086FA18B900210898017053
:104A500002E001210898017000254FF0000A444649
:104A600014E0641C0AF1010000F0FF0A20782028FD
:104A700002D020782A2809D1204600F0DBF906462A
:104A8000282E03D02A2E01D0CDF810A02078282877
:104A900002D020780028E4D14446049810B104984C
:104AA000401C04444FF0000A002654E0207810B95E
:104AB0004FF0010A50E02078282803D116B9781C5D
:104AC000C7B213E02078292808D13EB917B1781E63
:104AD000C7B201E04FF0010A47B93DE02078222833
:104AE00004D10EB9012000E00020064647B9207825
:104AF00020282FD0207889F8000009F1010929E049
:104B000020782C2804D101200290681CC5B214E042
:104B10002078202811D0207828280ED04DB9BBF15C
:104B2000050F06DA20780DF80B000BF1010000F0FC
:104B3000FF0B0298401CC0B20290012F0AD10298CC
:104B4000022807D10298401CC0B202900398401C72
:104B5000C0B20390641CA9E700BF0398012809D1E3
:104B600000200DF80B0008A1684600F0F3F908B921
:104B700000200390079903980870002089F800002E
:104B8000504609B0BDE8F08F766F69640000000000
:104B90002DE9F043B5B005460F460024002604E099
:104BA00000213D488155701CC6B20A2EF8DB06E094
:104BB0006D1C287818B9012035B0BDE8F08328783D
:104BC0002828F5D16D1C61E034AA69462846FFF714
:104BD00079FE064635449DF8D00020B1012827D043
:104BE000FF284CD149E09DF8000000B333A9684686
:104BF00000F02DF906460EB10220DDE7204600F058
:104C00004DF825490A31339A0A50A1F12400008B4E
:104C10000121A140884320491A39088304211E48F4
:104C20000155601CC4B20A2C01DD0320C4E726E054
:104C3000684600F0ABF9401C00F0FF08204600F089
:104C40002DF815490A3100EB01094946684600F084
:104C500092F911481A38018B0120A040014388B213
:104C60000D491A3908830C4800F80480601CC4B24E
:104C70000A2C01DD03209FE701E002209CE700BF32
:104C80002878292801D0287800B900E09CE700BFE7
:104C90003C70002090E70000EE010020024600205A
:104CA000002105E0044B5B5C0344D8B24B1CD9B235
:104CB0009142F7DB70470000EE0100200E480068CB
:104CC000006900F0010040B10C48D0F8F0004FF648
:104CD000FF7108440949C1F8F0000848D0F8F00015
:104CE00005490968496A08440449C1F8F0000846C2
:104CF000D0F8F0007047000048040020D4010020E4
:104D000010B5044604EBC40000EB04100122C2EB12
:104D1000800081B24FF47A70FEF712F90120014948
:104D2000C87510BDD40100200120704710B502469F
:104D3000012000E050430B1EA1F10104E1B2F9D1C2
:104D400010BD00006FF0010009490968086100BF4B
:104D5000000C07490968C86201460548C16000BFE8
:104D600000200349096848620249C1F8F000704711
:104D700048040020D401002070B51D48008800F4CC
:104D80000040002833D01A480578002019494855BA
:104D9000194881681748884704461CB91649C868ED
:104DA000804721E0134800F0FDF80546012D00D0B2
:104DB0002C46CCB1012C06D0022C08D0032C0AD0F2
:104DC000042C10D10BE00DA0FBF7C2FA0BE00EA0F3
:104DD000FBF7BEFA07E00FA0FBF7BAFA03E010A05A
:104DE000FBF7B6FA00BF00BF00200149088070BD84
:104DF0007C01002040030020D4010020BAAFCAFD8E
:104E0000B4EDCEF3210D0A00B2CECAFDB4EDCEF35F
:104E1000210D0A00B2CECAFDCCABB6E0210D0A00CE
:104E2000CEB4D5D2B5BDC6A5C5E4B5C4BAAFCAFD2A
:104E3000210D0A000146491C00E0491C0878202881
:104E400001D10029F9D108787047032070472DE976
:104E5000F04F05460F4600264FF00A09B3462C4690
:104E60000020386034E02078392802DC20783028AF
:104E700011DA28782D2802D028782B2800D156B1B5
:104E80002078462802DC2078412804DA2078582847
:104E900017D1012E15D12078412801DB4FF01009E0
:104EA00028782D2803D14FF0020B6D1C0FE02878D5
:104EB0002B2803D14FF0010B6D1C08E0701CC6B20B
:104EC00005E0207800B904E00120BDE8F08F641C03
:104ED000C9E700BF2C46B9F1100F0FD1032E01DA3C
:104EE0000220F2E72078302806D16078582803D1D4
:104EF000A41CB01EC6B204E00320E6E70EB90420ED
:104F0000E3E71BE00EB1701EC6B22078392806DC3C
:104F10002078302803DB2078A0F1300A02E02078E6
:104F2000A0F1370A31464846FFF700FF39680AFB0F
:104F300000103860641C207800B900E0E2E700BF90
:104F4000BBF1020F04D13868C0F10008C7F8008037
:104F50000020BAE702460AE010780B78984201D0A8
:104F600001207047107800B902E0521C491CF3E799
:104F700000BF0020F5E706E002780A70027802B967
:104F800002E0401C491CF7E700BF704701460020C3
:104F900005E00A7802B903E0421CD0B2491CF8E7E8
:104FA00000BF704710B58CB004461E230BAA03A99E
:104FB0002046FFF7F1FC0090009810B101200CB0E2
:104FC00010BD9DF82C00044400200B900EE04048DA
:104FD0009DF82C2050F8221003A8FFF7BBFF00B962
:104FE00008E09DF82C00401CC0B20B909DF82C00EE
:104FF0000728ECD300BF9DF82C00072863D2DFE818
:1050000000F004053C5E6564630000BF31A0FBF75F
:105010009FF931A0FBF79CF93FA0FBF799F94EA04F
:10502000FBF796F95CA0FBF793F96BA0FBF790F9FF
:1050300079A0FBF78DF987A0FBF78AF98CA0FBF725
:1050400087F994A0FBF784F998A0FBF781F99DA05C
:10505000FBF77EF9A2A0FBF77BF9A8A0FBF778F994
:10506000B4A0FBF775F9C1A0FBF772F9CCA0FBF770
:105070006FF9D8A0FBF76CF9A2E216A0FBF768F96C
:10508000E4A0FBF765F900200B900EE0F148006802
:105090009DF82C2000EBC2004168EFA0FBF758F907
:1050A0009DF82C00401CC0B20B90EA48007D9DF892
:1050B0002C108842EADC07A0FBF74AF980E205A041
:1050C000FBF746F9CCE179E24DE221E2F4E10000A0
:1050D000800100200D0A00002D2D2D2D2D2D2D2DB0
:1050E0002D2D2D2D2D2D2D2D2D2D2D2D2D2D2D2DF0
:1050F00055534D4152542056332E332D2D2D2D2DE9
:105100002D2D2D2D2D2D2D2D2D2D2D2D2D2D2D2DCF
:105110002D2D2D200D0A00002020202055534D411B
:105120005254CAC7D3C9414C49454E54454BBFAAF6
:10513000B7A2B5C4D2BBB8F6C1E9C7C9B5C4B4AE4D
:10514000BFDAB5F7CAD4BBA5BDBBD7E9BCFE2CCD31
:10515000A8B9FD200D0A0000CBFC2CC4E3BFC9D2C6
:10516000D4CDA8B9FDB4AEBFDAD6FACAD6B5F7D356
:10517000C3B3CCD0F2C0EFC3E6B5C4C8CEBACEBA82
:10518000AFCAFD2CB2A2D6B4D0D02ED2F2B4CB2C62
:10519000C4E3BFC90D0A0000D2D4CBE6D2E2B8FC0A
:1051A000B8C4BAAFCAFDB5C4CAE4C8EBB2CECAFD32
:1051B00028D6A7B3D6CAFDD7D62831302F3136BD71
:1051C000F8D6C62CD6A7B3D6B8BACAFD29A1A2D79D
:1051D000D6B7FBB4AE0D0A00A1A2BAAFCAFDC8EBA8
:1051E000BFDAB5D8D6B7B5C8D7F7CEAAB2CECAFD02
:1051F000292CB5A5B8F6BAAFCAFDD7EEB6E0D6A74A
:10520000B3D63130B8F6CAE4C8EBB2CECAFD2CB280
:10521000A2D6A7B3D60D0A00BAAFCAFDB7B5BBD8A0
:10522000D6B5CFD4CABE2ED6A7B3D6B2CECAFDCF7E
:10523000D4CABEBDF8D6C6C9E8D6C3B9A6C4DC2C4C
:10524000D6A7B3D6BDF8D6C6D7AABBBBB9A6C4DC11
:105250002E0D0A00BCBCCAF5D6A7B3D63A7777772D
:105260002E6F70656E6564762E636F6D0D0A00009B
:1052700055534D415254D3D037B8F6CFB5CDB3C303
:10528000FCC1EE28B1D8D0EBD0A1D0B4293A0D0A98
:10529000000000003F3A202020202020BBF1C8A1C0
:1052A000B0EFD6FAD0C5CFA20D0A000068656C70C9
:1052B0003A202020BBF1C8A1B0EFD6FAD0C5CFA2CA
:1052C0000D0A00006C6973743A202020BFC9D3C353
:1052D000B5C4BAAFCAFDC1D0B1ED0D0A0A000000D5
:1052E00069643A2020202020BFC9D3C3BAAFCAFDC9
:1052F000B5C44944C1D0B1ED0D0A0A006865783AD9
:1053000020202020B2CECAFD3136BDF8D6C6CFD47B
:10531000CABE2CBAF3B8FABFD5B8F12BCAFDD7D69E
:10532000BCB4D6B4D0D0BDF8D6C6D7AABBBB0D0A84
:105330000A0000006465633A20202020B2CECAFD36
:105340003130BDF8D6C6CFD4CABE2CBAF3B8FABF36
:10535000D5B8F12BCAFDD7D6BCB4D6B4D0D0BDF8E1
:10536000D6C6D7AABBBB0D0A0A00000072756E74C0
:10537000696D653A312CBFAAC6F4BAAFCAFDD4CB69
:10538000D0D0BCC6CAB13B302CB9D8B1D5BAAFCA9F
:10539000FDD4CBD0D0BCC6CAB13B0D0A0A00000078
:1053A000C7EBB0B4D5D5B3CCD0F2B1E0D0B4B8F13E
:1053B000CABDCAE4C8EBBAAFCAFDC3FBBCB0B2CE2B
:1053C000CAFDB2A2D2D4BBD8B3B5BCFCBDE1CAF809
:1053D0002E0D0A002D2D2D2D2D2D2D2D2D2D2D2D6C
:1053E0002D2D2D2D2D2D2D2D2D2D2D2D2D2D414CBA
:1053F00049454E54454B2D2D2D2D2D2D2D2D2D2D2B
:105400002D2D2D2D2D2D2D2D2D2D2D2D2D2D2D20D9
:105410000D0A00002D2D2D2D2D2D2D2D2D2D2D2D59
:105420002D2D2D2D2D2D2D2D2D2D2D2D2DBAAFCA00
:10543000FDC7E5B5A52D2D2D2D2D2D2D2D2D2D2D7A
:105440002D2D2D2D2D2D2D2D2D2D2D2D2D2D2D2D8C
:10545000200D0A00D401002025730D0A0000000071
:1054600059A0FAF775FF00200B901AE06649096809
:105470009DF82C2001EBC20101AB02AA486803A9E8
:10548000FFF7A6FA604800689DF82C1050F831200C
:1054900003A95EA0FAF75CFF9DF82C00401CC0B287
:1054A0000B905948007D9DF82C108842DEDCAFF24D
:1054B000DC30FAF74DFF83E0AFF2E830FAF748FF4F
:1054C0000BAA03A92046FFF7FDF99DF82C00C8B9E7
:1054D000694603A8FFF7BBFC0B909DF82C0020B990
:1054E0004FA00099FAF734FF0EE09DF82C00042835
:1054F00001D0022063E54DA0FAF72AFF01204249BE
:10550000C87501E002205AE547A0FAF721FF57E0ED
:1055100045A0FAF71DFF0BAA03A92046FFF7D2F911
:105520009DF82C00C8B9694603A8FFF790FC0B90C2
:105530009DF82C0020B942A00099FAF709FF0EE06F
:105540009DF82C00042801D0022038E53FA0FAF78E
:10555000FFFE00202C49C87501E002202FE532A093
:10556000FAF7F6FE2CE030A0FAF7F2FE0BAA03A938
:105570002046FFF7A7F99DF82C00C8B9694603A893
:10558000FFF765FC0B909DF82C0078B91E49009838
:1055900081F8EC00084690F8EC0018B130A0FAF75A
:1055A000D7FE07E035A0FAF7D3FE03E0022006E5B8
:1055B000022004E51CA0FAF7CBFE01E00120FEE486
:1055C00000BF0020FBE400002D2D2D2D2D2D2D2DB5
:1055D0002D2D2D2D2D2D2D2D2D2D2D2D2D2D2D2DFB
:1055E0002DBAAFCAFD204944202D2D2D2D2D2D2D56
:1055F0002D2D2D2D2D2D2D2D2D2D2D2D2D2D2D2DDB
:105600002D2D2D2D200D0A00D40100202573206999
:10561000642069733A0D0A3058253038580D0A0055
:105620004845583A305825580D0A00003136BDF823
:10563000D6C6B2CECAFDCFD4CABE210D0A00000024
:105640004445433A256C750D0A0000003130BDF821
:10565000D6C6B2CECAFDCFD4CABE210D0A00000004
:1056600052756E2054696D652043616C63756C6181
:1056700074696F6E204F4E0D0A00000052756E2047
:1056800054696D652043616C63756C6174696F6EFC
:10569000204F46460D0A0000022070470160704707
:1056A000030406080C101820300000000000000061
:1056B00000010203040607080900000000010203BC
:1056C000043031323334353637383941424344457A
:1056D000464030580030313233343536373839614E
:1056E00062636465664030780004000008000000D2
:1056F00000000000020001000010000073687568DF
:10570000756100006D696E6E69650000797571697B
:105710000000000072657365740000003F00000027
:10572000646563006964000072756E74696D65007C
:1057300068656C70000000006C6973740000000004
:1057400068657800766F6964206D795F6770696F4E
:105750005F73656C665F7465737428766F6964291E
:1057600000000000696E74206D795F7465737428A1
:10577000766F696429000000696E7420756728637C
:10578000686172202A69646C65290000766F69641B
:105790002077726974655F616464722875333220A2
:1057A000616464722C7533322076616C29000000CC
:1057B00075333220726561645F6164647228753389
:1057C0003220616464722900766F69642064656CBC
:1057D00061795F6D7328753136206E6D7329000015
:1057E000766F69642064656C61795F7573287533C1
:1057F00032206E7573290000185800080000002040
:10580000C802000060010008FC580008C80200201F
:1058100020080000BC01000841321032012468FF5A
:105820001F32202C080240111304571B080C0413CC
:10583000FC561B08140842405D0402408008113BDE
:1058400040013C212B02403729083924190839240A
:105850001908112D300140045D715A026C2909F2BA
:1058600008024C0712380953783827B8D0D0BBC487
:10587000FAD1A1D3C3D2B0BBF073746D3332BFAAD7
:10588000B7A2B0E50D0A687474703A2F2F6669727A
:105890006518000C1A2E74616F62616F2E636F6D54
:1058A000131C571B0830041A38041A24041A400425
:1058B0001A20041A28041361441B08B008139D56CB
:1058C0001B088C0813F5401B08C808130D411B0862
:1058D000E0081AB5081A64081A91081A44081A69E7
:1058E000301A7808139C011420014D140841451BFF
:0C58F00008F1041A790C19E402DC010034
:0400000508000125C9
:00000001FF
