:020000040800F2
:100000003005002045010008D30D00084F0D000801
:10001000D10D000871020008F51200080000000070
:10002000000000000000000000000000791100083E
:100030009D02000800000000D50D00087B1100089B
:100040005F0100085F0100085F0100085F01000810
:100050005F0100085F010008AF0200085F010008AF
:100060005F0100085F0100085F0100085F010008F0
:100070005F0100085F0100085F0100085F010008E0
:100080005F0100085F0100085F0100085F010008D0
:100090005F0100085F0100085F0100085F010008C0
:1000A0005F0100085F0100085F0100085F010008B0
:1000B0005F0100085F0100085F0100085F010008A0
:1000C0005F0100085F0100085F0100085F01000890
:1000D0005F0100085F0100085F0100085F01000880
:1000E0005F0100085F0100085F0100085F01000870
:1000F0005F0100085F0100085F0100085F01000860
:100100005F0100085F0100085F0100085F0100084F
:100110005F0100085F0100085F0100085F0100083F
:100120005F0100085F0100085F0100085F0100082F
:10013000DFF80CD000F06CF80048004731160008DA
:10014000300500200648804706480047FEE7FEE7E6
:10015000FEE7FEE7FEE7FEE7FEE7FEE7FEE7FEE777
:10016000D711000831010008202A04DB203A21FAC7
:1001700002F00021704721FA02F3D040C2F12002C0
:100180009140084319467047D2B201E000F8012BB4
:10019000491EFBD270470022F6E710B513460A4607
:1001A00004461946FFF7F0FF204610BD2DE9F05F29
:1001B0000546002092469B468846064681464024D6
:1001C0001BE02846414647462246FFF7CDFF5346EF
:1001D0005A46C01A914110D311461846224600F0E3
:1001E00029F82D1A67EB01084F462246012000210D
:1001F00000F020F817EB00094E41201EA4F1010485
:10020000DFDC484631462A464346BDE8F09F000001
:10021000064C074D06E0E06840F0010394E8070053
:1002200098471034AC42F6D3FFF786FF5418000805
:1002300074180008202A04DB203A00FA02F100209A
:1002400070479140C2F1200320FA03F31943904014
:10025000704710B507E003780C78A34201D0002066
:1002600010BD401C491C521E92B2F4D2012010BD98
:10027000FEE700000848074901604FF4E1314160A2
:1002800000218160C160016181610C21416100F048
:100290009BBC00000038014094000020704701B56D
:1002A000009801E0401E00900028FBD108BD704777
:1002B0002DE9F84FDFF8C891002409F1040A0AF18A
:1002C000040B23460F270BF1040ED1E00125A540B6
:1002D00006EA0502AA4276D1DFF8A8C14E68A6EB6D
:1002E0000C0866452BD00DDC032E34D005DC36B36C
:1002F000012E19D0022E2FD11BE0112E16D0122E56
:100300002AD119E0B8F5881F19D006DCB8F5803F6E
:1003100015D0B8F5801F1FD111E0B8F5001F0ED021
:10032000B8F5041F18D10AE0CB6815E0CB681B1D97
:1003300012E0CB6808330FE0CB680C330CE08B681D
:100340002BB1012B4FF0080303D0456104E00423D7
:1003500002E0056100E00023FF2A01D8064601E023
:1003600000F104064FEA840501D9A5F12005D6F86D
:10037000008007FA05FC28EA0C0803FA05F548EAAC
:100380000508C6F800804D68ED0070D53E4DAE6999
:1003900046F00106AE61AD6924F0030605F00105E3
:1003A00000953A4D06EB050CDCF80850A607360F11
:1003B00007FA06F825EA0805DFF8D480404503D19E
:1003C0004FF0000825E052E0DFF8C880404502D138
:1003D0004FF001081DE0DFF8C080404502D14FF02A
:1003E000020816E0DFF8B480404502D14FF0030860
:1003F0000FE0DFF8AC80404502D14FF0040808E080
:10040000DFF8A080404502D14FF0050801E04FF031
:10041000060808FA06F848EA0508CCF808804D688E
:10042000D9F80060ED034D4601D5164300E0964330
:100430002E604D68DAF80060AD03554601D51643CD
:1004400000E096432E604D68DBF80060ED025D46EB
:1004500001D5164300E096432E604D68DEF800603B
:10046000AD02754601D5164300E096432E60641C2C
:100470000A681646E2407FF429AFBDE8F88F000015
:100480000004014000001110001002400000014073
:1004900000080140000C0140001001400014014020
:1004A00000180140001C01400148806870470000AE
:1004B000040000200248816802781144816070477E
:1004C0000400002070B50D4D04464FF47A71287871
:1004D000B1FBF0F00A490968B1FBF0F000F060FBF5
:1004E00048B9102C07D200222146501E00F00AF80D
:1004F00000206C6070BD012070BD00000400002071
:1005000000000020F0B40E4B1B680C46C3F302231E
:10051000C3F10705042D00D90425191D072901D2AF
:10052000002300E0DB1E012606FA05F1491E2140EA
:1005300099409E40761E16403143F0BC00F0ECBE60
:100540000CED00E02DE9F0470F46050061D0434E69
:10055000306800F00700B84209D2306820F0070088
:1005600038433060306800F00700B84251D1286845
:100570003B4C810712D5400703D5606840F4E0602A
:1005800060602878000703D5606840F460506060C0
:100590006068A96820F0F000084360602878C00710
:1005A00028D06868012810D02168022810D0890757
:1005B00000292EDA616821F0030101436160FFF731
:1005C00073FF804641F288390DE021688903EFE727
:1005D0008901EDE7FFF768FFA0EB0801494502D963
:1005E0000320BDE8F0876068696800F00C00B0EB9C
:1005F000810FEFD1306800F00700B8420BD93068A6
:1006000020F0070038433060306800F00700B8423F
:1006100001D00120E5E72878400705D56068E96842
:1006200020F4E060084360602878000706D5606821
:10063000296920F4605040EAC100606000F038F899
:100640006168084AC1F30311515CC840064908605B
:1006500006480068FFF736FF0020C2E7002002408E
:10066000001002403C180008000000200800002094
:100670000448054900684968044AC1F30221515CF5
:10068000C840704700000020001002404C180008CD
:100690000448054900684968044AC1F3C221515C15
:1006A000C840704700000020001002404C180008AD
:1006B00012A185B00FC98DE80F0014A0144A00687C
:1006C00004905168134801F00C03042B10D0082B40
:1006D0000ED1C1F38343C9031DF803000AD5516845
:1006E00004AAC1F34041515C0A4A5043B0FBF1F007
:1006F00005B0704708494843FAE7000002030405C3
:10070000060708090A0B0C0D0E0F1010010200005D
:100710000010024000127A0000093D002DE9F84F58
:10072000040070D02078C04DC00749D06868C0F37D
:100730008100012807D06868C0F38100022809D130
:100740006868C00306D52868800339D5606800282A
:10075000E7D035E06068B0F5803F0BD010B1B0F560
:10076000A02F11D0286820F480302860286820F459
:10077000802002E0286840F480302860606890B1F2
:10078000FFF792FE06460AE0286840F480202860C1
:10079000F0E700BFFFF788FE801B642873D8286845
:1007A0008003F7D50CE0FFF77FFE064605E000BFAB
:1007B000FFF77AFE801B6428F0D828688003F7D4FE
:1007C00020789A4E80074FF001094FF0000839D584
:1007D000686810F00C0F07D06868C0F38100022829
:1007E00009D16868C00306D42868800714D5206939
:1007F000012808D110E02069B0B1C6F80090FFF7D9
:1008000053FE074605E00AE1FFF74EFEC01B022833
:10081000C4D828688007F7D52868616920F0F800F7
:1008200040EAC10028600DE0C6F80080FFF73CFEFA
:10083000074604E0FFF738FEC01B022823D82868CB
:100840008007F7D4207800072CD57948A169D9B161
:10085000C0F80090FFF728FE074604E0FFF724FEEB
:10086000C01B02280FD8686A8007F7D571484FF47B
:10087000FA510068B0FBF1F0009000BF0098411EF3
:100880000091FAD20EE080E0C0F80080FFF70CFE85
:10089000074604E0FFF708FEC01B022875D8686A07
:1008A0008007F7D42078400760D5E8690027C000AA
:1008B00008D4E86940F08050E861E869012700F059
:1008C000805000905C480168C90513D401688346D4
:1008D00041F480710160FFF7E7FD824606E000BF4A
:1008E000FFF7E2FDA0EB0A0064284ED8DBF8000019
:1008F000C005F5D5E06801280AD008B1052813D055
:10090000286A20F001002862286A20F0040002E032
:10091000286A40F001002862E06841F2883B98B103
:10092000FFF7C2FD82460BE0286A40F0040028620F
:10093000EEE700BFFFF7B8FDA0EB0A0159455AD812
:10094000286A8007F6D50CE0FFF7AEFD824605E089
:10095000FFF7AAFDA0EB0A0159454CD8286A800789
:10096000F6D41FB1E86920F08050E861E06988B3EF
:100970006968C1F38101022944D00228C6F8608069
:1009800004D0FFF791FD044638E034E0FFF78CFD1A
:10099000074604E0FFF788FDC01B02282BD8286813
:1009A0008001F7D4206AB0F5803F05D16868A1685E
:1009B00020F4003008436860D4E9080108436968FE
:1009C00021F4741108436860C6F86090FFF76CFD6D
:1009D000044606E025E000BFFFF766FD001B022885
:1009E00009D828688001F7D51BE000BFFFF75CFD40
:1009F000001B022802D90320BDE8F88F2868800177
:100A0000F4D40EE00128F7D06868226A00F480313F
:100A1000914204D1616A00F47010884201D0012033
:100A2000EAE70020E8E70000001002400000424230
:100A300080044242000000200070004070B50400B5
:100A400008D0606A002538B12561656194F85100CD
:100A500040B10CE0012070BD6068B0F5827FF5D038
:100A6000E561F3E784F85050204600F047F8022093
:100A700084F851002068016821F040010160A088DD
:100A8000218900F4827001F404410843A18901F432
:100A900000610843217C01F002010843217D01F03F
:100AA00001010843218B01F400710843217F01F00B
:100AB0003801084394F8201001F080010843218D8B
:100AC00001F40051084321680860A069042101EA8B
:100AD000104021684860A06AB0F5005F03D1A08D86
:100AE000216880B208612068C16921F40061C16198
:100AF0006565012084F85100002070BD30B526489E
:100B000085B0816941F004018161816901F00401CE
:100B10000491816941F004018161816901F004015E
:100B20000491816941F004018161816901F004014E
:100B30000491816941F010018161816901F0100126
:100B40000491816941F4805181618069012400F43C
:100B500080500490202000900220CDE90104032061
:100B60000E4D039069462846FFF7A2FB40200090F7
:100B700069462846FFF79CFB80200090694628467E
:100B8000FFF796FB1020CDE9000469462846FFF7E1
:100B90008FFB05B030BD000000100240000801408E
:100BA00010B5401EB0F1807F01D3012010BD4FF081
:100BB000E02460610F21601700F0AEFB0020A0610F
:100BC00007202061002010BD70B5040004D094F807
:100BD0003D00002510B106E0012070BD84F83C50B6
:100BE000204600F023F8242084F83D002068C168E6
:100BF00021F40051C160204600F0EEFA206801693E
:100C000021F4904101612068416921F02A0141618C
:100C10002068C16841F40051C1602564202084F837
:100C20003D0084F83E00002070BD0000194810B55A
:100C3000816986B041F480418161816901F480411C
:100C40000491816941F004018161816901F004012D
:100C50000491816941F00401816180690E4C00F0CA
:100C6000040004904FF400700090022001900120D5
:100C700002900320039069462046FFF719FB2015D8
:100C800000900020019069462046FFF711FB06B056
:100C900010BD000000100240000801402DE9F8439B
:100CA000044690F83D001F4616460D4620284CD1BC
:100CB000C5B1BEB194F83C00012846D0012084F8AB
:100CC0003C004FF00008C4F84080212084F83D002B
:100CD000FFF7EAFBA6848146E684A068B0F5805F52
:100CE00003D004E00120BDE8F883206928B12E4636
:100CF0005FF0000584F83C800EE00026FAE78021D2
:100D0000204600F0C5FAA0B9AEB116F8010B216873
:100D10004860E08C401EE084E08C4B464FF00002BF
:100D200000970028EBD14FF04001204600F0B0FAC8
:100D300030B10320D7E735F8020BC0F30800E6E72F
:100D4000202084F83D000020CDE70220CBE7FEE71D
:100D5000F0B51C4885B0816941F01001816181695D
:100D600001F010010491816941F0100181618169F4
:100D700001F010010491816941F0080181618069ED
:100D8000042500F0080004900120CDE900500290F5
:100D900003200D4C039069462046FFF789FA082688
:100DA000694620460096FFF783FA022769460748FE
:100DB0000097FFF77DFA256126610448103007602F
:100DC00005B0F0BD0010024000100140000C0140D1
:100DD000FEE77047704700002DE9F041104F0646CE
:100DE0004FF4801014460D463860032000F03EF9A1
:100DF000C5F3074000F03AF9C5F3072000F036F9D3
:100E0000E8B200F033F904E0FF2000F02FF906F813
:100E1000010B641EA4B2F7D210203860BDE8F08147
:100E2000100801402DE9F04707460E4611F0FF007B
:100E3000C0F10001CDB24FEA122402F0FF094FF4D5
:100E4000807A13D0F0B24042C0B206EB00080CB377
:100E5000501B80B2040A00F0FF092A46314638468A
:100E600000F062F83D44464657462AE06CB15546CC
:100E7000641EE4B20CD32A463146384600F054F8DA
:100E800006F5807607F58077F2E73146384621E0AF
:100E90004A46FAE7A945F8D9A9EB0500C4B22A46A3
:100EA0003146384600F040F841467819224611E0B4
:100EB0003A463146284600F037F805F5807506F5C4
:100EC0008076641EE4B2F3D2B9F1000006D0024687
:100ED00031462846BDE8F04700F026B8BDE8F08767
:100EE00010B50F4C00204FF48271C4E901100221AB
:100EF000C4E90301012161614902A1610821C4E93A
:100F000007100721E1620749A06221606062204664
:100F1000FFF794FD2068016841F04001016010BDB9
:100F2000D8000020003001402DE9F04114460D4664
:100F3000064600F0E5F8134F4FF4801038600220A9
:100F400000F094F8C5F3074000F090F8C5F30720CF
:100F500000F08CF8E8B200F089F8B4F5807F07D98A
:100F600009A000F0C9F9FF24307800F07FF8761C62
:100F7000641EA4B2F8D210203860BDE8F04100F041
:100F80009FB80000100801403C3C2D464C4153489E
:100F90002D4552524F522D3E3E205350495F464CF4
:100FA0004153485F50616765577269746520746F7B
:100FB0006F206C61726765210A00000010B50B4C50
:100FC0004FF480102060AB2000F050F8FF2000F0BC
:100FD0004DF8FF2000F04AF8FF2000F047F8FF200E
:100FE00000F044F81021216010BD000010080140FD
:100FF00070B50D4D4FF4801028609F2000F036F83A
:10100000FF2000F033F80446FF2000F02FF80646DA
:10101000FF2000F02BF8014610202860200440EA51
:101020000620084370BD00001008014070B504465A
:1010300000F066F800F044F80B4D4FF48010286083
:10104000202000F013F8C4F3074000F00FF8C4F3B9
:10105000072000F00BF8E0B200F008F8102028603C
:10106000BDE8704000F02CB81008014070B512497E
:101070004FF480550D60114B1C6805E00A68561E40
:101080000E6001D200200CE0A268D2439207F5D492
:10109000E0600D601A6808E00868431E0B6004D227
:1010A000012000F049F8C0B270BD9068C043C0078D
:1010B000F2D1D068F7E7000054000020D8000020EB
:1010C00070B50D4D4FF4801028600520FFF7CEFF5E
:1010D0000A4CA8142060FF20FFF7C8FF21684A1EB1
:1010E000226004D2BDE87040042000F025B8C0079B
:1010F000F1D11020286070BD10080140540000207C
:1011000010B5054C4FF4801020600620FFF7AEFFAD
:101110001020206010BD00001008014010B5054CE3
:101120004FF480102060B920FFF7A0FF102020604E
:1011300010BD00001008014010B5014602A000F0EB
:10114000DBF8002010BD00003C3C2D464C415348CC
:101150002D4552524F522D3E3E2053504920B5C886
:10116000B4FDB3ACCAB1216572726F72436F64652E
:10117000203D2025640A00007047FFF79BB930B579
:101180008FB014210AA8FFF706F828216846FFF758
:1011900002F80120009000040024CDE9010402259A
:1011A000CDE907504FF4E01009906846FFF7B6FA12
:1011B00000B1FEE70F200A90CDE90B544FF4806098
:1011C000CDE90D0402210AA8FFF7BCF9002800D0E0
:1011D000FEE70FB030BD704770B504460068016986
:1011E000E26821F44051114301612169A06808437C
:1011F000616908432168CA6841F20C639A4302435B
:10120000CA6020684169A26921F4407111434161BB
:101210001E492068884202D1FFF73AFA01E0FFF741
:1012200027FA00EBC00101EB001260686421800026
:10123000B2FBF0F3B3FBF1F36FF018067343B2FBAC
:10124000F0F5B2FBF0F605EB8305322303EB051551
:10125000B5FBF1F5B6FBF1F605F0F00505EB06156B
:10126000B2FBF0F6B2FBF0F0B0FBF1F06FF0180259
:10127000504306EB800003EB0010B0FBF1F0216857
:1012800000F00F002844886070BD00000038014065
:101290002DE9F041984617460E460446069D1DE08E
:1012A000681C1BD02DB1FFF7FFF8A0EB0800A84287
:1012B00014D92068C16821F4D071C16020684169E7
:1012C00021F001014161202084F83D0084F83E00B6
:1012D000002084F83C000320BDE8F081206800680D
:1012E00036EA000004D00020B842D9D00020F3E74D
:1012F0000120F9E7FEE700000FB4054B10B503A984
:10130000044A029800F028F810BC5DF814FB0000B5
:1013100019160008580000200907090E002804DBF0
:1013200000F1E02080F80014704700F00F0000F199
:10133000E02080F8141D704702E008C8121F08C1A1
:10134000002AFAD170477047002001E001C1121F46
:10135000002AFBD1704700002DE9FF4F8DB09B465E
:101360000F460446002606E025280BD05A460F9962
:101370009047641C761C20780028F5D111B03046C7
:10138000BDE8F08F0025A8460122984900E00543FA
:1013900014F8013F203B02FA03F00842F7D120780D
:1013A0002E2817D114F8010F45F004052A280ED075
:1013B0006FF02F022078A0F1300109290AD808EB3C
:1013C000880102EB410100EB0108641CF2E757F8C9
:1013D000048B641C20786C280DD004DC4C2812D0BF
:1013E0006A2811D104E074280DD07A280CD10AE0C3
:1013F00045F4001507E0617845F48015814202D17B
:10140000641C05F58015641C2278692A45D008DC27
:10141000002AB3D0582A69D0632A10D0642A08D190
:101420003BE0702A67D0732A13D0752A5CD0782AE3
:101430005CD010465A460F999047761CD3E017F8B7
:10144000040B8DF8000000208DF80100E946012012
:1014500003E057F8049B4FF0FF3069074FF0000599
:1014600001D40AE06D1C45450DDA8542FADB19F816
:1014700005100029F6D106E06D1C8542FCDB19F849
:1014800005100029F8D12E4404E019F8010B5A4642
:101490000F9990476D1EF8D2A5E00A200021CDE9F2
:1014A0000801C5F3025002280DD001CFC117031E59
:1014B00071F100030DDA4FF0000CD0EB0C006CEB77
:1014C00001012D2308E0FF1D27F00707F7E80201BF
:1014D000EDE72B0504D52B238DF8283001233BE0C5
:1014E000EB0739D02023F7E70A2000E01020002185
:1014F000CDE9080107E01020002145F00405CDE901
:1015000008014FF00808C5F3025002280FD001CFA0
:1015100000214FF0000A2B071FD5702A0DD0DDE9FE
:1015200008C38CF0100C5CEA030C0CD015E0FF1D16
:1015300027F00707F7E80201EBE740228DF82820A3
:101540004FF0010A0BE050EA010306D030238DF87A
:1015500028308DF8292002239A46582A04D024A244
:101560000DF120090B9209E026A2F9E7DDE9082335
:10157000FEF71CFE0B9B9B5C09F8013D50EA010243
:10158000F4D1ADEB090020300890680701D44FF08A
:1015900001080899884502DDA8EB010000E0002061
:1015A0008046002506E00AA85A46405D0F999047FC
:1015B0006D1C761C5545F6DB04E030205A460F9929
:1015C0009047761CB8F10001A8F10108F5DC05E0B0
:1015D00019F8010B5A460F999047761C0899481E36
:1015E00008900029F4DC641CC5E60000092801000D
:1015F0003031323334353637383961626364656689
:10160000000000003031323334353637383941424A
:10161000434445460000000013B54FF47A7301229D
:1016200069460248FFF73AFB00981CBD9400002071
:10163000FFF7A5FDFFF78CFB344C4FF0040AC4F80C
:1016400010A008272761324EB8033060FEF712FE63
:1016500030A0FFF751FEFFF743FCFFF7AFFCDFF8C8
:10166000E8804546C8F80400C820FEF718FEFFF7DA
:10167000BFFCA8606A68A96834A0FFF73DFEA868AF
:10168000404902254FF48029884238D13EA0FFF717
:1016900033FE0020FFF7CAFC3622002108F10C00BF
:1016A000FFF7C0FB08F10C013FA0FFF725FE362233
:1016B00000214348FFF790FB414942A0FFF71CFE81
:1016C00036223F4908F10C00FEF7C3FD88F8000000
:1016D00098F8000001280AD0C4F8109027613560FE
:1016E0003EA000BFFFF708FEFFF718FDFEE7C4F8B5
:1016F00010A04FF400202061356041A0F2E7C4F84B
:1017000010902761356047A0ECE700000010014011
:10171000100C01400D0AD5E2CAC7D2BBB8F6384D4D
:1017200062797465B4AED0D0666C61736828573244
:101730003551363429CAB5D1E928535049C7FDB6C9
:10174000AF29200D0A000000100000200D0A466C91
:10175000617368494420697320307825582C202013
:101760004D616E756661637475726572204465764D
:1017700069636520494420697320307825580D0A33
:10178000000000001740EF000D0ABCECB2E2B5BD4E
:1017900053504920464C4153482057323551363436
:1017A00020210D0A000000000D0AD0B4C8EBB5C41A
:1017B000CAFDBEDDCEAAA3BA0D0A25730000000043
:1017C0005C0000200D0AB6C1B3F6B5C4CAFDBEDD8B
:1017D000CEAAA3BA0D0A2573000000000D0A313607
:1017E0004DB4AED0D0666C6173682857323551362F
:1017F0003429B2E2CAD4CAA7B0DC210A0D00000025
:101800000D0A31364DB4AED0D0666C61736828577E
:10181000323551363429B2E2CAD4B3C9B9A6210A45
:101820000D0000000D0ABBF1C8A1B2BBB5BD205729
:101830003235513634204944210A0D0000000000A1
:101840000000000001020304060708090000000070
:101850000102030474180008000000205C0000006E
:1018600038130008D01800085C000020D4040000E1
:10187000481300080024F4000100000010000000DC
:101880000000000000000000000000000000000058
:10189000B8D0D0BBC4FAD1A1D3C3D2B0BBF073745B
:1018A0006D3332BFAAB7A2B0E50D0A687474703AFE
:1018B0002F2F6669726573746D33322E74616F6297
:1018C000616F2E636F6D000000A00000000000003B
:0400000508000131BD
:00000001FF
