:040000006F0050003D
:100004000000000000000000900000208C0200208E
:10001400A9BDF9F5900000200000000000000000D8
:10002400900000209000002000000000000000006C
:10003400900000200000000090000020000000005C
:1000440090000020900000209000002090000020EC
:10005400900000209000002090000020000000008C
:100064009000002090000020900000204203002017
:1000740090000020900000209000002090000020BC
:1000840090000020900000209000002090000020AC
:1000940001A0011113078008F337078093F787083D
:1000A4003EC201000100B71700409305700523808C
:1000B400B704130680FA2380C7040100010083C635
:1000C400B70493F6F60DA385D7042380070492465C
:1000D400F3A606800100010093760502D5CEF3361F
:1000E400078093F6860836C4010001002380B70414
:1000F4002380C70401000100B70614007D89558DD3
:1001040088C7010001000100010023800704A24602
:10011400F3A6068001000100733707801377870870
:100124003AC6010001002380B7042380C7040100FC
:100134000100010001003727004093061005A303C6
:10014400D78023800704B247F3A70780010001008A
:1001540093078008F3B7078093F787083ECE010022
:100164000100B7170040130770052380E704130745
:1001740080FA2380E7040100010003C7B704136772
:100184000708A385E70423800704F247F3A7078041
:10019400010001000561828093760504BDC6F33633
:1001A400078093F6860836C8010001002380B7044F
:1001B4002380C70401000100B706140093860604D7
:1001C4007D89558D88C7010001000100010023804D
:1001D4000704C246F3A606800100010073370780B6
:1001E400137787083ACA010001002380B7042380EB
:1001F400C704010001003727004093062005A3032C
:10020400D78023800704D24781B7733707801377D9
:1002140087083ACC010001002380B7042380C70477
:100224000100010098471367070C98C7238007044F
:10023400E24719BF0111814601468145114506CEA9
:10024400912C93078008F3B7078093F787083EC67D
:1002540001000100B7170040130770052380E7046D
:10026400130780FA2380E7040100010003C7670431
:10027400136717002383E70423800704B247F3A717
:10028400078001000100F24005618280411181462E
:10029400014681451145FD2A13078008F33707807D
:1002A40093F787083EC401000100B7170040130606
:1002B40070052380C704930680FA2380D7040100C5
:1002C4000100FD552396B70223800704A245F3A538
:1002D40005800100010073370780137787083AC649
:1002E400010001002380C7042380D704010001001A
:1002F40003C76704136717002383E70423800704F5
:10030400B247F3A707800100010001A0BD473305F0
:10031400F50201007D1575FD8280411122C426C2BB
:1003240006C6AA84014463179400B240224492444E
:100334004101828005041305803E4204C13F41808F
:10034400DDB737370040834747409946BD8B638804
:10035400D70231474111638EE7041147639EE700DA
:10036400A307010037370040938641818347F1009A
:1003740003C681806319F60041017300203083476E
:100384005740730020308347F10003468740B697F7
:100394002380C7008347F100B69783C7070023046F
:1003A400F7408347F100850793F7F70FA307F100A0
:1003B40075BF13854181971000E0E780A08A13750B
:1003C400F50FA307A1008345F10013854181971020
:1003D40000E0E780A0864DB723030480154723037C
:1003E400E48001002302A480828083076480E3CE3A
:1003F40007FE23030480828083076480E3CE07FE24
:1004040003454480828083076480E3CE07FE230291
:10041400A4808280411126C44AC24EC006C6137706
:10042400F50BAD47AA892E8995446306F700194553
:100434006537653F8D444E854537FD59FD146398F6
:100444003401B240A24412498249410182801355C9
:1004540009011375F50F453F2209CDB7011126CCCB
:1004640006CEB704080051371545BD3771376937D3
:100474002AC6A53F32459377150089EB136515000D
:100484001375F50FF240E24405618280FD14E9FC26
:100494000145CDBF397126DC4ADA4ED852D656D43E
:1004A4005AD25ED006DE62CE66CCB7E700E07D5756
:1004B40083AA070022C603AA470023A0E71823A2A1
:1004C400E718B7170040130770052380E7041307E4
:1004D40080FA2380E70483C74704930B75FFB6842F
:1004E400E20793FBFB0F8546AA892E8B32893724BA
:1004F4000040E187015763FA76016308D500894615
:10050400130700026313D5000157D98F93F7F70F30
:10051400B71C00402382FC0411472303E480130525
:10052400F00F5D3D094CD135636D7C11B7050700B3
:10053400DA9537870700795563F2E504B3879500A8
:10054400636EF702370B0800A94733EB6501639923
:10055400F90689E48144513D26850DA0DA850945D3
:10056400553D05090345F9FFFD14050B693D81C49B
:100574009377FB0FFDF7DD3569FD7D55B717004017
:10058400130770052380E704130780FA2380E70428
:1005940003C74704418B2382E704F250B7E700E026
:1005A40023A0571123A24711E25432445259C2598D
:1005B400325AA25A125B825B724CE24C21618280F5
:1005C400A5476395F90685691309F00FB3069900E9
:1005D400B3742B01B6941349F9FFB3749900856B76
:1005E40033796901416B9387F9FFB3F7270199E3E5
:1005F40063FC340193D94900C147E3E637FF99BF4F
:100604000569C1697D19D9B71305800D638869012E
:10061400130500026384790113051008CA85DD3BC4
:10062400353D21DD4E99B3843441D9B7DA852D4562
:10063400D533CA94E30099F205097D3BA30FA9FEC3
:10064400D5BF9387F9FF93F7F70F6361FC0C83C75A
:100654001C0413073008631FF70437070800636B93
:10066400EB04B3079B00B706100063F5D704334BC4
:10067400EB0089476393F9068980D549E38C04EC40
:10068400DA850945413B11090327C9FF9147232016
:10069400E48003076480E34E07FE23033481FD17DF
:1006A400EDFBFD14110B81C49377FB0FE9FF7D3340
:1006B40071F5E1B5B717004003C75704B707080041
:1006C4001377070219E3B78707007955E378FBEA44
:1006D40033079B00E3FFE7F855B58547E382F9F25A
:1006E400DA852D45053B9389F4FFE38504E6293338
:1006F40093F7390091EB83260480032709009307BD
:100704004900E39AE6E43E89CE84F1BFB547639697
:10071400F9001305900BC93135BDB1471305B00A73
:10072400E38BF9FE99476391F904B7050800B365B3
:10073400BB002D45C53181448D4BA1497539639664
:100744007401832704802320F9008504E39834FF8F
:100754008327048013172B01635507002312F90024
:10076400D5BB2322F900FDB39D476399F902814566
:100774001305B0044531BD44232009002322090098
:10078400FD599D3993F77400CA9703C70700FD14F8
:10079400398D2380A700E39634FF6DBBA147639294
:1007A400F9046D398144630D0B008D479304C00334
:1007B4006308FB009304000563048B019304400465
:1007C4001375C507E30895D81945393139390545F5
:1007D400213126850D3909453D314931E31C05D6C2
:1007E40069BB91476399F90013056006F536F53E38
:1007F400130590090DB7E38F09D4F154A9BB000088
:10080400971100209381C18517610020130141FFD6
:100814001305400097F5FF1F9385857E170600207A
:10082400130606FE63FAC5008322050023A05500C3
:1008340011059105E3EAC5FE1715000013050542ED
:10084400970500209385C5FB1386818063FAC50054
:100854008322050023A0550011059105E3EAC5FE96
:10086400138581809385C1E76377B5002320050054
:100874001105E36DB5FEFD42739002BC8D42739089
:100884004280930280087390023097F2FF1F938294
:10089400227793E2320073905230970200009382E1
:1008A400621D73901234730020303D432A876373B2
:1008B400C3029377F700BDEFADE5937606FF3D8A5B
:1008C400BA960CC34CC30CC74CC74107E36BD7FEA5
:1008D40011E28280B306C3408A069702000096960E
:1008E4006780A6002307B700A306B7002306B70056
:1008F400A305B7002305B700A304B7002304B7007A
:10090400A303B7002303B700A302B7002302B70071
:10091400A301B7002301B700A300B7002300B70069
:10092400828093F5F50F93968500D58D93960501F6
:10093400D58D61B79396270097020000969686821C
:10094400E78086FA9680C1171D8F3E96E374C3F83C
:10095400A5B73367B500FD530D8B79E7B7877F7F64
:100964009387F7F710419441B372F6003363F600AE
:10097400BE92B3E262006397720C6318D6065041CC
:10098400D441B372F6003363F600BE92B3E2620060
:100994006398720A631BD60410459445B372F6003B
:1009A4003363F600BE92B3E262006391720A631E7F
:1009B400D6025045D445B372F6003363F600BE92B6
:1009C400B3E26200639A72086311D6021049944933
:1009D400B372F6003363F600BE92B3E2620063932F
:1009E40072085105D105E30FD6F613170601939744
:1009F4000601631CF7001357060193D7060133055C
:100A0400F7409375F50F91E982804183C1833305E3
:100A1400F7409375F50F91E182801377F70F93F701
:100A2400F70F3305F74082800346050083C60500AF
:100A3400050585056313D60065FA3305D640828023
:100A440011059105E312D6FE014582802105A10519
:100A5400E31CD6FC014582803105B105E316D6FCC2
:100A6400014582804105C105E310D6FC0145828021
:100A7400411106C6252401A0914763EEB70217175A
:100A840000001307E7068A05BA959C41BA97828746
:100A9400B717004003A7470B1345F5FF698F23AA37
:100AA400E70A03A7070B698F23A8E70A03A7070A26
:100AB400798D23A0A70A8280B717004083A6470B2D
:100AC4001347F5FFF98E23AAD70A83A6070B558D82
:100AD40023A8A70A83A6070A758F23A0E70A8280A2
:100AE400B717004003A7470B498F23AAE70A03A7B8
:100AF400070B1345F5FF45BFB717004083A6470B07
:100B04001347F5FF758F23AAE70A03A7070A598D30
:100B14004DB7B717004003A7470B498FEDB7B71779
:100B240000408847420541819377050491EB937710
:100B3400F5013755E801130505803345F502828038
:100B44009377050C130700046397E7009377F50187
:100B540037459C1CCDB72165130505D082809707C6
:100B640000209387E7CF9C431387C1E73E95636ECC
:100B7400E500176700201307A7A86368A7001707F5
:100B84000020232FA7CC3E858280FD57EDBF411165
:100B940022C406C62A8461372947B307E502B24056
:100BA4008D83B3D7870222449507B3D7E70237373B
:100BB4000040C207C1832316F7404101828071655A
:100BC40041111305052006C6D937B737004013076E
:100BD40070F82381E7400D47A381E7401307000421
:100BE400A380E74005472387E740B2404101828064
:100BF40037370040834727401A0593F7F703C98F17
:100C040093F7F70F2301F7408280B737004003C7FB
:100C1400174019C9D98DA380B74003C7074013678C
:100C240087002380E740828093C5F5FFF98DA38078
:100C3400B7408280B73700402147B736004091E182
:100C4400828003C6B740E30CC7FE05050346F5FFE3
:100C5400FD15C2052384C640C181D5B78147B73687
:100C6400004003C7A6401396070141821377F70F8C
:100C740019E33285828003C686403307F500850771
:100C84002300C700F9BF41111305800406C697F07D
:100C9400FF1FE7800040B240410131A0411106C668
:100CA400DD37B522FDBF371700408327870A41117E
:100CB40006C693E707202324F70A85451305001089
:100CC400653B8D4513050020453BD53D0D450D374E
:100CD4009D47954505452384F180053FB240B7E71C
:100CE40000E03707000823A0E71041018280397132
:100CF40022CC1384818726CA2ED2AA8432D4814579
:100D040013060020228506CE3AD83EDA42DC46DEBF
:100D140036D6613E5410268693050020228536C6B9
:100D24000D212285930500203137F2406244D244DC
:100D3400216182801971BEDA238C01A6FC10A2CC39
:100D4400A6CACEC6D2C4D6C262DC66DA86CECAC809
:100D5400DAC05EDE2A8CAE8A328AB6D6BAD8C2DC53
:100D6400C6DE3EC681490544971C0000938C0CDB0B
:100D7400938481A763C18903F6406644D6444649F7
:100D8400B649264A964A064BF25B625CD25C1385EE
:100D940081A709618280E6855285653EB247014993
:100DA400138787003AC683AB070003AB470029EDDE
:100DB4006344690185097DBF01E4D685268519262A
:100DC40093172900DE978843050901447D202A876B
:100DD400AE875286930500020808A52C0C082685C8
:100DE400D524F9B701E4D6852685E92C9317290083
:100DF400DE9794435286930500020808992C0C0848
:100E04002685C92405090144E34E69FD65B75D7172
:100E14003146971500009385E5CB481086C6A2C4D9
:100E2400B52A11449547414697150000938545CB53
:100E3400081822CE3ED09D22930801037C0854104A
:100E440022C009480D47171600001306A6CB9715B4
:100E54000000938565CB0D45F13DAA85171500006B
:100E64001305C5CA69351305803E97F0FF1FE78057
:100E7400C04AB640264461618280135775011377D6
:100E8400F70F41119307170022C426C213149500CB
:100E940006C693F7E70F25809354F50185C793574A
:100EA4003400130707387604B2075207B183139549
:100EB400F401D98FC98FB240228522449244BE8561
:100EC4004101828005EB39C42285B128A94763C654
:100ED400A7042D47098F930755013357E4003314B2
:100EE400F4009317C70013079038098FB183137761
:100EF400F77F5DBF01CC13573400B7070800D98FC3
:100F0400B2077604B1831307F07F79BF1307F07F2C
:100F1400814759BF0147814741BF130755FF331725
:100F2400E40001447DBFC167637EF5029307F00FBF
:100F34001307000263ECA70097170000938747BECE
:100F4400AA9703C507003305A7408280218197171C
:100F540000009387E7BCAA9703C5070061473305E0
:100F6400A7408280B7070001636EF500618197177F
:100F740000009387E7BAAA9703C507002147330502
:100F8400A7408280418197170000938767B9AA9789
:100F940003C5070041473305A7408280B3C7A500B6
:100FA4008D8B3307C50081E78D4763EEC700AA87A1
:100FB4006370E50A83C6050085078505A38FD7FE00
:100FC400E3EAE7FE828093763500AA8791CA83C656
:100FD400050085078505A38FD7FE93F63700FDB777
:100FE4009376C7FF138606FE63F0C70683A3050046
:100FF40083A2450083AF850003AFC50083AE05011E
:1010040003AE450103A3850183A8C5019385450269
:1010140023A0770003A8C5FF23A2570023A4F70148
:1010240023A6E70123A8D70123AAC70123AC67009D
:1010340023AE17019387470223AE07FF75B790418C
:101044009107910523AEC7FEE3EBD7FEE3E4E7F691
:10105400828035713ECBA6DA36C73AC942CD46CF37
:10106400970700209387078086DEA2DC844363DB36
:1010740005009307B0089CC07D55F6506654D654BD
:101084000D61828093078020231AF1002AC42ACCA0
:10109400814799C19387F5FF3EC83ECE7401FD5741
:1010A4002E8426852C00231BF10036C2492AFD57C5
:1010B4006355F5009307B0089CC061D0A247238014
:1010C400070065BFAA8703C707009386170009EBCB
:1010D400850503C7F5FF8507A38FE7FE75FB8280AF
:1010E400B687D5B71971A2DC86DEA6DA3284635BD3
:1010F40006009307B0081CC17D55F6506654D654BB
:10110400096182803686930680202EC42ECC231A51
:10111400D100814519C09305F4FFFD572EC82ECE8A
:10112400BA862C00231BF100AA84112AFD576355AB
:10113400F5009307B0089CC069D0A247238007003C
:101144006DBF97F7FF1F9387E7713687B2862E86A8
:10115400AA85884341BF01114AC803A9850022CC4E
:1011640052C45AC006CE26CA4EC656C22E84328BEC
:10117400368A63ED260983D7C50013F7074849C7A4
:1011840004408C495848AA8AB389B4408D44B38436
:10119400E4020947B3C4E402138716004E9763F3CD
:1011A400E400BA8493F70740C9C3A6855685EF00C7
:1011B400207C2A890DE5B14723A0FA008357C40097
:1011C4007D5593E707042316F400F2406244D244A9
:1011D4004249B249224A924A024B056182800C4834
:1011E4004E866D3B8357C40093F7F7B793E7070820
:1011F4002316F4002328240144C84E99B3843441AF
:101204002320240104C4528963732A0152890840AB
:101214004A86DA85BD251C440145B38727411CC491
:101224001C403E99232024014DB726865685EF00A5
:1012340010012A8961F10C485685492DADBF83D729
:10124400C500717126D34AD14ECF06D722D552CDCF
:1012540056CB5AC95EC762C566C393F70708AA8905
:101264002E89B284B1C39C49A1E39305000436C618
:1012740001272320A9002328A900B24615E1B1477C
:1012840023A0F9007D55BA502A549A540A59FA49B0
:101294006A4ADA4A4A4BBA4B2A4C9A4C4D618280CC
:1012A40093070004232AF90093070002A30CF10218
:1012B4009307000302DA230DF10236CE930B50029A
:1012C400971A0000938ACA95054C294B26848347B4
:1012D400040099C3639B7709B30C9440638D0C009D
:1012E400E6862686CA854E85BD35FD576301F51A07
:1012F400D256E69636DA83470400638A0718FD5708
:101304009304140002D002D63ED202D4A3010106F3
:1013140082DC83C5040015465685B9231384140062
:10132400825731E513F7070109C713070002A30128
:10133400E10613F7870009C71307B002A301E1060A
:1013440083C604001307A002638BE602B257268407
:10135400814625460347040093051400130707FD3F
:101364006374E6068DC63ED61DA005048DB733050D
:1013740055413315AC00C98F3ED0A28459BF724782
:1013840093064700184336CE634907023AD603470B
:1013940004009307E002631FF70403471400930754
:1013A400A002631BF702F2470904138747009C431A
:1013B4003ACE63C107023ED235A83307E04093E733
:1013C40027003AD63ED0E1B7B387670385462E841B
:1013D400BA9749B7FD57C5B7050402D2814681477C
:1013E40025460347040093051400130707FD63769D
:1013F400E606F1F2834504000D46171500001305B7
:10140400A5829D2111CD971700009387E7811D8D3B
:1014140093070004B397A700025505045D8D2AD0F5
:10142400834504001946171500001305258093040D
:101434001400230CB1020D2925C597F7FFFF9387EC
:1014440027BC95E70257F2471377071009CF910796
:101454003ECED257D2973EDA95BDB3876703854611
:101464002E84BA97BDBF9D07E19BA107D5B7780825
:1014740097060000938666CE4A860C104E85970028
:101484000000E7000000FD572A8AE314F5FC8357A7
:10149400C9007D5593F70704E39707DE5255E5B37A
:1014A400780897060000938646CB4A860C104E8532
:1014B400012AD1BF797156CA9C49BA8A984522D467
:1014C40026D24ECE52CC06D64AD05AC85EC6AA8977
:1014D4002E84B284368A63D3E700BA879CC003475C
:1014E400340419C385079CC01C4093F7070281C7C5
:1014F4009C4089079CC00329040013796900631A7E
:101504000900130B9401FD5B5C449840998F634C74
:10151400F9041C408346340493F70702B336D00021
:10152400A5EB13063404D2854E85829AFD576303D6
:10153400F5041C4011469840998B544481446397A8
:10154400C700B384E64063D3040081441C441848B4
:101554006354F700998FBE94014969047D5B6398D5
:101564002405014509A885465A86D2854E85829A66
:10157400631E75017D55B250225492540259F249AA
:10158400624AD24A424BB24B456182800509ADBFE3
:101594003307D40013060003A301C704034754040C
:1015A40093871600A2978906A381E7049DBF854609
:1015B4002286D2854E85829AE30E65FB050945B7DE
:1015C400797122D426D24AD04ECE06D652CC56CAEF
:1015D4005AC8B68983C68501930790063289AA84BE
:1015E4002E8413863504638DF60263E2D7069307CF
:1015F40080056387F61863EDD7006380062293079E
:101604003004638EF60A930A24042301D404C9A087
:10161400930730066385F60A93074006E395F6FEC2
:101624001C40084393F6070893054500C5C61C41B2
:101634000CC363D807001307D002B307F040A3011B
:10164400E404970600009386E65E29476DA8930795
:1016540000076383F61663E5D7029307E006638AFF
:10166400F6189307F006E390F6FA0C401C4313F8BF
:101674000508138547006307080608C39C438DA823
:1016840093075007E383F6FE93078007638AF612F5
:1016940093073007E399F6F61C43D04181459386BE
:1016A400470014C383AA070056857D2A01C5330564
:1016B400554148C05C401CC8A301040471A81C43E4
:1016C400930A2404938647009C4314C32301F4041F
:1016D4008547D5B793F607041C410CC3B9DAC20792
:1016E400C18781BF93F5050408C3C9D983D707000F
:1016F4001307F0066387E60E970600009386865369
:101704002947A30104044C400CC463C505000840E8
:101714006D9908C099E3B28A91CDB28AB3F5E70214
:10172400FD1AB69583C505002380BA00B3D5E70238
:1017340063FFE70AA147631EF7001C40858B91CB2A
:1017440058401C4863C7E70093070003A38FFAFEC1
:10175400FD1A3306564110C84E87CA867000A2850A
:101764002685893B7D5A631E450B7D55B250225414
:1017740092540259F249624AD24A424B45618280EC
:10178400A382D504970600009386C64A0C400843FA
:1017940013F805081C411105630D080208C313F76B
:1017A400150001C793E505020CC04147B9FB0C4085
:1017B40093F5F5FD0CC0B1B79C4193E707029CC1BA
:1017C40093078007A302F404970600009386C64794
:1017D40075BF13F8050408C3E30308FCC207C183FB
:1017E4007DBF970600009386E644214719BFAE8764
:1017F40035B794411C43CC4913F8060813854700B8
:101804006306080008C39C438CC301A808C393F66D
:1018140006049C43F5DA2390B70023280400B28A17
:1018240025BF14485686CA8526858299E30F45F359
:101834001C40898B8DE7B2474844E359F5F23E8555
:1018440035B785465686CA8526858299E30F65F1A4
:10185400050A5C443247998FE345FAFEE9BF014A21
:10186400930A94017D5BF5B793F5F50F2A966314FB
:10187400C5000145828083470500E38DB7FE050559
:10188400FDB763F3A504B386C500637FD502934512
:10189400F6FF8147FD176393F50082803387F600D6
:1018A400034807003387C7002A9723000701DDB7E1
:1018B4003387F500834607003307F50085072300C7
:1018C400D700E317F6FE82808147E5BFCDC183A729
:1018D400C5FF411122C406C626C21384C5FF63D3C3
:1018E40007003E94AA84C92A9387C1809C4399EB3C
:1018F4002322040023A681802244B24026859244F8
:10190400410165AA637EF40014403307D400639652
:10191400E7009843DC43369718C05CC0E1BFBA8740
:10192400D84319C3E37DE4FE94433386D700631F91
:1019340086001040B29694C33386D700E31EC7FADC
:1019440010435843B29694C3D8C37DB76375C4009B
:10195400B1479CC055B71040B306C4006316D70006
:1019640014435843B29614C058C0C0C371B78280A0
:10197400011126CA93843500F19806CE22CC4AC8B8
:101984004EC6A104B14763F1F404B14463E0B40466
:101994002A891D229387C18098433A8431E0938732
:1019A40001819C4391E781454A85D52023A8A180E4
:1019B400A6854A85E928FD5963173507B1472320D1
:1019C400F9004A85DD2829A0E3D204FCB1471CC1F3
:1019D4000145F2406244D2444249B24905618280E1
:1019E4001C40858F63CE0702AD4663F6F6001CC02B
:1019F4003E9404C031A05C406312870223A6F180A8
:101A04004A8565281305B400930744006199330798
:101A1400F54061D33A94898F1CC065BF5CC3CDB7D0
:101A240022874040A5BF130435007198E30385FC69
:101A3400B305A4404A85A128E31D35FB41B799E1CC
:101A4400B2853DB7011122CC06CE26CA4AC84EC67D
:101A5400328419EAA53D0149F24062444A85D244E0
:101A64004249B24905618280AE84AA8981282689C7
:101A7400E37485FEA2854E85E53D2A8971DDA68540
:101A84002286EFF0AFD1A6854E858935F1B7411195
:101A940022C42A842E8523AC01E606C6EFF02F8CDF
:101AA400FD576317F500938781E79C4391C31CC0DE
:101AB400B2402244410182808280828083A7C5FF94
:101AC4001385C7FF63D50700AA959C413E95828084
:101AD40001000000020000000300000006000000F6
:101AE400070000000800000009000000A4EFFFFF49
:101AF400CCEFFFFFF4EFFFFF0CF0FFFF26F0FFFF3A
:101B0400256400002C000000C6B4BDD3BDE1B9FBC0
:101B14003A2025730D0A0000256600000001020228
:101B24000303030304040404040404040505050571
:101B3400050505050505050505050505060606064D
:101B44000606060606060606060606060606060631
:101B5400060606060606060606060606070707071D
:101B64000707070707070707070707070707070701
:101B740007070707070707070707070707070707F1
:101B840007070707070707070707070707070707E1
:101B940007070707070707070707070708080808CD
:101BA40008080808080808080808080808080808B1
:101BB40008080808080808080808080808080808A1
:101BC4000808080808080808080808080808080891
:101BD4000808080808080808080808080808080881
:101BE4000808080808080808080808080808080871
:101BF4000808080808080808080808080808080861
:101C04000808080808080808080808080808080850
:101C1400080808080808080808080808232D302BB5
:101C240020000000686C4C0065666745464700006C
:101C340030313233343536373839414243444546FE
:101C440000000000303132333435363738396162C0
:081C54006364656600000000F6
:101C5C000000000000000000000000000000000078
:101C6C000000000000000000000000000000000068
:101C7C000000000000000000000000000000000058
:101C8C000000000000000000000000000000000048
:101C9C000000000000000000000000000000000038
:101CAC000000000000000000000000000000000028
:081CBC00DC0E002000080020EE
:00000001FF
