:020000040800F2
:10000000E0B1002045010008231500082B1400086A
:10001000211500082307000831190008000000001E
:10002000000000000000000000000000271500088C
:1000300059070008000000002515000829150008D0
:100040005F0100085F0100085F0100085F01000810
:100050005F0100085F0100085F0100085F01000800
:100060005F0100085F0100085F0100085F010008F0
:100070005F0100085F0100085F0100085F010008E0
:100080005F0100085F0100085F0100085F010008D0
:100090005F0100085F0100085F0100085F010008C0
:1000A0005F0100085F0100085F0100085F010008B0
:1000B0005F0100085F010008D51500085F01000816
:1000C0005F0100085F0100085F0100085F01000890
:1000D0005F010008051900085F0100085F010008C2
:1000E0005F0100085F0100085F0100085F01000870
:1000F0005F0100085F0100085F0100085F01000860
:100100005F0100085F0100085F0100085F0100084F
:100110005F0100085F0100085F0100085F0100083F
:100120005F0100085F0100085F0100085F0100082F
:10013000DFF80CD000F0B8FA00480047DD230008D3
:10014000E0B100200648804706480047FEE7FEE78A
:10015000FEE7FEE7FEE7FEE7FEE7FEE7FEE7FEE777
:100160008D15000831010008202A04DB203A21FA0D
:1001700002F00021704721FA02F3D040C2F12002C0
:100180009140084319467047D2B201E000F8012BB4
:10019000491EFBD270470022F6E710B513460A4607
:1001A00004461946FFF7F0FF204610BD2DE9FE4F2B
:1001B000804681EA0300C00F0C46009021F0004108
:1001C00023F00045B8EB0200A94105D24046214684
:1001D00090461C460B46024623F00040104347D091
:1001E000270DC7F30A00C3F30A510290401A019089
:1001F00040286BDAC3F3130040F4801B009892464A
:1002000020B10023D2EB030A63EB0B0B0198594694
:10021000C0F14002504600F029F906460D4650460E
:100220005946019A00F031F910EB080061410024B1
:1002300087EA115284EAE7731A4340D0009A62B306
:10024000019A012A4FEA075215DC001B61EB0201FB
:100250004FF0004202EA0752CDE90042001C41F58E
:10026000801132462B4600F031F903B0BDE8F08F23
:1002700040462146F9E7001B61EB0201001C41F5F5
:10028000801300185B412018A2F5001747EB03010B
:1002900040EAD570B6196D4111E06D084FEA360697
:1002A00045EAC0754FEA0752001B61EB0201001CD2
:1002B00041F5801149084FEA30000019514132469A
:1002C0002B4603B0BDE8F04F00F0F1B800980122D2
:1002D00040000023D0EB020263EBE073009821465C
:1002E0004FEAE074B8EB000061EB0401E9E783F04A
:1002F00000435BE781F0004158E72DE9FE4F81EABA
:10030000030404F0004421F0004100944FF0000B7E
:1003100023F0004350EA01045ED052EA03045BD0AC
:10032000C3F30A54C1F30A552C44A4F2F3340194E4
:10033000A0FB0254C1F3130141F48011C3F3130372
:1003400043F4801301FB024400FB034E840A970A26
:1003500044EA815447EA8357A4FB076802958D0A53
:1003600005FB07854FEA932C04FB0C542705029DDF
:100370004FEA065847EA1637B5EB08056EEB070C4F
:10038000870E920E47EA811742EA8312A7FB020109
:10039000B6EB0B0164EB00042B0D43EA0C335E1843
:1003A00044EB1C50DA465146E7FB0201C5F3130447
:1003B0004FEA0B3343EA14534FEA0432019C43EAF9
:1003C0000603A4F10C040294009CCDE900B400F0F3
:1003D0007DF803B0BDE8F08F00200146F9E730B5A5
:1003E0000B46014600202022012409E021FA02F5F3
:1003F0009D4205D303FA02F5491B04FA02F528448D
:10040000151EA2F10102F1DC30BD2DE9F05F0546B9
:10041000002092469B4688460646814640241BE0C3
:100420002846414647462246FFF79EFE53465A4617
:10043000C01A914110D311461846224600F016F812
:100440002D1A67EB01084F4622460120002100F0DB
:100450000DF817EB00094E41201EA4F10104DFDC6A
:10046000484631462A464346BDE8F09F202A04DB31
:10047000203A00FA02F1002070479140C2F12003B7
:1004800020FA03F3194390407047202A06DBCB176C
:10049000203A41FA02F043EAE07306E041FA02F33F
:1004A000D040C2F12002914008431946704710B570
:1004B000141E73F1000408DA401C41F10001921887
:1004C0005B411A4301D120F0010010BD2DE9F04D30
:1004D00092469B4611B1B1FA81F202E0B0FA80F285
:1004E00020329046FFF7C2FF04460F4640EA0A005A
:1004F00041EA0B0153465A46084313D0114653EACA
:10050000010019D0C8F140025046FFF72DFE054604
:100510000E46504659464246FFF7A8FF084305D00D
:10052000012004E020463946BDE8F08D0020054357
:1005300046EAE0762C4337430A986305E40AA0EBC9
:1005400008000022FD0A44EA47540A3002D5002080
:100550000146E9E7010510196941DDE9084500197F
:100560006941BDE8F04DA2E72DE9F04D81EA0304B1
:1005700004F0004B21F0004514464FF0000A23F030
:10058000004150EA050220D054EA01021DD0C5F313
:100590000A570246C5F31303C1F31300C1F30A5609
:1005A00040F4801543F48013A7EB0608101BD646D1
:1005B00008F2FD3873EB050002D308F1010801E0F1
:1005C00092185B41B8F1000F03DA00200146BDE844
:1005D000F08D00204FF48011064684460EE0171B74
:1005E00073EB050705D3121B63EB050306434CEAC7
:1005F000010C49084FEA300092185B4150EA0107AC
:10060000EDD152EA030012D082EA040083EA050128
:10061000084305D0101BAB4106D20122002306E09F
:1006200000224FF0004302E06FF0010253101AEB7A
:1006300006004CEB085110EB0A0041EB0B01BDE842
:10064000F04DFFF734BFC1F30A52C1F3130140F27A
:10065000FF3341F480119A4202DA002001467047CC
:1006600040F233439A42A2F2334202DC5242FFF795
:100670007BBDFFF7FBBE000030B5041E71F1000426
:1006800004DB4FF00044404264EB0101141E73F19F
:10069000000405DB1C464FF00043524263EB0403A9
:1006A000994208BF904230BD064C074D06E0E06815
:1006B00040F0010394E8070098471034AC42F6D3A9
:1006C000FFF73AFDF83500081836000870B58C18A9
:1006D00010F8015B15F0070301D110F8013B2A1156
:1006E00006D110F8012B03E010F8016B01F8016B43
:1006F0005B1EF9D12B0705D40023521E0DD401F83F
:10070000013BFAE710F8013BCB1A921C03E013F807
:10071000015B01F8015B521EF9D5A142D8D300203C
:1007200070BDFEE700F0E0FF00F000F805A001F06A
:1007300001F94FF47A74204601F01CFE01F01CFF11
:10074000F9E70000D2B0BBF02D463130332DC3D4D1
:10075000C4E30D0A00000000704700002DE9F05FBF
:1007600090F821100024022903D004218163012480
:1007700085E001680A6822F00E020A6001680A68D2
:1007800022F001020A603F4E3E4FB215DFF8F4C07E
:10079000DFF8F090DFF8ECA0DFF8E8B0DFF8E4E095
:1007A0000168783F13011502ACF1640CA9F15009FE
:1007B000AAF13C0AABF1280BAEF1140E4FF48018ED
:1007C000B14227D9B9420ED0614512D049451DD05A
:1007D000514518D0594518D0714501D1424615E010
:1007E000294EB14201D1012210E0274E1436B14208
:1007F00001D110220AE0244E2836B14206D0224A06
:100800003C32914201D11A4600E02A461E49091F96
:100810000A602BE0B94213D0614517D0494522D078
:1008200051451DD059451DD0714501D142461AE0B0
:10083000B14202D14FF0807215E0134EB14201D1A6
:10084000012210E0104E1436B14201D110220AE00C
:100850000D4E2836B14206D00B4A3C32914201D1AE
:100860001A4600E02A46074980394A60012180F88B
:100870002110002180F82010416B01B188472046EB
:10088000BDE8F09F80000240080402402DE9F84FC7
:10089000DFF8C891002409F1040A0AF1040B234689
:1008A0000F270BF1040ED1E00125A54006EA050251
:1008B000AA4276D1DFF8A8C14E68A6EB0C086645BF
:1008C0002BD00DDC032E34D005DC36B3012E19D02D
:1008D000022E2FD11BE0112E16D0122E2AD119E094
:1008E000B8F5881F19D006DCB8F5803F15D0B8F5EB
:1008F000801F1FD111E0B8F5001F0ED0B8F5041FFE
:1009000018D10AE0CB6815E0CB681B1D12E0CB685C
:1009100008330FE0CB680C330CE08B682BB1012B54
:100920004FF0080303D0456104E0042302E00561B1
:1009300000E00023FF2A01D8064601E000F104068A
:100940004FEA840501D9A5F12005D6F8008007FA01
:1009500005FC28EA0C0803FA05F548EA0508C6F87C
:1009600000804D68ED0070D53E4DAE6946F0010641
:10097000AE61AD6924F0030605F0010500953A4D1E
:1009800006EB050CDCF80850A607360F07FA06F848
:1009900025EA0805DFF8D480404503D14FF0000870
:1009A00025E052E0DFF8C880404502D14FF0010851
:1009B0001DE0DFF8C080404502D14FF0020816E08C
:1009C000DFF8B480404502D14FF003080FE0DFF8B4
:1009D000AC80404502D14FF0040808E0DFF8A08069
:1009E000404502D14FF0050801E04FF0060808FA33
:1009F00006F848EA0508CCF808804D68D9F8006088
:100A0000ED034D4601D5164300E096432E604D6838
:100A1000DAF80060AD03554601D5164300E0964371
:100A20002E604D68DBF80060ED025D4601D516438F
:100A300000E096432E604D68DEF80060AD0275461A
:100A400001D5164300E096432E60641C0A681646E2
:100A5000E2407FF429AFBDE8F88F000000040140B8
:100A60000000111000100240000001400008014089
:100A7000000C01400010014000140140001801402A
:100A8000001C01408068084000D0012070470AB176
:100A9000016170470904FBE7014880687047000066
:100AA0000400002002488168027811448160704788
:100AB00004000020074810B5016841F010010160F2
:100AC000032000F079F8032000F006F800F024F885
:100AD000002010BD0020024070B50D4D04464FF4BB
:100AE0007A712878B1FBF0F00A490968B1FBF0F09F
:100AF00000F0FCFA48B9102C07D200222146501E03
:100B000000F03AF800206C6070BD012070BD00005C
:100B100004000020000000200E4808B5816941F063
:100B200001018161816901F001010091C16941F018
:100B30008051C161C06900F080500090052000F034
:100B40003BF80548416821F0E06141F000714160E7
:100B500008BD00000010024000000140002809DB31
:100B600000F01F02012191404009800000F1E020C7
:100B7000C0F8001170470000F0B40E4B1B680C4623
:100B8000C3F30223C3F10705042D00D90425191D61
:100B9000072901D2002300E0DB1E012606FA05F139
:100BA000491E214099409E40761E16403143F0BCBC
:100BB00000F0D0BE0CED00E0064900F00702086826
:100BC0004FF6FF03184040EA0220034A1043086032
:100BD000704700000CED00E00000FA052DE9F04739
:100BE0000F46050061D0434E306800F00700B84260
:100BF00009D2306820F0070038433060306800F0D8
:100C00000700B84251D128683B4C810712D54007F4
:100C100003D5606840F4E06060602878000703D581
:100C2000606840F4605060606068A96820F0F0007F
:100C3000084360602878C00728D06868012810D071
:100C40002168022810D0890700292EDA616821F076
:100C5000030101436160FFF71FFF804641F28839BD
:100C60000DE021688903EFE78901EDE7FFF714FF45
:100C7000A0EB0801494502D90320BDE8F087606870
:100C8000696800F00C00B0EB810FEFD1306800F024
:100C90000700B8420BD9306820F0070038433060B5
:100CA000306800F00700B84201D00120E5E728785D
:100CB000400705D56068E96820F4E060084360609B
:100CC0002878000706D56068296920F4605040EA5A
:100CD000C100606000F038F86168084AC1F3031190
:100CE000515CC8400649086006480068FFF7F4FEFA
:100CF0000020C2E700200240001002401435000826
:100D000000000020080000200448054900684968E8
:100D1000044AC1F30221515CC84070470000002022
:100D2000001002402435000804480549006849685D
:100D3000044AC1F3C221515CC84070470000002042
:100D4000001002402435000812A185B00FC98DE8BB
:100D50000F0014A0144A006804905168134801F071
:100D60000C03042B10D0082B0ED1C1F38343C9030D
:100D70001DF803000AD5516804AAC1F34041515C33
:100D80000A4A5043B0FBF1F005B0704708494843A8
:100D9000FAE7000002030405060708090A0B0C0D18
:100DA0000E0F1010010200000010024000127A0025
:100DB00000093D002DE9F84F040070D02078C04DA7
:100DC000C00749D06868C0F38100012807D068686F
:100DD000C0F38100022809D16868C00306D52868DD
:100DE000800339D560680028E7D035E06068B0F549
:100DF000803F0BD010B1B0F5A02F11D0286820F49F
:100E000080302860286820F4802002E0286840F4C0
:100E100080302860606890B1FFF73EFE06460AE029
:100E2000286840F480202860F0E700BFFFF734FE18
:100E3000801B642873D828688003F7D50CE0FFF77F
:100E40002BFE064605E000BFFFF726FE801B642848
:100E5000F0D828688003F7D420789A4E80074FF0A6
:100E600001094FF0000839D5686810F00C0F07D061
:100E70006868C0F38100022809D16868C00306D4FD
:100E80002868800714D52069012808D110E020695E
:100E9000B0B1C6F80090FFF7FFFD074605E00AE194
:100EA000FFF7FAFDC01B0228C4D828688007F7D5D1
:100EB0002868616920F0F80040EAC10028600DE070
:100EC000C6F80080FFF7E8FD074604E0FFF7E4FD01
:100ED000C01B022823D828688007F7D42078000791
:100EE0002CD57948A169D9B1C0F80090FFF7D4FD9D
:100EF000074604E0FFF7D0FDC01B02280FD8686A40
:100F00008007F7D571484FF4FA510068B0FBF1F053
:100F1000009000BF0098411E0091FAD20EE080E0E0
:100F2000C0F80080FFF7B8FD074604E0FFF7B4FD06
:100F3000C01B022875D8686A8007F7D4207840075C
:100F400060D5E8690027C00008D4E86940F0805007
:100F5000E861E869012700F0805000905C48016872
:100F6000C90513D40168834641F480710160FFF71D
:100F700093FD824606E000BFFFF78EFDA0EB0A005E
:100F800064284ED8DBF80000C005F5D5E0680128DC
:100F90000AD008B1052813D0286A20F00100286281
:100FA000286A20F0040002E0286A40F0010028626C
:100FB000E06841F2883B98B1FFF76EFD82460BE096
:100FC000286A40F004002862EEE700BFFFF764FDE6
:100FD000A0EB0A0159455AD8286A8007F6D50CE0DB
:100FE000FFF75AFD824605E0FFF756FDA0EB0A0128
:100FF00059454CD8286A8007F6D41FB1E86920F01B
:101000008050E861E06988B36968C1F38101022911
:1010100044D00228C6F8608004D0FFF73DFD0446A6
:1010200038E034E0FFF738FD074604E0FFF734FD11
:10103000C01B02282BD828688001F7D4206AB0F59D
:10104000803F05D16868A16820F4003008436860DB
:10105000D4E908010843696821F474110843686001
:10106000C6F86090FFF718FD044606E025E000BFD3
:10107000FFF712FD001B022809D828688001F7D568
:101080001BE000BFFFF708FD001B022802D9032068
:10109000BDE8F88F28688001F4D40EE00128F7D06D
:1010A0006868226A00F48031914204D1616A00F4D8
:1010B0007010884201D00120EAE70020E8E7000034
:1010C0000010024000004242800442420000002022
:1010D000007000404FF0E0210428086903D020F0A0
:1010E00004000861704740F00400FAE710B5401EA4
:1010F000B0F1807F01D3012010BD4FF0E02460618A
:101100000F21601700F026FC0020A061072020615D
:10111000002010BD10B5040003D094F83D0010B1BC
:1011200007E0012010BD002084F83C00204600F0BC
:101130000CF8022084F83D00211D206800F064FABC
:10114000012084F83D00002010BD70470168CA6886
:1011500042F00102CA600068816801F007010629B7
:1011600003D0016841F00101016000207047704721
:1011700010F8391F407808437047000070B50268C6
:1011800004461068D168536910F00F0F51D003F076
:10119000010501F4907635435DD0C20705D0CA053C
:1011A00003D5E26B42F00102E263420705D5DA079C
:1011B00003D0E26B42F00202E263820705D5DA0750
:1011C00003D0E26B42F00402E263020705D5DA07BE
:1011D00003D0E26B42F00802E263E26B002A34D0F3
:1011E000800604D5880602D5204600F0B1FA2068B2
:1011F0004069E16BC0F3801001F008010143204613
:1012000024D000F097FA2068416949061AD541694F
:1012100021F040014161606BA0B11B494163606BEB
:10122000FFF79CFA002810D0606B416BBDE870405E
:10123000084783060FD58B060DD52046BDE87040C4
:1012400000F086BA2046FFF792FF70BDFFF78FFFD0
:101250000020E06370BD030606D50B0604D52046CA
:10126000BDE8704000F01CBB4006F3D54806F1D540
:10127000D168204621F04001D160202184F8391046
:1012800000F0D2F870BD00002517000870B504000A
:1012900004D094F83900002510B106E0012070BD9B
:1012A00084F83850204600F023F8242084F83900D0
:1012B0002068C16821F40051C160204600F094FA12
:1012C0002068016921F4904101612068416921F0A1
:1012D0002A0141612068C16841F40051C160E563A1
:1012E000202084F8390084F83A00002070BD000006
:1012F00010B500681E4986B0884236D11D48816904
:1013000041F004018161816901F004010491816966
:1013100041F480418161816901F4804104918169D6
:1013200041F0010181618069134C00F001000490DB
:101330004FF40070009002200190012002900320E1
:10134000039069462046FFF7A1FA2015009000207F
:10135000019069462046FFF799FA2520FFF7FEFB2A
:10136000032211462520FFF707FC06B010BD000040
:1013700000380140001002400008014090F83A3067
:10138000202B22D1F9B1F2B190F83830012B1CD0CA
:1013900081628285C2850021C163222280F83A20C1
:1013A00080F838100168CA6842F48072CA60016827
:1013B0004A6942F001024A610068C16841F02001B7
:1013C000C160002070470120704702207047000074
:1013D00030B50068114988420CD1114841880A048F
:1013E00008D402464C0412784FF0000306D50A2AAE
:1013F00001D0438030BD41F400410DE00D2A09D0F9
:10140000C1F30D04074D491C89B22A554180C729F3
:10141000EFD830BD41F48041418030BD00380140FB
:1014200020000020800100207047FEE72DE9F043F6
:1014300085B0002000900190029003902B488169B4
:1014400041F020018161816901F0200104918169ED
:1014500041F010018161816901F0100104918169FD
:1014600041F004018161816901F004010491816905
:1014700041F00801816180691D4F00F0080004906F
:10148000012204213846FFF702FBDFF868800022C2
:1014900010214046FFF7FBFADFF85C904FF44C66F2
:1014A000012231464846FFF7F2FA01240420CDE933
:1014B0000004032569463846CDE90245FFF7E6F901
:1014C0001020CDE900040220CDE9024069464046E3
:1014D000FFF7DCF901AA1120009682E83100694685
:1014E0004846FFF7D3F905B0BDE8F083001002408D
:1014F0000010014000080140000C0140034608466E
:1015000099B2C2F30722FFF7C2BA0346084699B25E
:10151000D2B2FFF7BCBA0246084691B2FFF7B2BAA0
:10152000FEE7FEE770477047FFF7BCBA30B58FB0F3
:1015300028216846FEF72FFE14210AA8FEF72BFE8D
:1015400001210804CDE90010002402940225049131
:10155000CDE907504FF4E01009906846FFF72AFCE8
:1015600008B172B6FEE70F20CDE90A054FF480609E
:10157000CDE90C4002210AA80E94FFF72FFB0028AA
:1015800001D072B6FEE70FB030BD00000D48016813
:1015900041F00101016041680B4A1140416001685E
:1015A0000A4A11400160016821F48021016041680C
:1015B00021F4FE0141604FF41F0181600449C00322
:1015C00008607047001002400000FFF8FFFFF6FEC1
:1015D00008ED00E010B50A4C2068C068C043C007A1
:1015E00009D10848006980472168002048622168C5
:1015F0006420C862E06021686FF00100086110BDDE
:10160000880200206C000020F0B502681C4B1D4DC4
:101610001D4E1E4F1E4C4FF0804C984209D0A042E8
:1016200007D0604505D0A84203D0B04201D0B842EF
:1016300004D122F0700E4A6842EA0E02984209D0A4
:10164000A04207D0604505D0A84203D0B04201D0E7
:10165000B84203D122F44075CA682A434D6922F08A
:1016600080022A4302608A68C2620A6882629842E3
:1016700001D0A04201D10969016301214161F0BD9E
:10168000002C01400004004000080040000C004015
:101690000034014038B5114A05460C46D06940F087
:1016A0000400D061D069032200F0040000901146CC
:1016B0001E20FFF761FA1E20FFF750FA094A08487A
:1016C000C2E900040020C2E9020510611046FFF7DC
:1016D00021FDBDE838400348FFF738BD0010024047
:1016E000000800408802002010B5482000F038FEB5
:1016F0004FF4E13000F068FF542001F0B5FABDE886
:10170000104001A000F016B9287965732920D4DAB9
:10171000D3C3D5FDB5E3D4ADD7D3B5C4BAAFCAFDF5
:101720002E0D0A0010B5406A0021C185C184FFF763
:101730001EFD10BD0168CA6822F49072CA6001687B
:101740004A6922F001024A61202180F83A1070476C
:1017500010B590F83A10222901D0022010BD8168FE
:10176000B1F5805F11D00169002901681FD0496877
:1017700001F07F03816A4A1C82620B70C18D491E91
:101780000904090CC18518D02BE00269816A002A7E
:101790000268526805D0D2B20A80816A491C81620F
:1017A000ECE7C2F308020A80816A891CF7E74A68FD
:1017B000816A4B1C83620A70E0E70168CA6822F004
:1017C0002002CA600168CA6822F48072CA60016897
:1017D0004A6922F001024A61202180F83A10FFF79D
:1017E000F7FD002010BD00002DE9F041044600681F
:1017F0000169E26821F44051114301612169A06847
:101800000843616908432168CA6841F20C639A433E
:101810000243CA6020684169A26921F44071114302
:1018200041611E49206864253226884202D1FFF7B3
:101830007BFA01E0FFF768FA00EBC00101EB001151
:1018400060686FF018078000B1FBF0F2B2FBF5F2B0
:10185000B1FBF0F37A4303EB8202B1FBF0F306EB4A
:101860000212B2FBF5F2B3FBF5F302F0F00202EB69
:101870000312B1FBF0F3B1FBF0F0B0FBF5F07843ED
:1018800003EB800006EB0010B0FBF5F0216800F0E0
:101890000F0010448860BDE8F0810000003801406E
:1018A00090F83910212901D0022070478168B1F5E4
:1018B000805F016A0BD04A1C02620268097851609D
:1018C000C18C491E0904090CC1840ED017E0098897
:1018D0000268C1F30801516001690029016A02D060
:1018E000491C0162ECE7891CFBE70168CA6822F029
:1018F0008002CA600068C16841F04001C1600020F8
:101900007047000010B50848FFF738FC0648FFF79D
:101910002FFC2028FAD1012204490348FFF72EFDAD
:101920000028F8D110BD000048020020200000204F
:10193000FEE700000FB4054B10B503A9044A029856
:1019400000F0EAF810BC5DF814FB0000C5230008A5
:10195000240000200907090E002804DB00F1E02024
:1019600080F80014704700F00F0000F1E02080F8CC
:10197000141D704702E008C8121F08C1002AFAD1DE
:1019800070477047002001E001C1121F002AFBD1FF
:10199000704700002DE9FF5F82B00021DDE90430CF
:1019A000020DDDF840B0034318D044F61050A2F207
:1019B000FF3242431514119801281FD0A5EB0B00EC
:1019C000401C5FEA000A4FF000064E4FDFF83891E6
:1019D000B046504615D5CAF1000413E01198012411
:1019E0004AA3012801D16FEA0B010298119AC0E9BC
:1019F0000031C0E9024206B0BDE8F09FCBF1000023
:101A0000DFE704460021404A491842EB0450CDE983
:101A1000001012E0E00707D032463B4640464946F8
:101A2000FEF76BFC8046894632463B461046194617
:101A3000FEF763FC06460F466410002CEAD1DDE990
:101A40000401DDE90023BAF1000F06DAFEF755FCC8
:101A500042464B46FEF751FC05E0FEF785FD424647
:101A60004B46FEF781FD04460E460022284BFEF74A
:101A700003FE03D84FF0FF30014607E00022254B5C
:101A800020463146FEF792FBFEF7DDFD102409E00B
:101A9000002C0ADB0A220023FEF7B7FC039B30323E
:101AA0001A55641E50EA0102F2D1641C039AC4F173
:101AB00011031444119A012A03D0012208430DD1C5
:101AC0000AE0084304D000204FF0110B119072E798
:101AD000A3EB0B056D1E0DE05B4504DD4FF000022E
:101AE00005F1010504E003DA4FF00002A5F101055C
:101AF000002AECD002981199C0E90231C0E90045F2
:101B000079E70000000014400000F03F30000000C2
:101B10000000F0430000E03F2DE9FF4F95B09B46E9
:101B20008946064600250FE2252877D1002427465E
:101B3000F84A0121059400E0044316F8013F203BD8
:101B400001FA03F01042F7D130782A2811D06FF053
:101B50002F033078A0F13002092A16D8059A44F0F4
:101B6000020402EB820203EB42021044761C059051
:101B7000EFE759F8042B0592002A03DA504244F4A7
:101B80000054059044F00204761C30782E2816D1BB
:101B900016F8010F44F004042A280DD06FF02F022C
:101BA0003078A0F13003092B09D807EB870302EB4B
:101BB0004303C718761CF3E759F8047B761C30788A
:101BC0006C280FD006DC4C2817D068280DD06A2866
:101BD00014D104E0742810D07A280FD10DE044F419
:101BE00000140AE044F4801401E044F440147278D4
:101BF000824202D104F58014761C761C3078662867
:101C00000BD013DC582877D009DC002875D0452884
:101C1000F6D04628F4D047281AD19DE118E0632871
:101C200035D0642879D0652812D195E1702873D019
:101C300008DC6728F1D069286FD06E280DD06F2896
:101C400006D1B5E073282CD0752875D0782874D0CB
:101C50005A46179990476D1C75E1C4F3025002284B
:101C600009D003280DD0D9F8001004280DD00D603C
:101C700009F1040967E1D9F80010EA17C1E9005237
:101C8000F6E7D9F800100D80F2E70D70F0E719F8CB
:101C9000041B8DF8001000208DF80100EA46012099
:101CA00003E059F804AB4FF0FF3061074FF000013B
:101CB00002D40DE008F101018846B9420FDA8045EF
:101CC000F8DB1AF808100029F4D108E008F1010146
:101CD00088468142FADB1AF808100029F6D10598E7
:101CE0005B46A0EB080721463846179A00F094FAA5
:101CF000284400EB080507E04DE029E10DE01AF863
:101D0000010B5A4617999047B8F10108F7D25B4684
:101D100021463846179A13E142E00A220092C4F3A2
:101D200002524FF0000A022A08D059F804CB032AC5
:101D30004FEAEC710AD00DE029E02AE009F1070131
:101D400021F00702F2E802C1914609E00FFA8CFC8B
:101D50004FEAEC71042A03D14FFA8CFC4FEAEC7184
:101D6000002907DA0A460021DCF1000C61EB0201D0
:101D70002D2202E0220504D52B228DF80420012219
:101D800003E0E20701D02022F7E7904659E00A215C
:101D900002E010220DE010214FF0000A00910BE04C
:101DA00010224FF0000A44F004040827009203E0D8
:101DB00008224FF0000A0092C4F30252022A05D012
:101DC00059F804CB0021032A08D009E009F10701E2
:101DD00021F00702F2E802C1914605E01FFA8CFCEF
:101DE000042A01D10CF0FF0C4FF00008220728D57F
:101DF000702806D0009B83F0100353EA0A0305D035
:101E00000EE040228DF80420012208E05CEA010285
:101E100006D030228DF804208DF80500022290466D
:101E2000009B83F0080353EA0A030AD15CEA01022B
:101E300001D1620705D530228DF804204FF001084A
:101E40007F1E582804D034A003900EA802900DE005
:101E500036A0F9E753466046009AFEF7D6FA844664
:101E60000398825C0298401E029002705CEA0100B6
:101E7000F0D1029806A9081A00F1200A600702D5DD
:101E800024F4803400E00127574502DDA7EB0A0067
:101E900000E0002000EB0A01009005984144401A40
:101EA0000590E00306D45B462146179A059800F09A
:101EB000B3F90544002706E001A85A46C05D17990A
:101EC00090476D1C7F1C4745F6DBE0030CD55B4655
:101ED0002146179A059800F09FF9054404E0302048
:101EE0005A46179990476D1C0099481E009000298A
:101EF000F5DC08E0029802995A460078491C0291E4
:101F0000179990476D1CBAF10001AAF1010AF1DCA2
:101F100065E10000092801003031323334353637AD
:101F20003839616263646566000000003031323325
:101F300034353637383941424344454600000000C5
:101F400000F058F90544761C307800287FF4ECAD99
:101F500019B02846BDE8F08F620700D4062709F1C2
:101F6000070222F0070CFCE80223E14603F00048D8
:101F70005FEA080C02D00FF2702C0DE05FEA045CFF
:101F800002D50FF2682C07E05FEAC47C02D00FF2A2
:101F9000602C01E0AFF2700C4FF0FF3823F00043EB
:101FA000CDF850C065280CD006DC452809D046285D
:101FB0001DD047283DD13DE0662818D067287ED146
:101FC00038E00021112F01DB112000E0781CCDE961
:101FD000000106A90EA8FFF7DDFCDDE90F010E9A4E
:101FE00003910021009207F1010A04914DE04FF0A6
:101FF00000400097CDE9011006A90EA8FFF7CAFC22
:10200000DDE90F0203920E9B11990022DDF80CA06E
:102010000093049211B9791C00EB010AB7EB0A0096
:1020200004D4C0F1FF3007F1010A0490AAEB0700C5
:10203000019044E0012F00DA01270021112F01DD7A
:10204000112000E03846CDE9000106A90EA8FFF7EF
:10205000A1FCDDE90F010E9A039100210491009289
:10206000BA4621070CD40399514500DA8A46BAF1E1
:10207000010F05DD009AAAF10101515C302908D059
:10208000B84202DA10F1040F06DA0121CDE901109D
:1020900015E0AAF10101E9E7002805DC04990144F3
:1020A0000491AAEB000102E0411C514500DD8A4683
:1020B0000499401A401C01904FF000400290200704
:1020C00004D40198504501DBCDF8048000208DF840
:1020D0004F0002980DF14F07B0F1004F25D02B2093
:1020E0000E9002984FF0020800280CDA404202904D
:1020F0002D200E9007E00A210298FEF770F930318A
:10210000029007F8011DB8F10001A8F10108F2DC06
:1021100002980028EFD1791E0E980870307800F0F0
:10212000200040F0450007F8020D12A8C01B00F186
:1021300007081498007800B1012000EB0A0101980B
:1021400001EBE07105984144401A401E0590E00300
:1021500006D45B462146179A059800F05DF80544C1
:102160001498007818B15A46179990476D1CE003EF
:1021700024D55B462146179A059800F04DF8054492
:102180001CE00498002807DBDDE90301884203DD39
:102190000098405C179901E0179930205A46904703
:1021A000049805F10105401C04900198401E01901F
:1021B00004D12E205A46179990476D1CBAF10001A0
:1021C000AAF1010ADDDC05E017F8010B5A46179960
:1021D00090476D1CB8F10001A8F10108F4DC5B46E2
:1021E0002146179A0598ABE62D0000002B00000051
:1021F000200000002DE9F041044600251E46174648
:10220000880404D405E039462020B0476D1C641EC4
:10221000F9D52846BDE8F0812DE9F04104460025B6
:102220001E469046C80301D5302700E020278804C9
:1022300004D505E041463846B0476D1C641EF9D50B
:102240002846BDE8F08100002DE9F04100241F4D33
:102250000327002000F074F90646024621461CA020
:10226000FFF768FBE0070BD120A0FFF763FB4FF4FB
:102270000061002000F08EF9286020A0FFF75AFBD3
:1022800094FBF7F007FB104048B920A0FFF752FB82
:102290000020296800F072F920A0FFF74BFB642EA4
:1022A00010D022A02968FFF745FB24A02968FFF77A
:1022B00041FB0A2000F05EF8641CB4F57A7FC8DBAD
:1022C000BDE8F08120A0FFF735FBFEE760010020AC
:1022D000D0F2BAC53A205B25645D2C20CAB9D3C3BD
:1022E000C2CA3A20253033640D0A0000B3A2CAD412
:1022F000C9EAC7EB324B422E2E2E20005BC9EAC73B
:10230000EBB3C9B9A65D0D0A00000000B3A2CAD4A0
:10231000CACDB7C5324B422E2E2E20005BCACDB798
:10232000C5B3C9B9A65D0D0A000000005020416484
:1023300064723A3058253038580D0A005020436FE7
:102340006E743A25730D0A00C4DAB4E6C2FAC1CB42
:102350002C20C7BFD6C6CDA3D6B9210D0A000000D8
:1023600010B504460420FEF7B5FE0148046010BD18
:102370001C00002070B5054600244FF47A7603E077
:10238000304600F005F8641CAC42F9D370BD000083
:1023900070B54FF0E024002265690949A369096816
:1023A0004843A1699942FCD002D2A3EB010302E0A9
:1023B000A5EB010633441A440B468242F1D370BDAB
:1023C0001C00002004490A685206FCD5024AC1B22A
:1023D000121D11607047000000380140FEF76AFBD3
:1023E000FFF7A4F8FFF722F8FEF79CF9FEE70000DC
:1023F00010B5094C94E80700FFF78DF8217A884260
:1024000094E8070003D1BDE81040FFF777B8BDE8B6
:102410001040FFF77AB800001000002070B5134A92
:1024200013181B7E93B1124B53F820308B421AD9EC
:102430000F4B083B53F82030B1FBF3F102EB800364
:10244000186930F811200020044608E01168884718
:10245000012070BD1D690E18401C25F816409042E1
:10246000F8DB002070BD022070BD00006401002078
:102470003C35000870B504460B480C4E002150F85E
:10248000240006EB84054200286900F093F8064812
:102490000021103050F82420A86800F08BF80120AB
:1024A0003119087670BD00002C3500086401002049
:1024B0002DE9F041204E0446002530190F46007EDC
:1024C00010B93168204688474FF0FF327FB31B4B6D
:1024D00053F82410B7FBF1F0B7FBF1FC01FB1C71C2
:1024E00001B1401C1549083951F82410491E21D466
:1024F00006EB8406D6F8107037F811C0BCF1000F57
:1025000005D00025854213D1002285B208E06D1C5C
:10251000F8E700BF376901EB020C521C27F81C508A
:102520008242F7D353F824004843BDE8F08101E02C
:10253000491EE1D51046F8E7640100203435000853
:1025400010B50B4B0B4C002253F82030114604EB16
:10255000800005E0046934F8114004B1521C491CA4
:102560008B42F7D864204243B2FBF3F0C0B210BDF7
:102570002C35000864010020FFF766BE002906D054
:10258000034A02EB80029268891AFFF747BF70473F
:102590006401002010B50446FFF78AFF411C05D0F6
:1025A000034901EB84018968084410BD002010BD77
:1025B0006401002002E000BF00F8011B521EFBD2A4
:1025C00070470068704700000C4910B50A4AC1E91D
:1025D000002000208860C8600C220861C1E9052045
:1025E000C8610846FEF752FEBDE8104001220449CA
:1025F0000248FEF7C3BE0000003801404802002038
:102600002000002070B596B0054614AB01AA03A9BE
:1026100000F0DEF9002824D18DF84C001D4C042672
:1026200015E000BF216806EBC00014AB08586A46ED
:102630000BA900F0CDF9002813D103A90BA800F0D5
:1026400008FC80B19DF84C00401C8DF84C00217DA9
:10265000C0B28142E6D8207D9DF84C1088420ED150
:10266000042016B070BD9DF800009DF8041088424B
:1026700001D90220F5E79DF84C00A075EBE713A9FE
:10268000284600F05DFA0028EBD19DF84C006075FB
:102690000020E6E76C0000202DE9F0417F4C9AB065
:1026A000A57D207DA8427DD90421206801EBC501CC
:1026B00019AB405810AA11A900F08AF911A978A005
:1026C000FFF738F900270DF1180833E0208B0121BE
:1026D000B940084217D0222173A0FFF72BF93846E2
:1026E00000F098FA011971A02431FFF723F9222193
:1026F0006DA0FFF71FF9384600F08CFA2044243013
:1027000048F827000CE0384600F084FA2044416A7B
:1027100048F82710E07D08B365A000BFFFF70AF96D
:102720009DF84000401E874202D063A0FFF702F9E7
:102730007F1CFFB29DF840008742C7D35FA0FFF720
:10274000F9F800F0ADFA607D0B2814D2DFE800F054
:10275000080D31384048525E6B78880058A0DDE79C
:10276000206850F83500804704E0206850F83510A4
:1027700006988847064600F05FFA9DF86400012835
:102780007DD050A0FFF7D6F894F8EC0000280DD0CB
:10279000D4F8F0100A20B1FBF0F200FB1212B1FBEA
:1027A000F0F100E002E048A0FFF7C4F81AB0BDE87D
:1027B000F081206850F83520DDE906019047D9E71F
:1027C000206806AE50F8353096E807009847D1E704
:1027D000206806AE50F8355096E80F00A847C9E7C4
:1027E0000A980090206806AE50F8355096E80F0021
:1027F000A847BFE7DDE90A01CDE90001206806AE80
:1028000050F8355096E80F00A847B3E70AAB06AE7C
:1028100093E807008DE80700206850F8355096E8E7
:102820000F00A847A6E70AAE96E80F008DE80F0054
:10283000206806AE50F8355096E80F00A84799E793
:102840000BAE96E80F0001AE86E80F000A980090E4
:10285000206806AE50F8355096E80F00A84789E783
:102860000CAE96E80F0002AE86E80F00DDE90A0123
:10287000CDE90001206806AE50F8355000E003E0D5
:1028800096E80F00A84775E7E07D314618B116A01D
:10289000FFF750F878E717A0FAE700006C00002077
:1028A0000D0A257328000000256300002573000031
:1028B00030582558000000002C00000029000000BE
:1028C000256C64003B0D0A0046756E6374696F6E7B
:1028D0002052756E2054696D653A25642E25316449
:1028E0006D730D0A000000003D305825583B0D0A5D
:1028F000000000003D256C753B0D0A00F0B5044654
:10290000002007460646054623782C2B03D0292BAA
:1029100004D01BB103E015B9012700E015B31EB1C7
:10292000222B2BD0F7B92FE0A3F1300CBCF1090F0B
:1029300019D92D2B17D02B2B15D0A3F1610CBCF17D
:10294000050F10D9A3F1410CBCF1050F0BD9582B81
:1029500009D0782B07D0222B0CD0202B1DD02C2B6C
:102960001BD0FF260CE05FB9612B00D3203B01F8A0
:10297000013B12E027B9012635460EE0002567B17C
:1029800000230B701670F0BD3DB15C2B02D1401CD2
:10299000C0B2641C237801F8013B401CC0B2641C27
:1029A000B2E730B5002515700AE001F8014B147844
:1029B000401C641CE4B214709C4201D3012030BD61
:1029C0000478202C01D0002CEFD10D70002030BDF8
:1029D0002DE9FF4F002582B0984604462F462E462B
:1029E0004FF0010BAA462A46A94615E0202910D02F
:1029F00002F07F03052B0CD202B9802202F07F0384
:102A0000042B01D12A290AD1521C0DF80310D2B28D
:102A100001E0852A04D0401C01780029E6D162B18A
:102A200002F07F0244A10DF80290684600F011FA0E
:102A300038B1012188F8001000224FF00008234629
:102A400014E088F80090F7E708F1010000F0FF08B3
:102A500013F8010F202801D02A2807D1184600F0CA
:102A600085F9282802D02A2800D047461878282837
:102A700001D00028E8D10FB13C44641C002739463E
:102A8000207888B1282804D0292806D022280FD001
:102A900010E079B96D1CEDB20CE059B925B16D1E8D
:102AA00015F0FF0501D00CE00127012E32D039E0EE
:102AB00049B100214DB12C280FD020281FD0282843
:102AC0001DD07AB117E00121F4E7202820D0039B24
:102AD00018700398401C03901AE0521C4FF0010B31
:102AE000D2B20CE0BAF1050F05D20DF80A000AF1D6
:102AF000010000F0FF0A0BF1010000F0FF0B012DB7
:102B000006D1BBF1020F03D1761C4FF0030BF6B2D6
:102B1000641CB5E70DF80A9007A1684600F099F922
:102B200000B9002604980670039880F8009006B05B
:102B30003846BDE8F08F0000766F69640000000041
:102B40002DE9F04300248946314DB5B02146224697
:102B50006B18491CC9B29A760A29F9D303E000BF61
:102B600010F8011F91B101782829F9D1461C0127DD
:102B700033AA69463046FFF7C1FE06449DF8CC00F3
:102B800040B1012824D0FF2839D10BE0012035B015
:102B9000BDE8F0839DF8000080B334A9684600F0DA
:102BA000EDF808B10220F2E7204600F033F828449F
:102BB00034994162288B07FA04F188432883042062
:102BC00029198876641CE4B20A2C18D90320DEE7A0
:102BD000684600F053F900F10108204600F01AF8A9
:102BE00041196846243100F040F9288B07FA04F1B6
:102BF00008432919288381F81A80E3E7FFE7307832
:102C0000292801D00028B3D189F800400020BEE770
:102C10006C000020024610B500200146054B05E07F
:102C20005C18491CA47EC9B22044C0B29142F7D3BB
:102C300010BD00006C000020094800680169C9430C
:102C4000CA070849D1F8F02004D14FF6FF731A449F
:102C5000C1F8F020406A1044C1F8F000704700004D
:102C6000880200206C00002000EBC00101EB001086
:102C70004FF0FF3101EB800010B581B24FF47A7054
:102C8000FEF708FD01490120C87510BD6C00002049
:102C90000246012000E05043491EC9B2FBD27047F2
:102CA00007486FF00101026811610268090CD162E6
:102CB000C1600068002141620248C0F8F01070470E
:102CC000880200206C0000202DE9F041164D288874
:102CD000010426D51549C0B2154F00260E54B96817
:102CE0001248884704000FD0104800F0D1F801289E
:102CF00001D0040014D0012C09D0022C09D0032CDF
:102D000009D0042C0CD108E0F868804708E009A03D
:102D100004E00BA002E00DA000E00FA0FEF70AFE09
:102D20002E80BDE8F08100002200002080010020FC
:102D30006C000020BAAFCAFDB4EDCEF3210D0A003D
:102D4000B2CECAFDB4EDCEF3210D0A00B2CECAFD5B
:102D5000CCABB6E0210D0A00CEB4D5D2B5BDC6A528
:102D6000C5E4B5C4BAAFCAFD210D0A0010F8011FB1
:102D7000202901D10028F9D1C8B270472DE9F043CC
:102D80000D4600244FF00A09264601462C600A78B9
:102D9000A2F13003092B14D903782D2B01D02B2B52
:102DA00000D174B1A2F14103052B0AD9582A05D0EC
:102DB00012F0FF0F17D00120BDE8F083012C02D0E4
:102DC000F9E7412A01D34FF0100902782D2A04D0E7
:102DD0002B2A04D0641CE4B203E0022600E00126A2
:102DE000401C491CD3E70746B9F1100F01D084B14C
:102DF00012E0032C01D20220DEE73878302802D11D
:102E00007878582801D00320D6E7A41EE4B2BF1C6E
:102E100001E00420D0E70CB1641EE4B23878A0F1E0
:102E20003001092901D8884601E0A0F13708214680
:102E30004846FFF72DFF2A6808FB0020286017F896
:102E4000011F0029E7D1022E01D140422860002055
:102E5000B2E702780B789A4201D00120704712B194
:102E6000401C491CF5E70020704702780A70027880
:102E7000002A02D0401C491CF7E770470021027865
:102E80001AB1491CC9B2401CF9E708467047000056
:102E9000F0B58DB004461E236A4602A9FFF781FDF6
:102EA0000190002872D19DF80000271800263E4CA2
:102EB0008DF800609DF8000054F8201002A8FFF77C
:102EC000C8FF38B19DF80000401CC0B28DF800006A
:102ED0000728EFD39DF800000425344C072855D26D
:102EE000DFE800F00404395A605F5E0030A0FEF7AE
:102EF00021FD30A0FEF71EFD3EA0FEF71BFD4DA0FC
:102F0000FEF718FD5BA0FEF715FD6AA0FEF712FDA7
:102F100078A0FEF70FFD86A0FEF70CFD8BA0FEF754
:102F200009FD93A0FEF706FD97A0FEF703FD9CA008
:102F3000FEF700FDA1A0FEF7FDFCA7A0FEF7FAFC3E
:102F4000B3A0FEF7F7FCC0A0FEF7F4FCCBA0FEF7A1
:102F5000F1FCD7A01BE016A0FEF7ECFCE4A0FEF706
:102F6000E9FC8DF800600BE0216805EBC000095812
:102F7000EFA0FEF7DFFC9DF80000401C8DF800007C
:102F8000217D9DF800008142EED856E257E2FEF71F
:102F9000D1FC00200DB0F0BD05A0FEF7CBFCCBE1CD
:102FA0002CE20CE2EBE10000280000206C00002085
:102FB0000D0A00002D2D2D2D2D2D2D2D2D2D2D2DDE
:102FC0002D2D2D2D2D2D2D2D2D2D2D2D55534D41AF
:102FD00052542056332E332D2D2D2D2D2D2D2D2DAC
:102FE0002D2D2D2D2D2D2D2D2D2D2D2D2D2D2D201E
:102FF0000D0A00002020202055534D415254CAC7CD
:10300000D3C9414C49454E54454BBFAAB7A2B5C49C
:10301000D2BBB8F6C1E9C7C9B5C4B4AEBFDAB5F71B
:10302000CAD4BBA5BDBBD7E9BCFE2CCDA8B9FD2039
:103030000D0A0000CBFC2CC4E3BFC9D2D4CDA8B983
:10304000FDB4AEBFDAD6FACAD6B5F7D3C3B3CCD087
:10305000F2C0EFC3E6B5C4C8CEBACEBAAFCAFD2C33
:10306000B2A2D6B4D0D02ED2F2B4CB2CC4E3BFC916
:103070000D0A0000D2D4CBE6D2E2B8FCB8C4BAAF95
:10308000CAFDB5C4CAE4C8EBB2CECAFD28D6A7B300
:10309000D6CAFDD7D62831302F3136BDF8D6C62C4A
:1030A000D6A7B3D6B8BACAFD29A1A2D7D6B7FBB462
:1030B000AE0D0A00A1A2BAAFCAFDC8EBBFDAB5D8FF
:1030C000D6B7B5C8D7F7CEAAB2CECAFD292CB5A5BA
:1030D000B8F6BAAFCAFDD7EEB6E0D6A7B3D6313050
:1030E000B8F6CAE4C8EBB2CECAFD2CB2A2D6A7B3DA
:1030F000D60D0A00BAAFCAFDB7B5BBD8D6B5CFD486
:10310000CABE2ED6A7B3D6B2CECAFDCFD4CABEBDD4
:10311000F8D6C6C9E8D6C3B9A6C4DC2CD6A7B3D6A0
:10312000BDF8D6C6D7AABBBBB9A6C4DC2E0D0A0013
:10313000BCBCCAF5D6A7B3D63A7777772E6F706541
:103140006E6564762E636F6D0D0A000055534D4118
:103150005254D3D037B8F6CFB5CDB3C3FCC1EE28A7
:10316000B1D8D0EBD0A1D0B4293A0D0A00000000AC
:103170003F3A202020202020BBF1C8A1B0EFD6FA92
:10318000D0C5CFA20D0A000068656C703A202020DF
:10319000BBF1C8A1B0EFD6FAD0C5CFA20D0A00008E
:1031A0006C6973743A202020BFC9D3C3B5C4BAAFC9
:1031B000CAFDC1D0B1ED0D0A0A00000069643A20D1
:1031C00020202020BFC9D3C3BAAFCAFDB5C449442B
:1031D000C1D0B1ED0D0A0A006865783A20202020A0
:1031E000B2CECAFD3136BDF8D6C6CFD4CABE2CBACF
:1031F000F3B8FABFD5B8F12BCAFDD7D6BCB4D6B454
:10320000D0D0BDF8D6C6D7AABBBB0D0A0A000000B5
:103210006465633A20202020B2CECAFD3130BDF86B
:10322000D6C6CFD4CABE2CBAF3B8FABFD5B8F12BE4
:10323000CAFDD7D6BCB4D6B4D0D0BDF8D6C6D7AAAE
:10324000BBBB0D0A0A00000072756E74696D653AA9
:10325000312CBFAAC6F4BAAFCAFDD4CBD0D0BCC6FD
:10326000CAB13B302CB9D8B1D5BAAFCAFDD4CBD096
:10327000D0BCC6CAB13B0D0A0A000000C7EBB0B40F
:10328000D5D5B3CCD0F2B1E0D0B4B8F1CABDCAE460
:10329000C8EBBAAFCAFDC3FBBCB0B2CECAFDB2A286
:1032A000D2D4BBD8B3B5BCFCBDE1CAF82E0D0A0020
:1032B0002D2D2D2D2D2D2D2D2D2D2D2D2D2D2D2D3E
:1032C0002D2D2D2D2D2D2D2D2D2D414C49454E547F
:1032D000454B2D2D2D2D2D2D2D2D2D2D2D2D2D2DE8
:1032E0002D2D2D2D2D2D2D2D2D2D2D200D0A0000B8
:1032F0002D2D2D2D2D2D2D2D2D2D2D2D2D2D2D2DFE
:103300002D2D2D2D2D2D2D2D2DBAAFCAFDC7E5B597
:10331000A52D2D2D2D2D2D2D2D2D2D2D2D2D2D2D65
:103320002D2D2D2D2D2D2D2D2D2D2D2D200D0A004A
:1033300025730D0A0000000042A0FEF7FBFA8DF88D
:10334000006016E0216805EBC0000BAB08580AAA24
:1033500002A9FFF73DFB9DF80010206850F83120CE
:1033600002A948A0FEF7E6FA9DF80000401C8DF87F
:103370000000217D9DF800008142E3D85DE0AFF2BE
:10338000D030FEF7D7FA6A4602A93846FFF7B6FAF8
:103390009DF80000002843D101A902A8FFF7EEFC28
:1033A0008DF8000010B104283AD102E03AA001994A
:1033B0001CE03CA0FEF7BEFA0120E0753DE038A01D
:1033C000FEF7B8FA6A4602A93846FFF797FA9DF861
:1033D000000028BB01A902A8FFF7D0FC8DF800006F
:1033E00010B104281CD104E033A00199FEF7A2FA21
:1033F00023E034A0FEF79EFAE6751EE028A0FEF753
:1034000099FA6A4602A93846FFF778FA9DF8000053
:1034100030B901A902A8FFF7B1FC8DF8000008B18E
:103420000220B7E5019810F0FF0084F8EC0001D00D
:1034300029A000E02FA0FEF77DFA19A0A7E5012042
:10344000A8E500002D2D2D2D2D2D2D2D2D2D2D2DD3
:103450002D2D2D2D2D2D2D2D2D2D2D2D2DBAAFCAF0
:10346000FD204944202D2D2D2D2D2D2D2D2D2D2DA3
:103470002D2D2D2D2D2D2D2D2D2D2D2D2D2D2D2D7C
:10348000200D0A0025732069642069733A0D0A3003
:1034900058253038580D0A004845583A30582558B4
:1034A0000D0A00003136BDF8D6C6B2CECAFDCFD463
:1034B000CABE210D0A0000004445433A256C750D33
:1034C0000A0000003130BDF8D6C6B2CECAFDCFD456
:1034D000CABE210D0A00000052756E2054696D6548
:1034E0002043616C63756C6174696F6E204F4E0D83
:1034F0000A00000052756E2054696D652043616CAE
:1035000063756C6174696F6E204F46460D0A00004A
:103510000160704700000000000000000102030489
:10352000060708090000000001020304000500006E
:1035300001000000200000002000000000A00000AA
:10354000200000003F000000646563006964000023
:1035500072756E74696D650068656C7000000000BE
:103560006C6973740000000068657800766F6964A8
:10357000206D795F6770696F5F73656C665F7465F6
:10358000737428766F69642900000000766F69649F
:103590002077726974655F616464722875333220C4
:1035A000616464722C7533322076616C29000000EE
:1035B00075333220726561645F61646472287533AB
:1035C0003220616464722900766F69642064656CDE
:1035D00061795F6D7328753136206E6D7329000037
:1035E000766F69642064656C61795F7573287533E3
:1035F00032206E7573290000183600080000002084
:1036000080010000CC0600088C36000880010020F4
:1036100060B0000084190008111324F43201721004
:1036200042043C10014015B11344351B0858041ADC
:1036300060041A4C041A68041A48041A500413C38C
:10364000251B08B0081A11041A8C041375231B08D3
:10365000C8081A91081AE0081AF1081A6C082244DE
:103660001420692C140805261B0899042AC90C216A
:10367000D96A01D2137524140841251408E00232D6
:0C368000201468E0A21A20094268000033
:0400000508000131BD
:00000001FF
