:020000040800F2
:10000000101000203D020008DF2D0008FB2700082B
:10001000DD2D0008FF1A000829310008000000004B
:10002000000000000000000000000000892E000811
:10003000691B000800000000F52D00088B2E000849
:10004000570200085702000857020008570200082C
:10005000570200085702000857020008570200081C
:10006000570200085702000857020008570200080C
:1000700057020008570200085702000857020008FC
:1000800057020008570200085702000857020008EC
:1000900057020008570200085702000857020008DC
:1000A00057020008570200085702000857020008CC
:1000B00057020008570200085702000857020008BC
:1000C00057020008570200085702000857020008AC
:1000D00057020008153100085702000857020008AF
:1000E000570200085702000857020008570200088C
:1000F000570200085702000857020008570200087C
:10010000570200085702000857020008570200086B
:10011000570200085702000857020008570200085B
:10012000570200085702000857020008570200084B
:1001300000F002F800F073F80AA090E8000C824486
:100140008344AAF10107DA4501D100F068F8AFF263
:10015000090EBAE80F0013F0010F18BFFB1A43F0A5
:1001600001031847D0540000F0540000103A24BF97
:1001700078C878C1FAD8520724BF30C830C144BF0C
:1001800004680C607047000000230024002500264E
:10019000103A28BF78C1FBD8520728BF30C148BFEA
:1001A0000B607047662905F09C80652905F09980F1
:1001B000672905F09680612905F09580692900F08E
:1001C000E780642900F0E480752900F0E1806F2960
:1001D00000F07881782900F09F810368DB0928BF4F
:1001E00041F08001632900F04087732900F04587C2
:1001F000E32900F06387002070471FB500F092FFED
:1002000004000020002104F089F8401C60600020F8
:10021000002104F06DF8E0601FBD10B510BD01F0C5
:1002200085F81146FFF7E9FF03F0AAFF01F0A3F8F4
:1002300003B4FFF7F2FF03BC03F00BF80948804753
:1002400009480047FEE7FEE7FEE7FEE7FEE7FEE7B8
:10025000FEE7FEE7FEE7FEE704480549054A064BD0
:1002600070470000ED2E000831010008100A002040
:1002700010100020100C0020100C0020704700000F
:100280000FB4044910B503AA029800F0FBFE10BC9D
:100290005DF814FB340000200FB41CB50C0007AA55
:1002A000009001D02044401E074B7B4469460190DA
:1002B000069800F0B0FE002C03D06946002000F044
:1002C000BDFE1CBC5DF814FB990D000070B5044622
:1002D00085690068C10601D5302600E02026C007E8
:1002E00007D070BDD4E9012130469047206A401CF8
:1002F00020626D1EF6D570BD70B504468569007824
:10030000C00707D170BDD4E9012120209047206AA1
:10031000401C20626D1EF6D570BD09684A0501D5E6
:1003200040B27047C905FCD500B2704709684A055C
:1003300001D5C0B27047C905FCD580B2704770B511
:100340000C460546012A05D02878800600D5EA69C2
:10035000002302E0012305E05B1C934202D2E05C33
:100360000028F9D1A869E618C01AA861286A1844BB
:1003700028622846FFF7AAFF04E0D5E9012114F816
:10038000010B9047B442F8D32846FFF7B5FF70BD84
:100390002DE9F0410646002410687529314616A55E
:1003A00010D0FFF7BAFF002802DA404213A507E099
:1003B00031688A0701D512A502E0490704D511A5C5
:1003C000012401E0FFF7B2FF00210A2206F1240711
:1003D00009E0B0FBF2FCB0FBF2F302FB1C00303092
:1003E00078541846491C0028F3D123462A46304643
:1003F000BDE8F04100F025BA000000002D0000002B
:100400002B000000200000002DE9FF5F15468A4602
:100410000446DFF8AC80F8440027D8E900103E46D7
:10042000CDE9001010E03AF816106A4602A800F074
:1004300051FE411C07D02178890603D5E26939189D
:1004400091420DD80744761C2078800602D5E069D9
:10045000B84205DDAE42E6DB3AF816000028E2D1EC
:10046000A069C01BA0612046FFF730FFD8E900104B
:10047000CDE90010002017E03AF818106A4602A8EB
:1004800000F028FEB0F1FF3F81460BD000250DF1B2
:10049000080B05E0D4E901211BF8050090476D1C0D
:1004A0004D45F7D308F10100B0428046E4DB206AF5
:1004B000384420622046FFF71FFFBDE8FF9F000081
:1004C0002650000070B5044621461068FFF72EFF45
:1004D000002104F1240505E000F007023032C008D5
:1004E0006A54491C0028F7D12068002308A2050798
:1004F00008D500F02000084304D0E069012305A2DC
:10050000401EE0612046BDE8704000F09AB900004E
:10051000000000003000000070B504460D46214682
:100520001068FFF703FF2188090502D50F4A7A44B6
:1005300002E00E4A7A440E32002104F1240305E061
:1005400000F00F060009965D5E54491C0028F7D1A3
:1005500020780023000704D5702D02D009B10223B2
:1005600011322046BDE8704000F06BB9164F000014
:100570002DE9F05F894604464FF0000ADFF874B1B8
:10058000FB44C0F820A02046E1688847002874D0CA
:10059000252806D0D4E901219047206A401C20621A
:1005A000F1E700265F462046E16888472028054697
:1005B00007DB312D05D2781910F8200C08B106435D
:1005C000F1E7B00701D526F00406C4F81CA0002707
:1005D000C4F818A02A2D09D0284602F033FE38B3FB
:1005E00004EB8708303DC8F8185019E059F8041B8F
:1005F000204604EB87029161E1688847012F054698
:1006000018D1E069002820DA26F020061DE0D8F88D
:10061000180000EB800005EB40003038C8F81800E7
:100620002046E1688847054602F00CFE0028EED11E
:10063000012F0AD02E2D08D12046E16888477F1C63
:100640000546022F46F02006C4DBA069002803DA25
:10065000404246F00106A061F00701D026F01006E6
:100660006C2D0BD0682D09D04C2D39D06A2D35D08A
:10067000742D35D07A2D33D016E038E0E1682F465E
:1006800020468847B842054609D16C2F26D04FF442
:100690008060E168064320468847054604E06C2FE9
:1006A0001AD04FF4807006430DB3A5F1410019280C
:1006B00002D8203546F400664A4629462046266080
:1006C0004E46FFF76FFD80B101280BD0F61D26F0D6
:1006D000070000F1080956E74020E4E78020D8E74A
:1006E0000020D6E706F104094DE7284652E7206AC4
:1006F000BDE8F09FEC4E0000421E12F8013F002BB7
:10070000FBD111F8013B002B02F8013BF9D17047F6
:100710004FF000020429C0F0128010F0030C00F02A
:100720001B80CCF1040CBCF1020F18BF00F8012BA8
:10073000A8BF20F8022BA1EB0C0100F00DB85FEA76
:10074000C17C24BF00F8012B00F8012B48BF00F842
:10075000012B70474FF0000200B5134694469646B1
:10076000203922BFA0E80C50A0E80C50B1F12001C4
:10077000BFF4F7AF090728BFA0E80C5048BF0CC072
:100780005DF804EB890028BF40F8042B08BF7047D0
:1007900048BF20F8022B11F0804F18BF00F8012B42
:1007A000704700004FF0013C50F8042B51F8043B17
:1007B0009A4221D1A2EB0C03934313EACC1317D135
:1007C00050F8042B51F8043B9A4215D1A2EB0C03CC
:1007D000934313EACC130BD150F8042B51F8043B8C
:1007E0009A4209D1A2EB0C03934313EACC13DBD05A
:1007F0004FF00000704700BFD01A01BAB1FA81F182
:1008000001F0180122FA01F0CB40C1F12001DBB266
:10081000C0B2C01A2CFA01F3D11A914311EAC311E4
:10082000E6D17047704770477047704710B500F0C9
:100830007DFC006810BD10B5044600F077FC046034
:1008400010BD2DE9F0470D4699469246044600F149
:1008500024080168880604D5E06921F010012160B0
:1008600000E00120A84201DD471B00E00027A1694C
:100870007A1902EB0900081AA0612078C00602D498
:100880002046FFF723FD002608E0D4E901211AF8ED
:1008900006009047206A401C761C20624E45F4DB1F
:1008A0002078C0060AD52046FFF710FD06E0D4E9FF
:1008B000012130209047206A401C2062381EA7F199
:1008C0000107F4DC07E0D4E9012118F8050090479E
:1008D000206A401C2062281EA5F10105F3DC204699
:1008E000FFF70AFD2078000602D50220BDE8F08758
:1008F0000120FBE770472DE9FF4F0C461E464FF0E5
:10090000FF378BB0D2E90001DDF860800A908A469B
:10091000C1F30A5505B93D46002108464FF00000D5
:10092000BAF1000F00F4400005DA00EB80004FF44C
:10093000400101EA50004FEA9059B9F1010F00DD82
:10094000B9460A9850EA4A000ED044F61050A5F273
:10095000FF3545432F14B8F1000F1ED07542291EF4
:100960001EDDC9F100021CE0B8F1010F4FF00000DC
:1009700001D0302103E0F24305E02154401CB04295
:10098000FBDB30460022002121540B99C1F808807E
:10099000C1E900200FB0BDE8F08FBD1B6D1CDEE784
:1009A0004A4600DA694206A800F04AFC06AB93E822
:1009B000070003AB83E8070050460A9900F0E4FC07
:1009C0008DE80700A0F500501F3800900398002D17
:1009D00009DD42F21F014A46084403A90390684614
:1009E00000F043FF08E0A0F500504A461F3803A975
:1009F0000390684600F04DFF8DE807000004000CEE
:100A000003D04FF0FF30410800E01046B8F1000F6E
:100A100003D00022009215461EE0751E05D400F09A
:100A200089FB303262556D1EF9D5B3460122084369
:100A300002D000227F1C04E02078302801D100225F
:100A40007F1E002A099786D01DE0112D07DA00F0DD
:100A500071FB303262556D1C50EA0102F5D108433A
:100A600002D00098C8B10EE00021681E05E0235CAA
:100A7000625C63542254401E491C8142F7DBAB4642
:100A8000A81B401E0990002004F80B000B98099A3F
:100A9000C0F80880C0E9002B7CE711264FF0000861
:100AA00059E72DE9F04F88460446D21D22F0070190
:100AB00091B0D1E90001CDE90A0102F036FB02460E
:100AC0000B98C00F01D02D2007E02068810701D5C9
:100AD0002B2002E0202101EAC000032A099001D066
:100AE000072A05DB03464146204600F069FB0BE17F
:100AF0002078800601D5E06900E00620B8F1650F96
:100B0000814606D0B8F1660F18D0B8F1670F70D1E2
:100B100031E00020B9F1110F009001DB112301E059
:100B200009F101030AAA01A90CA8FFF7E4FEDDE917
:100B30000C70002609F10105834647E001204B4671
:100B400000904FF000470AAA01A90CA8FFF7D3FEB6
:100B5000DDE90DB00C995D46002610B909F10100E0
:100B60000D18B9EB050003D4C0F1FF3609F10105FA
:100B7000A5EB09002BE0B9F1010F01DA4FF00109F3
:100B80000020B9F1110F0090484601DD112300E06B
:100B900003460AAA01A90CA8FFF7ADFEDDE90C7017
:100BA0004D4600268346207800070AD4AB4500DA7C
:100BB0005D4601A8012D04DD411911F8011C302901
:100BC00007D04F4502DA17F1040F04DA01208246FC
:100BD0000FE06D1EEEE7002F02DCED1B3E4403E04C
:100BE000781CA84200DD7D1CB81B00F1010A4FF003
:100BF00000472078000703D4AA4501DB4FF0FF3AF5
:100C00000021B7F1004F0DF143088DF8431024D0B7
:100C100002202B23002F01DA7F422D230A21021EFE
:100C2000A0F1010000DC5FB197FBF1FC97FBF1F252
:100C300001FB1C7C17460CF1300C08F801CDEEE7E7
:100C4000A8F1010003702188090501D5452100E0C4
:100C50006521A0F1010800F8011C09980FA9A1EB7A
:100C60000807FF1D00B10120411901EBEA70A169DD
:100C70003844081A401EA0612078C00602D42046DD
:100C8000FFF724FB099828B1D4E901219047206A95
:100C9000401C20622078C00622D52046FFF716FBB4
:100CA0001EE0002E04DBB34502DD01A8805D00E0FC
:100CB0003020D4E901219047206A401C2062761C34
:100CC000AAF101005FEA000A0AD100F02BFAC0681D
:100CD0000168405CD4E901219047206A401C2062F1
:100CE000281EA5F10105DCDC07E0D4E9012118F894
:100CF000010B9047206A401C2062381EA7F10107B3
:100D0000F3DC2046FFF7F8FA032011B043E60000B9
:100D10002DE9F04F04460D46D21D22F0070089B0A0
:100D2000D0E900974846394602F0FFF90246F80F2D
:100D300001D02D2307E02068810701D52B2302E095
:100D4000202101EAC0038DF820300BB1012000E022
:100D50000020032A824601D0072A04DB29462046C8
:100D600000F02EFA3FE12078800601D40D2500E046
:100D7000E569C7F30A560D2D49DA00214FEA175BE2
:100D800008464FF00000002F00F4400007DA00EBA7
:100D900080004FF4400100EBD07001EA6000811543
:100DA000012901DD4FF0FF3100224FEA850CBCF133
:100DB000180F06D31346ACF118004FF08052C24012
:100DC00003E04FF4801323FA0CF30CF10C0CBCF18C
:100DD000200F04D3ACF1200C09FA0CF001E007FA63
:100DE0000CF000294FF0004801DD18B90FE00ED1DA
:100DF00040450CD319EB02095F4121B9404502D1AE
:100E00009F4329EA0209BBEB175F00D0761C2088BC
:100E1000000502D57B48784402E07A4878441938C6
:100E200008AA302302F80A30037C0AF10101002EDF
:100E30000AF1020A53546A4602DC4FF0300101E025
:100E40004FF031014FF001088DF8001002D0A6F2EA
:100E5000FF3603E059EA470100D06B4E002D02DC5B
:100E60002178090704D54FF002082E218DF80110D2
:100E7000C44600210BE0C7F303433F01C35C491C98
:100E80006D1E02F80830052908F1010801DA002D6D
:100E9000F1DC00210CE000EB1973491C1B786D1E7E
:100EA000082902F808304FEA091908F1010801DAA7
:100EB000002DF0DC21688B0602D516E0A8F10108B0
:100EC000E04505DD02EB080313F8013C302BF5D0BB
:100ED000B8F1000F09DD02EB080313F8013C2E2BDB
:100EE00003D1090701D4A8F10108002D05DD3E2139
:100EF00002F808106D1E08F10108407C002E02F86F
:100F0000080008F1010804DA2D20764202F80800F2
:100F100002E02B2002F808000A214FF47A70864282
:100F200008F101080BDB96FBF0F3303302F80830D0
:100F300096FBF0F308F1010800FB136601E0642E54
:100F40000CDB642096FBF0F3303302F8083096FB9C
:100F5000F0F308F1010800FB136601E00A2E06DB3E
:100F600096FBF1F0303002F8080008F1010896FB1A
:100F7000F1F001FB1060303002F80800A16908F1BF
:100F8000010808EB050202EB0A00081AA0612078AC
:100F9000C00602D42046FFF799F9216A08AE01EB9A
:100FA0000A00206204E0D4E9012116F8010B904701
:100FB000BAF1010AF7D22078C00602D52046FFF721
:100FC00085F96E4609E016F8010B3E280FD0D4E9EA
:100FD00001219047206A401C2062B8F10108F2D23A
:100FE0002046FFF789F909B00320BDE8F08F206A99
:100FF0002844206203E0D4E90121302090476D1E8F
:10100000EBD3F8E7D146000002FCFFFF01694A1C60
:1010100002610878704700B58FB0CDE90131002139
:10102000059105497944CDE9031011466846FFF75B
:101030009FFA0FB000BD0000E5FFFFFF0A6802F84D
:10104000010B0A607047D1E900239A4202D2531C77
:101050000B601070704710B5436913B1AFF3008097
:1010600001E0FFF76CF9012010BD127800F12401B6
:101070000A7000224A700122EDE711684FF0FF323A
:10108000E9E70000074B70B50D467B44FFF7C3FF4F
:101090000446284600F042F910B14FF0FF3070BD11
:1010A000204670BDEF27000010B5436913B1AFF3C0
:1010B000008001E0FFF7A8F9012010BD128800F1BF
:1010C000240182840022C2840122EDE711684FF0DE
:1010D000FF32E9E770B516460C46054600F01AF8EF
:1010E000036893F80101012806D0FF2C0FD8185D82
:1010F00068B101202C7070BDD3F80701324621463B
:1011000003F2071303442846BDE8704018474FF028
:10111000FF3070BD10B500F005F8001D10BD00BF18
:10112000FD31000000487047CC090020004870479E
:10113000AC09002030B5B0F10A024FEA900E71F10F
:1011400000034EEA817EB0EB0E0061EB91014FEAA5
:10115000101E4EEA017E10EB0E0041EB11114FEA1A
:10116000102E4EEA016E10EB0E0041EB11214FEAFA
:10117000104E4EEA014E10EB0E0041EB11414018AB
:1011800041F100014FEAD00040EA41704FEAD1013D
:1011900010EB80054FEA810444EA907444EB0104AB
:1011A0006D1944EB0404521BA3414FF0000348BFE8
:1011B0000A3200D530BD401C41F1000130BD0000B5
:1011C0002DE9F0411F46044603260168072A01F471
:1011D000006004DB08B116A505E016A503E008B120
:1011E00015A500E015A521F010002060A069C01E23
:1011F000A0610FB1401EA0612046FFF767F84FB114
:10120000D4E9012138469047206A401C2062C01C66
:10121000206206E0206AFAE7D4E9012115F8010B03
:101220009047761EF8D22046FFF766F8BDE8F081B9
:101230004E414E006E616E00494E4600696E66007A
:101240002DE9F047814616468AB0334878440DC8E8
:101250008DE80D0030487844801C03AC0DC884E84C
:101260000D0041F69B300844372190FBF1F290FBD2
:10127000F1F5A5F1800501FB12041B3C02D5644287
:10128000012000E00020DFF890A080460027FA440B
:10129000AAF1BE0A0DE0E00709D03246684607EB26
:1012A00047010AEB810100F0F4FA8DE807006410B1
:1012B0007F1C002CEFD1184F7F44AC3F18E0E807AB
:1012C00014D007EB04100DF1180A90E80E008AE81C
:1012D0000E00C068F04201D198190890324606A964
:1012E00003A800F0D6FA03AB83E807006D10641C76
:1012F000002DE4D132466946B8F1000F03A802D0B0
:1013000000F0B3FA01E000F0C4FAC9E90001C9F83D
:1013100008200AB0BDE8F087CC430000007B00F055
:101320008000704700487047AC0900207546FFF701
:10133000F9FFAE4605006946534620F00700854692
:1013400018B020B5FEF788FFBDE820404FF000063A
:101350004FF000074FF000084FF0000B21F007019D
:10136000AC46ACE8C009ACE8C009ACE8C009ACE8E0
:10137000C0098D46704710B50446AFF30080204683
:10138000BDE81040FEF754BF5FEA400C08BF91F083
:10139000000F4FEA8C234FEAC12243EA51514FEA32
:1013A0001C5018BF00F5F0404FEA300018BF41F064
:1013B00000415FEA6C5C00F02980BCF1FF3F08BF90
:1013C00040F080407047130C06BF12044FF0100C21
:1013D0004FF0000C130E04BF12020CF1080C130F97
:1013E00004BF12010CF1040C930F04BF92000CF126
:1013F000020CD30F04BF52000CF1010C11464FF048
:101400000002A0F11F00A0EB0C00704711F0004F8C
:1014100008BF704731F000413FF4D5AF0B0C06BF59
:1014200009044FF0100C4FF0000C0B0E04BF090222
:101430000CF1080C0B0F04BF09010CF1040C8B0F0D
:1014400004BF89000CF1020CCB0F04BF49000CF162
:10145000010CCCF12003A0EB0C0022FA03F302FAFA
:101460000CF241EA030100F10100704720F07F4CCB
:1014700080EA030023F07F47ACEB070303F57C53BE
:1014800000F0004003F1FF032DE980494FEA154BBE
:1014900009B44FEA144325EA0B4E24EA03480FF23D
:1014A000042606EB132749083E785FEA320203FB65
:1014B0000667C7F5000707FB06F64FEA54374FEA01
:1014C000D64606F1020607FB066CCCF1005C4FEA3B
:1014D0001C472CEA074C07FB06F40CFB06F504EB53
:1014E00015464FEA961634BF00204FF000404FEAF1
:1014F000D13706FB07FC4FEA1C4C0CFB0BF7D21B49
:1015000003FB0CF761EB07010CFB0EF7B0EB074098
:1015100072EB17420CFB08F734BFA2EB0742B2EBA9
:10152000074261EB17414FEA0C444FEA910706FB73
:1015300007FC4FEA1C4C0CFB0BF7B0EBC74072EBFF
:10154000573203FB0CF734BFA2EBC742B2EBC742E2
:1015500061EB57310CFB0EF7B0EBC70072EB577223
:101560000CFB08F734BFA2EBC702B2EBC70261EB7A
:101570005771039F4FEA816141EA921104EBCC0459
:101580004FEAD1374FEA826206FB07FC42EA90122B
:101590004FEA80604FEA1C4C0CFB0BF7D21B03FB9D
:1015A0000CF761EB07010CFB0EF7B0EB074072EB99
:1015B00017420CFB08F734BFA2EB0742B2EB07421D
:1015C00061EB17414FEA8C554FEA910704EB9C24DD
:1015D00006FB07FC4FEA1C4C0CFB0BF7B0EBC740BB
:1015E00072EB573203FB0CF734BFA2EBC742B2EBEE
:1015F000C74261EB57310CFB0EF7B0EBC70072EB43
:1016000057720CFB08F734BFA2EBC702B2EBC7025C
:1016100061EB577115EB4C254FEA816141EA92115C
:101620004FEA82624FEAD13742EA901206FB07FC8A
:1016300044F100044FEA80604FEA1C4C0CFB0BF7AE
:10164000D21B03FB0CF761EB07010CFB0EF7B0EBB1
:10165000074072EB17420CFB08F734BFA2EB0742BE
:10166000B2EB074261EB174115EB1C154FEA8131D4
:1016700041EA92414FEA823242EA90424FEA803098
:101680004FEA0C7644F1000448EA03434EEA0B4863
:101690004FF0000EB2EB080C71EB030724BF62465B
:1016A00039464EEB0E0E4FF0000B001852414941E7
:1016B0004BEB0B0BB2EB080C71EB03077BF1000B50
:1016C00024BF624639464EEB0E0E4FF0000B001859
:1016D000524149414BEB0B0BB2EB080C71EB03078A
:1016E0007BF1000B24BF624639464EEB0E0E51EAE9
:1016F000020718BF46F0010616EB0E7655F1000200
:1017000054F1000103D5BDE88901BDE80088BDE8BA
:101710008901BDE80048B619524141EB0101A3F12E
:101720000103704780807F7E7D7C7B7A7978777635
:1017300076757473727171706F6E6E6D6C6C6B6AAE
:101740006A6968686766666564646363626161604C
:10175000605F5F5E5E5D5D5C5C5B5B5A5A595958C9
:101760005857575656555555545453535252525133
:10177000515050504F4F4F4E4E4D4D4D4C4C4C4B89
:101780004B4B4A4A4A4949494848484747474746D0
:10179000464645454544444444434343434242420C
:1017A00042414141002B26D4770021D01CB54FEA9D
:1017B000370703B44FF010004FF010014FF0000056
:1017C0000FBCBDE810400BF1010BBBF1010F08BFCE
:1017D0005FEA170722BF12F1010211F101014FF078
:1017E000004143F1000300F0004043EA000070476D
:1017F000F9D35708DAE746EA064613F1400F4FEAF5
:1018000016461FDD13F1200FDFBF16430A460021E5
:1018100020335B42C8D0C3F1200746EA064602FAED
:1018200007F74FEA164646EA0706C3F1200722FAF1
:1018300003F201FA07F721FA03F14FF0000342EA3D
:101840000702B1E746EA020646EA06464FEA1646AE
:1018500046EA0106BCBF46EA0646360C4FF00003D6
:101860004FF000024FF000019EE72DE9C04893467B
:1018700030B491E8380007C831EA400C48BF34EA78
:10188000430C03D5FFF7F2FDFFF78CFFF0BCBDE87A
:1018900000882DE9C048934630B491E8380007C865
:1018A00010F0804F08BF13F0804F03D100F005F80F
:1018B000FFF778FFF0BCBDE8008820F07F4780EAA2
:1018C000030023F07F4C07EB0C03A3F57C5300F0DF
:1018D0000040A3F1FE0392F0000F00F0B38095F0FA
:1018E000000F00F077802DE901494FEA11404FEADF
:1018F000144621EA004800FB06FC24EA064708FBE0
:1019000006F607FB08F800FB07F718EB06484CEB58
:10191000164C4FEA124B18EB07484FEA15464CEBB2
:10192000174022EA0B4E0BFB06FC25EA06470EFB8E
:1019300006F607FB0EFE0BFB07F71EEB064E4CEB05
:10194000164C4FF000061EEB074E4CEB174B18EBF6
:101950000B0840F1000018EB0E0B58EB000840F1AB
:1019600000008F1A4FF000013CBFC943661B14BF33
:10197000B5EB040C00213CBFC943F61B4FEA1744EA
:101980004EEA8E0E27EA04454FEA1C4704FB076225
:101990002CEA074C05FB07F70CFB05F604FB0CFCD7
:1019A00016EB074642EB174216EB0C4642EB1C4285
:1019B0001BEB060658EB0202414146EA9E0601D5A2
:1019C000BDE80189B619524141EB0101A3F10103C0
:1019D000BDE801894FEA14454FEA114724EA05465C
:1019E00021EA074C05FB07F406FB07F70CFB06F1A1
:1019F00005FB0CFC11EB074144EB17444FEA12477F
:101A000011EB0C4144EB1C4422EA074C05FB07F2A6
:101A100006FB07F70CFB06F605FB0CFC16EB07466E
:101A200042EB174216EB0C4642EB1C456A1854F188
:101A3000000148BF7047B619524141EB0101A3F1C3
:101A40000103704795F0000F37D04FEA11424FEA7B
:101A5000144721EA024624EA074C02FB07F106FB81
:101A600007F70CFB06F402FB0CFC14EB074441EBFC
:101A700017414FEA154714EB0C4441EB1C4125EA92
:101A8000074C02FB07F506FB07F70CFB06F602FB0B
:101A90000CFC16EB074645EB174516EB0C4645EBE1
:101AA0001C42121951F1000148BF7047B61952414A
:101AB00041EB0101A3F1010370474FEA14454FEADE
:101AC000114724EA054621EA074C05FB07F106FB0E
:101AD00007F70CFB06F24FF0000605FB0CFC12EBBF
:101AE000074241EB174112EB0C4251EB1C4148BF3E
:101AF0007047921841EB0101A3F101037047FEE723
:101B000010B500F00DF801F06BF901F074F9BDE8C3
:101B1000104001F082B8FFF7F3FF02F095FBFCE7FD
:101B20000548016841F0807101600448016841F096
:101B30000101016070470000FCED00E0001000E0D2
:101B4000064A10B553680649064C0968B1FBF4F122
:101B500041435068C01A8842FBD310BD001000E01A
:101B60000000002040420F00704772B6FEE7000000
:101B70002DE9F05F90F821100024022903D0042100
:101B80008163012485E001680A6822F00E020A6080
:101B900001680A6822F001020A603F4E3E4FB2150A
:101BA000DFF8F4C0DFF8F090DFF8ECA0DFF8E8B081
:101BB000DFF8E4E00168783F13011502ACF1640C32
:101BC000A9F15009AAF13C0AABF1280BAEF1140EB1
:101BD0004FF48018B14227D9B9420ED0614512D0D6
:101BE00049451DD0514518D0594518D0714501D1EE
:101BF000424615E0294EB14201D1012210E0274EA4
:101C00001436B14201D110220AE0244E2836B142E6
:101C100006D0224A3C32914201D11A4600E02A46BF
:101C20001E49091F0A602BE0B94213D0614517D045
:101C3000494522D051451DD059451DD0714501D18E
:101C400042461AE0B14202D14FF0807215E0134EC5
:101C5000B14201D1012210E0104E1436B14201D13F
:101C600010220AE00D4E2836B14206D00B4A3C3213
:101C7000914201D11A4600E02A46074980394A605C
:101C8000012180F82110002180F82010416B01B162
:101C900088472046BDE8F09F8000024008040240CB
:101CA00070B5044600F014F90546601C02D00448E3
:101CB0000078044400F00CF9401BA042FAD370BD38
:101CC000040000202DE9F84FDFF8C891002409F145
:101CD000040A0AF1040B23460F270BF1040ED1E08E
:101CE0000125A54006EA0502AA4276D1DFF8A8C17F
:101CF0004E68A6EB0C0866452BD00DDC032E34D0C5
:101D000005DC36B3012E19D0022E2FD11BE0112E87
:101D100016D0122E2AD119E0B8F5881F19D006DC8A
:101D2000B8F5803F15D0B8F5801F1FD111E0B8F588
:101D3000001F0ED0B8F5041F18D10AE0CB6815E0DB
:101D4000CB681B1D12E0CB6808330FE0CB680C3367
:101D50000CE08B682BB1012B4FF0080303D04561D9
:101D600004E0042302E0056100E00023FF2A01D81B
:101D7000064601E000F104064FEA840501D9A5F109
:101D80002005D6F8008007FA05FC28EA0C0803FABB
:101D900005F548EA0508C6F800804D68ED0070D5E5
:101DA0003E4DAE6946F00106AE61AD6924F0030612
:101DB00005F0010500953A4D06EB050CDCF80850DE
:101DC000A607360F07FA06F825EA0805DFF8D480DB
:101DD000404503D14FF0000825E052E0DFF8C8800D
:101DE000404502D14FF001081DE0DFF8C0804045BA
:101DF00002D14FF0020816E0DFF8B480404502D16E
:101E00004FF003080FE0DFF8AC80404502D14FF0FF
:101E1000040808E0DFF8A080404502D14FF0050833
:101E200001E04FF0060808FA06F848EA0508CCF881
:101E300008804D68D9F80060ED034D4601D5164382
:101E400000E096432E604D68DAF80060AD03554619
:101E500001D5164300E096432E604D68DBF8006024
:101E6000ED025D4601D5164300E096432E604D68B5
:101E7000DEF80060AD02754601D5164300E09643DA
:101E80002E60641C0A681646E2407FF429AFBDE864
:101E9000F88F000000040140000011100010024003
:101EA0000000014000080140000C0140001001400A
:101EB0000014014000180140001C014080680840E7
:101EC00000D0012070470AB1016170470904FBE7A7
:101ED00001488068704700000400002002488168C3
:101EE000027811448160704704000020074810B553
:101EF000016841F010010160032000F079F803202F
:101F000000F006F800F024F8002010BD0020024088
:101F100070B50D4D04464FF47A712878B1FBF0F09E
:101F20000A490968B1FBF0F000F0F0FA48B9102C4A
:101F300007D200222146501E00F03AF800206C60C3
:101F400070BD012070BD00000400002000000020D2
:101F50000E4808B5816941F001018161816901F094
:101F600001010091C16941F08051C161C06900F077
:101F700080500090052000F03BF80548416821F0B2
:101F8000E06141F00071416008BD000000100240B6
:101F900000000140002809DB00F01F0201219140F0
:101FA0004009800000F1E020C0F8001170470000F7
:101FB000F0B40E4B1B680C46C3F30223C3F10705B4
:101FC000042D00D90425191D072901D2002300E0A2
:101FD000DB1E012606FA05F1491E214099409E406C
:101FE000761E16403143F0BC01F0B3B80CED00E0B2
:101FF000064900F0070208684FF6FF03184040EA60
:102000000220034A10430860704700000CED00E016
:102010000000FA052DE9F0470F46050061D0434E58
:10202000306800F00700B84209D2306820F007009D
:1020300038433060306800F00700B84251D128685A
:102040003B4C810712D5400703D5606840F4E0603F
:1020500060602878000703D5606840F460506060D5
:102060006068A96820F0F000084360602878C00725
:1020700028D06868012810D02168022810D089076C
:1020800000292EDA616821F0030101436160FFF746
:102090001FFF804641F288390DE021688903EFE790
:1020A0008901EDE7FFF714FFA0EB0801494502D9CC
:1020B0000320BDE8F0876068696800F00C00B0EBB1
:1020C000810FEFD1306800F00700B8420BD93068BB
:1020D00020F0070038433060306800F00700B84255
:1020E00001D00120E5E72878400705D56068E96858
:1020F00020F4E060084360602878000706D5606837
:10210000296920F4605040EAC100606000F038F8AE
:102110006168084AC1F30311515CC8400649086070
:1021200006480068FFF7F4FE0020C2E700200240E6
:102130000010024026540008000000200800002083
:102140000448054900684968044AC1F30221515C0A
:10215000C8407047000000200010024036540008BC
:102160000448054900684968044AC1F3C221515C2A
:10217000C84070470000002000100240365400089C
:1021800012A185B00FC98DE80F0014A0144A006891
:1021900004905168134801F00C03042B10D0082B55
:1021A0000ED1C1F38343C9031DF803000AD551685A
:1021B00004AAC1F34041515C0A4A5043B0FBF1F01C
:1021C00005B0704708494843FAE7000002030405D8
:1021D000060708090A0B0C0D0E0F10100102000073
:1021E0000010024000127A0000093D002DE9F84F6E
:1021F000040070D02078C04DC00749D06868C0F393
:102200008100012807D06868C0F38100022809D145
:102210006868C00306D52868800339D5606800283F
:10222000E7D035E06068B0F5803F0BD010B1B0F575
:10223000A02F11D0286820F480302860286820F46E
:10224000802002E0286840F480302860606890B107
:10225000FFF73EFE06460AE0286840F4802028602A
:10226000F0E700BFFFF734FE801B642873D82868AE
:102270008003F7D50CE0FFF72BFE064605E000BF14
:10228000FFF726FE801B6428F0D828688003F7D467
:1022900020789A4E80074FF001094FF0000839D599
:1022A000686810F00C0F07D06868C0F3810002283E
:1022B00009D16868C00306D42868800714D520694E
:1022C000012808D110E02069B0B1C6F80090FFF7EE
:1022D000FFFD074605E00AE1FFF7FAFDC01B0228F3
:1022E000C4D828688007F7D52868616920F0F8000D
:1022F00040EAC10028600DE0C6F80080FFF7E8FD65
:10230000074604E0FFF7E4FDC01B022823D8286835
:102310008007F7D4207800072CD57948A169D9B176
:10232000C0F80090FFF7D4FD074604E0FFF7D0FDAA
:10233000C01B02280FD8686A8007F7D571484FF490
:10234000FA510068B0FBF1F0009000BF0098411E08
:102350000091FAD20EE080E0C0F80080FFF7B8FDEF
:10236000074604E0FFF7B4FDC01B022875D8686A71
:102370008007F7D42078400760D5E8690027C000BF
:1023800008D4E86940F08050E861E869012700F06E
:10239000805000905C480168C90513D401688346E9
:1023A00041F480710160FFF793FD824606E000BFB3
:1023B000FFF78EFDA0EB0A0064284ED8DBF8000082
:1023C000C005F5D5E06801280AD008B1052813D06A
:1023D000286A20F001002862286A20F0040002E048
:1023E000286A40F001002862E06841F2883B98B119
:1023F000FFF76EFD82460BE0286A40F00400286279
:10240000EEE700BFFFF764FDA0EB0A0159455AD87B
:10241000286A8007F6D50CE0FFF75AFD824605E0F2
:10242000FFF756FDA0EB0A0159454CD8286A8007F2
:10243000F6D41FB1E86920F08050E861E06988B304
:102440006968C1F38101022944D00228C6F860807E
:1024500004D0FFF73DFD044638E034E0FFF738FDD7
:10246000074604E0FFF734FDC01B02282BD828687C
:102470008001F7D4206AB0F5803F05D16868A16873
:1024800020F4003008436860D4E908010843696813
:1024900021F4741108436860C6F86090FFF718FDD6
:1024A000044606E025E000BFFFF712FD001B0228EE
:1024B00009D828688001F7D51BE000BFFFF708FDA9
:1024C000001B022802D90320BDE8F88F286880018C
:1024D000F4D40EE00128F7D06868226A00F4803155
:1024E000914204D1616A00F47010884201D0012049
:1024F000EAE70020E8E70000001002400000424246
:1025000080044242000000200070004010B5401ED0
:10251000B0F1807F01D3012010BD4FF0E024606155
:102520000F21601700F015FE0020A0610720206138
:10253000002010BD7047000070B5026804461068A6
:10254000D168536910F00F0F51D003F0010501F469
:10255000907635435DD0C20705D0CA0503D5E26B3E
:1025600042F00102E263420705D5DA0703D0E26BCD
:1025700042F00202E263820705D5DA0703D0E26B7C
:1025800042F00402E263020705D5DA0703D0E26BEA
:1025900042F00802E263E26B002A34D0800604D5E0
:1025A000880602D5204600F0DBFC20684069E16B1C
:1025B000C0F3801001F008010143204624D000F050
:1025C000C1FC2068416949061AD5416921F04001E2
:1025D0004161606BA0B11B494163606BFFF7C8FAB2
:1025E000002810D0606B416BBDE87040084783063F
:1025F0000FD58B060DD52046BDE8704000F0B0BC6D
:102600002046FFF797FF70BDFFF794FF0020E063BF
:1026100070BD030606D50B0604D52046BDE8704004
:1026200000F046BD4006F3D54806F1D5D1682046F6
:1026300021F04001D160202184F8391000F0DCF84D
:1026400070BD0000352F000870B5040004D094F868
:102650003900002510B106E0012070BD84F8385023
:10266000204600F023F8242084F839002068C1684F
:1026700021F40051C160204600F0BEFC20680169D1
:1026800021F4904101612068416921F02A014161F2
:102690002068C16841F40051C160E563202084F8DE
:1026A000390084F83A00002070BD000030B585B0D4
:1026B000002400940194029403940068184988420D
:1026C0002CD11848816941F480418161816901F40C
:1026D00080410491816941F0040181618069124D5A
:1026E00000F0040004904FF400700090022001906C
:1026F0000320039069462846FFF7E4FA2815CDE940
:102700000004694628460294FFF7DCFA0022012102
:102710002520FFF74DFC2520FFF73CFC05B030BD20
:1027200000380140001002400008014090F83A30A3
:10273000202B22D1F9B1F2B190F83830012B1CD006
:1027400081628285C2850021C163222280F83A20FD
:1027500080F838100168CA6842F48072CA60016863
:102760004A6942F001024A610068C16841F02001F3
:10277000C1600020704701207047022070470000B0
:1027800070B500681549884217D1154841880A0478
:1027900013D402464C0412784FF000030ED50A2AD7
:1027A0000AD141F4004141800E490FA0FDF768FDB8
:1027B000BDE8704001F06ABD438070BD0D2A09D0AC
:1027C000C1F30D04074D491C89B22A554180C72920
:1027D000F2D870BD41F48041418070BD00380140A5
:1027E00030000020B4000020726563697665643AA9
:1027F0002025730D0A0000007047FEE71CB5CDE9E7
:10280000000102480FC800F021F81CBD1000002094
:102810000EB58DE8070002480FC800F062F80EBD43
:10282000100000201CB5CDE9000102480FC800F0DF
:102830000DF81CBD200000200EB58DE807000248F1
:102840000FC800F04EF80EBD200000202DE9F8431F
:102850000546DDE908470E469046994600F003F923
:102860004B46424631462846009400F07DF94B46DF
:1028700042463146284600F040F94B464246314632
:102880002846009700F070F94B46424631462846EC
:1028900000F033F94B4642463146284600F0E3F853
:1028A00044F0010000904B4642463146284600F075
:1028B0005BF94B4642463146284600F01EF900209F
:1028C00000904B4642463146284600F08FF80446B9
:1028D0004B4642463146284600F0EDF82046BDE81A
:1028E000F8832DE9F84F0DF1280B07469BE870009F
:1028F000884691469A4600F0B6F853464A46414605
:102900003846009400F030F953464A46414638466E
:1029100000F0F3F853464A4641463846009500F029
:1029200023F953464A464146384600F0E6F85346F6
:102930004A4641463846009600F016F953464A4644
:102940004146384600F0D9F801B053464A46414660
:102950003846BDE8F04F00F0AEB82DE9F84300244A
:1029600006460F4690469946009400F046F900F05E
:1029700091FF01254B46424639463046009500F00E
:1029800036F900F087FF4B46424639463046009400
:1029900000F02DF900F07EFF4B46424639463046A6
:1029A000009500F02AF9BDE8F8832DE9F8430124E9
:1029B00005460E4617469846009400F01EF900F0B2
:1029C00069FF43463A4631462846009400F00FF925
:1029D00000F060FF0020009043463A46314628460A
:1029E00000F005F9BDE8F84300F054BF2DE9FF4FB2
:1029F00081B00024DDF8388081468A46934625461A
:102A0000012627466006040E00965A46514648465F
:102A1000049B00F0ECF800F03DFF5A465146484652
:102A2000049B00F0E0F808B1641CE4B200975A4639
:102A300051464846049B00F0DAF800F02BFF6D1C6D
:102A4000EDB2082DDED3049BB8F1010F5A46514672
:102A5000484605D0FFF7A9FF05B02046BDE8F08F36
:102A6000FFF77BFFF8E72DE9F843012405460E4602
:102A700017469846009400F0C0F843463A4631465F
:102A80002846009400F0B3F800F004FF0024434609
:102A90003A4631462846009400F0AFF800F0FAFEBE
:102AA00043463A4631462846009400F0A0F8BDE877
:102AB000F84300F0EFBE2DE9F843054600200090F2
:102AC0000E4617469846284600F097F800F0E2FEBA
:102AD000012443463A4631462846009400F087F8E0
:102AE00000F0D8FE43463A4631462846009400F0AE
:102AF00084F8BDE8F84300F0CDBE2DE9F843012588
:102B000006460F46904699460024009500F075F859
:102B100000F0C0FE4B46424639463046009500F074
:102B200066F800F0B7FE0CE0641CE4B2FA2C08D999
:102B30004B46424639463046FFF7BDFF0020BDE810
:102B4000F8834B4642463946304600F04CF80028A0
:102B5000EAD100904B4642463946304600F047F8ED
:102B600000F098FE0120EAE72DE9F84F00240A9EC4
:102B70008046894692469B46254601275B4652463B
:102B800049464046009500F032F800F083FE3006DA
:102B900001D5009700E000955B4652464946404605
:102BA00000F02BF800F076FE5B4652464946404660
:102BB000009700F01CF800F06DFE5B465246494657
:102BC0004046009500F013F87006641C060EE4B24F
:102BD000082CD3D35B46524649464046009700F046
:102BE0000CF8BDE8F88F184691B2FFF767B90346B5
:102BF000084699B2009AFFF766B930B491B2029CC8
:102C00001846224630BCFFF75EB9FFF70BBEFFF750
:102C1000F5BDFFF711BEFFF7FBBD10B53822182137
:102C2000D620FFF7F6FF38221921D620FFF7F1FF53
:102C300061221021D620FFF7ECFF68221121D62057
:102C4000FFF7E7FFBDE810400A2000F00BBE0000D0
:102C500010B52821D620FFF7D8FF124C292120706B
:102C6000D620FFF7D2FF60702A21D620FFF7CDFFD4
:102C7000A0702B21D620FFF7C8FFE0702C21D620B2
:102C8000FFF7C3FF20712D21D620FFF7BEFF607133
:102C9000A4F10C002188018061884180A188818095
:102CA00010BD00004400002010B52221D620FFF7FF
:102CB000ACFF114C23212070D620FFF7A6FF6070D7
:102CC0002421D620FFF7A1FFA0702521D620FFF7F1
:102CD0009CFFE0702621D620FFF797FF2071272167
:102CE000D620FFF792FF6071A01F218801806188C4
:102CF0004180A188818010BD4400002010B5FFF7FD
:102D0000A7FFBDE81040FFF7CFBF0000F0B585B0CA
:102D1000002000900190029003901F48816941F0CB
:102D200020018161816901F020010491816941F0F4
:102D300004018161816901F004010491816941F01C
:102D4000080181618069154E00F00800049000229E
:102D500010213046FFF7B7F8114F4FF44C650122B0
:102D600029463846FFF7AFF810200124CDE90004CA
:102D70000220CDE9024069463046FEF7A3FF11204C
:102D80000095CDE901040320039069463846FEF71B
:102D900099FF05B0F0BD000000100240000801409E
:102DA000000C01400C4810B50A4901604FF4E131B4
:102DB0004160002181600C22C160C0E90412816180
:102DC000C161FFF741FC002803D0BDE81040FEF7C9
:102DD000CCBE10BD0038014074000020FEE7FEE7C5
:102DE000012202490248FFF7A1BC00003000002088
:102DF00074000020704710B51D2209211A20FFF72A
:102E00000AFF01220B211A20FFF705FF4022202193
:102E10001A20FFF700FF012221211A20FFF7FBFEF5
:102E2000BDE810400A2000F01DBD000010B50021D3
:102E30001A20FFF7ECFE124C012120701A20FFF738
:102E4000E6FE607002211A20FFF7E1FEA070032168
:102E50001A20FFF7DCFEE07004211A20FFF7D7FEEE
:102E6000207105211A20FFF7D2FE6071A01F218872
:102E7000418061880180A1884942818010BD0000A5
:102E800050000020FFF7D2BF7047FFF727B830B5DA
:102E90008FB028216846FDF75DFC14210AA8FDF7D4
:102EA00059FC01210804CDE90010002402940225F8
:102EB0000491CDE907504FF4E01009906846FFF700
:102EC00095F908B172B6FEE70F20CDE90A054FF477
:102ED0008060CDE90C4002210AA80E94FFF79AF811
:102EE000002801D072B6FEE70FB030BD0D48016872
:102EF00041F00101016041680B4A114041600168E5
:102F00000A4A11400160016821F480210160416892
:102F100021F4FE0141604FF41F0181600449C003A8
:102F200008607047001002400000FFF8FFFFF6FE47
:102F300008ED00E010B5406A0021C185C184FFF7AB
:102F4000F9FA10BD0168CA6822F49072CA6001687B
:102F50004A6922F001024A61202180F83A10704744
:102F600010B590F83A10222901D0022010BD8168D6
:102F7000B1F5805F11D00169002901681FD049684F
:102F800001F07F03816A4A1C82620B70C18D491E69
:102F90000904090CC18518D02BE00269816A002A56
:102FA0000268526805D0D2B20A80816A491C8162E7
:102FB000ECE7C2F308020A80816A891CF7E74A68D5
:102FC000816A4B1C83620A70E0E70168CA6822F0DC
:102FD0002002CA600168CA6822F48072CA6001686F
:102FE0004A6922F001024A61202180F83A10FFF775
:102FF000C7FB002010BD00002DE9F0410446006829
:103000000169E26821F44051114301612169A0681E
:103010000843616908432168CA6841F20C639A4316
:103020000243CA6020684169A26921F440711143DA
:1030300041611E49206864253226884202D1FFF78B
:103040008FF801E0FFF77CF800EBC00101EB001105
:1030500060686FF018078000B1FBF0F2B2FBF5F288
:10306000B1FBF0F37A4303EB8202B1FBF0F306EB22
:103070000212B2FBF5F2B3FBF5F302F0F00202EB41
:103080000312B1FBF0F3B1FBF0F0B0FBF5F07843C5
:1030900003EB800006EB0010B0FBF5F0216800F0B8
:1030A0000F0010448860BDE8F08100000038014046
:1030B00090F83910212901D0022070478168B1F5BC
:1030C000805F016A0BD04A1C026202680978516075
:1030D000C18C491E0904090CC1840ED017E009886F
:1030E0000268C1F30801516001690029016A02D038
:1030F000491C0162ECE7891CFBE70168CA6822F001
:103100008002CA600068C16841F04001C1600020CF
:103110007047000010B50348FFF70EFABDE81040F5
:10312000FFF75EBE74000020FEE7490050EAC120B0
:1031300018BF04204A0D18BF40F0010040F2FF7292
:10314000B2EB515F08BF40F00200012808BF052024
:1031500070470907090E002804DB00F1E02080F821
:103160000014704700F00F0000F1E02080F8141DFB
:1031700070472DE9F0414F1E00EBC7010446D1E92D
:10318000000115461E4637F006020DD02A4633468A
:1031900001F014FB7F1E04EBC703D3E9002301F009
:1031A00005F937F00602F1D1022F25D0042F13D0F4
:1031B000062F18BFBDE8F0812A46334601F0FEFA1B
:1031C000D4E90A2301F0F2F82A46334601F0F6FA70
:1031D000D4E9082301F0EAF82A46334601F0EEFA72
:1031E000D4E9062301F0E2F82A46334601F0E6FA74
:1031F000D4E9042301F0DAF82A46334601F0DEFA76
:10320000D4E9022301F0D2F82A46334601F0D6FA77
:10321000D4E90023BDE8F04101F0C8B8012202F072
:1032200096B801F0C3B8002213461046114601F0CB
:103230006DB90000024A0020110702F088B80000B2
:1032400001FDFFFF30380A2801D20120704700201D
:10325000704770472DE9F04D8D4F21F0004A86B040
:1032600005460C46BA452ADBAAEB070028430AD0DC
:103270008848824501DC1AD1CDB106B02846BDE8A8
:10328000F04DFFF7CBBF844A844B284601F096FAF5
:1032900007460E46824A834B2846214601F08EFAA5
:1032A00006B03A463346BDE8F04D01F07FB8012044
:1032B000FDF7C1FA06B0BDE8F04DFFF7B4BF7A489C
:1032C000824542DABAF1795F0BDA2846FFF72DFF23
:1032D000042808BFFFF7AEFF284606B02146BDE828
:1032E000F08D2A460B46104601F068FA83460246E6
:1032F0006E480E460B4606217844FFF73AFF5A46C1
:10330000334601F05BFA804669488A465A4633469E
:1033100004217844FFF72DFF5A46334601F04EFA58
:1033200000223B4601F042F802460B464046514619
:1033300001F0ECF82A46234601F040FA06B02A468E
:103340002346BDE8F04D01F031B8284624F0004195
:1033500000223D463B4601F02FFB4FF0FF3201F0CB
:10336000F6FF0646024653480F460B4606217844B0
:10337000FFF7FFFE32463B4601F020FACDE900019F
:103380004D4832463B4604217844FFF7F2FE324670
:103390003B4601F013FA00222B4601F007F8834662
:1033A00002913046394600F07DFF804643480D4685
:1033B000504517DCDDE900015A46029B01F0A6F8F2
:1033C00042462B4601F0FAF942462B4600F0EEFF4A
:1033D000012201F0BCFF304A304B01F0DFFB304AE4
:1033E000304B4CE04FF0000A52460B46404600F08E
:1033F000DDFFCDE9031052462B461046194601F079
:10340000DDF932463B4601F0D7FADDE9033201F03F
:103410007DF806460F46DDE900015A46029B01F0A1
:1034200075F88346009101223046394601F08FFF3E
:10343000194A1A4B01F0C0FA06460F4601224046CF
:10344000294601F084FF5A46009B01F0B7F9324645
:103450003B4601F0A3FB06460F4601225046294693
:1034600001F075FF0E4DDFF858802A46434601F003
:10347000A3FA32463B4601F09FFA2A46434601F042
:103480009BFA002CD8BF81F0004106B0BDE8F08D5A
:103490000000F03F0000F07F075C143326A6913C4B
:1034A000182D4454FB21F93F0000E03F8C2100001F
:1034B000A2210000162100002C2100003333EF3F31
:1034C000FB21E93F2DE9F84F04460D4621F000406D
:1034D00000917349814211DC7249884201DC06D1B6
:1034E0002CB120462946BDE8F84FFFF797BE6E483D
:1034F000002DCCBF6D496E49BDE8F88F6D49814202
:1035000011DD6D498142D8BF4FF0FF366DDD204699
:103510002946FFF70AFE042808BFFFF78BFE204666
:103520002946BDE8F88F6549654F25F00045814281
:1035300033DD6449814219DD002632464FF0804375
:103540002046294600F032FF80468A460122204666
:10355000294601F0FCFE00223B4601F01FFB4246DB
:10356000534600F0D3FF04460D463EE001260022FC
:10357000BA463B462046294600F018FF80460F46D3
:10358000002253462046294601F008FB42463B46AE
:1035900000F0BCFF04460D4627E04B4981421BDD8D
:1035A000DFF828A10226002253462046294601F0D2
:1035B00005F900223B4600F0F9FE80460F46002246
:1035C00053462046294601F0E9FA42463B4600F0C0
:1035D0009DFF04460D4608E0032622462B460020A8
:1035E0003B4900F093FF04460D4622462B46104609
:1035F000194601F0E3F88B46824602460B4601F07D
:10360000DDF807460246334888460B4606217844D3
:10361000FFF7AFFD52465B4601F0D0F882462E48D8
:103620008B463A46434605217844FFF7A2FD3A46C9
:10363000434601F0C3F802460B46002E5046594659
:103640000CDA00F0B3FE22462B4601F0B7F801B0C9
:1036500022462B46BDE8F04F01F0AEB900F0A6FEC1
:1036600022462B4601F0AAF81C4A7A4402EBC60314
:10367000D3E9002301F092FA22462B4601F08EFA9C
:10368000174A7A4402EBC603D3E9002301F094F908
:10369000009A002AB8BF81F00041BDE8F88F000011
:1036A000000010440000F07F182D4454FB21F93F26
:1036B000FB21F9BF0000DC3F0000203E0000F33F8B
:1036C0000000F03F0000E63F008003400000F83FAC
:1036D0000000F0BF561F0000141F0000B21E0000C3
:1036E0007A1E00002DE9F04D9446CCF1000423F041
:1036F00000464CEA0404524F46EAD4749A4688467F
:1037000021F00042BC4206D8454240EA050442EAA4
:10371000D474BC4204D9BDE8F04D6246FFF781BDC8
:10372000AAF14055A5F17F6555EA0C040BD002249F
:1037300004EAAA74434DDFF810E144EAD87452EA6F
:10374000000B04D00CE0BDE8F04DFFF7BBBE002C31
:1037500014BF012CBDE8F08D022C30D0032C32D0E8
:1037600056EA0C0B0AD0BE4220D1BA4209D126F04B
:10377000804622F080423346114617E000291ADBCA
:1037800025E0DFF8C8B0FB44002C04BFDBE90001F2
:10379000BDE8F08D012C02BFDBE9000181F00041A2
:1037A000BDE8F08D022C0AD0032C0CD0BA4212D105
:1037B000B8F1000F0BDA23482549BDE8F08D284603
:1037C0002449BDE8F08D28467146BDE8F08D1D48BE
:1037D0002149BDE8F08D921B12153C2AC4BF19483F
:1037E0001D490EDCBAF1000FBEBF12F13C0F0020E4
:1037F000014606DB624600F089FE21F00041FFF73A
:1038000061FE002C08BFBDE8F08D012C04BF81F0E3
:103810000041BDE8F08D114A114B022C07D001F098
:10382000BDF92A46BDE8F04D0A4B01F0B7B901F0E9
:10383000B5F92A46BDE8F04D064B01F0BDB80000D1
:103840000000F07F182D4454FB2109C00E1E00001B
:10385000FB21F9BFFB210940FB21F93F075C143331
:1038600026A6A13C30B504464FF47A7502E02846FE
:10387000FEF766F9641EA4B2F9D230BD04490A68A5
:103880005206FCD5024AC1B2121D116070470000F9
:10389000003801400120FEF753B900002DE9F04F38
:1038A000334FDFF8D090DFF8D080344DD7F8106078
:1038B00085B0002436F9140001F0B0FB414601F058
:1038C000EBFA494601F0C2FB0E2101F06EFD45F80E
:1038D0002400641C032CEDDB3E467F69DFF8A090DA
:1038E000DFF8A0B000244FF0333A00BF37F91400DE
:1038F00001F094FB414601F0CFFA494601F0A6FBE6
:1039000001F036FA52465B4600F058FF00F01CFD0D
:1039100005EB8401641CC860032CE7DBB6691A4F11
:10392000DFF86880DFF86890002400BF36F91400E3
:1039300001F074FB394601F089FB414601F0ACFA15
:10394000494601F0A9FA05EB8401641C8861032C47
:10395000ECDB05F1140001AC0FC884E80F00286906
:10396000009095E80F0000F0B9F805B0BDE8F08FC1
:103970005800002000007442002474498809002087
:1039800000C05A453333B33F00007A440000C040C2
:1039900000803B452DE9F05FFFF780FF4C4C012193
:1039A000A06801F002FDA16801F050FB05464FF050
:1039B000404B5946606801F049FB616801F046FBE5
:1039C000294601F019FC4FF07E58414601F0FCF900
:1039D00001F0CEF906460D460121206801F0E5FC14
:1039E000616801F033FB07460121A06801F0DDFCAE
:1039F000E16801F02BFB394601F0E6F901F0B8F976
:103A000032462B46FFF76EFEDFF8C8A04FF066394E
:103A10004A46534600F0D2FE00F096FC2E4E01219D
:103A20003060206801F0C1FCA16801F00FFB054681
:103A30005946606801F00AFBE16801F007FB29467E
:103A400001F0C2F901F094F9FFF704FC4A4653462D
:103A500000F0B4FE00F078FC70600121E06801F035
:103A6000A4FCE16801F0F2FA05460121A06801F02A
:103A70009CFCA16801F0EAFA294601F0A5F941464B
:103A800001F0BAFB01F074F905460F4601212068E8
:103A900001F08BFCE16801F0D9FA80465946606874
:103AA00001F0D4FAA16801F0D1FA414601F0A4FB7B
:103AB00001F05EF92A463B46FFF714FE4A4653469C
:103AC00000F07CFE00F040FCB060BDE8F09F00001C
:103AD0005800002066A64C407C0900202DE9FF4FCD
:103AE00095B00546DDE92469FE48DDF898809246E8
:103AF000FD4C00902168206801F0A8FA0B906168E5
:103B0000206801F0A3FA0990A168206801F09EFAEC
:103B10000890E168206801F099FA6168834660685E
:103B200001F094FA0390A168606801F08FFA0690A2
:103B3000E168606801F08AFA0590A168A06801F068
:103B400085FA0290E168A06801F080FA0490E168CB
:103B5000E06801F07BFA51460190084601F076FAE0
:103B600016990746084601F071FA044629460846A8
:103B700001F06CFA214601F027F9394601F024F9E9
:103B800000F0E4FA04460146284601F05FFA159079
:103B90002146169801F05AFA16902146504601F037
:103BA00055FA41461790084601F050FA0546494635
:103BB000084601F04BFA04463146084601F046FA41
:103BC000214601F001F9294601F0FEF800F0BEFAA5
:103BD00004460146304601F039FA24902146484611
:103BE00001F034FA25902146404601F02FFA269044
:103BF0000899059801F0E8F804460F9001212698ED
:103C000001F0D3FB8046214601F020FA05465946D3
:103C1000069801F0F1FA044610900121259801F070
:103C2000C4FB8246214601F011FA07464FF07C544E
:103C30002046029901F0E0FA019901F0DDFA06460A
:103C40000121249801F0B1FB8146314601F0FEF9D3
:103C5000394601F0B9F8294601F0B6F80546099948
:103C6000049801F0C9FA0146404601F0EFF9064612
:103C70002046039901F0C0FA0446019901F0BCFA0C
:103C80000146504601F0E2F907465946069801F010
:103C90009BF80146484601F0D9F9394601F094F8FD
:103CA000314601F091F806462046029901F0A4FA47
:103CB0000146404601F0CAF907460999049801F007
:103CC00083F801460D90504601F0C0F9044608996A
:103CD000059801F091FA80464146484601F0B6F950
:103CE000214601F071F8394601F06EF8044631467C
:103CF000084601F0ABF906462946084601F0A6F948
:103D0000314601F061F801F033F800F0CBFA00F031
:103D10001BFB11904046012101F047FB8346012126
:103D20000D9801F042FB824603990B9801F064FA6A
:103D3000029901F061FA019901F046F88146454681
:103D40000121204601F031FB29460E9001F07EF959
:103D500001F00EF807468846019801F009F805467B
:103D60000E46029801F004F8044600225F4B0291CF
:103D700000F022FE2A46334600F010FF0D460646AC
:103D80000121119801F011FB119000F0F1FF324672
:103D90002B4600F013FD3A46434600F007FB00F0C7
:103DA000D3FA0646DDE90D1001F050F90546DDE9CC
:103DB000101001F04BF9294601F006F802998046EF
:103DC00025460C46039800F0D3FF0022474B00F035
:103DD000F3FD2A46234600F0E1FE05460C460E9808
:103DE00000F0C6FF2A46234600F0E8FC04460D46D4
:103DF0000F99119801F02AF900F0BAFF22462B46DC
:103E000000F0D4FA00F0A0FA04464146269801F0EA
:103E10001DF905462146259801F018F9294601F0BB
:103E2000EBF905465146179801F010F90746494647
:103E3000169801F00BF9394601F0DEF9294600F039
:103E4000C3FF07462146249801F000F90446314695
:103E5000269801F0FBF8214601F0CEF904464946C8
:103E6000159801F0F3F805465946179801F0EEF859
:103E7000294601F0C1F9214600F0A6FF054631466A
:103E8000259801F0E3F804464146249801F0DEF855
:103E9000214601F0B1F904465946169801F0D6F8CA
:103EA00006465146159801F0D1F8314601F0A4F9C3
:103EB000214600F089FF044617F0FF4F7DD015F032
:103EC000FF4FFBD014F0FF4FF8D0384600F050FF02
:103ED000DFF81C904FF04048064642464B4606919C
:103EE00008E00000A69BC43C580000200000E03F12
:103EF0007493983F00F062FC02460B460020014696
:103F000000F054FA00F020FA0746284600F030FF8F
:103F1000054642464B46049100F050FC02460B46D3
:103F20000020014600F042FA00F00EFA82462046D8
:103F300000F01EFF044642464B46029100F03EFC54
:103F400002460B460020014600F030FA00F0FCF972
:103F50008346384600F00CFF8046894630460022F2
:103F6000784B069900F02AFC07460E46189800F098
:103F7000FFFE3A46334600F019FA42464B4600F03F
:103F800015FA00F0E1F91890504600F0F1FE0646EF
:103F90008846284600226B4B049900F00FFC05462A
:103FA0000F46229800F0E4FE3B462A4600F0FEF958
:103FB0003246434600F0FAF900E01DE000F0C4F993
:103FC0002290584600F0D4FE05460E4620460022B8
:103FD0005C4B029900F0F2FB07460C46239800F078
:103FE000C7FE3A46234600F0E1F92A46334600F080
:103FF000DDF900F0A9F92390534C2399E06801F012
:1040000025F806462299A06801F020F80546606868
:10401000189980F0004001F019F8294601F0ECF8F9
:10402000314601F0E9F8009901F010F8216800F03C
:10403000CBFE20602299E06801F008F8064623993B
:10404000A06801F003F805461899206800F0FEFF0B
:10405000294600F0B9FE314601F0CEF8009900F093
:10406000F5FF616800F0B0FE60601899E06800F04C
:10407000EDFF06462399606800F0E8FF05462299A7
:10408000206800F0E3FF294601F0B6F8314600F061
:104090009BFE009900F0DAFFA16800F095FEA06099
:1040A0001899A06800F0D2FF05462299606800F0D8
:1040B000CDFF06462399206800F0C8FF314600F086
:1040C00083FE294601F098F8009900F0BFFFE168EF
:1040D00000F07AFEE060E168E06800F0B7FFA168F8
:1040E0000746A06800F0B2FF61680546606800F00E
:1040F000ADFF21680646206800F0A8FF314600F0B9
:1041000063FE294600F060FE394600F05DFE00F0D7
:104110001DF805460146206800F098FF20602946FA
:10412000606800F093FF60602946A06800F08EFF91
:10413000A0602946E06800F089FFE06019B0BDE8A2
:10414000F08F0000000012405800002010B5044617
:104150004FF0FF3101F029F90849A1EB6404214631
:1041600000F074FF214600F071FF4FF07F5101F025
:1041700039F82146BDE8104000F068BFDF59375FCD
:10418000FDF7B4FEFEF783FEFEF7C0FDFEF70AFE64
:10419000FDF7C1FCFEE700000FB42DE9F04F8B46A0
:1041A0008246002026498BB00DF15C08087001247E
:1041B00006463DE023A11698FCF7F4FA002808F122
:1041C0000400D8F8001080C8894680464FF00005EA
:1041D00016D02AE01CB959461948FCF78DFA00247C
:1041E00059F8250000F0C4FDCDE90001202102A806
:1041F000169AFCF751F802A91148FCF77DFA6D1CDC
:10420000BD42E7DB13E01CB959460D48FCF774FAD0
:10421000002459F82530202102A8169AFCF73CF812
:1042200002A90748FCF768FA6D1CBD42EBDB761C5F
:104230005645BFDB0BB00248BDE8F00F5DF814FB3C
:104240007C0100202566000008B5FEF71BFEFEF786
:1042500055FDFFF79FFB03200090074B07A208A125
:104260000120FFF799FF014606A0FCF709F8BDE819
:1042700008400A20FDF714BD7C09002025660000D7
:104280002C00000025730D0A0000000003490020E7
:104290004880C8210248FCF73BBA000030000020EB
:1042A000B40000202DE9F04106460F4600F090FBD7
:1042B000041E0D4618BF0120284320F00040C0F125
:1042C0007F6000F1E040C00F0ED0301C18BF01200D
:1042D000384320F00040C0F17F6000F1E040C00FA3
:1042E00004BF0120FCF7A7FA20462946BDE8F0816B
:1042F00010B500290AD00878002807D0054878446E
:10430000FCF750FA002801D0002010BD0248784484
:1043100010BD0000561300004E13000010B5002918
:104320000AD00878002807D005487844FCF73AFA04
:10433000002801D0002010BD0248784410BD0000C4
:10434000461300003E13000021F00042A2F160522B
:10435000B2F5801F01F0004328BFD2F17F6C0BD96A
:104360005FEA001C43EAC20242EB507018BF70477C
:1043700028BF20F001007047B2F5801FBCBF18466F
:1043800070474FEA410C1CF5001F02D2084600F0AE
:1043900024BF70B500F0BCFA00000089FFF7F6BF3B
:1043A0004FF00040A0F580007047000010B591EA82
:1043B000030F48BF83F0004300F1F883841A71EBC8
:1043C000030C05D2121943EB0C03001B61EB0C012B
:1043D000DFF824E14FEA1154A4EB135C1EEA430F0B
:1043E00018BF9EEA445F73D023EA0E03DCF1200E6F
:1043F00021EA045143F4801332D322FA0CFE10EB6D
:104400000E0023FA0CFE41EB0E01CCF1200E03FA54
:104410000EFE10EB0E0051F10001B1F5801FCCF142
:10442000200E32D201EB045112FA0EF2BDE8104018
:1044300058BF7047401C38BF5FEA420218BF704740
:10444000002814BF20F0010041F100014FEA4103B0
:1044500013F5001F38BF7047A1F1C04100F0A6BAA4
:10446000012A43EB0302ACF1200CDCF11F0E32BF3A
:104470004FF0000E23FA0CF310EB030041EB045154
:10448000B4EB115FD0D0A1EB045101F580114908C4
:104490005FEA300001EB04510ED350F1000038BF49
:1044A00012FA0EFE08D1BDE81040C9E7401C38BF23
:1044B0005FEA4202CAD1C3E7BDE810404FEA4103B8
:1044C00013F5001F38BF7047A1F1C04100F06EBA6C
:1044D0009EEA445F08D011EA5E0FBDE8104004BFB9
:1044E00001F0004100207047BDE8104070B500F0B9
:1044F0000FFA00BF64FBBE3E0000E0FF02494FF030
:10450000000000F0F2BE00BF0000F87F2DE9C041BE
:1045100030B4DFF8A0C23CEA111418BF3CEA13140F
:1045200000F0EC8081EA03051CEA111444EAD5741A
:1045300018BF1CEA131500F0C780A4EB05044FF068
:10454000004545EAC12145EAC32341EA505143EA07
:10455000525304F17F74994204F500344FEAC020AD
:104560004FEAC22208BF904200F09C804FEA1365D8
:104570000FF24016765D4FEA134506FB05F7C7F1CB
:10458000807706FB07F74FEAD737A7FB0368764229
:10459000C8F58038A7FB06CE38BFA8F1010807FB95
:1045A00008E64FF0000EA6FB028CE6FB03CEDCF122
:1045B000000CCEF1004E38BFAEF1010EA6FB0C5838
:1045C0004FF000074FF00005E6FB0E87A1FB08C681
:1045D000A0FB07CE16EB0E0645F10005E1FB0765D3
:1045E00015F1E04E7EBFA4F580345FEA46066D41CA
:1045F00016F1800745F100054FEA17274FEA0666D6
:1046000047EA0567A6F1DE46B6F1805F4FEA152559
:104610001FD9384624F0010C05EBC471BCF1FE6FC4
:1046200001EB0C1102D8F0BCBDE8008124425CBF54
:1046300001F5801E9EEAC47F02D4F0BCBDE8008173
:10464000244238D4F0BCA1F1C041BDE8004100F0E3
:10465000ADB94FEAD22242EA43524FEAD323A7FB35
:1046600002864FEAD02040EA415007FB03661EEA6B
:104670000E0F4FEAD12105FB026658BFA6EB00568C
:10468000B6EB00564FEA520E4EEAC37E18EB0E0E02
:1046900056EB530EBDD518EB02085E417F1C55F159
:1046A0000005B6E74FF480154FF000074FF0000605
:1046B0004FF00008ADE7F0BC4FF0000001F1C04141
:1046C00001F00041BDE8008111EA0C1F0CEA13154E
:1046D00000D00CE013EA0C1F00F025804FF0000022
:1046E000F0BC81EA030101F00041BDE80081F0BCAB
:1046F000BDE8004181EA030100F058B9F0BCBDE813
:10470000004170B500F004F9097EFC3E00F007B8E6
:1047100081EA03014FF0000001F00041704781EA97
:10472000030100F043B9F0BCBDE800414FF00000C8
:1047300021497047FFFDFBF9F7F5F4F2F0EEEDEBE0
:10474000E9E8E6E4E3E1E0DEDDDBDAD8D7D5D4D38F
:10475000D1D0CFCDCCCBCAC8C7C6C5C4C2C1C0BFDB
:10476000BEBDBCBBBAB9B8B7B6B5B4B3B2B1B0AFE1
:10477000AEADACABAAA9A8A8A7A6A5A4A3A3A2A1C5
:10478000A09F9F9E9D9C9C9B9A9999989797969580
:1047900095949393929191908F8F8E8E8D8C8C8B1C
:1047A0008B8A8989888887878685858484838382A4
:1047B000828181800000FF070000F87FDFF848C198
:1047C00070B51CEA111E1EBF1CEA13159EEA0C0FE1
:1047D00095EA0C0F00F06F8081EA030423EA4C1382
:1047E0004EEAD47E21EA4C1141F4801143F4801347
:1047F000AE44A1FB024CA0FB0365AEF17F7E3619EF
:1048000055EB0C05A1FB034C4CF10003A0FB021C73
:1048100016EB0C06654153F10003094218BF46F040
:10482000010613F4007F0BD14FEA03314FEA053044
:10483000340341EA155140EA16506FF003020AE0D2
:104840004FEAC3214FEAC520F40241EA555140EA3C
:1048500056506FF0020202EB2E4201EB025585EA40
:10486000CE710AD05FEA440C18BF24F0004450F126
:10487000000041F1000120EAD47040F2FE7C624564
:1048800000D270BDA84214BF4FF080444FF04044A6
:10489000002E08BF0024BEF1806FA8BFA1F1C04167
:1048A000BDE8704080F282804FF0000001F1C0410D
:1048B00001F0004170479EEA0C0F0CEA131518BF77
:1048C00095EA0C0F06D04FF0000081EA030E0EF0BF
:1048D000004170BD00F01CF88900013E00F007B8EF
:1048E00000F009B84FEA430C5FEA5C5C08D081EA4B
:1048F000030100F05BB84FEA410C5FEA5C5CF6D163
:104900004FF00000014970470000FF070000F87FEA
:104910000EF1020E2EF0030E5EF8046B364205D443
:10492000012A43EB030515F5001F12D8012841EBBE
:10493000010C1CF5001F0CD80ED14FEAD17C15F5E7
:10494000001F0CEB4C0C0CF1020C08BF4CEBD37CA1
:1049500004E04FF0080C01E04FEAD37C0CEB4C056F
:1049600026FA05F606F00706B6F1040C06D20EEBA1
:10497000860CBDE870404CF0010C6047DFE80CF09D
:10498000090B02024FF000414FF00000A1F5002199
:1049900070BD19461046012851EB010418BFD4F52B
:1049A000001484BF002001F0004170BD0808A0F58C
:1049B00000114FEA3101704791EA030F10B581F001
:1049C00000413FF5FBAC83F0004300F0EFB800007E
:1049D0002DE9F04101F5801CBCF5001FC0F2C38039
:1049E0004FEA115C21EA0C510CF1FD0C41F48011ED
:1049F0005FEA5C0C0CF5C07C01D3400049413DA44A
:104A0000890241EA905187028E0E0A0CA45D04FBD4
:104A100004F602FB06F6C6F14046A4FB0662F60D5C
:104A200046EA422606FB06F4A4FB01235242C3F1E8
:104A3000404338BF5B1EA6FB02420024E6FB032472
:104A4000D20B42EA4446A6FB0623A1FB02E2A3FBEB
:104A500007E4A4184FF0000252F10002E3FB014208
:104A60006442C2F1404E38BFAEF1010EA6FB0423F2
:104A70004FF00002E6FB0E32A2FB03464FF00004AB
:104A8000B61954F10004E2FB0264A1FB06E6A4FBA4
:104A900007E816EB08064FF0000858F10008E4FBA1
:104AA00001687642C8F1405838BFA8F10108A2FB5E
:104AB00006E4A3FB08E52D194FF0000454F10004AF
:104AC000E2FB0854A1FB05E6A7FB04E818EB060887
:104AD0004FF0000656F10006E1FB048618F12005B0
:104AE00056F10006A809A8F11B08B10908F03F0813
:104AF000B8F10A0F40EA86601CD901EB0C51BDE801
:104B0000F08100BFFCF5EEE8E2DDD8D3CFCBC7C320
:104B1000C0BDB9B6B4B1AEACA9A7A5A3A19F9D9BDA
:104B20009A9896959392908F8D8C8B89888786859D
:104B300084838281A0FB006800FB01F208EB42083D
:104B4000B8EB872807D5341858EB0104D5D5401C9D
:104B500051F10001D1E7341A78EB0104CDD4401EA5
:104B600071F10001C9E75FEA4C0C5FEA9C5C0DD172
:104B700005D34FF0000001F00041BDE8F081BDE831
:104B8000F04170B5FFF7C4FE6DDBFFBEBDE8F0413C
:104B90004FF00000004970470000F87F10B591EA1F
:104BA000030F48BF83F000433FF508AC841A71EB54
:104BB000030C07D212198CF0004C43EB0C03001BC2
:104BC00061EB0C01DFF8A4E14FEA1154A4EB135C94
:104BD0001EEA430F18BF9EEA445F00F0B08023EA4C
:104BE0006E03524221EA0451C3EB6E0338BF5B1ED1
:104BF000DCF1200E25D322FA0CFE10EB0E0043FA56
:104C00000CFE41EB0E01CCF1200E03FA0EFE10EB70
:104C10000E0051F10001CCF1200E29D412FA0EF24F
:104C200001EB0451BDE8104058BF7047401C1CBF49
:104C3000B2F1004F704700280CBF491C20F0010062
:104C4000704712EB020E43EB030218BF4FF0010E48
:104C50004EEA4202ACF1200CDCF11E0E54D943FAAC
:104C60000CFE10EB0E0051F1FF31CCF11E0ED5D52C
:104C70000EF1010E12FA0EFE404141EB010101EB73
:104C8000445C5FEA5C5C10D910EBDE7001EB045110
:104C900038BFBEF1004FBDE8104018BF7047002874
:104CA0000CBF491C20F00100704730D24FEAD42CD1
:104CB00011F5001124F400641BD0B1FA81F20B3A13
:104CC000A41AA41ED2F12003914030FA03F3194331
:104CD000904001EBCC71002C01EB0451BDE8104079
:104CE000A8BF704701F1C0414FF0000001F0004142
:104CF0007047B0FA80F310FA03F100D110BDE41A46
:104D0000173C4805C90AE4E701EB045110BD4910FE
:104D100001EB0451BDE810404FEA300002E04FF0D3
:104D2000000170474A0008BF0042F8D0B2F5001FEA
:104D300028BF704701F000414FF0000070479EEA25
:104D4000445F07D011EA5E0FBDE8104004BF0021A8
:104D500000207047BDE8104070B5FFF7D9FD00BFD7
:104D600040DFF63E83F00041104670470000E0FF50
:104D700043004FEAD30C4FEA3C0C43401FBF4007AF
:104D80000CF1605113F0FE4F70471CF0006F03D11F
:104D900000200CF0004170470CF0004343EA5070D3
:104DA00010B540EACC0000F0D2F900BF000000923C
:104DB0004FEA0001FFF7FABD4FF000414FF000004D
:104DC000A1F500217047000090EA010F48BF81F073
:104DD000004100F11882421A3CBF801A89184FEA3C
:104DE000D0524FF07F4C1CEA410FA2EBD15318BFB9
:104DF0009CEA026F00F03B804FF0004C4CEA002030
:104E00004CEA012121FA03FC10EB0C0C1ED202F13A
:104E1000FF325FEA1C2040EBC25038BF70471CF0E5
:104E20007F0F4FEA400C18BFBCF17F4F38BF70476F
:104E3000C3F12003994008BF20F00100BCF17F4F6F
:104E400038BF7047A0F1C04000F0C7B94FEA3C003E
:104E5000000A40EBC25028BF1CF0FF0F4FEA400C85
:104E6000E6D018BFBCF17F4F38BF7047EAE79CEA35
:104E7000026F05D010EA5C0F08BF00F000407047D9
:104E800010B500F064F900BF64FBBE3E014800F0BD
:104E90002CBA00BF0000C07F4FF47F0C1CEAD01278
:104EA0001EBF1CEAD11392EA0C0F93EA0C0F00F01C
:104EB000858090EA010F48BF42F4807240F4000CF4
:104EC00041F400002CF07F4120F07F4000B581428A
:104ED000A2EB03020FF2081CACEB504EC0F1000035
:104EE0009EF800E04FEA4E0E00FB0EFC38BF490072
:104EF0004FEA2C1C02F5FA020CFB0EF34FEACE1E11
:104F00004FEA112C4FEAC1210EEB635E42EB2242C5
:104F10000EFB0CFC4FEA1C5300FB03114FEA112C53
:104F20004FEA01310EFB0CFC4FEADC4C00FB0C118C
:104F3000C14228BF09184CEB03335DF804EB10EBBA
:104F4000410143EBC250B2F57C0F38BF704729D501
:104F500012F0F00F1CBF00F1C04000F0004070479D
:104F6000008182838485868788898B8C8D8E8F9142
:104F70009293959697999A9C9D9FA0A2A3A5A7A866
:104F8000AAACAEB0B2B3B5B7B9BCBEC0C2C5C7C992
:104F9000CCCED1D4D7D9DCDFE2E6E9ECF0F3F7FAF6
:104FA000FE0000004FEA400C0CF1807CBCF17E4F0B
:104FB00028BF7047B0F1C04000F00FB990EA010F70
:104FC0000CEAD11348BF42F48072624538BF634592
:104FD00007D213F47F0F16D080EA010000F00040E2
:104FE000704710B500F0B3F8097EFC3E00F005B83C
:104FF00080EA010000F00040704780EA010000F004
:10500000004000F0EAB812F47F0F04BF0248704776
:1050100080EA010000F0E1B80000C07F10F000411C
:1050200048BF4042B0FA80F310FA03F2C3F19D0387
:105030000BD051EAC35101EB1220530638BF704721
:1050400000F1010008BF20F0010070474FF47F0C11
:105050001CEAD0121EBF1CEAD11392EA0C0F93EA8D
:105060000C0F00F0478090EA010F48BF42F48072B5
:105070004FF0004C4CEA00204CEA012102EB030205
:10508000A0FB0113A2F50002002918BF43F00103A1
:105090005B0028BF4FEA330342EB22425FEA132C46
:1050A0004CEBC2502EBFBCEB436FB2F57C0F704788
:1050B0004FEA036CBCF1004F08BF20F00100B2F5CD
:1050C0007C0F38BF70470BD582F0FF0212F5803F8E
:1050D000C8BF704700F1C040D8BF00F00040704723
:1050E00000F5000C5FEA4C0C48BF7047B0F1C040BF
:1050F00000F073B890EA010F0CEAD11348BF42F4F4
:105100008072624538BF634504D280EA010000F036
:105110000040704710B500F01AF800BF8900013E4A
:1051200000F007B800F009B85FEA410C5FEA1C6CB8
:1051300008D080EA010000F050B85FEA400C5FEA56
:105140001C6CF6D14FF00040A0F5800070470EF1C6
:10515000020E2EF0030E5EF8044B244204D44FEAF4
:105160004102B2F17F4F11D84FEA4003B3F17F4FB4
:105170000CD80ED14FEAD07CB2F17F4F0CEB4C0C27
:105180000CF1020C08BF4CEBD17C04E04FF0080C92
:1051900001E04FEAD17C0CEB4C0324FA03F404F059
:1051A0000704B4F1040C06D20EEB840CBDE81040E9
:1051B0004CF0010C6047DFE80CF0070802024FF0EA
:1051C0000040A0F5800010BD0846420018BFD2F193
:1051D000807288BF00F0004010BDFF2141EAD0502E
:1051E000C005704780F0004090EA010F7FF5F3ADF5
:1051F00081F0004100F007B890EA010F48BF81F04C
:1052000000413FF5E8AD421A04D882F00042A0EB1D
:10521000020011444FEAD0524FF07F4C1CEA410F7C
:10522000A2EBD15318BF9CEA026F4AD04FF0004C5A
:105230004CEA00204CEA012121FA03FCB0EB0C0CF3
:105240000FD412F0FE0F36D05FEA4C001DD50012CD
:1052500040EBC25038BF70471CF03F0F18BF70477B
:105260000BE0A2F101025FEA1C2040EBC25038BF04
:1052700070471CF07F0F18BF7047C3F1200399409F
:1052800014BF401E20F00100704780084FEA12232F
:1052900008BF7047B0FA80FCA2EB0C02CCF1280CDE
:1052A00060FA0CF093EA122F04BF00EBC250704773
:1052B0004FEAC3707047130A5FEADC1008BF7047FB
:1052C000F6E79CEA026F04D010EA5C0F08BF0020EA
:1052D000704710B5FFF73BFF40DFF63E81F000401E
:1052E0007047FBF7DEBBFBF713BD0CF00F03092B78
:1052F00008BF082000F07F800A2B0BD0082B18BFB6
:10530000704708BF1CF0400F0AD04FF000004FF06C
:10531000000170471CF0400F18BF4FF0004070476D
:105320001CF0100F08D020F0704300F07F4242EADA
:10533000D3014FEA4370704700F0604021F07F4294
:1053400042EA000201F07F4040EA727070474FF07D
:10535000FF0C4CF4E06C1CEA11531CBF9CEA030CDC
:105360009445C2BFDA4201EB02517047002B0DD0C9
:10537000BCF1000F0FD0002A01F00041A4BF41F0A2
:10538000E04141F07F614FF00000704701F00041C3
:105390004FF00000704750EA01334FF09B0C18BFEC
:1053A0004CF0806C7FF4AAA870474FF0FF0212EA1D
:1053B000D0521CBF92F0FF038B42C2BFD14200EB20
:1053C000C1507047002A0AD0002B0BD0002900F0F2
:1053D0000040A4BF40F0FE4040F40000704700F0E1
:1053E0000040704743024FF00B0C18BF4CF0806C2C
:1053F0007FF44CAD70471CF4801F11D01CF4E02FDB
:1054000003D06FEACC31490070474FF04050EFF3C2
:10541000008222F0704242EA000282F30088704764
:105420004FF0000070470000000000000000010283
:10543000030406070809000000000102030400003D
:1054400000000000000000003031323334353637C0
:1054500038394142434445464030580030313233B8
:1054600034353637383961626364656640307800B8
:10547000040000080000000000000002000100001D
:105480001000000000000000555555555555C53F0A
:105490007D6FEB0312D6D4BF5544880E55C1C93F6A
:1054A0003B8F68B52882A4BF88B20175E0EF493F01
:1054B00009F7FD0DE13D023F4B2D8A1C273A03C041
:1054C000C88A599CE52A004059018D1B6C06E6BF2D
:1054D00082922EB1C5B8B33F3031323334353637CE
:1054E0003839616263646566787000303132333414
:1054F000353637383941424344454658500000005C
:105500004FBB610567ACDD3F182D4454FB21E93FDB
:105510009BF681D20B73EF3F182D4454FB21F93FCA
:10552000E2652F227F2B7A3C075C143326A6813C50
:10553000BDCBF07A8807703C075C143326A6913CFB
:10554000C4EB98999999C9BF711623FEC671BCBF67
:105550006D9A74AFF2B0B3BF9AFDDE522DDEADBFCF
:105560002F6C6A2C44B4A2BF0D5555555555D53FE7
:10557000FF8300922449C23F6E204CC5CD45B73F02
:10558000513DD0A0660DB13FEB0D76244B7BA93F7A
:1055900011DA22E33AAD903F000000000000000065
:1055A00002400000000000A00000000005400000D4
:1055B000000000C8000000000C4000000000409CFB
:1055C00000000000194000000020BCBE00000000E8
:1055D00034400000BFC91B8E00000004B54000002D
:1055E000504BCFD06607E2CF010000006C410000B5
:1055F0003E8251AADFEEA73401000000D94200002C
:10560000DCB5A0E23A301F97FFFFFFFFB445000072
:10561000FD25A0C8E9A3C14FFFFFFFFFFF3F00002A
:105620000000008000000000FF3F0000000000803C
:1056300000000000805700080000002074000000F7
:105640006C010008F4570008740000209C0F000053
:10565000880100081C00000043000000F8FFFFFF65
:105660000C0000000E0000000F0000002E000000E3
:105670001001000043000000F8FFFFFF0040404021
:105680004040404040404141414141404040404015
:1056900040404040404040404040404040050202C1
:1056A0000202020202020202020202020220202080
:1056B00020202020202020020202020202029090DC
:1056C00090909090101010101010101010101010DA
:1056D000101010101010101002020202020288882E
:1056E000888888880808080808080808080808083A
:1056F0000808080808080808020202024000000022
:105700000000000000000000000000000000000099
:105710000000000000000000000000000000000089
:105720000000000000000000000000000000000079
:105730000000000000000000000000000000000069
:105740000000000000000000000000000000000059
:105750000000000000000000000000000000000049
:105760000000000000000000000000000000000039
:105770000000000000000000000000000000000029
:105780000024F400010000001000000000000000F0
:1057900040000000000C014080000000000C0140AF
:1057A00000040000000C014000080000000C014053
:1057B00000000000000000000000000000000000E9
:1057C00000000000000000000000000000000000D9
:1057D00000000000000000000000803F000000000A
:1057E0000000000000000000380000203E00002003
:0457F0004A0000204B
:0400000508000131BD
:00000001FF
