:020000040800F2
:1000000028080020890100081B110008590F00086A
:10001000191100088F020008851200080000000076
:100020000000000000000000000000001F11000898
:100030002D030008000000001D1100082111000818
:10004000A3010008A3010008A3010008A301000800
:10005000A3010008A3010008A3010008A3010008F0
:10006000A3010008A3010008A3010008A3010008E0
:10007000A3010008A3010008A3010008A3010008D0
:10008000A3010008A3010008A3010008A3010008C0
:10009000A3010008A3010008A3010008A3010008B0
:1000A000A3010008A3010008A3010008A3010008A0
:1000B000A3010008A3010008A3010008A301000890
:1000C000A3010008A3010008A3010008A301000880
:1000D000A3010008A3010008A3010008A301000870
:1000E000A3010008A3010008A301000800F002F822
:1000F00000F03AF80AA090E8000C82448344AAF188
:100100000107DA4501D100F02FF8AFF2090EBAE885
:100110000F0013F0010F18BFFB1A43F0010318473B
:10012000C0110000E0110000103A24BF78C878C167
:10013000FAD8520724BF30C830C144BF04680C60ED
:10014000704700000023002400250026103A28BF35
:1001500078C1FBD8520728BF30C148BF0B60704739
:100160001FB51FBD10B510BD00F058F81146FFF7C0
:10017000F7FF01F098F800F076F803B4FFF7F2FF0C
:1001800003BC00F07DF8000009488047094800479B
:10019000FEE7FEE7FEE7FEE7FEE7FEE7FEE7FEE737
:1001A000FEE7FEE704480549054A064B7047000094
:1001B00085110008ED000008280200202808002012
:1001C00028040020280400204FF0000200B5134648
:1001D00094469646203922BFA0E80C50A0E80C5067
:1001E000B1F12001BFF4F7AF090728BFA0E80C5018
:1001F00048BF0CC05DF804EB890028BF40F8042B11
:1002000008BF704748BF20F8022B11F0804F18BF7D
:1002100000F8012B7047704770477047754600F033
:100220002BF8AE4605006946534620F00700854688
:1002300018B020B5FFF7B6FFBDE820404FF000062C
:100240004FF000074FF000084FF0000B21F00701BE
:10025000AC46ACE8C009ACE8C009ACE8C009ACE801
:10026000C0098D46704710B50446AFF300802046A4
:10027000BDE81040FFF781BF00487047C80100206B
:1002800001491820ABBEFEE7260002007047FEE7DA
:1002900000F000F8244C4FF47A7804F10C0504F1D6
:1002A000180604F124072188227A606800F044F9D6
:1002B000404600F03FF829882A7A686800F03CF947
:1002C000404600F037F83188327A706800F034F92F
:1002D000404600F02FF839883A7A786800F02CF917
:1002E000404600F027F82188627A606800F024F91F
:1002F000404600F01FF829886A7A686800F01CF907
:10030000404600F017F83188727A706800F014F9EE
:10031000404600F00FF839887A7A786800F00CF9D6
:10032000404600F007F8BEE710000020704772B6A4
:10033000FEE7000070B5044600F004F90546601CB5
:1003400002D004480078044400F0FCF8401BA042AE
:10035000FAD370BD000000202DE9F84FDFF8B89106
:10036000002409F1040A0AF1040B23460F270BF1BC
:10037000040EC9E00125A5402A40AA427DD1674E5E
:10038000D1F804C0ACEB0608B44532D014DCBCF1A3
:10039000030F3AD009DCBCF1000F2AD0BCF1010FE9
:1003A0001CD0BCF1020F31D11DE0BCF1110F17D0F0
:1003B000BCF1120F2AD119E0B8F5881F19D006DC5C
:1003C000B8F5803F15D0B8F5801F1FD111E0B8F502
:1003D000001F0ED0B8F5041F18D10AE0CB6815E055
:1003E000CB681B1D12E0CB6808330FE0CB680C33E1
:1003F0000CE08B682BB1012B4FF0080303D0456153
:1004000004E0042302E0056100E00023FF2A01D894
:10041000064601E000F104064FEA840501D9A5F182
:100420002005D6F8008007FA05FC28EA0C0803FA34
:1004300005F548EA0508C6F800804D68ED0062D56C
:10044000374DAE6946F00106AE61AD6924F0030692
:1004500005F001050095334D06EB050CDCF808505E
:10046000A607360F07FA06F825EA0805DFF8B88070
:10047000404503D14FF0000817E044E0DFF8AC80BE
:10048000404502D14FF001080FE0DFF8A48040455D
:1004900002D14FF0020808E0DFF89880404502D111
:1004A0004FF0030801E04FF0040808FA06F848EAA4
:1004B0000508CCF808804D68D9F80060ED034D467A
:1004C00001D5164300E096432E604D68DAF80060CF
:1004D000AD03554601D5164300E096432E604D68A6
:1004E000DBF80060ED025D4601D5164300E096435F
:1004F0002E604D68DEF80060AD02754601D51643EA
:1005000000E096432E60641C0D682A46E5407FF4A7
:1005100031AFBDE8F88F0000000401400000111069
:10052000001002400000014000080140000C0140A2
:1005300000100140001401400AB101617047090434
:10054000FBE70000014880687047000000000020C1
:10055000704770477047000070B5040033D094F8BE
:100560003D000025E0B984F83C5060486065604873
:10057000A0656048E0656048206660486066604845
:10058000A0666048E0666048206760486067604831
:10059000A067E06F08B95F48E067014620468847DA
:1005A000242084F83D002068016821F001010160E9
:1005B00000F040FA584A6168914201D8574900E07A
:1005C0005749884201D2012070BD56492368B0FBCB
:1005D000F1F15E6826F03F060E435E606368934269
:1005E00006D94FF4967359434FF47A73B1FBF3F184
:1005F0002368491C1E6A26F03F0631431962616870
:10060000914210D84900401EB0FBF1F2521CC2F3D7
:100610000B02042A01D2042022E0B0FBF1F0401CBE
:10062000C0F30B001CE0A368F3B301EBC10202EBC3
:100630000116421EB2FBF6F2521C42F48042120531
:1006400049D093B301EBC10202EB0111401EB0FB94
:10065000F1F0401CC0F30B0040F4804040F4004037
:100660002168CA694CF6FF739A431043C861D4E904
:100670000701084321680A6822F0C002104308609D
:10068000D4E90310084321688A6848F2FF339A438B
:1006900010438860D4E9050108432168CA6822F044
:1006A000FF021043C86001E00EE016E02068016818
:1006B00041F0010101602564202084F83D0025639C
:1006C00084F83E50002070BD01EB4106421EB2FB93
:1006D000F6F2521CB3E70120C2E701EB4101401ED4
:1006E000B0FBF1F0401CC0F30B00B7E72D0700088A
:1006F0002B070008CF070008CD07000829070008CE
:10070000310700082F0700085505000851050008AB
:100710005305000835070008A086010080841E00EC
:1007200000093D0040420F00704770477047704716
:100730007047000030B585B0002100910191029111
:1007400003911E4D03681E4C122103221D48AB422B
:1007500016D1A36943F00803A361A369039203F0D0
:1007600008030493C023CDE900316946FFF7F4FD87
:10077000E06940F40010E061E06900F4001019E065
:10078000114DAB4217D1A36943F00803A361A369DC
:10079000039203F0080304934FF44063CDE9003162
:1007A0006946FFF7D9FDE06940F48000E061E06947
:1007B00000F48000049005B030BD000000540040FB
:1007C00000100240000C0140005800407047704784
:1007D000024881680278114481607047000000205F
:1007E000074810B5016841F010010160032000F0D6
:1007F00079F8032000F006F800F024F8002010BD7E
:100800000020024070B50D4D04464FF47A712878EF
:10081000B1FBF0F00A490968B1FBF0F000F0F0FA22
:1008200048B9102C07D200222146501E00F03AF899
:1008300000206C6070BD012070BD00000000002031
:100840000C0000200E4808B5816941F0010181616A
:10085000816901F001010091C16941F08051C161DC
:10086000C06900F080500090052000F03BF805487A
:10087000416821F0E06141F00071416008BD000075
:100880000010024000000140002809DB00F01F02B8
:10089000012191404009800000F1E020C0F80011E2
:1008A00070470000F0B40E4B1B680C46C3F30223E4
:1008B000C3F10705042D00D90425191D072901D20C
:1008C000002300E0DB1E012606FA05F1491E214047
:1008D00099409E40761E16403143F0BC00F0D3BCD8
:1008E0000CED00E0064900F0070208684FF6FF0330
:1008F000184040EA0220034A104308607047000095
:100900000CED00E00000FA052DE9F0470F46050068
:1009100061D0434E306800F00700B84209D2306819
:1009200020F0070038433060306800F00700B8421C
:1009300051D128683B4C810712D5400703D5606828
:1009400040F4E06060602878000703D5606840F4F8
:10095000605060606068A96820F0F0000843606043
:100960002878C00728D06868012810D0216802289C
:1009700010D0890700292EDA616821F003010143B4
:100980006160FFF7DFFD804641F288390DE02168A4
:100990008903EFE78901EDE7FFF7D4FDA0EB08013C
:1009A000494502D90320BDE8F0876068696800F016
:1009B0000C00B0EB810FEFD1306800F00700B842B7
:1009C0000BD9306820F0070038433060306800F001
:1009D0000700B84201D00120E5E72878400705D597
:1009E0006068E96820F4E0600843606028780007E8
:1009F00006D56068296920F4605040EAC100606053
:100A000000F038F86168084AC1F30311515CC8402E
:100A10000649086006480068FFF7F4FE0020C2E7B8
:100A20000020024000100240C81200080C00002004
:100A3000040000200448054900684968044AC1F3DD
:100A40000221515CC84070470C0000200010024099
:100A5000D81200080448054900684968044AC1F3EF
:100A6000C221515CC84070470C00002000100240B9
:100A7000D812000812A185B00FC98DE80F0014A08C
:100A8000144A006804905168134801F00C03042BC9
:100A900010D0082B0ED1C1F38343C9031DF8030006
:100AA0000AD5516804AAC1F34041515C0A4A504337
:100AB000B0FBF1F005B0704708494843FAE7000081
:100AC00002030405060708090A0B0C0D0E0F10108F
:100AD000010200000010024000127A0000093D00EF
:100AE0002DE9F84F040070D02078C04DC00749D0E0
:100AF0006868C0F38100012807D06868C0F38100EE
:100B0000022809D16868C00306D52868800339D552
:100B100060680028E7D035E06068B0F5803F0BD012
:100B200010B1B0F5A02F11D0286820F480302860D3
:100B3000286820F4802002E0286840F48030286093
:100B4000606890B1FFF7FEFC06460AE0286840F4B2
:100B500080202860F0E700BFFFF7F4FC801B6428CA
:100B600073D828688003F7D50CE0FFF7EBFC064646
:100B700005E000BFFFF7E6FC801B6428F0D828687A
:100B80008003F7D420789A4E80074FF001094FF088
:100B9000000839D5686810F00C0F07D06868C0F3FA
:100BA0008100022809D16868C00306D4286880073C
:100BB00014D52069012808D110E02069B0B1C6F829
:100BC0000090FFF7BFFC074605E00AE1FFF7BAFC1B
:100BD000C01B0228C4D828688007F7D52868616937
:100BE00020F0F80040EAC10028600DE0C6F800805F
:100BF000FFF7A8FC074604E0FFF7A4FCC01B02288F
:100C000023D828688007F7D4207800072CD57948A6
:100C1000A169D9B1C0F80090FFF794FC074604E041
:100C2000FFF790FCC01B02280FD8686A8007F7D531
:100C300071484FF4FA510068B0FBF1F0009000BF2A
:100C40000098411E0091FAD20EE080E0C0F80080CA
:100C5000FFF778FC074604E0FFF774FCC01B02288E
:100C600075D8686A8007F7D42078400760D5E869AE
:100C70000027C00008D4E86940F08050E861E869C6
:100C8000012700F0805000905C480168C90513D42A
:100C90000168834641F480710160FFF753FC82468E
:100CA00006E000BFFFF74EFCA0EB0A0064284ED818
:100CB000DBF80000C005F5D5E06801280AD008B1CE
:100CC000052813D0286A20F001002862286A20F045
:100CD000040002E0286A40F001002862E06841F266
:100CE000883B98B1FFF72EFC82460BE0286A40F063
:100CF00004002862EEE700BFFFF724FCA0EB0A0126
:100D000059455AD8286A8007F6D50CE0FFF71AFC37
:100D1000824605E0FFF716FCA0EB0A0159454CD8C6
:100D2000286A8007F6D41FB1E86920F08050E86196
:100D3000E06988B36968C1F38101022944D00228BF
:100D4000C6F8608004D0FFF7FDFB044638E034E0CD
:100D5000FFF7F8FB074604E0FFF7F4FBC01B02288F
:100D60002BD828688001F7D4206AB0F5803F05D1E0
:100D70006868A16820F4003008436860D4E908017D
:100D80000843696821F4741108436860C6F86090EC
:100D9000FFF7D8FB044606E025E000BFFFF7D2FBD3
:100DA000001B022809D828688001F7D51BE000BF86
:100DB000FFF7C8FB001B022802D90320BDE8F88F0B
:100DC00028688001F4D40EE00128F7D06868226A10
:100DD00000F48031914204D1616A00F470108842BD
:100DE00001D00120EAE70020E8E7000000100240FF
:100DF00000004242800442420C000020007000408B
:100E000010B5401EB0F1807F01D3012010BD4FF01E
:100E1000E02460610F21601700F035FA0020A06126
:100E200007202061002010BD70B5040004D094F8A4
:100E30003900002510B106E0012070BD84F838505B
:100E4000204600F023F8242084F839002068C16887
:100E500021F40051C160204600F0B8F92068016912
:100E600021F4904101612068416921F02A0141612A
:100E70002068C16841F40051C160E563202084F816
:100E8000390084F83A00002070BD000070B586B0CB
:100E9000002400940194029403942B4E03682B4980
:100EA000022003222A4DB34229D18B6943F48043A7
:100EB0008B618B6903F4804304938B6943F00403D3
:100EC0008B618969039201F0040104910102CDE96B
:100ED000001069462846FFF73FFA2815CDE90004BF
:100EE000694628460294FFF737FA0022012125209F
:100EF000FFF7D8FC2520FFF7C7FC06B070BD154EE4
:100F0000B342FAD1CB6943F40033CB61CB6903F42C
:100F1000003304938B6943F004038B618969039266
:100F200001F0040104910421CDE90010694628462E
:100F3000FFF712FA0820CDE900046946284602941A
:100F4000FFF70AFAD9E7000000380140001002401C
:100F50000008014000440040FEE700002DE9F04396
:100F600085B0002000900190029003902A4881698A
:100F700041F010018161816901F0100104918169E2
:100F800041F020018161816901F0200104918169B2
:100F900041F004018161816901F0040104918169DA
:100FA00041F00801816180691C4F00F008004FF496
:100FB00000540490002221463846FFF7BDFADFF8BE
:100FC0006080012211464046FFF7B6FADFF85490E0
:100FD00042F20226012231464846FFF7ADFA00945C
:100FE00001240225CDE90145694638460395FFF7FE
:100FF000B3F90094694640460194CDE90245FFF7F4
:10100000ABF9CDE9006469464846CDE90245FFF7F2
:10101000A3F905B0BDE8F0830010024000100140C4
:1010200000080140000C01400D4810B50B4901605B
:101030000C49416000214FF480428160C0E90312F5
:1010400041618161C1610162FFF786FA002803D026
:10105000BDE81040FFF76BB910BD00000054004020
:1010600040000020A08601000D4810B50B4901602A
:101070000C49416000214FF480428160C0E90312B5
:1010800041618161C1610162FFF766FA002803D006
:10109000BDE81040FFF74BB910BD000000580040FC
:1010A000C4000020A08601000C4810B50A49016068
:1010B0004FF4E1314160002181600C22C160C0E940
:1010C00004128161C161FFF7AFFE002803D0BDE8C3
:1010D0001040FFF72CB910BD003801404801002036
:1010E0000C4810B50A4901604FF4E131416000211C
:1010F00081600C22C160C0E904128161C161FFF707
:1011000093FE002803D0BDE81040FFF710B910BDD2
:101110000044004088010020FEE7FEE7704770476A
:10112000FFF756BB30B58FB028216846FFF74CF863
:1011300014210AA8FFF748F801210804CDE900109E
:101140000024029402250491CDE907504FF4E010E9
:1011500009906846FFF7C4FC08B172B6FEE70F209D
:10116000CDE90A054FF48060CDE90C4002210AA8C0
:101170000E94FFF7C9FB002801D072B6FEE70FB04E
:1011800030BD00000D48016841F001010160416877
:101190000B4A1140416001680A4A11400160016830
:1011A00021F480210160416821F4FE0141604FF487
:1011B0001F0181600449C0030860704700100240AD
:1011C0000000FFF8FFFFF6FE08ED00E02DE9F0411A
:1011D000044600680169E26821F44051114301614D
:1011E0002169A0680843616908432168CA6841F21F
:1011F0000C639A430243CA6020684169A26921F4E2
:101200004071114341611E4920686425322688429D
:1012100002D1FFF71FFC01E0FFF70CFC00EBC0015F
:1012200001EB001160686FF018078000B1FBF0F26D
:10123000B2FBF5F2B1FBF0F37A4303EB8202B1FBB0
:10124000F0F306EB0212B2FBF5F2B3FBF5F302F09A
:10125000F00202EB0312B1FBF0F3B1FBF0F0B0FBD4
:10126000F5F0784303EB800006EB0010B0FBF5F0DF
:10127000216800F00F0010448860BDE8F081000094
:1012800000380140FEE70907090E002804DB00F1E1
:10129000E02080F80014704700F00F0000F1E0201B
:1012A00080F8141D7047FFF79BFAFFF73BFFFFF72D
:1012B00055FEFFF7B9FEFFF7D7FEFFF7F5FEFFF784
:1012C0000FFFFEF7E5FFFEE7000000000000000052
:1012D00001020304060708090000000001020304DC
:1012E0000013000800000020400000002801000852
:1012F0004013000840000020E807000044010008F7
:101300000100000010000000000000000024F400B4
:101310000020000000100140000100000002000059
:10132000000C01400001000000200000000C014002
:101330000001000002000000000C0140000100005C
:04000005080000ED02
:00000001FF
