:020000040800F2
:100000008078002045010008BF240008671F000811
:10001000BD240008F70B00082D3400080000000084
:100020000000000000000000000000002530000873
:10003000510D000800000000C1240008273000080E
:100040005F0100085F0100085F0100085F01000810
:100050005F0100085F0100085F0100085F01000800
:100060005F0100085F0100085F0100085F010008F0
:100070005F0100085F0100085F0100085F010008E0
:100080005F0100085F0100085F0100085F010008D0
:100090005F0100085F0100085F0100085F010008C0
:1000A0005F0100085F0100085F0100085F010008B0
:1000B0005F0100085F010008D13000085F010008FF
:1000C0005F0100085F0100085F0100085F01000890
:1000D0005F010008013400085F0100085F010008AB
:1000E0005F0100085F0100085F0100085F01000870
:1000F0005F0100085F0100085F0100085F01000860
:100100005F0100085F0100085F0100085F0100084F
:100110005F0100085F0100085F0100085F0100083F
:100120005F0100085F0100085F0100085F0100082F
:10013000DFF80CD000F014FD0048004707740008F9
:10014000807800200648804706480047FEE7FEE723
:10015000FEE7FEE7FEE7FEE7FEE7FEE7FEE7FEE777
:100160008930000831010008202A04DB203A21FAF6
:1001700002F00021704721FA02F3D040C2F12002C0
:10018000914008431946704700487047CC3A03082D
:1001900040EA01039B0703D009E008C9121F08C009
:1001A000042AFAD203E011F8013B00F8013B521E89
:1001B000F9D27047D2B201E000F8012B491EFBD200
:1001C00070470022F6E710B513460A460446194662
:1001D000FFF7F0FF204610BD421C10F8011B00295C
:1001E000FBD1801A7047034611F8012B00F8012B50
:1001F000002AF9D1184670472DE9F04791460F467D
:1002000080460446002614F8015B2DB1FFF7BCFFC1
:100210000068405DC007F6D12B2D02D02D2D18D0DF
:10022000641E4A463946204600F0B0FA27B13968C4
:10023000A14201D1C7F8008071054FF002040BD52F
:100240004042002803DD03F0C3FD0460A007BDE8C1
:10025000F08746F48066E4E70028F8DA03F0B8FD9A
:1002600004606FF00040F2E7F0B480EA0102D40FBE
:100270004200B2EB410F02D20246084611464A0044
:1002800042D0C30DDDB2C1F3C752AD1A202D35DA0D
:10029000C1F3160141F4000204B15242C5F1200637
:1002A00002FA06F12A411044B3EBD05F23D0C4B167
:1002B000012DA0EBC35009DCF0BC4FF0004202EA74
:1002C000C352DBB200F5000000F0B8BA400000F104
:1002D000807000EBC350A0F1807040EAD1704900FB
:1002E00009E0490841EAC071A0EBC35000F50000E5
:1002F000400800EBC350F0BC00F097BA6142012205
:1003000002EB4101001BF6E7F0BC704781F00041B1
:10031000AAE780F00040A7E780EA010210B502F0EA
:100320000043400022D04A001FD0010E01EB1261B1
:10033000C0F35600C2F3560240F4000042F400023B
:10034000A0FB022000047F39140400D0401C50EAB6
:10035000124001D44000491EC2B20C0604EBD0107A
:10036000401C4008802A02D003E0002010BD20F08D
:100370000100002900DA0020184310BD30B480EAE3
:10038000010202F0004530F0004221F0004013D09D
:1003900090B1C30DD40DC2F31601C0F31600E41AD8
:1003A00041F4000140F400027D34914201D3641C09
:1003B00000E04900002C02DA30BC002070474FF406
:1003C00000000023914201D3891A034340084FEAF9
:1003D0004101F7D151B1914202D14FF0004105E006
:1003E00002D24FF0010101E06FF0010103EBC450B4
:1003F000284430BC00F019BA420005D0C0F3C752FF
:100400005242914201DC0020704700EBC15070471E
:100410002DE9FE4F804681EA0300C00F0C46009094
:1004200021F0004123F00045B8EB0200A94105D2BC
:100430004046214690461C460B46024623F00040AB
:10044000104347D0270DC7F30A00C3F30A510290A7
:10045000401A019040286BDAC3F3130040F4801B6C
:100460000098924620B10023D2EB030A63EB0B0BFA
:1004700001985946C0F14002504600F066F9064620
:100480000D4650465946019A00F06EF910EB0800EF
:100490006141002487EA115284EAE7731A4340D08D
:1004A000009A62B3019A012A4FEA075215DC001B39
:1004B00061EB02014FF0004202EA0752CDE900422F
:1004C000001C41F5801132462B4600F0F4F903B0D0
:1004D000BDE8F08F40462146F9E7001B61EB0201C1
:1004E000001C41F5801300185B412018A2F500178D
:1004F00047EB030140EAD570B6196D4111E06D0874
:100500004FEA360645EAC0754FEA0752001B61EB19
:100510000201001C41F5801149084FEA3000001922
:10052000514132462B4603B0BDE8F04F00F0B4B95C
:100530000098012240000023D0EB020263EBE0733D
:10054000009821464FEAE074B8EB000061EB04012B
:10055000E9E783F000435BE781F0004158E72DE9CC
:10056000FE4F81EA030404F0004421F000410094AE
:100570004FF0000B23F0004350EA01045ED052EA32
:1005800003045BD0C3F30A54C1F30A552C44A4F20C
:10059000F3340194A0FB0254C1F3130141F4801120
:1005A000C3F3130343F4801301FB024400FB034E27
:1005B000840A970A44EA815447EA8357A4FB0768F0
:1005C00002958D0A05FB07854FEA932C04FB0C541A
:1005D0002705029D4FEA065847EA1637B5EB08058E
:1005E0006EEB070C870E920E47EA811742EA8312E0
:1005F000A7FB0201B6EB0B0164EB00042B0D43EAF1
:100600000C335E1844EB1C50DA465146E7FB0201FE
:10061000C5F313044FEA0B3343EA14534FEA043291
:10062000019C43EA0603A4F10C040294009CCDE96A
:1006300000B400F040F903B0BDE8F08F002001469F
:10064000F9E7C10F80EAE0700844CA079623002149
:1006500000F0F4B896230022114600F0EFB800F045
:10066000004230F000400AD0C10D01F56071C0F3C6
:10067000160042EA0151C2084007114370470020AA
:100680000146704701F0004330B421F0004150EAC8
:10069000010206D00A0DA2F56072C1F31301002A0F
:1006A00002DC30BC00207047440F44EAC104C100A2
:1006B000E01830BC00EBC25000F0B7B830B50B46C4
:1006C000014600202022012409E021FA02F59D4282
:1006D00005D303FA02F5491B04FA02F52844151E56
:1006E000A2F10102F1DC30BD2DE9F05F05460020EA
:1006F00092469B4688460646814640241BE0284693
:10070000414647462246FFF72FFD53465A46C01A38
:10071000914110D311461846224600F016F82D1AC2
:1007200067EB01084F4622460120002100F00DF83A
:1007300017EB00094E41201EA4F10104DFDC4846FE
:1007400031462A464346BDE8F09F202A04DB203A82
:1007500000FA02F1002070479140C2F1200320FA14
:1007600003F3194390407047202A06DBCB17203A49
:1007700041FA02F043EAE07306E041FA02F3D040A6
:10078000C2F1200291400843194670472DE9F05FFD
:1007900082460078002715468B460AF10104B946C7
:1007A000302801D09DB113E014F8010B01277828FF
:1007B00003D0582801D045B10AE00DB1102D07D162
:1007C0000027102514F8010B02E0082500E00A2597
:1007D0000026B0460EE005FB080005FB06F10127E8
:1007E00001EB10461FFA80F8B6F5803F00D3B946FA
:1007F00014F8010B294600F0C5F90028EBDABBF12B
:10080000000F05D00FB1641E00E05446CBF8004045
:10081000B9F1000F06D003F0DBFA02210160C81E17
:10082000BDE8F09F48EA0640FAE70029A8BF7047F4
:10083000401C490008BF20F00100704710B4B0FA16
:1008400080FC00FA0CF050EA010404BF10BC7047B1
:1008500049B1CCF1200421FA04F411FA0CF118BFCB
:10086000012121430843A3EB0C01CB1D4FEA00619A
:100870004FEA102042BF002010BC704700EBC3506D
:1008800010440029A4BF10BC7047401C490008BF99
:1008900020F0010010BC704710B5141E73F1000465
:1008A00008DA401C41F1000192185B411A4301D162
:1008B00020F0010010BD2DE9F04D92469B4611B18C
:1008C000B1FA81F202E0B0FA80F220329046FFF7EE
:1008D0003CFF04460F4640EA0A0041EA0B0153463A
:1008E0005A46084313D0114653EA010019D0C8F103
:1008F00040025046FFF738FC05460E465046594622
:100900004246FFF722FF084305D0012004E02046BD
:100910003946BDE8F08D0020054346EAE0762C43D9
:1009200037430A986305E40AA0EB08000022FD0A99
:1009300044EA47540A3002D500200146E9E70105A0
:1009400010196941DDE9084500196941BDE8F04D1C
:10095000A2E72DE9F04D81EA030404F0004B21F0F9
:10096000004514464FF0000A23F0004150EA05020A
:1009700020D054EA01021DD0C5F30A570246C5F340
:100980001303C1F31300C1F30A5640F4801543F476
:100990008013A7EB0608101BD64608F2FD3873EB50
:1009A000050002D308F1010801E092185B41B8F19B
:1009B000000F03DA00200146BDE8F08D00204FF45F
:1009C0008011064684460EE0171B73EB050705D31E
:1009D000121B63EB050306434CEA010C49084FEA7E
:1009E000300092185B4150EA0107EDD152EA030052
:1009F00012D082EA040083EA0501084305D0101BE7
:100A0000AB4106D20122002306E000224FF0004352
:100A100002E06FF0010253101AEB06004CEB085194
:100A200010EB0A0041EB0B01BDE8F04DFFF734BFBE
:100A300070B521F0004303430CD0C1F30A550024E4
:100A4000D5EB040564EB0403D617AD1AB34102DB02
:100A50000020014670BD201841EB025170BD2DE908
:100A6000F04D00231A461B1A8A4103DB0020014681
:100A7000BDE8F08DC1F30A52C1F3130141F48015B2
:100A80004FF0000BD10702D100186D41521E002714
:100A9000044640F2FF11384601EB620A3E468046AA
:100AA000024600204FF48011FFF75EFBC21971412E
:100AB000BB1846EB0100B4EB030C75EB000C04D340
:100AC000E41A65EB000517460E46241908F10100EB
:100AD0006D4180463428E3DDF91946EB0600091B19
:100AE000A84103D24FF0FF32134601E00022134623
:100AF0001BEB070046EB0A51BDE8F04DFFF7CCBEFB
:100B0000C1F30A52C1F3130140F2FF3341F48011E3
:100B10009A4202DA00200146704740F233439A427B
:100B2000A2F2334202DC5242FFF71EBBFFF70DBEBA
:100B300030B5041E71F1000404DB4FF00044404264
:100B400064EB0101141E73F1000405DB1C464FF039
:100B50000043524263EB0403994208BF904230BD08
:100B6000064C074D06E0E06840F0010394E80700FA
:100B700098471034AC42F6D3FFF7DEFA203D030865
:100B8000403D03083A2800D2303820F02002412AA4
:100B900001D3A2F13700884201D34FF0FF307047F4
:100BA00070B58C1810F8015B15F0070301D110F82F
:100BB000013B2A1106D110F8012B03E010F8016B5C
:100BC00001F8016B5B1EF9D12B0705D40023521EDF
:100BD0000DD401F8013BFAE710F8013BCB1A921C47
:100BE00003E013F8015B01F8015B521EF9D5A14245
:100BF000D8D3002070BDFEE710B5B8B002F0F2FA0D
:100C0000202219491AA8FFF7C3FA174936222031C2
:100C100022A8FFF7BDFA144CB4F85600ADF8BE0098
:100C200054F8580F3090A088ADF8C400E088ADF8B3
:100C3000C6000D491122603132A8FFF7A9FA607E83
:100C40008DF8D900E069379068221EA96846FFF741
:100C50009FFA1AAC94E80F0001F06BFF38B0BDE8C2
:100C6000104001F0AEBB000080000020FFF7C4FF81
:100C700000F000F803A003F04BF800BF06F046FCBC
:100C8000FCE70000D2B0BBF02D463130332DC3D489
:100C9000C4E30D0A00000000F0B505461D48A1B0F0
:100CA0000F4602681CA11BA803F05AF80526642110
:100CB00002A8FFF786FA00E054B92868FFF7CFFCD6
:100CC000CDE9000117A2642102A803F031F8012444
:100CD00055F82400FFF7C3FCCDE9000102AB13A2D5
:100CE0006421184603F024F8641CB442E4DB4FF09E
:100CF000FF3202A91BA800F0E3F927B900220DA1D9
:100D00001BA800F0DDF91BA800F046F921B0C0B225
:100D1000F0BD000008010020313A2F25642E6373D6
:100D2000760000000D0A25660000000025732C25C2
:100D300066000000696E6465782C726F6C6C2C70B4
:100D4000697463682C7961772C646174650D0A009D
:100D50007047000010B5012207A1002004F0B8FE82
:100D60000649087018B106A002F0D2FFFEE7BDE800
:100D700010400AA002F0CCBF313A0000040100206C
:100D80006661696C20746F20756E6D6F756E74206E
:100D900066617466732E0D0A00000000737563634C
:100DA00065656420746F20756E6D6F756E74206656
:100DB000617466732E0D0A0010B504460B4804F0EA
:100DC000D5FD21460AA002F0A3FF204605F0A2F9B6
:100DD0000C490870214618B10BA002F099FFFEE7FC
:100DE000BDE810400DA002F093BF0000E415002004
:100DF00074727920746F2064656C65746520257346
:100E00000D0A0000040100206661696C20746F20E7
:100E100064656C6574652025730D0A0073756363E2
:100E200065656420746F2064656C65746520257346
:100E30002C206E6F77207363616E2066696C65731A
:100E400020616761696E0D0A00000000F0B587B08F
:100E50001A4C1BA000F0A0F8064601461CA002F0A8
:100E600057FF4FF0FF3542F21177002E1CDD1422A0
:100E7000694613A005F04AFD69461AA002F048FF32
:100E80003946684606F07CFA70B10A2200216846AD
:100E9000FFF7B2F9401C024660601DA105A802F0F0
:100EA0005FFF2A4605A903E004492A46103167601E
:100EB00003A000F005F907B03046F0BD04010020A2
:100EC000313A2F6D795F696E6465782E63737600B1
:100ED00066696C652073697A652069732025640DE5
:100EE0000A000000676574206C617374206C696E81
:100EF000652066726F6D2066696C653A0D0A3E3E2C
:100F00003E0D0A25730D0A3C3C3C0D0A0000000012
:100F10000D0A25640000000010B50AA002F0F8FEDA
:100F200001220DA10D4804F0D3FD0D49087018B140
:100F30000CA002F0EDFEFEE7BDE810400FA002F0AD
:100F4000E7BE00006D792066617466732074657376
:100F5000742E0D0A00000000313A0000B405002094
:100F6000040100206661696C20746F206D6F756EDE
:100F7000742066617466732E0D0A000073756363D6
:100F800065656420746F206D6F756E742066617482
:100F900066732E0D0A000000F1B51A4C1A48A568B8
:100FA00004F0E4FC13221848009904F0B7FD207007
:100FB00010B1694615A015E0134E00213046F568C2
:100FC00004F0E2FC207010B1694616A00AE00D4B57
:100FD0001A490C330C48F26804F06DFF207020B100
:100FE000694617A002F094FE06E014491AA002F028
:100FF0008FFE23A002F08CFE034804F0B7FC2846C5
:10100000F8BD000004010020E41500206661696C51
:1010100020746F20665F6F70656E205B25735D0DB9
:101020000A0000006661696C20746F20665F6C7353
:1010300065656B205B25735D0D0A00006C26002042
:101040006661696C20746F20665F72656164205B05
:1010500025735D0D0A00000066696C6520636F6E84
:1010600074656E742061726520617320666F6C6CAC
:101070006F773A200D0A3E3E3E0D0A2573000000B0
:101080000D0A3C3C3C0D0A0010B506A002F040FEE3
:1010900009A10A48FFF7A7F8BDE81040074806F085
:1010A00059BB00007363616E696E672066696C6589
:1010B000732E2E2E0D0A0000313A00000826002063
:1010C000F7B515460E461C4804F050FC13221A488A
:1010D000009904F023FD194C207010B1694618A046
:1010E0001DE0B5F1FF3F02DA1320207009E0681C13
:1010F0000AD02946104804F047FC207010F0FF0F7A
:1011000005D0694614A00AE00B48C168F2E73146F1
:10111000094804F0DBFD207820B1694614A002F0F4
:10112000F7FDFEBD044804F021FC17A002F0F0FD1D
:101130000098FFF731FFFEBDE415002004010020F8
:101140006661696C20746F20665F6F70656E205BEE
:1011500025735D0D0A0000006661696C20746F20C4
:10116000665F6C7365656B205B25735D0D0A00001F
:101170006661696C20746F20665F72656164205BD4
:1011800025735D0D0A00000077726974652069732C
:1011900020737563636565642C206E6F77207265BC
:1011A0006164206974202D3E0D0A00002DE9F05F76
:1011B00090F821100024022903D004218163012426
:1011C00085E001680A6822F00E020A6001680A6878
:1011D00022F001020A603F4E3E4FB215DFF8F4C024
:1011E000DFF8F090DFF8ECA0DFF8E8B0DFF8E4E03B
:1011F0000168783F13011502ACF1640CA9F15009A4
:10120000AAF13C0AABF1280BAEF1140E4FF4801892
:10121000B14227D9B9420ED0614512D049451DD0FF
:10122000514518D0594518D0714501D1424615E0B5
:10123000294EB14201D1012210E0274E1436B142AD
:1012400001D110220AE0244E2836B14206D0224AAB
:101250003C32914201D11A4600E02A461E49091F3C
:101260000A602BE0B94213D0614517D0494522D01E
:1012700051451DD059451DD0714501D142461AE056
:10128000B14202D14FF0807215E0134EB14201D14C
:10129000012210E0104E1436B14201D110220AE0B2
:1012A0000D4E2836B14206D00B4A3C32914201D154
:1012B0001A4600E02A46074980394A60012180F831
:1012C0002110002180F82010416B01B18847204691
:1012D000BDE8F09F80000240080402402DE9F84F6D
:1012E000DFF8C891002409F1040A0AF1040B23462F
:1012F0000F270BF1040ED1E00125A54006EA0502F7
:10130000AA4276D1DFF8A8C14E68A6EB0C08664564
:101310002BD00DDC032E34D005DC36B3012E19D0D2
:10132000022E2FD11BE0112E16D0122E2AD119E039
:10133000B8F5881F19D006DCB8F5803F15D0B8F590
:10134000801F1FD111E0B8F5001F0ED0B8F5041FA3
:1013500018D10AE0CB6815E0CB681B1D12E0CB6802
:1013600008330FE0CB680C330CE08B682BB1012BFA
:101370004FF0080303D0456104E0042302E0056157
:1013800000E00023FF2A01D8064601E000F1040630
:101390004FEA840501D9A5F12005D6F8008007FAA7
:1013A00005FC28EA0C0803FA05F548EA0508C6F822
:1013B00000804D68ED0070D53E4DAE6946F00106E7
:1013C000AE61AD6924F0030605F0010500953A4DC4
:1013D00006EB050CDCF80850A607360F07FA06F8EE
:1013E00025EA0805DFF8D480404503D14FF0000816
:1013F00025E052E0DFF8C880404502D14FF00108F7
:101400001DE0DFF8C080404502D14FF0020816E031
:10141000DFF8B480404502D14FF003080FE0DFF859
:10142000AC80404502D14FF0040808E0DFF8A0800E
:10143000404502D14FF0050801E04FF0060808FAD8
:1014400006F848EA0508CCF808804D68D9F800602D
:10145000ED034D4601D5164300E096432E604D68DE
:10146000DAF80060AD03554601D5164300E0964317
:101470002E604D68DBF80060ED025D4601D5164335
:1014800000E096432E604D68DEF80060AD027546C0
:1014900001D5164300E096432E60641C0A68164688
:1014A000E2407FF429AFBDE8F88F0000000401405E
:1014B000000011100010024000000140000801402F
:1014C000000C0140001001400014014000180140D0
:1014D000001C01408068084000D0012070470AB11C
:1014E000016170470904FBE701488068704700000C
:1014F000040000200248816802781144816070472E
:1015000004000020074810B5016841F01001016097
:10151000032000F079F8032000F006F800F024F82A
:10152000002010BD0020024070B50D4D04464FF460
:101530007A712878B1FBF0F00A490968B1FBF0F044
:1015400000F072FB48B9102C07D200222146501E31
:1015500000F03AF800206C6070BD012070BD000002
:1015600004000020000000200E4808B5816941F009
:1015700001018161816901F001010091C16941F0BE
:101580008051C161C06900F080500090052000F0DA
:101590003BF80548416821F0E06141F0007141608D
:1015A00008BD00000010024000000140002809DBD7
:1015B00000F01F02012191404009800000F1E0206D
:1015C000C0F8001170470000F0B40E4B1B680C46C9
:1015D000C3F30223C3F10705042D00D90425191D07
:1015E000072901D2002300E0DB1E012606FA05F1DF
:1015F000491E214099409E40761E16403143F0BC62
:1016000002F0D6BB0CED00E0064900F007020868C6
:101610004FF6FF03184040EA0220034A10430860D7
:10162000704700000CED00E00000FA052DE9F047DE
:101630000F46050061D0434E306800F00700B84205
:1016400009D2306820F0070038433060306800F07D
:101650000700B84251D128683B4C810712D540079A
:1016600003D5606840F4E06060602878000703D527
:10167000606840F4605060606068A96820F0F00025
:10168000084360602878C00728D06868012810D017
:101690002168022810D0890700292EDA616821F01C
:1016A000030101436160FFF71FFF804641F2883963
:1016B0000DE021688903EFE78901EDE7FFF714FFEB
:1016C000A0EB0801494502D90320BDE8F087606816
:1016D000696800F00C00B0EB810FEFD1306800F0CA
:1016E0000700B8420BD9306820F00700384330605B
:1016F000306800F00700B84201D00120E5E7287803
:10170000400705D56068E96820F4E0600843606040
:101710002878000706D56068296920F4605040EAFF
:10172000C100606000F038F86168084AC1F3031135
:10173000515CC8400649086006480068FFF7F4FE9F
:101740000020C2E70020024000100240CE880008BE
:10175000000000200800002004480549006849688E
:10176000044AC1F30221515CC840704700000020C8
:1017700000100240DE8800080448054900684968F6
:10178000044AC1F3C221515CC840704700000020E8
:1017900000100240DE88000812A185B00FC98DE854
:1017A0000F0014A0144A006804905168134801F017
:1017B0000C03042B10D0082B0ED1C1F38343C903B3
:1017C0001DF803000AD5516804AAC1F34041515CD9
:1017D0000A4A5043B0FBF1F005B07047084948434E
:1017E000FAE7000002030405060708090A0B0C0DBE
:1017F0000E0F1010010200000010024000127A00CB
:1018000000093D002DE9F84F040070D02078C04D4C
:10181000C00749D06868C0F38100012807D0686814
:10182000C0F38100022809D16868C00306D5286882
:10183000800339D560680028E7D035E06068B0F5EE
:10184000803F0BD010B1B0F5A02F11D0286820F444
:1018500080302860286820F4802002E0286840F466
:1018600080302860606890B1FFF73EFE06460AE0CF
:10187000286840F480202860F0E700BFFFF734FEBE
:10188000801B642873D828688003F7D50CE0FFF725
:101890002BFE064605E000BFFFF726FE801B6428EE
:1018A000F0D828688003F7D420789A4E80074FF04C
:1018B00001094FF0000839D5686810F00C0F07D007
:1018C0006868C0F38100022809D16868C00306D4A3
:1018D0002868800714D52069012808D110E0206904
:1018E000B0B1C6F80090FFF7FFFD074605E00AE13A
:1018F000FFF7FAFDC01B0228C4D828688007F7D577
:101900002868616920F0F80040EAC10028600DE015
:10191000C6F80080FFF7E8FD074604E0FFF7E4FDA6
:10192000C01B022823D828688007F7D42078000736
:101930002CD57948A169D9B1C0F80090FFF7D4FD42
:10194000074604E0FFF7D0FDC01B02280FD8686AE5
:101950008007F7D571484FF4FA510068B0FBF1F0F9
:10196000009000BF0098411E0091FAD20EE080E086
:10197000C0F80080FFF7B8FD074604E0FFF7B4FDAC
:10198000C01B022875D8686A8007F7D42078400702
:1019900060D5E8690027C00008D4E86940F08050AD
:1019A000E861E869012700F0805000905C48016818
:1019B000C90513D40168834641F480710160FFF7C3
:1019C00093FD824606E000BFFFF78EFDA0EB0A0004
:1019D00064284ED8DBF80000C005F5D5E068012882
:1019E0000AD008B1052813D0286A20F00100286227
:1019F000286A20F0040002E0286A40F00100286212
:101A0000E06841F2883B98B1FFF76EFD82460BE03B
:101A1000286A40F004002862EEE700BFFFF764FD8B
:101A2000A0EB0A0159455AD8286A8007F6D50CE080
:101A3000FFF75AFD824605E0FFF756FDA0EB0A01CD
:101A400059454CD8286A8007F6D41FB1E86920F0C0
:101A50008050E861E06988B36968C1F381010229B7
:101A600044D00228C6F8608004D0FFF73DFD04464C
:101A700038E034E0FFF738FD074604E0FFF734FDB7
:101A8000C01B02282BD828688001F7D4206AB0F543
:101A9000803F05D16868A16820F400300843686081
:101AA000D4E908010843696821F4741108436860A7
:101AB000C6F86090FFF718FD044606E025E000BF79
:101AC000FFF712FD001B022809D828688001F7D50E
:101AD0001BE000BFFFF708FD001B022802D903200E
:101AE000BDE8F88F28688001F4D40EE00128F7D013
:101AF0006868226A00F48031914204D1616A00F47E
:101B00007010884201D00120EAE70020E8E70000D9
:101B100000100240000042428004424200000020C7
:101B20000070004070B5040005D00025A56294F84F
:101B3000510010B106E0012070BD84F850502046DD
:101B400000F02EF8022084F851002068016821F08E
:101B500040010160D4E901010843D4E903121143B3
:101B6000084361690843218B01F400710843E1696E
:101B70000843216A0843A16A084321680860A069F4
:101B8000042101EA1040216848602068C16921F4FD
:101B90000061C1616565012084F85100002070BDBD
:101BA00030B585B000240094019402940394006839
:101BB0001449884223D11448816941F480518161DC
:101BC000816901F480510491816941F004018161CE
:101BD00080690E4D00F004000490A02000900220C7
:101BE00001900320039069462846FFF777FB4020C9
:101BF000CDE90004694628460294FFF76FFB05B063
:101C000030BD0000003001400010024000080140DB
:101C10004FF0E0210428086903D020F00400086197
:101C2000704740F00400FAE710B5401EB0F1807F25
:101C300001D3012010BD4FF0E02460610F21601737
:101C400002F0B6F80020A06107202061002010BD3E
:101C500010B5040003D094F83D0010B107E0012056
:101C600010BD002084F83C00204600F00CF8022053
:101C700084F83D00211D206801F044FA012084F819
:101C80003D00002010BD70470168CA6842F00102A3
:101C9000CA600068816801F00701062903D0016865
:101CA00041F00101016000207047704710F8391FB2
:101CB000407808437047000070B502680446106819
:101CC000D168536910F00F0F51D003F0010501F4F2
:101CD000907635435DD0C20705D0CA0503D5E26BC7
:101CE00042F00102E263420705D5DA0703D0E26B56
:101CF00042F00202E263820705D5DA0703D0E26B05
:101D000042F00402E263020705D5DA0703D0E26B72
:101D100042F00802E263E26B002A34D0800604D568
:101D2000880602D5204601F091FA20684069E16BEF
:101D3000C0F3801001F008010143204624D001F0D7
:101D400077FA2068416949061AD5416921F04001B6
:101D50004161606BA0B11B494163606BFFF726FADC
:101D6000002810D0606B416BBDE8704008478306C7
:101D70000FD58B060DD52046BDE8704001F066BA40
:101D80002046FFF792FF70BDFFF78FFF0020E06352
:101D900070BD030606D50B0604D52046BDE870408D
:101DA00001F0FCBA4006F3D54806F1D5D1682046CB
:101DB00021F04001D160202184F8391000F0D2F8E0
:101DC00070BD00002132000870B5040004D094F802
:101DD0003900002510B106E0012070BD84F83850AC
:101DE000204600F023F8242084F839002068C168D8
:101DF00021F40051C160204601F074FA20680169A5
:101E000021F4904101612068416921F02A0141617A
:101E10002068C16841F40051C160E563202084F866
:101E2000390084F83A00002070BD000010B5006849
:101E30001E4986B0884236D11D48816941F00401AF
:101E40008161816901F004010491816941F480415B
:101E50008161816901F480410491816941F001014E
:101E600081618069134C00F0010004904FF4007010
:101E70000090022001900120029003200390694607
:101E80002046FFF72BFA20150090002001906946AC
:101E90002046FFF723FA2520FFF788FB032211468F
:101EA0002520FFF791FB06B010BD0000003801406F
:101EB000001002400008014090F83A30202B22D157
:101EC000F9B1F2B190F83830012B1CD081628285D3
:101ED000C2850021C163222280F83A2080F83810A0
:101EE0000168CA6842F48072CA6001684A6942F0B7
:101EF00001024A610068C16841F02001C160002010
:101F000070470120704702207047000030B500681C
:101F1000114988420CD1114841880A0408D402466C
:101F20004C0412784FF0000306D50A2A01D04380F2
:101F300030BD41F400410DE00D2A09D0C1F30D047C
:101F4000074D491C89B22A554180C729EFD830BDB9
:101F500041F48041418030BD003801402001002023
:101F6000AC4700207047FEE71CB5CDE900010248F0
:101F70000FC800F00DF81CBD1C0000201CB5CDE9F9
:101F8000000102480FC800F003F81CBD2C0000201F
:101F90002DE9F8430546DDE908470E469046994687
:101FA00000F0CFF84B46424631462846009400F0F8
:101FB00052F94B4642463146284600F012F94B464C
:101FC000424631462846009700F045F94B464246C6
:101FD0003146284600F005F94B4642463146284630
:101FE00000F0AFF844F0010000904B464246314605
:101FF000284600F030F94B4642463146284600F06C
:10200000F0F8002000904B4642463146284600F04A
:1020100059F804464B4642463146284600F0BCF883
:102020002046BDE8F8832DE9F843002406460F4614
:1020300090469946009400F05AF9012003F0C4F844
:1020400001254B46424639463046009500F049F995
:10205000012003F0B9F84B46424639463046009419
:1020600000F03FF9012003F0AFF84B4642463946F5
:102070003046009500F03BF9BDE8F8832DE9F843C0
:10208000012405460E4617469846009400F02FF9A5
:10209000012003F099F843463A4631462846009419
:1020A00000F01FF9012003F08FF800200090434654
:1020B0003A463146284600F014F9BDE8F8430120BD
:1020C00003F082B82DE9FF4F81B00024DDF838809D
:1020D00081468A4693462546012627466006040E19
:1020E00000965A4651464846049B00F0FAF80120F3
:1020F00003F06AF85A4651464846049B00F0EDF852
:1021000008B1641CE4B200975A4651464846049B05
:1021100000F0E7F8012003F057F86D1CEDB2082D30
:10212000DCD3049BB8F1010F5A465146484605D00E
:10213000FFF7A4FF05B02046BDE8F08FFFF773FF5F
:10214000F8E72DE9F843012405460E461746984660
:10215000009400F0CCF843463A46314628460094B5
:1021600000F0BFF8012003F02FF8002443463A4660
:1021700031462846009400F0BAF8012003F024F814
:1021800043463A4631462846009400F0AAF8BDE896
:10219000F843012003F018B82DE9F8430546002064
:1021A00000900E4617469846284600F0A0F80120F9
:1021B00003F00AF8012443463A4631462846009483
:1021C00000F08FF8012002F0FFFF43463A46314607
:1021D0002846009400F08BF8BDE8F843012002F097
:1021E000F3BF2DE9F843012506460F469046994670
:1021F0000024009500F07BF8012002F0E5FF4B463B
:10220000424639463046009500F06BF8012002F056
:10221000DBFF0CE0641CE4B2FA2C08D94B464246C2
:1022200039463046FFF7B8FF0020BDE8F8834B463B
:1022300042463946304600F050F80028EAD1009076
:102240004B4642463946304600F04BF8012002F03A
:10225000BBFF0120E9E72DE9F84F00240A9E8046E4
:10226000894692469B46254601275B46524649468B
:102270004046009500F035F8012002F0A5FF300639
:1022800001D5009700E000955B465246494640461E
:1022900000F02DF8012002F097FF5B4652464946B8
:1022A0004046009700F01DF8012002F08DFF5B46CC
:1022B000524649464046009500F013F87006641CEB
:1022C000060EE4B2082CD0D35B465246494640463F
:1022D000009700F00CF8BDE8F88F184691B2FFF7B0
:1022E000F9B80346084699B2009AFFF7F8B830B437
:1022F00091B2029C1846224630BCFFF7F0B8FFF7B7
:102300003DBEFFF731BE000010B52821D620FFF7F3
:10231000F6FF124C29212070D620FFF7F0FF6070E5
:102320002A21D620FFF7EBFFA0702B21D620FFF744
:10233000E6FFE0702C21D620FFF7E1FF20712D2170
:10234000D620FFF7DCFF6071A4F10C00218801802A
:1023500061884180A188818010BD00004800002074
:1023600010B52221D620FFF7CAFF114C232120707F
:10237000D620FFF7C4FF60702421D620FFF7BFFFEF
:10238000A0702521D620FFF7BAFFE0702621D620C5
:10239000FFF7B5FF20712721D620FFF7B0FF60714E
:1023A000A01F2188018061884180A188818010BDA3
:1023B0004800002010B5FFF7A7FFBDE81040FFF769
:1023C000CFBF002005F068B82DE9F04385B00020AC
:1023D00000900190029003902B48816941F0200108
:1023E0008161816901F020010491816941F010014E
:1023F0008161816901F010010491816941F004015A
:102400008161816901F004010491816941F0080151
:10241000816180691D4F00F00800049001220421B1
:102420003846FFF75CF8DFF868800022102140464C
:10243000FFF755F8DFF85C904FF44C660122314607
:102440004846FFF74CF801240420CDE90004032599
:1024500069463846CDE90245FEF740FF1020CDE938
:1024600000040220CDE9024069464046FEF736FFEF
:1024700001AA1120009682E8310069464846FEF71D
:102480002DFF05B0BDE8F0830010024000100140B0
:1024900000080140000C01400346084699B2C2F30F
:1024A0000722FFF71CB80346084699B2D2B2FFF7DD
:1024B00016B80246084691B2FFF70CB8FEE7FEE7F1
:1024C0007047000010B500211A20FFF71AFF124CC8
:1024D000012120701A20FFF714FF607002211A20DA
:1024E000FFF70FFFA07003211A20FFF70AFFE0702B
:1024F00004211A20FFF705FF207105211A20FFF79C
:1025000000FF6071A01F2188418061880180A1883F
:102510004942818010BD000054000020FFF7D2BF67
:102520000FB420222DE9F041BAB040A9DDE95E5494
:102530001BA8609EFDF72CFE48A93622884623A8DA
:10254000FDF726FEBDF85601ADF8C2005698319051
:10255000BDF85C01ADF8C800BDF85E01ADF8CA0079
:1025600058A911220F4633A8FDF712FE9DF87101FC
:102570008DF8DD005D98389000201A9068221FA920
:102580006846FDF705FE0DF16C0C9CE80F0000F0AD
:1025900085FC202240A91BA8FDF7FAFD3622414602
:1025A00023A8FDF7F5FDBDF85601ADF8C200569819
:1025B0003190BDF85C01ADF8C800BDF85E01ADF822
:1025C000CA001122394633A8FDF7E2FD9DF87101DA
:1025D0008DF8DD005D98389003201A9068221FA9BD
:1025E0006846FDF7D5FD0DF16C0C9CE80F0000F07E
:1025F0007DFC202240A91BA8FDF7CAFD36224146DA
:1026000023A8FDF7C5FDBDF85601ADF8C2005698E8
:102610003190BDF85C01ADF8C800BDF85E01ADF8C1
:10262000CA001122394633A8FDF7B2FD9DF87101A9
:102630008DF8DD005D983890C6F307401A90682247
:102640001FA96846FDF7A4FD0DF16C0C9CE80F0076
:1026500000F04CFC202240A91BA8FDF799FD362272
:10266000414623A8FDF794FDBDF85601ADF8C20020
:1026700056983190BDF85C01ADF8C800BDF85E0118
:10268000ADF8CA001122394633A8FDF781FD9DF847
:1026900071018DF8DD005D983890C6F307201A901F
:1026A00068221FA96846FDF773FD0DF16C0C9CE8CC
:1026B0000F0000F01BFC202240A91BA8FDF768FDBD
:1026C0003622414623A8FDF763FDBDF85601ADF85B
:1026D000C20056983190BDF85C01ADF8C800BDF855
:1026E0005E01ADF8CA001122394633A8FDF750FD4E
:1026F0009DF871018DF8DD005D983890F0B21A9068
:1027000068221FA96846FDF743FD0DF16C0C9CE89B
:102710000F0000F0EBFB2DE0FDF73AFD36224146BD
:1027200023A8FDF735FDBDF85601ADF8C200569857
:102730003190BDF85C01ADF8C800BDF85E01ADF8A0
:10274000CA001122394633A8FDF722FD9DF8710118
:102750008DF8DD005D983890FF201A9068221FA93F
:102760006846FDF715FD1BAE96E80F0000F0BEFBB6
:1027700005F8010B641EA4B24FF0200240A91BA86B
:10278000CAD2FDF705FD3622414623A8FDF700FD1C
:10279000BDF85601ADF8C20056983190BDF85C0105
:1027A000ADF8C800BDF85E01ADF8CA001122394687
:1027B00033A8FDF7EDFC9DF871018DF8DD005D9803
:1027C000389001201A9068221FA96846FDF7E0FCA6
:1027D0001BAC94E80F0000F061FB3AB0BDE8F001DB
:1027E0005DF814FB0FB42DE9F04FBDB05EAADDE932
:1027F000658414F0FF01C1F10000C6B2649DBDF80C
:1028000074914EA8CDE93B204FEA182708F0FF0A43
:102810003ED0E0B24042C0B204EB000B002F78D0B3
:10282000A8EB060080B2070A00F0FF08202246A9A4
:102830001DA8FDF7ADFC362225A83C99FDF7A8FCA4
:10284000BDF86E01ADF8CA005C983390BDF8760112
:10285000ADF8D090ADF8D200112235A83B99FDF724
:1028600097FC9DF889018DF8E50063983A901A95D8
:10287000CDE91B64682221A96846FDF789FC0DF1AA
:10288000740A9AE80F0000F081F95C4635441FE1B4
:10289000F7BB202246A91DA8FDF77AFC362225A801
:1028A0003C99FDF775FCBDF86E01ADF8CA005C9867
:1028B0003390ADF8D09026E1FDF76AFC362225A8CA
:1028C0003C99FDF765FCBDF86E01ADF8CA005C9857
:1028D0003390BDF87401ADF8D000BDF87601ADF8C5
:1028E000D200112235A83B99FDF752FC9DF88901D1
:1028F0008DF8E50063983A904FF480701A95CDE911
:102900001B04682221A96846FDF742FC1DAE01E0C8
:1029100008E042E096E80F0000F038F904F5807412
:1029200005F580757F1EFFB24FF0200246A91DA855
:10293000C2D2FDF72DFC362225A83C99FDF728FCD4
:10294000BDF86E01ADF8CA005C983390BDF8740113
:10295000ADF8D000BDF87601ADF8D200112235A84F
:102960003B99FDF715FC9DF889018DF8E50063980A
:102970003A901A95CDE91BA4682221A9684600BFA8
:10298000FDF706FC1DAE96E80F0000BF00F0FEF854
:102990003DB0BDE8F00F5DF814FBB2457FF679AFAE
:1029A000AAEB0600C7B2202246A91DA8FDF7F0FB3E
:1029B000362225A83C99FDF7EBFBBDF86E01ADF87A
:1029C000CA005C983390BDF87601ADF8D090ADF8B0
:1029D000D200112235A83B99FDF7DAFB9DF8890159
:1029E0008DF8E50063983A901A95CDE91B6468224A
:1029F00021A96846FDF7CCFB0DF1740898E80F009B
:102A000000F0C4F85C463544202246A91DA8FDF715
:102A1000BFFB362225A83C99FDF7BAFBBDF86E0135
:102A2000ADF8CA005C983390BDF87401ADF8D000E1
:102A3000BDF87601ADF8D200112235A83B99FDF71B
:102A4000A7FB9DF889018DF8E50063983A901A95E7
:102A5000CDE91B74682221A96846FDF799FB98E827
:102A60000F0093E7202246A91DA8FDF791FB36220F
:102A700025A83C99FDF78CFBBDF86E01ADF8CA00A6
:102A80005C983390BDF87401ADF8D000BDF87601C4
:102A9000ADF8D200112235A83B99FDF779FB9DF8DE
:102AA00089018DF8E50063983A904FF480701A958B
:102AB000CDE91B04682221A96846FDF769FB1DAE1C
:102AC00096E80F0000F062F804F5807405F5807553
:102AD0007F1EFFB2C6D2B8F1000F3FF459AF2022DB
:102AE00046A91DA8FDF754FB362225A83C99FDF701
:102AF0004FFBBDF86E01ADF8CA005C983390BDF88D
:102B00007401ADF8D000BDF87601ADF8D200112205
:102B100035A83B99FDF73CFB9DF889018DF8E50050
:102B200063983A901A95CDE91B84682221A96846DA
:102B300026E70FB4362200B597B020A96846FDF706
:102B400027FBBDF8B600ADF836002E980E90BDF804
:102B5000BC00ADF83C00BDF8BE00ADF83E0011224F
:102B600030A910A8FDF714FB9DF8D1008DF8510095
:102B7000359815906846FEF7D5FF009800680099D3
:102B800040F04000086017B05DF814FB0FB42DE969
:102B9000F041BAB0DDE95F455E9E01F023F82022E6
:102BA00040A91BA8FDF7F4FA48A93622884623A8B5
:102BB000FDF7EEFABDF85601ADF8C2005698319017
:102BC000BDF85C01ADF8C800BDF85E01ADF8CA0003
:102BD00058A911220F4633A8FDF7DAFA9DF87101C2
:102BE0008DF8DD005D98389000201A9068221FA9AA
:102BF0006846FDF7CDFA0DF16C0C9CE80F0000F073
:102C00004DF9202240A91BA8FDF7C2FA3622414601
:102C100023A8FDF7BDFABDF85601ADF8C2005698DD
:102C20003190BDF85C01ADF8C800BDF85E01ADF8AB
:102C3000CA001122394633A8FDF7AAFA9DF871019E
:102C40008DF8DD005D98389002201A9068221FA947
:102C50006846FDF79DFA0DF16C0C9CE80F0000F042
:102C600045F9202240A91BA8FDF792FA36224146D9
:102C700023A8FDF78DFABDF85601ADF8C2005698AD
:102C80003190BDF85C01ADF8C800BDF85E01ADF84B
:102C9000CA001122394633A8FDF77AFA9DF871016E
:102CA0008DF8DD005D983890C5F307401A906822D2
:102CB0001FA96846FDF76CFA0DF16C0C9CE80F003B
:102CC00000F014F9202240A91BA8FDF761FA362272
:102CD000414623A8FDF75CFABDF85601ADF8C200E5
:102CE00056983190BDF85C01ADF8C800BDF85E01A2
:102CF000ADF8CA001122394633A8FDF749FA9DF80C
:102D000071018DF8DD005D983890C5F307201A90A9
:102D100068221FA96846FDF73BFA0DF16C0C9CE890
:102D20000F0000F0E3F8202240A91BA8FDF730FABD
:102D30003622414623A8FDF72BFABDF85601ADF81F
:102D4000C20056983190BDF85C01ADF8C800BDF8DE
:102D50005E01ADF8CA001122394633A8FDF718FA12
:102D60009DF871018DF8DD005D983890E8B21A90F9
:102D700068221FA96846FDF70BFA0DF16C0C9CE860
:102D80000F0000F0B3F8B4F5807F33D936A000F01F
:102D9000BFFFFF24202240A91BA8FDF7F9F9362226
:102DA000414623A8FDF7F4F9BDF85601ADF8C2007D
:102DB00056983190BDF85C01ADF8C800BDF85E01D1
:102DC000ADF8CA001122394633A8FDF7E1F99DF8A4
:102DD00071018DF8DD005D98389030781A90682286
:102DE0001FA96846FDF7D4F91BAD95E80F0000F068
:102DF0007DF8761C641EA4B2CCD2202240A91BA868
:102E0000FDF7C6F93622414623A8FDF7C1F9BDF802
:102E10005601ADF8C20056983190BDF85C01ADF88E
:102E2000C800BDF85E01ADF8CA001122394633A8CA
:102E3000FDF7AEF99DF871018DF8DD005D983890D1
:102E400001201A9068221FA96846FDF7A1F91BAC62
:102E500094E80F0000F022F83AB0BDE8F0015DF808
:102E600014EB00F0B9BD00003C3C2D464C415348EA
:102E70002D4552524F522D3E3E205350495F464CF5
:102E80004153485F50616765577269746520746F7C
:102E90006F206C61726765210A0000000FB4BDF8F5
:102EA00000101E9A019804B0FEF719BB10B503A0DC
:102EB0001C9900F02DFF002010BD00003C3C2D4669
:102EC0004C4153482D4552524F522D3E3E205350B7
:102ED0004920B5C8B4FDB3ACCAB1216572726F7236
:102EE000436F6465203D2025640A00000FB436223C
:102EF000F0B5EDB07AA90F4657A8909DFDF748F9B7
:102F0000BDF81E02ADF8920188986590BDF8244284
:102F1000ADF89841BDF82602ADF89A018AA91122B0
:102F20000E4667A8FDF734F99DF839028DF8AD011A
:102F30008F986C904FF4005001462DE0491E2BD223
:102F4000202272A91BA8FDF723F93622394623A8AF
:102F5000FDF71EF9BDF81E02ADF8C2008898319049
:102F6000BDF82602ADF8C840ADF8CA0011223146BE
:102F700033A8FDF70DF99DF839028DF8DD008F9823
:102F8000389000201A9068221FA96846FDF700F9C2
:102F90001BAD95E80F0036E0579A9268D24392072E
:102FA000CCD45799CD6034E0401E32D2202272A991
:102FB00039A8FDF7EDF83622394641A8FDF7E8F8C3
:102FC000BDF81E02ADF83A0188984F90BDF8240272
:102FD000ADF84001BDF82602ADF84201112231469C
:102FE00051A8FDF7D5F89DF839028DF855018F9855
:102FF000569001201A9068223DA96846FDF7C8F84E
:1030000039AC94E80F00FFF751FF6DB0F0BC5DF8EC
:1030100014FB57998968C943C907C5D15798C06837
:10302000C0B2F2E77047FEF765BA30B58FB028211D
:103030006846FDF7C6F814210AA8FDF7C2F8012179
:103040000804CDE900100024029402250491CDE982
:1030500007504FF4E01009906846FEF7D3FB08B123
:1030600072B6FEE70F20CDE90A054FF48060CDE986
:103070000C4002210AA80E94FEF7D8FA002801D0CD
:1030800072B6FEE70FB030BD0D48016841F0010196
:10309000016041680B4A1140416001680A4A1140D1
:1030A0000160016821F480210160416821F4FE0182
:1030B00041604FF41F0181600449C00308607047FC
:1030C000001002400000FFF8FFFFF6FE08ED00E0F0
:1030D00010B50A4C2068C068C043C00709D1084831
:1030E0000069804721680020486221686420C86226
:1030F000E06021686FF00100086110BDB448002055
:10310000A4010020F0B502681C4B1D4D1D4E1E4F42
:103110001E4C4FF0804C984209D0A04207D0604529
:1031200005D0A84203D0B04201D0B84204D122F069
:10313000700E4A6842EA0E02984209D0A04207D0B7
:10314000604505D0A84203D0B04201D0B84203D1B7
:1031500022F44075CA682A434D6922F080022A434E
:1031600002608A68C2620A688262984201D0A04204
:1031700001D10969016301214161F0BD002C0140C9
:103180000004004000080040000C004000340140F2
:1031900038B5114A05460C46D06940F00400D061AC
:1031A000D069032200F00400009011461E20FEF7B3
:1031B0000BFA1E20FEF7FAF9094A0848C2E9000492
:1031C0000020C2E9020510611046FEF741FDBDE88E
:1031D00038400348FEF758BD001002400008004088
:1031E000B448002010B5482001F0D6FF4FF4E1307C
:1031F00004F0B6FB542004F003FFBDE8104001A02A
:1032000000F086BD287965732920D4DAD3C3D5FDB3
:10321000B5E3D4ADD7D3B5C4BAAFCAFD2E0D0A00FD
:1032200010B5406A0021C185C184FEF73EFD10BD86
:103230000168CA6822F49072CA6001684A6922F083
:1032400001024A61202180F83A10704710B590F8C9
:103250003A10222901D0022010BD8168B1F5805FAB
:1032600011D00169002901681FD0496801F07F036E
:10327000816A4A1C82620B70C18D491E0904090CC7
:10328000C18518D02BE00269816A002A0268526861
:1032900005D0D2B20A80816A491C8162ECE7C2F390
:1032A00008020A80816A891CF7E74A68816A4B1C18
:1032B00083620A70E0E70168CA6822F02002CA60EF
:1032C0000168CA6822F48072CA6001684A6922F003
:1032D00001024A61202180F83A10FEF717FE002013
:1032E00010BD00002DE9F041044600680169E26864
:1032F00021F44051114301612169A06808436169CB
:1033000008432168CA6841F20C639A430243CA60C9
:1033100020684169A26921F44071114341611E494D
:10332000206864253226884202D1FEF725FA01E0A2
:10333000FEF712FA00EBC00101EB001160686FF0BC
:1033400018078000B1FBF0F2B2FBF5F2B1FBF0F32D
:103350007A4303EB8202B1FBF0F306EB0212B2FBFD
:10336000F5F2B3FBF5F302F0F00202EB0312B1FB4E
:10337000F0F3B1FBF0F0B0FBF5F0784303EB800025
:1033800006EB0010B0FBF5F0216800F00F001044D0
:103390008860BDE8F08100000038014090F83910E5
:1033A000212901D0022070478168B1F5805F016A50
:1033B0000BD04A1C0262026809785160C18C491E18
:1033C0000904090CC1840ED017E009880268C1F312
:1033D0000801516001690029016A02D0491C01629B
:1033E000ECE7891CFBE70168CA6822F08002CA602A
:1033F0000068C16841F04001C160002070470000D2
:1034000010B50848FEF758FC0648FEF74FFC202888
:10341000FAD1012204490348FEF74EFD0028F8D1F5
:1034200010BD00007448002020010020FEE70000CD
:10343000F0B5B9B0054600F0D5FB00F0CDFA20227A
:103440008C491BA8FCF7A4FE8A49362220310F467E
:1034500023A8FCF79DFE874CB4F85600ADF8C200D7
:1034600054F8580F3190A088ADF8C800E088ADF846
:10347000CA008049112260310E4633A8FCF788FE4D
:10348000607E8DF8DD00E069389000201A90682297
:103490001FA96846FCF77CFE0DF16C0C9CE80F0040
:1034A000FFF7FCFC202273491BA8FCF771FE3622B3
:1034B000394623A8FCF76CFE34F8020CADF8C200C4
:1034C00020683190A088ADF8C800E088ADF8CA0047
:1034D0001122314633A8FCF75BFE607E8DF8DD00DB
:1034E000E069389020201A9068221FA96846FCF7EE
:1034F0004FFE0DF16C0C9CE80F00FFF7F7FC20224B
:103500005C491BA8FCF744FE3622394623A8FCF789
:103510003FFE34F8020CADF8C20020683190A0885C
:10352000ADF8C800E088ADF8CA001122314633A8D2
:10353000FCF72EFE607E8DF8DD00E0693890C5F363
:1035400007401A9068221FA96846FCF721FE0DF17A
:103550006C0C9CE80F00FFF7C9FC202245491BA812
:10356000FCF716FE3622394623A8FCF711FE34F884
:10357000020CADF8C20020683190A088ADF8C800F8
:10358000E088ADF8CA001122314633A8FCF700FEEE
:10359000607E8DF8DD00E0693890C5F307201A9051
:1035A00068221FA96846FCF7F3FD0DF16C0C9CE83E
:1035B0000F00FFF79BFC20222E491BA8FCF7E8FD1B
:1035C0003622394623A8FCF7E3FD34F8020CADF8A7
:1035D000C20020683190A088ADF8C800E088ADF83E
:1035E000CA001122314633A8FCF7D2FD607E8DF867
:1035F000DD00E0693890E8B21A9068221FA9684699
:10360000FCF7C6FD0DF16C0C9CE80F00FFF76EFC9B
:10361000202218491BA8FCF7BBFD3622394623A8F7
:10362000FCF7B6FD34F8020CADF8C200206831900A
:10363000A088ADF8C800E088ADF8CA001122314674
:1036400033A8FCF7A5FD607E8DF8DD00E0693890B9
:1036500001201A9068221FA96846FCF799FD1BAC4F
:1036600094E80F00FFF71AFC39B0BDE8F04000F015
:10367000B3B90000800000202DE9F043B9B020224A
:1036800089491BA8FCF784FD8749362220318946E9
:1036900023A8FCF77DFD844CB4F85600ADF8C200B9
:1036A00054F8580F3190A088ADF8C800E088ADF804
:1036B000CA007D4911226031884633A8FCF768FDB5
:1036C000607E8DF8DD00E069389000201A90682255
:1036D0001FA96846FCF75CFD1BAD95E80F00FFF7DE
:1036E000DDFB202270491BA8FCF752FD362249461B
:1036F00023A8FCF74DFD34F8020CADF8C200206899
:103700003190A088ADF8C800E088ADF8CA00112259
:10371000414633A8FCF73CFD607E8DF8DD00E06992
:1037200038909F201A9068221FA96846FCF730FD48
:1037300095E80F00FFF7DAFB20225B491BA8FCF796
:1037400027FD3622494623A8FCF722FD34F8020C57
:10375000ADF8C20020683190A088ADF8C800E088BC
:10376000ADF8CA001122414633A8FCF711FD607E76
:103770008DF8DD00E0693890FF2568221FA96846B2
:103780001A95FCF705FD1BAE96E80F00FFF7AEFBA0
:103790000746202244491BA8FCF7FAFC362249467A
:1037A00023A8FCF7F5FC34F8020CADF8C200206841
:1037B0003190A088ADF8C800E088ADF8CA001122A9
:1037C000414633A8FCF7E4FC607E8DF8DD00E0693B
:1037D000389068221FA968461A95FCF7D9FC96E82C
:1037E0000F00FFF783FB064620222F491BA8FCF79A
:1037F000CFFC3622494623A8FCF7CAFC34F8020C59
:10380000ADF8C20020683190A088ADF8C800E0880B
:10381000ADF8CA001122414633A8FCF7B9FC607E1E
:103820008DF8DD00E069389068221FA968461A9576
:10383000FCF7AEFC1BAD95E80F00FFF757FB054604
:10384000202219491BA8FCF7A3FC3622494623A8CD
:10385000FCF79EFC34F8020CADF8C20020683190F1
:10386000A088ADF8C800E088ADF8CA001122414632
:1038700033A8FCF78DFC607E8DF8DD00E0693890A0
:1038800001201A9068221FA96846FCF781FC1BAC36
:1038900094E80F00FFF702FB380440EA062139B034
:1038A00041EA0500BDE8F08380000020F0B5B9B022
:1038B000202248491BA8FCF76BFC464936222031E0
:1038C0000F4623A8FCF764FC424C34F8560FADF8C1
:1038D000C200404D2D1F55F85C0F3190A888ADF8FF
:1038E000C8002089ADF8CA003A49112260310E465D
:1038F00033A8FCF74DFCE07E8DF8DD00D4F81E0007
:10390000389000201A9068221FA96846FCF740FCF6
:103910000DF16C0C9CE80F00FFF7C0FA20222D4936
:103920001BA8FCF735FC3622394623A8FCF730FCEF
:103930002088ADF8C20028683190A888ADF8C8008A
:103940002089ADF8CA001122314633A8FCF720FCCB
:10395000E07E8DF8DD00D4F81E003890AB201A9080
:1039600068221FA96846FCF713FC0DF16C0C9CE85B
:103970000F00FFF7BBFA202216491BA8FCF708FC32
:103980003622394623A8FCF703FC2088ADF8C20094
:1039900028683190A888ADF8C8002089ADF8CA0021
:1039A0001122314633A8FCF7F3FBE07E8DF8DD00F1
:1039B000D4F81E00389001201A9068221FA968468A
:1039C000FCF7E6FB1BAC94E80F00FFF767FA39B091
:1039D000F0BD0000800000202DE9F04FB9B020229A
:1039E0007F491BA8FCF7D4FB7D49362220318A464B
:1039F00023A8FCF7CDFB7A4C34F8560FADF8C20083
:103A0000774D2D1FE86D3190B5F86000ADF8C80016
:103A10002089ADF8CA0005F1640111228B4633A854
:103A2000FCF7B6FBE07E8DF8DD00D4F81E00389080
:103A300000201A9068221FA96846FCF7A9FB1BAE5C
:103A400096E80F00FFF72AFA2022291D1BA8FCF791
:103A50009FFB3622514623A8FCF79AFB2088ADF83D
:103A6000C200E86D3190B5F86000ADF8C80020895B
:103A7000ADF8CA001122594633A8FCF789FBE07E55
:103A80008DF8DD00D4F81E00389005201A906822C9
:103A90001FA96846563CFCF77BFB96E80F00FFF732
:103AA00025FA4FF40050286028600DF18C090DF1C3
:103AB000CC08FF261FAF202249491BA8FCF768FB52
:103AC000362251464846FCF763FBB4F85600ADF881
:103AD000C200E86D3190B5F86000ADF8C800B4F8E8
:103AE0005E00ADF8CA00112259464046FCF750FB73
:103AF00094F871008DF8DD00606F389068223946C7
:103B000068461A96FCF744FB0DF16C0C9CE80F001C
:103B1000FFF7ECF929684A1E2A6030D2202230498A
:103B20001BA8FCF735FB3622514623A8FCF730FBD7
:103B300034F8560FADF8C200E86D3190B5F860006A
:103B4000ADF8C8002089ADF8CA001122594633A843
:103B5000FCF71EFBE07E8DF8DD00D4F81E003890E7
:103B600004201A9068221FA96846FCF711FB1BAEBF
:103B700096E80F00FFF79AF939B0BDE8F08FC0075B
:103B800099D1202216491BA8FCF702FB3622514688
:103B900023A8FCF7FDFA34F8560FADF8C200E86D23
:103BA0003190B5F86000ADF8C8002089ADF8CA00C2
:103BB0001122594633A8FCF7EBFAE07E8DF8DD00C0
:103BC000D4F81E00389001201A9068221FA9684678
:103BD000FCF7DEFA1BAE96E80F00FFF75FF9CBE7C4
:103BE00080000020F0B5B9B0202248491BA8FCF79E
:103BF000CFFA4649362220310F4623A8FCF7C8FAEF
:103C0000424C34F8560FADF8C200404D2D1F55F808
:103C10005C0F3190A888ADF8C8002089ADF8CA00C3
:103C20003A49112260310E4633A8FCF7B1FAE07E22
:103C30008DF8DD00D4F81E00389000201A9068221C
:103C40001FA96846FCF7A4FA0DF16C0C9CE80F0064
:103C5000FFF724F920222D491BA8FCF799FA3622F8
:103C6000394623A8FCF794FA2088ADF8C2002868EA
:103C70003190A888ADF8C8002089ADF8CA0011229B
:103C8000314633A8FCF784FAE07E8DF8DD00D4F8E5
:103C90001E00389006201A9068221FA96846FCF77B
:103CA00077FA0DF16C0C9CE80F00FFF71FF920224A
:103CB00016491BA8FCF76CFA3622394623A8FCF7F4
:103CC00067FA2088ADF8C20028683190A888ADF85E
:103CD000C8002089ADF8CA001122314633A8FCF78C
:103CE00057FAE07E8DF8DD00D4F81E0038900120F0
:103CF0001A9068221FA96846FCF74AFA1BAC94E8A0
:103D00000F00FFF7CBF839B0F0BD000080000020B5
:103D10000FB4054B10B503A9044A029800F09CF9B2
:103D200010BC5DF814FB0000B566000824010020FB
:103D30000FB41CB50246002007AC00290BD0491E69
:103D4000CDE90021054B6A462146069800F084F92A
:103D5000009A002111701CBC5DF814FB8747000815
:103D60000FB4084B10B504A902AA039800F074F927
:103D7000044602A9002000F011FD204610BC5DF8A9
:103D800014FB00009D470008490050EAC12018BFFD
:103D900004204A0D18BF40F0010040F2FF72B2EB60
:103DA000515F08BF40F00200012808BF052070479E
:103DB0000907090E002804DB00F1E02080F8001458
:103DC000704700F00F0000F1E02080F8141D7047EC
:103DD00000487047B80200202DE9F0414F1E00EB6B
:103DE000C7010446D1E9000115461E4637F0060218
:103DF0000DD02A463346FCF7B2FB7F1E04EBC70307
:103E0000D3E90023FCF704FB37F00602F1D1022FBF
:103E100025D0042F13D0062F18BFBDE8F0812A4605
:103E20003346FCF79CFBD4E90A23FCF7F1FA2A4657
:103E30003346FCF794FBD4E90823FCF7E9FA2A4659
:103E40003346FCF78CFBD4E90623FCF7E1FA2A465B
:103E50003346FCF784FBD4E90423FCF7D9FA2A465D
:103E60003346FCF77CFBD4E90223FCF7D1FA2A465F
:103E70003346FCF774FBD4E90023BDE8F041FCF7BE
:103E8000C7BA0122FCF7D4BDFCF7C2BA0022134620
:103E900010461146FCF75DBD024A00201107FCF7F1
:103EA000C7BD000001FDFFFF02E008C8121F08C1E6
:103EB000002AFAD170477047002001E001C1121FAB
:103EC000002AFBD1704700000149086070470000DC
:103ED000B80200202DE9FF5F82B00021DDE9043047
:103EE000020DDDF840B0034318D044F61050A2F2A2
:103EF000FF3242431514119801281FD0A5EB0B0087
:103F0000401C5FEA000A4FF000064E4FDFF8389180
:103F1000B046504615D5CAF1000413E011980124AB
:103F20004AA3012801D16FEA0B010298119AC0E956
:103F30000031C0E9024206B0BDE8F09FCBF10000BD
:103F4000DFE704460021404A491842EB0450CDE91E
:103F5000001012E0E00707D032463B464046494693
:103F6000FCF7FDFA8046894632463B461046194624
:103F7000FCF7F5FA06460F466410002CEAD1DDE99D
:103F80000401DDE90023BAF1000F06DAFCF7E7FAD5
:103F900042464B46FCF7E3FA05E0FCF7DAFC424602
:103FA0004B46FCF7D6FC04460E460022284BFCF795
:103FB000BFFD03D84FF0FF30014607E00022254B3C
:103FC00020463146FCF724FAFCF79AFD102409E05C
:103FD000002C0ADB0A220023FCF786FB039B30320D
:103FE0001A55641E50EA0102F2D1641C039AC4F10E
:103FF00011031444119A012A03D0012208430DD160
:104000000AE0084304D000204FF0110B119072E732
:10401000A3EB0B056D1E0DE05B4504DD4FF00002C8
:1040200005F1010504E003DA4FF00002A5F10105F6
:10403000002AECD002981199C0E90231C0E900458C
:1040400079E70000000014400000F03F300000005D
:104050000000F0430000E03F2DE9FF4F95B09B4684
:104060008946064600250FE2252877D100242746F9
:10407000F84A0121059400E0044316F8013F203B73
:1040800001FA03F01042F7D130782A2811D06FF0EE
:104090002F033078A0F13002092A16D8059A44F08F
:1040A000020402EB820203EB42021044761C0590EC
:1040B000EFE759F8042B0592002A03DA504244F442
:1040C0000054059044F00204761C30782E2816D156
:1040D00016F8010F44F004042A280DD06FF02F02C7
:1040E0003078A0F13003092B09D807EB870302EBE6
:1040F0004303C718761CF3E759F8047B761C307825
:104100006C280FD006DC4C2817D068280DD06A2800
:1041100014D104E0742810D07A280FD10DE044F4B3
:1041200000140AE044F4801401E044F4401472786E
:10413000824202D104F58014761C761C3078662801
:104140000BD013DC582877D009DC002875D045281F
:10415000F6D04628F4D047281AD19DE118E063280C
:1041600035D0642879D0652812D195E1702873D0B4
:1041700008DC6728F1D069286FD06E280DD06F2831
:1041800006D1B5E073282CD0752875D0782874D066
:104190005A46179990476D1C75E1C4F302500228E6
:1041A00009D003280DD0D9F8001004280DD00D60D7
:1041B00009F1040967E1D9F80010EA17C1E90052D2
:1041C000F6E7D9F800100D80F2E70D70F0E719F866
:1041D000041B8DF8001000208DF80100EA46012034
:1041E00003E059F804AB4FF0FF3061074FF00001D6
:1041F00002D40DE008F101018846B9420FDA80458A
:10420000F8DB1AF808100029F4D108E008F10101E0
:1042100088468142FADB1AF808100029F6D1059881
:104220005B46A0EB080721463846179A00F094FA3F
:10423000284400EB080507E04DE029E10DE01AF8FD
:10424000010B5A4617999047B8F10108F7D25B461F
:1042500021463846179A13E142E00A220092C4F33D
:1042600002524FF0000A022A08D059F804CB032A60
:104270004FEAEC710AD00DE029E02AE009F10701CC
:1042800021F00702F2E802C1914609E00FFA8CFC26
:104290004FEAEC71042A03D14FFA8CFC4FEAEC711F
:1042A000002907DA0A460021DCF1000C61EB02016B
:1042B0002D2202E0220504D52B228DF804200122B4
:1042C00003E0E20701D02022F7E7904659E00A21F7
:1042D00002E010220DE010214FF0000A00910BE0E7
:1042E00010224FF0000A44F004040827009203E073
:1042F00008224FF0000A0092C4F30252022A05D0AD
:1043000059F804CB0021032A08D009E009F107017C
:1043100021F00702F2E802C1914605E01FFA8CFC89
:10432000042A01D10CF0FF0C4FF00008220728D519
:10433000702806D0009B83F0100353EA0A0305D0CF
:104340000EE040228DF80420012208E05CEA010220
:1043500006D030228DF804208DF805000222904608
:10436000009B83F0080353EA0A030AD15CEA0102C6
:1043700001D1620705D530228DF804204FF00108E5
:104380007F1E582804D034A003900EA802900DE0A0
:1043900036A0F9E753466046009AFCF7A5F9844633
:1043A0000398825C0298401E029002705CEA010051
:1043B000F0D1029806A9081A00F1200A600702D578
:1043C00024F4803400E00127574502DDA7EB0A0002
:1043D00000E0002000EB0A01009005984144401ADB
:1043E0000590E00306D45B462146179A059800F035
:1043F000B3F90544002706E001A85A46C05D1799A5
:1044000090476D1C7F1C4745F6DBE0030CD55B46EF
:104410002146179A059800F09FF9054404E03020E2
:104420005A46179990476D1C0099481E0090002924
:10443000F5DC08E0029802995A460078491C02917E
:10444000179990476D1CBAF10001AAF1010AF1DC3D
:1044500065E1000009280100303132333435363748
:1044600038396162636465660000000030313233C0
:104470003435363738394142434445460000000060
:1044800000F058F90544761C307800287FF4ECAD34
:1044900019B02846BDE8F08F620700D4062709F15D
:1044A000070222F0070CFCE80223E14603F0004873
:1044B0005FEA080C02D00FF2702C0DE05FEA045C9A
:1044C00002D50FF2682C07E05FEAC47C02D00FF23D
:1044D000602C01E0AFF2700C4FF0FF3823F0004386
:1044E000CDF850C065280CD006DC452809D04628F8
:1044F0001DD047283DD13DE0662818D067287ED1E1
:1045000038E00021112F01DB112000E0781CCDE9FB
:10451000000106A90EA8FFF7DDFCDDE90F010E9AE8
:1045200003910021009207F1010A04914DE04FF040
:1045300000400097CDE9011006A90EA8FFF7CAFCBC
:10454000DDE90F0203920E9B11990022DDF80CA009
:104550000093049211B9791C00EB010AB7EB0A0031
:1045600004D4C0F1FF3007F1010A0490AAEB070060
:10457000019044E0012F00DA01270021112F01DD15
:10458000112000E03846CDE9000106A90EA8FFF78A
:10459000A1FCDDE90F010E9A039100210491009224
:1045A000BA4621070CD40399514500DA8A46BAF17C
:1045B000010F05DD009AAAF10101515C302908D0F4
:1045C000B84202DA10F1040F06DA0121CDE9011038
:1045D00015E0AAF10101E9E7002805DC049901448E
:1045E0000491AAEB000102E0411C514500DD8A461E
:1045F0000499401A401C01904FF00040029020079F
:1046000004D40198504501DBCDF8048000208DF8DA
:104610004F0002980DF14F07B0F1004F25D02B202D
:104620000E9002984FF0020800280CDA40420290E7
:104630002D200E9007E00A210298FCF73FF8303158
:10464000029007F8011DB8F10001A8F10108F2DCA1
:1046500002980028EFD1791E0E980870307800F08B
:10466000200040F0450007F8020D12A8C01B00F121
:1046700007081498007800B1012000EB0A010198A6
:1046800001EBE07105984144401A401E0590E0039B
:1046900006D45B462146179A059800F05DF805445C
:1046A0001498007818B15A46179990476D1CE0038A
:1046B00024D55B462146179A059800F04DF805442D
:1046C0001CE00498002807DBDDE90301884203DDD4
:1046D0000098405C179901E0179930205A4690479E
:1046E000049805F10105401C04900198401E0190BA
:1046F00004D12E205A46179990476D1CBAF100013B
:10470000AAF1010ADDDC05E017F8010B5A461799FA
:1047100090476D1CB8F10001A8F10108F4DC5B467C
:104720002146179A0598ABE62D0000002B000000EB
:10473000200000002DE9F041044600251E461746E2
:10474000880404D405E039462020B0476D1C641E5F
:10475000F9D52846BDE8F0812DE9F0410446002551
:104760001E469046C80301D5302700E02027880464
:1047700004D505E041463846B0476D1C641EF9D5A6
:104780002846BDE8F0814A68002A06D00A68531C12
:104790000B6010704868401E486070470A68531CE0
:1047A0000B601070704700002DE9F04D8D4F21F027
:1047B000004A86B005460C46BA452ADBAAEB07003C
:1047C00028430AD08848824501DC1AD1CDB106B011
:1047D0002846BDE8F04DFFF754BB844A844B284679
:1047E000FBF7BDFE07460E46824A834B284621460C
:1047F000FBF7B5FE06B03A463346BDE8F04DFBF791
:1048000007BE0120FFF760FB06B0BDE8F04DFFF7E3
:104810003DBB7A48824542DABAF1795F0BDA284625
:10482000FFF7B2FA042808BFFFF736FB284606B0A8
:104830002146BDE8F08D2A460B461046FBF78FFE59
:10484000834602466E480E460B4606217844FFF723
:10485000C3FA5A463346FBF782FE804669488A46C9
:104860005A46334604217844FFF7B6FA5A4633468F
:10487000FBF775FE00223B46FBF7CAFD02460B46DE
:1048800040465146FCF765F82A462346FBF767FE8B
:1048900006B02A462346BDE8F04DFBF7B9BD2846D1
:1048A00024F0004100223D463B46FBF755FE4FF009
:1048B000FF32FCF7BDF80646024653480F460B464A
:1048C00006217844FFF788FA32463B46FBF747FE5D
:1048D000CDE900014D4832463B4604217844FFF7BC
:1048E0007BFA32463B46FBF73AFE00222B46FBF7AB
:1048F0008FFD834602913046394602F075FF8046AF
:1049000043480D46504517DCDDE900015A46029B3D
:10491000FCF71FF842462B46FBF721FE42462B468A
:10492000FBF776FD0122FCF783F8304A304BFBF7AA
:1049300010FE304A304B4CE04FF0000A52460B4616
:104940004046FBF765FDCDE9031052462B46104665
:104950001946FBF704FE32463B46FBF7FDFDDDE959
:104960000332FBF7F6FF06460F46DDE900015A4623
:10497000029BFBF7EEFF8346009101223046394649
:10498000FCF756F8194A1A4BFBF7E6FD06460F46A8
:10499000012240462946FCF74BF85A46009BFBF79C
:1049A000DEFD32463B46FBF7D4FD06460F460122AC
:1049B00050462946FCF73CF80E4DDFF858802A4651
:1049C0004346FBF7C9FD32463B46FBF7C5FD2A4689
:1049D0004346FBF7C1FD002CD8BF81F0004106B073
:1049E000BDE8F08D0000F03F0000F07F075C14335D
:1049F00026A6913C182D4454FB21F93F0000E03FCE
:104A0000A8F10200BEF1020032F1020048F10200FA
:104A10003333EF3FFB21E93F2DE9F84F04460D46C4
:104A200021F0004000917349814211DC72498842B3
:104A300001DC06D12CB120462946BDE8F84FFFF72E
:104A400020BA6E48002DCCBF6D496E49BDE8F88F85
:104A50006D49814211DD6D498142D8BF4FF0FF366B
:104A60006DDD20462946FFF78FF9042808BFFFF7C0
:104A700013FA20462946BDE8F88F6549654F25F0B1
:104A80000045814233DD6449814219DD002632460A
:104A90004FF0804320462946FBF7BAFC80468A4601
:104AA000012220462946FBF7C3FF00223B46FBF7C5
:104AB00050FD42465346FBF74CFF04460D463EE090
:104AC00001260022BA463B4620462946FBF7A0FCB9
:104AD00080460F460022534620462946FBF739FD03
:104AE00042463B46FBF735FF04460D4627E04B495F
:104AF00081421BDDDFF828A1022600225346204612
:104B00002946FBF72CFD00223B46FBF781FC804643
:104B10000F460022534620462946FBF71AFD42461F
:104B20003B46FBF716FF04460D4608E003262246E7
:104B30002B4600203B49FBF70CFF04460D4622465E
:104B40002B4610461946FBF70AFD8B468246024665
:104B50000B46FBF704FD07460246334888460B46E2
:104B600006217844FFF738F952465B46FBF7F7FC1D
:104B700082462E488B463A46434605217844FFF745
:104B80002BF93A464346FBF7EAFC02460B46002E59
:104B9000504659460CDAFBF73BFC22462B46FBF706
:104BA000DEFC01B022462B46BDE8F04FFBF7D4BC3B
:104BB000FBF72EFC22462B46FBF7D1FC1C4A7A441D
:104BC00002EBC603D3E90023FBF7C3FC22462B46C6
:104BD000FBF7BFFC174A7A4402EBC603D3E9002374
:104BE000FBF7BAFC009A002AB8BF81F00041BDE88B
:104BF000F88F0000000010440000F07F182D44548E
:104C0000FB21F93FFB21F9BF0000DC3F0000203E03
:104C10000000F33F0000F03F0000E63F008003404B
:104C20000000F83F0000F0BFD2EF020090EF02005A
:104C30002EEF0200F6EE02002DE9F04D9446CCF185
:104C4000000423F000464CEA0404524F46EAD474B0
:104C50009A46884621F00042BC4206D8454240EAC6
:104C6000050442EAD474BC4204D9BDE8F04D624662
:104C7000FFF70AB9AAF14055A5F17F6555EA0C0482
:104C80000BD0022404EAAA74434DDFF810E144EA91
:104C9000D87452EA000B04D00CE0BDE8F04DFFF7E9
:104CA000BBBE002C14BF012CBDE8F08D022C30D00F
:104CB000032C32D056EA0C0B0AD0BE4220D1BA42A5
:104CC00009D126F0804622F080423346114617E093
:104CD00000291ADB25E0DFF8C8B0FB44002C04BF34
:104CE000DBE90001BDE8F08D012C02BFDBE900012A
:104CF00081F00041BDE8F08D022C0AD0032C0CD0CD
:104D0000BA4212D1B8F1000F0BDA23482549BDE8A9
:104D1000F08D28462449BDE8F08D28467146BDE84F
:104D2000F08D1D482149BDE8F08D921B12153C2ADB
:104D3000C4BF19481D490EDCBAF1000FBEBF12F105
:104D40003C0F0020014606DB6246FBF702FE21F025
:104D50000041FFF761FE002C08BFBDE8F08D012C7B
:104D600004BF81F00041BDE8F08D114A114B022CC7
:104D700007D0FBF7EEFB2A46BDE8F04D0A4BFBF7E8
:104D8000E8BBFBF7E6FB2A46BDE8F04D064BFBF718
:104D9000E3BB00000000F07F182D4454FB2109C044
:104DA0008AEE0200FB21F9BFFB210940FB21F93FFC
:104DB000075C143326A6A13C10B5044600202071E0
:104DC000401EE062204602F037FB08B1032010BD10
:104DD000B4F82E02A0F52A41553901D0022010BDA9
:104DE00094F86600B4F8671040EA01210848B0EB77
:104DF000012F08D094F88210B4F8832041EA0221F0
:104E0000B0EB012F01D1002010BD012010BD00002A
:104E10000046415400E0401C02780AB18A42FAD1AF
:104E2000D0B270474269891E921E8A4201D8002082
:104E30007047826A807801FB002070472DE9F05F9F
:104E40008246488B0E4670BB3078DFF8649000F0E5
:104E50003F00401E00EB800101EBC0040120002553
:104E60004FF6FF7B19F8051031440988884670B168
:104E7000FF2C18D2084601F091FA07463AF81400C0
:104E8000641C01F08BFA87420DD1404601E0D84501
:104E900009D16D1C0D2DE5D33178490606D528B111
:104EA0003AF8140010B10020BDE8F09F0120FBE7A4
:104EB000A63903082DE9F0410F00054606D001F0A0
:104EC0004BFC022809D20120BDE8F081EE6816B142
:104ED0006869B04207D8012605E0411CF4D0696931
:104EE0008142F1D83E4634466869641CA04202D82B
:104EF0000224022E0AD32146284601F02DFC38B1A7
:104F0000411CE1D00128DFD0B442EDD10020DBE725
:104F10006FF070422146284602F02FFB30B957B19E
:104F200022463946284602F028FB20B101280DD040
:104F300001242046C8E7EC602869411CF9D0401ED6
:104F40002861687940F001006871F2E74FF0FF34A2
:104F5000EFE700002DE9F84F884682460F6800E031
:104F60007F1C38782F28FBD05C28F9D00024DAF891
:104F70001C602546785D6D1C202827D32F2825D05E
:104F80005C2823D0FF2C42D2A0F181017D290BD8CF
:104F9000795D6D1C01EB0020A1F1400280B23F2A37
:104FA00002D380397F2932D2012101F0D1F95FEAA1
:104FB00000092CD0B9F1800F04D2014671A0FFF78F
:104FC00029FF20BB26F81490641CD3E77A19C8F88F
:104FD0000020202801D2042517E0002515E000BF9D
:104FE00006EB440030F8020C20280DD02E280BD000
:104FF0006CB1002026F814000B222021DAF81800EA
:1050000002F013FA002706E0641E002CE8D1062007
:10501000BDE8F88F7F1C36F817002028FAD02E281C
:10502000F8D01FB145F0030500E0641E2CB106EB7B
:10503000440030F8020C2E28F7D1002081464FF0B2
:10504000080B009036F8170007F101075FEA000827
:1050500024D0B8F1200F04D0B8F12E0F04D1A7420C
:1050600002D045F00305EDE70099594501D2A7426A
:105070001AD1BBF10B0F0FD0A74201D045F00305A9
:105080000CD84FF0080000904FEA896027464FF097
:105090000B0B4FEA1069D5E745F00305DAF8180065
:1050A0000178E52949D04AE04046B8F1800F07D39E
:1050B00001F074F9002101F04BF9804645F002053A
:1050C000B8F1FF0F13D90099ABF10100814204D36D
:1050D00045F00305CDF800B0B4E7DAF818200098E1
:1050E0004FEA182111540098401C00901CE0B8F1C0
:1050F000000F04D0014626A0FFF78CFE20B14FF030
:105100005F0845F003050FE0A8F14100192802D817
:1051100049F0020908E0A8F16100192804D84130DB
:1051200049F001091FFA80F8DAF81820009902F80E
:1051300001800098401C009084E705210170BBF1BC
:10514000080F03D14FEA89604FEA1069C9F3810063
:10515000032803D06FEA0901890701D145F0020550
:10516000A90709D409F00301012901D145F010056F
:10517000012801D145F00805DAF81800C5720020B1
:1051800046E70000222A3A3C3E3F7C7F00000000B8
:105190002B2C3B3D5B5D000010B504460420FCF762
:1051A00037FD0148046010BD1C01002070B50546A4
:1051B00000244FF47A7603E0304600F005F8641CD2
:1051C000AC42F9D370BD000070B54FF0E02400226E
:1051D00065690949A36909684843A1699942FCD0F6
:1051E00002D2A3EB010302E0A5EB010633441A440B
:1051F0000B468242F1D370BD1C0100202DE9F0471F
:105200000646002100F060FA002857D1FF244FF62F
:10521000FF78A146A6F820803169306802F00CF9C9
:1052200007004AD17569287848B1E97AE52801F084
:105230003F0139D00A0704D50F2935D105E00427ED
:105240003BE00F2901D0D4B11EE0F2697AB34106E8
:1052500006D595F80D9020F04000F1880446318481
:10526000A04209D1697B494506D129461046FFF77E
:10527000E5FD08B1641E00E0FF24E4B217E0284613
:1052800002F0E0FA484518D0B069C17AC9070BD1DD
:105290000A2101E0491E06D315F8012B10F8013B45
:1052A000D21AF7D000E042B1FF24A6F820800021F6
:1052B000304600F005F80700AED03846BDE8F0876C
:1052C0002DE9F041C6880446761C30040F46000CD8
:1052D00033D0216989B3206842895209B6FBF2F3C1
:1052E00002FB1362002A59D1491C2161E16809B30C
:1052F000428983785209B6FBF2F25B1E1A424DD105
:1053000001F02AFA054601281CD9681C32D0206811
:105310004169A9423CD887B1E168FFF7CBFD0500A0
:105320000ED0012D0ED0681C24D0206802F0EFFAB8
:1053300000BB09E00089B04230D80420BDE8F0810C
:105340000720FBE70220F9E720680021428930307E
:1053500002F06BF829462068FFF764FD21680027FA
:105360004FF00108C8620CE080F80480206802F069
:10537000CEFA08B10120E1E72068C16A491C7F1C10
:10538000C16220688178B942EED8C16AC91BC16286
:10539000E56029462068FFF745FD2061E68020682A
:1053A00041894909B6FBF1F201FB1261302202EB9F
:1053B0004111084460610020C0E700002DE9F05F62
:1053C000FF248B460546274604264FF6FF784FF00C
:1053D000000968E0286802F02FF8060067D16869C4
:1053E000017879B1C27AE52902F03F0208D02E296E
:1053F00006D022F02003082B06D0B446DC4506D0A8
:10540000FF2442E0042652E04FF0010CF6E70F2A99
:1054100001D0BCBB40E04A0605D5477B21F04001E6
:10542000EA880C462A84A1422DD1417BB9422AD177
:10543000418BD5F81CC031BB0178012601F03F013A
:10544000491E01EB810202EBC101DFF86CA00022D2
:105450001AF8023003441B8836B1FF2913D22CF806
:1054600011301E46491C01E043450CD1521C0D2A47
:10547000EED30078400603D5FF2904D22CF8119012
:10548000641E01E00CE0FF24E4B200212846FFF78F
:1054900017FF060007D00AE002F0D4F9B84208D09E
:1054A000A5F8208005E02969002993D10EB1C5F83F
:1054B00010903046BDE8F09FA63903082DE9FF5F44
:1054C00004460C22D4E906763946684601F0A4FF6A
:1054D0009DF80B00C00718D00020F8720125E0618C
:1054E0002B4632466946384601F0F0F82046FFF771
:1054F00085FE10B96D1C642DF2D3642D0BD00428E9
:105500000AD19DF80B00F872E6619DF80B00800748
:105510000FD5002004E0072004B0BDE8F09F401C38
:1055200036F810100029FAD10D211930B0FBF1F630
:1055300000E001260021204600F0C6F888B90027C7
:105540002169206801F078FF58B960690078E52882
:105550000AD048B1002701212046FFF7B1FE0028FC
:10556000EED0042811D011E07F1C3046B742F2D1B2
:10557000461E5FEA060A57D0E1882046A1EB0A01E1
:1055800000F0A2F8050003D067E00720054664E0BC
:10559000A06902F057F903902169206801F04CFFDF
:1055A00005005AD16169D4F81C90039848730F2004
:1055B000C8720020087388760AF0FF0BC876ABF13A
:1055C000010000EB800202EBC00500234FF6FF7ED6
:1055D000234E4A1C01E0604503D039F81500F4461B
:1055E0006D1CF75CC85516F80380070A08F80270AE
:1055F00000B960465B1C0D2BEDD3704502D039F825
:10560000150008B94BF0400B81F800B0216801206B
:10561000087100212046FFF753FE05001DD1AAF1B5
:1056200001005FEA000AB7D12169206801F004FF98
:10563000050012D120220021606901F0F6FED4E9B4
:1056400005010B2201F0E8FEA0696169C07A00F053
:105650001800087321680120087128465CE70000E3
:10566000A63903082DE9F041018C0446C688A1F54E
:105670007F40FF3800D13146204600F025F8050074
:105680001ED1E5274FF001082169206801F0D4FE02
:10569000050012D120220021606901F0C6FE606978
:1056A0000770216881F80480E088B04208D20021A8
:1056B0002046FFF705FE0500E6D0042D00D10225A7
:1056C0002846BDE8F081000070B5C18083680D46B2
:1056D0000446012B3ED02068416999423AD923B94A
:1056E0000178032906D1436A23B1418980784E09A4
:1056F000464311E00189A9422CD9406A12E000BF5B
:1057000001F02AF80346401C22D0022B22D3206845
:10571000406998421ED9AD1B2068B5421946EFD2A8
:10572000FFF780FBE360A8B121684A895209B5FB05
:10573000F2F21044206148894009B5FBF0F200FB09
:105740001250302202EB401008446061002070BD0E
:10575000012070BD022070BD10B50100B8B04FF03F
:1057600001003DD001293BD120221E491AA8FAF799
:105770000FFD1C493622203122A8FAF709FD194CE9
:10578000B4F85600ADF8BE0054F8580F3090A08819
:10579000ADF8C400E088ADF8C600124911226031AE
:1057A00032A8FAF7F5FC607E8DF8D900E0693790F1
:1057B00068221EA96846FAF7EBFC1AAC94E80F00C1
:1057C000FDF7B7F94FF4FA70401E0004000CFBD14E
:1057D000FEF76CF838B00120BDE8104000F066B864
:1057E00038B010BD8000002003004FF0040012D03C
:1057F000012B10D1012904D0022905D0032909D198
:1058000006E040F2FE5004E04FF48050108001E0CA
:105810000120106000207047F0B50E460100BBB0BB
:105820001D464FF004003DD001293BD117462022F0
:105830001D491DA8FAF7ACFC1B493622203125A8CA
:10584000FAF7A6FC184CB4F85600ADF8CA0054F8A4
:10585000580F3390A088ADF8D000E088ADF8D200A2
:1058600011491122603135A8FAF792FC607E8DF85B
:10587000E500E0693A90380340F2022100EB013084
:105880004FF6FF7101EA05311A96CDE91B10682227
:1058900021A96846FAF77CFC1DAC94E80F00FCF7E0
:1058A0003FFE00203BB0F0BD8000002010B5012479
:1058B00038B1012805D1FDF7DFFE0349884200D148
:1058C0000024204610BD00001740EF00F0B50F4641
:1058D0000146BBB01E004FF0040043D000293FD06A
:1058E00001293DD1100340F2022100EB0135284689
:1058F000FDF79EFD20221C491DA8FAF749FC1A4914
:105900003622203125A8FAF743FC174CB4F856008C
:10591000ADF8CA0054F8580F3390A088ADF8D00005
:10592000E088ADF8D20010491122603135A8FAF7AD
:105930002FFC607E8DF8E500E0693A904FF6FF702D
:1059400000EA06301A97CDE91B05682221A96846AE
:10595000FAF71EFC1DAC94E80F00FCF743FF002093
:105960003BB0F0BD0420FBE78000002010B50446EA
:1059700000F084FB002806D1204602F095FF0028A5
:1059800001D10021216010BD2DE9F0470D460446EC
:1059900002F08AFF5FEA00087CD1E079002879D123
:1059A000E068A84203D2A179890700D40546002700
:1059B000A0684FF00109A76015B322684FF0020AF2
:1059C000967851894E4368B1691E401EB1FBF6F1CD
:1059D000B0FBF6F3994205D3711E8843A0602D1ADF
:1059E00061690CE0216949B900211046FFF762FAAC
:1059F000014601284BD0481C5AD021616161D1B9C0
:105A00002DE0A0798007206805D5FFF753FA010043
:105A100004D1354611E000F09FFE0146481C47D0F6
:105A2000012934D920684069884230D96161A06871
:105A3000AD1B3044A060B542E3D8A0682844A06004
:105A400020684289B5FBF2F302FB13523AB1FFF72B
:105A5000E9F9E0B121684989B5FBF1F10F18206837
:105A6000A1684289B1FBF2F302FB131129B3A269C9
:105A7000BA4222D0A1794B0604F124010D460FD57C
:105A800040780123FFF722FF90B905E002E084F897
:105A900007A00220BDE8F087A07920F04000A071A7
:105AA000206801233A4640782946FFF7B5FE18B131
:105AB00084F807900120EDE7A761D4E9020188424C
:105AC00004D9E060A07940F02000A0714046E1E7F1
:105AD00017B581B0144602980090684600F073FF35
