:020000040800F2
:10000000000B00203D020008A12A00080B21000877
:10001000052A0008AD1D0008DF3D000800000000B3
:10002000000000000000000000000000A9320008ED
:10003000D11E0008000000009730000801350008BC
:10004000570200085702000857020008570200082C
:10005000570200085702000857020008570200081C
:10006000570200085702000857020008570200080C
:1000700057020008570200085702000857020008FC
:1000800057020008570200085702000857020008EC
:1000900057020008570200085702000857020008DC
:1000A00057020008A5370008570200085702000849
:1000B00057020008570200085702000857020008BC
:1000C00057020008570200085702000857020008AC
:1000D00057020008CD3B00085702000857020008ED
:1000E00057020008570200085702000800F002F803
:1000F00000F094F80AA090E8000C82448344AAF12E
:100100000107DA4501D100F089F8AFF2090EBAE82B
:100110000F0013F0010F18BFFB1A43F0010318473B
:10012000446B0000646B0000103A24BF78C878C1AB
:10013000FAD8520724BF30C830C144BF04680C60ED
:10014000704700000023002400250026103A28BF35
:1001500078C1FBD8520728BF30C148BF0B60704739
:100160006E2900F06582702900F0A783662905F0EA
:100170008687652905F08387672905F080876129CF
:1001800005F07F8703681B0A28BF41F080016929B9
:1001900000F01282642900F00F82752900F00C82B1
:1001A0006F2900F03483782900F07383E92900F087
:1001B000CF82E42900F0CC82F52900F0C982EF2932
:1001C00000F03183F82900F072830368DB0928BF4F
:1001D00041F08001632901F09780732901F09C8030
:1001E000E32901F0A780F32901F0AC8000207047DB
:1001F0001FB59DE8030000F015F901F0FDF80400BB
:100200000020002104F01CFE401C60600020002142
:1002100004F000FEE0601FBD10B510BD01F0BEF897
:100220001146FFF7E5FF04F0F3F901F09BF903B481
:10023000FFF7F2FF03BC01F0CBF90000094880474B
:1002400009480047FEE7FEE7FEE7FEE7FEE7FEE7B8
:10025000FEE7FEE7FEE7FEE704480549054A064BD0
:100260007047000005350008ED000008000500207B
:10027000000B0020000700200007002070B5064694
:1002800000F0B4F8056806F10B0020F00704B44252
:100290009CBF002070BD2B466A68BAB11068A042AE
:1002A00010D304F1080188423CBF5068586007D35E
:1002B0005168101941601168091B01605860146091
:1002C000101D70BD13465268002AE7D1214628460A
:1002D00000F094F80028DED170BD00001CB50C467B
:1002E000064B7B4469460090204600F0BAF904466C
:1002F0000020694600F0C8F920461CBDA303000099
:1003000010B5203AC0F00B80B1E81850203AA0E8B0
:100310001850B1E81850A0E81850BFF4F5AF5FEAE4
:10032000027C24BFB1E81850A0E8185044BF18C997
:1003300018C0BDE810405FEA827C24BF51F8043B3E
:1003400040F8043B08BF7047D20728BF31F8023B92
:1003500048BF11F8012B28BF20F8023B48BF00F826
:10036000012B70474FF0013C50F8042B51F8043B2F
:100370009A4221D1A2EB0C03934313EACC1317D179
:1003800050F8042B51F8043B9A4215D1A2EB0C0310
:10039000934313EACC130BD150F8042B51F8043BD0
:1003A0009A4209D1A2EB0C03934313EACC13DBD09E
:1003B0004FF00000704700BFD01A01BAB1FA81F1C6
:1003C00001F0180122FA01F0CB40C1F12001DBB2AB
:1003D000C0B2C01A2CFA01F3D11A914311EAC31129
:1003E000E6D170477047704770470000004870477B
:1003F000A8040020704770477047704738B504461E
:100400000A4600206946AFF30080002808BF38BDC7
:1004100002460099204600F027FB012038BD01204C
:1004200000F0B4BFF8B5AFF30080054600200C46DD
:10043000102000BF0646A819A0420DD932466946D1
:100440000020AFF30080070008BF00F09FFF009876
:10045000A04218BF0546C419FFF7C8FF056007464C
:10046000F01D20F007004619284600F00AF8B442B3
:1004700008BFF8BDA21B31463868BDE8F84000F05F
:10048000F3BA00210160C0E90110704710207047E5
:1004900070B50446051FFFF7A9FF0068002C14BFC4
:1004A000446870BD002C18BFAC423CBF2046646855
:1004B000F8D301680A18AA4218BF456003D12A6818
:1004C00005461144016028684119A1421CBF6C60B7
:1004D00070BD6168696021680844286070BD10B50E
:1004E00000F0BEFA006810BD10B5044600F0B8FA7E
:1004F000046010BD70B5044685690068C10601D569
:10050000302600E02026C00707D070BDD4E90121C5
:1005100030469047206A401C20626D1EF6D570BDA3
:1005200070B5044685690078C00707D170BDD4E96D
:10053000012120209047206A401C20626D1EF6D5C4
:1005400070BD09684A0501D540B27047C905FCD5A0
:1005500000B2704709684A0501D5C0B27047C905A5
:10056000FCD580B2704770B50C460546012A05D00F
:100570002878800600D5EA69002302E0012305E01F
:100580005B1C934202D2E05C0028F9D1A869E6180E
:10059000C01AA861286A184428622846FFF7AAFFF3
:1005A00004E0D5E9012114F8010B9047B442F8D3D7
:1005B0002846FFF7B5FF70BD2DE9F041064600243F
:1005C00010687529314616A510D0FFF7BAFF00282C
:1005D00002DA404213A507E031688A0701D512A567
:1005E00002E0490704D511A5012401E0FFF7B2FF9D
:1005F00000210A2206F1240709E0B0FBF2FCB0FB5F
:10060000F2F302FB1C00303078541846491C0028D5
:10061000F3D123462A463046BDE8F04100F083BAC4
:10062000000000002D0000002B0000002000000052
:1006300011680268006A530501D508700AE0D30505
:1006400001D5088006E0130603D5C217C1E90002F0
:1006500000E008600120704701694A1C02610878C7
:10066000704700B58FB0CDE90131002105910549F2
:100670007944CDE903101146684600F029F90FB01E
:1006800000BD0000E5FFFFFF0A6802F8010B0A60E9
:10069000704700002DE9FF5F15468A460446DFF8E3
:1006A000AC80F8440027D8E900103E46CDE90010A0
:1006B00010E03AF816106A4602A800F047FE411C06
:1006C00007D02178890603D5E269391891420DD8FF
:1006D0000744761C2078800602D5E069B84205DD23
:1006E000AE42E6DB3AF816000028E2D1A069C01B52
:1006F000A0612046FFF7FEFED8E90010CDE900100A
:10070000002017E03AF818106A4602A800F01EFE12
:10071000B0F1FF3F81460BD000250DF1080B05E03D
:10072000D4E901211BF8050090476D1C4D45F7D316
:1007300008F10100B0428046E4DB206A38442062C0
:100740002046FFF7EDFEBDE8FF9F00001E6400009D
:100750002DE9F0418046D21D22F007020025D2E9A2
:100760000002F52915A614D0011E72F1000106DA67
:100770000023D0EB030063EB020211A608E0D8F8D7
:1007800000108B0701D50FA602E0490701D50EA680
:1007900001251146002408F1240704E000F07EF949
:1007A00030323A55641C50EA0102F7D12B463246EA
:1007B00021464046BDE8F04100F0B5B90000000018
:1007C0002D0000002B0000002000000030B40021AC
:1007D00000F1240408E002F00705D208303542EAAF
:1007E0004372DB086554491C52EA0305F3D10468DF
:1007F000002310A2250707D5A40600D421B1C4699F
:1008000001230DA2641EC46130BC00F08CB910B588
:10081000044621461068FFF79DFE02462046BDE8CB
:1008200010400023D2E7D21D22F00701D1E90023B6
:10083000CCE700000000000030000000F0B40D46DE
:100840000188090502D5214C7C4402E01F4C7C4400
:100850000E34002100F1240608E002F00F0712090F
:10086000E75D42EA03721B097754491C52EA030709
:10087000F3D102780023120704D5702D06D009B1F8
:10088000022311342246F0BC00F04DB9012310348C
:10089000F8E770B504460D4621461068FFF75AFE8A
:1008A000024629462046BDE870400023C6E7D21D17
:1008B00022F00703D3E90023C0E70368126843F07E
:1008C000200303600823C3610023B7E780620000B0
:1008D0002DE9F05F894604464FF0000ADFF874B155
:1008E000FB44C0F820A02046E1688847002874D067
:1008F000252806D0D4E901219047206A401C2062B7
:10090000F1E700265F462046E16888472028054633
:1009100007DB312D05D2781910F8200C08B10643F9
:10092000F1E7B00701D526F00406C4F81CA00027A3
:10093000C4F818A02A2D09D0284603F0C9FA38B304
:1009400004EB8708303DC8F8185019E059F8041B2B
:10095000204604EB87029161E1688847012F054634
:1009600018D1E069002820DA26F020061DE0D8F82A
:10097000180000EB800005EB40003038C8F8180084
:100980002046E1688847054603F0A2FA0028EED128
:10099000012F0AD02E2D08D12046E16888477F1C00
:1009A0000546022F46F02006C4DBA069002803DAC2
:1009B000404246F00106A061F00701D026F0100683
:1009C0006C2D0BD0682D09D04C2D39D06A2D35D027
:1009D000742D35D07A2D33D016E038E0E1682F46FB
:1009E00020468847B842054609D16C2F26D04FF4DF
:1009F0008060E168064320468847054604E06C2F86
:100A00001AD04FF4807006430DB3A5F141001928A8
:100A100002D8203546F400664A462946204626601C
:100A20004E46FFF79DFB80B101280BD0F61D26F046
:100A3000070000F1080956E74020E4E78020D8E7E6
:100A40000020D6E706F104094DE7284652E7206A60
:100A5000BDE8F09F1062000000487047A00400202D
:100A600000487047A0040020034640688C460028D8
:100A700018BF88423CBF03464068F8D31868184442
:100A8000884207D00CF1030020F00700001D411A36
:100A9000521A0146081D0A60FFF7FABC30B5B0F1E2
:100AA0000A024FEA900E71F100034EEA817EB0EB2C
:100AB0000E0061EB91014FEA101E4EEA017E10EB31
:100AC0000E0041EB11114FEA102E4EEA016E10EBB1
:100AD0000E0041EB11214FEA104E4EEA014E10EB91
:100AE0000E0041EB1141401841F100014FEAD000E6
:100AF00040EA41704FEAD10110EB80054FEA8104D2
:100B000044EA907444EB01046D1944EB0404521B55
:100B1000A3414FF0000348BF0A3200D530BD401C4E
:100B200041F1000130BD2DE9F0470D46994692464E
:100B3000044600F124080168880604D5E06921F024
:100B40001001216000E00120A84201DD471B00E008
:100B50000027A1697A1902EB0900081AA061207820
:100B6000C00602D42046FFF7C5FC002608E0D4E901
:100B700001211AF806009047206A401C761C20626A
:100B80004E45F4DB2078C0060AD52046FFF7B2FCBC
:100B900006E0D4E9012130209047206A401C206201
:100BA000381EA7F10107F4DC07E0D4E9012118F8A9
:100BB00005009047206A401C2062281EA5F101050F
:100BC000F3DC2046FFF7ACFC2078000602D50220BB
:100BD000BDE8F0870120FBE770472DE9FF4F0C4689
:100BE0001E464FF0FF378BB0D2E90001DDF8608080
:100BF0000A908A46C1F30A5505B93D4600210846C8
:100C00004FF00000BAF1000F00F4400005DA00EBED
:100C100080004FF4400101EA50004FEA9059B9F1C9
:100C2000010F00DDB9460A9850EA4A000ED044F69A
:100C30001050A5F2FF3545432F14B8F1000F1ED018
:100C40007542291E1EDDC9F100021CE0B8F1010F3A
:100C50004FF0000001D0302103E0F24305E02154C1
:100C6000401CB042FBDB30460022002121540B998E
:100C7000C1F80880C1E900200FB0BDE8F08FBD1BAE
:100C80006D1CDEE74A4600DA694206A800F0F8FB70
:100C900006AB93E8070003AB83E8070050460A99C8
:100CA00000F0BCFC8DE80700A0F500501F38009054
:100CB0000398002D0ADD42F21F014A460844002332
:100CC00003A90390684600F025FF09E0A0F5005055
:100CD0004A461F38002303A90390684600F02FFFFF
:100CE0008DE807000004000C03D04FF0FF304108EE
:100CF00000E01046B8F1000F03D000220092154624
:100D00001EE0751E05D4FFF7C9FE303262556D1E18
:100D1000F9D5B3460122084302D000227F1C04E02B
:100D20002078302801D100227F1E002A099784D024
:100D30001DE0112D07DAFFF7B1FE303262556D1C50
:100D400050EA0102F5D1084302D00098C8B10EE084
:100D50000021681E05E0235C625C63542254401E3F
:100D6000491C8142F7DBAB46A81B401E09900020BE
:100D700004F80B000B98099AC0F80880C0E9002B12
:100D80007AE711264FF0000857E72DE9F04F884623
:100D90000446D21D22F0070191B0D1E90001CDE94E
:100DA0000A0103F01EF802460B98C00F01D02D2057
:100DB00007E02068810701D52B2002E0202101EA0D
:100DC000C000032A099001D0072A05DB03464146EB
:100DD000204600F015FB0BE12078800601D5E06984
:100DE00000E00620B8F1650F814606D0B8F1660F25
:100DF00018D0B8F1670F70D131E00020B9F1110FB0
:100E0000009001DB112301E009F101030AAA01A905
:100E10000CA8FFF7E2FEDDE90C70002609F10105E0
:100E2000834647E001204B4600904FF000470AAA56
:100E300001A90CA8FFF7D1FEDDE90DB00C995D46C4
:100E4000002610B909F101000D18B9EB050003D413
:100E5000C0F1FF3609F10105A5EB09002BE0B9F15E
:100E6000010F01DA4FF001090020B9F1110F0090D4
:100E7000484601DD112300E003460AAA01A90CA897
:100E8000FFF7ABFEDDE90C704D4600268346207867
:100E900000070AD4AB4500DA5D4601A8012D04DD48
:100EA000411911F8011C302907D04F4502DA17F11A
:100EB000040F04DA012082460FE06D1EEEE7002FDA
:100EC00002DCED1B3E4403E0781CA84200DD7D1CE3
:100ED000B81B00F1010A4FF000472078000703D447
:100EE000AA4501DB4FF0FF3A0021B7F1004F0DF1A9
:100EF00043088DF8431024D002202B23002F01DA61
:100F00007F422D230A21021EA0F1010000DC5FB107
:100F100097FBF1FC97FBF1F201FB1C7C17460CF1EF
:100F2000300C08F801CDEEE7A8F10100037021882C
:100F3000090501D5452100E06521A0F1010800F86F
:100F4000011C09980FA9A1EB0807FF1D00B10120A2
:100F5000411901EBEA70A1693844081A401EA061EA
:100F60002078C00602D42046FFF7C4FA099828B1B9
:100F7000D4E901219047206A401C20622078C006F5
:100F800022D52046FFF7B6FA1EE0002E04DBB3455B
:100F900002DD01A8805D00E03020D4E90121904706
:100FA000206A401C2062761CAAF101005FEA000A58
:100FB0000AD100F021FAC0680168405CD4E901213F
:100FC0009047206A401C2062281EA5F10105DCDC48
:100FD00007E0D4E9012118F8010B9047206A401C72
:100FE0002062381EA7F10107F3DC2046FFF798FACC
:100FF000032011B041E600002DE9F04F04460D46F4
:10100000D21D22F0070089B0D0E900974846394642
:1010100002F0E7FE0246F80F01D02D2307E020681A
:10102000810701D52B2302E0202101EAC0038DF8BE
:1010300020300BB1012000E00020032A824601D0BD
:10104000072A04DB2946204600F0DAF93FE1207840
:10105000800601D40D2500E0E569C7F30A560D2D81
:1010600049DA00214FEA175B08464FF00000002FD5
:1010700000F4400007DA00EB80004FF4400100EB81
:10108000D07001EA60008115012901DD4FF0FF31C8
:1010900000224FEA850CBCF1180F06D31346ACF1C1
:1010A00018004FF08052C24003E04FF4801323FA3F
:1010B0000CF30CF10C0CBCF1200F04D3ACF1200CA0
:1010C00009FA0CF001E007FA0CF000294FF0004893
:1010D00001DD18B90FE00ED140450CD319EB020920
:1010E0005F4121B9404502D19F4329EA0209BBEB88
:1010F000175F00D0761C2088000502D57B48784415
:1011000002E07A487844193808AA302302F80A30F5
:10111000037C0AF10101002E0AF1020A53546A46C7
:1011200002DC4FF0300101E04FF031014FF00108D7
:101130008DF8001002D0A6F2FF3603E059EA47010D
:1011400000D06B4E002D02DC2178090704D54FF04A
:1011500002082E218DF80110C44600210BE0C7F3D0
:1011600003433F01C35C491C6D1E02F8083005298A
:1011700008F1010801DA002DF1DC00210CE000EBA0
:101180001973491C1B786D1E082902F808304FEAB4
:10119000091908F1010801DA002DF0DC21688B063D
:1011A00002D516E0A8F10108E04505DD02EB0803D1
:1011B00013F8013C302BF5D0B8F1000F09DD02EB3C
:1011C000080313F8013C2E2B03D1090701D4A8F121
:1011D0000108002D05DD3E2102F808106D1E08F102
:1011E0000108407C002E02F8080008F1010804DA2A
:1011F0002D20764202F8080002E02B2002F80800B9
:101200000A214FF47A70864208F101080BDB96FB45
:10121000F0F3303302F8083096FBF0F308F10108E0
:1012200000FB136601E0642E0CDB642096FBF0F3F8
:10123000303302F8083096FBF0F308F1010800FBA8
:10124000136601E00A2E06DB96FBF1F0303002F85F
:10125000080008F1010896FBF1F001FB1060303046
:1012600002F80800A16908F1010808EB050202EB89
:101270000A00081AA0612078C00602D42046FFF7B1
:1012800039F9216A08AE01EB0A00206204E0D4E9D2
:10129000012116F8010B9047BAF1010AF7D2207824
:1012A000C00602D52046FFF725F96E4609E016F87C
:1012B000010B3E280FD0D4E901219047206A401C41
:1012C0002062B8F10108F2D22046FFF729F909B0EF
:1012D0000320BDE8F08F206A2844206203E0D4E9AF
:1012E0000121302090476D1EEBD3F8E7B95A00007A
:1012F00002FCFFFF10B5436913B1AFF3008001E0BA
:10130000FFF731F9012010BD127800F124010A70B5
:1013100000224A700122EDE711684FF0FF32E9E741
:1013200010B5436913B1AFF3008001E0FFF7B2F9E4
:10133000012010BD128800F1240182840022C284A1
:101340000122EDE711684FF0FF32E9E770B516466C
:101350000C46054600F048F8036893F8010101289F
:1013600006D0FF2C0FD8185D68B101202C7070BD1D
:10137000D3F807013246214603F2071303442846F7
:10138000BDE8704018474FF0FF3070BD10B500F059
:10139000F7F8BDE8104000F0EEB870477546FFF76B
:1013A0005BFBAE4605006946534620F007008546C4
:1013B00018B020B5FEF750FFBDE820404FF0000602
:1013C0004FF000074FF000084FF0000B21F007012D
:1013D000AC46ACE8C009ACE8C009ACE8C009ACE870
:1013E000C0098D467047000010B500F005F8001DDB
:1013F00010BD00BF4D3A000000487047C0040020F7
:101400002DE9F0411F46044603260168072A01F42E
:10141000006004DB08B116A505E016A503E008B1DD
:1014200015A500E015A521F010002060A069C01EE0
:10143000A0610FB1401EA0612046FFF75BF84FB1DD
:10144000D4E9012138469047206A401C2062C01C24
:10145000206206E0206AFAE7D4E9012115F8010BC1
:101460009047761EF8D22046FFF75AF8BDE8F08183
:101470004E414E006E616E00494E4600696E660038
:101480002DE9F047814616468AB0354878440DC8A4
:101490008DE80D0032487844801C03AC0DC884E808
:1014A0000D0041F69B300844372190FBF1F290FB90
:1014B000F1F5A5F1800501FB12041B3C02D5644245
:1014C000012000E00020DFF898A080460027FA44C1
:1014D000AAF1BE0A0EE0E0070AD03246684607EBE2
:1014E000470101230AEB810100F029FB8DE8070089
:1014F00064107F1C002CEED1194F7F44AE3F19E0E1
:10150000E80715D007EB04100DF1180A90E80E005B
:101510008AE80E00C068F04201D19819089032465E
:10152000012306A903A800F00AFB03AB83E8070028
:101530006D10641C002DE3D14FF001033246694663
:10154000B8F1000F03A802D000F0E4FA01E000F0C7
:10155000F6FAC9E90001C9F808200AB0BDE8F08729
:10156000BC57000010B50446AFF300802046BDE82C
:101570001040FEF75CBE002801D000F029B870478B
:1015800010B5012805D0002103A000F027F80120A4
:1015900010BD09A1F8E7000053494752544D454D8D
:1015A0003A204F7574206F662068656170206D6504
:1015B0006D6F7279000000003A2048656170206DFF
:1015C000656D6F727920636F7272757074656400F7
:1015D00001491820ABBEFEE72600020070B50546A3
:1015E0000C460A2000E06D1C00F011F835B1287897
:1015F0000028F8D102E0641C00F009F814B120784A
:101600000028F8D1BDE870400A20AFF3008008B58B
:1016100069468DF800000320ABBE08BD5FEA400CB0
:1016200008BF91F0000F4FEA8C234FEAC12243EA32
:1016300051514FEA1C5018BF00F5F0404FEA3000FE
:1016400018BF41F000415FEA6C5C00F02980BCF1FA
:10165000FF3F08BF40F080407047130C06BF1204E4
:101660004FF0100C4FF0000C130E04BF12020CF1DF
:10167000080C130F04BF12010CF1040C930F04BFEC
:1016800092000CF1020CD30F04BF52000CF1010CBC
:1016900011464FF00002A0F11F00A0EB0C007047B4
:1016A00011F0004F08BF704731F000413FF4D5AF53
:1016B0000B0C06BF09044FF0100C4FF0000C0B0E82
:1016C00004BF09020CF1080C0B0F04BF09010CF157
:1016D000040C8B0F04BF89000CF1020CCB0F04BF6C
:1016E00049000CF1010CCCF12003A0EB0C0022FA14
:1016F00003F302FA0CF241EA030100F10100704722
:1017000020F07F4C80EA030023F07F47ACEB070317
:1017100003F57C5300F0004003F1FF032DE98049FD
:101720004FEA154B09B44FEA144325EA0B4E24EA5D
:1017300003480FF2042606EB132749083E785FEAB8
:10174000320203FB0667C7F5000707FB06F64FEA00
:1017500054374FEAD64606F1020607FB066CCCF179
:10176000005C4FEA1C472CEA074C07FB06F40CFB15
:1017700006F504EB15464FEA961634BF00204FF0ED
:1017800000404FEAD13706FB07FC4FEA1C4C0CFB2C
:101790000BF7D21B03FB0CF761EB07010CFB0EF7F9
:1017A000B0EB074072EB17420CFB08F734BFA2EB1B
:1017B0000742B2EB074261EB17414FEA0C444FEA94
:1017C000910706FB07FC4FEA1C4C0CFB0BF7B0EB38
:1017D000C74072EB573203FB0CF734BFA2EBC74292
:1017E000B2EBC74261EB57310CFB0EF7B0EBC70011
:1017F00072EB57720CFB08F734BFA2EBC702B2EBD7
:10180000C70261EB5771039F4FEA816141EA921170
:1018100004EBCC044FEAD1374FEA826206FB07FCA7
:1018200042EA90124FEA80604FEA1C4C0CFB0BF727
:10183000D21B03FB0CF761EB07010CFB0EF7B0EBBF
:10184000074072EB17420CFB08F734BFA2EB0742CC
:10185000B2EB074261EB17414FEA8C554FEA910713
:1018600004EB9C2406FB07FC4FEA1C4C0CFB0BF71B
:10187000B0EBC74072EB573203FB0CF734BFA2EB5F
:10188000C742B2EBC74261EB57310CFB0EF7B0EB2E
:10189000C70072EB57720CFB08F734BFA2EBC7020C
:1018A000B2EBC70261EB577115EB4C254FEA816132
:1018B00041EA92114FEA82624FEAD13742EA90122E
:1018C00006FB07FC44F100044FEA80604FEA1C4C21
:1018D0000CFB0BF7D21B03FB0CF761EB07010CFBB6
:1018E0000EF7B0EB074072EB17420CFB08F734BF62
:1018F000A2EB0742B2EB074261EB174115EB1C1557
:101900004FEA813141EA92414FEA823242EA904203
:101910004FEA80304FEA0C7644F1000448EA034372
:101920004EEA0B484FF0000EB2EB080C71EB0307C8
:1019300024BF624639464EEB0E0E4FF0000B0018E6
:10194000524149414BEB0B0BB2EB080C71EB030717
:101950007BF1000B24BF624639464EEB0E0E4FF072
:10196000000B0018524149414BEB0B0BB2EB080C3A
:1019700071EB03077BF1000B24BF624639464EEB47
:101980000E0E51EA020718BF46F0010616EB0E765E
:1019900055F1000254F1000103D5BDE88901BDE80D
:1019A0000088BDE88901BDE80048B619524141EB05
:1019B0000101A3F10103704780807F7E7D7C7B7AEB
:1019C0007978777676757473727171706F6E6E6DEB
:1019D0006C6C6B6A6A696868676666656464636391
:1019E00062616160605F5F5E5E5D5D5C5C5B5B5A17
:1019F0005A59595858575756565555555454535384
:101A000052525251515050504F4F4F4E4E4D4D4DDE
:101A10004C4C4C4B4B4B4A4A4A4949494848484729
:101A20004747474646464545454444444443434367
:101A30004342424242414141002B9C4630D4770010
:101A40002BD01CB54FEA370703B44FF010004FF00E
:101A50001001BAF1000F06D0BCF1000FDCBF40F05E
:101A6000080040F008014FF000000FBCBDE8104036
:101A70000BF1010BBBF1010F08BF5FEA170722BF93
:101A800012F1010211F101014FF0004143F1000395
:101A900000F0004043EA00007047F9D35708D0E750
:101AA00046EA064613F1400F4FEA16461FDD13F1D2
:101AB000200FDFBF16430A46002120335B42BED011
:101AC000C3F1200746EA064602FA07F74FEA164630
:101AD00046EA0706C3F1200722FA03F201FA07F7E4
:101AE00021FA03F14FF0000342EA0702A7E746EAB2
:101AF000020646EA06464FEA164646EA0106BCBF1B
:101B000046EA0646360C4FF000034FF000024FF055
:101B1000000194E72DE9804C9A46934670B491E811
:101B2000380007C831EA400C48BF34EA430C03D5FB
:101B3000FFF7E6FDFFF780FFF0BCBDE8008C2DE964
:101B4000804C9A46934670B491E8380007C810F06C
:101B5000804F08BF13F0804F03D100F005F8FFF766
:101B60006BFFF0BCBDE8008C20F07F4780EA0300EB
:101B700023F07F4C07EB0C03A3F57C5300F00040EF
:101B8000A3F1FE0392F0000F00F0B38095F0000F78
:101B900000F077802DE901494FEA11404FEA1446E1
:101BA00021EA004800FB06FC24EA064708FB06F68B
:101BB00007FB08F800FB07F718EB06484CEB164C40
:101BC0004FEA124B18EB07484FEA15464CEB17400B
:101BD00022EA0B4E0BFB06FC25EA06470EFB06F637
:101BE00007FB0EFE0BFB07F71EEB064E4CEB164CED
:101BF0004FF000061EEB074E4CEB174B18EB0B0893
:101C000040F1000018EB0E0B58EB000840F100000B
:101C10008F1A4FF000013CBFC943661B14BFB5EBE0
:101C2000040C00213CBFC943F61B4FEA17444EEA9F
:101C30008E0E27EA04454FEA1C4704FB07622CEA94
:101C4000074C05FB07F70CFB05F604FB0CFC16EB39
:101C5000074642EB174216EB0C4642EB1C421BEBCD
:101C6000060658EB0202414146EA9E0601D5BDE850
:101C70000189B619524141EB0101A3F10103BDE80D
:101C800001894FEA14454FEA114724EA054621EA43
:101C9000074C05FB07F406FB07F70CFB06F105FBF9
:101CA0000CFC11EB074144EB17444FEA124711EBD0
:101CB0000C4144EB1C4422EA074C05FB07F206FBEF
:101CC00007F70CFB06F605FB0CFC16EB074642EB90
:101CD000174216EB0C4642EB1C456A1854F1000102
:101CE00048BF7047B619524141EB0101A3F101030E
:101CF000704795F0000F37D04FEA11424FEA144772
:101D000021EA024624EA074C02FB07F106FB07F72B
:101D10000CFB06F402FB0CFC14EB074441EB1741EF
:101D20004FEA154714EB0C4441EB1C4125EA074CE4
:101D300002FB07F506FB07F70CFB06F602FB0CFCA3
:101D400016EB074645EB174516EB0C4645EB1C42D8
:101D5000121951F1000148BF7047B619524141EBC9
:101D60000101A3F1010370474FEA14454FEA1147FF
:101D700024EA054621EA074C05FB07F106FB07F7B5
:101D80000CFB06F24FF0000605FB0CFC12EB0742C1
:101D900041EB174112EB0C4251EB1C4148BF70471D
:101DA000921841EB0101A3F10103704700BFFEE768
:101DB0002DE9F04188B007460C4615461E46DDF871
:101DC00038801020FEF75AFA01900198A0F80C8094
:101DD00001980460019805810198468100200199CD
:101DE0004860019988733048029030480390304829
:101DF000049000200590079006902E48844204D15C
:101E00000121042001F058F92EE02B48844204D12E
:101E10000121082001F050F926E02848844204D12D
:101E20000121102001F048F91EE02548844204D128
:101E30000121202001F040F916E02248844204D11B
:101E40000121402001F038F90EE01F48844204D1FE
:101E50000121802001F030F906E01C48844203D1C2
:101E60000121801501F028F903208DF802001420CB
:101E70008DF8030045EA0600ADF8000069462046EB
:101E800000F04DF801222946204600F028F90122F1
:101E90003146204600F023F91C2201A93846FEF7FE
:101EA0002FFA08B0BDE8F081AD310008F522000836
:101EB0008121000800080140000C01400010014091
:101EC0000014014000180140001C014000200140A6
:101ED000704700B5034603E04FF47A7000F005F850
:101EE000181EA3F10103F7D100BD00B9704700EB44
:101EF000C001C9004FF0E02251610021916105212C
:101F0000116100BF4FF0E021096901F4803100291F
:101F1000F8D004214FF0E022116100BFE6E72DE97F
:101F2000F04102460025002600200023002400275F
:101F300091F803C00CF00F0591F803C00CF0100CE1
:101F4000BCF1000F03D091F802C04CEA050591F8EE
:101F500000C0BCF1000F31D0146800202BE04FF01E
:101F6000010C0CFA00F3B1F800C00CEA03069E4223
:101F700020D183004FF00F0C0CFA03F7BC4305FA95
:101F800003FC4CEA040491F803C0BCF1280F06D10D
:101F90004FF0010C0CFA00FCC2F814C00AE091F8F2
:101FA00003C0BCF1480F05D14FF0010C0CFA00FC46
:101FB000C2F810C0401C0828D1D31460B1F800C08A
:101FC000BCF1FF0F34DD546800202EE000F1080C56
:101FD0004FF0010808FA0CF3B1F800C00CEA030650
:101FE0009E4221D183004FF00F0C0CFA03F7BC4343
:101FF00005FA03FC4CEA040491F803C0BCF1280F75
:1020000005D100F1080C08FA0CF8C2F8148091F818
:1020100003C0BCF1480F07D100F1080C4FF00108D4
:1020200008FA0CF8C2F81080401C0828CED354607F
:10203000BDE8F081F0B50A46002300240021002508
:1020400000F00046B6F1004F02D11D4EF16901E0EB
:102050001B4E7168C0F3034583B200F44016B6F519
:10206000401F08D121F07061154E766826F0706629
:10207000134F7E6012E000F48016B6F5801F06D183
:10208000032606FA05F4A14341F0706106E0460D0F
:10209000360103FA06F6B14341F0706122B1460DF4
:1020A000360103FA06F6314300F00046B6F1004F60
:1020B00002D1034EF16101E0014E7160F0BD0000FC
:1020C000000001400246002093680B400BB1012044
:1020D00000E00020704741617047016170470AB11C
:1020E000016100E04161704770B505460E464FF44E
:1020F0007A7402E0641E04B905E03146284600F017
:1021000012F80128F6D100BF70BD00BFFEE721B173
:10211000028842F48062028004E002884FF6FF33B6
:102120001A400280704770B5024600240025002343
:102130000020958A138B1B0445EA030626F07F4492
:1021400004EA01068E4201D1012000E0002070BDAA
:1021500021B1028842F48072028004E002884FF6C6
:10216000FF631A400280704721B1028842F4007276
:10217000028004E002884FF6FF531A400280704745
:1021800070B50546504800680068807B002876D00E
:102190004D490968096848680121FFF7D9FF4A4994
:1021A0000968096848684949FFF79EFF464A12686E
:1021B0001268117B444A126812685068002200F0CD
:1021C0008DF841490968096848684149FFF78CFF63
:1021D0003D49096809684868294600F088F83A4985
:1021E0000968096848683A49891CFFF77DFF364944
:1021F0000968096848680121FFF7AAFF32490968A0
:10220000096848683149FFF76FFF2F4A1268126862
:10221000117B2D4A126812685068012200F05EF8A6
:1022200029490968096848682849491CFFF75CFF83
:1022300025490968096848680021FFF768FF2249B5
:102240000968096848680121FFF78EFF1E4909687F
:10225000096848681D493F31FFF746FF1A49096878
:102260000968486800F036F80446174909680968A3
:1022700048680121FFF74BFF204670BDFFE700F0E3
:10228000D0FF114909680968087B00F0EFFF00F0F2
:102290009FFF284600F0EAFF00F09AFF00F0C1FF20
:1022A000094909680968097B41F0010000F0DEFF77
:1022B00000F08EFF00F09BFF0446012000F0CAFFF3
:1022C00000F0BDFF2046D8E76000002001000300B9
:1022D000820007000146088AC0B2704712B141F07F
:1022E000010102E04FF6FE7319400182704701823E
:1022F0007047000070B504460D463148006800681C
:10230000807B002845D02E4909680968486801216A
:10231000FFF71EFF2A490968096848682949FFF73D
:10232000E3FE274A12681268117B254A1268126878
:1023300050680022FFF7D2FF214909680968486800
:102340002149FFF7D1FE1E490968096848682146FE
:10235000FFF7CDFF1A490968096848681A49891EBC
:10236000FFF7C2FE16490968096848682946FFF761
:10237000BEFF13490968096848681349891CFFF7BB
:10238000B3FE0F490968096848680121FFF7ECFEB0
:1023900015E000F046FF0A4909680968087B00F06B
:1023A00065FF00F015FF204600F060FF00F010FF11
:1023B000284600F05BFF00F00BFF00F040FF70BD0F
:1023C000600000200100030082000700F0B505ACAA
:1023D000F0CCC0E900234FF0000C0449C0E902C171
:1023E000C0E90445C0E90667F0BD00000000F03F09
:1023F0002DE9FF5F824614461D46DAE90483424612
:10240000DAE902B1584602F063FDCAE90201DAE9ED
:1024100006834246DAE902B1584602F059FDCDE999
:10242000020102460B46DAE902894046494602F0BB
:102430000BFE06460F46DAE900834246204629464F
:1024400003F0C4F932463B46CDE9000103F024F81D
:10245000CDE90201DAE90083424602F039FDCAE91A
:10246000000132463B460020084903F0AFF9CDE9B0
:102470000201DAE90283424603F00EF8CAE90201DA
:10248000DAE9000104B0BDE8F09F00000000F03F71
:102490002DE9F04F95B004460020149011900E9055
:1024A000D448D54A1060C1683C2088478346D1484B
:1024B000D14A1060C1683B2088470BEB002000B276
:1024C0001490149802F081FF0022CC4BCDE9040156
:1024D00002F0E2FF0022CA4BCDE9060102F0B4FD92
:1024E000CDE9080102F0C2FC1390C248C24A106054
:1024F000C1683E2088478346BE48BF4A1060C16815
:102500003D2088470BEB002000B21490149802F095
:102510005CFF0022B94BCDE9040102F0BDFF0022AF
:10252000B74BCDE9060102F08FFDCDE9080102F0BD
:102530009DFC1290AF48B04A1060C16840208847A7
:102540008346AC48AC4A1060C1683F2088470BEB1B
:10255000002000B21490149802F037FF0022A74B1D
:10256000CDE9040102F098FF0022A54BCDE9060158
:1025700002F06AFDCDE9080102F078FC11909D4857
:102580009D4A1060C16844208847834699489A4A0A
:102590001060C168432088470BEB002000B2149004
:1025A000149803F0ADFB9749059003F0F5FB8346C3
:1025B00003F0F6F9944A954BCDE9060102F06CFF61
:1025C000CDE9080102F052FC10908A488A4A106056
:1025D000C1684620884783468648874A1060C1689C
:1025E000452088470BEB002000B21490149803F0AC
:1025F00087FB8449059003F0CFFB834603F0D0F9B5
:10260000814A824BCDE9060102F046FFCDE908017F
:1026100002F02CFC0F907748774A1060C168482080
:10262000884783467348744A1060C16847208847CA
:102630000BEB002000B21490149803F061FB714979
:10264000059003F0A9FB834603F0AAF96E4A6F4B8D
:10265000CDE9060102F020FFCDE9080102F006FCF9
:102660000E906B4801680E9803F094FC0E90119840
:1026700003F096F9CDE90201129803F091F9CDE942
:102680000001DDE9022301F03BFD0022614BCDE9B1
:10269000040102F001FF604A604BCDE9060102F03F
:1026A000D3FCCDE9080102F0E1FB8146119803F06B
:1026B00077F9CDE90201139880F0004B584603F0FA
:1026C0006FF9CDE90001DDE9022301F019FD0022D7
:1026D000504BCDE9040102F0DFFE4F4A4F4BCDE9EC
:1026E000060102F0B1FCCDE9080102F0BFFB824611
:1026F0000F980D9010980C9042490D9803F04CFBE8
:10270000834647480168584603F076F905463D4937
:102710000C9803F041FB834642480168584603F099
:102720006BF90646404FB8462946484603F032FC4E
:10273000834603F035F921F0004100223B4BCDE9FF
:10274000080102F0A7FF00D2394F3146504603F08E
:1027500021FC834603F024F921F000410022334B91
:10276000CDE9080102F096FF01D2DFF8C4803946B6
:102770004FF07E5003F00EFC2946089003F00CFB4E
:1027800083464946384603F007FB5946099003F053
:1027900033F9606041464FF07E5003F0FBFB314659
:1027A000089003F0F9FA83465146404603F0F4FAE4
:1027B0005946099003F020F9A060194805601948AE
:1027C00006601C480B9000200A901A490E9803F0EE
:1027D000E3FA0021099003F00FF98346216803F022
:1027E0000BF92060206801F0D1FF206015B0BDE832
:1027F000F08F0000780400206000002000003040CE
:102800000000E0400AD7A33B5F40D42247DF913F5E
:1028100064000020008066404AD8124DFB21094028
:10282000680000206C0000203333733F0000244018
:10283000CDCC4C3F0000204170B5044634483549AA
:102840000860802182686B2090476420FFF741FB7D
:102850002F4830490860002182686B20904720880B
:10286000B0F57A7F03DD4FF47A70208004E0208891
:10287000042801DA0420208020884FF47A7191FB2B
:10288000F0F0401EC6B222482249086031468268F4
:1028900019209047A1791E481E4B18608268382085
:1028A0009047A1781A481B4B186082681A209047FD
:1028B000E1781748174B186082681B2090472179F0
:1028C0001348144B186082681C20904761791048A7
:1028D000104B18608268232090470025607900B172
:1028E0004025A07900F00800012801D145F0080535
:1028F000074808490860294682686A2090470448CA
:1029000004490860012182686B20904770BD000077
:1029100078040020600000202DE9F04F8BB00446C1
:1029200089469246D02053464A462146009002A846
:10293000FFF73EFA1C2202A92A48FDF7E1FC4FF4FA
:10294000FA70ADF8240006208DF8260018208DF8C6
:1029500027008DF8280000208DF829008DF82A0026
:1029600009A8FFF769FF4FF0000B2EE01D481E4A33
:102970001060C1684820884705461A481A4A106006
:10298000C1684720884705EB002000B208900898EE
:1029900002F01BFD0746154A154B02F07DFD154A56
:1029A000154BCDE9040102F077FD054602F05EFA11
:1029B000079012480799006803F01EF80F49086055
:1029C0000520FFF786FA0BF1010BBBF57A7FCDDB13
:1029D0000B490A48006803F07DF8084908600BB00D
:1029E000BDE8F08F78040020600000207B14AE4723
:1029F000E17A743F5F40D42247DF913F64000020BA
:102A000000007A4400BFFEE710B5084A1268126859
:102A10005189064A126812681068FFF753FB044692
:102A20000020FFF762FA204610BD00006000002081
:102A300010B504464CB10B4800680068008909498C
:102A4000096809680968086108E0064800680068C4
:102A50000089044909680968096848610020FFF78E
:102A600044FA10BD6000002010B504464CB10B487C
:102A700000680068408909490968096809680861AF
:102A800008E0064800680068408904490968096848
:102A9000096848610020FFF728FA10BD6000002097
:102AA0007047000070B5002100230F22C47804B3E2
:102AB000154C246804F4E064C4F5E064210AC1F113
:102AC0000403CA40447804FA03F184781440214393
:102AD00009010E4C0678A155047804F01F05012465
:102AE000AC4005786D11AD0005F1E025C5F8004159
:102AF00009E0047804F01F050124AC40044D067879
:102B0000761145F8264070BD0CED00E000E400E0D1
:102B100080E100E002490143024A11607047000071
:102B20000000FA050CED00E000200CE0002106E0BA
:102B30000022064B03EBC0135A544A1CD1B2802921
:102B4000F6DB421CD0B20828F0DB7047780000208A
:102B50002DE9F04304460D4616461F46284638E048
:102B6000224631E0002A2DDB7F2A2BDC002829DBDE
:102B70003F2827DC4FEAE07C00EB5C7C4FEAEC0C62
:102B8000DFF8588008EBCC1C1CF802C003464FEA63
:102B9000E07800EB58784FEAE808A0EBC8094FF05E
:102BA000010808FA09F82CEA080C01464FEAE07817
:102BB00000EB58784FEAE808DFF8209009EBC818D6
:102BC00008F802C0511C0AB2A1199142CADC411C8A
:102BD00008B2E9198142C3DCBDE8F0837800002027
:102BE00038B5002406E0002500E06D1CB5F57A7FBD
:102BF000FBD3641CB4F57A7FF5D30121082000F0E3
:102C00005BFA14208DF8030003208DF802004FF4C6
:102C10008070ADF8000069460848FFF780F94FF46E
:102C20000070ADF8000069460448FFF778F901200C
:102C300000F0F2F9012000F0FBF938BD000C014072
:102C400070B50546002411E080212141294009B1D9
:102C5000012100E00021084600F0EAF9012000F01F
:102C6000DBF9002000F0D8F9601CC4B2082CEBDBC3
:102C7000012000F0D1F9002000F0CEF970BD10B5B0
:102C8000012000F0D5F9012000F0C6F9002000F085
:102C9000CFF9002000F0C0F910BD10B5002000F001
:102CA000C7F9012000F0B8F9012000F0C1F910BD0A
:102CB00010B5FFF795FFAE2000F0C6F9D52000F063
:102CC000C3F9802000F0C0F9A82000F0BDF93F2032
:102CD00000F0BAF9D32000F0B7F9002000F0B4F901
:102CE000402000F0B1F9A12000F0AEF9C82000F0BA
:102CF000ABF9DA2000F0A8F9122000F0A5F9812044
:102D000000F0A2F9CF2000F09FF9D92000F09CF943
:102D1000F12000F099F9DB2000F096F9302000F066
:102D200093F9A42000F090F9A62000F08DF98D20F1
:102D300000F08AF9142000F087F9AF2000F084F940
:102D4000FFF7F2FE00F054F910BD10B50246012065
:102D500000E050430B1EA1F10101FAD110BD70B586
:102D600005460C4645F0B00000F06EF9102141EA2E
:102D7000141000F069F904F00F0000F065F970BD5F
:102D8000F8B506460F4614461D46082D0CD1A4F191
:102D900020000E4901EB0010102308223946009054
:102DA000304600F081F80FE0062D0DD1A4F120008F
:102DB00000EB4000064901EB40000823062239469B
:102DC0000090304600F070F8F8BD00007661000811
:102DD000666700082DE9FF5F86B0074614461D466A
:102DE000DDF85080169E002213462046294602F048
:102DF00051FC06D833462B2238460799FFF7C0FF0F
:102E000007E033462D2238460799FFF7B9FF85F0D2
:102E100000452046294602F0ABFA8246504602F0B1
:102E2000EBFA22462B46CDE9040102F0C3FC04462E
:102E30000D460A201599FFF788FF8146484602F0A3
:102E4000DBFA22462B46CDE9000102F025FBCDE955
:102E5000020101F055FECDE9040102F089FA834632
:102E6000BBFBF9F08244B91908B2434652460096BA
:102E7000079900F097F808F1010101FB067108B20B
:102E800033462E220799FFF77BFF08F1020101FB71
:102E9000067108B200965A46159B079900F082F811
:102EA0000AB0BDE8F09F00002DE9FF4F80460E46B6
:102EB0009146DDF834B0002500244A4631464046AC
:102EC000039BFFF745FE00BF5EE0002558E008EBDE
:102ED0000500002852DB08EB05007F284EDC304659
:102EE000F11706EB5171C9100FB2F11706EB5171D2
:102EF000C910A6EBC10A002E05DA781E07B20AF146
:102F000008000FFA80FA3819002817DB381907284B
:102F100014DC3819224901EBC01008EB0501405CB4
:102F200004FB09511BF8011001FA0AF10843391991
:102F30001B4A02EBC11108EB050288543819401CEA
:102F400000281BDB3819401C072817DC3819401CE7
:102F5000134901EBC01008EB0501405C04FB09516B
:102F60001BF80110CAF10802114108433919491C24
:102F70000B4A02EBC11108EB05028854681CC5B26C
:102F80004D45A4DB601CC4B20399481EC11700EB79
:102F90005171012202EBE101A14296DCBDE8FF8FF5
:102FA000780000202DE9F0470646894617461D4661
:102FB000DDF82080002417E0281B411E0A20FFF7BF
:102FC000C4FEB7FBF0F00A21B0FBF1F201FB1200E6
:102FD00000F1300A04FB086108B2434652464946F4
:102FE000FFF7CEFE601CC4B2AC42E5DBBDE8F08763
:102FF00010B500240BE000212046FFF7B0FE054984
:1030000001EBC410802100F02FF8601CC4B2082C22
:10301000F1DB10BD7800002010B5044622464FF4C5
:1030200080710248FFF75BF810BD0000000C014002
:1030300010B5044622464FF400710248FFF74FF8DE
:1030400010BD0000000C014010B50446FFF717FE4C
:103050007820FFF7F5FD0020FFF7F2FD2046FFF78F
:10306000EFFDFFF71AFE10BD70B505460E46FFF7DF
:1030700006FE7820FFF7E4FD4020FFF7E1FD002485
:1030800004E0285DFFF7DCFD601CC4B2B442F8DB4D
:10309000FFF703FE70BD704729B1064AD2690243AB
:1030A000044BDA6104E0034AD2698243014BDA61DE
:1030B000704700000010024029B1064A926902439D
:1030C000044B9A6104E0034A92698243014B9A617E
:1030D000704700000010024030B50021002200249B
:1030E00000232D4D6D6805F00C0121B1042905D098
:1030F000082923D105E0294D056022E0274D056010
:103100001FE0254D6D6805F47012234D6D6805F4C0
:103110008034022505EB92421CB9214D55430560D0
:103120000BE01D4D6D6805F400351DB11C4D554378
:10313000056002E0194D5543056002E0174D05603A
:1031400000BF00BF144D6D6805F0F0010909154D71
:103150006B5C0568DD4045600F4D6D6805F4E0610E
:10316000090A104D6B5C4568DD4085600A4D6D684D
:1031700005F46051C90A0B4D6B5C4568DD40C560C4
:10318000054D6D6805F44041890B074D6B5CC568C2
:10319000B5FBF3F5056130BD0010024000127A0066
:1031A00000093D00000000201000002010B500F0D4
:1031B00038F8064909680968087B00F057F800F0FC
:1031C00007F8044600F03BF8204610BD60000020E0
:1031D00010B50120FFF748FC0120FFF729FCFFF79D
:1031E00013FC04460020FFF723FC204610BD70B5F9
:1031F00000250120FFF738FC00240EE00120FFF736
:1032000017FCFFF701FC012802D180202041054373
:103210000020FFF70DFC601CC4B2082CEEDB284632
:1032200070BD10B50120FFF71FFC0120FFF700FC67
:103230000020FFF719FC0020FFF7FAFB10BD10B5C6
:103240000020FFF711FC0120FFF7F2FB0120FFF740
:103250000BFC10BD10B504462046FFF705FC01200D
:10326000FFF7E6FB0020FFF7E3FB10BD70B5054656
:10327000002416E08021214101EA0500FFF7F4FB5C
:103280000020FEF732FE0120FFF7D2FB0020FEF700
:103290002CFE0020FFF7CCFB0020FEF726FE601C72
:1032A000C4B2082CE6DB70BD7047000008B50121F0
:1032B0000420FFF701FF04208DF803008001ADF822
:1032C000000069460B48FEF72AFE01210A48FEF776
:1032D000B1FE01210820FFF7EFFE04208DF8030066
:1032E0004FF47040ADF8000069460448FEF717FE41
:1032F00008BD00000008014000013000000C014042
:1033000000B587B001218803FFF7D6FE0121042014
:10331000FFF7D2FE18208DF81B004FF40070ADF8B7
:10332000180003208DF81A0006A92148FEF7F7FDC2
:1033300048208DF81B004FF48060ADF81800032082
:103340008DF81A0006A91A48FEF7E9FD4FF4E1309E
:1033500002900020ADF814000C20ADF812000020FF
:10336000ADF81000ADF80E00ADF80C0002A9114840
:1033700000F0C0FC012240F225510E4800F094FC00
:103380004FF4A060FFF7C6FB25208DF80400012054
:103390008DF807008DF805008DF8060001A8FFF7ED
:1033A00081FB0121034800F03CFC07B000BD000098
:1033B00000080140003801400FB400B59BB01DA8C3
:1033C000019002A8019A1C99FCF788FF0020019047
:1033D00002A800F013F81BB05DF814FB10B504460A
:1033E0002146054800F0F7FC00BF8021024800F0AC
:1033F00024FC0028F9D010BD0038014070B5044607
:10340000002504E0605DFFF7E9FF681CC5B2605D60
:103410000028F7D170BD10B500F002F810BD000013
:103420000CB50020019000903348006840F48030D3
:103430003149086000BF3048006800F40030009057
:103440000198401C0190009818B90198B0F5A06F40
:10345000F1D12948006800F4003010B1012000903B
:1034600001E0002000900098012843D12348006823
:1034700040F01000214908600846006820F0030071
:1034800008600846006840F0020008601A4840687A
:10349000194948600846406848600846406840F45A
:1034A000806048600846406820F47C104860084608
:1034B000406840F4E81048600846006840F08070BA
:1034C000086000BF0C48006800F000700028F9D0C8
:1034D0000948406820F003000749486008464068F2
:1034E00040F00200486000BF0348406800F00C0054
:1034F0000828F9D10CBD0000001002400020024055
:103500007047000010B51348006840F001001149F1
:10351000086008464068104908400E49486008465F
:1035200000680E4908400B4908600846006820F40E
:10353000802008600846406820F4FE0048604FF490
:103540001F008860FFF767FF4FF0006004490860C4
:1035500010BD0000001002400000FFF8FFFFF6FE63
:1035600008ED00E0F0B50C46154600220021068C5F
:103570004FF6FE773E400684028B018C4FF60C76A8
:1035800032407E1C06EA03162E433243104EB042F0
:103590000ED0104EB0420BD0B0F1804F08D00E4E7E
:1035A000B04205D00D4EB04202D00D4EB04206D111
:1035B0004FF6FD76314044F00106314305E04FF609
:1035C000F576314044F00106314302830184F0BDB9
:1035D000002C01400034014000040040000800407D
:1035E000000C0040F0B50C461546002200210026D4
:1035F000078C4FF6EF7C07EA0C070784028B018CDF
:103600004FF6FF7707EA041640F6FF473A404FF6B9
:10361000FF7707EA03373A434FF6FF7707EA0527B4
:103620003A43114FB8420ED0104FB8420BD0B0F110
:10363000804F08D00E4FB84205D00E4FB84202D08E
:103640000D4FB84206D14FF6DF77394046F01007EC
:10365000394305E04FF65F77394044F010073943AE
:1036600002830184F0BD0000002C014000340140C1
:103670000004004000080040000C0040F0B50C467B
:103680001546002200210026078C4FF6FF6C07EA42
:103690000C070784828B018C4FF6FF7707EA04261C
:1036A0004FF60C773A404FF6FF7707EA03172F43A0
:1036B0003A43114FB8420ED0104FB8420BD0B0F180
:1036C000804F08D00E4FB84205D00E4FB84202D0FE
:1036D0000D4FB84206D14FF6FF57394046F4807778
:1036E000394305E04FF2FF57394044F480773943BE
:1036F00082830184F0BD0000002C014000340140B1
:103700000004004000080040000C0040F0B50C46EA
:103710001546002200210026078C4EF6FF7C07EAA2
:103720000C070784828B018C4FF6FF7707EA04367B
:1037300040F6FF473A404FF6FF7707EA05273A433E
:103740004FF6FF7707EA03373A43114FB8420ED0DE
:10375000104FB8420BD0B0F1804F08D00E4FB84296
:1037600005D00E4FB84202D00D4FB84206D14DF6EB
:10377000FF77394046F48057394305E047F6FF5755
:10378000394044F48057394382830184F0BD0000FE
:10379000002C0140003401400004004000080040BB
:1037A000000C004070B50121134800F063F80128B7
:1037B00020D112480088401C104908800846008823
:1037C000282813DB0020088001F060F801F0D4F80D
:1037D0000B48006802F074FAC4B20A48006802F0AC
:1037E0006FFAC5B22146284600F0C2FF0121024807
:1037F00000F00DF870BD0000002C014076000020A4
:10380000400000201C000020CA4302827047CA43C7
:103810000282704721B1028842F00102028004E076
:1038200002884FF6FE731A4002807047F0B50C46CE
:1038300015461E460021002200230189028B038CBD
:103840004FF6F877394021434FF6FC473A4040F2B3
:1038500001173A434FF6DD773B404FF6FF7707EA13
:1038600006172F433B43018102830384F0BD0146C9
:10387000888C704730B50246002000230024158A4A
:1038800005EA0103958905EA010413B10CB1012091
:1038900000E0002030BD000070B505460C4624480D
:1038A00085420ED0234885420BD0B5F1804F08D019
:1038B0002148854205D02148854202D020488542D2
:1038C00000D100E000BF208850B92389A288618818
:1038D0002846FFF747FEE188284600F0F9F825E082
:1038E000208804280AD12389A28861882846FFF706
:1038F00079FEE188284600F0F4F817E020880828CF
:103900000AD12389A28861882846FFF7B7FEE1889B
:10391000284600F0F3F809E02389A2886188284648
:10392000FFF7F4FEE188284600F0F1F870BD0000D2
:10393000002C014000340140000400400008004019
:10394000000C004000210180418001218180002184
:10395000C180018170471AB183890B43838102E0E2
:1039600083898B438381704701894FF6F872114038
:103970000181704770B5002400220023058C4FF6AA
:10398000FE7635400584028C8388048B4FF68F7554
:103990002C40B51E2C400D882C43751E2A400D89E5
:1039A0002A434D882A43144DA8420BD0134DA842F8
:1039B00008D0134DA84205D0124DA84202D0124D96
:1039C000A84213D14FF6F7752A404D892A434FF686
:1039D000FB752A408D882A434FF6FF652B404FF632
:1039E000FF552B408D892B43CD892B438380048346
:1039F000CD888586028470BD002C014000340140D2
:103A000000400140004401400048014070B50024DE
:103A100000220023058C4FF6EF7635400584028C9A
:103A20008388048B48F6FF752C404FF6FF452C40E9
:103A30000D884FF6FF7606EA05252C434FF6DF7515
:103A40002A400D8906EA05152A434D8806EA051520
:103A50002A43154DA84202D0144DA8421DD14FF65D
:103A60007F752A404D894FF6FF7606EA05152A43F1
:103A70004FF6BF752A408D8806EA05152A434FF692
:103A8000FF352B404FF2FF752B408D8906EA8505E7
:103A90002B43CD8906EA85052B4383800483CD889B
:103AA0000587028470BD0000002C014000340140F5
:103AB0000021018041808180C1800181418181811B
:103AC000C181704781867047018770478184704744
:103AD000028B4FF6F3731A400283028B0A43028370
:103AE0007047028B4FF2FF331A400283028B4FF66E
:103AF000FF7303EA01231A4302837047828B4FF658
:103B0000F3731A408283828B0A4382837047828BCD
:103B10004FF2FF331A408283828B4FF6FF7303EA22
:103B200001231A4382837047002202881D4B98426A
:103B30000ED01D4B98420BD0B0F1804F08D01B4BDC
:103B4000984205D01A4B984202D01A4B984204D1A1
:103B50004FF68F731A404B881A43174B984207D081
:103B6000164B984204D04FF6FF431A40CB881A43B5
:103B700002808B8883850B8803850A4B98420BD083
:103B8000094B984208D00E4B984205D00D4B9842F5
:103B900002D00D4B984201D10B7A03860123838218
:103BA00070470000002C0140003401400004004038
:103BB00000080040000C00400010004000140040CD
:103BC00000400140004401400048014010B540F26F
:103BD0002551094800F03EF801280CD1064800F0B4
:103BE000F5F80649087001200549087040F2255192
:103BF000014800F007F810BD003801405C000020CB
:103C00005D00002010B50022002340F66A14A14296
:103C100000D100BF0A1201249440A3B2DC43048007
:103C200010BD21B1828942F40052828104E0828970
:103C30004DF6FF731A408281704702460020B1F5AD
:103C4000007F00D100BF13880B400BB1012000E0C2
:103C50000020704770B50246002400230025002094
:103C600040F66A16B14200D100BFC1F3421501F01F
:103C70001F03012606FA03F3012D02D19689334072
:103C800006E0022D02D1168A334001E0968A3340C5
:103C90000C12012606FA04F41688344013B10CB154
:103CA000012000E0002070BDF0B50346002400268E
:103CB0000025002040F66A17B94200D100BF18461F
:103CC000C1F3421401F01F06012707FA06F5012C83
:103CD00001D10C3004E0022C01D1103000E014308E
:103CE0001AB107682F43076002E00768AF43076017
:103CF000F0BD00002DE9F04786B005460E460024D1
:103D0000A24600BFA1460027B08900B100BF2F46E0
:103D10002C8A4CF6FF700440F08804432C82AC8956
:103D20004EF6F3100440B088318908437189084386
:103D30000443AC81AC8A4FF6FF400440B089044391
:103D4000AC8201A8FFF7C8F91F48874202D1DDF80D
:103D500010A001E0DDF80CA0A88900F4004040B1FB
:103D60000AEBCA0000EB0A1031684900B0FBF1F819
:103D700007E00AEBCA0000EB0A1031688900B0FBCB
:103D8000F1F86420B8FBF0F004012009642101FB84
:103D90001089A88900F4004040B1322000EBC9002E
:103DA000B0FBF1F000F00700044308E0322000EB24
:103DB00009106421B0FBF1F000F00F0004432C81E6
:103DC00006B0BDE8F0870000003801400146888851
:103DD000C0F308007047C1F308028280704700BF3B
:103DE000FEE7490050EAC12018BF04204A0D18BF61
:103DF00040F0010040F2FF72B2EB515F08BF40F0AB
:103E00000200012808BF052070472DE9F0414F1E30
:103E100000EBC7010446D1E9000115461E4637F004
:103E200006020DD02A46334601F036FB7F1E04EB16
:103E3000C703D3E9002301F04BF837F00602F1D1B4
:103E4000022F25D0042F13D0062F18BFBDE8F08114
:103E50002A46334601F020FBD4E90A2301F038F862
:103E60002A46334601F018FBD4E9082301F030F864
:103E70002A46334601F010FBD4E9062301F028F866
:103E80002A46334601F008FBD4E9042301F020F868
:103E90002A46334601F000FBD4E9022301F018F86A
:103EA0002A46334601F0F8FAD4E90023BDE8F04190
:103EB00001F00EB8012202F018B901F009B80000B3
:103EC000024A0020110702F010B9000001FDFFFFB7
:103ED00030380A2801D201207047002070470000C6
:103EE0002DE9F84F04460D4621F00040009173493A
:103EF000814211DC7249884201DC06D12CB1204696
:103F00002946BDE8F84FFFF7D5BF6E48002DCCBF5E
:103F10006D496E49BDE8F88F6D49814211DD6D49EB
:103F20008142D8BF4FF0FF366DDD20462946FFF7AE
:103F300058FF042808BFFFF7C3FF20462946BDE805
:103F4000F88F6549654F25F00045814233DD6449AE
:103F5000814219DD002632464FF080432046294633
:103F600000F0B6FF80468A4601222046294602F02C
:103F7000BCF800223B4601F029FC4246534601F0C2
:103F800063F804460D463EE001260022BA463B4651
:103F90002046294600F09CFF80460F4600225346EB
:103FA0002046294601F012FC42463B4601F04CF8FF
:103FB00004460D4627E04B4981421BDDDFF828A16E
:103FC0000226002253462046294601F065FA0022C7
:103FD0003B4600F07DFF80460F46002253462046B8
:103FE000294601F0F3FB42463B4601F02DF804461A
:103FF0000D4608E0032622462B4600203B4901F0EF
:1040000023F804460D4622462B461046194601F079
:1040100043FA8B46824602460B4601F03DFA0746BC
:104020000246334888460B4606217844FFF7EDFEEA
:1040300052465B4601F030FA82462E488B463A469D
:10404000434605217844FFF7E0FE3A46434601F037
:1040500023FA02460B46002E504659460CDA00F071
:1040600037FF22462B4601F017FA01B022462B46B5
:10407000BDE8F04F01F09EBB00F02AFF22462B4620
:1040800001F00AFA1C4A7A4402EBC603D3E9002382
:1040900001F09CFB22462B4601F098FB174A7A441C
:1040A00002EBC603D3E9002301F084FB009A002A47
:1040B000B8BF81F00041BDE8F88F00000000104457
:1040C0000000F07F182D4454FB21F93FFB21F9BF7C
:1040D0000000DC3F0000203E0000F33F0000F03F06
:1040E0000000E63F008003400000F83F0000F0BF02
:1040F000422B0000002B00009E2A0000662A0000D0
:104100002DE9F04D9446CCF1000423F000464CEA32
:104110000404594F46EAD4749A46884621F0004276
:10412000BC4206D8454240EA050442EAD474BC4287
:1041300004D9BDE8F04D6246FFF7BFBEAAF1405575
:10414000A5F17F6555EA0C040BD0022404EAAA7499
:104150004A4DDFF82CE144EAD87452EA000B04D04F
:104160000CE0BDE8F04DFFF7BBBE002C14BF012CE6
:10417000BDE8F08D022C30D0032C32D056EA0C0B67
:104180000AD0BE4220D1BA4209D126F0804622F0A0
:1041900080423346114617E000291ADB25E0DFF89C
:1041A000E4B0FB44002C04BFDBE90001BDE8F08D66
:1041B000012C02BFDBE9000181F00041BDE8F08D78
:1041C000022C0AD0032C0CD0BA4212D1B8F1000F45
:1041D0000BDA2A482C49BDE8F08D28462B49BDE86A
:1041E000F08D28467146BDE8F08D24482849BDE889
:1041F000F08D921B12153C2AC4BF204F244E10DCB8
:10420000BAF1000FBEBF12F13C0F00273E4608DB9B
:10421000624600F019FF21F00041FFF761FE0746FA
:104220000E4694B1012C08BF86F000460DD0194A05
:10423000194B022C3846314615D001F0C7FA2A46F0
:10424000BDE8F04D114B01F0C1BA002213463846CB
:10425000314601F051F804BF0220FCF745F9384619
:104260003146BDE8F08D01F0B1FA2A46BDE8F04DC7
:10427000064B01F09FBA00000000F07F182D445457
:10428000FB2109C0FA290000FB21F9BFFB210940ED
:10429000FB21F93F075C143326A6A13C10B54FF46F
:1042A00080514448FDF70EFFD0B94FF4005141480A
:1042B000FDF708FFA0B94FF480413E48FDF702FF2B
:1042C00070B94FF400413B48FDF7FCFE40B94FF494
:1042D00080713948FDF7F6FE10B900F0A7F868E0E4
:1042E0004FF400513348FDF7EDFE70B94FF48041B3
:1042F0003048FDF7E7FE012807D1C1032D48FDF73F
:10430000E1FE10B900F05AF853E04FF4005129488B
:10431000FDF7D8FE01280ED181032648FDF7D2FE15
:10432000012808D1C1032348FDF7CCFE012802D1A2
:1043300000F044F83DE04FF480511E48FDF7C2FE06
:10434000012802D100F052F833E04FF480711A488E
:10435000FDF7B8FE012802D100F058F829E04FF42B
:1043600000511448FDF7AEFE01280DD1810311481C
:10437000FDF7A8FE40B94FF400410E48FDF7A2FE3C
:1043800010B900F033F814E04FF400510948FDF77C
:1043900099FE70B94FF480410648FDF793FE40B98D
:1043A0004FF400410348FDF78DFE012801D100F0D4
:1043B0002DF810BD000C01400008014002480349DF
:1043C00008600349086070470000C84238000020B8
:1043D0001400002002480349086003490860704740
:1043E000000048423800002014000020034804491F
:1043F0000860044804490860704700000000344227
:10440000140000200000B442380000200348044992
:104410000860044804490860704700000000B44286
:10442000140000200000344238000020002002491F
:10443000086002490860704714000020380000201E
:1044400000200349086003480349086070470000E2
:10445000140000200000A041380000200348044957
:104460000860002003490860704700000000A04178
:10447000140000203800002010B50548FFF7F7F9B8
:1044800004B200210248FFF721FB204610BD0000C6
:104490000004004010B50548FFF7E9F904B2002117
:1044A0000248FFF713FB204610BD00000008004043
:1044B00000B58DB001210220FEF7EEFD01210420A0
:1044C000FEF7FAFD48208DF83300C020ADF830002B
:1044D00003208DF832000CA93F48FDF720FD002095
:1044E000ADF82A00ADF826004FF6FF70ADF82800B1
:1044F0000020ADF824008DF82C0009A93748FFF7FB
:1045000013FB06A8FFF71EFA0020ADF818000F20D5
:10451000ADF8200006A93148FFF7BEF90420ADF838
:1045200018000F20ADF8200006A92C48FFF7B4F9B9
:1045300000231A4603212948FFF778F9012127486B
:10454000FFF768F901210420FEF7A6FD01210820EC
:10455000FEF7B2FD48208DF83300C020ADF83000E2
:1045600003208DF832000CA91B48FDF7D8FC002071
:10457000ADF81200ADF80E004FF6FF70ADF8100068
:104580000020ADF80C008DF8140003A91448FFF7C3
:10459000CBFA6846FFF7D6F90020ADF800000F20EF
:1045A000ADF8080069460E48FFF776F90420ADF82B
:1045B00000000F20ADF8080069460948FFF76CF9C4
:1045C00000231A4603210648FFF730F90121044869
:1045D000FFF720F90DB000BD0008014000040040C5
:1045E0000008004008B501210820FEF765FD4820BD
:1045F0008DF8030040F60840ADF8000003208DF868
:10460000020069460148FDF78AFC08BD000C014024
:1046100094B04FF0000AD34637493848CDE902102C
:104620003749384800221346CDE9001004A8FDF7A9
:10463000CDFE31493148CDE90210314931480022DF
:104640001346CDE900100CA8FDF7C0FE00F0A4FB56
:10465000FEF72EFB00F076F8FFF72AFFFEF750FE7C
:1046600000F000FAFFF7BEFF4FF400625110264839
:10467000FEF752F9FEF71AFE3CE02448FDF708FF6A
:104680002249486801F08CF9064632460B460CA8D0
:10469000FDF7AEFE044600F0E9FB82461B49886840
:1046A00001F07EF9064632460B4604A8FDF7A0FE4F
:1046B000044600F0DBFB83461449086801F070F9FA
:1046C00004460D46584601F06BF906460F46504623
:1046D00001F066F9804642460B460DA0CDE9006721
:1046E000CDE90245FEF768FE00F018F800F086F804
:1046F00000F050FAC1E700009A9999999999B93F49
:104700007B14AE47E17A843F000C01409404002002
:1047100025662C25662C25660D0A000010B504219F
:104720000748FDF7D8FC08210548FDF7D6FC102105
:104730000348FDF7D0FC20210148FDF7CEFC10BD59
:104740000008014008B501210420FEF7B5FC102047
:104750008DF803003C20ADF8000003208DF8020026
:1047600069460248FDF7DBFB08BD00000008014078
:1047700070B504460D4621464FF08040FFF7A2F980
:1047800029464FF08040FFF79FF970BD2DE9F041B9
:1047900004460BE0204601F003F905460022144BC5
:1047A00001F014F8074600F061FB0446204601F0D2
:1047B000F7F8054600220F4B00F06CFFEAD30BE040
:1047C000204601F0EDF805460022094B00F080FB81
:1047D000074600F04BFB0446204601F0E1F8054691
:1047E0000022054B00F01CFEEAD32046BDE8F08114
:1047F0000080764000806640008066C03EB5FEF7CF
:1048000093F92149086801F0CBF804460B460820CB
:10481000022100912246CDE9011000210846FEF751
:10482000D9FA1949086801F0BBF804460B4608207C
:10483000022100912246CDE9011000213C20FEF723
:10484000C9FA1149086801F0ABF804460B46082084
:10485000022100912246CDE9011028210020FEF717
:10486000B9FA0949086801F09BF804460B4608208C
:10487000022100912246CDE9011028213C20FEF7BB
:10488000A9FAFEF7B5FB3EBD940400202DE9F041E6
:10489000FFF7F2FD044601F033FA2C4908602C487A
:1048A00000682C490860294801682B48006801F01D
:1048B00071FB2749086000212848006801F0CCF905
:1048C00008D0234801682648006801F095F824497B
:1048D000086002E00020224908601E4801681C4868
:1048E000006801F057FB06461E480168304601F09B
:1048F00053FA04461A4801681848006801F04CFA57
:104900000646134801681848006801F045FA074652
:10491000314601F071F80546214601F06DF8134962
:10492000086013491148006801F002FB02D21048E8
:104930000E4908600F490D48006801F0F9F902D2EC
:104940000C480A490860BDE8F0810000180000200A
:104950002C00002030000020140000202400002043
:104960003400002028000020200000201C0000202F
:104970000000C8420000C8C22DE9F041FFF78AFDDF
:10498000044601F0BDF92C4908602C4800682C4908
:104990000860294801682B48006801F0FBFA2749A4
:1049A000086000212848006801F056F908D0234823
:1049B00001682648006801F01FF82449086002E0F9
:1049C0000020224908601E4801681C48006801F068
:1049D000E1FA06461E480168304601F0DDF904465A
:1049E0001A4801681848006801F0D6F906461348CD
:1049F00001681848006801F0CFF90746314600F019
:104A0000FBFF0546214600F0F7FF134908601349F4
:104A10001148006801F08CFA02D210480E49086073
:104A20000F490D48006801F083F902D20C480A4989
:104A30000860BDE8F08100003C000020500000202C
:104A400054000020380000204800002058000020BA
:104A50004C00002044000020400000200000C8421C
:104A60000000C8C200B589B001210420FEF724FB74
:104A700001210846FEF710FB18208DF823000320C3
:104A8000ADF820008DF8220008A91C48FDF747FA70
:104A90004FF08040FEF768FF0020ADF81A00ADF837
:104AA00016006320ADF818002320ADF81400002094
:104AB0008DF81C0005A94FF08040FFF735F801A8DC
:104AC000FEF7F6FF6020ADF804000020ADF80C0002
:104AD0000120ADF806000020ADF80A0001A94FF052
:104AE0008040FEF747FF01A94FF08040FEF78EFFA0
:104AF00001218807FEF78EFE09B000BD00080140C5
:104B00002DE9F04D07460E4600F0FAFD04460D462D
:104B10003A46334600F04EFEDFF86CA0DFF86CB08A
:104B20001B4B0746884616F0004F4FF000020AD094
:104B300000F076FC0AD900225B463846414600F078
:104B4000A9FD1BD212E000F06BFC08D200225346F4
:104B50002046294600F03AFE04460D460EE00022AB
:104B60005B463846414600F095FD07D80022534683
:104B70002046294600F0ACF904460D463146204651
:104B800065F31E01BDE8F08D0000F03F0000E03F3E
:104B90000000E0BF10B57848006840BBFFF71AFC82
:104BA0004FF400517548FDF78DFA01281BD04FF4E2
:104BB00080417248FDF786FA012814D04FF4004175
:104BC0006E48FDF77FFA01280DD04FF480716C48D4
:104BD000FDF778FA012806D04FF480516748FDF7B9
:104BE00071FA012802D1012063490860C3E06248DC
:104BF0000068012828D1FFF751FB4FF400515F48AE
:104C0000FDF760FA0028F1D14FF480415B48FDF7D1
:104C100059FA0028EAD14FF400415848FDF752FAFA
:104C20000028E3D14FF480715548FDF74BFA002876
:104C3000DCD14FF480515148FDF744FA0028D5D11A
:104C400002204D49086096E04B480068022844D194
:104C50004C4908684C4901F06BF901D2FFF7F0FBB1
:104C600048490868494901F063F801D2FFF7F6FBAB
:104C700044490868444901F05BF807D24149086893
:104C8000424901F055F901D2FFF7A4FB4FF400515E
:104C90003A48FDF717FA01281BD04FF480413748F6
:104CA000FDF710FA012814D04FF400413348FDF706
:104CB00009FA01280DD04FF480713148FDF702FA4E
:104CC000012806D04FF480512C48FDF7FBF901284C
:104CD00051D10320284908604DE027480068032887
:104CE00023D1FFF7DBFA4FF400512448FDF7EAF92E
:104CF000F0BB4FF480412148FDF7E4F9C0BB4FF40D
:104D000000411E48FDF7DEF990BB4FF480711C484E
:104D1000FDF7D8F960BB4FF480511848FDF7D2F980
:104D200030BB04201449086025E0134800680428BB
:104D300021D1FFF793FB13490868154900F0F8FFEC
:104D400007D210490868134901F0F2F801D2FFF7C1
:104D500041FB0C4908680E4901F0EAF801D2FFF75F
:104D60006FFB084908680B4900F0E2FF03D200E03E
:104D700001E0FFF773FB10BD70000020000C014044
:104D80000008014094040020000078C2000086C2A0
:104D900000007041000020411FB50121C802FEF74C
:104DA0008BF91B48FEF7E0FD0020ADF80A00ADF8D6
:104DB000060040F2E730ADF808004720ADF80400E7
:104DC00000208DF80C0001A91148FEF7ADFE01216D
:104DD0000F48FEF719FD012211460D48FEF7BBFDF5
:104DE0004FF4A060FDF796FE19208DF80000012019
:104DF0008DF8030002208DF8010001208DF80200DB
:104E00006846FDF74FFE01210148FEF703FD1FBD77
:104E1000002C014010B500290AD00878002807D0DE
:104E200005487844FBF79EFA002801D0002010BD09
:104E30000248784410BD0000621E00005A1E0000A7
:104E400010B500290AD00878002807D00548784412
:104E5000FBF788FA002801D0002010BD02487844F2
:104E600010BD0000521E00004A1E000021F000424A
:104E7000A2F16052B2F5801F01F0004328BFD2F1C9
:104E80007F6C0BD95FEA001C43EAC20242EB507010
:104E900018BF704728BF20F001007047B2F5801F8F
:104EA000BCBF184670474FEA410C1CF5001F02D2E8
:104EB000084601F038B870B500F098FB0000008992
:104EC000FFF7F6BF4FF00040A0F5800070470000EC
:104ED00010B591EA030F48BF83F0004300F17E84D0
:104EE000841A71EB030C05D2121943EB0C03001B5F
:104EF00061EB0C01DFF824E14FEA1154A4EB135CE1
:104F00001EEA430F18BF9EEA445F73D023EA0E03E4
:104F1000DCF1200E21EA045143F4801332D322FA4B
:104F20000CFE10EB0E0023FA0CFE41EB0E01CCF14F
:104F3000200E03FA0EFE10EB0E0051F10001B1F548
:104F4000801FCCF1200E32D201EB045112FA0EF286
:104F5000BDE8104058BF7047401C38BF5FEA4202AE
:104F600018BF7047002814BF20F0010041F1000174
:104F70004FEA410313F5001F38BF7047A1F1C0414C
:104F800000F082BB012A43EB0302ACF1200CDCF100
:104F90001F0E32BF4FF0000E23FA0CF310EB03008C
:104FA00041EB0451B4EB115FD0D0A1EB045101F5FA
:104FB000801149085FEA300001EB04510ED350F133
:104FC000000038BF12FA0EFE08D1BDE81040C9E754
:104FD000401C38BF5FEA4202CAD1C3E7BDE81040B7
:104FE0004FEA410313F5001F38BF7047A1F1C041DC
:104FF00000F04ABB9EEA445F08D011EA5E0FBDE8AC
:10500000104004BF01F0004100207047BDE810408F
:1050100070B500F0EBFA00BF64FBBE3E0000E0FF9D
:1050200002494FF0000001F02EB800BF0000F87FE9
:10503000491058BFC1F140415B1058BFC3F1404314
:105040008B42EFF3008070472DE9C04130B4DFF8A8
:10505000A0C23CEA111418BF3CEA131400F0EC8023
:1050600081EA03051CEA111444EAD57418BF1CEA4E
:10507000131500F0C780A4EB05044FF0004545EA86
:10508000C12145EAC32341EA505143EA525304F196
:105090007F74994204F500344FEAC0204FEAC222DF
:1050A00008BF904200F09C804FEA13650FF2401653
:1050B000765D4FEA134506FB05F7C7F1807706FBDF
:1050C00007F74FEAD737A7FB03687642C8F5803861
:1050D000A7FB06CE38BFA8F1010807FB08E64FF092
:1050E000000EA6FB028CE6FB03CEDCF1000CCEF139
:1050F000004E38BFAEF1010EA6FB0C584FF0000772
:105100004FF00005E6FB0E87A1FB08C6A0FB07CE0B
:1051100016EB0E0645F10005E1FB076515F1E04EC3
:105120007EBFA4F580345FEA46066D4116F1800724
:1051300045F100054FEA17274FEA066647EA05677B
:10514000A6F1DE46B6F1805F4FEA15251FD9384635
:1051500024F0010C05EBC471BCF1FE6F01EB0C11E6
:1051600002D8F0BCBDE8008124425CBF01F5801E7E
:105170009EEAC47F02D4F0BCBDE80081244238D44A
:10518000F0BCA1F1C041BDE8004100F07DBA4FEA9A
:10519000D22242EA43524FEAD323A7FB02864FEAC8
:1051A000D02040EA415007FB03661EEA0E0F4FEA8B
:1051B000D12105FB026658BFA6EB0056B6EB0056A0
:1051C0004FEA520E4EEAC37E18EB0E0E56EB530E0C
:1051D000BDD518EB02085E417F1C55F10005B6E70E
:1051E0004FF480154FF000074FF000064FF0000815
:1051F000ADE7F0BC4FF0000001F1C04101F000410B
:10520000BDE8008111EA0C1F0CEA131500D00CE078
:1052100013EA0C1F00F025804FF00000F0BC81EA7B
:10522000030101F00041BDE80081F0BCBDE8004190
:1052300081EA030100F028BAF0BCBDE8004170B576
:1052400000F0D4F9097EFC3E00F007B881EA0301C2
:105250004FF0000001F00041704781EA030100F0C7
:1052600013BAF0BCBDE800414FF00000214970477F
:10527000FFFDFBF9F7F5F4F2F0EEEDEBE9E8E6E41B
:10528000E3E1E0DEDDDBDAD8D7D5D4D3D1D0CFCDA2
:10529000CCCBCAC8C7C6C5C4C2C1C0BFBEBDBCBBDB
:1052A000BAB9B8B7B6B5B4B3B2B1B0AFAEADACABD6
:1052B000AAA9A8A8A7A6A5A4A3A3A2A1A09F9F9EB0
:1052C0009D9C9C9B9A999998979796959594939362
:1052D000929191908F8F8E8E8D8C8C8B8B8A8989F9
:1052E000888887878685858484838382828181807C
:1052F0000000FF070000F87F51EA030C17D41CF5EB
:10530000801F58BFBCF5801F00F10680994218BF6E
:10531000704708BF9042704707D711F5801F58BFEC
:1053200013F5801F19D499427047894270471CF5C4
:10533000801F08D5BCF5801FF7D58B4218BF70477A
:1053400008BF824270474FF4001C1CEB410F38BF6E
:105350001CEB430F01D28B42704770B500F046F949
:10536000922449004FF000514FF08053FFF760BE88
:105370004FEA1153A3F58063D3F11E03A8BFD3F105
:10538000200C08DB4FF0004242EAC12252EA5052A0
:1053900032FA03F0704709420BD4102BC4BF00202F
:1053A000704703F5787CBCF1FF3F05D04FF0FF302C
:1053B00070474FF00000704770B500F017F900BF5C
:1053C0004992248000207047F0E710F0004248BF67
:1053D0004042B0FA80F310FA03F10AD0C3F11D0382
:1053E00003F580634FEA415002EB035202EBD121F7
:1053F00070474FF000007047B0FA80F310FA03F1E5
:105400000AD0C3F11D0303F580634FEA41504FEA10
:10541000035202EBD12170474FF0000070470000AB
:1054200051EA030C17D41CF5801F58BFBCF5801F30
:1054300000F10680994218BF704708BF904270473C
:1054400007D711F5801F58BF13F5801F19D4994253
:105450007047894270471CF5801F08D5BCF5801F36
:10546000F7D58B4218BF704708BF824270474FF490
:10547000001C1CEB410F38BF1CEB430F01D28B42C9
:10548000704770B500F0B2F8922449004FF0005117
:105490004FF08053FFF7CCBDDFF848C170B51CEA70
:1054A000111E1EBF1CEA13159EEA0C0F95EA0C0F85
:1054B00000F06F8081EA030423EA4C134EEAD47EA5
:1054C00021EA4C1141F4801143F48013AE44A1FB56
:1054D000024CA0FB0365AEF17F7E361955EB0C053F
:1054E000A1FB034C4CF10003A0FB021C16EB0C06C5
:1054F000654153F10003094218BF46F0010613F459
:10550000007F0BD14FEA03314FEA0530340341EA03
:10551000155140EA16506FF003020AE04FEAC3212A
:105520004FEAC520F40241EA555140EA56506FF067
:10553000020202EB2E4201EB025585EACE710AD03F
:105540005FEA440C18BF24F0004450F1000041F120
:10555000000120EAD47040F2FE7C624500D270BDAA
:10556000A84214BF4FF080444FF04044002E08BFC3
:105570000024BEF1806FA8BFA1F1C041BDE870401A
:1055800080F282804FF0000001F1C04101F0004143
:1055900070479EEA0C0F0CEA131518BF95EA0C0F22
:1055A00006D04FF0000081EA030E0EF0004170BDFE
:1055B00000F01CF88900013E00F007B800F009B8BF
:1055C0004FEA430C5FEA5C5C08D081EA030100F01B
:1055D0005BB84FEA410C5FEA5C5CF6D14FF000002B
:1055E000014970470000FF070000F87F0EF1020E2E
:1055F0002EF0030E5EF8046B364205D4012A43EB0D
:10560000030515F5001F12D8012841EB010C1CF50C
:10561000001F0CD80ED14FEAD17C15F5001F0CEB02
:105620004C0C0CF1020C08BF4CEBD37C04E04FF0A7
:10563000080C01E04FEAD37C0CEB4C0526FA05F68A
:1056400006F00706B6F1040C06D20EEB860CBDE898
:1056500070404CF0010C6047DFE80CF0090B0202CF
:105660004FF000414FF00000A1F5002170BD194638
:105670001046012851EB010418BFD4F5001484BF73
:10568000002001F0004170BD0808A0F500114FEAAC
:105690003101704753EA010C17D41CF5801F58BF25
:1056A000BCF5801F00F106808B4218BF704708BF11
:1056B0008242704707D713F5801F58BF11F5801F2E
:1056C00019D48B4270479B4270471CF5801F08D548
:1056D000BCF5801FF7D5994218BF704708BF9042AC
:1056E00070474FF4001C1CEB430F38BF1CEB410FFD
:1056F00001D2994270470FB40CBC03BCFFF7C1BE86
:105700005FEA410C5FEA5C5CACF580635B1C39D4FA
:10571000D3F1340240F34580B2F1200314DA4FF0A4
:10572000010C0CFA02FCACF101030340B3EB5C0288
:1057300020EA030008BF10EA0C0F98BF704710EB77
:105740000C0041F1000170470AD0C3F1200201FAB8
:1057500002FC012821FA03F101FA03F14CF10000E7
:105760004FF0010C0CFA03FCACF10103B0F1004F57
:1057700021EA030108BF11EA0C0F4FF0000088BFB7
:1057800061447047B3F1FF3F28BF50EAC12C01F0DC
:1057900000414FF0000084BF41F07C5141F47001A2
:1057A0007047B3F5806FB8BF704770B5FFF71EFF45
:1057B00040DBB6BE91EA030F10B581F000413FF522
:1057C0008FAB83F0004300F009B8000010B591EAF8
:1057D000030F48BF83F000433FF582AB841A71EB9F
:1057E000030C07D212198CF0004C43EB0C03001B86
:1057F00061EB0C01DFF8A4E14FEA1154A4EB135C58
:105800001EEA430F18BF9EEA445F00F0B08023EA0F
:105810006E03524221EA0451C3EB6E0338BF5B1E94
:10582000DCF1200E25D322FA0CFE10EB0E0043FA19
:105830000CFE41EB0E01CCF1200E03FA0EFE10EB34
:105840000E0051F10001CCF1200E29D412FA0EF213
:1058500001EB0451BDE8104058BF7047401C1CBF0D
:10586000B2F1004F704700280CBF491C20F0010026
:10587000704712EB020E43EB030218BF4FF0010E0C
:105880004EEA4202ACF1200CDCF11E0E54D943FA70
:105890000CFE10EB0E0051F1FF31CCF11E0ED5D5F0
:1058A0000EF1010E12FA0EFE404141EB010101EB37
:1058B000445C5FEA5C5C10D910EBDE7001EB0451D4
:1058C00038BFBEF1004FBDE8104018BF7047002838
:1058D0000CBF491C20F00100704730D24FEAD42C95
:1058E00011F5001124F400641BD0B1FA81F20B3AD7
:1058F000A41AA41ED2F12003914030FA03F31943F5
:10590000904001EBCC71002C01EB0451BDE810403C
:10591000A8BF704701F1C0414FF0000001F0004105
:105920007047B0FA80F310FA03F100D110BDE41A09
:10593000173C4805C90AE4E701EB045110BD4910C2
:1059400001EB0451BDE810404FEA300002E04FF097
:10595000000170474A0008BF0042F8D0B2F5001FAE
:1059600028BF704701F000414FF0000070479EEAE9
:10597000445F07D011EA5E0FBDE8104004BF00216C
:1059800000207047BDE8104070B5FFF72FFE00BF44
:1059900040DFF63E83F00041104670470000E0FF14
:1059A00043004FEAD30C4FEA3C0C43401FBF400773
:1059B0000CF1605113F0FE4F70471CF0006F03D1E3
:1059C00000200CF0004170470CF0004343EA507097
:1059D00010B540EACC0000F060FA00BF0000009271
:1059E0004FEA0001FFF750BE4FF000414FF00000BA
:1059F000A1F500217047000090EA010F48BF81F037
:105A0000004100F1CE82421A3CBF801A89184FEA49
:105A1000D0524FF07F4C1CEA410FA2EBD15318BF7C
:105A20009CEA026F00F03B804FF0004C4CEA0020F3
:105A30004CEA012121FA03FC10EB0C0C1ED202F1FE
:105A4000FF325FEA1C2040EBC25038BF70471CF0A9
:105A50007F0F4FEA400C18BFBCF17F4F38BF704733
:105A6000C3F12003994008BF20F00100BCF17F4F33
:105A700038BF7047A0F1C04000F055BA4FEA3C0073
:105A8000000A40EBC25028BF1CF0FF0F4FEA400C49
:105A9000E6D018BFBCF17F4F38BF7047EAE79CEAF9
:105AA000026F05D010EA5C0F08BF00F0004070479D
:105AB00010B500F0F2F900BF64FBBE3E401058BFC5
:105AC000C0F14040491058BFC1F140418142EFF35D
:105AD000008070474FF47F0C1CEAD0121EBF1CEAF6
