:020000040800F2
:10000000405E002045010008772D0008D526000835
:10001000752D0008BB100008053D00080000000019
:10002000000000000000000000000000FD38000893
:100030005D12000800000000792D0008FF3800085C
:100040005F0100085F0100085F0100085F01000810
:100050005F0100085F0100085F0100085F01000800
:100060005F0100085F0100085F0100085F010008F0
:100070005F0100085F0100085F0100085F010008E0
:100080005F0100085F0100085F0100085F010008D0
:100090005F0100085F0100085F0100085F010008C0
:1000A0005F0100085F0100085F0100085F010008B0
:1000B0005F0100085F010008A93900085F0100081E
:1000C0005F0100085F0100085F0100085F01000890
:1000D0005F010008D93C00085F0100085F010008CB
:1000E0005F0100085F0100085F0100085F01000870
:1000F0005F0100085F0100085F0100085F01000860
:100100005F0100085F0100085F0100085F0100084F
:100110005F0100085F0100085F0100085F0100083F
:100120005F0100085F0100085F0100085F0100082F
:10013000DFF80CD000F0AEFD00480047FB7D000862
:10014000405E00200648804706480047FEE7FEE77D
:10015000FEE7FEE7FEE7FEE7FEE7FEE7FEE7FEE777
:100160006139000831010008202A04DB203A21FA15
:1001700002F00021704721FA02F3D040C2F12002C0
:1001800091400843194670470048704744450308AA
:1001900010B50446FFF7F8FF0068005D00F00100AD
:1001A00010BD00000649074A0868504343F239026F
:1001B000104408604008704701490860704700001B
:1001C000CC0200206D4EC64140EA01039B0703D0DC
:1001D00009E008C9121F08C0042AFAD203E011F886
:1001E000013B00F8013B521EF9D27047D2B201E048
:1001F00000F8012B491EFBD270470022F6E710B52C
:1002000013460A4604461946FFF7F0FF204610BD84
:1002100010B5044604E00B7800F8013B03B1491C1B
:10022000521EF8D2204610BD421C10F8011B0029B6
:10023000FBD1801A7047034611F8012B00F8012BFF
:10024000002AF9D11846704770B500B9106800252A
:1002500012E00B4602E0A64203D05B1C1C78002C87
:10026000F9D1E3B22B4305D02CB125B1002100F820
:10027000011B04E00546401C0678002EE9D1106001
:10028000284670BD004ADFE7D00200202DE9F04784
:1002900091460F4680460446002614F8015B2DB1B6
:1002A000FFF772FF0068405DC007F6D12B2D02D02A
:1002B0002D2D18D0641E4A463946204600F0B0FA6B
:1002C00027B13968A14201D1C7F8008071054FF00C
:1002D00002040BD54042002803DD04F0E5F9046078
:1002E000A007BDE8F08746F48066E4E70028F8DA66
:1002F00004F0DAF904606FF00040F2E7F0B480EA4D
:100300000102D40F4200B2EB410F02D2024608466E
:1003100011464A0042D0C30DDDB2C1F3C752AD1A37
:10032000202D35DAC1F3160141F4000204B1524226
:10033000C5F1200602FA06F12A411044B3EBD05F62
:1003400023D0C4B1012DA0EBC35009DCF0BC4FF0A9
:10035000004202EAC352DBB200F5000000F007BB26
:10036000400000F1807000EBC350A0F1807040EAC3
:10037000D170490009E0490841EAC071A0EBC350BF
:1003800000F50000400800EBC350F0BC00F0E6BAF6
:100390006142012202EB4101001BF6E7F0BC70470D
:1003A00081F00041AAE780F00040A7E780EA01025F
:1003B00010B502F00043400022D04A001FD0010EC9
:1003C00001EB1261C0F35600C2F3560240F4000084
:1003D00042F40002A0FB022000047F39140400D084
:1003E000401C50EA124001D44000491EC2B20C0623
:1003F00004EBD010401C4008802A02D003E000200B
:1004000010BD20F00100002900DA0020184310BDC3
:1004100030B480EA010202F0004530F0004221F0E1
:10042000004013D090B1C30DD40DC2F31601C0F338
:100430001600E41A41F4000140F400027D349142B8
:1004400001D3641C00E04900002C02DA30BC00201B
:1004500070474FF400000023914201D3891A0343EF
:1004600040084FEA4101F7D151B1914202D14FF01A
:10047000004105E002D24FF0010101E06FF00101FF
:1004800003EBC450284430BC00F068BA420005D0E9
:10049000C0F3C7525242914201DC0020704700EB8A
:1004A000C15070472DE9FE4F804681EA0300C00F1E
:1004B0000C46009021F0004123F00045B8EB02000B
:1004C000A94105D24046214690461C460B460246AD
:1004D00023F00040104347D0270DC7F30A00C3F3B1
:1004E0000A510290401A019040286BDAC3F31300BE
:1004F00040F4801B0098924620B10023D2EB030AFF
:1005000063EB0B0B01985946C0F14002504600F0D6
:1005100066F906460D4650465946019A00F06EF9B6
:1005200010EB08006141002487EA115284EAE77366
:100530001A4340D0009A62B3019A012A4FEA075247
:1005400015DC001B61EB02014FF0004202EA07528A
:10055000CDE90042001C41F5801132462B4600F0E7
:1005600043FA03B0BDE8F08F40462146F9E7001B8F
:1005700061EB0201001C41F5801300185B4120185B
:10058000A2F5001747EB030140EAD570B6196D419B
:1005900011E06D084FEA360645EAC0754FEA07528A
:1005A000001B61EB0201001C41F5801149084FEA74
:1005B00030000019514132462B4603B0BDE8F04FE0
:1005C00000F003BA0098012240000023D0EB0202A1
:1005D00063EBE073009821464FEAE074B8EB00004B
:1005E00061EB0401E9E783F000435BE781F0004140
:1005F00058E72DE9FE4F81EA030404F0004421F09E
:10060000004100944FF0000B23F0004350EA010436
:100610005ED052EA03045BD0C3F30A54C1F30A5517
:100620002C44A4F2F3340194A0FB0254C1F313014F
:1006300041F48011C3F3130343F4801301FB02441C
:1006400000FB034E840A970A44EA815447EA835721
:10065000A4FB076802958D0A05FB07854FEA932CDA
:1006600004FB0C542705029D4FEA065847EA16374B
:10067000B5EB08056EEB070C870E920E47EA811763
:1006800042EA8312A7FB0201B6EB0B0164EB000404
:100690002B0D43EA0C335E1844EB1C50DA465146EE
:1006A000E7FB0201C5F313044FEA0B3343EA14538B
:1006B0004FEA0432019C43EA0603A4F10C040294BD
:1006C000009CCDE900B400F08FF903B0BDE8F08FD5
:1006D00000200146F9E7C10F80EAE0700844CA072C
:1006E0009623002100F043B996230022114600F022
:1006F0003EB900F0004230F000400AD0C10D01F5D3
:100700006071C0F3160042EA0151C208400711436C
:10071000704700200146704701F0004330B421F0DB
:10072000004150EA010206D00A0DA2F56072C1F341
:100730001301002A02DC30BC00207047440F44EA59
:10074000C104C100E01830BC00EBC25000F006B993
:1007500030B50B46014600202022012409E021FA91
:1007600002F59D4205D303FA02F5491B04FA02F58E
:100770002844151EA2F10102F1DC30BD2DE9F05F25
:100780000546002092469B46884606468146402400
:100790001BE02846414647462246FFF7E5FC534604
:1007A0005A46C01A914110D311461846224600F00D
:1007B00016F82D1A67EB01084F462246012000214A
:1007C00000F00DF817EB00094E41201EA4F10104C2
:1007D000DFDC484631462A464346BDE8F09F202AE2
:1007E00004DB203A00FA02F1002070479140C2F188
:1007F000200320FA03F3194390407047202A06DBB8
:10080000CB17203A41FA02F043EAE07306E041FADE
:1008100002F3D040C2F120029140084319467047CC
:100820002DE9F05F82460078002715468B460AF1D5
:100830000104B946302801D09DB113E014F8010B32
:100840000127782803D0582801D045B10AE00DB11E
:10085000102D07D10027102514F8010B02E0082500
:1008600000E00A250026B0460EE005FB080005FB67
:1008700006F1012701EB10461FFA80F8B6F5803F1C
:1008800000D3B94614F8010B294600F015FA0028E8
:10089000EBDABBF1000F05D00FB1641E00E0544647
:1008A000CBF80040B9F1000F06D003F0FDFE0221A5
:1008B0000160C81EBDE8F09F48EA0640FAE7000064
:1008C0000FB4002300B589B00CA900910B996FF00B
:1008D0000042CB601E4B06931E4B07930423CDE9C9
:1008E00001321D4A089202466B46002000F072FA5F
:1008F00009B05DF814FB70B586B006464FF0FF30C6
:100900000091CDE90101002015460C4604903246C5
:10091000694604A8FFF7D4FF02460498211825B1C0
:1009200008B1084600E020462860049800280DD051
:10093000002A02DD0098884208D0081B0094CDE907
:1009400001043246694604A8FFF7BAFF06B070BD3D
:100950000D1000082B100008910100080029A8BF05
:100960007047401C490008BF20F00100704710B4D8
:10097000B0FA80FC00FA0CF050EA010404BF10BC8D
:10098000704749B1CCF1200421FA04F411FA0CF1BA
:1009900018BF012121430843A3EB0C01CB1D4FEAF3
:1009A00000614FEA102042BF002010BC704700EBEE
:1009B000C35010440029A4BF10BC7047401C49001C
:1009C00008BF20F0010010BC704710B5141E73F171
:1009D000000408DA401C41F1000192185B411A43FF
:1009E00001D120F0010010BD2DE9F04D92469B464B
:1009F00011B1B1FA81F202E0B0FA80F220329046F1
:100A0000FFF7EDFE04460F4640EA0A0041EA0B01FB
:100A100053465A46084313D0114653EA010019D0F1
:100A2000C8F140025046FFF79FFB05460E46504670
:100A300059464246FFF7D3FE084305D0012004E0A3
:100A400020463946BDE8F08D0020054346EAE076B1
:100A50002C4337430A986305E40AA0EB0800002200
:100A6000FD0A44EA47540A3002D500200146E9E76E
:100A7000010510196941DDE9084500196941BDE822
:100A8000F04DA2E72DE9F04D81EA030404F0004B9C
:100A900021F0004514464FF0000A23F0004150EACF
:100AA000050220D054EA01021DD0C5F30A570246C0
:100AB000C5F31303C1F31300C1F30A5640F48015C4
:100AC00043F48013A7EB0608101BD64608F2FD3846
:100AD00073EB050002D308F1010801E092185B41B5
:100AE000B8F1000F03DA00200146BDE8F08D0020C8
:100AF0004FF48011064684460EE0171B73EB050782
:100B000005D3121B63EB050306434CEA010C4908AD
:100B10004FEA300092185B4150EA0107EDD152EAEA
:100B2000030012D082EA040083EA0501084305D0DD
:100B3000101BAB4106D20122002306E000224FF039
:100B4000004302E06FF0010253101AEB06004CEB79
:100B5000085110EB0A0041EB0B01BDE8F04DFFF727
:100B600034BF70B521F0004303430CD0C1F30A55E4
:100B70000024D5EB040564EB0403D617AD1AB3418A
:100B800002DB0020014670BD201841EB025170BD10
:100B90002DE9F04D00231A461B1A8A4103DB002081
:100BA0000146BDE8F08DC1F30A52C1F3130141F4CF
:100BB00080154FF0000BD10702D100186D41521E75
:100BC0000027044640F2FF11384601EB620A3E4618
:100BD0008046024600204FF48011FFF7C5FAC21983
:100BE0007141BB1846EB0100B4EB030C75EB000C34
:100BF00004D3E41A65EB000517460E46241908F1E4
:100C000001006D4180463428E3DDF91946EB06000A
:100C1000091BA84103D24FF0FF32134601E0002226
:100C200013461BEB070046EB0A51BDE8F04DFFF7FA
:100C3000CCBEC1F30A52C1F3130140F2FF3341F4B9
:100C400080119A4202DA00200146704740F2334395
:100C50009A42A2F2334202DC5242FFF785BAFFF712
:100C6000BEBD000030B5041E71F1000404DB4FF07E
:100C70000044404264EB0101141E73F1000405DBE3
:100C80001C464FF00043524263EB0403994208BFF5
:100C9000904230BD064C074D06E0E06840F001038D
:100CA00094E8070098471034AC42F6D3FFF744FAB3
:100CB000F84C0308184D03083A2800D2303820F0C9
:100CC0002002412A01D3A2F13700884201D34FF01C
:100CD000FF3070472DE9FF4F087881B09946FF2813
:100CE00005D0491C2D2804D00024002308E000234F
:100CF0000BE00124F9E703EB830300EB4303491CFA
:100D00000878FF28F7D104B15B42002000901478E6
:100D100001462D2C01D02B2C04D1521C2D2C12D08D
:100D20000024009400251678FF2E0ED00A24A0FB84
:100D300004C801FB0481002700FB0711521C16EBBD
:100D40000C006941EFE70124EBE7994450EA010206
:100D50000ED00024AA4D2646DFF8A88200F076F9CE
:100D600082468B46B9F1000009DAC9F100071BE0A1
:100D700001980021C0E9001105B0BDE8F08F0746D9
:100D800012E0F80707D022462B4630464146FFF7CF
:100D900030FC0646884622462B4610461946FFF789
:100DA00028FC04460D467F10002FEAD1B9F1000F50
:100DB000324643465046594602DAFFF763FE01E0E9
:100DC000FFF717FC009A0AB181F00041019AC2E9CD
:100DD0000001D1E72DE9FF4F1F468DB0D7E901464D
:100DE0004FF0FF382E2045464FF000090B90B969AF
:100DF0006D1C0E988847396A824688470028F6D1CC
:100E0000BAF1FF3F0AD024F4D064002E11DDBAF10C
:100E10002B0F08D0BAF12D0F0BD102E0404611B0D4
:100E2000ABE744F48064B9696D1C0E98884782462C
:100E3000761E6946600501D52D2000E02B208DF837
:100E4000000001F1010B0DF1200809E0B9696D1CEA
:100E50000E98884782460F9844F40074761E056009
:100E6000002E02DDBAF1300FF0D00B998A453ED149
:100E700044F0800406E00F99681CA9F1010944F4CC
:100E800000740860B9696D1C761E0E98884782460A
:100E90003028F0D02BE00B998A4505D1200603D4E9
:100EA00044F08004761E18E0504603F047FD08B376
:100EB0000DF11301761E44F400748B4508D2AAF19B
:100EC00030000BF8010B200607D5A9F1010003E063
:100ED000200602D409F101008146A00502D50F9930
:100EE000681C0860B9696D1C0E9888478246002E00
:100EF000D1DC53E0002E51DDBAF1650F02D0BAF11A
:100F0000450F4BD1A00549D5B9696D1C24F4407437
:100F1000761E0E9888478246002E0CDD2B2804D0C2
:100F2000BAF12D0F07D144F48074B9696D1C0E9885
:100F300088478246761EE00501D52D2100E02B2151
:100F400008F8011BCDF82C8021E00DF12901761E57
:100F500044F4007488450CD2AAF1300010F0FF0070
:100F600088F8000002D10B99884509D908F10108D9
:100F700006E0E00501D5244801E042F20F70814609
:100F8000B9696D1C0E98884782460F980560002E3F
:100F900004DD504603F0D2FC0028D6D1F9690E9842
:100FA0008847FF208BF8000088F80000002006909A
:100FB00007904B466A4608A906A8FFF78BFEA005D6
:100FC00002D46FF001002AE714F0240F0AD0E007E2
:100FD00014D1DDE906123868031D3B600068C0E9E2
:100FE00000120BE0DDE90601FFF796FB0146E00782
:100FF00004D13868021D3A600068016028460EE797
:10100000000024400000F03FF1D8FFFF426842B1E9
:10101000016811F8013B23B1521EC0E900121846C5
:1010200070470121C160881E704742685AB1C36889
:10103000016843B983688B4205D0491E521CC0E940
:101040000012002070474FF0FF3070470EB540F29D
:10105000334202920022CDE900221346FFF7C4FC7E
:1010600003B000BD70B58C1810F8015B15F00703D4
:1010700001D110F8013B2A1106D110F8012B03E031
:1010800010F8016B01F8016B5B1EF9D12B0705D439
:101090000023521E0DD401F8013BFAE710F8013B82
:1010A000CB1A921C03E013F8015B01F8015B521E9E
:1010B000F9D5A142D8D3002070BDFEE710B5B8B075
:1010C00002F0FCFC01F059FE01F05BFD20221A4900
:1010D0001AA8FFF779F818493622203122A8FFF71D
:1010E00073F8154CB4F85600ADF8BE0054F8580F1C
:1010F0003090A088ADF8C400E088ADF8C6000E4975
:101100001122603132A8FFF75FF8607E8DF8D900B8
:10111000E069379068221EA96846FFF755F81AACB7
:1011200094E80F0002F071F901F0A7FD38B001203A
:10113000BDE8104000F002BA80000020FFF7BEFFBB
:1011400000F000F804A003F04FFA06A003F04CFAF8
:10115000002000F083F9FEE7C6F4B6AFB3C9B9A624
:10116000210D0A00D2B0BBF02D463130332DC3D44F
:10117000C4E30D0A00000000F0B506462548A1B002
:101180000D46026824A11BA803F056FA0527642126
:1011900002A8FFF732F8294622A003F025FA00E062
:1011A00054B93068FFF7A5FACDE9000120A2642107
:1011B00002A803F029FA012456F82400FFF799FA4F
:1011C000CDE9000102AB1CA26421184603F01CFA11
:1011D000641CBC42E4DB1DB10220772D0AD00AE07A
:1011E0000320002300901A4615A11BA800F0DAFA8C
:1011F000022000E00120002300905A1E02A91BA833
:1012000000F0D0FA772D03D101211BA800F00EFACF
:1012100021B0F0BD08010020313A2F25642E637300
:1012200076000000D0B4C8EB3A202533640D0A00E4
:101230000D0A25660000000025732C2566000000BD
:10124000696E6465782C726F6C6C2C70697463685D
:101250002C7961772C646174650000007047000090
:1012600010B5002100F0E2F9114804F0B3FA114C76
:10127000D4F8481154F8F80FFFF740F8FFF739FA9F
:1012800002460B460CA003F0AFF92068FFF731FAD5
:1012900002460B460FA003F0A7F9206DFFF729FACD
:1012A0000246BDE810400B460EA003F09DB90000B9
:1012B000202F0020203100200D0A5B335D5B325D62
:1012C000202B205B345D5B325D203D2025660D0ABE
:1012D000000000000D0A5B335D5B325D203D202580
:1012E000660D0A000D0A5B345D5B325D203D2025F2
:1012F000660D0A0010B5044601220BA1002005F07E
:10130000B9F80A49087040B109A003F06DF9002C42
:1013100008D00EA003F068F9FEE7BDE8104011A068
:1013200003F062B910BD0000313A00000401002052
:101330006661696C20746F20756E6D6F756E7420B8
:1013400066617466732E0D0A000000006E6F7720D0
:101350006974206973207061757365642E2E2E0D7B
:101360000A0000007375636365656420746F2075FF
:101370006E6D6F756E742066617466732E0D0A0053
:1013800070B5064614460D46114804F0C1FF3146BB
:1013900010A003F029F9304605F08EFB13490870C0
:1013A000314638B112A003F01FF964B116A003F062
:1013B0001BF9FEE71AA003F017F925B11FA003F0EF
:1013C00013F900F0D3F9BDE87040014804F0A0BF64
:1013D000981E002074727920746F2064656C6574A7
:1013E00065205B25735D2E0D0A00000004010020BE
:1013F0006661696C20746F20665F756E6C696E6BD8
:10140000205B25735D0D0A006E6F7720697420697B
:1014100073207061757365642E2E2E0D0A00000016
:101420007375636365656420746F2064656C6574AF
:1014300065205B25735D2E0D0A0000006E6F77201E
:101440007363616E2066696C657320746F206368D6
:1014500065636B202D3E0D0A00000000F0B50446C8
:10146000002589B029461EA000F0E0F842F211766E
:10147000002809DD142201A919A005F02FFF31462B
:1014800001A806F089FCC5B234B32800184C4FF00F
:1014900000074FF0FF3510D00A22002101A8FEF707
:1014A000F5FE401C0246606012A106A803F0C4F8D5
:1014B00000232A4606A9009704E0666001232A4615
:1014C0000EA1009706A000F06DF90EA0D4F804104C
:1014D00003F08AF809B0F0BD01A911A0F8E70000F7
:1014E000313A2F6D795F696E6465782E637376008B
:1014F000040100200D0A2564000000000D0A3130AF
:10150000303031005B46415446535F496E64657824
:101510005F43757272656E743A2025645D0D0A0032
:101520005B46415446535F496E6465785F4375720C
:1015300072656E743A2025735D0D0A0010B504467D
:1015400001220BA10B4804F095FF0B49087040B134
:101550000AA003F049F8002C08D00EA003F044F8CC
:10156000FEE7BDE8104011A003F03EB810BD00003A
:10157000313A0000680E0020040100206661696CA9
:1015800020746F206D6F756E742066617466732EA3
:101590000D0A00006E6F77206974206973207061F6
:1015A000757365642E2E2E0D0A000000737563633B
:1015B00065656420746F206D6F756E74206661744C
:1015C00066732E0D0A00000000B587B00020FFF7FB
:1015D000B5FF00F0CBF818220CA101A8FEF7F4FD2E
:1015E0000022012101A8FFF7CBFE012101A800F094
:1015F0001DF80020421E009001230AA101A800F05E
:10160000D1F80020FFF776FE07B000BD313A2F5425
:101610006573744469722F7465737466696C652EA2
:10162000747874000D0A3130303031002DE9F0410A
:101630000E460746014613221E4804F041FF1E4C89
:10164000021E207002D039461CA00FE0194839460E
:10165000C56824A02A4602F0C7FF0021154804F0FF
:1016600065FE2070021E04D0394623A002F0BCFFA4
:101670001AE04FF400712A48FEF7BFFD0E4B2A46D0
:10168000083327490B4805F0E8F8207020B13946A7
:1016900024A002F0A9FF07E036B1214927A002F0FB
:1016A000A3FF30A002F0A0FF024804F031FE28465C
:1016B000BDE8F081981E0020040100206661696C7D
:1016C00020746F20665F6F70656E205B25735D2CE4
:1016D00020726573756C74206973205B25645D2EC0
:1016E0000D0A00005B25735D2073697A653A202539
:1016F000642E0D0A000000006661696C20746F2082
:10170000665F6C7365656B205B25735D2C2072656D
:1017100073756C74206973205B25645D2E0D0A005F
:10172000202F00206661696C20746F20665F7265EF
:101730006164205B25735D0D0A00000066696C65BD
:1017400020636F6E74656E74206172652061732012
:10175000666F6C6C6F773A200D0A3E3E3E0D0A258F
:10176000730000000D0A3C3C3C0D0A0010B506A0B9
:1017700002F03AFF09A10A48FEF75DFDBDE81040FE
:10178000074806F0C5BC00007363616E696E672090
:1017900066696C65732E2E2E0D0A0000313A00002A
:1017A000BC2E00202DE9FF410A9D1F4616468846A3
:1017B000012D11D0022D0FD0032D02D0264804F0A8
:1017C000A7FD13222448009904F07AFE234C2070D0
:1017D00060B1694622A029E01F4804F049FF012DAD
:1017E00002D11D4804F094FDBDE8FF81B6F1FF3F32
:1017F00005DA1320207020A002F0F6FE06E0701C2F
:1018000009D03146144804F091FD2070207828B1A9
:10181000694622A00AE01048C168F3E741460E4835
:1018200004F026FF207820B1694622A002F0DCFEF9
:10183000D7E7032DD8D0084804F06AFD23A002F0B2
:10184000D3FE002FCDD026A002F0CEFE01210098BD
:10185000FFF7ECFEC5E70000981E00200401002001
:101860006661696C20746F20665F6F70656E205BC7
:1018700025735D0D0A000000746865207772697435
:101880006520706F736974696F6E20697320696E6B
:1018900076616C69642E0D0A000000006661696C57
:1018A00020746F20665F6C7365656B205B25735DCC
:1018B0000D0A00006661696C20746F20665F7072AB
:1018C000696E7466205B25735D0D0A00777269741A
:1018D0006520697320737563636565642E0D0A0066
:1018E0006E6F772072656164206974202D3E0D0A49
:1018F000000000002DE9F05F90F82110002402297B
:1019000003D004218163012485E001680A6822F084
:101910000E020A6001680A6822F001020A603F4E66
:101920003E4FB215DFF8F4C0DFF8F090DFF8ECA01E
:10193000DFF8E8B0DFF8E4E00168783F1301150252
:10194000ACF1640CA9F15009AAF13C0AABF1280BE7
:10195000AEF1140E4FF48018B14227D9B9420ED01F
:10196000614512D049451DD0514518D0594518D070
:10197000714501D1424615E0294EB14201D1012203
:1019800010E0274E1436B14201D110220AE0244E55
:101990002836B14206D0224A3C32914201D11A4641
:1019A00000E02A461E49091F0A602BE0B94213D005
:1019B000614517D0494522D051451DD059451DD00C
:1019C000714501D142461AE0B14202D14FF0807216
:1019D00015E0134EB14201D1012210E0104E143631
:1019E000B14201D110220AE00D4E2836B14206D094
:1019F0000B4A3C32914201D11A4600E02A4607497F
:101A000080394A60012180F82110002180F82010DF
:101A1000416B01B188472046BDE8F09F800002403D
:101A2000080402402DE9F84FDFF8C891002409F1BD
:101A3000040A0AF1040B23460F270BF1040ED1E030
:101A40000125A54006EA0502AA4276D1DFF8A8C121
:101A50004E68A6EB0C0866452BD00DDC032E34D067
:101A600005DC36B3012E19D0022E2FD11BE0112E2A
:101A700016D0122E2AD119E0B8F5881F19D006DC2D
:101A8000B8F5803F15D0B8F5801F1FD111E0B8F52B
:101A9000001F0ED0B8F5041F18D10AE0CB6815E07E
:101AA000CB681B1D12E0CB6808330FE0CB680C330A
:101AB0000CE08B682BB1012B4FF0080303D045617C
:101AC00004E0042302E0056100E00023FF2A01D8BE
:101AD000064601E000F104064FEA840501D9A5F1AC
:101AE0002005D6F8008007FA05FC28EA0C0803FA5E
:101AF00005F548EA0508C6F800804D68ED0070D588
:101B00003E4DAE6946F00106AE61AD6924F00306B4
:101B100005F0010500953A4D06EB050CDCF8085080
:101B2000A607360F07FA06F825EA0805DFF8D4807D
:101B3000404503D14FF0000825E052E0DFF8C880AF
:101B4000404502D14FF001081DE0DFF8C08040455C
:101B500002D14FF0020816E0DFF8B480404502D110
:101B60004FF003080FE0DFF8AC80404502D14FF0A2
:101B7000040808E0DFF8A080404502D14FF00508D6
:101B800001E04FF0060808FA06F848EA0508CCF824
:101B900008804D68D9F80060ED034D4601D5164325
:101BA00000E096432E604D68DAF80060AD035546BC
:101BB00001D5164300E096432E604D68DBF80060C7
:101BC000ED025D4601D5164300E096432E604D6858
:101BD000DEF80060AD02754601D5164300E096437D
:101BE0002E60641C0A681646E2407FF429AFBDE807
:101BF000F88F0000000401400000111000100240A6
:101C00000000014000080140000C014000100140AC
:101C10000014014000180140001C01408068084089
:101C200000D0012070470AB1016170470904FBE749
:101C30000148806870470000040000200248816865
:101C4000027811448160704704000020074810B5F5
:101C5000016841F010010160032000F079F80320D1
:101C600000F006F800F024F8002010BD002002402B
:101C700070B50D4D04464FF47A712878B1FBF0F041
:101C80000A490968B1FBF0F000F084FB48B9102C58
:101C900007D200222146501E00F03AF800206C6066
:101CA00070BD012070BD0000040000200000002075
:101CB0000E4808B5816941F001018161816901F037
:101CC00001010091C16941F08051C161C06900F01A
:101CD00080500090052000F03BF80548416821F055
:101CE000E06141F00071416008BD00000010024059
:101CF00000000140002809DB00F01F020121914093
:101D00004009800000F1E020C0F800117047000099
:101D1000F0B40E4B1B680C46C3F30223C3F1070556
:101D2000042D00D90425191D072901D2002300E044
:101D3000DB1E012606FA05F1491E214099409E400E
:101D4000761E16403143F0BC02F09EBC0CED00E064
:101D5000064900F0070208684FF6FF03184040EA02
:101D60000220034A10430860704700000CED00E0B9
:101D70000000FA05BFF34F8F05480168054A01F4DA
:101D8000E06111430160BFF34F8F00BFFDE700002A
:101D90000CED00E00400FA052DE9F0470F460500C0
:101DA00061D0434E306800F00700B84209D2306875
:101DB00020F0070038433060306800F00700B84278
:101DC00051D128683B4C810712D5400703D5606884
:101DD00040F4E06060602878000703D5606840F454
:101DE000605060606068A96820F0F000084360609F
:101DF0002878C00728D06868012810D021680228F8
:101E000010D0890700292EDA616821F0030101430F
:101E10006160FFF70DFF804641F288390DE02168CF
:101E20008903EFE78901EDE7FFF702FFA0EB080167
:101E3000494502D90320BDE8F0876068696800F071
:101E40000C00B0EB810FEFD1306800F00700B84212
:101E50000BD9306820F0070038433060306800F05C
:101E60000700B84201D00120E5E72878400705D5F2
:101E70006068E96820F4E060084360602878000743
:101E800006D56068296920F4605040EAC1006060AE
:101E900000F038F86168084AC1F30311515CC8408A
:101EA0000649086006480068FFF7E2FE0020C2E726
:101EB0000020024000100240429300080000002071
:101EC000080000200448054900684968044AC1F335
:101ED0000221515CC8407047000000200010024001
:101EE000529300080448054900684968044AC1F350
:101EF000C221515CC8407047000000200010024021
:101F00005293000812A185B00FC98DE80F0014A0EC
:101F1000144A006804905168134801F00C03042B24
:101F200010D0082B0ED1C1F38343C9031DF8030061
:101F30000AD5516804AAC1F34041515C0A4A504392
:101F4000B0FBF1F005B0704708494843FAE70000DC
:101F500002030405060708090A0B0C0D0E0F1010EA
:101F6000010200000010024000127A0000093D004A
:101F70002DE9F84F040070D02078C04DC00749D03B
:101F80006868C0F38100012807D06868C0F3810049
:101F9000022809D16868C00306D52868800339D5AE
:101FA00060680028E7D035E06068B0F5803F0BD06E
:101FB00010B1B0F5A02F11D0286820F4803028602F
:101FC000286820F4802002E0286840F480302860EF
:101FD000606890B1FFF72CFE06460AE0286840F4DE
:101FE00080202860F0E700BFFFF722FE801B6428F6
:101FF00073D828688003F7D50CE0FFF719FE064672
:1020000005E000BFFFF714FE801B6428F0D82868A5
:102010008003F7D420789A4E80074FF001094FF0E3
:10202000000839D5686810F00C0F07D06868C0F355
:102030008100022809D16868C00306D42868800797
:1020400014D52069012808D110E02069B0B1C6F884
:102050000090FFF7EDFD074605E00AE1FFF7E8FD18
:10206000C01B0228C4D828688007F7D52868616992
:1020700020F0F80040EAC10028600DE0C6F80080BA
:10208000FFF7D6FD074604E0FFF7D2FDC01B02288C
:1020900023D828688007F7D4207800072CD5794802
:1020A000A169D9B1C0F80090FFF7C2FD074604E06E
:1020B000FFF7BEFDC01B02280FD8686A8007F7D55E
:1020C00071484FF4FA510068B0FBF1F0009000BF86
:1020D0000098411E0091FAD20EE080E0C0F8008026
:1020E000FFF7A6FD074604E0FFF7A2FDC01B02288C
:1020F00075D8686A8007F7D42078400760D5E8690A
:102100000027C00008D4E86940F08050E861E86921
:10211000012700F0805000905C480168C90513D485
:102120000168834641F480710160FFF781FD8246BA
:1021300006E000BFFFF77CFDA0EB0A0064284ED844
:10214000DBF80000C005F5D5E06801280AD008B129
:10215000052813D0286A20F001002862286A20F0A0
:10216000040002E0286A40F001002862E06841F2C1
:10217000883B98B1FFF75CFD82460BE0286A40F08F
:1021800004002862EEE700BFFFF752FDA0EB0A0152
:1021900059455AD8286A8007F6D50CE0FFF748FD64
:1021A000824605E0FFF744FDA0EB0A0159454CD8F3
:1021B000286A8007F6D41FB1E86920F08050E861F2
:1021C000E06988B36968C1F38101022944D002281B
:1021D000C6F8608004D0FFF72BFD044638E034E0F9
:1021E000FFF726FD074604E0FFF722FDC01B02288B
:1021F0002BD828688001F7D4206AB0F5803F05D13C
:102200006868A16820F4003008436860D4E90801D8
:102210000843696821F4741108436860C6F8609047
:10222000FFF706FD044606E025E000BFFFF700FDCE
:10223000001B022809D828688001F7D51BE000BFE1
:10224000FFF7F6FC001B022802D90320BDE8F88F37
:1022500028688001F4D40EE00128F7D06868226A6B
:1022600000F48031914204D1616A00F47010884218
:1022700001D00120EAE70020E8E70000001002405A
:1022800000004242800442420000002000700040F2
:1022900070B5040005D00025A56294F8510010B176
:1022A00006E0012070BD84F85050204600F02EF862
:1022B000022084F851002068016821F0400101608B
:1022C000D4E901010843D4E90312114308436169C9
:1022D0000843218B01F400710843E1690843216A36
:1022E0000843A16A084321680860A069042101EA43
:1022F0001040216848602068C16921F40061C16113
:102300006565012084F85100002070BD30B585B0AE
:1023100000240094019402940394006814498842B4
:1023200023D11448816941F480518161816901F4AC
:1023300080510491816941F00401816180690E4DF1
:1023400000F004000490A0200090022001900320DF
:10235000039069462846FFF765FB4020CDE900045D
:10236000694628460294FFF75DFB05B030BD0000CA
:102370000030014000100240000801404FF0E02111
:102380000428086903D020F004000861704740F079
:102390000400FAE710B5401EB0F1807F01D30120A0
:1023A00010BD4FF0E02460610F21601702F06CF95E
:1023B0000020A06107202061002010BD10B504009E
:1023C00003D094F83D0010B107E0012010BD0020BB
:1023D00084F83C00204600F00CF8022084F83D0010
:1023E000211D206801F0FAFA012084F83D00002048
:1023F00010BD70470168CA6842F00102CA600068F7
:10240000816801F00701062903D0016841F001014C
:10241000016000207047704710F8391F407808436A
:102420007047000070B5026804461068D1685369AF
:1024300010F00F0F51D003F0010501F490763543F1
:102440005DD0C20705D0CA0503D5E26B42F0010298
:10245000E263420705D5DA0703D0E26B42F00202DD
:10246000E263820705D5DA0703D0E26B42F004028B
:10247000E263020705D5DA0703D0E26B42F00802F7
:10248000E263E26B002A34D0800604D5880602D5C8
:10249000204601F047FB20684069E16BC0F38010E3
:1024A00001F008010143204624D001F02DFB2068F3
:1024B000416949061AD5416921F040014161606BCB
:1024C000A0B11B494163606BFFF714FA002810D0DC
:1024D000606B416BBDE87040084783060FD58B06E3
:1024E0000DD52046BDE8704001F01CBB2046FFF72B
:1024F00092FF70BDFFF78FFF0020E06370BD030601
:1025000006D50B0604D52046BDE8704001F0B2BBED
:102510004006F3D54806F1D5D168204621F04001A8
:10252000D160202184F8391000F0D2F870BD00008D
:10253000F93A000870B5040004D094F83900002579
:1025400010B106E0012070BD84F83850204600F03C
:1025500023F8242084F839002068C16821F4005150
:10256000C160204601F02AFB2068016921F49041F6
:1025700001612068416921F02A0141612068C16838
:1025800041F40051C160E563202084F8390084F8EB
:102590003A00002070BD000010B500681E4986B0EA
:1025A000884236D11D48816941F004018161816909
:1025B00001F004010491816941F4804181618169E4
:1025C00001F480410491816941F0010181618069D8
:1025D000134C00F0010004904FF4007000900220B2
:1025E0000190012002900320039069462046FFF7E6
:1025F00019FA201500900020019069462046FFF747
:1026000011FA2520FFF776FB032211462520FFF75C
:102610007FFB06B010BD00000038014000100240F2
:102620000008014090F83A30202B22D1F9B1F2B1E4
:1026300090F83830012B1CD081628285C285002140
:10264000C163222280F83A2080F838100168CA68F5
:1026500042F48072CA6001684A6942F001024A612C
:102660000068C16841F02001C1600020704701206E
:10267000704702207047000030B500681149884259
:102680000CD1114841880A0408D402464C0412783F
:102690004FF0000306D50A2A01D0438030BD41F433
:1026A00000410DE00D2A09D0C1F30D04074D491C6E
:1026B00089B22A554180C729EFD830BD41F4804105
:1026C000418030BD003801401401002060500020DE
:1026D0007047000000B5ADF2844D0AA001F084FF00
:1026E00011A001F081FF40F2844213496846FDF7D2
:1026F0006BFD684601F078FFFFF73CFB0DF2844D5F
:1027000000BD0000486172644661756C745F486189
:102710006E646C65723A20D3B2BCFEB4EDCEF3C0E9
:10272000B12E0D0A00000000B3A2CAD4D6D8C6F458
:102730002E2E2E0D0A000000E84503081CB5CDE939
:10274000000102480FC800F021F81CBD1C00002049
:102750000EB58DE8070002480FC800F062F80EBD04
:102760001C0000201CB5CDE9000102480FC800F094
:102770000DF81CBD2C0000200EB58DE807000248A6
:102780000FC800F04EF80EBD2C0000202DE9F843D4
:102790000546DDE908470E469046994600F00BF9DC
:1027A0004B46424631462846009400F08EF94B468F
:1027B00042463146284600F04EF94B4642463146E5
:1027C0002846009700F081F94B464246314628469C
:1027D00000F041F94B4642463146284600F0EBF8FE
:1027E00044F0010000904B4642463146284600F036
:1027F0006CF94B4642463146284600F02CF9002041
:1028000000904B4642463146284600F095F8044673
:102810004B4642463146284600F0F8F82046BDE8CF
:10282000F8832DE9F84F0DF1280B07469BE870005F
:10283000884691469A4600F0BEF853464A464146BD
:102840003846009400F041F953464A46414638461E
:1028500000F001F953464A4641463846009500F0DB
:1028600034F953464A464146384600F0F4F8534698
:102870004A4641463846009600F027F953464A46F4
:102880004146384600F0E7F801B053464A46414613
:102890003846BDE8F04F00F0B9B82DE9F843002400
:1028A00006460F4690469946009400F05AF90120DA
:1028B00003F05CF901254B46424639463046009507
:1028C00000F049F9012003F051F94B4642463946E0
:1028D0003046009400F03FF9012003F047F94B46E1
:1028E000424639463046009500F03BF9BDE8F88392
:1028F0002DE9F843012405460E46174698460094F4
:1029000000F02FF9012003F031F943463A463146F1
:102910002846009400F01FF9012003F027F9002059
:10292000009043463A463146284600F014F9BDE887
:10293000F843012003F01AB92DE9FF4F81B00024BC
:10294000DDF8388081468A4693462546012627468B
:102950006006040E00965A4651464846049B00F015
:10296000FAF8012003F002F95A4651464846049B02
:1029700000F0EDF808B1641CE4B200975A465146E5
:102980004846049B00F0E7F8012003F0EFF86D1CC7
:10299000EDB2082DDCD3049BB8F1010F5A46514625
:1029A000484605D0FFF7A4FF05B02046BDE8F08FEC
:1029B000FFF773FFF8E72DE9F843012405460E46BB
:1029C00017469846009400F0CCF843463A46314604
:1029D0002846009400F0BFF8012003F0C7F8002457
:1029E00043463A4631462846009400F0BAF80120A2
:1029F00003F0BCF843463A4631462846009400F0BE
:102A0000AAF8BDE8F843012003F0B0B82DE9F84377
:102A10000546002000900E4617469846284600F0CE
:102A2000A0F8012003F0A2F8012443463A463146BB
:102A30002846009400F08FF8012003F097F84346F1
:102A40003A4631462846009400F08BF8BDE8F8433A
:102A5000012003F08BB82DE9F843012506460F4607
:102A6000904699460024009500F07BF8012003F081
:102A70007DF84B46424639463046009500F06BF8EB
:102A8000012003F073F80CE0641CE4B2FA2C08D9BE
:102A90004B46424639463046FFF7B8FF0020BDE8B6
:102AA000F8834B4642463946304600F050F800283D
:102AB000EAD100904B4642463946304600F04BF88A
:102AC000012003F053F80120E9E72DE9F84F002435
:102AD0000A9E8046894692469B46254601275B46CC
:102AE000524649464046009500F035F8012003F073
:102AF0003DF8300601D5009700E000955B46524650
:102B00004946404600F02DF8012003F02FF85B46BF
:102B1000524649464046009700F01DF8012003F058
:102B200025F85B46524649464046009500F013F8AA
:102B30007006641C060EE4B2082CD0D35B465246E5
:102B400049464046009700F00CF8BDE8F88F18465B
:102B500091B2FFF763B80346084699B2009AFFF7AF
:102B600062B830B491B2029C1846224630BCFFF7DE
:102B70005AB8FFF7F7BDFFF7E1BDFFF7FDBDFFF75F
:102B8000E7BD10B538221821D620FFF7F6FF38220E
:102B90001921D620FFF7F1FF61221021D620FFF77F
:102BA000ECFF68221121D620FFF7E7FFBDE81040B7
:102BB0000A2002F0CDBF000010B52821D620FFF773
:102BC000D8FF124C29212070D620FFF7D2FF607069
:102BD0002A21D620FFF7CDFFA0702B21D620FFF7AA
:102BE000C8FFE0702C21D620FFF7C3FF20712D21F4
:102BF000D620FFF7BEFF6071A4F10C002188018090
:102C000061884180A188818010BD000048000020BB
:102C100010B52221D620FFF7ACFF134C23212070E2
:102C2000D620FFF7A6FF60702421D620FFF7A1FF72
:102C3000A0702521D620FFF79CFFE0702621D6202A
:102C4000FFF797FF20712721D620FFF792FF6071D1
:102C5000A11F22880A8062884A80000222794042AD
:102C60001043888010BD00004800002010B5FFF719
:102C7000A3FFBDE81040FFF7CBBF002005F006B969
:102C80002DE9F04385B00020009001900290039060
:102C90002B48816941F020018161816901F02001A7
:102CA0000491816941F010018161816901F0100195
:102CB0000491816941F004018161816901F004019D
:102CC0000491816941F00801816180691D4F00F024
:102CD00008000490012204213846FEF7A4FFDFF823
:102CE0006880002210214046FEF79DFFDFF85C90CF
:102CF0004FF44C66012231464846FEF794FF01240A
:102D00000420CDE90004032569463846CDE9024593
:102D1000FEF788FE1020CDE900040220CDE9024034
:102D200069464046FEF77EFE01AA1120009682E821
:102D3000310069464846FEF775FE05B0BDE8F083F0
:102D4000001002400010014000080140000C01404A
:102D50000346084699B2C2F30722FEF764BF034652
:102D6000084699B2D2B2FEF75EBF0246084691B25B
:102D7000FEF754BFFEE7FEE7704710B501220B21B6
:102D80001A20FFF7FCFE1D2209211A20FFF7F7FE8B
:102D9000BDE810400A2002F0DBBE000010B50021A3
:102DA0001A20FFF7E8FE124C012120701A20FFF7CD
:102DB000E2FE607002211A20FFF7DDFEA070032101
:102DC0001A20FFF7D8FEE07004211A20FFF7D3FE87
:102DD000207105211A20FFF7CEFE6071A01F218807
:102DE000418061880180A1884942818010BD000036
:102DF00054000020FFF7D2BF0FB420222DE9F0418C
:102E0000BAB040A9DDE95E541BA8609EFDF7DCF96D
:102E100048A93622884623A8FDF7D6F9BDF8560101
:102E2000ADF8C20056983190BDF85C01ADF8C8000D
:102E3000BDF85E01ADF8CA0058A911220F4633A8AB
:102E4000FDF7C2F99DF871018DF8DD005D983890AD
:102E500000201A9068221FA96846FDF7B5F90DF108
:102E60006C0C9CE80F0000F085FC202240A91BA8F8
:102E7000FDF7AAF93622414623A8FDF7A5F9BDF8CA
:102E80005601ADF8C20056983190BDF85C01ADF81E
:102E9000C800BDF85E01ADF8CA001122394633A85A
:102EA000FDF792F99DF871018DF8DD005D9838907D
:102EB00003201A9068221FA96846FDF785F90DF1D5
:102EC0006C0C9CE80F0000F07DFC202240A91BA8A0
:102ED000FDF77AF93622414623A8FDF775F9BDF8CA
:102EE0005601ADF8C20056983190BDF85C01ADF8BE
:102EF000C800BDF85E01ADF8CA001122394633A8FA
:102F0000FDF762F99DF871018DF8DD005D9838904C
:102F1000C6F307401A9068221FA96846FDF754F9C6
:102F20000DF16C0C9CE80F0000F04CFC202240A935
:102F30001BA8FDF749F93622414623A8FDF744F9BD
:102F4000BDF85601ADF8C20056983190BDF85C014D
:102F5000ADF8C800BDF85E01ADF8CA0011223946CF
:102F600033A8FDF731F99DF871018DF8DD005D980A
:102F70003890C6F307201A9068221FA96846FDF70B
:102F800023F90DF16C0C9CE80F0000F01BFC2022D3
:102F900040A91BA8FDF718F93622414623A8FDF7E2
:102FA00013F9BDF85601ADF8C20056983190BDF83E
:102FB0005C01ADF8C800BDF85E01ADF8CA00112291
:102FC000394633A8FDF700F99DF871018DF8DD0051
:102FD0005D983890F0B21A9068221FA96846FDF7F4
:102FE000F3F80DF16C0C9CE80F0000F0EBFB2DE00A
:102FF000FDF7EAF83622414623A8FDF7E5F8BDF8CB
:103000005601ADF8C20056983190BDF85C01ADF89C
:10301000C800BDF85E01ADF8CA001122394633A8D8
:10302000FDF7D2F89DF871018DF8DD005D983890BC
:10303000FF201A9068221FA96846FDF7C5F81BAE4D
:1030400096E80F0000F0BEFB05F8010B641EA4B269
:103050004FF0200240A91BA8CAD2FDF7B5F83622CE
:10306000414623A8FDF7B0F8BDF85601ADF8C200FF
:1030700056983190BDF85C01ADF8C800BDF85E010E
:10308000ADF8CA001122394633A8FDF79DF89DF826
:1030900071018DF8DD005D98389001201A9068224A
:1030A0001FA96846FDF790F81BAC94E80F0000F0EC
:1030B00061FB3AB0BDE8F0015DF814FB0FB42DE9F7
:1030C000F04FBDB05EAADDE9658414F0FF01C1F1E7
:1030D0000000C6B2649DBDF874914EA8CDE93B20B6
:1030E0004FEA182708F0FF0A3ED0E0B24042C0B2D3
:1030F00004EB000B002F78D0A8EB060080B2070A83
:1031000000F0FF08202246A91DA8FDF75DF8362231
:1031100025A83C99FDF758F8BDF86E01ADF8CA0036
:103120005C983390BDF87601ADF8D090ADF8D20040
:10313000112235A83B99FDF747F89DF889018DF8D4
:10314000E50063983A901A95CDE91B64682221A99D
:103150006846FDF739F80DF1740A9AE80F0000F09F
:1031600081F95C4635441FE1F7BB202246A91DA822
:10317000FDF72AF8362225A83C99FDF725F8BDF879
:103180006E01ADF8CA005C983390ADF8D09026E19E
:10319000FDF71AF8362225A83C99FDF715F8BDF879
:1031A0006E01ADF8CA005C983390BDF87401ADF8BB
:1031B000D000BDF87601ADF8D200112235A83B99B8
:1031C000FDF702F89DF889018DF8E50063983A90C3
:1031D0004FF480701A95CDE91B04682221A9684636
:1031E000FCF7F2FF1DAE01E008E042E096E80F00B8
:1031F00000F038F904F5807405F580757F1EFFB284
:103200004FF0200246A91DA8C2D2FCF7DDFF3622EE
:1032100025A83C99FCF7D8FFBDF86E01ADF8CA00AF
:103220005C983390BDF87401ADF8D000BDF876011C
:10323000ADF8D200112235A83B99FCF7C5FF9DF8E7
:1032400089018DF8E50063983A901A95CDE91BA4A1
:10325000682221A9684600BFFCF7B6FF1DAE96E8BC
:103260000F0000BF00F0FEF83DB0BDE8F00F5DF8C4
:1032700014FBB2457FF679AFAAEB0600C7B2202255
:1032800046A91DA8FCF7A0FF362225A83C99FCF70B
:103290009BFFBDF86E01ADF8CA005C983390BDF895
:1032A0007601ADF8D090ADF8D200112235A83B9947
:1032B000FCF78AFF9DF889018DF8E50063983A9044
:1032C0001A95CDE91B64682221A96846FCF77CFFAA
:1032D0000DF1740898E80F0000F0C4F85C4635441E
:1032E000202246A91DA8FCF76FFF362225A83C998D
:1032F000FCF76AFFBDF86E01ADF8CA005C98339028
:10330000BDF87401ADF8D000BDF87601ADF8D2007B
:10331000112235A83B99FCF757FF9DF889018DF8DC
:10332000E50063983A901A95CDE91B74682221A9AB
:103330006846FCF749FF98E80F0093E7202246A96A
:103340001DA8FCF741FF362225A83C99FCF73CFF5D
:10335000BDF86E01ADF8CA005C983390BDF87401F9
:10336000ADF8D000BDF87601ADF8D200112235A835
:103370003B99FCF729FF9DF889018DF8E5006398DA
:103380003A904FF480701A95CDE91B04682221A968
:103390006846FCF719FF1DAE96E80F0000F062F8D2
:1033A00004F5807405F580757F1EFFB2C6D2B8F1B2
:1033B000000F3FF459AF202246A91DA8FCF704FFD7
:1033C000362225A83C99FCF7FFFEBDF86E01ADF84A
:1033D000CA005C983390BDF87401ADF8D000BDF818
:1033E0007601ADF8D200112235A83B99FCF7ECFE2E
:1033F0009DF889018DF8E50063983A901A95CDE91A
:103400001B84682221A9684626E70FB4362200B53E
:1034100097B020A96846FCF7D7FEBDF8B600ADF816
:1034200036002E980E90BDF8BC00ADF83C00BDF8FB
:10343000BE00ADF83E00112230A910A8FCF7C4FE72
:103440009DF8D1008DF85100359815906846FEF72B
:103450001FFF00980068009940F04000086017B016
:103460005DF814FB0FB42DE9F041BAB0DDE95F451A
:103470005E9E01F023F8202240A91BA8FCF7A4FEC1
:1034800048A93622884623A8FCF79EFEBDF85601BF
:10349000ADF8C20056983190BDF85C01ADF8C80097
:1034A000BDF85E01ADF8CA0058A911220F4633A835
:1034B000FCF78AFE9DF871018DF8DD005D9838906B
:1034C00000201A9068221FA96846FCF77DFE0DF1C6
:1034D0006C0C9CE80F0000F04DF9202240A91BA8BD
:1034E000FCF772FE3622414623A8FCF76DFEBDF8BC
:1034F0005601ADF8C20056983190BDF85C01ADF8A8
:10350000C800BDF85E01ADF8CA001122394633A8E3
:10351000FCF75AFE9DF871018DF8DD005D9838903A
:1035200002201A9068221FA96846FCF74DFE0DF193
:103530006C0C9CE80F0000F045F9202240A91BA864
:10354000FCF742FE3622414623A8FCF73DFEBDF8BB
:103550005601ADF8C20056983190BDF85C01ADF847
:10356000C800BDF85E01ADF8CA001122394633A883
:10357000FCF72AFE9DF871018DF8DD005D9838900A
:10358000C5F307401A9068221FA96846FCF71CFE85
:103590000DF16C0C9CE80F0000F014F9202240A9FA
:1035A0001BA8FCF711FE3622414623A8FCF70CFEAF
:1035B000BDF85601ADF8C20056983190BDF85C01D7
:1035C000ADF8C800BDF85E01ADF8CA001122394659
:1035D00033A8FCF7F9FD9DF871018DF8DD005D98C9
:1035E0003890C5F307201A9068221FA96846FCF797
:1035F000EBFD0DF16C0C9CE80F0000F0E3F82022CD
:1036000040A91BA8FCF7E0FD3622414623A8FCF7A1
:10361000DBFDBDF85601ADF8C20056983190BDF8FB
:103620005C01ADF8C800BDF85E01ADF8CA0011221A
:10363000394633A8FCF7C8FD9DF871018DF8DD000F
:103640005D983890E8B21A9068221FA96846FCF786
:10365000BBFD0DF16C0C9CE80F0000F0B3F8B4F565
:10366000807F33D936A000F0BFFFFF24202240A97D
:103670001BA8FCF7A9FD3622414623A8FCF7A4FDB0
:10368000BDF85601ADF8C20056983190BDF85C0106
:10369000ADF8C800BDF85E01ADF8CA001122394688
:1036A00033A8FCF791FD9DF871018DF8DD005D9860
:1036B000389030781A9068221FA96846FCF784FD7C
:1036C0001BAD95E80F0000F07DF8761C641EA4B2D7
:1036D000CCD2202240A91BA8FCF776FD3622414619
:1036E00023A8FCF771FDBDF85601ADF8C20056984D
:1036F0003190BDF85C01ADF8C800BDF85E01ADF8D1
:10370000CA001122394633A8FCF75EFD9DF871010D
:103710008DF8DD005D98389001201A9068221FA96D
:103720006846FCF751FD1BAC94E80F0000F022F84E
:103730003AB0BDE8F0015DF814EB00F0B9BD00004F
:103740003C3C2D464C4153482D4552524F522D3E44
:103750003E205350495F464C4153485F5061676576
:10376000577269746520746F6F206C617267652190
:103770000A0000000FB4BDF800101E9A019804B0B2
:10378000FEF751BA10B503A01C9900F02DFF0020E0
:1037900010BD00003C3C2D464C4153482D45525233
:1037A0004F522D3E3E2053504920B5C8B4FDB3AC16
:1037B000CAB1216572726F72436F6465203D202526
:1037C000640A00000FB43622F0B5EDB07AA90F46B6
:1037D00057A8909DFCF7F8FCBDF81E02ADF89201C9
:1037E00088986590BDF82442ADF89841BDF826024E
:1037F000ADF89A018AA911220E4667A8FCF7E4FCED
:103800009DF839028DF8AD018F986C904FF40050FF
:1038100001462DE0491E2BD2202272A91BA8FCF7DD
:10382000D3FC3622394623A8FCF7CEFCBDF81E0295
:10383000ADF8C20088983190BDF82602ADF8C840B6
:10384000ADF8CA001122314633A8FCF7BDFC9DF843
:1038500039028DF8DD008F98389000201A90682288
:103860001FA96846FCF7B0FC1BAD95E80F0036E0D9
:10387000579A9268D2439207CCD45799CD6034E0DE
:10388000401E32D2202272A939A8FCF79DFC3622B4
:10389000394641A8FCF798FCBDF81E02ADF83A0184
:1038A00088984F90BDF82402ADF84001BDF826027B
:1038B000ADF842011122314651A8FCF785FC9DF874
:1038C00039028DF855018F98569001201A90682280
:1038D0003DA96846FCF778FC39AC94E80F00FFF787
:1038E00051FF6DB0F0BC5DF814FB57998968C9436E
:1038F000C907C5D15798C068C0B2F2E77047FEF754
:103900009DB930B58FB028216846FCF776FC1421AC
:103910000AA8FCF772FC01210804CDE9001000247C
:10392000029402250491CDE907504FF4E01009906C
:103930006846FEF71DFB08B172B6FEE70F20CDE921
:103940000A054FF48060CDE90C4002210AA80E94CC
:10395000FEF722FA002801D072B6FEE70FB030BDA4
:103960000D48016841F00101016041680B4A1140B6
:10397000416001680A4A11400160016821F4802118
:103980000160416821F4FE0141604FF41F01816034
:103990000449C00308607047001002400000FFF8AF
:1039A000FFFFF6FE08ED00E010B50A4C2068C06885
:1039B000C043C00709D1084800698047216800203A
:1039C000486221686420C862E06021686FF00100ED
:1039D000086110BD68510020B8010020F0B50268F0
:1039E0001C4B1D4D1D4E1E4F1E4C4FF0804C9842DF
:1039F00009D0A04207D0604505D0A84203D0B0420C
:103A000001D0B84204D122F0700E4A6842EA0E0298
:103A1000984209D0A04207D0604505D0A84203D003
:103A2000B04201D0B84203D122F44075CA682A439B
:103A30004D6922F080022A4302608A68C2620A68E5
:103A40008262984201D0A04201D10969016301213B
:103A50004161F0BD002C014000040040000800401E
:103A6000000C00400034014038B5114A05460C46B0
:103A7000D06940F00400D061D069032200F0040056
:103A8000009011461E20FEF743F91E20FEF732F982
:103A9000094A0848C2E900040020C2E90205106191
:103AA0001046FEF78BFCBDE838400348FEF7A2BC89
:103AB00000100240000800406851002010B5482066
:103AC00002F03CF84FF4E13004F084FC542004F0A0
:103AD000D1FFBDE8104001A000F086BD28796573D4
:103AE0002920D4DAD3C3D5FDB5E3D4ADD7D3B5C43B
:103AF000BAAFCAFD2E0D0A0010B5406A0021C1857B
:103B0000C184FEF788FC10BD0168CA6822F4907277
:103B1000CA6001684A6922F001024A61202180F8E6
:103B20003A10704710B590F83A10222901D00220BF
:103B300010BD8168B1F5805F11D00169002901686D
:103B40001FD0496801F07F03816A4A1C82620B70B2
:103B5000C18D491E0904090CC18518D02BE00269EA
:103B6000816A002A0268526805D0D2B20A80816A4E
:103B7000491C8162ECE7C2F308020A80816A891C51
:103B8000F7E74A68816A4B1C83620A70E0E70168C4
:103B9000CA6822F02002CA600168CA6822F48072F2
:103BA000CA6001684A6922F001024A61202180F856
:103BB0003A10FEF761FD002010BD00002DE9F04134
:103BC000044600680169E26821F440511143016133
:103BD0002169A0680843616908432168CA6841F205
:103BE0000C639A430243CA6020684169A26921F4C8
:103BF0004071114341611E49206864253226884284
:103C000002D1FEF76FF901E0FEF75CF900EBC001AD
:103C100001EB001160686FF018078000B1FBF0F253
:103C2000B2FBF5F2B1FBF0F37A4303EB8202B1FB96
:103C3000F0F306EB0212B2FBF5F2B3FBF5F302F080
:103C4000F00202EB0312B1FBF0F3B1FBF0F0B0FBBA
:103C5000F5F0784303EB800006EB0010B0FBF5F0C5
:103C6000216800F00F0010448860BDE8F08100007A
:103C70000038014090F83910212901D00220704706
:103C80008168B1F5805F016A0BD04A1C026202684C
:103C900009785160C18C491E0904090CC1840ED0F9
:103CA00017E009880268C1F3080151600169002921
:103CB000016A02D0491C0162ECE7891CFBE701683C
:103CC000CA6822F08002CA600068C16841F0400101
:103CD000C16000207047000010B50848FEF7A2FB45
:103CE0000648FEF799FB2028FAD10122044903482F
:103CF000FEF798FC0028F8D110BD000028510020E4
:103D000014010020FEE70000F0B5B9B0054600F050
:103D1000D5FB00F0CDFA20228C491BA8FCF754FA01
:103D20008A49362220310F4623A8FCF74DFA874CEA
:103D3000B4F85600ADF8C20054F8580F3190A0887E
:103D4000ADF8C800E088ADF8CA00804911226031A2
:103D50000E4633A8FCF738FA607E8DF8DD00E06986
:103D6000389000201A9068221FA96846FCF72CFAA8
:103D70000DF16C0C9CE80F00FFF7FCFC202273494E
:103D80001BA8FCF721FA3622394623A8FCF71CFAB7
:103D900034F8020CADF8C20020683190A088ADF86C
:103DA000C800E088ADF8CA001122314633A8FCF7FC
:103DB0000BFA607E8DF8DD00E069389020201A90C3
:103DC00068221FA96846FCF7FFF90DF16C0C9CE80E
:103DD0000F00FFF7F7FC20225C491BA8FCF7F4F961
:103DE0003622394623A8FCF7EFF934F8020CADF877
:103DF000C20020683190A088ADF8C800E088ADF816
:103E0000CA001122314633A8FCF7DEF9607E8DF836
:103E1000DD00E0693890C5F307401A9068221FA9B9
:103E20006846FCF7D1F90DF16C0C9CE80F00FFF728
:103E3000C9FC202245491BA8FCF7C6F936223946A1
:103E400023A8FCF7C1F934F8020CADF8C2002068D1
:103E50003190A088ADF8C800E088ADF8CA00112202
:103E6000314633A8FCF7B0F9607E8DF8DD00E069DB
:103E70003890C5F307201A9068221FA96846FCF7FE
:103E8000A3F90DF16C0C9CE80F00FFF79BFC2022BE
:103E90002E491BA8FCF798F93622394623A8FCF7CF
:103EA00093F934F8020CADF8C20020683190A08874
:103EB000ADF8C800E088ADF8CA001122314633A839
:103EC000FCF782F9607E8DF8DD00E0693890E8B299
:103ED0001A9068221FA96846FCF776F90DF16C0C60
:103EE0009CE80F00FFF76EFC202218491BA8FCF786
:103EF0006BF93622394623A8FCF766F934F8020C30
:103F0000ADF8C20020683190A088ADF8C800E08804
:103F1000ADF8CA001122314633A8FCF755F9607E8E
:103F20008DF8DD00E069389001201A9068221FA901
:103F30006846FCF749F91BAC94E80F00FFF71AFC40
:103F400039B0BDE8F04000F0B3B9000080000020B7
:103F50002DE9F043B9B0202289491BA8FCF734F9B8
:103F6000874936222031894623A8FCF72DF9844C55
:103F7000B4F85600ADF8C20054F8580F3190A0883C
:103F8000ADF8C800E088ADF8CA007D491122603163
:103F9000884633A8FCF718F9607E8DF8DD00E069EB
:103FA000389000201A9068221FA96846FCF70CF987
:103FB0001BAD95E80F00FFF7DDFB202270491BA821
:103FC000FCF702F93622494623A8FCF7FDF834F83D
:103FD000020CADF8C20020683190A088ADF8C8008E
:103FE000E088ADF8CA001122414633A8FCF7ECF88E
:103FF000607E8DF8DD00E06938909F201A9068227D
:104000001FA96846FCF7E0F895E80F00FFF7DAFB18
:1040100020225B491BA8FCF7D7F83622494623A883
:10402000FCF7D2F834F8020CADF8C20020683190E9
:10403000A088ADF8C800E088ADF8CA00112241465A
:1040400033A8FCF7C1F8607E8DF8DD00E069389098
:10405000FF2568221FA968461A95FCF7B5F81BAE24
:1040600096E80F00FFF7AEFB0746202244491BA845
:10407000FCF7AAF83622494623A8FCF7A5F834F83D
:10408000020CADF8C20020683190A088ADF8C800DD
:10409000E088ADF8CA001122414633A8FCF794F835
:1040A000607E8DF8DD00E069389068221FA96846BF
:1040B0001A95FCF789F896E80F00FFF783FB064690
:1040C00020222F491BA8FCF77FF83622494623A857
:1040D000FCF77AF834F8020CADF8C2002068319091
:1040E000A088ADF8C800E088ADF8CA0011224146AA
:1040F00033A8FCF769F8607E8DF8DD00E069389040
:1041000068221FA968461A95FCF75EF81BAD95E872
:104110000F00FFF757FB0546202219491BA8FCF7A3
:1041200053F83622494623A8FCF74EF834F8020C1F
:10413000ADF8C20020683190A088ADF8C800E088D2
:10414000ADF8CA001122414633A8FCF73DF8607E65
:104150008DF8DD00E069389001201A9068221FA9CF
:104160006846FCF731F81BAC94E80F00FFF702FB40
:10417000380440EA062139B041EA0500BDE8F08381
:1041800080000020F0B5B9B0202248491BA8FCF7F8
:104190001BF84649362220310F4623A8FCF714F8B5
:1041A000424C34F8560FADF8C200404D2D1F55F863
:1041B0005C0F3190A888ADF8C8002089ADF8CA001E
:1041C0003A49112260310E4633A8FBF7FDFFE07E2D
:1041D0008DF8DD00D4F81E00389000201A90682277
:1041E0001FA96846FBF7F0FF0DF16C0C9CE80F006F
:1041F000FFF7C0FA20222D491BA8FBF7E5FF362266
:10420000394623A8FBF7E0FF2088ADF8C2002868F4
:104210003190A888ADF8C8002089ADF8CA001122F5
:10422000314633A8FBF7D0FFE07E8DF8DD00D4F8EF
:104230001E003890AB201A9068221FA96846FBF731
:10424000C3FF0DF16C0C9CE80F00FFF7BBFA2022B6
:1042500016491BA8FBF7B8FF3622394623A8FBF7FF
:10426000B3FF2088ADF8C20028683190A888ADF867
:10427000C8002089ADF8CA001122314633A8FBF7E7
:10428000A3FFE07E8DF8DD00D4F81E0038900120F9
:104290001A9068221FA96846FBF796FF1BAC94E8AA
:1042A0000F00FFF767FA39B0F0BD00008000002072
:1042B0002DE9F04FB9B020227F491BA8FBF784FFFE
:1042C0007D49362220318A4623A8FBF77DFF7A4CB0
:1042D00034F8560FADF8C200774D2D1FE86D3190C0
:1042E000B5F86000ADF8C8002089ADF8CA0005F146
:1042F000640111228B4633A8FBF766FFE07E8DF840
:10430000DD00D4F81E00389000201A9068221FA902
:104310006846FBF759FF1BAE96E80F00FFF72AFA35
:104320002022291D1BA8FBF74FFF3622514623A848
:10433000FBF74AFF2088ADF8C200E86D3190B5F870
:104340006000ADF8C8002089ADF8CA0011225946B6
:1043500033A8FBF739FFE07E8DF8DD00D4F81E00AE
:10436000389005201A9068221FA96846563CFBF732
:104370002BFF96E80F00FFF725FA4FF40050286056
:1043800028600DF18C090DF1CC08FF261FAF20220B
:1043900049491BA8FBF718FF362251464846FBF750
:1043A00013FFB4F85600ADF8C200E86D3190B5F8CF
:1043B0006000ADF8C800B4F85E00ADF8CA00112284
:1043C00059464046FBF700FF94F871008DF8DD0078
:1043D000606F38906822394668461A96FBF7F4FEFB
:1043E0000DF16C0C9CE80F00FFF7ECF929684A1EF0
:1043F0002A6030D2202230491BA8FBF7E5FE362286
:10440000514623A8FBF7E0FE34F8560FADF8C20082
:10441000E86D3190B5F86000ADF8C8002089ADF8BE
:10442000CA001122594633A8FBF7CEFEE07E8DF874
:10443000DD00D4F81E00389004201A9068221FA9CD
:104440006846FBF7C1FE1BAE96E80F00FFF79AF92E
:1044500039B0BDE8F08FC00799D1202216491BA8BA
:10446000FBF7B2FE3622514623A8FBF7ADFE34F827
:10447000560FADF8C200E86D3190B5F86000ADF8A8
:10448000C8002089ADF8CA001122594633A8FBF7AD
:104490009BFEE07E8DF8DD00D4F81E0038900120F0
:1044A0001A9068221FA96846FBF78EFE1BAE96E89D
:1044B0000F00FFF75FF9CBE780000020F0B5B9B03F
:1044C000202248491BA8FBF77FFE464936222031AF
:1044D0000F4623A8FBF778FE424C34F8560FADF890
:1044E000C200404D2D1F55F85C0F3190A888ADF8E3
:1044F000C8002089ADF8CA003A49112260310E4641
:1045000033A8FBF761FEE07E8DF8DD00D4F81E00D5
:10451000389000201A9068221FA96846FBF754FEC5
:104520000DF16C0C9CE80F00FFF724F920222D49B7
:104530001BA8FBF749FE3622394623A8FBF744FEA9
:104540002088ADF8C20028683190A888ADF8C8006E
:104550002089ADF8CA001122314633A8FBF734FE9A
:10456000E07E8DF8DD00D4F81E00389006201A9009
:1045700068221FA96846FBF727FE0DF16C0C9CE82A
:104580000F00FFF71FF9202216491BA8FBF71CFE9E
:104590003622394623A8FBF717FE2088ADF8C20063
:1045A00028683190A888ADF8C8002089ADF8CA0005
:1045B0001122314633A8FBF707FEE07E8DF8DD00BF
:1045C000D4F81E00389001201A9068221FA968466E
:1045D000FBF7FAFD1BAC94E80F00FFF7CBF839B0FE
:1045E000F0BD0000800000200FB4054B10B503A9FA
:1045F000044A029800F0AAF910BC5DF814FB000010
:1046000059700008180100200FB41CB502460020A4
:1046100007AC00290BD0491ECDE90021054B6A46A5
:104620002146069800F092F9009A002111701CBCF6
:104630005DF814FB7B5000080FB4084B10B504A9BB
:1046400002AA039800F082F9044602A9002000F0B3
:104650001FFD204610BC5DF814FB000091500008BF
:10466000490050EAC12018BF04204A0D18BF40F08D
:10467000010040F2FF72B2EB515F08BF40F0020050
:10468000012808BF052070470907090E002804DB30
:1046900000F1E02080F80014704700F00F0000F1F6
:1046A000E02080F8141D704700487047D4020020B5
:1046B0002DE9F0414F1E00EBC7010446D1E900018E
:1046C00015461E4637F006020DD02A463346FBF744
:1046D00090FF7F1E04EBC703D3E90023FBF7E2FE44
:1046E00037F00602F1D1022F25D0042F13D0062F68
:1046F00018BFBDE8F0812A463346FBF77AFFD4E9BC
:104700000A23FBF7CFFE2A463346FBF772FFD4E9B4
:104710000823FBF7C7FE2A463346FBF76AFFD4E9B6
:104720000623FBF7BFFE2A463346FBF762FFD4E9B8
:104730000423FBF7B7FE2A463346FBF75AFFD4E9BA
:104740000223FBF7AFFE2A463346FBF752FFD4E9BC
:104750000023BDE8F041FBF7A5BE0122FCF701BA3A
:10476000FBF7A0BE0022134610461146FCF78AB99B
:10477000024A00201107FCF7F4B9000001FDFFFF19
:104780000148006870470000D402002002E008C819
:10479000121F08C1002AFAD170477047002001E0BB
:1047A00001C1121F002AFBD17047000001490860B7
:1047B00070470000D40200202DE9FF5F82B0002185
:1047C000DDE90430020DDDF840B0034318D044F6B3
:1047D0001050A2F2FF3242431514119801281FD045
:1047E000A5EB0B00401C5FEA000A4FF000064E4F9D
:1047F000DFF83891B046504615D5CAF1000413E0F1
:10480000119801244AA3012801D16FEA0B010298F3
:10481000119AC0E90031C0E9024206B0BDE8F09F3C
:10482000CBF10000DFE704460021404A491842EB83
:104830000450CDE9001012E0E00707D032463B46B5
:1048400040464946FBF7D5FE8046894632463B4600
:1048500010461946FBF7CDFE06460F466410002CA5
:10486000EAD1DDE90401DDE90023BAF1000F06DA3F
:10487000FBF7BFFE42464B46FBF7BBFE05E0FCF7ED
:1048800001F942464B46FCF7FDF804460E4600226D
:10489000284BFCF7E7F903D84FF0FF30014607E05B
:1048A0000022254B20463146FBF7FCFDFCF7C1F901
:1048B000102409E0002C0ADB0A220023FBF75EFF2C
:1048C000039B30321A55641E50EA0102F2D1641C77
:1048D000039AC4F111031444119A012A03D001224E
:1048E00008430DD10AE0084304D000204FF0110B1B
:1048F000119072E7A3EB0B056D1E0DE05B4504DD27
:104900004FF0000205F1010504E003DA4FF0000268
:10491000A5F10105002AECD002981199C0E90231F5
:10492000C0E9004579E70000000014400000F03FB6
:10493000300000000000F0430000E03F30380A285B
:1049400001D2012070470020704700002DE9FF4F81
:1049500095B09B468946064600250FE2252877D16B
:1049600000242746F84A0121059400E0044316F884
:10497000013F203B01FA03F01042F7D130782A289A
:1049800011D06FF02F033078A0F13002092A16D829
:10499000059A44F0020402EB820203EB4202104447
:1049A000761C0590EFE759F8042B0592002A03DAEC
:1049B000504244F40054059044F00204761C3078D0
:1049C0002E2816D116F8010F44F004042A280DD021
:1049D0006FF02F023078A0F13003092B09D807EBD4
:1049E000870302EB4303C718761CF3E759F8047BEF
:1049F000761C30786C280FD006DC4C2817D068283D
:104A00000DD06A2814D104E0742810D07A280FD170
:104A10000DE044F400140AE044F4801401E044F48E
:104A200040147278824202D104F58014761C761C00
:104A3000307866280BD013DC582877D009DC0028A2
:104A400075D04528F6D04628F4D047281AD19DE1E4
:104A500018E0632835D0642879D0652812D195E113
:104A6000702873D008DC6728F1D069286FD06E28D1
:104A70000DD06F2806D1B5E073282CD0752875D0DD
:104A8000782874D05A46179990476D1C75E1C4F385
:104A90000250022809D003280DD0D9F800100428AC
:104AA0000DD00D6009F1040967E1D9F80010EA178B
:104AB000C1E90052F6E7D9F800100D80F2E70D7059
:104AC000F0E719F8041B8DF8001000208DF80100A4
:104AD000EA46012003E059F804AB4FF0FF306107CC
:104AE0004FF0000102D40DE008F101018846B942FF
:104AF0000FDA8045F8DB1AF808100029F4D108E035
:104B000008F1010188468142FADB1AF808100029F1
:104B1000F6D105985B46A0EB080721463846179A60
:104B200000F094FA284400EB080507E04DE029E185
:104B30000DE01AF8010B5A4617999047B8F1010891
:104B4000F7D25B4621463846179A13E142E00A2223
:104B50000092C4F302524FF0000A022A08D059F81A
:104B600004CB032A4FEAEC710AD00DE029E02AE0D9
:104B700009F1070121F00702F2E802C1914609E0BC
:104B80000FFA8CFC4FEAEC71042A03D14FFA8CFC2B
:104B90004FEAEC71002907DA0A460021DCF1000C2B
:104BA00061EB02012D2202E0220504D52B228DF8B3
:104BB0000420012203E0E20701D02022F7E790461B
:104BC00059E00A2102E010220DE010214FF0000A06
:104BD00000910BE010224FF0000A44F00404082773
:104BE000009203E008224FF0000A0092C4F3025240
:104BF000022A05D059F804CB0021032A08D009E085
:104C000009F1070121F00702F2E802C1914605E02F
:104C10001FFA8CFC042A01D10CF0FF0C4FF00008A5
:104C2000220728D5702806D0009B83F0100353EA92
:104C30000A0305D00EE040228DF80420012208E08E
:104C40005CEA010206D030228DF804208DF80500C0
:104C500002229046009B83F0080353EA0A030AD11C
:104C60005CEA010201D1620705D530228DF80420EB
:104C70004FF001087F1E582804D034A003900EA8DE
:104C800002900DE036A0F9E753466046009AFBF724
:104C900075FD84460398825C0298401E0290027063
:104CA0005CEA0100F0D1029806A9081A00F1200A76
:104CB000600702D524F4803400E00127574502DD67
:104CC000A7EB0A0000E0002000EB0A010090059825
:104CD0004144401A0590E00306D45B462146179AEA
:104CE000059800F0B3F90544002706E001A85A46EC
:104CF000C05D179990476D1C7F1C4745F6DBE003AC
:104D00000CD55B462146179A059800F09FF905449B
:104D100004E030205A46179990476D1C0099481EB0
:104D200000900029F5DC08E0029802995A460078C4
:104D3000491C0291179990476D1CBAF10001AAF124
:104D4000010AF1DC65E1000009280100303132334D
:104D500034353637383961626364656600000000B7
:104D600030313233343536373839414243444546A1
:104D70000000000000F058F90544761C3078002847
:104D80007FF4ECAD19B02846BDE8F08F620700D47F
:104D9000062709F1070222F0070CFCE80223E1468E
:104DA00003F000485FEA080C02D00FF2702C0DE00F
:104DB0005FEA045C02D50FF2682C07E05FEAC47C6E
:104DC00002D00FF2602C01E0AFF2700C4FF0FF3810
:104DD00023F00043CDF850C065280CD006DC4528F0
:104DE00009D046281DD047283DD13DE0662818D07F
:104DF00067287ED138E00021112F01DB112000E06F
:104E0000781CCDE9000106A90EA8FFF7D5FCDDE965
:104E10000F010E9A03910021009207F1010A0491FB
:104E20004DE04FF000400097CDE9011006A90EA813
:104E3000FFF7C2FCDDE90F0203920E9B11990022DD
:104E4000DDF80CA00093049211B9791C00EB010A63
:104E5000B7EB0A0004D4C0F1FF3007F1010A049057
:104E6000AAEB0700019044E0012F00DA012700219E
:104E7000112F01DD112000E03846CDE9000106A91F
:104E80000EA8FFF799FCDDE90F010E9A03910021AE
:104E900004910092BA4621070CD40399514500DAD7
:104EA0008A46BAF1010F05DD009AAAF10101515CB1
:104EB000302908D0B84202DA10F1040F06DA0121D5
:104EC000CDE9011015E0AAF10101E9E7002805DCB0
:104ED000049901440491AAEB000102E0411C5145F0
:104EE00000DD8A460499401A401C01904FF00040B2
:104EF0000290200704D40198504501DBCDF80480CE
:104F000000208DF84F0002980DF14F07B0F1004FCF
:104F100025D02B200E9002984FF0020800280CDAC2
:104F2000404202902D200E9007E00A210298FBF7E4
:104F30000FFC3031029007F8011DB8F10001A8F113
:104F40000108F2DC02980028EFD1791E0E98087053
:104F5000307800F0200040F0450007F8020D12A85C
:104F6000C01B00F107081498007800B1012000EB85
:104F70000A01019801EBE07105984144401A401E76
:104F80000590E00306D45B462146179A059800F089
:104F90005DF805441498007818B15A46179990475F
:104FA0006D1CE00324D55B462146179A059800F056
:104FB0004DF805441CE00498002807DBDDE90301F7
:104FC000884203DD0098405C179901E01799302072
:104FD0005A469047049805F10105401C0490019839
:104FE000401E019004D12E205A46179990476D1CFF
:104FF000BAF10001AAF1010ADDDC05E017F8010BA6
:105000005A46179990476D1CB8F10001A8F10108A4
:10501000F4DC5B462146179A0598ABE62D000000AC
:105020002B000000200000002DE9F041044600257F
:105030001E461746880404D405E039462020B047B0
:105040006D1C641EF9D52846BDE8F0812DE9F041BC
:10505000044600251E469046C80301D5302700E0CF
:105060002027880404D505E041463846B0476D1C2A
:10507000641EF9D52846BDE8F0814A68002A06D0AA
:105080000A68531C0B6010704868401E48607047E7
:105090000A68531C0B601070704700002DE9F04D3A
:1050A0008D4F21F0004A86B005460C46BA452ADBF2
:1050B000AAEB070028430AD08848824501DC1AD1B0
:1050C000CDB106B02846BDE8F04DFFF746BB844A97
:1050D000844B2846FBF78DFA07460E46824A834BDF
:1050E00028462146FBF785FA06B03A463346BDE826
:1050F000F04DFBF7D7B90120FFF758FB06B0BDE82C
:10510000F04DFFF72FBB7A48824542DABAF1795F5A
:105110000BDA2846FFF7A4FA042808BFFFF728FB9C
:10512000284606B02146BDE8F08D2A460B461046BB
:10513000FBF75FFA834602466E480E460B46062191
:105140007844FFF7B5FA5A463346FBF752FA8046E1
:1051500069488A465A46334604217844FFF7A8FA3C
:105160005A463346FBF745FA00223B46FBF79AF9CD
:1051700002460B4640465146FBF784FC2A4623462E
:10518000FBF737FA06B02A462346BDE8F04DFBF799
:1051900089B9284624F0004100223D463B46FBF7F2
:1051A00025FA4FF0FF32FBF7DCFC06460246534877
:1051B0000F460B4606217844FFF77AFA32463B4603
:1051C000FBF717FACDE900014D4832463B46042172
:1051D0007844FFF76DFA32463B46FBF70AFA0022A5
:1051E0002B46FBF75FF9834602913046394603F0C0
:1051F00035F8804643480D46504517DCDDE900018F
:105200005A46029BFBF73EFC42462B46FBF7F1F960
:1052100042462B46FBF746F90122FBF7A2FC304A37
:10522000304BFBF7E0F9304A304B4CE04FF0000ACE
:1052300052460B464046FBF735F9CDE9031052467E
:105240002B4610461946FBF7D4F932463B46FBF78E
:10525000CDF9DDE90332FBF715FC06460F46DDE923
:1052600000015A46029BFBF70DFC83460091012288
:1052700030463946FBF775FC194A1A4BFBF7B6F96D
:1052800006460F46012240462946FBF76AFC5A466D
:10529000009BFBF7AEF932463B46FBF7A4F9064606
:1052A0000F46012250462946FBF75BFC0E4DDFF806
:1052B00058802A464346FBF799F932463B46FBF7AE
:1052C00095F92A464346FBF791F9002CD8BF81F0A7
:1052D000004106B0BDE8F08D0000F03F0000F07F17
:1052E000075C143326A6913C182D4454FB21F93F4A
:1052F0000000E03F2CF3020042F30200B6F202008D
:10530000CCF202003333EF3FFB21E93F2DE9F84FA8
:1053100004460D4621F0004000917349814211DCA2
:105320007249884201DC06D12CB120462946BDE8ED
:10533000F84FFFF712BA6E48002DCCBF6D496E4989
:10534000BDE8F88F6D49814211DD6D498142D8BFBA
:105350004FF0FF366DDD20462946FFF781F904281E
:1053600008BFFFF705FA20462946BDE8F88F6549D2
:10537000654F25F00045814233DD6449814219DDE6
:10538000002632464FF0804320462946FBF78AF834
:1053900080468A46012220462946FBF7E2FB00228E
:1053A0003B46FBF720F942465346FBF76BFB0446AE
:1053B0000D463EE001260022BA463B4620462946DD
:1053C000FBF770F880460F460022534620462946D8
:1053D000FBF709F942463B46FBF754FB04460D46F2
:1053E00027E04B4981421BDDDFF828A1022600227D
:1053F000534620462946FBF7FCF800223B46FBF7C4
:1054000051F880460F460022534620462946FBF7B6
:10541000EAF842463B46FBF735FB04460D4608E0FA
:10542000032622462B4600203B49FBF72BFB044674
:105430000D4622462B4610461946FBF7DAF88B46F6
:10544000824602460B46FBF7D4F80746024633482D
:1054500088460B4606217844FFF72AF952465B46F8
:10546000FBF7C7F882462E488B463A46434605214D
:105470007844FFF71DF93A464346FBF7BAF802466F
:105480000B46002E504659460CDAFBF70BF8224625
:105490002B46FBF7AEF801B022462B46BDE8F04F95
:1054A000FBF7A4B8FAF7FEFF22462B46FBF7A1F85C
:1054B0001C4A7A4402EBC603D3E90023FBF793F8B6
:1054C00022462B46FBF78FF8174A7A4402EBC603B5
:1054D000D3E90023FBF78AF8009A002AB8BF81F0CD
:1054E0000041BDE8F88F0000000010440000F07F8C
:1054F000182D4454FB21F93FFB21F9BF0000DC3F8C
:105500000000203E0000F33F0000F03F0000E63FB7
:10551000008003400000F83F0000F0BF56F1020099
:1055200014F10200B2F002007AF002002DE9F04D11
:105530009446CCF1000423F000464CEA0404524F98
:1055400046EAD4749A46884621F00042BC4206D806
:10555000454240EA050442EAD474BC4204D9BDE89D
:10556000F04D6246FFF7FCB8AAF14055A5F17F6502
:1055700055EA0C040BD0022404EAAA74434DDFF868
:1055800010E144EAD87452EA000B04D00CE0BDE804
:10559000F04DFFF7BBBE002C14BF012CBDE8F08D11
:1055A000022C30D0032C32D056EA0C0B0AD0BE426B
:1055B00020D1BA4209D126F0804622F080423346FB
:1055C000114617E000291ADB25E0DFF8C8B0FB44DC
:1055D000002C04BFDBE90001BDE8F08D012C02BF07
:1055E000DBE9000181F00041BDE8F08D022C0AD01A
:1055F000032C0CD0BA4212D1B8F1000F0BDA2348B9
:105600002549BDE8F08D28462449BDE8F08D28469F
:105610007146BDE8F08D1D482149BDE8F08D921B13
:1056200012153C2AC4BF19481D490EDCBAF1000FFF
:10563000BEBF12F13C0F0020014606DB6246FBF7BD
:1056400021FA21F00041FFF761FE002C08BFBDE800
:10565000F08D012C04BF81F00041BDE8F08D114AAE
:10566000114B022C07D0FAF7BEFF2A46BDE8F04DD9
:105670000A4BFAF7B8BFFAF7B6FF2A46BDE8F04D75
:10568000064BFAF7B3BF00000000F07F182D44541A
:10569000FB2109C00EF00200FB21F9BFFB210940EC
:1056A000FB21F93F075C143326A6A13C30B583B03B
:1056B0000446FFF765F805460020CDE900000246E4
:1056C00021466846FBF717F92846FFF76FF8DDE932
:1056D000000103B030BD000010B504460020207169
:1056E000401EE062204602F0A1FB08B1032010BD7D
:1056F000B4F82E02A0F52A41553901D0022010BD80
:1057000094F86600B4F8671040EA01210848B0EB4D
:10571000012F08D094F88210B4F8832041EA0221C6
:10572000B0EB012F01D1002010BD012010BD000001
:105730000046415400E0401C02780AB18A42FAD186
:10574000D0B270474269891E921E8A4201D8002059
:105750007047826A807801FB002070472DE9F05F76
:105760008246488B0E4670BB3078DFF8649000F0BC
:105770003F00401E00EB800101EBC004012000252A
:105780004FF6FF7B19F8051031440988884670B13F
:10579000FF2C18D2084601F0D3FA07463AF8140055
:1057A000641C01F0CDFA87420DD1404601E0D84596
:1057B00009D16D1C0D2DE5D33178490606D528B1E8
:1057C0003AF8140010B10020BDE8F09F0120FBE77B
:1057D0001A44030870B5ADF5816D014640F2FF3201
:1057E0006846FAF715FD00208DF8FF0305460DF514
:1057F000806216A1684620E000240DF2044214A144
:10580000FAF722FD134A05EB850102EB01160CE0C5
:10581000FFF74CFFFAF780FF46F824000DF2044230
:105820000BA10020641CFAF70FFD08B1142CEFDB6C
:105830000DF5806205A100206D1CFAF705FD00281A
:1058400001D0642DD8DB0DF5816D70BD0A0000001C
:105850002C000000203100202DE9F0410F0005460A
:1058600006D001F060FC022809D20120BDE8F081D9
:10587000EE6816B16869B04207D8012605E0411C00
:10588000F4D069698142F1D83E4634466869641CA7
:10589000A04202D80224022E0AD32146284601F053
:1058A00042FC38B1411CE1D00128DFD0B442EDD137
:1058B0000020DBE76FF070422146284602F03BFBF8
:1058C00030B957B122463946284602F034FB20B1A0
:1058D00001280DD001242046C8E7EC602869411C4E
:1058E000F9D0401E2861687940F001006871F2E744
:1058F0004FF0FF34EFE700002DE9F84F884682466D
:105900000F6800E07F1C38782F28FBD05C28F9D086
:105910000024DAF81C602546785D6D1C202827D30A
:105920002F2825D05C2823D0FF2C42D2A0F1810162
:105930007D290BD8795D6D1C01EB0020A1F140029F
:1059400080B23F2A02D380397F2932D2012101F06F
:10595000D1F95FEA00092CD0B9F1800F04D20146D9
:1059600071A0FFF7E7FE20BB26F81490641CD3E774
:105970007A19C8F80020202801D2042517E0002554
:1059800015E000BF06EB440030F8020C20280DD0D3
:105990002E280BD06CB1002026F814000B222021F9
:1059A000DAF8180002F03BFA002706E0641E002C2B
:1059B000E8D10620BDE8F88F7F1C36F817002028B4
:1059C000FAD02E28F8D01FB145F0030500E0641E80
:1059D0002CB106EB440030F8020C2E28F7D1002041
:1059E00081464FF0080B009036F8170007F10107C9
:1059F0005FEA000824D0B8F1200F04D0B8F12E0FD0
:105A000004D1A74202D045F00305EDE700995945BE
:105A100001D2A7421AD1BBF10B0F0FD0A74201D080
:105A200045F003050CD84FF0080000904FEA89605C
:105A300027464FF00B0B4FEA1069D5E745F00305F9
:105A4000DAF818000178E52949D04AE04046B8F173
:105A5000800F07D301F074F9002101F04BF9804663
:105A600045F00205B8F1FF0F13D90099ABF1010021
:105A7000814204D345F00305CDF800B0B4E7DAF86D
:105A8000182000984FEA182111540098401C0090EB
:105A90001CE0B8F1000F04D0014626A0FFF74AFE33
:105AA00020B14FF05F0845F003050FE0A8F1410079
:105AB000192802D849F0020908E0A8F16100192864
:105AC00004D8413049F001091FFA80F8DAF81820AB
:105AD000009902F801800098401C009084E705219D
