:020000040800F2
:10000000806E0020450100081B2E0008792700089B
:10001000192E0008271100081D43000800000000E9
:10002000000000000000000000000000C9390008C6
:10003000F9120008000000001D2E0008CB3900084E
:100040005F0100085F0100085F0100085F01000810
:100050005F0100085F0100085F0100085F01000800
:100060005F0100085F0100085F0100085F010008F0
:100070005F0100085F0100085F0100085F010008E0
:100080005F0100085F0100085F0100085F010008D0
:100090005F0100085F0100085F0100085F010008C0
:1000A0005F0100085F0100085F0100085F010008B0
:1000B0005F0100085F010008C13F00085F01000800
:1000C0005F0100085F0100085F0100085F01000890
:1000D0005F010008F14200085F0100085F010008AD
:1000E0005F0100085F0100085F0100085F01000870
:1000F0005F0100085F0100085F0100085F01000860
:100100005F0100085F0100085F0100085F0100084F
:100110005F0100085F0100085F0100085F0100083F
:100120005F0100085F0100085F0100085F0100082F
:10013000DFF80CD000F0E4FD004800470786000817
:10014000806E00200648804706480047FEE7FEE72D
:10015000FEE7FEE7FEE7FEE7FEE7FEE7FEE7FEE777
:100160002D3A000831010008202A04DB203A21FA48
:1001700002F00021704721FA02F3D040C2F12002C0
:1001800091400843194670470048704734500308AF
:1001900010B50446FFF7F8FF0068005D00F00100AD
:1001A00010BD40EA01039B0703D009E008C9121FF4
:1001B00008C0042AFAD203E011F8013B00F8013B21
:1001C000521EF9D27047D2B201E000F8012B491E4D
:1001D000FBD270470022F6E710B513460A460446E4
:1001E0001946FFF7F0FF204610BD421E12F8013FEE
:1001F000002BFBD111F8013B02F8013B002BF9D198
:10020000704710B5044604E00B7800F8013B03B1D9
:10021000491C521EF8D2204610BD421C10F8011B8A
:100220000029FBD1801A704710B5002200E0521C53
:10023000835C8C5CA34201D1002BF8D1D8B2E1B22F
:10024000401A10BD034611F8012B00F8012B002ABB
:10025000F9D118467047000070B500B91068002544
:1002600012E00B4602E0A64203D05B1C1C78002C77
:10027000F9D1E3B22B4305D02CB125B1002100F810
:10028000011B04E00546401C0678002EE9D11060F1
:10029000284670BD004ADFE7480300202DE9F047FB
:1002A00091460F4680460446002614F8015B2DB1A6
:1002B000FFF76AFF0068405DC007F6D12B2D02D022
:1002C0002D2D18D0641E4A463946204600F0DEFA2D
:1002D00027B13968A14201D1C7F8008071054FF0FC
:1002E00002040BD54042002803DD04F007FE046041
:1002F000A007BDE8F08746F48066E4E70028F8DA56
:1003000004F0FCFD04606FF00040F2E7F0B480EA16
:100310000102D40F4200B2EB410F02D2024608465E
:1003200011464A0042D0C30DDDB2C1F3C752AD1A27
:10033000202D35DAC1F3160141F4000204B1524216
:10034000C5F1200602FA06F12A411044B3EBD05F52
:1003500023D0C4B1012DA0EBC35009DCF0BC4FF099
:10036000004202EAC352DBB200F5000000F035BBE8
:10037000400000F1807000EBC350A0F1807040EAB3
:10038000D170490009E0490841EAC071A0EBC350AF
:1003900000F50000400800EBC350F0BC00F014BBB7
:1003A0006142012202EB4101001BF6E7F0BC7047FD
:1003B00081F00041AAE780F00040A7E780EA01024F
:1003C00010B502F00043400022D04A001FD0010EB9
:1003D00001EB1261C0F35600C2F3560240F4000074
:1003E00042F40002A0FB022000047F39140400D074
:1003F000401C50EA124001D44000491EC2B20C0613
:1004000004EBD010401C4008802A02D003E00020FA
:1004100010BD20F00100002900DA0020184310BDB3
:1004200030B480EA010202F0004530F0004221F0D1
:10043000004013D090B1C30DD40DC2F31601C0F328
:100440001600E41A41F4000140F400027D349142A8
:1004500001D3641C00E04900002C02DA30BC00200B
:1004600070474FF400000023914201D3891A0343DF
:1004700040084FEA4101F7D151B1914202D14FF00A
:10048000004105E002D24FF0010101E06FF00101EF
:1004900003EBC450284430BC00F096BA420005D0AB
:1004A000C0F3C7525242914201DC0020704700EB7A
:1004B000C15070472DE9FE4F804681EA0300C00F0E
:1004C0000C46009021F0004123F00045B8EB0200FB
:1004D000A94105D24046214690461C460B4602469D
:1004E00023F00040104347D0270DC7F30A00C3F3A1
:1004F0000A510290401A019040286BDAC3F31300AE
:1005000040F4801B0098924620B10023D2EB030AEE
:1005100063EB0B0B01985946C0F14002504600F0C6
:1005200094F906460D4650465946019A00F09CF94A
:1005300010EB08006141002487EA115284EAE77356
:100540001A4340D0009A62B3019A012A4FEA075237
:1005500015DC001B61EB02014FF0004202EA07527A
:10056000CDE90042001C41F5801132462B4600F0D7
:1005700071FA03B0BDE8F08F40462146F9E7001B51
:1005800061EB0201001C41F5801300185B4120184B
:10059000A2F5001747EB030140EAD570B6196D418B
:1005A00011E06D084FEA360645EAC0754FEA07527A
:1005B000001B61EB0201001C41F5801149084FEA64
:1005C00030000019514132462B4603B0BDE8F04FD0
:1005D00000F031BA0098012240000023D0EB020263
:1005E00063EBE073009821464FEAE074B8EB00003B
:1005F00061EB0401E9E783F000435BE781F0004130
:1006000058E72DE9FE4F81EA030404F0004421F08D
:10061000004100944FF0000B23F0004350EA010426
:100620005ED052EA03045BD0C3F30A54C1F30A5507
:100630002C44A4F2F3340194A0FB0254C1F313013F
:1006400041F48011C3F3130343F4801301FB02440C
:1006500000FB034E840A970A44EA815447EA835711
:10066000A4FB076802958D0A05FB07854FEA932CCA
:1006700004FB0C542705029D4FEA065847EA16373B
:10068000B5EB08056EEB070C870E920E47EA811753
:1006900042EA8312A7FB0201B6EB0B0164EB0004F4
:1006A0002B0D43EA0C335E1844EB1C50DA465146DE
:1006B000E7FB0201C5F313044FEA0B3343EA14537B
:1006C0004FEA0432019C43EA0603A4F10C040294AD
:1006D000009CCDE900B400F0BDF903B0BDE8F08F97
:1006E00000200146F9E7C10F80EAE0700844CA071C
:1006F0009623002100F071B996230022114600F0E4
:100700006CB900F0004220F00040C10DC0F31600AB
:1007100040F400007F2901DA00207047962903DCAD
:10072000C1F19601C84001E096398840002AF4D012
:100730004042704700F0004230F000400AD0C10D46
:1007400001F56071C0F3160042EA0151C20840078A
:100750001143704700200146704701F0004330B458
:1007600021F0004150EA010206D00A0DA2F56072A4
:10077000C1F31301002A02DC30BC00207047440F93
:1007800044EAC104C100E01830BC00EBC25000F0E4
:100790001BB90000002801DBC0F10040002901DB8B
:1007A000C1F1004181427047002801DBC0F10040E7
:1007B000002901DBC1F100418842704730B50B468A
:1007C000014600202022012409E021FA02F59D4281
:1007D00005D303FA02F5491B04FA02F52844151E55
:1007E000A2F10102F1DC30BD2DE9F05F05460020E9
:1007F00092469B4688460646814640241BE0284692
:10080000414647462246FFF7AFFC53465A46C01AB8
:10081000914110D311461846224600F016F82D1AC1
:1008200067EB01084F4622460120002100F00DF839
:1008300017EB00094E41201EA4F10104DFDC4846FD
:1008400031462A464346BDE8F09F202A04DB203A81
:1008500000FA02F1002070479140C2F1200320FA13
:1008600003F3194390407047202A06DBCB17203A48
:1008700041FA02F043EAE07306E041FA02F3D040A5
:10088000C2F1200291400843194670472DE9F05FFC
:1008900082460078002715468B460AF10104B946C6
:1008A000302801D09DB113E014F8010B01277828FE
:1008B00003D0582801D045B10AE00DB1102D07D161
:1008C0000027102514F8010B02E0082500E00A2596
:1008D0000026B0460EE005FB080005FB06F10127E7
:1008E00001EB10461FFA80F8B6F5803F00D3B946F9
:1008F00014F8010B294600F015FA0028EBDABBF1D9
:10090000000F05D00FB1641E00E05446CBF8004044
:10091000B9F1000F06D004F0F1FA02210160C81EFF
:10092000BDE8F09F48EA0640FAE700000FB4002354
:1009300000B589B00CA900910B996FF00042CB6013
:100940001E4B06931E4B07930423CDE901321D4A2B
:10095000089202466B46002000F072FA09B05DF87A
:1009600014FB70B586B006464FF0FF300091CDE91C
:100970000101002015460C4604903246694604A841
:10098000FFF7D4FF02460498211825B108B10846A4
:1009900000E020462860049800280DD0002A02DDDF
:1009A0000098884208D0081B0094CDE90104324623
:1009B000694604A8FFF7BAFF06B070BD79100008B9
:1009C00097100008910100080029A8BF7047401C3B
:1009D000490008BF20F00100704710B4B0FA80FC55
:1009E00000FA0CF050EA010404BF10BC704749B192
:1009F000CCF1200421FA04F411FA0CF118BF012102
:100A000021430843A3EB0C01CB1D4FEA00614FEAE1
:100A1000102042BF002010BC704700EBC3501044B0
:100A20000029A4BF10BC7047401C490008BF20F03B
:100A3000010010BC704710B5141E73F1000408DAF1
:100A4000401C41F1000192185B411A4301D120F092
:100A5000010010BD2DE9F04D92469B4611B1B1FA4F
:100A600081F202E0B0FA80F220329046FFF7EDFE0C
:100A700004460F4640EA0A0041EA0B0153465A4633
:100A8000084313D0114653EA010019D0C8F14002BF
:100A90005046FFF769FB05460E465046594642460A
:100AA000FFF7D3FE084305D0012004E02046394675
:100AB000BDE8F08D0020054346EAE0762C4337433D
:100AC0000A986305E40AA0EB08000022FD0A44EA44
:100AD00047540A3002D500200146E9E70105101904
:100AE0006941DDE9084500196941BDE8F04DA2E71B
:100AF0002DE9F04D81EA030404F0004B21F000459C
:100B000014464FF0000A23F0004150EA050220D0BD
:100B100054EA01021DD0C5F30A570246C5F3130378
:100B2000C1F31300C1F30A5640F4801543F4801357
:100B3000A7EB0608101BD64608F2FD3873EB05003C
:100B400002D308F1010801E092185B41B8F1000FEF
:100B500003DA00200146BDE8F08D00204FF480113B
:100B6000064684460EE0171B73EB050705D3121BE0
:100B700063EB050306434CEA010C49084FEA3000D9
:100B800092185B4150EA0107EDD152EA030012D0FE
:100B900082EA040083EA0501084305D0101BAB413B
:100BA00006D20122002306E000224FF0004302E0BB
:100BB0006FF0010253101AEB06004CEB085110EBDA
:100BC0000A0041EB0B01BDE8F04DFFF734BF70B5F3
:100BD00021F0004303430CD0C1F30A550024D5EBA8
:100BE000040564EB0403D617AD1AB34102DB002001
:100BF000014670BD201841EB025170BD2DE9F04D4A
:100C000000231A461B1A8A4103DB00200146BDE877
:100C1000F08DC1F30A52C1F3130141F480154FF076
:100C2000000BD10702D100186D41521E0027044667
:100C300040F2FF11384601EB620A3E46804602460A
:100C400000204FF48011FFF78FFAC2197141BB18D1
:100C500046EB0100B4EB030C75EB000C04D3E41A73
:100C600065EB000517460E46241908F101006D4199
:100C700080463428E3DDF91946EB0600091BA8413C
:100C800003D24FF0FF32134601E0002213461BEB64
:100C9000070046EB0A51BDE8F04DFFF7CCBEC1F3AB
:100CA0000A52C1F3130140F2FF3341F480119A421A
:100CB00002DA00200146704740F233439A42A2F222
:100CC000334202DC5242FFF74FBAFFF7BEBD0000CD
:100CD00030B5041E71F1000404DB4FF000444042C3
:100CE00064EB0101141E73F1000405DB1C464FF098
:100CF0000043524263EB0403994208BF904230BD67
:100D0000064C074D06E0E06840F0010394E8070058
:100D100098471034AC42F6D3FFF70EFAE8570308B1
:100D2000085803083A2800D2303820F02002412A1F
:100D300001D3A2F13700884201D34FF0FF30704752
:100D40002DE9FF4F087881B09946FF2805D0491C4E
:100D50002D2804D00024002308E000230BE0012408
:100D6000F9E703EB830300EB4303491C0878FF28F2
:100D7000F7D104B15B4200200090147801462D2C7D
:100D800001D02B2C04D1521C2D2C12D00024009405
:100D900000251678FF2E0ED00A24A0FB04C801FB04
:100DA0000481002700FB0711521C16EB0C0069415F
:100DB000EFE70124EBE7994450EA01020ED000244A
:100DC000AA4D2646DFF8A88200F076F982468B46C7
:100DD000B9F1000009DAC9F100071BE00198002110
:100DE000C0E9001105B0BDE8F08F074612E0F80732
:100DF00007D022462B4630464146FFF702FC064606
:100E0000884622462B4610461946FFF7FAFB044651
:100E10000D467F10002FEAD1B9F1000F324643464C
:100E20005046594602DAFFF763FE01E0FFF7E9FB9F
:100E3000009A0AB181F00041019AC2E90001D1E7AC
:100E40002DE9FF4F1F468DB0D7E901464FF0FF381F
:100E50002E2045464FF000090B90B9696D1C0E9885
:100E60008847396A824688470028F6D1BAF1FF3FA1
:100E70000AD024F4D064002E11DDBAF12B0F08D073
:100E8000BAF12D0F0BD102E0404611B0ABE744F4AC
:100E90008064B9696D1C0E9888478246761E694643
:100EA000600501D52D2000E02B208DF8000001F118
:100EB000010B0DF1200809E0B9696D1C0E988847F7
:100EC00082460F9844F40074761E0560002E02DD01
:100ED000BAF1300FF0D00B998A453ED144F080042E
:100EE00006E00F99681CA9F1010944F40074086038
:100EF000B9696D1C761E0E98884782463028F0D05E
:100F00002BE00B998A4505D1200603D444F08004D8
:100F1000761E18E0504604F03BF908B30DF11301BA
:100F2000761E44F400748B4508D2AAF130000BF809
:100F3000010B200607D5A9F1010003E0200602D429
:100F400009F101008146A00502D50F99681C0860CF
:100F5000B9696D1C0E9888478246002ED1DC53E09B
:100F6000002E51DDBAF1650F02D0BAF1450F4BD119
:100F7000A00549D5B9696D1C24F44074761E0E98FD
:100F800088478246002E0CDD2B2804D0BAF12D0FA5
:100F900007D144F48074B9696D1C0E988847824665
:100FA000761EE00501D52D2100E02B2108F8011B5C
:100FB000CDF82C8021E00DF12901761E44F4007457
:100FC00088450CD2AAF1300010F0FF0088F800002C
:100FD00002D10B99884509D908F1010806E0E0051E
:100FE00001D5244801E042F20F708146B9696D1CB9
:100FF0000E98884782460F980560002E04DD504603
:1010000004F0C6F80028D6D1F9690E988847FF2069
:101010008BF8000088F800000020069007904B46EF
:101020006A4608A906A8FFF78BFEA00502D46FF058
:1010300001002AE714F0240F0AD0E00714D1DDE9FB
:1010400006123868031D3B600068C0E900120BE01F
:10105000DDE90601FFF781FB0146E00704D13868AE
:10106000021D3A600068016028460EE70000244037
:101070000000F03FF1D8FFFF426842B1016811F86B
:10108000013B23B1521EC0E90012184670470121EE
:10109000C160881E704742685AB1C368016843B98D
:1010A00083688B4205D0491E521CC0E90012002003
:1010B00070474FF0FF3070470EB540F23342029256
:1010C0000022CDE900221346FFF7C4FC03B000BDA7
:1010D00070B58C1810F8015B15F0070301D110F8FA
:1010E000013B2A1106D110F8012B03E010F8016B27
:1010F00001F8016B5B1EF9D12B0705D40023521EAA
:101100000DD401F8013BFAE710F8013BCB1A921C11
:1011100003E013F8015B01F8015B521EF9D5A1420F
:10112000D8D3002070BDFEE710B5B8B002F0D2FFF2
:1011300001F075FE01F077FD20221A491AA8FFF789
:1011400030F818493622203122A8FFF72AF8154C2A
:10115000B4F85600ADF8BE0054F8580F3090A0888F
:10116000ADF8C400E088ADF8C6000E491122603128
:1011700032A8FFF716F8607E8DF8D900E069379045
:1011800068221EA96846FFF70CF81AAC94E80F0015
:1011900002F0A1F901F0C3FD38B00120BDE8104014
:1011A00000F01EBA80000020FFF7BEFF00F000F83C
:1011B00006A003F043FE08A003F040FE002000F06C
:1011C0009BF900BF07F0FAFAFCE70000C6F4B6AFDF
:1011D000B3C9B9A6210D0A00D2B0BBF02D463130FB
:1011E000332DC3D4C4E30D0A00000000F0B5064659
:1011F0002F48A1B00D4602682EA11BA803F046FEA1
:101200000527642102A8FEF7E5FF29462CA003F07C
:1012100015FE00E054B93068FFF78CFACDE9000103
:101220002AA2642102A803F019FE012456F8240022
:10123000FFF780FACDE9000102AB26A2642118462F
:1012400003F00CFE641CBC42E4DB1DB10220772DD0
:101250000AD00AE00320002300901A461FA11BA811
:1012600000F0F2FA022000E00120002300905A1E54
:1012700002A91BA800F0E8FA772D17D101211BA8BD
:1012800000F026FA07F00AFC07F048F9002002F007
:101290001BFD02F081FE012002F016FD02F0EAFBC8
:1012A00002F032FC02F078FE01F0F8FD21B0F0BD52
:1012B00080010020313A2F25642E637376000000F0
:1012C000D0B4C8EB3A202533640D0A000D0A256618
:1012D0000000000025732C2566000000696E64651F
:1012E000782C726F6C6C2C70697463682C796177E0
:1012F0002C646174650000007047000010B5002187
:1013000000F0E6F9114804F08FFE114CD4F84811B2
:1013100054F8F80FFEF7FAFFFFF70CFA02460B46F7
:101320000CA003F08BFD2068FFF704FA02460B4681
:101330000FA003F083FD206DFFF7FCF90246BDE826
:1013400010400B460EA003F079BD0000683F00205E
:10135000684100200D0A5B335D5B325D202B205B12
:10136000345D5B325D203D2025660D0A00000000E3
:101370000D0A5B335D5B325D203D2025660D0A0062
:101380000D0A5B345D5B325D203D2025660D0A0051
:1013900010B5044601220BA1002005F095FC0A4976
:1013A000087040B109A003F049FD002C08D00EA040
:1013B00003F044FDFEE7BDE8104011A003F03EBD80
:1013C00010BD0000313A00007C0100206661696CAC
:1013D00020746F20756E6D6F756E74206661746613
:1013E000732E0D0A000000006E6F7720697420696B
:1013F00073207061757365642E2E2E0D0A00000037
:101400007375636365656420746F20756E6D6F75A9
:101410006E742066617466732E0D0A0070B5064600
:1014200014460D46114805F09DFB314610A003F00F
:1014300005FD304605F06AFF13490870314638B1A2
:1014400012A003F0FBFC64B116A003F0F7FCFEE76A
:101450001AA003F0F3FC25B11FA003F0EFFC00F08D
:10146000D7F9BDE87040014805F07CBBE02E0020B4
:1014700074727920746F2064656C657465205B25D7
:10148000735D2E0D0A0000007C0100206661696C0E
:1014900020746F20665F756E6C696E6B205B2573C0
:1014A0005D0D0A006E6F772069742069732070618A
:1014B000757365642E2E2E0D0A000000737563632C
:1014C00065656420746F2064656C657465205B25B8
:1014D000735D2E0D0A0000006E6F77207363616EDE
:1014E0002066696C657320746F20636865636B2088
:1014F0002D3E0D0A00000000F0B50746002589B01A
:10150000294620A000F0E4F842F21176002809DD17
:10151000142201A91BA006F0F5FA314601A806F035
:10152000D5FFC5B21B4C002F28D028004FF0000774
:101530004FF0FF3510D00A22002101A8FEF7AEFEC1
:10154000401C0246606014A106A803F09FFC002323
:101550002A4606A9009704E0666001232A4610A1E6
:10156000009708A000F070F90FA0616803F066FC16
:101570006068FFF7B8F8E06009B0F0BD01A911A0FC
:10158000F4E70000313A2F6D795F696E6465782E5B
:10159000637376007C0100200D0A256400000000C2
:1015A0000D0A3130303031005B46415446535F49BB
:1015B0006E6465785F43757272656E743A20256457
:1015C0005D0D0A005B46415446535F496E64657881
:1015D0005F43757272656E743A2025735D0D0A0063
:1015E00010B5044601220BA10B4805F06DFB0B4919
:1015F000087040B10AA003F021FC002C08D00EA016
:1016000003F01CFCFEE7BDE8104011A003F016BC7F
:1016100010BD0000313A0000B01E00207C01002007
:101620006661696C20746F206D6F756E74206661E1
:101630007466732E0D0A00006E6F7720697420693E
:1016400073207061757365642E2E2E0D0A000000E4
:101650007375636365656420746F206D6F756E7458
:101660002066617466732E0D0A00000000B587B015
:101670000020FFF7B5FF00F0CBF818220CA101A85D
:10168000FEF78FFD0022012101A8FFF7C7FE01210F
:1016900001A800F01DF80020421E009001230AA1BD
:1016A00001A800F0D1F80020FFF772FE07B000BDDE
:1016B000313A2F546573744469722F74657374667C
:1016C000696C652E747874000D0A31303030310049
:1016D0002DE9F0410E460746014613221E4805F04B
:1016E00019FB1E4C021E207002D039461CA00FE0D0
:1016F00019483946C56824A02A4603F09FFB0021FB
:10170000154805F03DFA2070021E04D0394623A08A
:1017100003F094FB1AE04FF400712A48FEF75AFDDB
:101720000E4B2A46083327490B4805F0C0FC2070B1
:1017300020B1394624A003F081FB07E036B12149EE
:1017400027A003F07BFB30A003F078FB024805F0F4
:1017500009FA2846BDE8F081E02E00207C01002037
:101760006661696C20746F20665F6F70656E205BC8
:1017700025735D2C20726573756C74206973205B12
:1017800025645D2E0D0A00005B25735D2073697A68
:10179000653A2025642E0D0A000000006661696C20
:1017A00020746F20665F6C7365656B205B25735DCD
:1017B0002C20726573756C74206973205B25645DE1
:1017C0002E0D0A00683F00206661696C20746F204E
:1017D000665F72656164205B25735D0D0A00000021
:1017E00066696C6520636F6E74656E7420617265E6
:1017F00020617320666F6C6C6F773A200D0A3E3E55
:101800003E0D0A25730000000D0A3C3C3C0D0A0009
:1018100010B506A003F012FB09A10A48FEF712FD5D
:10182000BDE81040074807F0CBB800007363616E55
:10183000696E672066696C65732E2E2E0D0A000096
:10184000313A0000043F00202DE9FF410A9D1F4668
:1018500016468846012D11D0022D0FD0032D02D03F
:10186000264805F07FF913222448009905F052FA22
:10187000234C207060B1694622A029E01F4805F082
:1018800021FB012D02D11D4805F06CF9BDE8FF8157
:10189000B6F1FF3F05DA1320207020A003F0CEFA46
:1018A00006E0701C09D03146144805F069F9207033
:1018B000207828B1694622A00AE01048C168F3E701
:1018C00041460E4805F0FEFA207820B1694622A074
:1018D00003F0B4FAD7E7032DD8D0084805F042F951
:1018E00023A003F0ABFA002FCDD026A003F0A6FA78
:1018F00001210098FFF7ECFEC5E70000E02E002074
:101900007C0100206661696C20746F20665F6F70D7
:10191000656E205B25735D0D0A000000746865200C
:10192000777269746520706F736974696F6E20696E
:101930007320696E76616C69642E0D0A00000000E8
:101940006661696C20746F20665F6C7365656B20DF
:101950005B25735D0D0A00006661696C20746F2061
:10196000665F7072696E7466205B25735D0D0A0098
:101970007772697465206973207375636365656444
:101980002E0D0A006E6F77207265616420697420E5
:101990002D3E0D0A000000002DE9F05F90F82110A7
:1019A0000024022903D004218163012485E0016819
:1019B0000A6822F00E020A6001680A6822F0010239
:1019C0000A603F4E3E4FB215DFF8F4C0DFF8F090EA
:1019D000DFF8ECA0DFF8E8B0DFF8E4E00168783F7A
:1019E00013011502ACF1640CA9F15009AAF13C0AEB
:1019F000ABF1280BAEF1140E4FF48018B14227D989
:101A0000B9420ED0614512D049451DD0514518D07C
:101A1000594518D0714501D1424615E0294EB142D1
:101A200001D1012210E0274E1436B14201D110221B
:101A30000AE0244E2836B14206D0224A3C32914276
:101A400001D11A4600E02A461E49091F0A602BE010
:101A5000B94213D0614517D0494522D051451DD018
:101A600059451DD0714501D142461AE0B14202D11B
:101A70004FF0807215E0134EB14201D1012210E007
:101A8000104E1436B14201D110220AE00D4E283614
:101A9000B14206D00B4A3C32914201D11A4600E0D5
:101AA0002A46074980394A60012180F82110002127
:101AB00080F82010416B01B188472046BDE8F09FB7
:101AC00080000240080402402DE9F84FDFF8C89179
:101AD000002409F1040A0AF1040B23460F270BF135
:101AE000040ED1E00125A54006EA0502AA4276D1FE
:101AF000DFF8A8C14E68A6EB0C0866452BD00DDCBC
:101B0000032E34D005DC36B3012E19D0022E2FD18E
:101B10001BE0112E16D0122E2AD119E0B8F5881F1D
:101B200019D006DCB8F5803F15D0B8F5801F1FD15D
:101B300011E0B8F5001F0ED0B8F5041F18D10AE067
:101B4000CB6815E0CB681B1D12E0CB6808330FE0B3
:101B5000CB680C330CE08B682BB1012B4FF00803E2
:101B600003D0456104E0042302E0056100E00023A6
:101B7000FF2A01D8064601E000F104064FEA840579
:101B800001D9A5F12005D6F8008007FA05FC28EA5E
:101B90000C0803FA05F548EA0508C6F800804D6808
:101BA000ED0070D53E4DAE6946F00106AE61AD69FF
:101BB00024F0030605F0010500953A4D06EB050CEF
:101BC000DCF80850A607360F07FA06F825EA0805DC
:101BD000DFF8D480404503D14FF0000825E052E003
:101BE000DFF8C880404502D14FF001081DE0DFF862
:101BF000C080404502D14FF0020816E0DFF8B48003
:101C0000404502D14FF003080FE0DFF8AC804045BB
:101C100002D14FF0040808E0DFF8A080404502D16F
:101C20004FF0050801E04FF0060808FA06F848EA08
:101C30000508CCF808804D68D9F80060ED034D46E2
:101C400001D5164300E096432E604D68DAF8006037
:101C5000AD03554601D5164300E096432E604D680E
:101C6000DBF80060ED025D4601D5164300E09643C7
:101C70002E604D68DEF80060AD02754601D5164352
:101C800000E096432E60641C0A681646E2407FF42A
:101C900029AFBDE8F88F00000004014000001110DA
:101CA000001002400000014000080140000C01400B
:101CB000001001400014014000180140001C0140C8
:101CC0008068084000D0012070470AB10161704768
:101CD0000904FBE701488068704700000400002009
:101CE0000248816802781144816070470400002036
:101CF000074810B5016841F010010160032000F0B1
:101D000079F8032000F006F800F024F8002010BD58
:101D10000020024070B50D4D04464FF47A712878CA
:101D2000B1FBF0F00A490968B1FBF0F000F084FB68
:101D300048B9102C07D200222146501E00F03AF874
:101D400000206C6070BD012070BD00000400002008
:101D5000000000200E4808B5816941F00101816151
:101D6000816901F001010091C16941F08051C161B7
:101D7000C06900F080500090052000F03BF8054855
:101D8000416821F0E06141F00071416008BD000050
:101D90000010024000000140002809DB00F01F0293
:101DA000012191404009800000F1E020C0F80011BD
:101DB00070470000F0B40E4B1B680C46C3F30223BF
:101DC000C3F10705042D00D90425191D072901D2E7
:101DD000002300E0DB1E012606FA05F1491E214022
:101DE00099409E40761E16403143F0BC03F076B811
:101DF0000CED00E0064900F0070208684FF6FF030B
:101E0000184040EA0220034A10430860704700006F
:101E10000CED00E00000FA05BFF34F8F05480168A4
:101E2000054A01F4E06111430160BFF34F8F00BF29
:101E3000FDE700000CED00E00400FA052DE9F04795
:101E40000F46050061D0434E306800F00700B842ED
:101E500009D2306820F0070038433060306800F065
:101E60000700B84251D128683B4C810712D5400782
:101E700003D5606840F4E06060602878000703D50F
:101E8000606840F4605060606068A96820F0F0000D
:101E9000084360602878C00728D06868012810D0FF
:101EA0002168022810D0890700292EDA616821F004
:101EB000030101436160FFF70DFF804641F288395D
:101EC0000DE021688903EFE78901EDE7FFF702FFE5
:101ED000A0EB0801494502D90320BDE8F0876068FE
:101EE000696800F00C00B0EB810FEFD1306800F0B2
:101EF0000700B8420BD9306820F007003843306043
:101F0000306800F00700B84201D00120E5E72878EA
:101F1000400705D56068E96820F4E0600843606028
:101F20002878000706D56068296920F4605040EAE7
:101F3000C100606000F038F86168084AC1F303111D
:101F4000515CC8400649086006480068FFF7E2FE99
:101F50000020C2E70020024000100240349E00082A
:101F60000000002008000020044805490068496876
:101F7000044AC1F30221515CC840704700000020B0
:101F800000100240449E0008044805490068496862
:101F9000044AC1F3C221515CC840704700000020D0
:101FA00000100240449E000812A185B00FC98DE8C0
:101FB0000F0014A0144A006804905168134801F0FF
:101FC0000C03042B10D0082B0ED1C1F38343C9039B
:101FD0001DF803000AD5516804AAC1F34041515CC1
:101FE0000A4A5043B0FBF1F005B070470849484336
:101FF000FAE7000002030405060708090A0B0C0DA6
:102000000E0F1010010200000010024000127A00B2
:1020100000093D002DE9F84F040070D02078C04D34
:10202000C00749D06868C0F38100012807D06868FC
:10203000C0F38100022809D16868C00306D528686A
:10204000800339D560680028E7D035E06068B0F5D6
:10205000803F0BD010B1B0F5A02F11D0286820F42C
:1020600080302860286820F4802002E0286840F44E
:1020700080302860606890B1FFF72CFE06460AE0C9
:10208000286840F480202860F0E700BFFFF722FEB8
:10209000801B642873D828688003F7D50CE0FFF70D
:1020A00019FE064605E000BFFFF714FE801B6428FA
:1020B000F0D828688003F7D420789A4E80074FF034
:1020C00001094FF0000839D5686810F00C0F07D0EF
:1020D0006868C0F38100022809D16868C00306D48B
:1020E0002868800714D52069012808D110E02069EC
:1020F000B0B1C6F80090FFF7EDFD074605E00AE134
:10210000FFF7E8FDC01B0228C4D828688007F7D570
:102110002868616920F0F80040EAC10028600DE0FD
:10212000C6F80080FFF7D6FD074604E0FFF7D2FDB2
:10213000C01B022823D828688007F7D4207800071E
:102140002CD57948A169D9B1C0F80090FFF7C2FD3C
:10215000074604E0FFF7BEFDC01B02280FD8686ADF
:102160008007F7D571484FF4FA510068B0FBF1F0E1
:10217000009000BF0098411E0091FAD20EE080E06E
:10218000C0F80080FFF7A6FD074604E0FFF7A2FDB8
:10219000C01B022875D8686A8007F7D420784007EA
:1021A00060D5E8690027C00008D4E86940F0805095
:1021B000E861E869012700F0805000905C48016800
:1021C000C90513D40168834641F480710160FFF7AB
:1021D00081FD824606E000BFFFF77CFDA0EB0A0010
:1021E00064284ED8DBF80000C005F5D5E06801286A
:1021F0000AD008B1052813D0286A20F0010028620F
:10220000286A20F0040002E0286A40F001002862F9
:10221000E06841F2883B98B1FFF75CFD82460BE035
:10222000286A40F004002862EEE700BFFFF752FD85
:10223000A0EB0A0159455AD8286A8007F6D50CE068
:10224000FFF748FD824605E0FFF744FDA0EB0A01D9
:1022500059454CD8286A8007F6D41FB1E86920F0A8
:102260008050E861E06988B36968C1F3810102299F
:1022700044D00228C6F8608004D0FFF72BFD044646
:1022800038E034E0FFF726FD074604E0FFF722FDC3
:10229000C01B02282BD828688001F7D4206AB0F52B
:1022A000803F05D16868A16820F400300843686069
:1022B000D4E908010843696821F47411084368608F
:1022C000C6F86090FFF706FD044606E025E000BF73
:1022D000FFF700FD001B022809D828688001F7D508
:1022E0001BE000BFFFF7F6FC001B022802D9032009
:1022F000BDE8F88F28688001F4D40EE00128F7D0FB
:102300006868226A00F48031914204D1616A00F465
:102310007010884201D00120EAE70020E8E70000C1
:1023200000100240000042428004424200000020AF
:102330000070004070B5040005D00025A56294F837
:10234000510010B106E0012070BD84F850502046C5
:1023500000F02EF8022084F851002068016821F076
:1023600040010160D4E901010843D4E9031211439B
:10237000084361690843218B01F400710843E16956
:102380000843216A0843A16A084321680860A069DC
:10239000042101EA1040216848602068C16921F4E5
:1023A0000061C1616565012084F85100002070BDA5
:1023B00030B585B000240094019402940394006821
:1023C0001449884223D11448816941F480518161C4
:1023D000816901F480510491816941F004018161B6
:1023E00080690E4D00F004000490A02000900220AF
:1023F00001900320039069462846FFF765FB4020C3
:10240000CDE90004694628460294FFF75DFB05B05C
:1024100030BD0000003001400010024000080140C3
:102420004FF0E0210428086903D020F0040008617F
:10243000704740F00400FAE710B5401EB0F1807F0D
:1024400001D3012010BD4FF0E02460610F2160171F
:1024500002F044FD0020A06107202061002010BD93
:1024600010B5040003D094F83D0010B107E001203E
:1024700010BD002084F83C00204600F00CF802203B
:1024800084F83D00211D206801F0B4FD012084F88E
:102490003D00002010BD70470168CA6842F001028B
:1024A000CA600068816801F00701062903D001684D
:1024B00041F00101016000207047704710F8391F9A
:1024C000407808437047000070B502680446106801
:1024D000D168536910F00F0F51D003F0010501F4DA
:1024E000907635435DD0C20705D0CA0503D5E26BAF
:1024F00042F00102E263420705D5DA0703D0E26B3E
:1025000042F00202E263820705D5DA0703D0E26BEC
:1025100042F00402E263020705D5DA0703D0E26B5A
:1025200042F00802E263E26B002A34D0800604D550
:10253000880602D5204601F001FE20684069E16B63
:10254000C0F3801001F008010143204624D001F0BF
:10255000E7FD2068416949061AD5416921F040012B
:102560004161606BA0B11B494163606BFFF714FAD6
:10257000002810D0606B416BBDE8704008478306AF
:102580000FD58B060DD52046BDE8704001F0D6BDB5
:102590002046FFF792FF70BDFFF78FFF0020E0633A
:1025A00070BD030606D50B0604D52046BDE8704075
:1025B00001F06CBE4006F3D54806F1D5D16820463F
:1025C00021F04001D160202184F8391000F0D2F8C8
:1025D00070BD00001141000870B5040004D094F8EB
:1025E0003900002510B106E0012070BD84F8385094
:1025F000204600F023F8242084F839002068C168C0
:1026000021F40051C160204601F0E4FD2068016919
:1026100021F4904101612068416921F02A01416162
:102620002068C16841F40051C160E563202084F84E
:10263000390084F83A00002070BD000010B5006831
:102640001E4986B0884236D11D48816941F0040197
:102650008161816901F004010491816941F4804143
:102660008161816901F480410491816941F0010136
:1026700081618069134C00F0010004904FF40070F8
:1026800000900220019001200290032003906946EF
:102690002046FFF719FA20150090002001906946A6
:1026A0002046FFF711FA2520FFF776FB032211469B
:1026B0002520FFF77FFB06B010BD00000038014069
:1026C000001002400008014090F83A30202B22D13F
:1026D000F9B1F2B190F83830012B1CD081628285BB
:1026E000C2850021C163222280F83A2080F8381088
:1026F0000168CA6842F48072CA6001684A6942F09F
:1027000001024A610068C16841F02001C1600020F7
:1027100070470120704702207047000030B5006804
:10272000114988420CD1114841880A0408D4024654
:102730004C0412784FF0000306D50A2A01D04380DA
:1027400030BD41F400410DE00D2A09D0C1F30D0464
:10275000074D491C89B22A554180C729EFD830BDA1
:1027600041F48041418030BD00380140900100209B
:10277000A86000207047000000B5ADF2844D0AA0AB
:1027800002F05CFB11A002F059FB40F284421349B5
:102790006846FDF706FD684602F050FBFFF73CFB7C
:1027A0000DF2844D00BD0000486172644661756C95
:1027B000745F48616E646C65723A20D3B2BCFEB43B
:1027C000EDCEF3C0B12E0D0A00000000B3A2CAD4B2
:1027D000D6D8C6F42E2E2E0D0A000000D8500308BD
:1027E0001CB5CDE9000102480FC800F021F81CBD5E
:1027F0001C0000200EB58DE8070002480FC800F04D
:1028000062F80EBD1C0000201CB5CDE90001024895
:102810000FC800F00DF81CBD2C0000200EB58DE88F
:10282000070002480FC800F04EF80EBD2C00002033
:102830002DE9F8430546DDE908470E4690469946DE
:1028400000F00BF94B46424631462846009400F012
:102850008EF94B4642463146284600F04EF94B462B
:10286000424631462846009700F081F94B464246E1
:102870003146284600F041F94B464246314628464B
:1028800000F0EBF844F0010000904B464246314620
:10289000284600F06CF94B4642463146284600F087
:1028A0002CF9002000904B4642463146284600F065
:1028B00095F804464B4642463146284600F0F8F863
:1028C0002046BDE8F8832DE9F84F0DF1280B0746A7
:1028D0009BE87000884691469A4600F0BEF8534641
:1028E0004A4641463846009400F041F953464A466C
:1028F0004146384600F001F953464A4641463846BB
:10290000009500F034F953464A464146384600F0F7
:10291000F4F853464A4641463846009600F027F9F7
:1029200053464A464146384600F0E7F801B0534660
:102930004A4641463846BDE8F04F00F0B9B82DE9A7
:10294000F843002406460F4690469946009400F04E
:102950005AF9012003F034FD01254B464246394621
:102960003046009500F049F9012003F029FD4B465F
:10297000424639463046009400F03FF9012003F00A
:102980001FFD4B46424639463046009500F03BF964
:10299000BDE8F8832DE9F843012405460E461746A5
:1029A0009846009400F02FF9012003F009FD4346FA
:1029B0003A4631462846009400F01FF9012003F002
:1029C000FFFC0020009043463A463146284600F07E
:1029D00014F9BDE8F843012003F0F2BC2DE9FF4FE4
:1029E00081B00024DDF8388081468A46934625462A
:1029F000012627466006040E00965A465146484670
:102A0000049B00F0FAF8012003F0DAFC5A46514624
:102A10004846049B00F0EDF808B1641CE4B200974E
:102A20005A4651464846049B00F0E7F8012003F05F
:102A3000C7FC6D1CEDB2082DDCD3049BB8F1010F6F
:102A40005A465146484605D0FFF7A4FF05B0204638
:102A5000BDE8F08FFFF773FFF8E72DE9F843012495
:102A600005460E4617469846009400F0CCF84346BB
:102A70003A4631462846009400F0BFF8012003F0A2
:102A80009FFC002443463A4631462846009400F015
:102A9000BAF8012003F094FC43463A4631462846F2
:102AA000009400F0AAF8BDE8F843012003F088BCC8
:102AB0002DE9F8430546002000900E46174698463B
:102AC000284600F0A0F8012003F07AFC01244346D8
:102AD0003A4631462846009400F08FF8012003F072
:102AE0006FFC43463A4631462846009400F08BF886
:102AF000BDE8F843012003F063BC2DE9F84301254C
:102B000006460F46904699460024009500F07BF853
:102B1000012003F055FC4B464246394630460095AD
:102B200000F06BF8012003F04BFC0CE0641CE4B2F5
:102B3000FA2C08D94B46424639463046FFF7B8FFD3
:102B40000020BDE8F8834B4642463946304600F047
:102B500050F80028EAD100904B46424639463046AC
:102B600000F04BF8012003F02BFC0120E9E72DE9F0
:102B7000F84F00240A9E8046894692469B46254689
:102B800001275B46524649464046009500F035F81D
:102B9000012003F015FC300601D5009700E00095F8
:102BA0005B4652464946404600F02DF8012003F0AE
:102BB00007FC5B46524649464046009700F01DF828
:102BC000012003F0FDFB5B46524649464046009516
:102BD00000F013F87006641C060EE4B2082CD0D383
:102BE0005B46524649464046009700F00CF8BDE867
:102BF000F88F184691B2FFF763B80346084699B2BA
:102C0000009AFFF762B830B491B2029C184622468F
:102C100030BCFFF75AB8FFF7F7BDFFF7E1BDFFF78C
:102C2000FDBDFFF7E7BD10B538221821D620FFF70C
:102C3000F6FF38221921D620FFF7F1FF612210217B
:102C4000D620FFF7ECFF68221121D620FFF7E7FF1F
:102C5000BDE810400A2003F0A5BB000010B52821F4
:102C6000D620FFF7D8FF124C29212070D620FFF77D
:102C7000D2FF60702A21D620FFF7CDFFA0702B2154
:102C8000D620FFF7C8FFE0702C21D620FFF7C3FF46
:102C900020712D21D620FFF7BEFF6071A4F10C003A
:102CA0002188018061884180A188818010BD000059
:102CB0004800002010B52221D620FFF7ACFF134CAE
:102CC00023212070D620FFF7A6FF60702421D62094
:102CD000FFF7A1FFA0702521D620FFF79CFFE07031
:102CE0002621D620FFF797FF20712721D620FFF756
:102CF00092FF6071A11F22880A8062884A800002C8
:102D0000227940421043888010BD00004800002016
:102D100010B5FFF7A3FFBDE81040FFF7CBBF0020C1
:102D200005F012BD2DE9F04385B000200090019020
:102D3000029003902B48816941F0200181618169F3
:102D400001F020010491816941F0100181618169E4
:102D500001F010010491816941F0040181618169F0
:102D600001F004010491816941F0080181618069E9
:102D70001D4F00F008000490012204213846FEF7A0
:102D8000A4FFDFF86880002210214046FEF79DFF77
:102D9000DFF85C904FF44C66012231464846FEF75E
:102DA00094FF01240420CDE9000403256946384638
:102DB000CDE90245FEF788FE1020CDE9000402208F
:102DC000CDE9024069464046FEF77EFE01AA112089
:102DD000009682E8310069464846FEF775FE05B068
:102DE000BDE8F083001002400010014000080140DF
:102DF000000C01400346084699B2C2F30722FEF7D1
:102E000064BF0346084699B2D2B2FEF75EBF0246DF
:102E1000084691B2FEF754BFFEE7FEE7704710B5D3
:102E200001220B211A20FFF7FCFE1D2209211A2086
:102E3000FFF7F7FEBDE810400A2003F0B3BA000028
:102E400010B500211A20FFF7E8FE124C0121207076
:102E50001A20FFF7E2FE607002211A20FFF7DDFE64
:102E6000A07003211A20FFF7D8FEE07004211A2079
:102E7000FFF7D3FE207105211A20FFF7CEFE607107
:102E8000A01F2188418061880180A18849428180FA
:102E900010BD000054000020FFF7D2BF074B0020F8
:102EA000014603F5F07200BF43F8201042F82010ED
:102EB000401C7828F8D30248016070473015002084
:102EC000100100200FB420222DE9F041BAB040A932
:102ED000DDE95E541BA8609EFDF763F948A9362220
:102EE000884623A8FDF75DF9BDF85601ADF8C2008C
:102EF00056983190BDF85C01ADF8C800BDF85E0190
:102F0000ADF8CA0058A911220F4633A8FDF749F9B8
:102F10009DF871018DF8DD005D98389000201A90C1
:102F200068221FA96846FDF73CF90DF16C0C9CE87E
:102F30000F0000F085FC202240A91BA8FDF731F905
:102F40003622414623A8FDF72CF9BDF85601ADF80D
:102F5000C20056983190BDF85C01ADF8C800BDF8CC
:102F60005E01ADF8CA001122394633A8FDF719F900
:102F70009DF871018DF8DD005D98389003201A905E
:102F800068221FA96846FDF70CF90DF16C0C9CE84E
:102F90000F0000F07DFC202240A91BA8FDF701F9DD
:102FA0003622414623A8FDF7FCF8BDF85601ADF8DE
:102FB000C20056983190BDF85C01ADF8C800BDF86C
:102FC0005E01ADF8CA001122394633A8FDF7E9F8D1
:102FD0009DF871018DF8DD005D983890C6F30740CB
:102FE0001A9068221FA96846FDF7DBF80DF16C0CFA
:102FF0009CE80F0000F04CFC202240A91BA8FDF724
:10300000D0F83622414623A8FDF7CBF8BDF856018B
:10301000ADF8C20056983190BDF85C01ADF8C8001B
:10302000BDF85E01ADF8CA001122394633A8FDF79C
:10303000B8F89DF871018DF8DD005D983890C6F301
:1030400007201A9068221FA96846FDF7AAF80DF11B
:103050006C0C9CE80F0000F01BFC202240A91BA870
:10306000FDF79FF83622414623A8FDF79AF8BDF8F0
:103070005601ADF8C20056983190BDF85C01ADF82C
:10308000C800BDF85E01ADF8CA001122394633A868
:10309000FDF787F89DF871018DF8DD005D98389097
:1030A000F0B21A9068221FA96846FDF77AF80DF170
:1030B0006C0C9CE80F0000F0EBFB2DE0FDF771F8C5
:1030C0003622414623A8FDF76CF8BDF85601ADF84D
:1030D000C20056983190BDF85C01ADF8C800BDF84B
:1030E0005E01ADF8CA001122394633A8FDF759F840
:1030F0009DF871018DF8DD005D983890FF201A90E1
:1031000068221FA96846FDF74CF81BAE96E80F0031
:1031100000F0BEFB05F8010B641EA4B24FF02002C4
:1031200040A91BA8CAD2FDF73CF83622414623A885
:10313000FDF737F8BDF85601ADF8C200569831904A
:10314000BDF85C01ADF8C800BDF85E01ADF8CA007D
:103150001122394633A8FDF724F89DF871018DF846
:10316000DD005D98389001201A9068221FA96846FA
:10317000FDF717F81BAC94E80F0000F061FB3AB0C4
:10318000BDE8F0015DF814FB0FB42DE9F04FBDB0C0
:103190005EAADDE9658414F0FF01C1F10000C6B24A
:1031A000649DBDF874914EA8CDE93B204FEA1827E5
:1031B00008F0FF0A3ED0E0B24042C0B204EB000B80
:1031C000002F78D0A8EB060080B2070A00F0FF08B5
:1031D000202246A91DA8FCF7E4FF362225A83C9929
:1031E000FCF7DFFFBDF86E01ADF8CA005C983390C4
:1031F000BDF87601ADF8D090ADF8D200112235A817
:103200003B99FCF7CEFF9DF889018DF8E5006398A6
:103210003A901A95CDE91B64682221A96846FCF70B
:10322000C0FF0DF1740A9AE80F0000F081F95C46C6
:1032300035441FE1F7BB202246A91DA8FCF7B1FFCA
:10324000362225A83C99FCF7ACFFBDF86E01ADF81D
:10325000CA005C983390ADF8D09026E1FCF7A1FF4E
:10326000362225A83C99FCF79CFFBDF86E01ADF80D
:10327000CA005C983390BDF87401ADF8D000BDF879
:103280007601ADF8D200112235A83B99FCF789FFF1
:103290009DF889018DF8E50063983A904FF48070AD
:1032A0001A95CDE91B04682221A96846FCF779FF2D
:1032B0001DAE01E008E042E096E80F0000F038F9AA
:1032C00004F5807405F580757F1EFFB24FF0200273
:1032D00046A91DA8C2D2FCF764FF362225A83C9956
:1032E000FCF75FFFBDF86E01ADF8CA005C98339043
:1032F000BDF87401ADF8D000BDF87601ADF8D2008C
:10330000112235A83B99FCF74CFF9DF889018DF8F7
:10331000E50063983A901A95CDE91BA4682221A98B
:10332000684600BFFCF73DFF1DAE96E80F0000BFEA
:1033300000F0FEF83DB0BDE8F00F5DF814FBB245BB
:103340007FF679AFAAEB0600C7B2202246A91DA8D6
:10335000FCF727FF362225A83C99FCF722FFBDF891
:103360006E01ADF8CA005C983390BDF87601ADF8F7
:10337000D090ADF8D200112235A83B99FCF711FF8F
:103380009DF889018DF8E50063983A901A95CDE98A
:103390001B64682221A96846FCF703FF0DF174083D
:1033A00098E80F0000F0C4F85C463544202246A996
:1033B0001DA8FCF7F6FE362225A83C99FCF7F1FE85
:1033C000BDF86E01ADF8CA005C983390BDF8740189
:1033D000ADF8D000BDF87601ADF8D200112235A8C5
:1033E0003B99FCF7DEFE9DF889018DF8E5006398B6
:1033F0003A901A95CDE91B74682221A96846FCF71A
:10340000D0FE98E80F0093E7202246A91DA8FCF7FC
:10341000C8FE362225A83C99FCF7C3FEBDF86E0114
:10342000ADF8CA005C983390BDF87401ADF8D000D7
:10343000BDF87601ADF8D200112235A83B99FCF712
:10344000B0FE9DF889018DF8E50063983A904FF43D
:1034500080701A95CDE91B04682221A96846FCF703
:10346000A0FE1DAE96E80F0000F062F804F580742F
:1034700005F580757F1EFFB2C6D2B8F1000F3FF48C
:1034800059AF202246A91DA8FCF78BFE362225A89D
:103490003C99FCF786FEBDF86E01ADF8CA005C9859
:1034A0003390BDF87401ADF8D000BDF87601ADF8E9
:1034B000D200112235A83B99FCF773FE9DF88901D3
:1034C0008DF8E50063983A901A95CDE91B8468223F
:1034D00021A9684626E70FB4362200B597B020A987
:1034E0006846FCF75EFEBDF8B600ADF836002E98D3
:1034F0000E90BDF8BC00ADF83C00BDF8BE00ADF8C4
:103500003E00112230A910A8FCF74BFE9DF8D10017
:103510008DF85100359815906846FEF70BFF00981E
:103520000068009940F04000086017B05DF814FB97
:103530000FB42DE9F041BAB0DDE95F455E9E01F0C0
:10354000C9FA202240A91BA8FCF72BFE48A9362265
:10355000884623A8FCF725FEBDF85601ADF8C20049
:1035600056983190BDF85C01ADF8C800BDF85E0119
:10357000ADF8CA0058A911220F4633A8FCF711FE76
:103580009DF871018DF8DD005D98389000201A904B
:1035900068221FA96846FCF704FE0DF16C0C9CE83C
:1035A0000F0000F04DF9202240A91BA8FCF7F9FDFF
:1035B0003622414623A8FCF7F4FDBDF85601ADF8CC
:1035C000C20056983190BDF85C01ADF8C800BDF856
:1035D0005E01ADF8CA001122394633A8FCF7E1FDBF
:1035E0009DF871018DF8DD005D98389002201A90E9
:1035F00068221FA96846FCF7D4FD0DF16C0C9CE80D
:103600000F0000F045F9202240A91BA8FCF7C9FDD6
:103610003622414623A8FCF7C4FDBDF85601ADF89B
:10362000C20056983190BDF85C01ADF8C800BDF8F5
:103630005E01ADF8CA001122394633A8FCF7B1FD8E
:103640009DF871018DF8DD005D983890C5F3074055
:103650001A9068221FA96846FCF7A3FD0DF16C0CB7
:103660009CE80F0000F014F9202240A91BA8FCF7E9
:1036700098FD3622414623A8FCF793FDBDF856017C
:10368000ADF8C20056983190BDF85C01ADF8C800A5
:10369000BDF85E01ADF8CA001122394633A8FCF727
:1036A00080FD9DF871018DF8DD005D983890C5F3BF
:1036B00007201A9068221FA96846FCF772FD0DF1D9
:1036C0006C0C9CE80F0000F0E3F8202240A91BA836
:1036D000FCF767FD3622414623A8FCF762FDBDF8E2
:1036E0005601ADF8C20056983190BDF85C01ADF8B6
:1036F000C800BDF85E01ADF8CA001122394633A8F2
:10370000FCF74FFD9DF871018DF8DD005D98389054
:10371000E8B21A9068221FA96846FCF742FD0DF135
:103720006C0C9CE80F0000F0B3F8B4F5807F33D93F
:1037300036A001F083FBFF24202240A91BA8FCF740
:1037400030FD3622414623A8FCF72BFDBDF856017B
:10375000ADF8C20056983190BDF85C01ADF8C800D4
:10376000BDF85E01ADF8CA001122394633A8FCF756
:1037700018FD9DF871018DF8DD005D983890307866
:103780001A9068221FA96846FCF70BFD1BAD95E84F
:103790000F0000F07DF8761C641EA4B2CCD220226B
:1037A00040A91BA8FCF7FDFC3622414623A8FCF7E4
:1037B000F8FCBDF85601ADF8C20056983190BDF83E
:1037C0005C01ADF8C800BDF85E01ADF8CA00112279
:1037D000394633A8FCF7E5FC9DF871018DF8DD0052
:1037E0005D98389001201A9068221FA96846FCF75E
:1037F000D8FC1BAC94E80F0000F022F83AB0BDE80A
:10380000F0015DF814EB01F05FB800003C3C2D4680
:103810004C4153482D4552524F522D3E3E2053505D
:10382000495F464C4153485F506167655772697400
:103830006520746F6F206C61726765210A0000005B
:103840000FB4BDF800101E9A019804B0FEF73DBAFF
:1038500010B503A01C9901F0F1FA002010BD000082
:103860003C3C2D464C4153482D4552524F522D3E23
:103870003E2053504920B5C8B4FDB3ACCAB1216550
:1038800072726F72436F6465203D2025640A0000E8
:103890000FB43622F0B5EDB07AA90F4657A8909D27
:1038A000FCF77FFCBDF81E02ADF892018898659088
:1038B000BDF82442ADF89841BDF82602ADF89A0152
:1038C0008AA911220E4667A8FCF76BFC9DF8390205
:1038D0008DF8AD018F986C904FF4005001462DE0AB
:1038E000491E2BD2202272A91BA8FCF75AFC3622B3
:1038F000394623A8FCF755FCBDF81E02ADF8C200FE
:1039000088983190BDF82602ADF8C840ADF8CA00DD
:103910001122314633A8FCF744FC9DF839028DF89A
:10392000DD008F98389000201A9068221FA9684601
:10393000FCF737FC1BAD95E80F0036E0579A92680C
:10394000D2439207CCD45799CD6034E0401E32D296
:10395000202272A939A8FCF724FC3622394641A856
:10396000FCF71FFCBDF81E02ADF83A0188984F9095
:10397000BDF82402ADF84001BDF82602ADF84201C1
:103980001122314651A8FCF70CFC9DF839028DF844
:1039900055018F98569001201A9068223DA96846DB
:1039A000FCF7FFFB39AC94E80F00FFF751FF6DB057
:1039B000F0BC5DF814FB57998968C943C907C5D1A4
:1039C0005798C068C0B2F2E77047FEF789B930B5C2
:1039D0008FB028216846FCF7FDFB14210AA8FCF7EC
:1039E000F9FB01210804CDE900100024029402250E
:1039F0000491CDE907504FF4E01009906846FEF7B6
:103A000009FB08B172B6FEE70F20CDE90A054FF4B5
:103A10008060CDE90C4002210AA80E94FEF70EFA50
:103A2000002801D072B6FEE70FB030BD0D48016826
:103A300041F00101016041680B4A11404160016899
:103A40000A4A11400160016821F480210160416847
:103A500021F4FE0141604FF41F0181600449C0035D
:103A600008607047001002400000FFF8FFFFF6FEFC
:103A700008ED00E02DE9F0471B4E1C4D4FF4000708
:103A800074684FF07C58A41E05EB840050F8049C29
:103A90000020B0600FE000BF05EB840050F8041C6C
:103AA0004846FCF785FCB84201DA80F0004040450A
:103AB00001DB641C01E0641EEED10DA001F0BEF933
:103AC000002709E055F82700FCF734FE02460B46B4
:103AD0000AA001F0B3F97F1CA742F3DB09A001F0B3
:103AE000ADF9B460BDE8F08730010020D01A0020A5
:103AF000BCABD6B5D1B9CBF53A205B00252E3266EA
:103B00002C2000005D0D0A00F0B5F9B042A001F0D4
:103B100095F94AA001F092F949494AA001F08EF9BD
:103B200047494CA0143101F089F94548816A4DA0FC
:103B300001F084F950A001F081F952A001F07EF962
:103B40004FF4F0716846FCF745FB3D4C01200C3CFE
:103B50000090A36800214E4F6D465B1E19E000BF28
:103B600057F82100002801DD012601E04FF0FF3663
:103B700055F82120012E10D0401C002A00DA5242B4
:103B8000002800DA40421044704305EB8102491CD2
:103B900050609942E4DB00260FE0401EEDE700BFD5
:103BA00055F826103BA001F049F9A068401E864256
:103BB00002D02BA001F042F9761CA0688642EFDB10
:103BC00035A001F03BF935A001F038F90025374E5A
:103BD00011E000BF56F82500FCF7ACFD02460B468D
:103BE00033A001F02BF9A068401E854202D01CA032
:103BF00001F024F96D1CA0688542EBDB2EA001F0DA
:103C00001DF92EA001F01AF92CA001F017F92CA033
:103C100001F014F979B0F0BD0D0AD2D4CFC2CEAA0A
:103C2000B7A2CBCDB8F8C6BDCCA8B5C4CAFDBEDD21
:103C30003A0D0A3E3E3E0D0A000000007B000000E7
:103C40003C0100202244617465223A222573222C13
:103C500000000000224272696566223A2225732222
:103C60002C0000002246696C655F496E646578220D
:103C70003A25642C00000000224172726179223AD8
:103C80007B000000225472656E64223A5B000000E3
:103C9000F0180020256400005D2C00002245787497
:103CA00072656D756D223A5B00000000D01A00202D
:103CB000252E3266000000005D0000007D0000003F
:103CC0000D0A3C3C3C0D0A002DE9F04FF9B00446CA
:103CD00000F062F93CB1012C07D085A001F0AEF8EC
:103CE00079B0BDE8F08F8C4D00E08C4D8CA001F0D8
:103CF000A5F8002455F82400FCF71CFD02460B46ED
:103D000089A001F09BF8772C05D089A001F096F8E6
:103D1000641C782CEEDB87A001F090F886A001F0FF
:103D20008DF8884E0024B14656F8241086A001F084
:103D300085F8772C05D07EA001F080F8641C782CE3
:103D4000F1DB7CA001F07AF880A001F077F8DFF8D1
:103D500008B200245BF82400FCF7ECFC02460B469A
:103D600071A001F06BF8772C05D071A001F066F816
:103D7000641C782CEEDB6FA001F060F8782700243B
:103D8000B9006846FCF726FA0120A7F1010A009065
:103D900005EB840655F824007168FCF7FBFC01D2A2
:103DA000012607E055F824007168FCF7FDFC04D2F9
:103DB0004FF0FF36A046641C22E0641C33E0012E65
:103DC00002D0701C09D010E005EB8400416855F862
:103DD0002400FCF7DFFC08D20FE005EB840041680B
:103DE00055F82400FCF7E0FC07D305EB840041689C
:103DF00055F82400FCF7CEFC32D1A24502D0641C59
:103E0000BC42DCDBA4EB0800401C4643534801687D
:103E100049F82160491C0160416855F828304BF889
:103E20002130491C41605445B2DB4C4C05EB870501
:103E30005E46606855F8041C0BEB800050F8040CDB
:103E4000FCF7A8FC06D0606855F8041C46F8201062
:103E5000401C606042A000F0F1FF00254F4616E0D4
:103E60003E4800680028CDDD06FB04F14DF8201027
:103E7000C8E700BF57F8251033A000F0DFFF206827
:103E8000401E854202D02AA000F0D8FF6D1C206899
:103E90008542EFDB27A000F0D1FF34A0216800F0BD
:103EA000CDFF36A000F0CAFF002510E056F825002F
:103EB000FCF740FC02460B461BA000F0BFFF606809
:103EC000401E854202D01AA000F0B8FF6D1C606849
:103ED0008542EBDB17A000F0B1FF2AA0616800F07B
:103EE000ADFF2C481D490C3100688862F8E60000DF
:103EF0005BBBF1C8A1C7F7CAC6BCABD6B52E635D24
:103F00003A20C3BBD3D0B8F8CAFDD7E921CFC8CD7A
:103F1000CBB3F6C1CB2E00003015002010170020C7
:103F20006172723A205B0000252E326600000000AC
:103F30002C2000005D0D0A007472656E643A205BEF
:103F400000000000F01800202564000065787472FD
:103F5000656D756D3A205B00D01A0020300100209D
:103F6000C7F8BCE4B6CE3A205B0000007472645F10
:103F70006964783A2025640D0A000000BCABD6B510
:103F80003A205B006578745F6964783A2025640D97
:103F90000A0000008001002007480021074B016053
:103FA0004160084603F5F07243F8201042F82010F3
:103FB000401C7828F8D3704730010020F01800200A
:103FC00010B50A4C2068C068C043C00709D1084832
:103FD0000069804721680020486221686420C86227
:103FE000E06021686FF00100086110BDB061002041
:103FF00034020020F0B502681C4B1D4D1D4E1E4FB3
:104000001E4C4FF0804C984209D0A04207D060452A
:1040100005D0A84203D0B04201D0B84204D122F06A
:10402000700E4A6842EA0E02984209D0A04207D0B8
:10403000604505D0A84203D0B04201D0B84203D1B8
:1040400022F44075CA682A434D6922F080022A434F
:1040500002608A68C2620A688262984201D0A04205
:1040600001D10969016301214161F0BD002C0140CA
:104070000004004000080040000C004000340140F3
:1040800038B5114A05460C46D06940F00400D061AD
:10409000D069032200F00400009011461E20FDF7B5
:1040A00089FE1E20FDF778FE094A0848C2E900048F
:1040B0000020C2E9020510611046FEF7D1F9BDE803
:1040C00038400348FEF7E8B90010024000080040FD
:1040D000B061002010B5482002F05AF94FF4E130E9
:1040E00004F06CFE542005F0B9F9BDE8104001A0C1
:1040F00000F0A4BE287965732920D4DAD3C3D5FD96
:10410000B5E3D4ADD7D3B5C4BAAFCAFD2E0D0A00FE
:1041100010B5406A0021C185C184FEF7CEF910BDFB
:104120000168CA6822F49072CA6001684A6922F084
:1041300001024A61202180F83A10704710B590F8CA
:104140003A10222901D0022010BD8168B1F5805FAC
:1041500011D00169002901681FD0496801F07F036F
:10416000816A4A1C82620B70C18D491E0904090CC8
:10417000C18518D02BE00269816A002A0268526862
:1041800005D0D2B20A80816A491C8162ECE7C2F391
:1041900008020A80816A891CF7E74A68816A4B1C19
:1041A00083620A70E0E70168CA6822F02002CA60F0
:1041B0000168CA6822F48072CA6001684A6922F004
:1041C00001024A61202180F83A10FEF7A7FA002088
:1041D00010BD00002DE9F041044600680169E26865
:1041E00021F44051114301612169A06808436169CC
:1041F00008432168CA6841F20C639A430243CA60CB
:1042000020684169A26921F44071114341611E494E
:10421000206864253226884202D1FDF7B5FE01E010
:10422000FDF7A2FE00EBC00101EB001160686FF02A
:1042300018078000B1FBF0F2B2FBF5F2B1FBF0F32E
:104240007A4303EB8202B1FBF0F306EB0212B2FBFE
:10425000F5F2B3FBF5F302F0F00202EB0312B1FB4F
:10426000F0F3B1FBF0F0B0FBF5F0784303EB800026
:1042700006EB0010B0FBF5F0216800F00F001044D1
:104280008860BDE8F08100000038014090F83910E6
:10429000212901D0022070478168B1F5805F016A51
:1042A0000BD04A1C0262026809785160C18C491E19
:1042B0000904090CC1840ED017E009880268C1F313
:1042C0000801516001690029016A02D0491C01629C
:1042D000ECE7891CFBE70168CA6822F08002CA602B
:1042E0000068C16841F04001C160002070470000D3
:1042F00010B50848FEF7E8F80648FEF7DFF8202872
:10430000FAD1012204490348FEF7DEF90028F8D16A
:1043100010BD00007061002090010020FEE7000049
:10432000F0B5B9B0054600F0D5FB00F0CDFA20227B
:104330008C491BA8FBF735FF8A49362220310F46EE
:1043400023A8FBF72EFF874CB4F85600ADF8C20047
:1043500054F8580F3190A088ADF8C800E088ADF847
:10436000CA008049112260310E4633A8FBF719FFBD
:10437000607E8DF8DD00E069389000201A90682298
:104380001FA96846FBF70DFF0DF16C0C9CE80F00B0
:10439000FFF756FA202273491BA8FBF702FF3622CB
:1043A000394623A8FBF7FDFE34F8020CADF8C20035
:1043B00020683190A088ADF8C800E088ADF8CA0048
:1043C0001122314633A8FBF7ECFE607E8DF8DD004C
:1043D000E069389020201A9068221FA96846FBF7F0
:1043E000E0FE0DF16C0C9CE80F00FFF751FA202263
:1043F0005C491BA8FBF7D5FE3622394623A8FBF7FC
:10440000D0FE34F8020CADF8C20020683190A088CC
:10441000ADF8C800E088ADF8CA001122314633A8D3
:10442000FBF7BFFE607E8DF8DD00E0693890C5F3D4
:1044300007401A9068221FA96846FBF7B2FE0DF1EB
:104440006C0C9CE80F00FFF723FA202245491BA8BB
:10445000FBF7A7FE3622394623A8FBF7A2FE34F865
:10446000020CADF8C20020683190A088ADF8C800F9
:10447000E088ADF8CA001122314633A8FBF791FE5F
:10448000607E8DF8DD00E0693890C5F307201A9052
:1044900068221FA96846FBF784FE0DF16C0C9CE8AE
:1044A0000F00FFF7F5F920222E491BA8FBF779FE34
:1044B0003622394623A8FBF774FE34F8020CADF817
:1044C000C20020683190A088ADF8C800E088ADF83F
:1044D000CA001122314633A8FBF763FE607E8DF8D7
:1044E000DD00E0693890E8B21A9068221FA968469A
:1044F000FBF757FE0DF16C0C9CE80F00FFF7C8F9B5
:10450000202218491BA8FBF74CFE3622394623A867
:10451000FBF747FE34F8020CADF8C200206831907A
:10452000A088ADF8C800E088ADF8CA001122314675
:1045300033A8FBF736FE607E8DF8DD00E069389029
:1045400001201A9068221FA96846FBF72AFE1BACBF
:1045500094E80F00FFF774F939B0BDE8F04000F0BF
:10456000B3B90000800000202DE9F043B9B020224B
:1045700089491BA8FBF715FE874936222031894659
:1045800023A8FBF70EFE844CB4F85600ADF8C20029
:1045900054F8580F3190A088ADF8C800E088ADF805
:1045A000CA007D4911226031884633A8FBF7F9FD26
:1045B000607E8DF8DD00E069389000201A90682256
:1045C0001FA96846FBF7EDFD1BAD95E80F00FFF74F
:1045D00037F9202270491BA8FBF7E3FD3622494634
:1045E00023A8FBF7DEFD34F8020CADF8C20020680A
:1045F0003190A088ADF8C800E088ADF8CA0011225B
:10460000414633A8FBF7CDFD607E8DF8DD00E06903
:1046100038909F201A9068221FA96846FBF7C1FDB9
:1046200095E80F00FFF734F920225B491BA8FBF740
:10463000B8FD3622494623A8FBF7B3FD34F8020C37
:10464000ADF8C20020683190A088ADF8C800E088BD
:10465000ADF8CA001122414633A8FBF7A2FD607EE7
:104660008DF8DD00E0693890FF2568221FA96846B3
:104670001A95FBF796FD1BAE96E80F00FFF708F9B9
:104680000746202244491BA8FBF78BFD36224946EA
:1046900023A8FBF786FD34F8020CADF8C2002068B1
:1046A0003190A088ADF8C800E088ADF8CA001122AA
:1046B000414633A8FBF775FD607E8DF8DD00E069AB
:1046C000389068221FA968461A95FBF76AFD96E89C
:1046D0000F00FFF7DDF8064620222F491BA8FBF745
:1046E00060FD3622494623A8FBF75BFD34F8020C37
:1046F000ADF8C20020683190A088ADF8C800E0880D
:10470000ADF8CA001122414633A8FBF74AFD607E8E
:104710008DF8DD00E069389068221FA968461A9577
:10472000FBF73FFD1BAD95E80F00FFF7B1F805461D
:10473000202219491BA8FBF734FD3622494623A83D
:10474000FBF72FFD34F8020CADF8C2002068319061
:10475000A088ADF8C800E088ADF8CA001122414633
:1047600033A8FBF71EFD607E8DF8DD00E069389010
:1047700001201A9068221FA96846FBF712FD1BACA6
:1047800094E80F00FFF75CF8380440EA062139B0DE
:1047900041EA0500BDE8F08380000020F0B5B9B023
:1047A000202248491BA8FBF7FCFC46493622203151
:1047B0000F4623A8FBF7F5FC424C34F8560FADF832
:1047C000C200404D2D1F55F85C0F3190A888ADF800
:1047D000C8002089ADF8CA003A49112260310E465E
:1047E00033A8FBF7DEFCE07E8DF8DD00D4F81E0078
:1047F000389000201A9068221FA96846FBF7D1FC68
:104800000DF16C0C9CE80F00FFF71AF820222D49DF
:104810001BA8FBF7C6FC3622394623A8FBF7C1FCD0
:104820002088ADF8C20028683190A888ADF8C8008B
:104830002089ADF8CA001122314633A8FBF7B1FC3C
:10484000E07E8DF8DD00D4F81E003890AB201A9081
:1048500068221FA96846FBF7A4FC0DF16C0C9CE8CC
:104860000F00FFF715F8202216491BA8FBF799FC4B
:104870003622394623A8FBF794FC2088ADF8C20005
:1048800028683190A888ADF8C8002089ADF8CA0022
:104890001122314633A8FBF784FCE07E8DF8DD0061
:1048A000D4F81E00389001201A9068221FA968468B
:1048B000FBF777FC1BAC94E80F00FEF7C1FF39B0A3
:1048C000F0BD0000800000202DE9F04FB9B020229B
:1048D0007F491BA8FBF765FC7D49362220318A46BB
:1048E00023A8FBF75EFC7A4C34F8560FADF8C200F3
:1048F000774D2D1FE86D3190B5F86000ADF8C80018
:104900002089ADF8CA0005F1640111228B4633A855
:10491000FBF747FCE07E8DF8DD00D4F81E003890F0
:1049200000201A9068221FA96846FBF73AFC1BAECC
:1049300096E80F00FEF784FF2022291D1BA8FBF735
:1049400030FC3622514623A8FBF72BFC2088ADF81B
:10495000C200E86D3190B5F86000ADF8C80020895C
:10496000ADF8CA001122594633A8FBF71AFCE07EC5
:104970008DF8DD00D4F81E00389005201A906822CA
:104980001FA96846563CFBF70CFC96E80F00FEF7A3
:104990007FFF4FF40050286028600DF18C090DF165
:1049A000CC08FF261FAF202249491BA8FBF7F9FBC3
:1049B000362251464846FBF7F4FBB4F85600ADF8F2
:1049C000C200E86D3190B5F86000ADF8C800B4F8E9
:1049D0005E00ADF8CA00112259464046FBF7E1FBE4
:1049E00094F871008DF8DD00606F389068223946C8
:1049F00068461A96FBF7D5FB0DF16C0C9CE80F008E
:104A0000FEF746FF29684A1E2A6030D2202230492C
:104A10001BA8FBF7C6FB3622514623A8FBF7C1FBB8
:104A200034F8560FADF8C200E86D3190B5F860006B
:104A3000ADF8C8002089ADF8CA001122594633A844
:104A4000FBF7AFFBE07E8DF8DD00D4F81E00389058
:104A500004201A9068221FA96846FBF7A2FB1BAE30
:104A600096E80F00FEF7F4FE39B0BDE8F08FC007FE
:104A700099D1202216491BA8FBF793FB36225146F9
:104A800023A8FBF78EFB34F8560FADF8C200E86D93
:104A90003190B5F86000ADF8C8002089ADF8CA00C3
:104AA0001122594633A8FBF77CFBE07E8DF8DD0030
:104AB000D4F81E00389001201A9068221FA9684679
:104AC000FBF76FFB1BAE96E80F00FEF7B9FECBE7D6
:104AD00080000020F0B5B9B0202248491BA8FBF7A0
:104AE00060FB4649362220310F4623A8FBF759FBCD
:104AF000424C34F8560FADF8C200404D2D1F55F80A
:104B00005C0F3190A888ADF8C8002089ADF8CA00C4
:104B10003A49112260310E4633A8FBF742FBE07E92
:104B20008DF8DD00D4F81E00389000201A9068221D
:104B30001FA96846FBF735FB0DF16C0C9CE80F00D4
:104B4000FEF77EFE20222D491BA8FBF72AFB36220A
:104B5000394623A8FBF725FB2088ADF8C20028685A
:104B60003190A888ADF8C8002089ADF8CA0011229C
:104B7000314633A8FBF715FBE07E8DF8DD00D4F855
:104B80001E00389006201A9068221FA96846FBF77D
:104B900008FB0DF16C0C9CE80F00FEF779FE20225B
:104BA00016491BA8FBF7FDFA3622394623A8FBF766
:104BB000F8FA2088ADF8C20028683190A888ADF8CE
:104BC000C8002089ADF8CA001122314633A8FBF78E
:104BD000E8FAE07E8DF8DD00D4F81E003890012060
:104BE0001A9068221FA96846FBF7DBFA1BAC94E811
:104BF0000F00FEF725FE39B0F0BD00008000002058
:104C00002DE9F0410746FBF77CFD2D4C0546A068D9
:104C1000FBF777FD2D1A29462AA000F00FF9384638
:104C2000FBF788FD02460B462CA000F007F96069EF
:104C3000282803DA401C6061BDE8F08100263C288A
:104C400007D12CA000F0FAF850212E48FBF7C2FA49
:104C5000A66060693C2802DD384600F0CDF8606946
:104C6000502820DD28A000F0E9F8002D01DB2846BF
:104C700000E068424FF49677B84208DA26A0E1686F
:104C800000F0DCF802202060E068401CE060002DAD
:104C900000DA6D42BD4206DD23A000F0CFF801200E
:104CA000E66020600AE02068022807D1E068142846
:104CB00004DB66610320E6602060BDE76069B9E758
:104CC000F800002074656D705F64696666657265E2
:104CD0006E743A2025640D0A00000000323A206903
:104CE0006E7075745F466C6F61743A2025660D0AAC
:104CF000000000000D0AD6D8D6C3B4B0BFDA2E0D1E
:104D00000A000000E01400200D0ABFC9D2D4BEB2D0
:104D1000D6B9C1CB2E0D0A005B25645DD5FDD4DA72
:104D2000C0DBBCC60D0A00000D0AB6AFC0B121C879
:104D3000A1CFFBC0DBBCC62E0D0A000070B5064635
:104D4000FBF7F8FC02460B4617A000F077F81C4D65
:104D50002969142903DA1BA000F070F81BE003D1C5
:104D60001DA000F06BF816E03046FBF7CAFC0446C5
:104D7000A868FBF7C6FC241A214619A000F05EF8CB
:104D8000002C00DA6442B4F5967F04DD012028602F
:104D90000020686070BD2869401C28613046BDE86D
:104DA000704000F029B80000313A20696E707574C7
:104DB0005F466C6F61743A2025660D0A00000000A2
:104DC000F80000205B25645DBFAACABCB3F5CABC6D
:104DD000BBAF0D0A00000000CDEAB1CF0D0A000004
:104DE00074656D705F646966666572656E743A209D
:104DF00025640D0A000000002DE9F0410D4D0C4E18
:104E000007466C6856F82410FBF7D2FA0A49FBF7FC
:104E100007FBA968FBF77AFAA86046F8247014200B
:104E2000641C94FBF0F100FB11406860BDE8F08168
:104E3000E0140020F80000200000A0410FB4054B52
:104E400010B503A9044A029800F0AAF910BC5DF855
:104E500014FB0000AD780008940100200FB41CB5CD
:104E60000246002007AC00290BD0491ECDE90021E5
:104E7000054B6A462146069800F092F9009A0021F7
:104E800011701CBC5DF814FBCF5800080FB4084B20
:104E900010B504A902AA039800F082F9044602A9F9
:104EA000002000F01FFD204610BC5DF814FB000040
:104EB000E5580008490050EAC12018BF04204A0DF7
:104EC00018BF40F0010040F2FF72B2EB515F08BF23
:104ED00040F00200012808BF052070470907090EAD
:104EE000002804DB00F1E02080F80014704700F097
:104EF0000F0000F1E02080F8141D70470048704753
:104F00004C0300202DE9F0414F1E00EBC701044681
:104F1000D1E9000115461E4637F006020DD02A469B
:104F20003346FBF76EFB7F1E04EBC703D3E9002378
:104F3000FBF7C0FA37F00602F1D1022F25D0042F7B
:104F400013D0062F18BFBDE8F0812A463346FBF781
:104F500058FBD4E90A23FBF7ADFA2A463346FBF7A0
:104F600050FBD4E90823FBF7A5FA2A463346FBF7A2
:104F700048FBD4E90623FBF79DFA2A463346FBF7A4
:104F800040FBD4E90423FBF795FA2A463346FBF7A6
:104F900038FBD4E90223FBF78DFA2A463346FBF7A8
:104FA00030FBD4E90023BDE8F041FBF783BA0122CE
:104FB000FBF70DBEFBF77EBA0022134610461146E2
:104FC000FBF796BD024A00201107FBF700BE000068
:104FD00001FDFFFF01480068704700004C030020FE
:104FE00002E008C8121F08C1002AFAD170477047B2
:104FF000002001E001C1121F002AFBD17047000010
:1050000001490860704700004C0300202DE9FF5F54
:1050100082B00021DDE90430020DDDF840B0034329
:1050200018D044F61050A2F2FF32424315141198E2
:1050300001281FD0A5EB0B00401C5FEA000A4FF0CF
:1050400000064E4FDFF83891B046504615D5CAF1EC
:10505000000413E0119801244AA3012801D16FEA4A
:105060000B010298119AC0E90031C0E9024206B072
:10507000BDE8F09FCBF10000DFE704460021404A85
:10508000491842EB0450CDE9001012E0E00707D0C8
:1050900032463B4640464946FBF7B3FA80468946CE
:1050A00032463B4610461946FBF7ABFA06460F461A
:1050B0006410002CEAD1DDE90401DDE90023BAF136
:1050C000000F06DAFBF79DFA42464B46FBF799FACA
:1050D00005E0FBF70DFD42464B46FBF709FD044694
:1050E0000E460022284BFBF7F3FD03D84FF0FF30AC
:1050F000014607E00022254B20463146FBF7DAF94E
:10510000FBF7CDFD102409E0002C0ADB0A22002366
:10511000FBF76AFB039B30321A55641E50EA01020A
:10512000F2D1641C039AC4F111031444119A012AA8
:1051300003D0012208430DD10AE0084304D0002027
:105140004FF0110B119072E7A3EB0B056D1E0DE0F4
:105150005B4504DD4FF0000205F1010504E003DAD0
:105160004FF00002A5F10105002AECD00298119938
:10517000C0E90231C0E9004579E7000000001440B1
:105180000000F03F300000000000F0430000E03F6E
:1051900030380A2801D201207047002070470000F3
:1051A0002DE9FF4F95B09B468946064600250FE244
:1051B000252877D100242746F84A0121059400E0EC
:1051C000044316F8013F203B01FA03F01042F7D1E7
:1051D00030782A2811D06FF02F033078A0F13002F8
:1051E000092A16D8059A44F0020402EB820203EB66
:1051F00042021044761C0590EFE759F8042B059203
:10520000002A03DA504244F40054059044F00204AA
:10521000761C30782E2816D116F8010F44F00404BD
:105220002A280DD06FF02F023078A0F13003092B1F
:1052300009D807EB870302EB4303C718761CF3E793
:1052400059F8047B761C30786C280FD006DC4C288B
:1052500017D068280DD06A2814D104E0742810D023
:105260007A280FD10DE044F400140AE044F48014CD
:1052700001E044F440147278824202D104F58014B3
:10528000761C761C307866280BD013DC582877D033
:1052900009DC002875D04528F6D04628F4D04728E8
:1052A0001AD19DE118E0632835D0642879D06528AB
:1052B00012D195E1702873D008DC6728F1D06928F5
:1052C0006FD06E280DD06F2806D1B5E073282CD092
:1052D000752875D0782874D05A46179990476D1C58
:1052E00075E1C4F30250022809D003280DD0D9F883
:1052F000001004280DD00D6009F1040967E1D9F808
:105300000010EA17C1E90052F6E7D9F800100D8045
:10531000F2E70D70F0E719F8041B8DF8001000207B
:105320008DF80100EA46012003E059F804AB4FF084
:10533000FF3061074FF0000102D40DE008F10101D8
:105340008846B9420FDA8045F8DB1AF808100029C0
:10535000F4D108E008F1010188468142FADB1AF82D
:1053600008100029F6D105985B46A0EB08072146F6
:105370003846179A00F094FA284400EB080507E035
:105380004DE029E10DE01AF8010B5A4617999047B4
:10539000B8F10108F7D25B4621463846179A13E167
:1053A00042E00A220092C4F302524FF0000A022A9D
:1053B00008D059F804CB032A4FEAEC710AD00DE06B
:1053C00029E02AE009F1070121F00702F2E802C111
:1053D000914609E00FFA8CFC4FEAEC71042A03D1E4
:1053E0004FFA8CFC4FEAEC71002907DA0A460021DB
:1053F000DCF1000C61EB02012D2202E0220504D554
:105400002B228DF80420012203E0E20701D02022A4
:10541000F7E7904659E00A2102E010220DE0102142
:105420004FF0000A00910BE010224FF0000A44F008
:1054300004040827009203E008224FF0000A0092BB
:10544000C4F30252022A05D059F804CB0021032AE2
:1054500008D009E009F1070121F00702F2E802C1D2
:10546000914605E01FFA8CFC042A01D10CF0FF0CD8
:105470004FF00008220728D5702806D0009B83F043
:10548000100353EA0A0305D00EE040228DF80420F1
:10549000012208E05CEA010206D030228DF80420E7
:1054A0008DF8050002229046009B83F0080353EA22
:1054B0000A030AD15CEA010201D1620705D5302254
:1054C0008DF804204FF001087F1E582804D034A026
:1054D00003900EA802900DE036A0F9E7534660460F
:1054E000009AFBF781F984460398825C0298401E7B
:1054F000029002705CEA0100F0D1029806A9081A35
:1055000000F1200A600702D524F4803400E001276E
:10551000574502DDA7EB0A0000E0002000EB0A017E
:10552000009005984144401A0590E00306D45B467C
:105530002146179A059800F0B3F90544002706E0C4
:1055400001A85A46C05D179990476D1C7F1C4745BE
:10555000F6DBE0030CD55B462146179A059800F070
:105560009FF9054404E030205A46179990476D1C76
:105570000099481E00900029F5DC08E00298029985
:105580005A460078491C0291179990476D1CBAF150
:105590000001AAF1010AF1DC65E10000092801001F
:1055A0003031323334353637383961626364656699
:1055B000000000003031323334353637383941425B
:1055C000434445460000000000F058F90544761CAD
:1055D000307800287FF4ECAD19B02846BDE8F08F94
:1055E000620700D4062709F1070222F0070CFCE845
:1055F0000223E14603F000485FEA080C02D00FF2F4
:10560000702C0DE05FEA045C02D50FF2682C07E015
:105610005FEAC47C02D00FF2602C01E0AFF2700CA4
:105620004FF0FF3823F00043CDF850C065280CD070
:1056300006DC452809D046281DD047283DD13DE04D
:10564000662818D067287ED138E00021112F01DBB1
:10565000112000E0781CCDE9000106A90EA8FFF793
:10566000D5FCDDE90F010E9A03910021009207F1AC
:10567000010A04914DE04FF000400097CDE9011080
:1056800006A90EA8FFF7C2FCDDE90F0203920E9BEC
:1056900011990022DDF80CA00093049211B9791C35
:1056A00000EB010AB7EB0A0004D4C0F1FF3007F1A8
:1056B000010A0490AAEB0700019044E0012F00DAF0
:1056C00001270021112F01DD112000E03846CDE92E
:1056D000000106A90EA8FFF799FCDDE90F010E9A5B
:1056E0000391002104910092BA4621070CD403993A
:1056F000514500DA8A46BAF1010F05DD009AAAF198
:105700000101515C302908D0B84202DA10F1040FCF
:1057100006DA0121CDE9011015E0AAF10101E9E75E
:10572000002805DC049901440491AAEB000102E081
:10573000411C514500DD8A460499401A401C0190E5
:105740004FF000400290200704D40198504501DB3F
:10575000CDF8048000208DF84F0002980DF14F071E
:10576000B0F1004F25D02B200E9002984FF0020888
:1057700000280CDA404202902D200E9007E00A210A
:105780000298FBF71BF83031029007F8011DB8F1C1
:105790000001A8F10108F2DC02980028EFD1791E7F
:1057A0000E980870307800F0200040F0450007F8AF
:1057B000020D12A8C01B00F107081498007800B170
:1057C000012000EB0A01019801EBE07105984144CA
:1057D000401A401E0590E00306D45B462146179A06
:1057E000059800F05DF805441498007818B15A4601
:1057F000179990476D1CE00324D55B462146179A04
:10580000059800F04DF805441CE00498002807DBDB
:10581000DDE90301884203DD0098405C179901E04F
:10582000179930205A469047049805F10105401C0D
:1058300004900198401E019004D12E205A461799D9
:1058400090476D1CBAF10001AAF1010ADDDC05E008
:1058500017F8010B5A46179990476D1CB8F10001D3
:10586000A8F10108F4DC5B462146179A0598ABE6DF
:105870002D0000002B000000200000002DE9F04169
:10588000044600251E461746880404D405E0394620
:105890002020B0476D1C641EF9D52846BDE8F08174
:1058A0002DE9F041044600251E469046C80301D567
:1058B000302700E02027880404D505E0414638461B
:1058C000B0476D1C641EF9D52846BDE8F0814A68D2
:1058D000002A06D00A68531C0B6010704868401EEE
:1058E000486070470A68531C0B60107070470000D6
:1058F0002DE9F04D8D4F21F0004A86B005460C464B
:10590000BA452ADBAAEB070028430AD0884882451B
:1059100001DC1AD1CDB106B02846BDE8F04DFFF745
:1059200046BB844A844B2846FAF76BFE07460E4670
:10593000824A834B28462146FAF763FE06B03A4670
:105940003346BDE8F04DFAF7B5BD0120FFF758FB2F
:1059500006B0BDE8F04DFFF72FBB7A48824542DA2A
:10596000BAF1795F0BDA2846FFF7A4FA042808BFDA
:10597000FFF728FB284606B02146BDE8F08D2A46F1
:105980000B461046FAF73DFE834602466E480E4629
:105990000B4606217844FFF7B5FA5A463346FAF724
:1059A00030FE804669488A465A4633460421784488
:1059B000FFF7A8FA5A463346FAF723FE00223B4681
:1059C000FAF778FD02460B4640465146FBF790F841
:1059D0002A462346FAF715FE06B02A462346BDE8B6
:1059E000F04DFAF767BD284624F0004100223D46FD
:1059F0003B46FAF703FE4FF0FF32FBF7E8F80646A6
:105A0000024653480F460B4606217844FFF77AFAC0
:105A100032463B46FAF7F5FDCDE900014D483246E6
:105A20003B4604217844FFF76DFA32463B46FAF7CD
:105A3000E8FD00222B46FAF73DFD834602913046F1
:105A4000394603F0FFF8804643480D46504517DCC1
:105A5000DDE900015A46029BFBF74AF842462B4615
:105A6000FAF7CFFD42462B46FAF724FD0122FBF759
:105A7000AEF8304A304BFAF7BEFD304A304B4CE0BE
:105A80004FF0000A52460B464046FAF713FDCDE9A7
:105A9000031052462B4610461946FAF7B2FD32461D
:105AA0003B46FAF7ABFDDDE90332FBF721F806468A
:105AB0000F46DDE900015A46029BFBF719F88346C1
:105AC0000091012230463946FBF781F8194A1A4BFA
:105AD000FAF794FD06460F46012240462946FBF799
