:020000040800F2
:100000006068002035020008EF2500087B22000808
:10001000ED250008C30C0008D935000800000000D9
:1000200000000000000000000000000099310008FE
:10003000810D000800000000F12500089B31000838
:100040004F0200084F0200084F0200084F0200084C
:100050004F0200084F0200084F0200084F0200083C
:100060004F0200084F0200084F0200084F0200082C
:100070004F0200084F0200084F0200084F0200081C
:100080004F0200084F0200084F0200084F0200080C
:100090004F0200084F0200084F0200084F020008FC
:1000A000000000004F0200084F0200084F02000845
:1000B0004F0200084F020008113200084F020008EA
:1000C0004F0200084F0200084F0200084F020008CC
:1000D0004F020008AD3500084F0200084F0200082B
:1000E0004F0200084F0200084F0200084F020008AC
:1000F0004F020008000000004F0200084F020008F5
:1001000000000000000000004F0200084F0200083D
:100110004F0200084F0200084F02000800000000D4
:100120004F02000800F002F800F074F80AA090E80E
:10013000000C82448344AAF10107DA4501D100F0A2
:1001400069F8AFF2090EBAE80F0013F0010F18BFFB
:10015000FB1A43F001031847DC330300FC330300B0
:100160000A444FF0000C10F8013B13F0070408BFDD
:1001700010F8014B1D1108BF10F8015B641E05D07B
:1001800010F8016B641E01F8016BF9D113F0080F30
:100190001EBF10F8014BAD1C0C1B09D16D1E58BFC2
:1001A00001F801CBFAD505E014F8016B01F8016BF9
:1001B0006D1EF9D59142D6D370470000002300246C
:1001C00000250026103A28BF78C1FBD8520728BF67
:1001D00030C148BF0B607047642900F03D8175292C
:1001E00000F03A81782900F07381632900F0A78438
:1001F000732900F0AC84002070471FB500F016FC96
:1002000004000020002108F0BBF9401C60601FBD05
:1002100010B510BD00F018FD1146FFF7EEFF06F017
:10022000B8FC00F036FD03B4FFF7F2FF03BC04F0A6
:1002300036F800000948804709480047FEE7FEE716
:10024000FEE7FEE7FEE7FEE7FEE7FEE7FEE7FEE786
:1002500004480549054A064B704700000132000872
:1002600025010008606100206068002060630020B4
:10027000606300207047000010B500F0D7FB001D40
:1002800010BD00BFFD82000053EA020C00F069803F
:100290002DE9F04B4FF00006002B1FBFB3FA83F59A
:1002A00003FA05F424FA05F65E4012BF1643B2FACB
:1002B00082F502FA05F4C5F120051EBF22FA05FCFD
:1002C00044EA0C04203556EA044C4FEA144418BFA3
:1002D000641C4FF000084FF00009904271EB030CD2
:1002E00039D3002919BFB1FA81F701FA07F6B0FA3C
:1002F00080F700FA07F6C7F120071EBF20FA07FCB7
:1003000046EA0C062037B6FBF4FCA7EB0507103FC6
:1003100007F01F0BCBF120060CFA0BFB2CFA06F6AC
:1003200044BFB3460026202FA4BF5E464FF0000B0B
:100330005BEA060C08BF4FF0010B19EB0B09ABFB96
:10034000027C48EB0608C01B06FB02CC0BFB03CC6F
:1003500071EB0C01C1E70B46024641464846BDE839
:10036000F08B13B54FF000004FF00001AFF30080A9
:10037000BDE81C40704700000FB4044910B503AA43
:10038000029800F0E9FB10BC5DF814FB4801002066
:100390000FB41CB5074B06AA7B446946009005982C
:1003A00000F0ABFB0020694600F0BAFB1CBC5DF816
:1003B00014FB00008507000070B5044685690068DD
:1003C000C10601D5302600E02026C00707D070BD49
:1003D000D4E9012130469047206A401C20626D1EFE
:1003E000F6D570BD70B5044685690078C00707D1A1
:1003F00070BDD4E9012120209047206A401C206272
:100400006D1EF6D570BD70B50C460546012A05D0A7
:100410002878800600D5EA69002302E0012305E080
:100420005B1C934202D2E05C0028F9D1A869E6186F
:10043000C01AA861286A184428622846FFF7BCFF42
:1004400004E0D5E9012114F8010B9047B442F8D338
:100450002846FFF7C7FF70BD2DE9F041064600248E
:1004600010687529314616A510D0AFF3008000281A
:1004700002DA404213A507E031688A0701D512A5C8
:1004800002E0490704D511A5012401E0AFF3008083
:1004900000210A2206F1240709E0B0FBF2FCB0FBC0
:1004A000F2F302FB1C00303078541846491C002837
:1004B000F3D123462A463046BDE8F04100F0BEBAEB
:1004C000000000002D0000002B00000020000000B4
:1004D00070B504460D4621461068AFF300802188B0
:1004E000090502D50F4A7A4402E00E4A7A440E32D8
:1004F000002104F1240305E000F00F060009965DD9
:100500005E54491C0028F7D120780023000704D549
:10051000702D02D009B1022311322046BDE870408F
:1005200000F08CBA082D03002DE9F05F89460446DF
:100530004FF0000ADFF874B1FB44C0F820A0204659
:10054000E1688847002874D0252806D0D4E9012125
:100550009047206A401C2062F1E700265F46204653
:10056000E16888472028054607DB312D05D2781938
:1005700010F8200C08B10643F1E7B00701D526F0CA
:100580000406C4F81CA00027C4F818A02A2D09D01E
:10059000284603F07DFE38B304EB8708303DC8F8E9
:1005A000185019E059F8041B204604EB87029161AA
:1005B000E1688847012F054618D1E069002820DA54
:1005C00026F020061DE0D8F8180000EB800005EBAF
:1005D00040003038C8F818002046E16888470546D2
:1005E00003F056FE0028EED1012F0AD02E2D08D19F
:1005F0002046E16888477F1C0546022F46F020060A
:10060000C4DBA069002803DA404246F00106A0617D
:10061000F00701D026F010066C2D0BD0682D09D004
:100620004C2D39D06A2D35D0742D35D07A2D33D05C
:1006300016E038E0E1682F4620468847B842054674
:1006400009D16C2F26D04FF48060E1680643204624
:100650008847054604E06C2F1AD04FF4807006439B
:100660000DB3A5F14100192802D8203546F40066E3
:100670004A462946204626604E46FFF7ADFD80B12A
:1006800001280BD0F61D26F0070000F1080956E7F7
:100690004020E4E78020D8E70020D6E706F10409EF
:1006A0004DE7284652E7206ABDE8F09FDE2C0300A4
:1006B0002DE9F04791460F4680460446002614F87F
:1006C000015B2DB1FFF7D8FD0068405DC007F6D192
:1006D0002B2D02D02D2D18D0641E4A4639462046B7
:1006E00000F04CFA27B13968A14201D1C7F8008067
:1006F0004FF0020471050BD54042002803DD00F0E5
:1007000099F90460A007BDE8F08746F48066E4E745
:100710000028F8DA00F08EF904606FF00040F2E78C
:10072000401ECAB210F8011F8A4202D00029F9D136
:100730000020704740EA010310B59B070FD1042A3F
:100740000DD310C808C9121F9C42F8D020BA19BA9C
:10075000884201D9012010BD4FF0FF3010BD1AB101
:10076000D30703D0521C07E0002010BD10F8013B56
:1007700011F8014B1B1B07D110F8013B11F8014B7D
:100780001B1B01D1921EF1D1184610BD40EA010396
:10079000024630B59B0710D14FF0013400E008C28B
:1007A00008C91D1B9D4315EAC41FF8D013F0FF01B3
:1007B00002F8011B0DD01B0AF8E711F8013B002BD2
:1007C00002F8013B05D011F8013B002B02F8013B78
:1007D000F3D130BD10B5431C02E010F8011B71B11C
:1007E0008107FAD14FF0013202C88C1A8C4314EA07
:1007F000C211F9D0C01A0A0603D0C01E10BDC01A1B
:1008000010BD0A0401D0801E10BD0902FCD0401E9C
:1008100010BD032A40F2308010F0030C00F0158068
:1008200011F8013BBCF1020F624498BF11F801CBF3
:1008300000F8013B38BF11F8013BA2F1040298BF58
:1008400000F801CB38BF00F8013B11F0030300F0C2
:100850002580083AC0F0088051F8043B083A51F866
:1008600004CBA0E80810F5E7121D5CBF51F8043B6B
:1008700040F8043BAFF30080D20724BF11F8013BDE
:1008800011F801CB48BF11F8012B24BF00F8013B40
:1008900000F801CB48BF00F8012B704710B5203A93
:1008A000C0F00B80B1E81850203AA0E81850B1E829
:1008B0001850A0E81850BFF4F5AF5FEA027C24BFDF
:1008C000B1E81850A0E8185044BF18C918C0BDE8D6
:1008D00010405FEA827C24BF51F8043B40F8043B9F
:1008E00008BF7047D20728BF31F8023B48BF11F854
:1008F000012B28BF20F8023B48BF00F8012B7047AE
:1009000002F0FF0343EA032242EA024200F002B887
:100910004FF000020429C0F0128010F0030C00F028
:100920001B80CCF1040CBCF1020F18BF00F8012BA6
:10093000A8BF20F8022BA1EB0C0100F00DB85FEA74
:10094000C17C24BF00F8012B00F8012B48BF00F840
:10095000012B70474FF0000200B5134694469646AF
:10096000203922BFA0E80C50A0E80C50B1F12001C2
:10097000BFF4F7AF090728BFA0E80C5048BF0CC070
:100980005DF804EB890028BF40F8042B08BF7047CE
:1009900048BF20F8022B11F0804F18BF00F8012B40
:1009A000704700004FF0013C50F8042B51F8043B15
:1009B0009A4221D1A2EB0C03934313EACC1317D133
:1009C00050F8042B51F8043B9A4215D1A2EB0C03CA
:1009D000934313EACC130BD150F8042B51F8043B8A
:1009E0009A4209D1A2EB0C03934313EACC13DBD058
:1009F0004FF00000704700BFD01A01BAB1FA81F180
:100A000001F0180122FA01F0CB40C1F12001DBB264
:100A1000C0B2C01A2CFA01F3D11A914311EAC311E2
:100A2000E6D170477047704770477047004870477D
:100A30001C61002000487047FC6000202DE9F04751
:100A40000D4699469246044600F12408016888063E
:100A500004D5E06921F01001216000E00120A842E6
:100A600001DD471B00E00027A1697A1902EB0900AC
:100A7000081AA0612078C00602D42046FFF79CFC2B
:100A8000002608E0D4E901211AF806009047206A00
:100A9000401C761C20624E45F4DB2078C0060AD547
:100AA0002046FFF789FC06E0D4E901213020904779
:100AB000206A401C2062381EA7F10107F4DC07E021
:100AC000D4E9012118F805009047206A401C2062F3
:100AD000281EA5F10105F3DC2046FFF783FC2078F2
:100AE000000602D50220BDE8F0870120FBE70000E8
:100AF00001694A1C02610878704700B58FB0CDE9E2
:100B000001310021059105497944CDE903101146D1
:100B10006846FFF709FD0FB000BD0000E5FFFFFFCD
:100B20000A6802F8010B0A60704710B5436913B1F7
:100B3000AFF3008001E0FFF766FC012010BD1278E2
:100B400000F124010A7000224A700122EDE71168C9
:100B50004FF0FF32E9E70000074B70B50D467B44CC
:100B6000FFF7CBFF0446284600F06AF810B14FF0BB
:100B7000FF3070BD204670BDC75B00002DE9F05FFF
:100B8000824615468B4600270AF10104B9460078D3
:100B9000302801D09DB113E014F8010B012778280B
:100BA00003D0582801D045B10AE00DB1102D07D16E
:100BB000002714F8010B102502E0082500E00A25A3
:100BC0000026B0460EE005FB080005FB06F10127F4
:100BD0001FFA80F801EB1046B6F5803F00D3B94606
:100BE00014F8010B294600F01DF80028EBDABBF1E0
:100BF000000F05D00FB1641E00E05446CBF8004052
:100C0000B9F1000F06D0FFF715FF02210160C81EE1
:100C1000BDE8F09F48EA0640FAE700000048704748
:100C2000FC6000203A2800D2303820F02002412A0F
:100C300001D3A2F13700884201D34FF0FF30704753
:100C4000007B00F0800070477546FFF7E7FFAE4677
:100C500005006946534620F00700854618B020B5C8
:100C6000FFF7F6FABDE820404FF000064FF000070E
:100C70004FF000084FF0000B21F00701AC46ACE844
:100C8000C009ACE8C009ACE8C009ACE8C0098D46B1
:100C9000704710B50446AFF300802046BDE8104011
:100CA000FFF7C1BA10B507E003780C78A34201D072
:100CB000002010BD401C491C521E92B2F4D20120EB
:100CC00010BDFEE710B5B8B002F028FB01F0DEFA67
:100CD00001F08FFC202219491AA8FFF7DFFD174900
:100CE0003622203122A8FFF7D9FD144CB4F8560063
:100CF000ADF8BE0054F8580F3090A088ADF8C4008D
:100D0000E088ADF8C6000D491122603132A8FFF726
:100D1000C5FD607E8DF8D900E069379068221EA974
:100D20006846FFF7BBFD1AAC94E80F0001F0BBFF6B
:100D300038B00120BDE8104000F04EB9400000205E
:100D4000FFF7C0FF00F000F805A0FFF715FB07A0B4
:100D5000FFF712FB06F09AF804F08CF9FAE70000AE
:100D6000C6F4B6AFB3C9B9A6210D0A00CBC4BCBE48
:100D70002D4C3135312DBACBD0C40D0A0000000006
:100D8000704772B6FEE7000010B5044601220BA1C1
:100D9000002004F06BFF0A49087040B109A0FFF77A
:100DA000EBFA002C08D00EA0FFF7E6FAFEE7BDE84C
:100DB000104011A0FFF7E0BA10BD0000313A00006A
:100DC000D40200206661696C20746F20756E6D6FAF
:100DD000756E742066617466732E0D0A0000000043
:100DE0006E6F772069742069732070617573656414
:100DF0002E2E2E0D0A000000737563636565642056
:100E0000746F20756E6D6F756E7420666174667395
:100E10002E0D0A0070B5064614460D46114804F022
:100E20001FFB314610A0FFF7A7FA304605F08AFAFB
:100E300013490870314638B112A0FFF79DFA64B12A
:100E400016A0FFF799FAFEE71AA0FFF795FA25B169
:100E50001FA0FFF791FA00F0D7F9BDE870400148F4
:100E600004F0FEBA4C49002074727920746F20643B
:100E7000656C657465205B25735D2E0D0A000000AE
:100E8000D40200206661696C20746F20665F756E05
:100E90006C696E6B205B25735D0D0A006E6F7720A9
:100EA0006974206973207061757365642E2E2E0D30
:100EB0000A0000007375636365656420746F2064C5
:100EC000656C657465205B25735D2E0D0A0000005E
:100ED0006E6F77207363616E2066696C6573207432
:100EE0006F20636865636B202D3E0D0A00000000D3
:100EF000F0B50746002589B0294620A000F0E4F8A7
:100F000042F21176002809DD142201A91BA005F088
:100F100087FD314601A805F0F1FDC5B21B4C002F3D
:100F200028D028004FF000074FF0FF3510D00A22DC
:100F3000002101A8FFF7BCFB401C0246606014A121
:100F400006A8FFF725FA00232A4606A9009704E021
:100F5000666001232A4610A1009708A000F070F9EE
:100F60000FA06168FFF708FA606807F01FFBE060F8
:100F700009B0F0BD01A911A0F4E70000313A2F6DCE
:100F8000795F696E6465782E63737600D402002001
:100F90000D0A2564000000000D0A313030303100A8
:100FA0005B46415446535F496E6465785F43757292
:100FB00072656E743A2025645D0D0A005B464154EB
:100FC00046535F496E6465785F43757272656E74EF
:100FD0003A2025735D0D0A0010B5044601220BA1CD
:100FE0000B4804F043FE0B49087040B10AA0FFF71C
:100FF000C3F9002C08D00EA0FFF7BEF9FEE7BDE84C
:10100000104011A0FFF7B8B910BD0000313A000040
:1010100014390020D40200206661696C20746F20AE
:101020006D6F756E742066617466732E0D0A000014
:101030006E6F7720697420697320706175736564C1
:101040002E2E2E0D0A000000737563636565642003
:10105000746F206D6F756E742066617466732E0DEB
:101060000A00000000B587B00020FFF7B5FF00F0D0
:10107000CBF818220CA101A8FFF710FC00220121D7
:1010800001A8FFF7C7FE012101A800F01DF800200C
:10109000421E009001230AA101A800F0D1F800200F
:1010A000FFF772FE07B000BD313A2F5465737444E8
:1010B00069722F7465737466696C652E7478740038
:1010C0000D0A3130303031002DE9F0410E4607462F
:1010D000014613221E4804F0EDFD1E4C021E207036
:1010E00002D039461CA00FE019483946C56824A033
:1010F0002A46FFF741F90021154804F0C0F9207095
:10110000021E04D0394623A0FFF736F91AE04FF447
:1011100000712A48FFF71EFC0E4B2A460833274968
:101120000B4804F0EDFF207020B1394624A0FFF7F2
:1011300023F907E036B1214927A0FFF71DF930A0B8
:10114000FFF71AF9024804F08BF92846BDE8F08150
:101150004C490020D40200206661696C20746F2025
:10116000665F6F70656E205B25735D2C2072657302
:10117000756C74206973205B25645D2E0D0A000078
:101180005B25735D2073697A653A2025642E0D0A0C
:10119000000000006661696C20746F20665F6C73EC
:1011A00065656B205B25735D2C20726573756C74AF
:1011B000206973205B25645D2E0D0A00DC59002038
:1011C0006661696C20746F20665F72656164205B84
:1011D00025735D0D0A00000066696C6520636F6E03
:1011E00074656E742061726520617320666F6C6C2B
:1011F0006F773A200D0A3E3E3E0D0A25730000002F
:101200000D0A3C3C3C0D0A0010B506A0FFF7B4F8EF
:1012100009A10A48FFF7BAFABDE81040074806F0EE
:10122000B3B800007363616E696E672066696C65B0
:10123000732E2E2E0D0A0000313A0000785900203E
:101240002DE9FF410A9D1F4616468846012D11D003
:10125000022D0FD0032D02D0264804F001F91322ED
:101260002448009904F026FD234C207060B16946A3
:1012700022A029E01F4804F031FE012D02D11D48B3
:1012800004F0EEF8BDE8FF81B6F1FF3F05DA132068
:10129000207020A0FFF770F806E0701C09D03146DE
:1012A000144804F0ECF82070207828B1694622A098
:1012B0000AE01048C168F3E741460E4804F00EFE0C
:1012C000207820B1694622A0FFF756F8D7E7032D12
:1012D000D8D0084804F0C4F823A0FFF74DF8002F39
:1012E000CDD026A0FFF748F801210098FFF7ECFECB
:1012F000C5E700004C490020D40200206661696CFB
:1013000020746F20665F6F70656E205B25735D0DC6
:101310000A00000074686520777269746520706F38
:10132000736974696F6E20697320696E76616C6988
:10133000642E0D0A000000006661696C20746F2045
:10134000665F6C7365656B205B25735D0D0A00003D
:101350006661696C20746F20665F7072696E746676
:10136000205B25735D0D0A007772697465206973CF
:1013700020737563636565642E0D0A006E6F7720B8
:1013800072656164206974202D3E0D0A0000000022
:1013900010B590F821100024022903D004218163A4
:1013A00001241AE001680A6822F00E020A6001684E
:1013B0000A6822F001020A6090F84010C36B01F045
:1013C0001C02012101FA02F25A6080F8211000216A
:1013D00080F82010416B01B18847204610BD000005
:1013E0002DE9FC4FDFF894A1002301250AF1040B3D
:1013F00003244FF00F0C0BF1040EB8E005FA03F6CE
:10140000324071D04F68012F05D0022F03D0112F29
:1014100001D0122F17D1D0F808905F0004FA07F816
:1014200029EA08090097D1F80C8008FA07F848EA79
:101430000908C0F808804768B7430E79C6F300165C
:101440009E403E434660C6684FEA430804FA08F7E8
:10145000BE4301978F6807FA08F73743C7604E68A5
:10146000022E01D0122E13D1DE0800EB8606009664
:10147000366A5F07FF0E0CFA07F926EA0906D1F86B
:10148000109009FA07F949EA0609009EC6F820906B
:101490000768019EB7430E7906F0030606FA08F6C0
:1014A0003E4306604E68F60060D5354E376847F01B
:1014B00001073760366823F0030706F0010600963F
:1014C000304E3E44B146B6689F074FEA17780CFA93
:1014D00008F7BE432C4FB84201D1002715E02B4F2F
:1014E000B84202D1012710E040E0294FB84201D1B3
:1014F00002270AE0274FB84201D1032705E0264F13
:10150000B84201D1042700E0052707FA08F737435E
:10151000C9F80870DAF800705646D1F8048097438D
:101520005FEAC83800D517433760DBF800605F46D4
:10153000D1F8048096435FEA883800D516433E60B0
:10154000DEF800607746D1F8048096435FEAC82849
:1015500000D516433E60094F0C373E68D1F8048031
:1015600096435FEA882800D516433E605B1C0A68F4
:1015700032FA03F67FF442AFBDE8FC8F000401406D
:1015800020380240000001400000024000040240F8
:1015900000080240000C02400010024000690840B0
:1015A00000D0012070470AB1816170470904FBE750
:1015B00001488068704700000000002002488168F0
:1015C00042681144816070470000002010B500247B
:1015D000032000F07DF8032000F008F808B1012492
:1015E00001E000F025F8204610BD000070B50E4E59
:1015F00005460024706898B14FF47A71B1FBF0F0A1
:101600000A490968B1FBF0F000F05CFC40B9102D0C
:1016100006D200222946501E00F03AF8356000E05C
:101620000124204670BD0000000000200C000020B6
:101630000F4882B0016841F000410160016801F08B
:1016400000410091011F0A6842F001020A60096826
:1016500001F001010091016841F0805101600068D2
:1016600000F080500090052002B000F031B800007A
:1016700024380240002809DB00F01F0201219140BC
:101680004009800000F1E020C0F800117047000020
:10169000F0B40E4B1B680C46C3F30223C3F10705DD
:1016A000042D00D90425191D072901D2002300E0CB
:1016B000DB1E012606FA05F1491E214099409E4095
:1016C000761E16403143F0BC02F0D2BD0CED00E0B6
:1016D000064900F0070208684FF6FF03184040EA89
:1016E0000220034A10430860704700000CED00E040
:1016F0000000FA05BFF34F8F05480168054A01F461
:10170000E06111430160BFF34F8F00BFFDE70000B0
:101710000CED00E00400FA052DE9F0470E46050047
:1017200079D0DFF88481D8F8000000F00100B042E1
:1017300014D2012E05D1D8F8001041F00401C8F8E8
:101740000010D8F8001021F001013143C8F8001052
:10175000D8F8000000F00100B0425CD12878534C6A
:10176000800705D52068A96820F0F00008432060B4
:101770002878C0075CD04D496868083902281AD01B
:1017800003281BD0096801281BD08905002966DAC7
:10179000216821F0030101432160FFF709FF696817
:1017A000074641F28830022914D0032920D00129AC
:1017B00081462AD038E009688903E7E7096889018A
:1017C000E4E78907E2E700BFFFF7F2FEC11B4945E6
:1017D00001D926E081462068C0F381000228F3D1B8
:1017E00026E000BFFFF7E4FEC11B494501D918E020
:1017F00081462068C0F381000328F3D118E000BFC0
:10180000FFF7D6FEC11B49450BD82068C0F3810005
:101810000128F5D10CE022E0FFF7CAFEC11B4945C3
:1018200002D90320BDE8F087206810F00C0FF3D137
:10183000D8F80010404601F00101B14211D9012E43
:1018400003D1016841F004010160016821F0010148
:1018500031430160006800F00100B04201D0012076
:10186000E0E72878400705D52068E96820F4E060C3
:10187000084320602878000706D52068296920F4ED
:10188000605040EAC100206000F038F82168084A42
:10189000C1F30311515CC84006490860064800685E
:1018A000BDE8F047FFF7A2BE003C02400838024006
:1018B000E58500080C0000200000002004480549D0
:1018C00000680968044AC1F30221515CC8407047AE
:1018D0000C00002008380240F5850008044805493E
:1018E00000680968044AC1F3C221515CC8407047CE
:1018F0000C00002008380240F585000870B5154D31
:101900002968154801F00C02042A0CD04410082A5A
:101910000AD00C2A0AD0281F0068C0F342314FF4C5
:101920000040491C884070BD204670BD0B4AC1F381
:101930008343D35CC1F381522968521CC90302D589
:10194000A3FB040101E0A3FB00010023FEF79CFCC4
:1019500070BD0000083802400024F400DC85000857
:101960002DE9F84F04007DD0FC480168006801F0C3
:101970000C0700F480362078F94DC00741D0082FBD
:1019800012D00C2F02D1B6F5803F0DD0606801282F
:1019900011D008B1052818D0286820F480302860BC
:1019A000286820F4802009E02868800329D5606831
:1019B0000028D8D025E0286840F48030286060688E
:1019C00090B1FFF7F5FD80460AE0286840F48020DA
:1019D0002860F0E7FFF7ECFDA0EB080064287BD857
:1019E00028688003F6D50CE0FFF7E2FD804605E0AD
:1019F000FFF7DEFDA0EB08006428F0D8286880031C
:101A0000F6D42078DFF85CB3DFF85C8380074FF012
:101A100001094FF0000A35D5042F0AD00C2F00D150
:101A20003EB1E068F8B1C8F80090FFF7C1FD064686
:101A30000BE0286880070BD5E068012812D107E089
:101A4000FFF7B6FD801B0228C9D828688007F7D5A4
:101A5000DBF80010226921F4F85141EA0221CBF8A9
:101A600000100FE077E1C8F800A0FFF7A1FD0646DF
:101A700005E000BFFFF79CFD801B0228AFD8286857
:101A80008007F7D42078C00674D53FB1A069E0B3D1
:101A9000C8F82090FFF78CFD06464AE028688005CC
:101AA00002D5A069002884D0206ADBF800105E46C9
:101AB00001F46041884210D900F0ACFD0028BDD18E
:101AC0003068216A20F4604008433060217F30682C
:101AD00061F31F6030600FE096E0316821F46041EF
:101AE00001433160217F306861F31F603060206AFC
:101AF00000F090FD0028A1D1216A4FF4004009EBCD
:101B0000513188409549096800E025E0974AC1F3C2
:101B10000311515CC8409649086096480068FFF779
:101B200065FD00286FD125E0FFF742FD801B0228EC
:101B30006AD828688005F7D5DBF80010226A21F4FE
:101B400060411143CBF80010227FDBF8001062F3F4
:101B50001F61CBF800100DE0C8F820A0FFF728FDAA
:101B6000064604E0FFF724FD801B02284CD82868B5
:101B70008005F7D42078804E000722D57F48616920
:101B800081B1C0F80090FFF713FD834606E000BF67
:101B9000FFF70EFDA0EB0B00022835D83068800758
:101BA000F6D50EE0C0F800A0FFF702FD834605E081
:101BB000FFF7FEFCA0EB0B00022825D83068800759
:101BC000F6D4207840076DD56B484FF0000B1038E5
:101BD0000068C0000BD468481038016841F080519B
:101BE000016000684FF0010B00F0805000906448E5
:101BF0000168C90514D4016841F480710160FFF7E0
:101C0000D7FC009008E08DE079E000BFFFF7D0FC42
:101C10000099401A642872D859480068C005F5D563
:101C2000A06801280AD008B1052811D0306820F436
:101C300080703060306820F4806002E0306840F4EA
:101C400080703060A068A8B1FFF7B2FC00900DE092
:101C5000306840F480603060F0E700BFFFF7A8FC18
:101C60000099411A41F2883081425AD83068800583
:101C7000F4D50EE0FFF79CFC009007E0FFF798FC1E
:101C80000099411A41F2883081424AD83068800573
:101C9000F4D4BBF1000F05D037481038016821F0AB
:101CA00080510160606A58B30C2F41D00228504621
:101CB00005D0C8F86000FFF77BFC044634E04746D7
:101CC000C8F86000FFF774FC064604E0FFF770FCFC
:101CD000801B022825D828688001F7D4D4E90A108F
:101CE00001431E48226B036823F47D031A4311430A
:101CF0000160C7F86090FFF75BFC044607E010E066
:101D000040E000BFFFF754FC001B022809D82868F8
:101D10008001F7D536E000BFFFF74AFC001B022820
:101D200002D90320BDE8F88F28688001F4D429E0A7
:101D30000128F7D009480068A26A00F48031914276
:101D400009D1E26A00F47011914204D1216B00F4D0
:101D50004000884216D00120E4E700000838024025
:101D6000003802400438024000004742E585000880
:101D70000C0000200000002034380240800647425A
:101D8000007000400020CDE770B5040009D0606A03
:101D9000002540B125616561A56294F8510040B10C
:101DA0000CE0012070BD6068B0F5827FF4D0E56181
:101DB000F2E784F85050204600F044F8022084F8FE
:101DC00051002068016821F040010160A08821894C
:101DD00000F4827001F404410843A18901F4006118
:101DE0000843217C01F002010843217D01F001013B
:101DF0000843218B01F400710843217F01F0380171
:101E0000084394F8201001F080010843218D01F46B
:101E10000051084321680860A069042101EA1040CC
:101E200094F8241001F010010843216848602068EC
:101E3000C16921F40061C1616565012084F8510028
:101E4000002070BD10B586B0044614216846FEF728
:101E500081FD13492068884220D11248016841F46D
:101E600080510160006800F4805005900D48001F0B
:101E7000016841F0010101600068694600F001005D
:101E80000590E020009002200190002002900320A5
:101E90000390052004900448FFF7A2FA06B010BD95
:101EA0000030014020380240000002404FF0E021A5
:101EB0000428086903D020F004000861704740F04E
:101EC0000400FAE710B5401EB0F1807F01D3012075
:101ED00010BD4FF0E02460610F21601702F0C8F9D7
:101EE0000020A06107202061002010BD10B5040073
:101EF00003D094F8390010B107E0012010BD002094
:101F000084F83800204600F017F8022084F83900E1
:101F1000211D206801F096F9012084F83E0084F824
:101F20003A0084F83B0084F83C0084F83D0084F8D3
:101F30003900002010BD000008B500680B49884238
:101F400012D10B48016841F00401016000680322CE
:101F500000F00400009011461E20FFF799FBBDE839
:101F600008401E20FFF786BB08BD000000080040A7
:101F70002438024090F83910012901D0012070471F
:101F8000022180F839100168CA6842F00102CA6073
:101F90000068B0F1804F08D00949884205D009494E
:101FA000884202D00849884204D1816801F00701C3
:101FB000062903D0016841F001010160002070474B
:101FC000000400400008004000080140704710F87D
:101FD000391F40780843704770B50268044610689E
:101FE000D168536910F00F0F53D003F0010501F4CD
:101FF00090762E435FD0C20705D0CA0503D5E26BA9
:1020000042F00102E263420705D5DA0703D0E26B32
:1020100042F00202E263820705D5DA0703D0E26BE1
:1020200042F00402E263020707D501F020022A43CE
:1020300003D0E26B42F00802E263E26B002A34D084
:10204000800604D5880602D5204601F0A3F9206851
:102050004069E16BC0F3801001F0080101432046A4
:1020600024D001F089F92068416949061AD54169EF
:1020700021F040014161606BA0B11B494163606B7D
:10208000FFF786F9002810D0606B416BBDE8704007
:10209000084783060FD58B060DD52046BDE8704056
:1020A00001F078B92046FFF791FF70BDFFF78EFF72
:1020B0000020E06370BD030606D50B0604D520465C
:1020C000BDE8704001F040BA4006F3D54806F1D5AE
:1020D000D168204621F04001D160202184F83910D8
:1020E00000F0CAF870BD00006933000870B5040044
:1020F00004D094F83900002510B106E0012070BD2D
:1021000084F83850204600F023F8242084F8390061
:102110002068C16821F40051C160204601F086F9B1
:102120002068016921F4904101612068416921F032
:102130002A0141612068C16841F40051C160E56332
:10214000202084F8390084F83A00002070BD000097
:1021500010B586B0044614216846FEF7FBFB18490B
:102160002068884229D11748016841F48041016004
:10217000006800F4804005901248001F016841F09B
:10218000010101600068694600F0010005904FF40C
:10219000C060009002200190012002900320039073
:1021A000072004900848FFF71BF903221146252059
:1021B000FFF76EFA2520FFF75DFA06B010BD0000AC
:1021C00000380140203802400000024090F83A30C8
:1021D000202B22D1F9B1F2B190F83830012B1CD06C
:1021E00081628285C2850021C163222280F83A2063
:1021F00080F838100168CA6842F48072CA600168C9
:102200004A6942F001024A610068C16841F0200158
:10221000C160002070470120704702207047000015
:1022200030B50068114988420CD1114841880A0430
:1022300008D402464C0412784FF0000306D50A2A4F
:1022400001D0438030BD41F400410DE00D2A09D09A
:10225000C1F30D04074D491C89B22A554180C72995
:10226000EFD830BD41F48041418030BD003801409D
:1022700044010020CC3700207047FEE713460A4691
:102280000146014800F022B82C00002000B587B0BC
:1022900014216846FEF75EFB0A48016841F002011E
:1022A00001600068694600F002000590C0200090BF
:1022B000012001900290032003900348FFF790F85B
:1022C00007B000BD1C380240000402402DE9F04177
:1022D0001D4616460C46074600F022F821463846B1
:1022E00000F081F8384600F055F810B1384600F09B
:1022F00034F83146384600F076F8384600F04AF8AF
:102300002946384600F06FF8384600F043F810B11F
:10231000384600F022F83846BDE8F04100F01DB81C
:1023200010B50446012100F08EF80121204600F08E
:10233000A4F80121204600F09AF8022002F0CEFA1B
:102340000021204600F099F8022002F0C7FA20464A
:10235000BDE81040002100F08AB810B50446012104
:1023600000F071F80021204600F081F8002120469D
:1023700000F083F8022002F0B1FA0121204600F0BB
:1023800076F80121204600F078F8BDE810400220E0
:1023900002F0A4BA70B500240546214600F053F8B7
:1023A0000121284600F069F8022002F097FA012185
:1023B000284600F05CF8022002F090FA08E0641C65
:1023C000E4B2FA2C04D92846FFF7C7FF012070BDFC
:1023D000284600F048F80028F1D10021284600F0F6
:1023E00046F8002070BD70B50C460646012100F08D
:1023F0002AF80021304600F03AF80025200601D5E1
:10240000012100E00021304600F037F86006040E9C
:10241000022002F063FA0121304600F028F8022081
:1024200002F05CFA0021304600F021F8022002F0B0
:1024300055FA6D1CEDB2082DE0D33046BDE8704072
:10244000012100F01AB800B585B00222039202897A
:102450000092012900D000210191C0686946FEF771
:10246000BFFF05B000BD0189C068FFF797B80388BA
:102470000A4640681946FFF796B803890A46C068BD
:102480001946FFF790B8FFF7F9BE00002DE9F043B9
:1024900087B014216846FEF75DFA2B48016841F0C9
:1024A00004010160016801F004010591016841F037
:1024B00020010160016801F020010591016841F0EF
:1024C00001010160016801F001010591016841F01D
:1024D000020101600068012200F002001B4F54035A
:1024E000059021463846FFF75EF8DFF86480002249
:1024F00010214046FFF757F8DFF858900122C0211D
:102500004846FFF750F81125CDE900450124032680
:10251000CDE9024669463846FEF762FF1020CDE954
:1025200000040294694640460394FEF759FFC02018
:10253000CDE90005CDE9024669464846FEF750FF61
:1025400007B0BDE8F08300001C38024000080240DC
:10255000000002400004024070B51B4C19480C21D9
:1025600020604FF4E13060600020A060E060C4E9CA
:102570000401A061E0612046FFF7B8FD08B1FEF755
:1025800000FC262210491148FEF788F9E08C0F4D17
:10259000E884A06AA862A08DA885E08DE8850A4934
:1025A0000922303105F13000FEF778F994F839004E
:1025B00085F8390094F83A0085F83A00E06BE86352
:1025C00070BD000000380140F00200209438002067
:1025D000427A01884068FEF7E6BF027A01884068C7
:1025E000FEF7E1BF01884068FEF7D8BFFEE7FEE7CF
:1025F000704710B501220B211A20FFF744FF1D225E
:1026000009211A20FFF73FFFBDE810400A2002F021
:1026100057B9000038B51C49002309681B4A11F05E
:10262000F00F23D118491C310C68E500184C03D574
:10263000216801F4C0540EE00D6845F080550D602E
:102640000D6805F08055009524680D6804F4C054A9
:1026500025F080550D60B4F5C05F07D1B0F5404F4F
:1026600004D11068012340F004001060106820F0CD
:10267000010018431060106800F00100984201D07A
:10268000012038BD002038BD08380240003C02401F
:10269000007000400FB420222DE9F041BAB040A9EB
:1026A000DDE95E541BA8609EFEF7F8F848A93622C3
:1026B000884623A8FEF7F2F8BDF85601ADF8C2002F
:1026C00056983190BDF85C01ADF8C800BDF85E01C8
:1026D000ADF8CA0058A911220F4633A8FEF7DEF85C
:1026E0009DF871018DF8DD005D98389000201A90FA
:1026F00068221FA96846FEF7D1F80DF16C0C9CE822
:102700000F0000F085FC202240A91BA8FEF7C6F8A8
:102710003622414623A8FEF7C1F8BDF85601ADF8B0
:10272000C20056983190BDF85C01ADF8C800BDF804
:102730005E01ADF8CA001122394633A8FEF7AEF8A3
:102740009DF871018DF8DD005D98389003201A9096
:1027500068221FA96846FEF7A1F80DF16C0C9CE8F1
:102760000F0000F07DFC202240A91BA8FEF796F880
:102770003622414623A8FEF791F8BDF85601ADF880
:10278000C20056983190BDF85C01ADF8C800BDF8A4
:102790005E01ADF8CA001122394633A8FEF77EF873
:1027A0009DF871018DF8DD005D983890C6F3074003
:1027B0001A9068221FA96846FEF770F80DF16C0C9C
:1027C0009CE80F0000F04CFC202240A91BA8FEF75B
:1027D00065F83622414623A8FEF760F8BDF8560199
:1027E000ADF8C20056983190BDF85C01ADF8C80054
:1027F000BDF85E01ADF8CA001122394633A8FEF7D4
:102800004DF89DF871018DF8DD005D983890C6F3A4
:1028100007201A9068221FA96846FEF73FF80DF1BD
:102820006C0C9CE80F0000F01BFC202240A91BA8A8
:10283000FEF734F83622414623A8FEF72FF8BDF8FC
:102840005601ADF8C20056983190BDF85C01ADF864
:10285000C800BDF85E01ADF8CA001122394633A8A0
:10286000FEF71CF89DF871018DF8DD005D98389039
:10287000F0B21A9068221FA96846FEF70FF80DF112
:102880006C0C9CE80F0000F0EBFB2DE0FEF706F867
:102890003622414623A8FEF701F8BDF85601ADF8EF
:1028A000C20056983190BDF85C01ADF8C800BDF883
:1028B0005E01ADF8CA001122394633A8FDF7EEFFDC
:1028C0009DF871018DF8DD005D983890FF201A9019
:1028D00068221FA96846FDF7E1FF1BAE96E80F00CE
:1028E00000F0BEFB05F8010B641EA4B24FF02002FD
:1028F00040A91BA8CAD2FDF7D1FF3622414623A822
:10290000FDF7CCFFBDF85601ADF8C20056983190E6
:10291000BDF85C01ADF8C800BDF85E01ADF8CA00B5
:102920001122394633A8FDF7B9FF9DF871018DF8E2
:10293000DD005D98389001201A9068221FA9684632
:10294000FDF7ACFF1BAC94E80F0000F061FB3AB060
:10295000BDE8F0015DF814FB0FB42DE9F04FBDB0F8
:102960005EAADDE9658414F0FF01C1F10000C6B282
:10297000649DBDF874914EA8CDE93B204FEA18271D
:1029800008F0FF0A3ED0E0B24042C0B204EB000BB8
:10299000002F78D0A8EB060080B2070A00F0FF08ED
:1029A000202246A91DA8FDF779FF362225A83C99CB
:1029B000FDF774FFBDF86E01ADF8CA005C98339066
:1029C000BDF87601ADF8D090ADF8D200112235A84F
:1029D0003B99FDF763FF9DF889018DF8E500639849
:1029E0003A901A95CDE91B64682221A96846FDF743
:1029F00055FF0DF1740A9AE80F0000F081F95C466A
:102A000035441FE1F7BB202246A91DA8FDF746FF6C
:102A1000362225A83C99FDF741FFBDF86E01ADF8BF
:102A2000CA005C983390ADF8D09026E1FDF736FFF0
:102A3000362225A83C99FDF731FFBDF86E01ADF8AF
:102A4000CA005C983390BDF87401ADF8D000BDF8B1
:102A50007601ADF8D200112235A83B99FDF71EFF93
:102A60009DF889018DF8E50063983A904FF48070E5
:102A70001A95CDE91B04682221A96846FDF70EFFCF
:102A80001DAE01E008E042E096E80F0000F038F9E2
:102A900004F5807405F580757F1EFFB24FF02002AB
:102AA00046A91DA8C2D2FDF7F9FE362225A83C99F9
:102AB000FDF7F4FEBDF86E01ADF8CA005C983390E6
:102AC000BDF87401ADF8D000BDF87601ADF8D200C4
:102AD000112235A83B99FDF7E1FE9DF889018DF89B
:102AE000E50063983A901A95CDE91BA4682221A9C4
:102AF000684600BFFDF7D2FE1DAE96E80F0000BF8E
:102B000000F0FEF83DB0BDE8F00F5DF814FBB245F3
:102B10007FF679AFAAEB0600C7B2202246A91DA80E
:102B2000FDF7BCFE362225A83C99FDF7B7FEBDF89F
:102B30006E01ADF8CA005C983390BDF87601ADF82F
:102B4000D090ADF8D200112235A83B99FDF7A6FE32
:102B50009DF889018DF8E50063983A901A95CDE9C2
:102B60001B64682221A96846FDF798FE0DF17408E0
:102B700098E80F0000F0C4F85C463544202246A9CE
:102B80001DA8FDF78BFE362225A83C99FDF786FE91
:102B9000BDF86E01ADF8CA005C983390BDF87401C1
:102BA000ADF8D000BDF87601ADF8D200112235A8FD
:102BB0003B99FDF773FE9DF889018DF8E500639858
:102BC0003A901A95CDE91B74682221A96846FDF751
:102BD00065FE98E80F0093E7202246A91DA8FDF79F
:102BE0005DFE362225A83C99FDF758FEBDF86E0122
:102BF000ADF8CA005C983390BDF87401ADF8D00010
:102C0000BDF87601ADF8D200112235A83B99FDF749
:102C100045FE9DF889018DF8E50063983A904FF4E0
:102C200080701A95CDE91B04682221A96846FDF73A
:102C300035FE1DAE96E80F0000F062F804F58074D2
:102C400005F580757F1EFFB2C6D2B8F1000F3FF4C4
:102C500059AF202246A91DA8FDF720FE362225A83F
:102C60003C99FDF71BFEBDF86E01ADF8CA005C98FB
:102C70003390BDF87401ADF8D000BDF87601ADF821
:102C8000D200112235A83B99FDF708FE9DF8890175
:102C90008DF8E50063983A901A95CDE91B84682277
:102CA00021A9684626E70FB4362200B597B020A9BF
:102CB0006846FDF7F3FDBDF8B600ADF836002E9876
:102CC0000E90BDF8BC00ADF83C00BDF8BE00ADF8FC
:102CD0003E00112230A910A8FDF7E0FD9DF8D100BB
:102CE0008DF85100359815906846FFF74DF800981B
:102CF0000068009940F04000086017B05DF814FBD0
:102D00000FB42DE9F041BAB0DDE95F455E9E01F0F8
:102D100019FA202240A91BA8FDF7C0FD48A93622B8
:102D2000884623A8FDF7BAFDBDF85601ADF8C200EC
:102D300056983190BDF85C01ADF8C800BDF85E0151
:102D4000ADF8CA0058A911220F4633A8FDF7A6FD19
:102D50009DF871018DF8DD005D98389000201A9083
:102D600068221FA96846FDF799FD0DF16C0C9CE8DF
:102D70000F0000F04DF9202240A91BA8FDF78EFDA1
:102D80003622414623A8FDF789FDBDF85601ADF86E
:102D9000C20056983190BDF85C01ADF8C800BDF88E
:102DA0005E01ADF8CA001122394633A8FDF776FD61
:102DB0009DF871018DF8DD005D98389002201A9021
:102DC00068221FA96846FDF769FD0DF16C0C9CE8AF
:102DD0000F0000F045F9202240A91BA8FDF75EFD79
:102DE0003622414623A8FDF759FDBDF85601ADF83E
:102DF000C20056983190BDF85C01ADF8C800BDF82E
:102E00005E01ADF8CA001122394633A8FDF746FD30
:102E10009DF871018DF8DD005D983890C5F307408D
:102E20001A9068221FA96846FDF738FD0DF16C0C59
:102E30009CE80F0000F014F9202240A91BA8FDF720
:102E40002DFD3622414623A8FDF728FDBDF8560189
:102E5000ADF8C20056983190BDF85C01ADF8C800DD
:102E6000BDF85E01ADF8CA001122394633A8FDF75E
:102E700015FD9DF871018DF8DD005D983890C5F362
:102E800007201A9068221FA96846FDF707FD0DF17B
:102E90006C0C9CE80F0000F0E3F8202240A91BA86E
:102EA000FDF7FCFC3622414623A8FDF7F7FCBDF8F0
:102EB0005601ADF8C20056983190BDF85C01ADF8EE
:102EC000C800BDF85E01ADF8CA001122394633A82A
:102ED000FDF7E4FC9DF871018DF8DD005D983890F8
:102EE000E8B21A9068221FA96846FDF7D7FC0DF1D9
:102EF0006C0C9CE80F0000F0B3F8B4F5807F33D978
:102F000036A0FDF739FAFF24202240A91BA8FDF7BF
:102F1000C5FC3622414623A8FDF7C0FCBDF856018A
:102F2000ADF8C20056983190BDF85C01ADF8C8000C
:102F3000BDF85E01ADF8CA001122394633A8FDF78D
:102F4000ADFC9DF871018DF8DD005D98389030780A
:102F50001A9068221FA96846FDF7A0FC1BAD95E8F2
:102F60000F0000F07DF8761C641EA4B2CCD22022A3
:102F700040A91BA8FDF792FC3622414623A8FDF785
:102F80008DFCBDF85601ADF8C20056983190BDF8E1
:102F90005C01ADF8C800BDF85E01ADF8CA001122B1
:102FA000394633A8FDF77AFC9DF871018DF8DD00F4
:102FB0005D98389001201A9068221FA96846FDF795
:102FC0006DFC1BAC94E80F0000F022F83AB0BDE8AD
:102FD000F0015DF814EB00F0ADBF00003C3C2D4665
:102FE0004C4153482D4552524F522D3E3E20535096
:102FF000495F464C4153485F506167655772697439
:103000006520746F6F206C61726765210A00000093
:103010000FB4BDF800101E9A019804B0FEF7C3BAB1
:1030200010B503A01C99FDF7A7F9002010BD000002
:103030003C3C2D464C4153482D4552524F522D3E5B
:103040003E2053504920B5C8B4FDB3ACCAB1216588
:1030500072726F72436F6465203D2025640A000020
:103060000FB43622F0B5EDB07AA90F4657A8909D5F
:10307000FDF714FCBDF81E02ADF89201889865902A
:10308000BDF82442ADF89841BDF82602ADF89A018A
:103090008AA911220E4667A8FDF700FC9DF83902A7
:1030A0008DF8AD018F986C904FF4007001462DE0C3
:1030B000491E2BD2202272A91BA8FDF7EFFB362256
:1030C000394623A8FDF7EAFBBDF81E02ADF8C200A1
:1030D00088983190BDF82602ADF8C840ADF8CA0016
:1030E0001122314633A8FDF7D9FB9DF839028DF83E
:1030F000DD008F98389000201A9068221FA968463A
:10310000FDF7CCFB1BAD95E80F0036E0579A9268AF
:10311000D2439207CCD45799CD6034E0401E32D2CE
:10312000202272A939A8FDF7B9FB3622394641A8F9
:10313000FDF7B4FBBDF81E02ADF83A0188984F9038
:10314000BDF82402ADF84001BDF82602ADF84201F9
:103150001122314651A8FDF7A1FB9DF839028DF8E7
:1031600055018F98569001201A9068223DA9684613
:10317000FDF794FB39AC94E80F00FFF751FF6DB0F9
:10318000F0BC5DF814FB57998968C943C907C5D1DC
:103190005798C068C0B2F2E77047FEF70FBA000058
:1031A00010B592B034216846FDF7D4FB14210DA868
:1031B000FDF7D0FB1148016821F4C05141F40061D2
:1031C0000160012000900024019009946846FEF7F8
:1031D000C7FB08B172B6FEE70F200D900220CDE9C3
:1031E0000E04109400210DA81194FEF795FA002802
:1031F00001D072B6FEE712B010BD000000700040B2
:1032000002494FF0006008607047000008ED00E0E0
:1032100010B50A4C2068C068C043C00709D10848EF
:103220000069804721680020486221686420C862E4
:10323000E06021686FF00100086110BDD438002003
:10324000E0010020F0B502684FF0804C184B194C9B
:10325000194D1A4E604507D0984205D0A04203D0C0
:10326000A84201D0B04205D122F070074A683A4323
:1032700060450DD098420BD0A04209D0A84207D09B
:10328000B04205D00E4B984202D00E4B984203D16B
:1032900022F44073CA681A430B6922F080021A4371
:1032A00002608A68C2620968816201214161F0BDE1
:1032B0000004004000080040000C004000080140ED
:1032C000000C01400010014038B5114A05460C467B
:1032D000106840F0040010601068032200F0040041
:1032E000009011461E20FEF7D3F91E20FEF7C2F90A
:1032F000094A0848C2E900040020C2E90205106139
:103300001046FEF7F3FDBDE838400348FEF732BE35
:103310002438024000080040D438002010B50820AE
:1033200001F0C4FAFFF718F9012206490648FEF732
:103330004DFF542004F0B4FCBDE8104003A0FDF79D
:103340001BB80000440100209438002028796573E0
:103350002920D4DAD3C3D5FDB5E3D4ADD7D3B5C4D2
:10336000BAAFCAFD2E0D0A0010B5406A0021C18512
:10337000C184FEF72BFE10BD0168CA6822F490726A
:10338000CA6001684A6922F001024A61202180F87E
:103390003A10704710B590F83A10222901D0022057
:1033A00010BD8168B1F5805F11D001690029016805
:1033B0001FD0496801F07F03816A4A1C82620B704A
:1033C000C18D491E0904090CC18518D02BE0026982
:1033D000816A002A0268526805D0D2B20A80816AE6
:1033E000491C8162ECE7C2F308020A80816A891CE9
:1033F000F7E74A68816A4B1C83620A70E0E701685C
:10340000CA6822F02002CA600168CA6822F4807289
:10341000CA6001684A6922F001024A61202180F8ED
:103420003A10FEF7FDFE002010BD00002DE9F0412E
:10343000044600680169E26821F4405111430161CA
:103440002169A068E2690843616911432268084361
:10345000D16849F20C6399430143D1602068416906
:10346000A26921F4407111434161364920688842C4
:1034700002D1FEF733FA01E0FEF720FA0246E369D3
:1034800064203221B3F5004F02EBC20303EB0213B9
:1034900062682BD09200B3FBF2F5B5FBF0F5B3FBFD
:1034A000F2F66FF018077D4306EB8505B3FBF2F6E5
:1034B00001EB0515B5FBF0F5B6FBF0F605F0F005F0
:1034C00005EB0615B3FBF2F6B3FBF2F2B2FBF0F23A
:1034D0007A4306EB820201EB0211B1FBF0F000F03F
:1034E0000F00216828448860BDE8F0815200B3FBDA
:1034F000F2F6B6FBF0F6B3FBF2F7B3FBF2F56FF0C2
:10350000180C06FB0CF607EB860601EBC606B5FBAE
:10351000F0F5B6FBF0F62D0106F0F80605EB4605D2
:10352000B3FBF2F6B3FBF2F2B2FBF0F202FB0CF2E9
:1035300006EB820201EBC201B1FBF0F000F00700E4
:10354000CFE700000038014090F83910212901D060
:10355000022070478168B1F5805F016A0BD04A1C78
:103560000262026809785160C18C491E0904090C85
:10357000C1840ED017E009880268C1F308015160C8
:1035800001690029016A02D0491C0162ECE7891C2B
:10359000FBE70168CA6822F08002CA600068C1685F
:1035A00041F04001C16000207047000010B508489C
:1035B000FEF712FD0648FEF70AFD2028FAD1012287
:1035C00004490348FEF702FE0028F8D110BD0000B0
:1035D0009438002044010020FEE70000F0B5B9B0A7
:1035E000054600F0AFFD00F0A5FC20228C491BA889
:1035F000FDF754F98A49362220310F4623A8FDF7FA
:103600004DF9874CB4F85600ADF8C20054F8580F85
:103610003190A088ADF8C800E088ADF8CA008049B4
:10362000112260310E4633A8FDF738F9607E8DF81F
:10363000DD00E069389000201A9068221FA96846D2
:10364000FDF72CF90DF16C0C9CE80F00FFF7E0FC86
:10365000202273491BA8FDF721F93622394623A8F9
:10366000FDF71CF934F8020CADF8C2002068319067
:10367000A088ADF8C800E088ADF8CA001122314634
:1036800033A8FDF70BF9607E8DF8DD00E069389016
:1036900020201A9068221FA96846FDF7FFF80DF157
:1036A0006C0C9CE80F00FFF7DBFC20225C491BA898
:1036B000FDF7F4F83622394623A8FDF7EFF834F881
:1036C000020CADF8C20020683190A088ADF8C800A7
:1036D000E088ADF8CA001122314633A8FDF7DEF8C4
:1036E000607E8DF8DD00E0693890C5F307401A90E0
:1036F00068221FA96846FDF7D1F80DF16C0C9CE813
:103700000F00FFF7ADFC202245491BA8FDF7C6F8C6
:103710003622394623A8FDF7C1F834F8020CADF87B
:10372000C20020683190A088ADF8C800E088ADF8EC
:10373000CA001122314633A8FDF7B0F8607E8DF83B
:10374000DD00E0693890C5F307201A9068221FA9B0
:103750006846FDF7A3F80DF16C0C9CE80F00FFF72D
:103760007FFC20222E491BA8FDF798F83622394607
:1037700023A8FDF793F834F8020CADF8C2002068D6
:103780003190A088ADF8C800E088ADF8CA001122D9
:10379000314633A8FDF782F8607E8DF8DD00E069E0
:1037A0003890E8B21A9068221FA96846FDF776F8AB
:1037B0000DF16C0C9CE80F00FFF752FC2022184919
:1037C0001BA8FDF76BF83622394623A8FDF766F8EB
:1037D00034F8020CADF8C20020683190A088ADF832
:1037E000C800E088ADF8CA001122314633A8FDF7C1
:1037F00055F8607E8DF8DD00E069389001201A9060
:1038000068221FA96846FDF749F81BAC94E80F0031
:10381000FFF7FEFB39B0BDE8F04000F08BBB0000C5
:1038200040000020F0B5B9B0202248491BA8FDF7A0
:1038300035F84649362220310F4623A8FDF72EF8E9
:10384000424C34F8560FADF8C200404D2D1F55F8CC
:103850005C0F3190A888ADF8C8002089ADF8CA0087
:103860003A49112260310E4633A8FDF717F8E07E81
:103870008DF8DD00D4F81E00389000201A906822E0
:103880001FA96846FDF70AF80DF16C0C9CE80F00C3
:10389000FFF7BEFB20222D491BA8FCF7FFFF3622B5
:1038A000394623A8FCF7FAFF2088ADF8C200286843
:1038B0003190A888ADF8C8002089ADF8CA0011225F
:1038C000314633A8FCF7EAFFE07E8DF8DD00D4F83E
:1038D0001E003890B9201A9068221FA96846FCF78C
:1038E000DDFF0DF16C0C9CE80F00FFF7B9FB202207
:1038F00016491BA8FCF7D2FF3622394623A8FCF74D
:10390000CDFF2088ADF8C20028683190A888ADF8B6
:10391000C8002089ADF8CA001122314633A8FCF74F
:10392000BDFFE07E8DF8DD00D4F81E003890012048
:103930001A9068221FA96846FCF7B0FF1BAC94E8F8
:103940000F00FFF765FB39B0F0BD0000400000201C
:10395000F0B5B9B020229E491BA8FCF79FFF9C49F7
:10396000362220310F4623A8FCF798FF984CB4F874
:103970005600ADF8C20054F8580F3190A088ADF849
:10398000C800E088ADF8CA009149112260310E46A6
:1039900033A8FCF783FF607E8DF8DD00E069389086
:1039A00000201A9068221FA96846FCF777FF1BAD1C
:1039B00095E80F00FFF72CFB202285491BA8FCF798
:1039C0006DFF3622394623A8FCF768FF34F8020C55
:1039D000ADF8C20020683190A088ADF8C800E0883A
:1039E000ADF8CA001122314633A8FCF757FF607EBC
:1039F0008DF8DD00E0693890AB201A9068221FA98D
:103A00006846FCF74BFF95E80F00FFF729FB2022E3
:103A10006F491BA8FCF742FF3622394623A8FCF762
:103A20003DFF34F8020CADF8C20020683190A08848
:103A3000ADF8C800E088ADF8CA001122314633A8BD
:103A4000FCF72CFF607E8DF8DD00E0693890FF25E3
:103A500068221FA968461A95FCF720FF0DF16C0C2F
:103A60009CE80F00FFF7FCFA202259491BA8FCF73D
:103A700015FF3622394623A8FCF710FF34F8020C54
:103A8000ADF8C20020683190A088ADF8C800E08889
:103A9000ADF8CA001122314633A8FCF7FFFE607E64
:103AA0008DF8DD00E069389068221FA968461A95F4
:103AB000FCF7F4FE0DF16C0C9CE80F00FFF7D0FA58
:103AC000202243491BA8FCF7E9FE3622394623A8E9
:103AD000FCF7E4FE34F8020CADF8C2002068319027
:103AE000A088ADF8C800E088ADF8CA0011223146C0
:103AF00033A8FCF7D3FE607E8DF8DD00E0693890D6
:103B000068221FA968461A95FCF7C8FE0DF16C0CD7
:103B10009CE80F00FFF7A4FA20222D491BA8FCF710
:103B2000BDFE3622394623A8FCF7B8FE34F8020C55
:103B3000ADF8C20020683190A088ADF8C800E088D8
:103B4000ADF8CA001122314633A8FCF7A7FE607E0B
:103B50008DF8DD00E069389068221FA968461A9543
:103B6000FCF79CFE1BAD95E80F00FFF779FA0546C0
:103B7000202217491BA8FCF791FE3622394623A8BC
:103B8000FCF78CFE34F8020CADF8C20020683190CE
:103B9000A088ADF8C800E088ADF8CA00112231460F
:103BA00033A8FCF77BFE607E8DF8DD00E06938907D
:103BB00001201A9068221FA96846FCF76FFE1BAC13
:103BC00094E80F00FFF724FA39B02846F0BD000052
:103BD000400000202DE9F043B9B0202289491BA8FC
:103BE000FCF75CFE874936222031894623A8FCF782
:103BF00055FE844CB4F85600ADF8C20054F8580F86
:103C00003190A088ADF8C800E088ADF8CA007D49C1
:103C100011226031884633A8FCF740FE607E8DF8A3
:103C2000DD00E069389000201A9068221FA96846DC
:103C3000FCF734FE1BAD95E80F00FFF7E9F92022F1
:103C400070491BA8FCF72AFE3622494623A8FCF738
:103C500025FE34F8020CADF8C20020683190A0882F
:103C6000ADF8C800E088ADF8CA001122414633A87B
:103C7000FCF714FE607E8DF8DD00E06938909F202F
:103C80001A9068221FA96846FCF708FE95E80F0005
:103C9000FFF7E6F920225B491BA8FCF7FFFD36225F
:103CA000494623A8FCF7FAFD34F8020CADF8C2002F
:103CB00020683190A088ADF8C800E088ADF8CA004F
:103CC0001122414633A8FCF7E9FD607E8DF8DD0046
:103CD000E0693890FF2568221FA968461A95FCF70D
:103CE000DDFD1BAE96E80F00FFF7BAF9074620226C
:103CF00044491BA8FCF7D2FD3622494623A8FCF70D
:103D0000CDFD34F8020CADF8C20020683190A088D7
:103D1000ADF8C800E088ADF8CA001122414633A8CA
:103D2000FCF7BCFD607E8DF8DD00E069389068220C
:103D30001FA968461A95FCF7B1FD96E80F00FFF73A
:103D40008FF9064620222F491BA8FCF7A7FD362233
:103D5000494623A8FCF7A2FD34F8020CADF8C200D6
:103D600020683190A088ADF8C800E088ADF8CA009E
:103D70001122414633A8FCF791FD607E8DF8DD00ED
:103D8000E069389068221FA968461A95FCF786FDFD
:103D90001BAD95E80F00FFF763F90546202219498E
:103DA0001BA8FCF77BFD3622494623A8FCF776FDCD
:103DB00034F8020CADF8C20020683190A088ADF84C
:103DC000C800E088ADF8CA001122414633A8FCF7CC
:103DD00065FD607E8DF8DD00E069389001201A9065
:103DE00068221FA96846FCF759FD1BAC94E80F0038
:103DF000FFF70EF9380440EA062139B041EA050020
:103E0000BDE8F08340000020F0B5B9B02022484959
:103E10001BA8FCF743FD4649362220310F4623A854
:103E2000FCF73CFD424C34F8560FADF8C200404D53
:103E30002D1F55F85C0F3190A888ADF8C800208977
:103E4000ADF8CA003A49112260310E4633A8FCF79A
:103E500025FDE07E8DF8DD00D4F81E0038900020AE
:103E60001A9068221FA96846FCF718FD0DF16C0C2A
:103E70009CE80F00FFF7CCF820222D491BA8FCF787
:103E80000DFD3622394623A8FCF708FD2088ADF841
:103E9000C20028683190A888ADF8C8002089ADF824
:103EA000CA001122314633A8FCF7F8FCE07E8DF8F9
:103EB000DD00D4F81E003890AB201A9068221FA9AC
:103EC0006846FCF7EBFC0DF16C0C9CE80F00FFF76B
:103ED000C7F8202216491BA8FCF7E0FC3622394619
:103EE00023A8FCF7DBFC2088ADF8C20028683190DD
:103EF000A888ADF8C8002089ADF8CA001122314663
:103F000033A8FCF7CBFCE07E8DF8DD00D4F81E0072
:103F1000389001201A9068221FA96846FCF7BEFC61
:103F20001BAC94E80F00FFF773F839B0F0BD000048
:103F3000400000202DE9F04FB9B0202280491BA895
:103F4000FCF7ACFC7E49362220318A4623A8FCF7D8
:103F5000A5FC7B4C34F8560FADF8C200784D2D1FF0
:103F6000E86D3190B5F86000ADF8C8002089ADF873
:103F7000CA0005F1640111228B4633A8FCF78EFCC0
:103F8000E07E8DF8DD00D4F81E00389000201A90F5
:103F900068221FA96846FCF781FC1BAE96E80F005B
:103FA000FFF736F82022291D1BA8FCF777FC3622E4
:103FB000514623A8FCF772FC2088ADF8C200E86DDA
:103FC0003190B5F86000ADF8C8002089ADF8CA009E
:103FD0001122594633A8FCF761FCE07E8DF8DD0024
:103FE000D4F81E00389005201A9068221FA9684650
:103FF000563CFCF753FC96E80F00FFF731F84FF4FE
:1040000000702860000128600DF18C090DF1CC08CA
:10401000FF261FAF20224A491BA8FCF73FFC36228F
:1040200051464846FCF73AFCB4F85600ADF8C200D9
:10403000E86D3190B5F86000ADF8C800B4F85E00E6
:10404000ADF8CA00112259464046FCF727FC94F807
:1040500071008DF8DD00606F38906822394668463F
:104060001A96FCF71BFC0DF16C0C9CE80F00FEF798
:10407000F7FF29684A1E2A6030D2202230491BA847
:10408000FCF70CFC3622514623A8FCF707FC34F859
:10409000560FADF8C200E86D3190B5F86000ADF88C
:1040A000C8002089ADF8CA001122594633A8FCF790
:1040B000F5FBE07E8DF8DD00D4F81E00389004207A
:1040C0001A9068221FA96846FCF7E8FB1BAE96E829
:1040D0000F00FEF7A5FF39B0BDE8F08FC00799D1FA
:1040E000202217491BA8FCF7D9FB3622514623A8EA
:1040F000FCF7D4FB34F8560FADF8C200E86D3190F0
:10410000B5F86000ADF8C8002089ADF8CA001122EA
:10411000594633A8FCF7C2FBE07E8DF8DD00D4F8E9
:104120001E00389001201A9068221FA96846FCF7EB
:10413000B5FB1BAE96E80F00FEF76AFFCBE7000069
:1041400040000020F0B5B9B0202248491BA8FCF778
:10415000A5FB4649362220310F4623A8FCF79EFBDB
:10416000424C34F8560FADF8C200404D2D1F55F8A3
:104170005C0F3190A888ADF8C8002089ADF8CA005E
:104180003A49112260310E4633A8FCF787FBE07EE6
:104190008DF8DD00D4F81E00389000201A906822B7
:1041A0001FA96846FCF77AFB0DF16C0C9CE80F0028
:1041B000FEF72EFF20222D491BA8FCF76FFB3622AD
:1041C000394623A8FCF76AFB2088ADF8C2002868AE
:1041D0003190A888ADF8C8002089ADF8CA00112236
:1041E000314633A8FCF75AFBE07E8DF8DD00D4F8A9
:1041F0001E00389006201A9068221FA96846FCF716
:104200004DFB0DF16C0C9CE80F00FEF729FF2022FE
:1042100016491BA8FCF742FB3622394623A8FCF7B7
:104220003DFB2088ADF8C20028683190A888ADF821
:10423000C8002089ADF8CA001122314633A8FCF726
:104240002DFBE07E8DF8DD00D4F81E0038900120B3
:104250001A9068221FA96846FCF720FB1BAC94E863
:104260000F00FEF7D5FE39B0F0BD00004000002081
:104270000907090E002804DB00F1E02080F8001493
:10428000704700F00F0000F1E02080F8141D704727
:1042900030380A2801D2012070470020704770474B
:1042A00070B504460020E070401E6063204602F0B6
:1042B000BDFD08B1042070BD04F2362002F064FC9C
:1042C000054694F838004AF65526EB2803D0E9282D
:1042D00001D0E8283FD1B54207D1082221A104F13D
:1042E0008A00FCF727FA0028E5D004F1430002F029
:1042F0004BFC94F84510421E10422CD1B0F5007FC3
:1043000029D3B0F5805F26D829B3481E014222D1B7
:1043100004F1460002F038FCE8B194F84800401E71
:10432000012818D804F1490002F02EFC98B104F1DC
:104330004B0002F029FC802806D204F1580002F05C
:1043400018FCB0F5803F06D304F14E0002F01CFCCF
:1043500008B1002070BDB54201D1022070BD03201C
:1043600070BD000046415433322020200000000080
:104370000268806A938952895343B1FBF3F1001DAF
:1043800004C81AB1914203D3891AF8E70020704794
:10439000006808447047C269891E921E8A4201D88B
:1043A00000207047026B408900FB0120704700002D
:1043B0002DE9F05F82460C4601F11A0002F0E4FBA1
:1043C00078BB2078012700F03F00401E00EB800101
:1043D000DFF8589001EBC00500264FF6FF7B00BFC9
:1043E00019F80600204402F0CFFB80466FB1FF2D84
:1043F00017D802F017F907463AF815006D1C02F0BD
:1044000011F987420DD1474601E0D84509D1761C04
:104410000D2EE5D32078400606D52FB13AF81500C9
:1044200010B10020BDE8F09F0120FBE700860008E6
:104430002DE9F04106680F00804606D002F0CEF963
:10444000022809D20120BDE8F081746914B1F06935
:10445000A04207D8012405E0411CF4D0F169814253
:10446000F1D83C46B0690028EDD0BC4216D1F069C5
:10447000651CA84200D802252946404602F0AEF944
:104480000128E0D0411CDED038B17069022805D384
:10449000F169814202D9044600E0A5B92546F069D8
:1044A0006D1CA84202D80225022C0AD32946404698
:1044B00002F094F938B10128C5D0411CC3D0A542FF
:1044C000EDD10020BFE74FF0FF34224629463046A9
:1044D00002F052FE30B95FB12A463946304602F04A
:1044E0004BFE28B1012800D0012425462846AAE722
:1044F0007561D6E90601891E884201D8401EB06167
:10450000307940F001003071F0E700002DE9F84FFC
:10451000824600680E680024D0F810708846A146D4
:1045200016F8015B284600F0B9F960B116F8010BE6
:1045300040284BD37E2803D9A0F180017E2945D89D
:1045400000EB052085B235B14FF46A71284602F0C0
:104550001BF805003AD0681C38D0B5F5803F03D36E
:10456000280C27F81400641C202D1AD32F2D0FD0EF
:104570005C2D0DD0802D04D2294675A0FCF7D0F813
:1045800020BBFF2C22D227F81450641CC8E7761CED
:1045900030782F28FBD05C28F9D00025C0B2202825
:1045A00000D20425C8F8006009E000BF07EB440012
:1045B00030F8020C202801D02E2802D1641E002CD5
:1045C000F4D127F814900CB1002603E00620BDE8D2
:1045D000F88F761C37F816002028FAD016B93888DC
:1045E0002E2803D145F0030500E0641E2CB107EB33
:1045F000440030F8020C2E28F7D120220B210AF1BA
:104600002000FCF77DF94FF000084FF0080BCDF8C3
:10461000008000BF37F8160006F101065FEA0009C6
:1046200024D0B9F1200F04D0B9F12E0F04D1A64245
:1046300002D045F00305EDE70098584501D2A642A7
:1046400019D1BBF10B0F0FD0A64201D045F00305E5
:104650000CD84FF0080000904FEA886026464FF0D3
:104660000B0B4FEA1068D5E745F003059AF82000D8
:10467000E52849D04BE04846B9F1800F08D345F012
:10468000020501F0CFFF4FF46A7101F0A3FF8146EC
:10469000B9F1FF0F13D90099ABF10100814204D3A6
:1046A00045F00305CDF800B0B4E70AEB01004FEA8E
:1046B000192280F820200098401C00901BE0B9F1DE
:1046C000000F04D0014625A0FCF72AF820B14FF0D6
:1046D0005F0945F003050EE0A9F14100192801D852
:1046E00048F00208A9F16100192804D8413048F0C7
:1046F00001081FFA80F9009A0AEB020181F8209064
:104700000098401C009085E705218AF82010BBF135
:10471000080F03D14FEA88604FEA1068C8F38100A0
:10472000032803D06FEA0800800701D145F0020595
:10473000A80709D45FEAC87001D045F010055FEA08
:10474000487001D545F008058AF82B5000203EE757
:104750002A3A3C3E7C223F7F000000002B2C3B3D50
:104760005B5D00002DE9FF4F81B09B466A46012149
:10477000019800F0BDFB00287DD108264FF03F09CD
:10478000F101009F03E0700010F0FF0606D006FB69
:1047900009F0B7FBF0F08842F5D806B9FF264FF4D0
:1047A00080515846FCF7B4F80BF5DF754FF0000A5E
:1047B0004C465DE0029951F82A80B8F1640F09D89F
:1047C00001D1384605E04FF06400B7FBF0F000FB84
:1047D00008F0804604EB0800B84201D8A04201D29C
:1047E000A7EB0408B8F1000F44D0214605F10800FA
:1047F00002F040FE414605F10C0002F03BFEB4FB26
:10480000F9F2B2FBF6F303982871B4FBF9FC09FB4B
:1048100006F1B4FBF1F006FB132209FB1C4C6A7095
:10482000C02303EA90020CF1010C42EA0C02AA70C8
:10483000E87004EB0800441EB4FBF9FCBCFBF6F284
:10484000B4FBF9F8B4FBF1F106FB12CC09FB1842FA
:1048500003EA9103521C85F805C01343AB71E9715B
:104860000AF1010A10350446BAF1040F02D20CB164
:10487000BC429FD300E00DE04AF655210BF5FF70D6
:1048800002F000FE012300225946019800F0A2FB2D
:10489000002800D0012005B0BDE8F08F812803D3A7
:1048A000FE2801D8012070470020704710B504464B
:1048B0000420FDF7FBFA0148046010BD4001002010
:1048C00070B5054600244FF47A7603E0304600F0D8
:1048D00005F8641CAC42F9D370BD000070B54FF010
:1048E000E024002265690949A36909684843A16970
:1048F0009942FCD002D2A3EB010302E0A5EB010632
:1049000033441A440B468242F1D370BD400100206B
:104910002DE9F0410C46054602F008FEF8B92146A3
:104920002846FFF738FD0646686305F138004FF466
:1049300080510446FCF70EF8A0460127002400E051
:104940003C446889A04207D9321968783B46414601
:1049500000F040FB0028F3D06889A04202D001207B
:10496000BDE8F0810020FBE72DE9F0470546002176
:10497000D0F8009000F02DFA002852D1FF24471EF5
:10498000A046EF624846A96902F050FA060047D1F6
:10499000E969087850B1CA7AE52802F03F02AA71A5
:1049A00036D0130704D50F2A32D105E0042637E0AC
:1049B0000F2A01D0E4B120E095F82B20520629D42B
:1049C000420606D591F80D8000F0BF002A69044622
:1049D000EA62A04209D14A7B424506D1D9F81000CB
:1049E000FFF7E6FC08B1641E00E0FF24E4B211E02A
:1049F000084602F04BFD404512D095F82B00C00749
:104A000006D10B2205F12001E869FBF793FE38B1CE
:104A1000FF24EF620021284600F005F80600B1D01F
:104A20003046BDE8F0872DE9F04707690668203772
:104A3000894604464FF00008B7F5001F39D2A06937
:104A400030B1B189B7FBF1F201FB127119B13DE050
:104A50000420BDE8F087401CA061616929B3B089DA
:104A60007289B7FBF0F0521E10422FD1204601F0A0
:104A7000B5FE0546012821D9681C14D0F069A8426A
:104A80001ED8B9F1000F14D020466169FFF7D0FCA1
:104A9000050011D0012D11D0681C04D029463046E4
:104AA000FFF736FF60B10120D3E73089B0EB571F25
:104AB0000CD8C4F81880CBE70720CAE70220C8E763
:104AC000294630466561FFF766FCA0612761B08921
:104AD000B7FBF0F100FB117030443830E06100208A
:104AE000B7E72DE9F0470426FF2489460546274607
:104AF000D0F8008047E0404602F098F9060046D121
:104B0000E969087880B1CA7AE52802F03F02AA7103
:104B100008D02E2806D022F02003082B06D0B44659
:104B2000CC4506D0FF241EE0042630E04FF0010CF7
:104B3000F6E70F2A01D014BB1CE0420605D54F7BD7
:104B400000F0BF002A690446EA62A04209D1487B0E
:104B5000B84206D1D8F8100002F0D4FA08B1641EA9
:104B600000E0FF24E4B200212846FFF75CFF0600C6
:104B700009D00CE0084602F089FCB84209D04FF099
:104B8000FF30E86205E0A9690029B4D10EB1002028
:104B9000A8613046BDE8F0872DE9F04F0446D0F813
:104BA000009090F82B0087B010F0A00F03D00620E3
:104BB00007B0BDE8F08F0025D9F8100000E06D1CAB
:104BC00030F815100029FAD104F1200004F1200A70
:104BD00007C88DE807009DF80B00C10719D04020D9
:104BE00084F82B000126334669465046D9F8102038
:104BF00001F0A6FD2046FFF7B7FE10B9761C642E23
:104C0000F1D3642E0FD00428D2D19DF80B0084F884
:104C10002B009DF80B00800707D50D200C35B5FB48
:104C2000F0F56D1C02E00720C2E7012500212046B7
:104C3000276800F0CEF888B900263846A16902F04E
:104C4000F5F858B9E0690078E5280AD048B100269F
:104C500001212046FFF7E7FE0028EED0042812D0FD
:104C600012E0761C2846AE42F2D1451E049567D06C
:104C70002169684201EB4011204600F0AAF85FEA82
:104C8000000803D079E00720804676E0504602F025
:104C9000FDFB4FF6FF7B06904846A16902F0C6F87F
:104CA0005FEA000869D1D9F8100005900498D4F89B
:104CB0001C80C0B20390069988F80D100F2188F867
:104CC0000B10002188F80C1008F11A0002F0DAFB32
:104CD0000398DFF8ACA0401E00EB800101EBC0069A
:104CE000002701E05D4503D0059830F81650761C8A
:104CF0001AF8071001EB0800294602F0C3FB05B9BA
:104D00005D467F1C0D2FEDD35D4505D0059830F82D
:104D1000160008B1039803E0039840F040000390A8
:104D200088F80000012089F8030000212046FFF7E1
:104D30007AFE5FEA000820D10498401E0490ABD1AF
:104D40004846A16902F072F85FEA000815D154F8EC
:104D50001C0F2021FBF7DCFD206861680160A16861
:104D60004160A1890181A17B8172E07B216800F013
:104D700018000873012089F80300404618E7000076
:104D8000008600082DE9F041C16A044606690568FD
:104D9000481C04D0204600F01CF8002817D1E52755
:104DA0004FF001082846A16902F040F860B9E169B6
:104DB0000F7085F803802169B14208D20021204696
:104DC000FFF731FE0028EDD0042800D10220BDE815
:104DD000F0812DE9F04104680F460646B1F5001F49
:104DE0003CD2F8063AD13761B56825B92078032856
:104DF00006D3E56A25B16089A18900FB01F812E0BC
:104E00002089B0EB571F29D9E06A12E0304601F043
:104E1000E5FC0546401C1FD0022D1FD3E069A842C7
:104E20001CD9A7EB080747452946EFD22046FFF7D4
:104E3000B2FAC6E9055088B1A189B7FBF1F108447F
:104E4000B061A089B7FBF0F100FB1170204438304D
:104E5000F0610020BDE8F0810120FBE70220F9E7C6
:104E600010B50100B8B04FF001003DD001293BD191
:104E700020221E491AA8FBF711FD1C4936222031B9
:104E800022A8FBF70BFD194CB4F85600ADF8BE0094
:104E900054F8580F3090A088ADF8C400E088ADF801
:104EA000C60012491122603132A8FBF7F7FC607E80
:104EB0008DF8D900E069379068221EA96846FBF793
:104EC000EDFC1AAC94E80F00FDF7EDFE4FF4FA701C
:104ED000401E0004000CFBD1FEF796FF38B0012005
:104EE000BDE8104000F066B838B010BD40000020AA
:104EF00003004FF0040012D0012B10D1012904D07F
:104F0000022905D0032909D106E040F2FE5004E051
:104F10004FF48050108001E00120106000207047A5
:104F2000F0B50E460100BBB01D464FF004003DD069
:104F300001293BD1174620221D491DA8FBF7AEFCD5
:104F40001B493622203125A8FBF7A8FC184CB4F8E1
:104F50005600ADF8CA0054F8580F3390A088ADF849
:104F6000D000E088ADF8D20011491122603135A897
:104F7000FBF794FC607E8DF8E500E0693A90380319
:104F800040F2022100EB01304FF6FF7101EA0531DA
:104F90001A96CDE91B10682221A96846FBF77EFC12
:104FA0001DAC94E80F00FDF775FB00203BB0F0BD91
:104FB0004000002010B5012438B1012805D1FEF7CA
:104FC00009FE0349884200D10024204610BD00009C
:104FD0001740EF00F0B50F460146BBB01E004FF082
:104FE000040043D000293FD001293DD1100340F2F5
:104FF000022100EB01352846FEF7F0FA20221C4979
:105000001DA8FBF74BFC1A493622203125A8FBF7D7
:1050100045FC174CB4F85600ADF8CA0054F8580FC8
:105020003390A088ADF8D000E088ADF8D2001049E8
:105030001122603135A8FBF731FC607E8DF8E50068
:10504000E0693A904FF6FF7000EA06301A97CDE912
:105050001B05682221A96846FBF720FC1DAC94E8DB
:105060000F00FDF779FC00203BB0F0BD0420FBE70A
:10507000400000204BA0FBF77FF9012255A15648C4
:1050800000F0F4FD554C01460D28607008D0002951
:1050900026D053A0FBF770F95B48FBF76DF9FEE7EC
:1050A0005AA0FBF769F94FF48053634A002149A0E5
:1050B00000F002FB607018B160A0FBF75DF9FEE73D
:1050C00064A0FBF759F9012242A1002000F0CEFDB7
:1050D000607001223FA1404800F0C8FD607002E00E
:1050E00064A0FBF749F96DA0FBF746F90A2276A107
:1050F0007B4800F0DFFD607000281CD079A0FBF732
:105100003BF97FA0FBF738F901226FA1744800F04A
:10511000D1FD607000282BD083A0FBF72DF97048DB
:1051200000F09EF901222BA1002000F09FFD84A039
:10513000FBF722F9FEE786A0FBF71EF9274B3F227B
:105140000C3303F13B01664801F045F96070011E24
:1051500006D08FA0FBF710F9614800F081F9D0E785
:1051600091A0E168FBF708F91C4998A04731F1E7E5
:105170009EA0FBF701F9194B4FF480620C33A04954
:10518000574800F0BDFF6070011E04D09DA000BF15
:10519000FBF7F2F8C3E7A1A0E168FBF7EDF8984947
:1051A000A7A0F5E72A2A2A2A2A2A20D5E2CAC7D2A6
:1051B000BBB8F653504920464C41534820CEC4BC9E
:1051C000FECFB5CDB3CAB5D1E9202A2A2A2A2A2A88
:1051D0000D0A0000313A000068170020B8000020D6
:1051E000A3A1A3A1CDE2B2BF466C617368B9D2D4CA
:1051F000D8CEC4BCFECFB5CDB3CAA7B0DCA1A3281E
:105200002564290D0A0000004C320308A1B7464C62
:10521000415348BBB9C3BBD3D0CEC4BCFECFB5CD80
:10522000B3A3ACBCB4BDABBDF8D0D0B8F1CABDBB64
:10523000AF2E2E2E0D0A000066070020A1B6A1B6E3
:10524000B8F1CABDBBAFCAA7B0DCA1A3A1B7A1B7D3
:105250000D0A0000A1B7464C415348D2D1B3C9B999
:10526000A6B8F1CABDBBAFCEC4BCFECFB5CDB3A10D
:10527000A30D0A00A1B7CEC4BCFECFB5CDB3B9D241
:10528000D4D8B3C9B9A6A3ACBFC9D2D4BDF8D0D0C5
:10529000B6C1D0B4B2E2CAD40D0A00000D0A2A2A5F
:1052A0002A2A2A2A20BCB4BDABBDF8D0D0CEC4BCBB
:1052B000FED0B4C8EBB2E2CAD42E2E2E202A2A2A5F
:1052C0002A2A2A0D0A000000313A4661744673B654
:1052D000C1D0B4B2E2CAD4CEC4BCFE2E747874007D
:1052E000A0270020A3A1A3A1B4F2BFAA2FB4B4BDEC
:1052F000A8CEC4BCFECAA7B0DCA1A30D0A00000062
:105300002A2A2A2A2A2A20BCB4BDABBDF8D0D0CE86
:10531000C4BCFEB6C1C8A1B2E2CAD42E2E2E202A29
:105320002A2A2A2A2A0D0A00A3A1A3A1B4F2BFAAFD
:10533000CEC4BCFECAA7B0DCA1A30D0A00000000C9
:105340000D0AB2E2CAD4B3C9B9A60D0A0000000022
:10535000A1B7B4F2BFAA2FB4B4BDA8466174467316
:10536000B6C1D0B4B2E2CAD4CEC4BCFE2E74787436
:10537000CEC4BCFEB3C9B9A6A3ACCFF2CEC4BCFEAA
:10538000D0B4C8EBCAFDBEDDA1A30D0A0000000029
:10539000A3A1A3A1CEC4BCFED0B4C8EBCAA7B0DC05
:1053A000A3BA282564290A00A1B7CEC4BCFED0B494
:1053B000C8EBB3C9B9A6A3ACD0B4C8EBD7D6BDDA95
:1053C000CAFDBEDDA3BA25640A000000A1B7CFF272
:1053D000CEC4BCFED0B4C8EBB5C4CAFDBEDDCEAAF7
:1053E000A3BA0D0A25730D0A00000000A1B7B4F29C
:1053F000BFAACEC4BCFEB3C9B9A6A1A30D0A0000C2
:1054000030030020A3A1A3A1CEC4BCFEB6C1C8A195
:10541000CAA7B0DCA3BA282564290A00A1B7CEC464
:10542000BCFEB6C1C8A1B3C9B9A62CB6C1B5BDD71B
:10543000D6BDDACAFDBEDDA3BA25640D0A000000A0
:10544000A1B7B6C1C8A1B5C3B5C4CEC4BCFECAFD20
:10545000BEDDCEAAA3BA0D0A2573200D0A000000F6
:1054600038B5044600F027FF002807D169462046DA
:1054700003F06AF8002801D10021216038BD2DE930
:10548000FE4F0D460446694603F05EF807006AD1F8
:10549000677C002FFBD1A06A4FF0020A4FF0010891
:1054A00004F12C0B002871D0691C2FD0E068A842B1
:1054B00000D205466561002D55D02046691EFEF7D5
:1054C00057FF0146A0610098FEF765FF00287DD0D8
:1054D00000996D1E8A89B5FBF2F34D896D1E2B4034
:1054E0001D186069B0FBF2F302FB13000028E3D043
:1054F000E269AA42E0D0207C00063BD5487801232F
:105500005946FFF767FD002870D12FE002C80191CE
:10551000A16883460225F1B10026AD1C029189469F
:105520002046761C01F05AF9014601284ED9481C44
:105530005CD009F101008142F1D00198854206D882
:10554000CBF800600BF10400029A04C08346009877
:10555000C0698842E0D8A06A05600198854203D8F6
:105560000021CBF80010A5E01127A3E0207C00F07B
:105570007F002074009801232A4640785946FFF79F
:10558000CFFC002832D1E56194E0FFE7E068A84253
:1055900003D2217C890700D405464FF000096069D9
:1055A000C4F814900DB300994E8989894E4370B1A7
:1055B000691E401EB1FBF6F1B0FBF6F2914206D334
:1055C000711E884360612D1AA1690DE05BE0A1683E
:1055D00049B900212046FEF72BFF0146012852D091
:1055E000481C61D0A160A161D9B92FE05CE060697D
:1055F000AD1B30446061207C8007204605D5FEF756
:1056000017FF010004D100250DE001F0E7F8014685
:10561000481C49D0012936D90098C069884232D93E
:10562000A161B542E3D8606928446061009882892D
:10563000B5FBF2F302FB135242B1FEF7ACFE10B31E
:1056400000998989B5FBF1F101EB0009E168606916
:10565000884204D9E060217C41F040012174009926
:105660008A89B0FBF2F302FB130018B3E2694A45E2
:1056700020D0207C00060FD5487801235946FFF73B
:10568000A9FC88B904E084F811A00220BDE8FE8FCF
:10569000207C00F07F002074009801234A46407867
:1056A0005946FFF73DFC18B184F811800120EDE761
:1056B000C4F81C903846E9E72DE9FF4F97B09946AA
:1056C00090460D4617A801F0FBF9002803DA0B20DD
:1056D0001BB0BDE8F08FF849002451F8201001B14B
:1056E0000C70C0B2049005B9F44DFFF7B9FBC107C7
:1056F00001D00320ECE7400701D50A20E8E76868FD
:105700000127FE030F9048B90FAA03210498FFF761
:10571000EFFB08B10F9703E00F9828B1B04203D810
:105720000F98411E084200D00F970AAA0221049840
:10573000FFF7DEFB00286ED1BDF82800A0F5007150
:10574000B1F5606F67D8411E0842F4D1297801F0A5
:105750000F01159169784A1E012A00D901218B4653
:10576000A9684A1EB24205D24209B1FBF2F302FB1C
:1057700013120AB14FF400711691E968B1F1807FFC
:1057800002D84A1E114200D00021B1FBF0F7B9FB4C
:10579000F0F05FEA00090DD05FEA08050AD00020AA
:1057A0000C9002900CAA01210498FFF7A1FB00289D
:1057B000C1D101E011208BE71598000706D40C98A1
:1057C0003F2803D93F213F3802910C900C98802844
:1057D0007ED3802F00D980271598800715984FEA2F
:1057E000C07002D510B9032601E078B1022601F09D
:1057F00069F801460C983C46864608444FF6F57217
:1058000040F6F5730990032E07D002E013205FE7FE
:105810003C4644B337E0ABE13C467CB9A7490020A5
:1058200001244FEA5E48103901E06400401C31F861
:1058300010C0BCF1000F01D0C445F6D9BEFBF4F096
:10584000BDF828104FF0200A01EB800C0CF1070C7A
:10585000BCFBF1F1059100210D91904238D9984996
:10586000884235D82CE0DFF854C200204FEA1E38B9
:105870000124ACF11E0C01E06400401C3CF8101047
:1058800009B14145F8D9BEFBF4F0984203D904218F
:1058900001EB400006E0012600EB40000321401C24
:1058A00001EB5000BDF828104FF0010A0844401EDB
:1058B000B0FBF1F0059016984001B0FBF1F00D90AF
:1058C00002980D99504400EB010C1090059900E0EE
:1058D0005EE001FB0BC10F9801EB000C401EACF128
:1058E000010C2CEA000CACEB0100032E2AD0B0FB1B
:1058F000FBF80BFB180CBCF1000F08D0DDF840C022
:105900000AF1010A0CF1010C401ECDF840C0B0FBB9
:10591000FBFC059860440590029801EB0411091AFC
:10592000714535D80598AEEB0A0C00FB1BC10D98EC
:10593000081AB0FBF4F8032E0AD0022E0FD0012E65
:1059400024D027E0DDF840C0824460441090E3E7B3
:1059500090451FD8E7B967087FF45EAF18E090451F
:105960000FD92FB94020B0EB440F01D367004FE7A8
:105970001598800707D503264EE76700802FF6D9D4
:1059800006E0984506D8002FF7D001E0984501D9E8
:105990000E209DE6BDF828102846FAF7B9FF49A069
:1059A0000168296041686960008928813020A872F7
:1059B000BDF8281005F10B0001F064FD6C731FFAAF
:1059C0008AF105F10E0001F05DFD85F810B0032E9F
:1059D0000FD0169881B205F1110001F053FD0C991A
:1059E000B1F5803F07D289B205F1130001F04AFDFD
:1059F00005E00020EEE705F1200001F03BFDF82076
:105A000068753F2105F1180001F03CFDFF2105F10B
:105A10001A0001F037FD05F11C00029901F02AFD82
:105A2000802709994FF0290A032E24D005F1270079
:105A300001F020FD059881B205F1160001F022FD6C
:105A400085F8247085F826A0132221A105F12B00EA
:105A5000FAF7DFFE4AF6552705F5FF70394682460C
:105A600001F010FD01232946029A0498FFF7B2FACB
:105A700000287DD140E005F1430001F0FBFC05F179
:105A80002400059901F0F6FC022105F12C0001F03B
:105A9000F1FC012105F1300001F0F4FC062105F1D3
:105AA000320001F0EFFC85F8407085F842A0132227
:105AB0000CA105F14700CBE7E80200202C86000886
:105AC000F5FFFF0FEBFE904D53444F53352E300042
:105AD0004E4F204E414D452020202046415420204D
