:040000006F10000875
:100004000000000000000000900000208E0200208C
:10001400A9BDF9F5900000200000000000000000D8
:10002400900000209000002000000000000000006C
:10003400900000200000000090000020000000005C
:1000440090000020900000209000002090000020EC
:10005400900000209000002090000020000000008C
:100064009000002090000020900000204603002013
:100074009000002090000020DC030020900000206D
:1000840090000020900000209000002090000020AC
:1000940001A0011113078008F337078093F787083D
:1000A4003EC201000100B71700409305700523808C
:1000B400B704130680FA2380C7040100010083C635
:1000C400B70493F6F60DA385D7042380070492465C
:1000D400F3A606800100010093760502D5CEF3361F
:1000E400078093F6860836C4010001002380B70414
:1000F4002380C70401000100B70614007D89558DD3
:1001040088C7010001000100010023800704A24602
:10011400F3A6068001000100733707801377870870
:100124003AC6010001002380B7042380C7040100FC
:100134000100010001003727004093061005A303C6
:10014400D78023800704B247F3A70780010001008A
:1001540093078008F3B7078093F787083ECE010022
:100164000100B7170040130770052380E704130745
:1001740080FA2380E7040100010003C7B704136772
:100184000708A385E70423800704F247F3A7078041
:10019400010001000561828093760504BDC6F33633
:1001A400078093F6860836C8010001002380B7044F
:1001B4002380C70401000100B706140093860604D7
:1001C4007D89558D88C7010001000100010023804D
:1001D4000704C246F3A606800100010073370780B6
:1001E400137787083ACA010001002380B7042380EB
:1001F400C704010001003727004093062005A3032C
:10020400D78023800704D24781B7733707801377D9
:1002140087083ACC010001002380B7042380C70477
:100224000100010098471367070C98C7238007044F
:10023400E24719BF0111814601468145114506CEA9
:10024400EF00102D93078008F3B7078093F7870812
:100254003EC601000100B717004013077005238054
:10026400E704130780FA2380E7040100010003C7B1
:100274006704136717002383E70423800704B24746
:10028400F3A7078001000100F2400561828041115B
:100294008146014681451145EF00902713078008E8
:1002A400F337078093F787083EC401000100B717AE
:1002B4000040130670052380C704930680FA238048
:1002C400D70401000100FD552396B70223800704DB
:1002D400A245F3A505800100010073370780137759
:1002E40087083AC6010001002380C7042380D7048D
:1002F4000100010003C76704136717002383E704A1
:1003040023800704B247F3A707800100010001A07E
:10031400BD473305F50201007D1575FD828041114D
:1003240022C426C206C6AA84014463179400B240BC
:10033400224492444101828005041305803E420414
:10034400C13F4180DDB73737004083474740994676
:10035400BD8B6388D70231474111638EE70411478F
:10036400639EE700A3070100373700409386C183EB
:100374008347F10003C601826319F600410173004B
:10038400203083475740730020308347F1000346F1
:100394008740B6972380C7008347F100B69783C789
:1003A40007002304F7408347F100850793F7F70F0D
:1003B400A307F10075BF1385C183971000E0E780A0
:1003C400402B1375F50FA307A1008345F100138596
:1003D400C183971000E0E78040274DB7797122D69A
:1003E40062C626D44AD24ED052CE56CC5ACA5EC821
:1003F400971000E0E780000F2A84137C140017355F
:1004040000E01305652B972000E0E78040AE630A07
:100414000C00173500E01305E52A972000E0E7807B
:1004240000AD937B2400638A0B00173500E01305AD
:10043400A529972000E0E78080AB9377440089CB1F
:10044400173500E01305C528972000E0E78020AAAF
:100454009377840089CB173500E01305E5279720AF
:1004640000E0E780C0A8937A0401638A0A00173584
:1004740000E01305E526972000E0E78040A7137B02
:100484000404630A0B00173500E01305E5259720E3
:1004940000E0E780C0A59377040889CB173500E016
:1004A40013050525972000E0E78060A41379041064
:1004B400630A0900173500E013050524972000E0BE
:1004C400E780E0A29377042089CB173500E0130579
:1004D4002523972000E0E78080A193790440638A74
:1004E4000900173500E013052522972000E0E78076
:1004F40000A09317440163DA0700173500E01305E1
:10050400E520972000E0E780809E9317340163DAAA
:100514000700173500E01305E51F972000E0E7808A
:10052400009D9317140163DA0700173500E01305E3
:10053400E51E972000E0E780809B9317040163DAAF
:100544000700173500E01305251E972000E0E7801B
:10055400009A416A337A4401630A0A00173500E0BD
:100564001305451D972000E0E78060989317E40089
:1005740063DA0700173500E01305451C972000E0F7
:10058400E780E096B7040400E18C89C8173500E0E1
:100594001305451B972000E0E78060959317B4008E
:1005A40063DA0700173500E01305451A972000E0C9
:1005B400E780E0939317A40063DA0700173500E09F
:1005C40013058519972000E0E78060929317940043
:1005D40063DA0700173500E01305C518972000E01B
:1005E400E780E0909317840063DA0700173500E092
:1005F40013050518972000E0E780608F173500E0A9
:1006040013058517972000E0E780A0A2630D0A3246
:1006140063000C0203C55181971000E0E78000EBF2
:10062400173500E013058515972000E0E78060A0EA
:10063400638A0410173500E013054516972000E07F
:10064400E780209FB707040093876708E18FB9C745
:1006540083C7218103C73181138A218163FDE706A2
:1006640083470A009384018A93F7F70F13871700CF
:10067400A69703C507002389E180971000E0E7806F
:10068400E0E483470A00173500E013056512BE94C1
:1006940083C5F4FF972000E0E7806085638A0946FC
:1006A4003705001013050540971000E0E780E0E4EB
:1006B4008D472388F1800545A38C0180971000E0C5
:1006C400E780A0DA173500E013050511972000E054
:1006D400E780209635A983C741818DC30545A38C46
:1006E4000180971000E0E78040D8173500E013053B
:1006F400250D972000E0E780C0934DB785478145DD
:1007040013050040A388F180971000E0E78020DA09
:10071400814513050020971000E0E78040D981450A
:1007240013050010971000E0E78060D80545971086
:1007340000E0E78060D1173500E013052509A38C9C
:10074400018045BF173500E01305C50A972000E076
:10075400E780208E638B0B0283C731816383070E8E
:100764000545971000E0E78060D2173500E01305D7
:10077400A509972000E0E780C08B173500E013053A
:10078400A509972000E0E780C08A63040B0683C4B0
:100794002181938714002389F180971000E0E7807A
:1007A40080D39387018ABE942380A40003C7218148
:1007B40083C63181BE84637BD70A0545971000E068
:1007C400E780C0CC173500E013050505972000E04D
:1007D400E78020869387218183C70700173500E0CF
:1007E40013050505A69783C5F7FF971000E0E7807A
:1007F4000070638F0930370500101305054097100A
:1008040000E0E78080CF83C421819387140023898B
:10081400F180971000E0E78000CC9387018AA697C7
:100824002380A70083C74181F9CB0545A38C0180B0
:10083400971000E0E78060C3173500E01305C5009A
:1008440071B50145971000E0E78040C4854717352E
:1008540000E0130565FB238DF180971000E0E7802D
:10086400407D173500E01305E5FB21BF01459710D6
:1008740000E0E780A0C1173500E01305A5FA971042
:1008840000E0E780007B83C7A181B5C7238D018089
:1008940083C7418189CF0545971000E0E780E0BC1C
:1008A400173500E01305C5F1A38C018005B7854712
:1008B400814513050040A388F180971000E0E7808C
:1008C40000BF814513050020971000E0E78020BE9B
:1008D400814513050010971000E0E78040BD0545F1
:1008E400971000E0E78040B6173500E0130505EEE9
:1008F400A38C0180E1BD8547238DF180E1BD85474F
:10090400814513050040A388F180971000E0E7803B
:1009140000BA814513050020971000E0E78020B954
:10092400814513050010971000E0E78040B80545A5
:10093400971000E0E78040B1173500E0130505E9A2
:10094400A38C018061B363830B04B707040093870E
:100954000708E18F63870714173500E0130585F056
:10096400971000E0E780E06C9147A38CF180A38BA3
:100974000180238C01809387C1819C4381CB9C435C
:1009840091C7938581811385018E8297638B041EA1
:100994000545971000E0E78060AF173500E01305C8
:1009A400A5F0971000E0E780C068638A0910370556
:1009B400001013050540971000E0E78000B40545DA
:1009C400971000E0E78080AC173500E0130505EFD1
:1009D400971000E0E780E0650144A38C0180056581
:1009E40013050580B377A40085C3971000E0E78062
:1009F400C0B09947173500E01305C5F32388F1808B
:100A0400971000E0E780E0629317340163D2070295
:100A14000565971000E0E78040AE9D47173500E07C
:100A2400130505F22388F180971000E0E7806060E9
:100A34009317140163D207021165971000E0E78051
:100A4400C0ABA147173500E0130585F02388F1807A
:100A5400971000E0E780E05D9317040163D207027A
:100A64002165971000E0E78040A9A547173500E00D
:100A7400130505EF2388F180971000E0E780605BA1
:100A84002945971000E0E780804A3254A254125955
:100A94008259724AE24A524BC24B324C456173004E
:100AA4002030173500E0130525DE971000E0E780BD
:100AB40040588D47A38CF180238B0180C1BD93776F
:100AC4004408B9C783C7718103C781819389718140
:100AD40063FEE70883C709009384018E93F7F70F39
:100AE40013871700A69703C50700A38BE18097100F
:100AF40000E0E780A09D83C70900173500E01305D7
:100B040025CBBE9483C5F4FF971000E0E780203E18
:100B14006308090213050010971000E0E780E09DC8
:100B24000545971000E0E78040949547173500E0AD
:100B34001305C5DE2388F180971000E0E780604F3D
:100B440093770420E38D07E813050020971000E055
:100B5400E780A09A9147173500E01305E5DC238868
:100B6400F180971000E0E780C04C95BD1305F00FAD
:100B7400971000E0E7808095173500E0130505D550
:100B8400B1B6173500E0130525D6971000E0E780CD
:100B9400404A630C0B0403C76181FD47138B6181D9
:100BA40063E4E70A83440B00138A018C93F4F40F83
:100BB40093871400238BF180D294971000E0E78090
:100BC40080912380A4000545971000E0E780008C05
:100BD40083470B00173500E0130505D23E9A834581
:100BE400FAFF971000E0E7808030638F0A023757DE
:100BF400004083570780173500E0130525D193E79C
:100C040017002310F780971000E0E7808042938755
:100C1400C1819C4381CBDC4391C783C5618113852A
:100C2400018C8297238B0180E38409EE3705001041
:100C340013050540971000E0E780208C05459710C8
:100C440000E0E780A084E9B50145971000E0E78063
:100C5400E08361BF2303048015472303E48001007C
:100C64002302A480828083076480E3CE07FE2303EB
:100C74000480828083076480E3CE07FE03454480BA
:100C8400828083076480E3CE07FE2302A4808280EF
:100C9400411126C44AC24EC006C61377F50BAD47B0
:100CA400AA892E8995446306F70019456537653F7F
:100CB4008D444E854537FD59FD1463983401B24087
:100CC400A2441249824941018280135509011375D6
:100CD400F50F453F2209CDB7011126CC06CEB70446
:100CE400080051371545BD37713769372AC6A53F06
:100CF40032459377150089EB136515001375F50FCD
:100D0400F240E24405618280FD14E9FC0145CDBF57
:100D1400397126DC4ADA4ED852D656D45AD25ED02D
:100D240006DE62CE66CCB7E700E07D5783AA0700F3
:100D340022C603AA470023A0E71823A2E718B7177F
:100D44000040130770052380E704130780FA23800B
:100D5400E70483C74704930B75FFB684E20793FB4C
:100D6400FB0F8546AA892E8B328937240040E18700
:100D7400015763FA76016308D50089461307000218
:100D84006313D5000157D98F93F7F70FB71C0040B1
:100D94002382FC0411472303E4801305F00F5D3D17
:100DA400094CD135636D7C11B7050700DA95378797
:100DB4000700795563F2E504B3879500636EF70283
:100DC400370B0800A94733EB65016399F90689E4F9
:100DD4008144513D26850DA0DA850945553D050917
:100DE4000345F9FFFD14050B693D81C49377FB0F9F
:100DF400FDF7DD3569FD7D55B71700401307700514
:100E04002380E704130780FA2380E70403C7470419
:100E1400418B2382E704F250B7E700E023A0571187
:100E240023A24711E25432445259C259325AA25AA7
:100E3400125B825B724CE24C21618280A547639510
:100E4400F90685691309F00FB3069900B3742B01F1
:100E5400B6941349F9FFB3749900856B337969012A
:100E6400416B9387F9FFB3F7270199E363FC3401DE
:100E740093D94900C147E3E637FF99BF0569C169C2
:100E84007D19D9B71305800D638869011305000224
:100E94006384790113051008CA85DD3B353D21DDE6
:100EA4004E99B3843441D9B7DA852D45D533CA94E4
:100EB400E30099F205097D3BA30FA9FED5BF9387F3
:100EC400F9FF93F7F70F6361FC0C83C71C04130746
:100ED4003008631FF70437070800636BEB04B3079C
:100EE4009B00B706100063F5D704334BEB0089472A
:100EF4006393F9068980D549E38C04ECDA850945C6
:100F0400413B11090327C9FF91472320E4800307CC
:100F14006480E34E07FE23033481FD17EDFBFD14CB
:100F2400110B81C49377FB0FE9FF7D3371F5E1B5B4
:100F3400B717004003C75704B70708001377070221
:100F440019E3B78707007955E378FBEA33079B0079
:100F5400E3FFE7F855B58547E382F9F2DA852D45D5
:100F6400053B9389F4FFE38504E6293393F73900BD
:100F740091EB832604800327090093074900E39A31
:100F8400E6E43E89CE84F1BFB5476396F9001305C4
:100F9400900BC93135BDB1471305B00AE38BF9FE97
:100FA40099476391F904B7050800B365BB002D4563
:100FB400C53181448D4BA1497539639674018327EA
:100FC40004802320F9008504E39834FF83270480F8
:100FD40013172B01635507002312F900D5BB2322F5
:100FE400F900FDB39D476399F90281451305B004E7
:100FF4004531BD442320090023220900FD599D39B0
:1010040093F77400CA9703C70700FD14398D238032
:10101400A700E39634FF6DBBA1476392F9046D39D1
:101024008144630D0B008D479304C0036308FB00E8
:101034009304000563048B01930440041375C507EE
:10104400E30895D8194539313939054521312685C3
:101054000D3909453D314931E31C05D669BB91473A
:101064006399F90013056006F536F53E13059009FA
:0C1074000DB7E38F09D4F154A9BB0000B4
:101080009711002093810186175100201301817769
:101090001305400097F5FF1F9385C5F6170600203E
:1010A000130606FE63FAC5008322050023A055003F
:1010B00011059105E3EAC5FE17350000130585A665
:1010C000970500209385C5FB1386018163FAC5004F
:1010D0008322050023A0550011059105E3EAC5FE12
:1010E00013850181938541D06377B50023200500E6
:1010F0001105E36DB5FEFD42739002BC8D42739005
:101100004280930280087390023097F2FF1F93820F
:1011100062EF93E2320073905230970200009382A4
:10112000621D73901234730020303D432A8763732D
:10113000C3029377F700BDEFADE5937606FF3D8AD6
:10114000BA960CC34CC30CC74CC74107E36BD7FE20
:1011500011E28280B306C3408A0697020000969689
:101160006780A6002307B700A306B7002306B700D1
:10117000A305B7002305B700A304B7002304B700F5
:10118000A303B7002303B700A302B7002302B700ED
:10119000A301B7002301B700A300B7002300B700E5
:1011A000828093F5F50F93968500D58D9396050172
:1011B000D58D61B793962700970200009696868298
:1011C000E78086FA9680C1171D8F3E96E374C3F8B8
:1011D000A5B73367B500FD530D8B79E7B7877F7FE0
:1011E0009387F7F710419441B372F6003363F6002A
:1011F000BE92B3E262006397720C6318D606504148
:10120000D441B372F6003363F600BE92B3E26200DB
:101210006398720A631BD60410459445B372F600B6
:101220003363F600BE92B3E262006391720A631EFA
:10123000D6025045D445B372F6003363F600BE9231
:10124000B3E26200639A72086311D60210499449AE
:10125000B372F6003363F600BE92B3E262006393AA
:1012600072085105D105E30FD6F6131706019397BF
:101270000601631CF7001357060193D706013305D7
:10128000F7409375F50F91E982804183C18333055F
:10129000F7409375F50F91E182801377F70F93F77D
:1012A000F70F3305F74082800346050083C605002B
:1012B000050585056313D60065FA3305D64082809F
:1012C00011059105E312D6FE014582802105A10595
:1012D000E31CD6FC014582803105B105E316D6FC3E
:1012E000014582804105C105E310D6FC014582809D
:1012F000411106C6C12E01A0914763EEB702172720
:1013000000001307E7378A05BA959C41BA97828790
:10131000B717004003A7470B1345F5FF698F23AAB2
:10132000E70A03A7070B698F23A8E70A03A7070AA1
:10133000798D23A0A70A8280B717004083A6470BA8
:101340001347F5FFF98E23AAD70A83A6070B558DFD
:1013500023A8A70A83A6070A758F23A0E70A82801D
:10136000B717004003A7470B498F23AAE70A03A733
:10137000070B1345F5FF45BFB717004083A6470B82
:101380001347F5FF758F23AAE70A03A7070A598DAC
:101390004DB7B717004003A7470B498FEDB79147EB
:1013A00063EEB702172700001307C72E8A05BA9508
:1013B0009C41BA978287B717004003A7470D134592
:1013C000F5FF698F23AAE70C03A7070D698F23A8F0
:1013D000E70C03A7070C798D23A0A70C8280B71711
:1013E000004083A6470D1347F5FFF98E23AAD70CBB
:1013F00083A6070D558D23A8A70C83A6070C758F10
:1014000023A0E70C8280B717004003A7470D498F40
:1014100023AAE70C03A7070D1345F5FF45BFB71730
:10142000004083A6470D1347F5FF758F23AAE70CED
:1014300003A7070C598D4DB7B717004003A7470DF9
:10144000498FEDB7375700408357078011C593E7A1
:1014500007102310F7808280C207C18393F7F7EF4C
:10146000C207C183FDB7375700408357078011C5B6
:1014700093E707202310F7808280C207C18393F788
:10148000F7DFC207C183FDB7375700408357078096
:1014900011C593E707402310F7808280C207C183FC
:1014A00093F7F7BFC207C183FDB7B757004003D713
:1014B00047804205418189C5598D2392A78082804A
:1014C0001345F5FF798DD5BFB75700402398A78006
:1014D0008280B757004003D507811375F50F8280CE
:1014E000B757004003D7478103D587814205598DFF
:1014F0002205218182801345F5FF42054181B757BE
:101500000040239AA7808280B71700408847420591
:1015100041819377050491EB9377F5013755E80105
:10152000130505803345F50282809377050C130778
:1015300000046397E7009377F50137459C1CCDB70E
:101540002165130505D08280814737370040A146C9
:1015500063C4C700328582800345B740E38EA6FE90
:101560003385F5000345050085072304A740CDB763
:1015700097070020938707B79C43138741D03E9578
:10158000636EE500175700201307C7076368A700BD
:10159000170700202328A7B43E858280FD57EDBFA2
:1015A000411122C406C62A8485372947B307E502BC
:1015B000B2408D83B3D7870222449507B3D7E702A1
:1015C00037370040C207C1832316F74041018280AC
:1015D000716541111305052006C6D937B73700409C
:1015E000130770F82381E7400D47A381E7401307F5
:1015F0000004A380E74005472387E740B24041014C
:10160000828037370040834727401A0593F7F70356
:10161000C98F93F7F70F2301F7408280B737004057
:1016200003C7174019C9D98DA380B74003C7074026
:10163000136787002380E740828093C5F5FFF98D0B
:10164000A380B7408280B73700402147B7360040BB
:1016500091E1828003C6B740E30CC7FE050503464F
:10166000F5FFFD15C2052384C640C181D5B781476A
:10167000B736004003C7A64013960701418213778F
:10168000F70F19E33285828003C686403307F500E1
:1016900085072300C700F9BF41111305800406C662
:1016A00097F0FF1FE780209F1520B240410179A9E4
:1016B000411117250000130525FF06C6EF0030175E
:1016C0002D2BFDBF411106C6C13FDD373717004046
:1016D0008327870A411106C693E707202324F70AC8
:1016E00085451305001009398D4513050020293162
:1016F000C5350D4539379D47954505452380F18210
:10170000313FB240B7E700E03707000823A0E710F9
:1017100041018280A38C018085474111238AF18099
:101720008D450D6506C6A38801809539B717004021
:101730009386418003A6870C03D70600B240518FE1
:1017400023A4E70C03A6870C03D72600518F23A4FC
:10175000E70C41018280054517F3FF1F670083BB3B
:10176000011126CA4AC82AC42EC6135905018D453F
:1017700093140501056506CE22CC371400400531CF
:101780008327840CC180B3E727012324F40C83272B
:10179000840CC58F2324F40C7D3F8327C40C33694C
:1017A000F9002326240D453F8327C40CF24042490B
:1017B000DD8C2326940C6244D244056169BF01117B
:1017C00026CA4AC82AC42EC6935405018D4513194A
:1017D0000501056506CE22CC37140040C9368327A3
:1017E000C40C13590901C58F2326F40CAD37832788
:1017F000840C3369F9002324240DB13F8327840C22
:10180000F2404249DD8C2324940C6244D2440561A9
:1018100099B7011122CC4AC82AC42EC61314050157
:10182000854513590501056506CE26CA8D3EB714B8
:10183000004083A7840C4180B3E7270123A4F40C64
:10184000193F83A7840CC18F23A4F40C2937930775
:10185000B00F371700408326470CB376D90089EACA
:101860008327C70C5D8C2326870CF535054529A8F1
:10187000FD1793F7F70FE5F32314810023152101DA
:101880002245B2452D3F0145F2406244D2444249CF
:1018900005618280011126CA4AC82AC42EC6935403
:1018A00005018D4513190501056506CE22CC3714B7
:1018B0000040F5348327C40C13590901C58F232632
:1018C000F40C513D8327840CB3E727012324F40C47
:1018D00059358327C40C3369F9002326240DA53D0F
:1018E0008327840CF2404249DD8C2324940C62440B
:1018F000D24405618280011126CA4AC82AC42EC674
:10190000931405018D4513590501056506CE22CCBA
:101910003714004069348327840CC1803369F9008F
:101920002324240D0D3D8327840CC58F2324F40C20
:101930001D358327C40CF2404249DD8C2326940CCC
:101940006244D244056101BD79714ECE52CC2AC4A5
:101950002EC6131A0501935905018D45056522D43C
:1019600026D24AD006D656CA3289135A0A01053CF5
:10197000A144371400408327C40CB3E74701232652
:10198000F40CD13B93178901E18763DC07048327BB
:10199000840CB3E737012324F40C753B8327840CB4
:1019A000FD140609B367FA002324F40C6D33832772
:1019B000C40C93F4F40F1379F90FB367FA002326DC
:1019C000F40CD5F80325840CB250925433653501DC
:1019D0002324A40C22540259F249624AD24A456196
:1019E00082808327C40CB3E737012326F40C75B734
:1019F000797106D63AC636C82ACC2ECE32CA8D3375
:101A000052466245F2458937F24562451935C2466C
:101A10006245F24536860D3FF2456245DD3B324771
:101A20006245F2453A860D37F2456245DD3362453F
:101A3000F245B250456161B3938741803287AE86EB
:101A40002A86CC4388436DB779714ECE52CC2AC4D6
:101A50002EC693190501135A05018545056522D443
:101A600026D24AD056CA06D6B28A93D90901EFF0D7
:101A70001F93A1440144371900408327890C0604B1
:101A80001374F40FB3E737012324F90CE9318327EA
:101A9000490CB377FA0081C705041374F40F832748
:101AA000C90CFD1493F4F40FB3E7F9002326F90CE5
:101AB0005D31E1F4231431012315410185472245AD
:101AC000B245639DFA00F9332285B25022549254F4
:101AD0000259F249624AD24A45618280293DEDB7F6
:101AE000011106CE22CC36C232842AC42EC68D39CC
:101AF0002245B2452286893DB2452245193B924690
:101B00002245B24536868935B245224519332245EC
:101B1000B245B9312245B245136614003535B24598
:101B20002245C539B24522450146393F2A84B2458E
:101B3000224571312285F24062440561828093879B
:101B40004180AE862A86CC43884359BF41116945FE
:101B500006C6C93613060004930500026945E93D2F
:101B60006945054693051002C13DB2402945410132
:101B700017E3FF1F6700E37A41118145694506C6F7
:101B800022C41384C182653F2300A40085456945B2
:101B90007D37A300A4008945694555372301A4007A
:101BA0008D456945693FA301A40091456945413FC1
:101BB0002302A4009545694559378347140083469D
:101BC000040013874182A207D58F2311F7008347B2
:101BD000340083462400A302A400A207D58F23105B
:101BE000F700834744002205B24022445D8D33054F
:101BF000A0402312A70041018280411106C6AD3FDB
:101C00000D479386418217260000130666D6972556
:101C10000000938525D605453928AA85172500009B
:101C2000130585D5D924B24013054006410117E3B9
:101C3000FF1F6700036F1971BEDA23800190FC104B
:101C4000A2CCA6CACEC6D2C4D6C262DC66DA86CE22
:101C5000CAC8DAC05EDE2A8CAE8A328AB6D6BAD854
:101C6000C2DCC6DE3EC681490544972C0000938C39
:101C70002CD19384019063C18903F6406644D64415
:101C80004649B649264A964A064BF25B625CD25CEC
:101C90001385019009618280E6855285EFF06FD34C
:101CA000B2470149138787003AC683AB070003ABED
:101CB000470029ED63446901850975BF01E4D685B4
:101CC0002685DD2693172900DE9788430509014400
:101CD00089202A87AE875286930500020808A92E1C
:101CE0000C082685D126F9B701E4D68526856D2E08
:101CF00093172900DE979443528693050002080843
:101D0000252E0C0826854D2605090144E34E69FD64
:101D100065B7135775011377F70F41119307170034
:101D200022C426C21314950006C693F7E70F258038
:101D30009354F50185C79357340013070738760489
:101D4000B2075207B1831395F401D98FC98FB240FE
:101D5000228522449244BE854101828005EB39C42C
:101D60002285B128A94763C6A7042D47098F930789
:101D700055013357E4003314F4009317C7001307D9
:101D80009038098FB1831377F77F5DBF01CC13576C
:101D90003400B7070800D98FB2077604B183130760
:101DA000F07F79BF1307F07F814759BF0147814713
:101DB00041BF130755FF3317E40001447DBFC167DE
:101DC000637EF5029307F00F1307000263ECA70090
:101DD00097270000938707BBAA9703C50700330521
:101DE000A74082802181972700009387A7B9AA97EF
:101DF00003C5070061473305A7408280B70700018C
:101E0000636EF5006181972700009387A7B7AA97B3
:101E100003C5070021473305A740828041819727EA
:101E20000000938727B6AA9703C5070041473305EB
:101E3000A7408280B3C7A5008D8B3307C50081E71B
:101E40008D4763EEC700AA876370E50A83C6050065
:101E500085078505A38FD7FEE3EAE7FE82809376A8
:101E60003500AA8791CA83C6050085078505A38F1B
:101E7000D7FE93F63700FDB79376C7FF138606FEAD
:101E800063F0C70683A3050083A2450083AF8500E6
:101E900003AFC50083AE050103AE450103A3850171
:101EA00083A8C5019385450223A0770003A8C5FF39
:101EB00023A2570023A4F70123A6E70123A8D701F3
:101EC00023AAC70123AC670023AE170193874702FB
:101ED00023AE07FF75B790419107910523AEC7FE6A
:101EE000E3EBD7FEE3E4E7F6828039713EDA2ED2E7
:101EF00032D436D63AD842DC46DE9387C18022CC33
:101F0000804326CA06CEAA8409C41C4C99E32285C4
:101F1000F92B0C4454102686228536C6EF00505902
:101F2000F2406244D2442161828001119387C180D2
:101F300022CC804306CEAA8519C41C4C89E72AC648
:101F400022857523B245104422856244F240056122
:101F50006F10003B011126CA4AC806CE22CC4EC6DD
:101F600052C4AA842E8901C51C4D91E349239C4C7F
:101F7000804499E32685A52B97270000938787B295
:101F8000631CF402C0408357C400A18BB1C71C4836
:101F9000A1C7FD59294A1C4483450900FD17B1E931
:101FA0001CC463DE07062286A9452685312AFD5713
:101FB0006308F502294535A097270000938787B06D
:101FC0006314F4008044C1B797270000938787AB60
:101FD000E31BF4FAC04445BFA2852685752255D976
:101FE0007D55F2406244D2444249B249224A0561D9
:101FF00082801CC4050963D70700184C63CBE70037
:10200000638945011C401387170018C02380B7005F
:1020100059B7228626854D28E31F35F7D1B71C40D6
:102020001387170018C029472380E70061B79387FB
:10203000C180AA85884339BF35713ECBA6DA36C741
:102040003AC942CD46CF9387C18086DEA2DC844365
:1020500063DB05009307B0089CC07D55F6506654BD
:10206000D6540D61828093078020231AF1002AC480
:102070002ACC814799C19387F5FF3EC83ECE7401B3
:10208000FD572E8426852C00231BF10036C2EF005D
:10209000B013FD576355F5009307B0089CC05DDC95
:1020A000A247238007005DBFAA8703C70700938666
:1020B000170009EB850503C7F5FF8507A38FE7FE2A
:1020C00075FB8280B687D5B7011122CC26CA4AC8D3
:1020D00006CE4EC6AA842E89328401C51C4D91E3DA
:1020E0003921972700009387E79B6319F406C040C6
:1020F0001C4C1CC48357C400A18BC9C31C48BDCF52
:102100001C4808409379F90F1379F90F1D8D5C482D
:102110006346F500A2852685652C2DE51C44050542
:10212000FD171CC41C401387170018C023803701FB
:102130005C486389A7008357C400858B81CBA9477E
:102140006316F900A285268561240DEDF2406244F4
:102150004A85D2444249B2490561828097270000EE
:10216000938747966314F400804459B7972700007B
:1021700093874791E31EF4F6C0449DBFA285268550
:1021800021203DDD7D59D9B741119387C18026C2F9
:10219000844322C44AC006C62A892E8489C49C4C22
:1021A00099E32685A926972700009387A78F631CAC
:1021B000F402C0400317C40093170701C18393F6CC
:1021C0008700B5EE93F607019DEEA5472320F900A1
:1021D000136707042316E4007D55B240224492445D
:1021E000024941018280972700009387A78D6314DD
:1021F000F4008044C1B7972700009387A788E31BAA
:10220000F4FAC04445BF918B8DC74C5889C99307D8
:1022100044046384F5004A859123232A04028357EA
:10222000C4002322040093F7B7FD2316F4001C48D2
:102230001CC08357C40093E787002316F4001C4892
:1022400081EF8357C4001307002093F707286385A5
:10225000E700A2854A85A5218357C40013F717001C
:1022600005C75C4823240400B307F0401CCC1C487D
:102270000145A5F78317C40013F7070839DF93E773
:1022800007042316F40089BF898B014791E358485E
:1022900018C4F1BF83D7C500011122CC26CA06CECF
:1022A0004AC84EC613F78700AA842E8471EFD8411E
:1022B000634DE000B841634AE0000145F2406244EA
:1022C000D2444249B2490561828058547DD703A95E
:1022D00004009396370123A0040063DD06067048CE
:1022E0008357C400918B99C75C401D8E5C5899C37D
:1022F0003C401D8E5C540C50814626858297FD57CC
:102300000357C400631DF5009440F54763E8D70602
:10231000B70740208507B3D7D700858BA5C31C48D6
:10232000232204001CC09317370163D80700FD5710
:102330006314F5009C4091E368C84C5823A0240125
:10234000ADDD930744046384F50026850129232A23
:102350000402A5B70C500146854626850297FD5715
:102360002A86E31FF5F69C40A5DF75476385E700E5
:1023700059476394E70423A0240181B71367070436
:102380002316E4007D551DBF83A90501E38709F2EB
:1023900003A905008D8B23A035013309394101477D
:1023A00091E3D84918C4E35A20F11C540C50CA8652
:1023B0004E86268582976349A0008357C40093E721
:1023C00007042316F4007DBFAA993309A940E1BF91
:1023D0009C49B9CF011122CC06CE2A8411C51C4DCF
:1023E00081E72EC62922B245971700009387876B95
:1023F000639BF5004C408397C50095C722856244D6
:10240000F240056141BD971700009387A76B639465
:10241000F5000C44CDB7971700009387A766E39C9F
:10242000F5FC4C44C9BFF24062440145056182801D
:1024300001458280411122C406C62A842316B500B4
:102440002317C500232005002322050023240500AF
:102450002322050623280500232A0500232C050036
:10246000214681451305C505EFE03FCC97170000D5
:10247000938747F45CD0971700009387A7F61CD486
:10248000971700009387E7FA5CD4971700009387AB
:10249000A7FD00D01CD8B24022444101828097059C
:1024A0000000938525F389AA411126C213068006F0
:1024B0009384F5FFB384C4024AC02E8922C406C6A1
:1024C0009385440781262A8401CD232005002322F9
:1024D0002501310508C4138684068145EFE0FFC459
:1024E0002285B240224492440249410182801C4D1F
:1024F000BDE3411106C622C497070000938767FA1F
:102500001CD5971700009387A7619C4323240504DB
:1025100023260504232805046314F50085471CCDF4
:102520002A841D2848C02285052808C422852D201C
:1025300048C4484001469145F53D08440546A54537
:10254000D53D48440946C945F53585471CCCB240C0
:1025500022444101828082804111971700009387B5
:10256000275C26C284434AC006C69C4C22C42A89E2
:1025700099E32685AD3F938484048044DC40FD17B5
:1025800063D607009C40B9CF8440C5BF0317C40081
:1025900039E7C1778507232204062320040023227C
:1025A0000400232404005CC423280400232A04001C
:1025B000232C0400214681451305C405EFE0FFB636
:1025C000232A0402232C04022324040423260404C3
:1025D0002285B24022449244024941018280130480
:1025E000840671BF91454A85C13588C051FDB14708
:1025F0002320F9000144E9BF797122D44AD052CC9A
:1026000056CA5AC85EC606D626D24ECE2A8AAE8A88
:10261000130485040149054BFD5B09ECB2502254BB
:102620004A8592540259F249624AD24A424BB24B0D
:1026300045618280044483294400FD1963D4090064
:102640000040E1BF83D7C400637BFB008397E400B5
:1026500063877701A6855285829A3369A90093849E
:102660008406E1BF1971A6DAAE848395E500A2DC89
:1026700086DE328463DC050083D7C40023A0060015
:1026800093F7070885E7930700401DA0300836C67A
:10269000EF001063B246E34105FE7247BD67F98F54
:1026A0007977BA9793B717009CC2F1BF93070004DC
:1026B0001CC0F6506654D65401450961828083D708
:1026C000C500011122CC06CE26CA4AC8898B2E84A9
:1026D00089CF930774041CC01CC885475CC8F240AE
:1026E0006244D24442490561828074003000AA8469
:1026F000953FA2452A892685312201ED8317C40022
:1027000013F7072069FFF19B93E727002316F400D6
:10271000C9B7970700009387C7D89CD48357C400D4
:1027200008C008C893E707082316F400A2475CC84E
:10273000B24791CF8315E4002685EF00105B01C9F5
:102740008357C400F19B93E717002316F4008357C7
:10275000C4003369F9002316240151B7DDC183A7F2
:10276000C5FF411122C406C626C21384C5FF63D328
:1027700007003E94AA84EF00D062938741839C4374
:1027800081EF2322040023AA81822244B2402685BD
:10279000924441016F001061637EF40014403307DE
:1027A000D4006396E7009843DC43369718C05CC0BA
:1027B000D9BFBA87D84319C3E37DE4FE9443338677
:1027C000D700631F86001040B29694C33386D700AB
:1027D000E31DC7FA10435843B29694C3D8C375B7E4
:1027E0006375C400B1479CC04DB71040B306C40028
:1027F0006316D70014435843B29614C058C0C0C3E0
:1028000069B78280011126CA93843500F19806CEFB
:1028100022CC4AC84EC6A104B14763F5F404B144C2
:1028200063E4B4042A89EF00D05793874183984327
:102830003A8429E4938781839C4399E781454A85BB
:10284000EF00703423ACA182A6854A85EF00B03337
:10285000FD5963193507B1472320F9004A85EF0078
:10286000705429A0E3DE04FAB1471CC10145F240CF
:102870006244D2444249B249056182801C40858F3E
:1028800063CF0702AD4663F6F6001CC03E9404C059
:1028900031A05C406313870223AAF1824A85EF00CE
:1028A00070501305B4009307440061993307F54055
:1028B0005DDF3A94898F1CC05DBF5CC3C5B72287BA
:1028C000404085BF130435007198E30285FCB305D1
:1028D000A4404A85EF00302BE31B35FBADBF01114F
:1028E0004AC803A9850022CC52C45AC006CE26CAC3
:1028F0004EC656C22E84328B368A63ED260983D7A4
:10290000C50013F7074849C704408C495848AA8AAC
:10291000B389B4408D44B384E4020947B3C4E402EC
:10292000138716004E9763F3E400BA8493F70740C9
:10293000D1C3A6855685F9352A890DE5B14723A06F
:10294000FA008357C4007D5593E707042316F4006B
:10295000F2406244D2444249B249224A924A024B6E
:10296000056182800C484E86EFF0CFCC8357C400BF
:1029700093F7F7B793E707082316F40023282401F9
:1029800044C84E99B38434412320240104C452899D
:1029900063732A01528908404A86DA85EF00D03BEA
:1029A0001C440145B38727411CC41C403E99232089
:1029B000240179BF26865685EF00F03E2A895DFD09
:1029C0000C485685613B9DBF83D7C500717126D3E6
:1029D0004AD14ECF06D722D552CD56CB5AC95EC763
:1029E00062C566C393F70708AA892E89B284B1C36A
:1029F0009C49A1E39305000436C629352320A9008C
:102A00002328A900B24615E1B14723A0F9007D555E
:102A1000BA502A549A540A59FA496A4ADA4A4A4B2D
:102A2000BA4B2A4C9A4C4D61828093070004232AAA
:102A3000F90093070002A30CF1029307000302DAE6
:102A4000230DF10236CE930B5002971A0000938AA1
:102A50006A09054C294B26848347040099C3639C6B
:102A60007709B30C9440638D0C00E6862686CA85F0
:102A70004E85B535FD576304F51AD256E69636DA1B
:102A800083470400638D0718FD579304140002D098
:102A900002D63ED202D4A301010682DC83C5040023
:102AA00015465685EF00B02913841400825731E58E
:102AB00013F7070109C713070002A301E10613F783
:102AC000870009C71307B002A301E10683C604000B
:102AD0001307A002638BE602B2572684814625467F
:102AE0000347040093051400130707FD6374E6060B
:102AF0008DC63ED61DA0050485B733055541331557
:102B0000AC00C98F3ED0A28451BF724793064700E4
:102B1000184336CE634907023AD6034704009307A9
:102B2000E002631FF704034714009307A002631B2E
:102B3000F702F2470904138747009C433ACE63C16A
:102B400007023ED235A83307E04093E727003AD684
:102B50003ED0E1B7B387670385462E84BA9749B75D
:102B6000FD57C5B7050402D2814681472546034774
:102B7000040093051400130707FD6378E606F1F2DD
:102B8000834504000D4617150000130525F6EF00D8
:102B9000101B11CD97170000938747F51D8D9307E4
:102BA0000004B397A700025505045D8D2AD0834524
:102BB0000400194617150000130585F3930414004B
:102BC000230CB102EF00B01725C597D7FFFF9387FD
:102BD000674395E70257F2471377071009CF91072C
:102BE0003ECED257D2973EDABDB5B387670385464E
:102BF0002E84BA97ADBF9D07E19BA107D5B7780892
:102C0000970600009386E6CD4A860C104E85970005
:102C10000000E7000000FD572A8AE314F5FC835703
:102C2000C9007D5593F70704E39407DE5255CDB3F1
:102C30007808970600009386C6CA4A860C104E850F
:102C40002129D1BF1C46FD171CC663DA0700184EA8
:102C500063C5E700A9476394F5006FF0EFC61C4217
:102C60002E851387170018C22380B70082800111B8
:102C700022CC26CA4AC84EC652C406CE2A89AE897C
:102C80003284B304D6007D5A63149400014509A828
:102C9000834504004E864A8575370504E31645FFD3
:102CA000F2406244D2444249B249224A05618280DC
:102CB000357122CD26CB4AC94EC706CF52C556C361
:102CC0005AC1DEDEE2DCE6DAAA89AE8432893684D5
:102CD00009C51C4D99E3EFF09F819717000093877A
:102CE00067DC639CF40C83A4490083D7C400A18BE8
:102CF000FDC79C48EDC793070002A304F1029307A8
:102D0000000302D22305F10222C6930B5002971A48
:102D10000000938A2ADD054C294B4A84834704002E
:102D200099C36391770FB30C2441638D0C00E68641
:102D30004A86A6854E85253FFD576307F51E9256A8
:102D4000E69636D2834704006380071EFD571309B9
:102D5000140002C802CE3ECA02CCA309010482D4E8
:102D60008345090015465685EF00607D1304190060
:102D7000C24759E913F7070109C713070002A3095E
:102D8000E10413F7870009C71307B002A309E104A0
:102D9000834609001307A0026380E608F2474A84CD
:102DA000814625460347040093051400130707FDD9
:102DB0006379E60AB5CA3ECE85A8971700009387C7
:102DC00067D06395F40083A4890005B797170000C6
:102DD000938747CBE39BF4F083A4C90039B7A6855A
:102DE0004E85EFF06FBA01D97D55FA406A44DA4456
:102DF0004A49BA492A4A9A4A0A4BF65B665CD65C4B
:102E00000D618280050419BF330555413315AC00AF
:102E1000C98F3EC82289A9B7324793064700184395
:102E200036C6634907023ACE034704009307E0021F
:102E3000631FF704034714009307A002631BF70204
:102E4000B2470904138747009C433AC663C107028F
:102E50003ECA35A83307E04093E727003ACE3EC884
:102E6000E1B7B387670385462E84BA9725BFFD5720
:102E7000C5B7050402CA81468147254603470400B9
:102E800093051400130707FD6376E606F1F2834508
:102E900004000D4617150000130545C54D2511CD3D
:102EA00097170000938787C41D8D93070004B3977D
:102EB000A700424505045D8D2AC8834504001946D4
:102EC000171500001305C5C2130914002304B1022D
:102ED000BD253DC197D7FFFF9387C71295E74247AE
:102EE000B2471377071009CF91073EC69257D29782
:102EF0003ED225B5B387670385462E84BA97BDBFFA
:102F00009D07E19BA107D5B778009706000093863F
:102F100046D626860C084E8597000000E700000084
:102F2000FD572A8AE314F5FC83D7C40093F70704FE
:102F3000E39C07EA125555BD78009706000093867A
:102F400046D326860C084E85012AD9BF797156CA08
:102F50009C49BA8A984522D426D24ECE52CC06D667
:102F60004AD05AC85EC6AA892E84B284368A63D3F0
:102F7000E700BA879CC00347340419C385079CC087
:102F80001C4093F7070281C79C4089079CC0032916
:102F9000040013796900631A0900130B9401FD5BA7
:102FA0005C449840998F634CF9041C408346340478
:102FB00093F70702B336D000A5EB13063404D2858D
:102FC0004E85829AFD576303F5041C4011469840D4
:102FD000998B544481446397C700B384E64063D31C
:102FE000040081441C4418486354F700998FBE9430
:102FF000014969047D5B63982405014509A885465C
:103000005A86D2854E85829A631E75017D55B250CF
:10301000225492540259F249624AD24A424BB24B6C
:10302000456182800509ADBF3307D4001306000354
:10303000A301C7040347540493871600A297890687
:10304000A381E7049DBF85462286D2854E85829A5C
:10305000E30E65FB050945B7797122D426D24AD023
:103060004ECE06D652CC56CA5AC8B68983C68501FA
:10307000930790063289AA842E8413863504638DC3
:10308000F60263E2D706930780056387F61863EDBF
:10309000D7006380062293073004638EF60A930AF2
:1030A00024042301D404C9A0930730066385F60ADB
:1030B00093074006E395F6FE1C40084393F6070885
:1030C00093054500C5C61C410CC363D80700130710
:1030D000D002B307F040A301E404971600009386E2
:1030E000A6A129476DA8930700076383F61663E539
:1030F000D7029307E006638AF6189307F006E39079
:10310000F6FA0C401C4313F80508138547006307C3
:10311000080608C39C438DA893075007E383F6FE77
:1031200093078007638AF61293073007E399F6F650
:103130001C43D04181459386470014C383AA0700EE
:103140005685F52E01C53305554148C05C401CC865
:10315000A301040471A81C43930A24049386470026
:103160009C4314C32301F4048547D5B793F60704A1
:103170001C410CC3B9DAC207C18781BF93F50504AE
:1031800008C3C9D983D707001307F0066387E60E83
:1031900097160000938646962947A30104044C40E5
:1031A0000CC463C5050008406D9908C099E3B28A54
:1031B00091CDB28AB3F5E702FD1AB69583C5050035
:1031C0002380BA00B3D5E70263FFE70AA147631E75
:1031D000F7001C40858B91CB58401C4863C7E70023
:1031E00093070003A38FFAFEFD1A3306564110C859
:1031F0004E87CA867000A2852685893B7D5A631E4C
:10320000450B7D55B250225492540259F249624AFC
:10321000D24A424B45618280A382D50497160000B2
:103220009386868D0C40084313F805081C41110550
:10323000630D080208C313F7150001C793E50502E3
:103240000CC04147B9FB0C4093F5F5FD0CC0B1B77C
:103250009C4193E707029CC193078007A302F404F3
:10326000971600009386868A75BF13F8050408C375
:10327000E30308FCC207C1837DBF97160000938655
:10328000A687214719BFAE8735B794411C43CC4967
:1032900013F80608138547006306080008C39C431B
:1032A0008CC301A808C393F606049C43F5DA239067
:1032B000B70023280400B28A25BF14485686CA8561
:1032C00026858299E30F45F31C40898B8DE7B24731
:1032D0004844E359F5F23E8535B785465686CA859A
:1032E00026858299E30F65F1050A5C443247998F80
:1032F000E345FAFEE9BF014A930A94017D5BF5B705
:10330000011122CC06CE2A8409C91C4D99E732C688
:103310002EC4EFF0CF9D3246A24597070000938759
:1033200067786316F60250401C46FD171CC663D032
:103330000704184E63C7E70093F7F50F2947639812
:10334000E70222856244F24005616FE0FFD79707EC
:103350000000938727776314F6001044F1B79707AE
:10336000000093872772E311F6FC504475BF1C429E
:1033700013F5F50F1387170018C22380B700F2402A
:10338000624405618280411122C42A842E8523A0D3
:1033900001D006C6EFE0CF9DFD576317F500938778
:1033A00001D09C4391C31CC0B240224441018280A1
:1033B000411122C42E848395E50006C68924634901
:1033C00005007C48AA977CC8B24022444101828013
:1033D0008357C4007D777D17F98F2316F400EDB76E
:1033E00083D7C500011122CC26CA4AC84EC606CED4
:1033F00093F70710AA842E843289B68991C78395E2
:10340000E5008946014631228357C4007D777D1748
:10341000F98F2316F4008315E4006244F240CE864F
:103420004A86B24942492685D24405613DA84111E8
:1034300022C42E848395E50006C6E128FD57035774
:10344000C400631BF500FD77FD17F98F2316F40008
:10345000B2402244410182808567D98F2316F4004F
:1034600068C8FDB78395E50005A8411122C42A84E8
:103470002E85B285368623A001D006C6EFE0CF8C1C
:10348000FD576317F500938701D09C4391C31CC07F
:10349000B240224441018280411122C42A842E85F7
:1034A00023A001D006C6612AFD576317F500938754
:1034B00001D09C4391C31CC0B24022444101828090
:1034C000411122C42A842E85B28523A001D006C6CC
:1034D000AD2AFD576317F500938701D09C4391C334
:1034E0001CC0B240224441018280411122C42A847E
:1034F0002E8523A001D006C6B92AFD576317F50013
:10350000938701D09C4391C31CC0B2402244410127
:103510008280411122C42A842E85B285368623A05A
:1035200001D006C63D2AFD576317F500938701D0E9
:103530009C4391C31CC0B24022444101828093F558
:10354000F50F2A966314C500014582808347050064
:10355000E38DB7FE0505FDB763F3A504B386C5008B
:10356000637FD5029345F6FF8147FD176393F5000E
:1035700082803387F600034807003387C7002A9705
:1035800023000701DDB73387F500834607003307C3
:10359000F50085072300D700E317F6FE82808147F8
:1035A000E5BF8280828081E5B2856FF0AFA5011111
:1035B00022CC06CE26CA4AC84EC6328401EEEFF0AF
:1035C000EF990149F24062444A85D2444249B249E6
:1035D00005618280AE84AA8989282689E37485FEE4
:1035E000A2854E85EFF00FA22A8969DDA685228685
:1035F000EFE05F84A6854E85EFF04F96E1B741116D
:1036000022C42A842E85B285368623A001D006C620
:10361000B928FD576317F500938701D09C4391C3E8
:103620001CC0B24022444101828083A7C5FF13859C
:10363000C7FF63D50700AA959C413E9582809307FA
:10364000800523A0F1D07D5582809307800523A0BB
:10365000F1D07D5582809307800523A0F1D00145EC
:1036600082809307800523A0F1D07D558280930747
:10367000800523A0F1D07D558280000094DCFFFFFF
:10368000BCDCFFFFE4DCFFFFFCDCFFFF16DDFFFF1F
:1036900026DDFFFF4EDDFFFF76DDFFFF8EDDFFFF46
:1036A000A8DDFFFF303430312C20BFAABBFA210D3A
:1036B00000000000693263206972713A20282000FE
:1036C000534220004144445220000000425446200E
:1036D00000000000414444313020000053544F505A
:1036E0002000000052784E4520000000547845200C
:1036F00000000000424552522000000041524C4F51
:1037000020000000414620004F56522000000000DB
:10371000504543455252200054494D454F55542081
:1037200000000000534D42414C455254200000001F
:103730004D534C200000000042555359200000001A
:10374000545241200000000047454E43414C4C205C
:1037500000000000534D4244454641554C54200062
:10376000534D42484F535420000000004455414CF3
:1037700046200000290000004D61737465722073BB
:10378000656C65637465642C2073656E6420616488
:1037900064726573730000004D6173746572207408
:1037A00072616E736D69747465723A00202073657E
:1037B0006E642028252378290A00000020207365E4
:1037C0006E642053544F50002020726573746172F0
:1037D0007400000020204E41434B207265636569F0
:1037E0007665642C2073656E742073746F700000AE
:1037F0004D61737465722072656365697665723AAE
:10380000000000002020616464726573732073659A
:103810006E740000202041434B206E6578740000D8
:1038200020204E41434B206E657874002020726545
:103830006365697665642064617461202825237856
:10384000290A000020204E41434B207265636569C0
:103850007665642C2073656E642053544F500000CD
:10386000536C617665207472616E736D69747465F2
:10387000722061646472657373206D61746368653E
:1038800064000000536C6176652072657665697628
:1038900065722061646472657373206D617463681E
:1038A00065640000536C617665207472616E736D9F
:1038B00069747465723A000020204E61636B207257
:1038C000656365697665640020206E6F206D6F7298
:1038D0006520646174612C2073656E6420307866A5
:1038E00066000000536C61766520726563656976D9
:1038F00065723A00202072656365697665642028E8
:10390000252378290A0000002020726576656976F3
:10391000652073746F70000052425F4932435F420A
:103920004552520052425F4932435F41524C4F0070
:1039300052425F4932435F4F5652000052425F4944
:1039400032435F50454345525200000052425F49A6
:1039500032435F54494D454F5554000052425F4930
:1039600032435F534D42414C4552540025640000A0
:103970002C00000025730D0A0000000025660000E1
:103980000001020203030303040404040404040406
:1039900005050505050505050505050505050505D7
:1039A00006060606060606060606060606060606B7
:1039B00006060606060606060606060606060606A7
:1039C0000707070707070707070707070707070787
:1039D0000707070707070707070707070707070777
:1039E0000707070707070707070707070707070767
:1039F0000707070707070707070707070707070757
:103A00000808080808080808080808080808080836
:103A10000808080808080808080808080808080826
:103A20000808080808080808080808080808080816
:103A30000808080808080808080808080808080806
:103A400008080808080808080808080808080808F6
:103A500008080808080808080808080808080808E6
:103A600008080808080808080808080808080808D6
:103A700008080808080808080808080808080808C6
:103A80000000000000000000000000000000000036
:103A90000000000000000000000000000000000026
:103AA0000000000000000000000000000000000016
:103AB0000000000000000000000000000000000006
:103AC00000000000000000000000000000000000F6
:103AD00000000000000000000000000000000000E6
:103AE000232D302B20000000686C4C006566674574
:103AF00046470000303132333435363738394142A9
:103B00004344454600000000303132333435363707
:103B10003839616263646566000000007C10002033
:103B200000000000A03A0000C03A0000803A000007
:103B30000000000000000000000000000000000085
:103B40000000000000000000000000000000000075
:103B50000000000000000000000000000000000065
:103B60000000000000000000000000000000000055
:103B70000000000000000000000000000000000045
:103B800000000000E41500200020001001000000EB
:043B90007C10002085
:00000001FF
