:020000040800F2
:100000008009002031020008532E0008B3280008A0
:10001000512E00087B1B000805320008000000007C
:10002000000000000000000000000000D92E0008C1
:10003000CD1B000800000000552E0008DB2E000834
:100040004B0200084B0200084B0200084B0200085C
:100050004B0200084B0200084B0200084B0200084C
:100060004B0200084B0200084B0200084B0200083C
:100070004B0200084B0200084B0200084B0200082C
:100080004B0200084B0200084B0200084B0200081C
:100090004B0200084B0200084B0200084B0200080C
:1000A000000000004B0200084B0200084B02000851
:1000B0004B0200084B0200084B0200084B020008EC
:1000C0004B0200084B0200084B0200084B020008DC
:1000D0004B020008D93100084B0200084B0200080F
:1000E0004B0200084B0200084B0200084B020008BC
:1000F0004B020008000000004B0200084B02000801
:1001000000000000000000004B0200084B02000845
:100110004B0200084B0200084B02000800000000E0
:100120004B02000800F002F800F073F80AA090E813
:10013000000C82448344AAF10107DA4501D100F0A2
:1001400068F8AFF2090EBAE80F0013F0010F18BFFC
:10015000FB1A43F00103184718350000383500003A
:10016000103A24BF78C878C1FAD8520724BF30C8E3
:1001700030C144BF04680C607047000000230024B5
:1001800000250026103A28BF78C1FBD8520728BFA7
:1001900030C148BF0B607047662903F0D6816529DE
:1001A00003F0D381672903F0D081612903F0CF8167
:1001B000692900F05D81642900F05A81752900F0F9
:1001C00057816F2900F0EE81782900F015820368CD
:1001D000DB0928BF41F08001632900F0888773297B
:1001E00000F08D87E32900F0AB87002070471FB532
:1001F00000F0DAFF04000020002103F019F9401C90
:1002000060600020002103F0FDF8E0601FBD10B524
:1002100010BD01F0C9F81146FFF7E9FF03F05EF8E1
:1002200001F0E7F803B4FFF7F2FF03BC03F016F8A0
:100230000948804709480047FEE7FEE7FEE7FEE77A
:10024000FEE7FEE7FEE7FEE7FEE7FEE704480549B6
:10025000054A064B70470000412F000825010008A1
:1002600080030020800900208005002080050020F8
:10027000704753EA020C00F069802DE9F04B4FF013
:100280000006002B1FBFB3FA83F503FA05F424FA26
:1002900005F65E4012BF1643B2FA82F502FA05F483
:1002A000C5F120051EBF22FA05FC44EA0C042035E6
:1002B00056EA044C4FEA144418BF641C4FF000087F
:1002C0004FF00009904271EB030C39D3002919BF9C
:1002D000B1FA81F701FA07F6B0FA80F700FA07F6EB
:1002E000C7F120071EBF20FA07FC46EA0C0620379C
:1002F000B6FBF4FCA7EB0507103F07F01F0BCBF193
:1003000020060CFA0BFB2CFA06F644BFB346002677
:10031000202FA4BF5E464FF0000B5BEA060C08BF1F
:100320004FF0010B19EB0B09ABFB027C48EB060805
:10033000C01B06FB02CC0BFB03CC71EB0C01C1E72D
:100340000B46024641464846BDE8F08B13B54FF0D8
:1003500000004FF00001AFF30080BDE81C40704783
:100360000FB4044910B503AA029800F0CDFE10BCEA
:100370005DF814FB400000200FB41CB50C0007AA68
:10038000009001D02044401E074B7B4469460190F9
:10039000069800F082FE002C03D06946002000F091
:1003A0008FFE1CBC5DF814FB3D0D000070B50446CB
:1003B00085690068C10601D5302600E02026C00707
:1003C00007D070BDD4E9012130469047206A401C17
:1003D00020626D1EF6D570BD70B504468569007843
:1003E000C00707D170BDD4E9012120209047206AC1
:1003F000401C20626D1EF6D570BD09684A0501D506
:1004000040B27047C905FCD500B2704709684A057B
:1004100001D5C0B27047C905FCD580B2704770B530
:100420000C460546012A05D02878800600D5EA69E1
:10043000002302E0012305E05B1C934202D2E05C52
:100440000028F9D1A869E618C01AA861286A1844DA
:1004500028622846FFF7AAFF04E0D5E9012114F835
:10046000010B9047B442F8D32846FFF7B5FF70BDA3
:100470002DE9F0410646002410687529314616A57D
:1004800010D0FFF7BAFF002802DA404213A507E0B8
:1004900031688A0701D512A502E0490704D511A5E4
:1004A000012401E0FFF7B2FF00210A2206F1240730
:1004B00009E0B0FBF2FCB0FBF2F302FB1C003030B1
:1004C00078541846491C0028F3D123462A46304662
:1004D000BDE8F04100F0F8B9000000002D00000078
:1004E0002B000000200000002DE9FF5F15468A4622
:1004F0000446DFF8AC80F8440027D8E900103E46F7
:10050000CDE9001010E03AF816106A4602A800F093
:1005100023FE411C07D02178890603D5E2693918EA
:1005200091420DD80744761C2078800602D5E069F8
:10053000B84205DDAE42E6DB3AF816000028E2D10B
:10054000A069C01BA0612046FFF730FFD8E900106A
:10055000CDE90010002017E03AF818106A4602A80A
:1005600000F0FAFDB0F1FF3F81460BD000250DF100
:10057000080B05E0D4E901211BF8050090476D1C2C
:100580004D45F7D308F10100B0428046E4DB206A14
:10059000384420622046FFF71FFFBDE8FF9F0000A0
:1005A0007A30000070B5044621461068FFF72EFF30
:1005B000002104F1240505E000F007023032C008F4
:1005C0006A54491C0028F7D12068002308A20507B7
:1005D00008D500F02000084304D0E069012305A2FB
:1005E000401EE0612046BDE8704000F06DB900009B
:1005F000000000003000000070B504460D462146A2
:100600001068FFF703FF2188090502D50F4A7A44D5
:1006100002E00E4A7A440E32002104F1240305E080
:1006200000F00F060009965D5E54491C0028F7D1C2
:1006300020780023000704D5702D02D009B10223D1
:1006400011322046BDE8704000F03EB96A2F00002C
:100650002DE9F05F894604464FF0000ADFF874B1D7
:10066000FB44C0F820A02046E1688847002874D0E9
:10067000252806D0D4E901219047206A401C206239
:10068000F1E700265F462046E168884720280546B6
:1006900007DB312D05D2781910F8200C08B106437C
:1006A000F1E7B00701D526F00406C4F81CA0002726
:1006B000C4F818A02A2D09D0284602F0C8FD38B386
:1006C00004EB8708303DC8F8185019E059F8041BAE
:1006D000204604EB87029161E1688847012F0546B7
:1006E00018D1E069002820DA26F020061DE0D8F8AD
:1006F000180000EB800005EB40003038C8F8180007
:100700002046E1688847054602F0A1FD0028EED1A9
:10071000012F0AD02E2D08D12046E16888477F1C82
:100720000546022F46F02006C4DBA069002803DA44
:10073000404246F00106A061F00701D026F0100605
:100740006C2D0BD0682D09D04C2D39D06A2D35D0A9
:10075000742D35D07A2D33D016E038E0E1682F467D
:1007600020468847B842054609D16C2F26D04FF461
:100770008060E168064320468847054604E06C2F08
:100780001AD04FF4807006430DB3A5F1410019282B
:1007900002D8203546F400664A462946204626609F
:1007A0004E46FFF7F9FC80B101280BD0F61D26F06C
:1007B000070000F1080956E74020E4E78020D8E769
:1007C0000020D6E706F104094DE7284652E7206AE3
:1007D000BDE8F09F402F0000421E12F8013F002BA1
:1007E000FBD111F8013B002B02F8013BF9D1704716
:1007F0004FF0000200B5134694469646203922BFBA
:10080000A0E80C50A0E80C50B1F12001BFF4F7AF04
:10081000090728BFA0E80C5048BF0CC05DF804EBE6
:10082000890028BF40F8042B08BF704748BF20F854
:10083000022B11F0804F18BF00F8012B7047000009
:100840004FF0013C50F8042B51F8043B9A4221D15F
:10085000A2EB0C03934313EACC1317D150F8042BEB
:1008600051F8043B9A4215D1A2EB0C03934313EACF
:10087000CC130BD150F8042B51F8043B9A4209D108
:10088000A2EB0C03934313EACC13DBD04FF0000030
:10089000704700BFD01A01BAB1FA81F101F0180116
:1008A00022FA01F0CB40C1F12001DBB2C0B2C01A84
:1008B0002CFA01F3D11A914311EAC311E6D1704722
:1008C00070477047704770472DE9F0470D469946CD
:1008D0009246044600F124080168880604D5E069C0
:1008E00021F01001216000E00120A84201DD471B3A
:1008F00000E00027A1697A1902EB0900081AA0613B
:100900002078C00602D42046FFF750FD002608E0FC
:10091000D4E901211AF806009047206A401C761C91
:1009200020624E45F4DB2078C0060AD52046FFF74A
:100930003DFD06E0D4E9012130209047206A401CAB
:100940002062381EA7F10107F4DC07E0D4E9012199
:1009500018F805009047206A401C2062281EA5F167
:100960000105F3DC2046FFF737FD2078000602D5AD
:100970000220BDE8F0870120FBE770472DE9FF4F1B
:100980000C461E464FF0FF378BB0D2E90001DDF870
:1009900060800A908A46C1F30A5505B93D46002198
:1009A00008464FF00000BAF1000F00F4400005DAED
:1009B00000EB80004FF4400101EA50004FEA9059EB
:1009C000B9F1010F00DDB9460A9850EA4A000ED08D
:1009D00044F61050A5F2FF3545432F14B8F1000F2F
:1009E0001ED07542291E1EDDC9F100021CE0B8F1BF
:1009F000010F4FF0000001D0302103E0F24305E089
:100A00002154401CB042FBDB30460022002121541F
:100A10000B99C1F80880C1E900200FB0BDE8F08F44
:100A2000BD1B6D1CDEE74A4600DA694206A800F0ED
:100A300045FC06AB93E8070003AB83E8070050468C
:100A40000A9900F0DFFC8DE80700A0F500501F3880
:100A500000900398002D09DD42F21F014A46084428
:100A600003A90390684600F03EFF08E0A0F500509F
:100A70004A461F3803A90390684600F048FF8DE8F6
:100A800007000004000C03D04FF0FF30410800E0E5
:100A90001046B8F1000F03D00022009215461EE068
:100AA000751E05D400F084FB303262556D1EF9D5F9
:100AB000B3460122084302D000227F1C04E02078C4
:100AC000302801D100227F1E002A099786D01DE020
:100AD000112D07DA00F06CFB303262556D1C50EAC4
:100AE0000102F5D1084302D00098C8B10EE0002100
:100AF000681E05E0235C625C63542254401E491C5E
:100B00008142F7DBAB46A81B401E0990002004F889
:100B10000B000B98099AC0F80880C0E9002B7CE70D
:100B200011264FF0000859E72DE9F04F884604469A
:100B3000D21D22F0070191B0D1E90001CDE90A01EF
:100B400002F061FB02460B98C00F01D02D2007E098
:100B50002068810701D52B2002E0202101EAC00096
:100B6000032A099001D0072A05DB034641462046A7
:100B700000F064FB0BE12078800601D5E06900E01D
:100B80000620B8F1650F814606D0B8F1660F18D07F
:100B9000B8F1670F70D131E00020B9F1110F00906A
:100BA00001DB112301E009F101030AAA01A90CA844
:100BB000FFF7E4FEDDE90C70002609F1010583462C
:100BC00047E001204B4600904FF000470AAA01A9D8
:100BD0000CA8FFF7D3FEDDE90DB00C995D460026A9
:100BE00010B909F101000D18B9EB050003D4C0F1EB
:100BF000FF3609F10105A5EB09002BE0B9F1010F62
:100C000001DA4FF001090020B9F1110F00904846B8
:100C100001DD112300E003460AAA01A90CA8FFF791
:100C2000ADFEDDE90C704D460026834620780007B6
:100C30000AD4AB4500DA5D4601A8012D04DD411957
:100C400011F8011C302907D04F4502DA17F1040FC3
:100C500004DA012082460FE06D1EEEE7002F02DC71
:100C6000ED1B3E4403E0781CA84200DD7D1CB81B50
:100C700000F1010A4FF000472078000703D4AA458D
:100C800001DB4FF0FF3A0021B7F1004F0DF14308AF
:100C90008DF8431024D002202B23002F01DA7F424D
:100CA0002D230A21021EA0F1010000DC5FB197FB99
:100CB000F1FC97FBF1F201FB1C7C17460CF1300CA8
:100CC00008F801CDEEE7A8F10100037021880905BD
:100CD00001D5452100E06521A0F1010800F8011CC3
:100CE00009980FA9A1EB0807FF1D00B101204119C8
:100CF00001EBEA70A1693844081A401EA06120780F
:100D0000C00602D42046FFF751FB099828B1D4E968
:100D100001219047206A401C20622078C00622D51D
:100D20002046FFF743FB1EE0002E04DBB34502DD47
:100D300001A8805D00E03020D4E901219047206ABD
:100D4000401C2062761CAAF101005FEA000A0AD169
:100D500000F02AFAC0680168405CD4E9012190479C
:100D6000206A401C2062281EA5F10105DCDC07E09A
:100D7000D4E9012118F8010B9047206A401C206239
:100D8000381EA7F10107F3DC2046FFF725FB0320FF
:100D900011B043E62DE9F04F04460D46D21D22F076
:100DA000070089B0D0E900974846394602F02BFA8F
:100DB0000246F80F01D02D2307E02068810701D5F6
:100DC0002B2302E0202101EAC0038DF820300BB173
:100DD000012000E00020032A824601D0072A04DB1C
:100DE0002946204600F02AFA3FE12078800601D407
:100DF0000D2500E0E569C7F30A560D2D49DA0021FB
:100E00004FEA175B08464FF00000002F00F4400047
:100E100007DA00EB80004FF4400100EBD07001EAEC
:100E200060008115012901DD4FF0FF3100224FEAFA
:100E3000850CBCF1180F06D31346ACF118004FF027
:100E40008052C24003E04FF4801323FA0CF30CF1FC
:100E50000C0CBCF1200F04D3ACF1200C09FA0CF0FF
:100E600001E007FA0CF000294FF0004801DD18B945
:100E70000FE00ED140450CD319EB02095F4121B9B7
:100E8000404502D19F4329EA0209BBEB175F00D01E
:100E9000761C2088000502D57B48784402E07A4819
:100EA0007844193808AA302302F80A30037C0AF182
:100EB0000101002E0AF1020A53546A4602DC4FF087
:100EC000300101E04FF031014FF001088DF80010C2
:100ED00002D0A6F2FF3603E059EA470100D06B4E7C
:100EE000002D02DC2178090704D54FF002082E21DD
:100EF0008DF80110C44600210BE0C7F303433F0106
:100F0000C35C491C6D1E02F80830052908F1010870
:100F100001DA002DF1DC00210CE000EB1973491C13
:100F20001B786D1E082902F808304FEA091908F1EC
:100F3000010801DA002DF0DC21688B0602D516E0ED
:100F4000A8F10108E04505DD02EB080313F8013CB8
:100F5000302BF5D0B8F1000F09DD02EB080313F8D0
:100F6000013C2E2B03D1090701D4A8F10108002D63
:100F700005DD3E2102F808106D1E08F10108407CD5
:100F8000002E02F8080008F1010804DA2D2076424C
:100F900002F8080002E02B2002F808000A214FF4B2
:100FA0007A70864208F101080BDB96FBF0F33033D0
:100FB00002F8083096FBF0F308F1010800FB136615
:100FC00001E0642E0CDB642096FBF0F3303302F872
:100FD000083096FBF0F308F1010800FB136601E00E
:100FE0000A2E06DB96FBF1F0303002F8080008F11B
:100FF000010896FBF1F001FB1060303002F80800A8
:10100000A16908F1010808EB050202EB0A00081AC1
:10101000A0612078C00602D42046FFF7C7F9216AF4
:1010200008AE01EB0A00206204E0D4E9012116F8C1
:10103000010B9047BAF1010AF7D22078C00602D519
:101040002046FFF7B3F96E4609E016F8010B3E287B
:101050000FD0D4E901219047206A401C2062B8F1EA
:101060000108F2D22046FFF7B7F909B00320BDE826
:10107000F08F206A2844206203E0D4E90121302067
:1010800090476D1EEBD3F8E72A27000002FCFFFF14
:1010900001694A1C02610878704700B58FB0CDE93C
:1010A00001310021059105497944CDE9031011462C
:1010B0006846FFF7CDFA0FB000BD0000E5FFFFFF67
:1010C0000A6802F8010B0A607047D1E900239A42CE
:1010D00002D2531C0B601070704710B5436913B1F6
:1010E000AFF3008001E0FFF79AF9012010BD1278FC
:1010F00000F124010A7000224A700122EDE7116814
:101100004FF0FF32E9E70000074B70B50D467B4416
:10111000FFF7C3FF0446284600F03EF910B14FF038
:10112000FF3070BD204670BDB321000010B543698B
:1011300013B1AFF3008001E0FFF7D6F9012010BD35
:10114000128800F1240182840022C2840122EDE78A
:1011500011684FF0FF32E9E770B516460C460546B8
:1011600000F01AF8036893F80101012806D0FF2C5B
:101170000FD8185D68B101202C7070BDD3F807013D
:101180003246214603F2071303442846BDE8704067
:1011900018474FF0FF3070BD10B500F005F8001D86
:1011A00010BD00BF8D220000004870473C030020A6
:1011B00030B5B0F10A024FEA900E71F100034EEA29
:1011C000817EB0EB0E0061EB91014FEA101E4EEAFA
:1011D000017E10EB0E0041EB11114FEA102E4EEA8A
:1011E000016E10EB0E0041EB11214FEA104E4EEA5A
:1011F000014E10EB0E0041EB1141401841F100018E
:101200004FEAD00040EA41704FEAD10110EB80056F
:101210004FEA810444EA907444EB01046D1944EBF5
:101220000404521BA3414FF0000348BF0A3200D50B
:1012300030BD401C41F1000130BD00002DE9F041FE
:101240001F46044603260168072A01F4006004DBF8
:1012500008B116A505E016A503E008B115A500E044
:1012600015A521F010002060A069C01EA0610FB17B
:10127000401EA0612046FFF799F84FB1D4E9012143
:1012800038469047206A401C2062C01C206206E05D
:10129000206AFAE7D4E9012115F8010B9047761E80
:1012A000F8D22046FFF798F8BDE8F0814E414E0095
:1012B0006E616E00494E4600696E66002DE9F0478A
:1012C000814616468AB0334878440DC88DE80D0033
:1012D00030487844801C03AC0DC884E80D0041F60A
:1012E0009B300844372190FBF1F290FBF1F5A5F11A
:1012F000800501FB12041B3C02D56442012000E082
:101300000020DFF890A080460027FA44AAF1BE0A28
:101310000DE0E00709D03246684607EB47010AEBCB
:10132000810100F0F4FA8DE8070064107F1C002CA6
:10133000EFD1184F7F44AC3F18E0E80714D007EB1B
:1013400004100DF1180A90E80E008AE80E00C0683B
:10135000F04201D198190890324606A903A800F07E
:10136000D6FA03AB83E807006D10641C002DE4D1AE
:1013700032466946B8F1000F03A802D000F0B3FA74
:1013800001E000F0C4FAC9E90001C9F808200AB078
:10139000BDE8F0878C230000007B00F080007047E0
:1013A000004870471C0300207546FFF7F9FFAE4662
:1013B00005006946534620F00700854618B020B561
:1013C000FEF744FFBDE820404FF000064FF0000755
:1013D0004FF000084FF0000B21F00701AC46ACE8DD
:1013E000C009ACE8C009ACE8C009ACE8C0098D464A
:1013F000704710B50446AFF300802046BDE81040AA
:10140000FEF710BF5FEA400C08BF91F0000F4FEAF3
:101410008C234FEAC12243EA51514FEA1C5018BFB6
:1014200000F5F0404FEA300018BF41F000415FEA9C
:101430006C5C00F02980BCF1FF3F08BF40F08040A9
:101440007047130C06BF12044FF0100C4FF0000C45
:10145000130E04BF12020CF1080C130F04BF12018B
:101460000CF1040C930F04BF92000CF1020CD30F8B
:1014700004BF52000CF1010C11464FF00002A0F124
:101480001F00A0EB0C00704711F0004F08BF704721
:1014900031F000413FF4D5AF0B0C06BF09044FF00B
:1014A000100C4FF0000C0B0E04BF09020CF1080CDD
:1014B0000B0F04BF09010CF1040C8B0F04BF890052
:1014C0000CF1020CCB0F04BF49000CF1010CCCF164
:1014D0002003A0EB0C0022FA03F302FA0CF241EA1B
:1014E000030100F10100704720F07F4C80EA030007
:1014F00023F07F47ACEB070303F57C5300F000407B
:1015000003F1FF032DE980494FEA154B09B44FEA77
:10151000144325EA0B4E24EA03480FF2042606EB97
:10152000132749083E785FEA320203FB0667C7F5D6
:10153000000707FB06F64FEA54374FEAD64606F196
:10154000020607FB066CCCF1005C4FEA1C472CEA54
:10155000074C07FB06F40CFB06F504EB15464FEAB7
:10156000961634BF00204FF000404FEAD13706FBFB
:1015700007FC4FEA1C4C0CFB0BF7D21B03FB0CF7D0
:1015800061EB07010CFB0EF7B0EB074072EB174263
:101590000CFB08F734BFA2EB0742B2EB074261EB4A
:1015A00017414FEA0C444FEA910706FB07FC4FEA4C
:1015B0001C4C0CFB0BF7B0EBC74072EB573203FB34
:1015C0000CF734BFA2EBC742B2EBC74261EB573115
:1015D0000CFB0EF7B0EBC70072EB57720CFB08F771
:1015E00034BFA2EBC702B2EBC70261EB5771039F96
:1015F0004FEA816141EA921104EBCC044FEAD13702
:101600004FEA826206FB07FC42EA90124FEA8060D2
:101610004FEA1C4C0CFB0BF7D21B03FB0CF761EBE6
:1016200007010CFB0EF7B0EB074072EB17420CFB07
:1016300008F734BFA2EB0742B2EB074261EB174158
:101640004FEA8C554FEA910704EB9C2406FB07FCFC
:101650004FEA1C4C0CFB0BF7B0EBC74072EB573258
:1016600003FB0CF734BFA2EBC742B2EBC74261EBFE
:1016700057310CFB0EF7B0EBC70072EB57720CFB47
:1016800008F734BFA2EBC702B2EBC70261EB577198
:1016900015EB4C254FEA816141EA92114FEA8262D3
:1016A0004FEAD13742EA901206FB07FC44F10004EE
:1016B0004FEA80604FEA1C4C0CFB0BF7D21B03FB7C
:1016C0000CF761EB07010CFB0EF7B0EB074072EB78
:1016D00017420CFB08F734BFA2EB0742B2EB0742FC
:1016E00061EB174115EB1C154FEA813141EA92413C
:1016F0004FEA823242EA90424FEA80304FEA0C765B
:1017000044F1000448EA03434EEA0B484FF0000E50
:10171000B2EB080C71EB030724BF624639464EEB6F
:101720000E0E4FF0000B0018524149414BEB0B0BD2
:10173000B2EB080C71EB03077BF1000B24BF624690
:1017400039464EEB0E0E4FF0000B00185241494146
:101750004BEB0B0BB2EB080C71EB03077BF1000BAF
:1017600024BF624639464EEB0E0E51EA020718BFFF
:1017700046F0010616EB0E7655F1000254F1000119
:1017800003D5BDE88901BDE80088BDE88901BDE851
:101790000048B619524141EB0101A3F10103704722
:1017A00080807F7E7D7C7B7A79787776767574739E
:1017B000727171706F6E6E6D6C6C6B6A6A6968685D
:1017C000676666656464636362616160605F5F5EF3
:1017D0005E5D5D5C5C5B5B5A5A5959585857575669
:1017E00056555555545453535252525151505050CE
:1017F0004F4F4F4E4E4D4D4D4C4C4C4B4B4B4A4A20
:101800004A49494948484847474747464646454563
:10181000454444444443434343424242424141419C
:10182000002B26D4770021D01CB54FEA370703B42C
:101830004FF010004FF010014FF000000FBCBDE85A
:1018400010400BF1010BBBF1010F08BF5FEA170756
:1018500022BF12F1010211F101014FF0004143F1E9
:10186000000300F0004043EA00007047F9D3570836
:10187000DAE746EA064613F1400F4FEA16461FDD47
:1018800013F1200FDFBF16430A46002120335B42CD
:10189000C8D0C3F1200746EA064602FA07F74FEA26
:1018A000164646EA0706C3F1200722FA03F201FAB8
:1018B00007F721FA03F14FF0000342EA0702B1E70C
:1018C00046EA020646EA06464FEA164646EA010698
:1018D000BCBF46EA0646360C4FF000034FF000024C
:1018E0004FF000019EE72DE9C048934630B491E8DF
:1018F000380007C831EA400C48BF34EA430C03D52E
:10190000FFF7F2FDFFF78CFFF0BCBDE800882DE982
:10191000C048934630B491E8380007C810F0804FB3
:1019200008BF13F0804F03D100F005F8FFF778FFF0
:10193000F0BCBDE8008820F07F4780EA030023F078
:101940007F4C07EB0C03A3F57C5300F00040A3F1A0
:10195000FE0392F0000F00F0B38095F0000F00F04E
:1019600077802DE901494FEA11404FEA144621EAF8
:10197000004800FB06FC24EA064708FB06F607FBC6
:1019800008F800FB07F718EB06484CEB164C4FEA3B
:10199000124B18EB07484FEA15464CEB174022EA6A
:1019A0000B4E0BFB06FC25EA06470EFB06F607FB73
:1019B0000EFE0BFB07F71EEB064E4CEB164C4FF0E2
:1019C00000061EEB074E4CEB174B18EB0B0840F1D3
:1019D000000018EB0E0B58EB000840F100008F1AC6
:1019E0004FF000013CBFC943661B14BFB5EB040CAC
:1019F00000213CBFC943F61B4FEA17444EEA8E0E46
:101A000027EA04454FEA1C4704FB07622CEA074C0F
:101A100005FB07F70CFB05F604FB0CFC16EB074671
:101A200042EB174216EB0C4642EB1C421BEB060640
:101A300058EB0202414146EA9E0601D5BDE8018904
:101A4000B619524141EB0101A3F10103BDE801893F
:101A50004FEA14454FEA114724EA054621EA074CAC
:101A600005FB07F406FB07F70CFB06F105FB0CFC76
:101A700011EB074144EB17444FEA124711EB0C41BD
:101A800044EB1C4422EA074C05FB07F206FB07F770
:101A90000CFB06F605FB0CFC16EB074642EB174267
:101AA00016EB0C4642EB1C456A1854F1000148BF86
:101AB0007047B619524141EB0101A3F10103704790
:101AC00095F0000F37D04FEA11424FEA144721EA50
:101AD000024624EA074C02FB07F106FB07F70CFB62
:101AE00006F402FB0CFC14EB074441EB17414FEAF0
:101AF000154714EB0C4441EB1C4125EA074C02FB53
:101B000007F506FB07F70CFB06F602FB0CFC16EBD1
:101B1000074645EB174516EB0C4645EB1C421219E0
:101B200051F1000148BF7047B619524141EB010124
:101B3000A3F1010370474FEA14454FEA114724EA25
:101B4000054621EA074C05FB07F106FB07F70CFBEE
:101B500006F24FF0000605FB0CFC12EB074241EBCE
:101B6000174112EB0C4251EB1C4148BF70479218D1
:101B700041EB0101A3F101037047FEE710B501F04D
:101B8000E7F900F0A7FEBDE8104001F035B8FFF717
:101B9000F5FF00F001F8000004A0FEF7E1FB06A04D
:101BA000FEF7DEFB01F0FCFBFCE70000C6F4B6AF7D
:101BB000B3C9B9A6210D0A00CBC4BCBE2D4C31352A
:101BC000312DBACBD0C40D0A00000000704772B6A8
:101BD000FEE710B590F821100024022903D004215B
:101BE000816301241AE001680A6822F00E020A608B
:101BF00001680A6822F001020A6090F84010C36B85
:101C000001F01C02012101FA02F25A6080F8211051
:101C1000002180F82010416B01B18847204610BD9B
:101C20002DE9FC4FDFF894A1002301250AF1040BF4
:101C300003244FF00F0C0BF1040EB8E005FA03F685
:101C4000324071D04F68012F05D0022F03D0112FE1
:101C500001D0122F17D1D0F808905F0004FA07F8CE
:101C600029EA08090097D1F80C8008FA07F848EA31
:101C70000908C0F808804768B7430E79C6F3001614
:101C80009E403E434660C6684FEA430804FA08F7A0
:101C9000BE4301978F6807FA08F73743C7604E685D
:101CA000022E01D0122E13D1DE0800EB860600961C
:101CB000366A5F07FF0E0CFA07F926EA0906D1F823
:101CC000109009FA07F949EA0609009EC6F8209023
:101CD0000768019EB7430E7906F0030606FA08F678
:101CE0003E4306604E68F60060D5354E376847F0D3
:101CF00001073760366823F0030706F001060096F7
:101D0000304E3E44B146B6689F074FEA17780CFA4A
:101D100008F7BE432C4FB84201D1002715E02B4FE6
:101D2000B84202D1012710E040E0294FB84201D16A
:101D300002270AE0274FB84201D1032705E0264FCA
:101D4000B84201D1042700E0052707FA08F7374316
:101D5000C9F80870DAF800705646D1F80480974345
:101D60005FEAC83800D517433760DBF800605F468C
:101D7000D1F8048096435FEA883800D516433E6068
:101D8000DEF800607746D1F8048096435FEAC82801
:101D900000D516433E60094F0C373E68D1F80480E9
:101DA00096435FEA882800D516433E605B1C0A68AC
:101DB00032FA03F67FF442AFBDE8FC8F0004014025
:101DC00020380240000001400000024000040240B0
:101DD00000080240000C0240001002400069084068
:101DE00000D0012070470AB1816170470904FBE708
:101DF00001488068704700000000002002488168A8
:101E000042681144816070470000002010B5002432
:101E1000032000F07DF8032000F008F808B1012449
:101E200001E000F025F8204610BD000070B50E4E10
:101E300005460024706898B14FF47A71B1FBF0F058
:101E40000A490968B1FBF0F000F0B8FB40B9102D69
:101E500006D200222946501E00F03AF8356000E014
:101E60000124204670BD0000000000200C0000206E
:101E70000F4882B0016841F000410160016801F043
:101E800000410091011F0A6842F001020A600968DE
:101E900001F001010091016841F08051016000688A
:101EA00000F080500090052002B000F031B8000032
:101EB00024380240002809DB00F01F020121914074
:101EC0004009800000F1E020C0F8001170470000D8
:101ED000F0B40E4B1B680C46C3F30223C3F1070595
:101EE000042D00D90425191D072901D2002300E083
:101EF000DB1E012606FA05F1491E214099409E404D
:101F0000761E16403143F0BC01F091B90CED00E0B3
:101F1000064900F0070208684FF6FF03184040EA40
:101F20000220034A10430860704700000CED00E0F7
:101F30000000FA052DE9F0470E46050079D0DFF8DC
:101F40008481D8F8000000F00100B04214D2012EC4
:101F500005D1D8F8001041F00401C8F80010D8F8F5
:101F6000001021F001013143C8F80010D8F800003A
:101F700000F00100B0425CD12878534C800705D5B1
:101F80002068A96820F0F000084320602878C00786
:101F90005CD04D496868083902281AD003281BD044
:101FA000096801281BD08905002966DA216821F01B
:101FB000030101432160FFF71BFF6968074641F2F7
:101FC0008830022914D0032920D0012981462AD043
:101FD00038E009688903E7E709688901E4E78907C8
:101FE000E2E700BFFFF704FFC11B494501D926E026
:101FF00081462068C0F381000228F3D126E000BFAB
:10200000FFF7F6FEC11B494501D918E0814620685B
:10201000C0F381000328F3D118E000BFFFF7E8FE0A
:10202000C11B49450BD82068C0F381000128F5D1B8
:102030000CE022E0FFF7DCFEC11B494502D903207A
:10204000BDE8F087206810F00C0FF3D1D8F800102D
:10205000404601F00101B14211D9012E03D10168BE
:1020600041F004010160016821F001013143016088
:10207000006800F00100B04201D00120E0E72878BC
:10208000400705D52068E96820F4E0600843206037
:102090002878000706D52068296920F4605040EAB6
:1020A000C100206000F038F82168084AC1F303112C
:1020B000515CC8400649086006480068BDE8F04722
:1020C000FFF7B4BE003C0240083802405B35000810
:1020D0000C00002000000020044805490068096841
:1020E000044AC1F30221515CC84070470C00002033
:1020F000083802406B350008044805490068096843
:10210000044AC1F3C221515CC84070470C00002052
:10211000083802406B35000870B5154D2968154820
:1021200001F00C02042A0CD04410082A0AD00C2A10
:102130000AD0281F0068C0F342314FF40040491C08
:10214000884070BD204670BD0B4AC1F38343D35C09
:10215000C1F381522968521CC90302D5A3FB0401B3
:1021600001E0A3FB00010023FEF783F870BD00002F
:10217000083802400024F400523500082DE9F84FD9
:1021800004007DD0FC480168006801F00C0700F4F1
:1021900080362078F94DC00741D0082F12D00C2F7F
:1021A00002D1B6F5803F0DD06068012811D008B18A
:1021B000052818D0286820F480302860286820F48A
:1021C000802009E02868800329D560680028D8D0DD
:1021D00025E0286840F480302860606890B1FFF7FF
:1021E00007FE80460AE0286840F480202860F0E777
:1021F000FFF7FEFDA0EB080064287BD82868800369
:10220000F6D50CE0FFF7F4FD804605E0FFF7F0FDA2
:10221000A0EB08006428F0D828688003F6D4207862
:10222000DFF85CB3DFF85C8380074FF001094FF003
:10223000000A35D5042F0AD00C2F00D13EB1E0683A
:10224000F8B1C8F80090FFF7D3FD06460BE0286808
:1022500080070BD5E068012812D107E0FFF7C8FD21
:10226000801B0228C9D828688007F7D5DBF8001042
:10227000226921F4F85141EA0221CBF800100FE065
:1022800077E1C8F800A0FFF7B3FD064605E000BF00
:10229000FFF7AEFD801B0228AFD828688007F7D46F
:1022A0002078C00674D53FB1A069E0B3C8F820908B
:1022B000FFF79EFD06464AE02868800502D5A06922
:1022C000002884D0206ADBF800105E4601F46041EB
:1022D000884210D900F0C0FD0028BDD13068216AC5
:1022E00020F4604008433060217F306861F31F6054
:1022F00030600FE096E0316821F4604101433160C5
:10230000217F306861F31F603060206A00F0A4FD17
:102310000028A1D1216A4FF4004009EB51318840D7
:102320009549096800E025E0974AC1F30311515C23
:10233000C8409649086096480068FFF777FD002876
:102340006FD125E0FFF754FD801B02286AD828686A
:102350008005F7D5DBF80010226A21F460411143B3
:10236000CBF80010227FDBF8001062F31F61CBF87E
:1023700000100DE0C8F820A0FFF73AFD064604E083
:10238000FFF736FD801B02284CD828688005F7D45B
:102390002078804E000722D57F48616981B1C0F85E
:1023A0000090FFF725FD834606E000BFFFF720FD04
:1023B000A0EB0B00022835D830688007F6D50EE078
:1023C000C0F800A0FFF714FD834605E0FFF710FDFD
:1023D000A0EB0B00022825D830688007F6D42078BF
:1023E00040076DD56B484FF0000B10380068C000F7
:1023F0000BD468481038016841F0805101600068D2
:102400004FF0010B00F08050009064480168C9054E
:1024100014D4016841F480710160FFF7E9FC009079
:1024200008E08DE079E000BFFFF7E2FC0099401A78
:10243000642872D859480068C005F5D5A0680128FD
:102440000AD008B1052811D0306820F480703060BF
:10245000306820F4806002E0306840F480703060C2
:10246000A068A8B1FFF7C4FC00900DE0306840F40C
:1024700080603060F0E700BFFFF7BAFC0099411AB6
:1024800041F2883081425AD830688005F4D50EE098
:10249000FFF7AEFC009007E0FFF7AAFC0099411A95
:1024A00041F2883081424AD830688005F4D4BBF1CB
:1024B000000F05D037481038016821F080510160C5
:1024C000606A58B30C2F41D00228504605D0C8F896
:1024D0006000FFF78DFC044634E04746C8F8600012
:1024E000FFF786FC064604E0FFF782FC801B02280B
:1024F00025D828688001F7D4D4E90A1001431E4882
:10250000226B036823F47D031A4311430160C7F86B
:102510006090FFF76DFC044607E010E040E000BF6C
:10252000FFF766FC001B022809D828688001F7D550
:1025300036E000BFFFF75CFC001B022802D9032035
:10254000BDE8F88F28688001F4D429E00128F7D08D
:1025500009480068A26A00F48031914209D1E26A18
:1025600000F47011914204D1216B00F440008842C4
:1025700016D00120E4E7000008380240003802408D
:1025800004380240000047425B3500080C00002080
:1025900000000020343802408006474200700040AE
:1025A0000020CDE74FF0E0210428086903D020F097
:1025B00004000861704740F00400FAE710B5401EBF
:1025C000B0F1807F01D3012010BD4FF0E0246061A5
:1025D0000F21601700F02BFE0020A0610720206172
:1025E000002010BD704710F8391F4078084370472D
:1025F00070B5026804461068D168536910F00F0F77
:1026000053D003F0010501F490762E435FD0C2074A
:1026100005D0CA0503D5E26B42F00102E26342072E
:1026200005D5DA0703D0E26B42F00202E2638207CB
:1026300005D5DA0703D0E26B42F00402E263020739
:1026400007D501F020022A4303D0E26B42F00802D2
:10265000E263E26B002A34D0800604D5880602D5F6
:10266000204600F0ADFC20684069E16BC0F38010AB
:1026700001F008010143204624D000F093FC2068BB
:10268000416949061AD5416921F040014161606BF9
:10269000A0B11B494163606BFFF79BFA002810D083
:1026A000606B416BBDE87040084783060FD58B0611
:1026B0000DD52046BDE8704000F082BC2046FFF7F3
:1026C00091FF70BDFFF78EFF0020E06370BD030631
:1026D00006D50B0604D52046BDE8704000F04ABD83
:1026E0004006F3D54806F1D5D168204621F04001D7
:1026F000D160202184F8391000F0DAF870BD0000B4
:10270000952F000870B5040004D094F83900002516
:1027100010B106E0012070BD84F83850204600F06A
:1027200023F8242084F839002068C16821F400517E
:10273000C160204600F090FC2068016921F49041BE
:1027400001612068416921F02A0141612068C16866
:1027500041F40051C160E563202084F8390084F819
:102760003A00002070BD000010B586B00446142168
:102770006846FEF73DF818492068884229D1174875
:10278000016841F480410160006800F480400590D8
:102790001248001F016841F00101016000686946AC
:1027A00000F0010005904FF4C060009002200190FD
:1027B0000120029003200390072004900848FFF7AF
:1027C0002FFA032211462520FFF782FB2520FFF771
:1027D00071FB06B010BD00000038014020380240F7
:1027E0000000024090F83A30202B22D1F9B1F2B12A
:1027F00090F83830012B1CD081628285C28500217F
:10280000C163222280F83A2080F838100168CA6833
:1028100042F48072CA6001684A6942F001024A616A
:102820000068C16841F02001C160002070470120AC
:10283000704702207047000070B500681549884253
:102840000CD1154841880A0408D402464C04127879
:102850004FF000030ED50A2A01D0438070BD41F429
:10286000004141800D490EA0FDF77AFDBDE87040A2
:1028700000F0BCBD0D2A09D0C1F30D04074D491C61
:1028800089B22A554180C729E7D870BD41F48041FB
:10289000418070BD003801403C000020140200203F
:1028A000726563697665643A2025730D0A0000003D
:1028B0007047FEE70A460146014800F02BB80000C9
:1028C0001000002013460A460146014800F04BB8AC
:1028D0001000002000B587B014216846FDF788FF7E
:1028E0000A48016841F0020101600068694600F091
:1028F00002000590C020009001200190029003206A
:1029000003900348FFF78CF907B000BD1C38024064
:102910000004024070B516460C46054600F0B5F8B6
:102920002146284600F014F9284600F0E8F8314620
:10293000284600F00DF9284600F0E1F8284600F09E
:10294000A4F844F00101284600F002F9284600F0FE
:10295000D6F80021284600F06AF80446284600F020
:10296000B1F8204670BD2DE9F0411D4616460C46D3
:10297000074600F08AF82146384600F0E9F8384664
:1029800000F0BDF810B1384600F09CF831463846EA
:1029900000F0DEF8384600F0B2F82946384600F07C
:1029A000D7F8384600F0ABF810B1384600F08AF896
:1029B0003846BDE8F04100F085B810B50446002166
:1029C00000F00AF90121204600F0F2F8002120462B
:1029D00000F008F9022000F05BFC0121204600F025
:1029E000FBF8022000F054FC2046BDE81040002116
:1029F00000F0F2B810B50446002100F0EDF8012116
:102A0000204600F0D5F80121204600F0EBF8012126
:102A1000204600F0E1F8022000F03AFC00212046B8
:102A200000F0DAF8BDE81040022000F031BC2DE9DA
:102A3000F0410E4600240746214600F0B9F8002573
:102A40000021384600F0C8F8022000F021FC0121E6
:102A5000384600F0C1F8022000F01AFC6006040EAF
:102A6000384600F0B5F808B1641CE4B26D1CEDB254
:102A7000082DE5D3012E384604D0FFF7BBFF2046D2
:102A8000BDE8F081FFF799FFF9E710B50446012191
:102A900000F08EF80121204600F0A4F80121204624
:102AA00000F09AF8022000F0F3FB0021204600F02D
:102AB00099F8022000F0ECFB2046BDE81040002110
:102AC00000F08AB810B50446012100F071F8002129
:102AD000204600F081F80021204600F083F8022013
:102AE00000F0D6FB0121204600F076F801212046B7
:102AF00000F078F8BDE81040022000F0C9BB70B5C6
:102B000000240546214600F053F80121284600F034
:102B100069F8022000F0BCFB0121284600F05CF8B7
:102B2000022000F0B5FB08E0641CE4B2FA2C04D9E2
:102B30002846FFF7C7FF012070BD284600F048F87F
:102B40000028F1D10021284600F046F8002070BD91
:102B500070B50C460646012100F02AF800213046E7
:102B600000F03AF80025200601D5012100E00021FF
:102B7000304600F037F86006040E022000F088FBB3
:102B80000121304600F028F8022000F081FB0021EE
:102B9000304600F021F8022000F07AFB6D1CEDB207
:102BA000082DE0D33046BDE87040012100F01AB88E
:102BB00000B585B00222039202890092012900D05B
:102BC00000210191C0686946FFF72AF805B000BDF1
:102BD0000189C068FFF702B903880A4640681946B0
:102BE000FFF701B903890A46C0681946FFF7FBB829
:102BF000FFF760BEFFF766BE10B500226B21D02044
:102C0000FFF7F8FF07221921D020FFF7F3FF062274
:102C10001A21D020FFF7EEFF10221B21D020FFF752
:102C2000E9FF01221C21D020FFF7E4FFBDE810409E
:102C30000A2000F01FBB000010B53C21D020FFF798
:102C4000D7FF124C3B212070D020FFF7D1FF6070DE
:102C50003E21D020FFF7CCFFA0703D21D020FFF710
:102C6000C7FFE0704021D020FFF7C2FF20713F2155
:102C7000D020FFF7BDFF6071A4F112002188018010
:102C800061884180A188818010BD00003200002051
:102C900010B54421D020FFF7ABFF124C4321207028
:102CA000D020FFF7A5FF60704621D020FFF7A0FFDE
:102CB000A0704521D020FFF79BFFE0704821D02075
:102CC000FFF796FF20714721D020FFF791FF607139
:102CD000A4F10C002188018061884180A188818055
:102CE00010BD00003200002010B502223721D02094
:102CF000FFF780FF0A2000F0BDFA01220A21182008
:102D0000FFF778FF0A2000F0B5FA03211820FFF73B
:102D10006FFF124C042120701820FFF769FF6070CC
:102D200005211820FFF764FFA07006211820FFF787
:102D30005FFFE07007211820FFF75AFF207108217C
:102D40001820FFF755FF6071A01F2188418061881E
:102D50000180A1884942818010BD0000320000201E
:102D600010B5FFF769FFFFF793FFBDE81040FFF7CD
:102D7000BBBF00002DE9F04186B014216846FDF785
:102D800037FD2248016841F004010160016801F04B
:102D900004010591016841F020010160016801F022
:102DA00020010591016841F001010160016801F015
:102DB00001010591016841F00201016000680122F2
:102DC00000F00200124F5403059021463846FFF7E9
:102DD0000AF8DFF840800122C0214046FFF703F8DF
:102DE000009401AA11240125032682E87000694697
:102DF0003846FEF715FFC0208DE871006946404651
:102E0000FEF70EFF06B0BDE8F08100001C3802405E
:102E100000080240000402400C4810B50A49016055
:102E20004FF4E1314160002181600C22C160C0E9B2
:102E300004128161C161FFF765FC002803D0BDE881
:102E40001040FEF7C4BE10BD003801404400002011
:102E5000FEE7FEE77047000038B51C49002309680B
:102E60001B4A11F0F00F23D118491C310C68E50002
:102E7000184C03D5216801F4C0540EE00D6845F0EC
:102E800080550D600D6805F08055009524680D682B
:102E900004F4C05425F080550D60B4F5C05F07D12F
:102EA000B0F5404F04D11068012340F004001060D9
:102EB000106820F0010018431060106800F0010055
:102EC000984201D0012038BD002038BD08380240AA
:102ED000003C0240007000407047FEF78FBF0000CA
:102EE00010B592B034216846FDF782FC14210DA87C
:102EF000FDF77EFC1148016821F4C05141F40061E6
:102F00000160012000900024019009946846FFF7B9
:102F100035F908B172B6FEE70F200D900220CDE919
:102F20000E04109400210DA81194FFF703F8002857
:102F300001D072B6FEE712B010BD00000070004074
:102F400002494FF0006008607047000008ED00E0A3
:102F500010B5082000F084F9FFF75EFF0122044954
:102F60000448FFF73FFCBDE8104003A0FDF7F8B9A7
:102F70003C000020DC020020287965732920D4DA87
:102F8000D3C3D5FDB5E3D4ADD7D3B5C4BAAFCAFD6D
:102F90002E0D0A0010B5406A0021C185C184FFF7DB
:102FA00021FB10BD0168CA6822F49072CA600168F2
:102FB0004A6922F001024A61202180F83A107047E4
:102FC00010B590F83A10222901D0022010BD816876
:102FD000B1F5805F11D00169002901681FD04968EF
:102FE00001F07F03816A4A1C82620B70C18D491E09
:102FF0000904090CC18518D02BE00269816A002AF6
:103000000268526805D0D2B20A80816A491C816286
:10301000ECE7C2F308020A80816A891CF7E74A6874
:10302000816A4B1C83620A70E0E70168CA6822F07B
:103030002002CA600168CA6822F48072CA6001680E
:103040004A6922F001024A61202180F83A10FFF714
:10305000F3FB002010BD00002DE9F041044600689C
:103060000169E26821F44051114301612169A068BE
:10307000E26908436169114322680843D16849F253
:103080000C6399430143D16020684169A26921F42E
:1030900040711143416136492068884202D1FFF7EF
:1030A0002BF801E0FFF718F80246E36964203221AB
:1030B000B3F5004F02EBC20303EB021362682BD09F
:1030C0009200B3FBF2F5B5FBF0F5B3FBF2F66FF04F
:1030D00018077D4306EB8505B3FBF2F601EB0515FA
:1030E000B5FBF0F5B6FBF0F605F0F00505EB0615BF
:1030F000B3FBF2F6B3FBF2F2B2FBF0F27A4306EB6B
:10310000820201EB0211B1FBF0F000F00F00216828
:1031100028448860BDE8F0815200B3FBF2F6B6FBAC
:10312000F0F6B3FBF2F7B3FBF2F56FF0180C06FB09
:103130000CF607EB860601EBC606B5FBF0F5B6FB11
:10314000F0F62D0106F0F80605EB4605B3FBF2F6A6
:10315000B3FBF2F2B2FBF0F202FB0CF206EB8202DE
:1031600001EBC201B1FBF0F000F00700CFE7000077
:103170000038014090F83910212901D00220704711
:103180008168B1F5805F016A0BD04A1C0262026857
:1031900009785160C18C491E0904090CC1840ED004
:1031A00017E009880268C1F308015160016900292C
:1031B000016A02D0491C0162ECE7891CFBE7016847
:1031C000CA6822F08002CA600068C16841F040010C
:1031D000C16000207047000010B50848FFF708FAEA
:1031E0000648FFF700FA2028FAD1012204490348D3
:1031F000FFF7F8FA0028F8D110BD0000DC0200202B
:103200003C000020FEE7490050EAC12018BF04201E
:103210004A0D18BF40F0010040F2FF72B2EB515F5F
:1032200008BF40F00200012808BF052070470907C9
:10323000090E002804DB00F1E02080F8001470473C
:1032400000F00F0000F1E02080F8141D70473038C6
:103250000A2801D201207047002070477047000003
:1032600010B504460420FFF79DF90148046010BD25
:103270003800002070B5054600244FF47A7603E04C
:10328000304600F005F8641CAC42F9D370BD000074
:1032900070B54FF0E024002265690949A369096807
:1032A0004843A1699942FCD002D2A3EB010302E09A
:1032B000A5EB010633441A440B468242F1D370BD9C
:1032C0003800002004490A685206FCD5024AC1B2FF
:1032D000121D11607047000000380140FEF796FD96
:1032E000FFF7FEFDFFF746FDFEF751FCFEE700008D
:1032F0000FB42DE9F04F8B468246002026498BB053
:103300000DF15C080870012406463DE023A11698E3
:10331000FDF796FA002808F10400D8F8001080C8DC
:10332000894680464FF0000516D02AE01CB9594660
:103330001948FDF751FA002459F8250000F094F8D7
:10334000CDE90001202102A8169AFDF715F802A97F
:103350001148FDF741FA6D1CBD42E7DB13E01CB9D3
:1033600059460D48FDF738FA002459F82530202138
:1033700002A8169AFDF700F802A90748FDF72CFAF3
:103380006D1CBD42EBDB761C5645BFDB0BB0024823
:10339000BDE8F00F5DF814FB8400002025660000F6
:1033A00000B585B0FFF7DCFC0B4903208A1FCDE98F
:1033B0000002CDE90201931F049008A208A1FFF7C3
:1033C00097FF014607A0FCF7CBFF05B064205DF82E
:1033D00004EBFFF74FBF00002C0000202564000025
:1033E0002C00000025730D0A000000000349002096
:1033F0004880C8210248FDF7FBB900003C000020CE
:103400001402002010B500290AD00878002807D03F
:1034100005487844FDF714FA002801D0002010BDBB
:103420000248784410BD00007E02000076020000D1
:1034300010B500290AD00878002807D0054878443C
:10344000FDF7FEF9002801D0002010BD02487844A5
:1034500010BD00006E020000660200000808A0F522
:1034600000114FEA3101704743004FEAD30C4FEA95
:103470003C0C43401FBF40070CF1605113F0FE4F5E
:1034800070471CF0006F03D100200CF00041704722
:103490000CF0004343EA507010B540EACC0000F055
:1034A0000EF800BF000000924FEA0001FFF7D6BF00
:1034B0004FF000414FF00000A1F5002170470EF1E0
:1034C000020E2EF0030E5EF8044B244204D44FEAA1
:1034D0004102B2F17F4F11D84FEA4003B3F17F4F61
:1034E0000CD80ED14FEAD07CB2F17F4F0CEB4C0CD4
:1034F0000CF1020C08BF4CEBD17C04E04FF0080C3F
:1035000001E04FEAD17C0CEB4C0324FA03F404F005
:103510000704B4F1040C06D20EEB840CBDE8104095
:103520004CF0010C6047DFE80CF0070802024FF096
:103530000040A0F5800010BD0846420018BFD2F13F
:10354000807288BF00F0004010BDFDF7EDBAFDF7B6
:1035500021BC030406080C101820300000000000F5
:103560000000000102030406070809000000000132
:10357000020304000000000000000000303132337C
:103580003435363738394142434445464030580097
:1035900030313233343536373839616263646566C9
:1035A0004030780004000008000000000000000225
:1035B000000100001030313233343536373839618C
:1035C0006263646566787000303132333435363783
:1035D00038394142434445465850000002400000FB
:1035E000000000A00000000005400000000000C82E
:1035F000000000000C4000000000409C00000000A3
:10360000194000000020BCBE000000003440000053
:10361000BFC91B8E00000004B5400000504BCFD046
:103620006607E2CF010000006C4100003E8251AA13
:10363000DFEEA73401000000D9420000DCB5A0E2B3
:103640003A301F97FFFFFFFFB4450000FD25A0C8DB
:10365000E9A3C14FFFFFFFFFFF3F00000000008014
:1036600000000000FF3F000000000080000000009C
:10367000BC37000800000020440000006001000882
:1036800000380008440000203C0900007C010008CC
:103690001C00000043000000F8FFFFFF0C000000CA
:1036A0000E0000000F0000002E00000010010000BE
:1036B00043000000F8FFFFFF004040404040404012
:1036C00040404141414141404040404040404040F5
:1036D0004040404040404040400502020202020299
:1036E00002020202020202020220202020202020E8
:1036F00020202002020202020202909090909090FC
:1037000010101010101010101010101010101010B9
:10371000101010100202020202028888888888882D
:103720000808080808080808080808080808080819
:103730000808080802020202400000000000000021
:103740000000000000000000000000000000000079
:103750000000000000000000000000000000000069
:103760000000000000000000000000000000000059
:103770000000000000000000000000000000000049
:103780000000000000000000000000000000000039
:103790000000000000000000000000000000000029
:1037A0000000000000000000000000000000000019
:1037B00000000000000000000000000010000000F9
:1037C000010000000000000068FF1F004000000032
:1037D00000040240800000000004024000000000DD
:1037E00000000000000000000000000000000000D9
:1037F00000000000000000000000000000000000C9
:0400000508000125C9
:00000001FF
