:020000040800F2
:10000000F04A002045010008D91A0008FB19000831
:10001000D71A0008490800089928000800000000C5
:10002000000000000000000000000000F9250008AA
:100030002109000800000000F11A0008FB25000853
:100040005F0100085F0100085F0100085F01000810
:100050005F0100085F0100085F0100085F01000800
:100060005F0100085F0100085F0100085F010008F0
:100070005F0100085F0100085F0100085F010008E0
:100080005F0100085F0100085F0100085F010008D0
:100090005F0100085F0100085F0100085F010008C0
:1000A0005F0100085F0100085F0100085F010008B0
:1000B0005F0100085F0100085F0100085F010008A0
:1000C0005F0100085F0100085F0100085F01000890
:1000D0005F010008852800085F0100085F01000833
:1000E0005F0100085F0100085F0100085F01000870
:1000F0005F0100085F0100085F0100085F01000860
:100100005F0100085F0100085F0100085F0100084F
:100110005F0100085F0100085F0100085F0100083F
:100120005F0100085F0100085F0100085F0100082F
:10013000DFF80CD000F062FB00480047AB5300082A
:10014000F04A00200648804706480047FEE7FEE7E1
:10015000FEE7FEE7FEE7FEE7FEE7FEE7FEE7FEE777
:100160005D26000831010008202A04DB203A21FA2C
:1001700002F00021704721FA02F3D040C2F12002C0
:10018000914008431946704700487047FC0803082F
:1001900040EA01039B0703D009E008C9121F08C009
:1001A000042AFAD203E011F8013B00F8013B521E89
:1001B000F9D27047D2B201E000F8012B491EFBD200
:1001C00070470022F6E710B513460A460446194662
:1001D000FFF7F0FF204610BD2DE9F04791460F468E
:1001E00080460446002614F8015B2DB1FFF7CCFFD2
:1001F0000068405DC007F6D12B2D02D02D2D18D000
:10020000641E4A463946204600F0ACF927B13968E9
:10021000A14201D1C7F8008071054FF002040BD54F
:100220004042002803DD02F0DDFF0460A007BDE8C6
:10023000F08746F48066E4E70028F8DA02F0D2FF9F
:1002400004606FF00040F2E770B5064602F0CAFFA6
:10025000046805460A2200213046FFF7BDFF2C60E6
:1002600070BD2DE9FE4F804681EA0300C00F0C46A9
:10027000009021F0004123F00045B8EB0200A941B5
:1002800005D24046214690461C460B46024623F0C6
:100290000040104347D0270DC7F30A00C3F30A51AB
:1002A0000290401A019040286BDAC3F3130040F427
:1002B000801B0098924620B10023D2EB030A63EB27
:1002C0000B0B01985946C0F14002504600F029F945
:1002D00006460D4650465946019A00F031F910EB9A
:1002E00008006141002487EA115284EAE7731A4347
:1002F00040D0009A62B3019A012A4FEA075215DCF6
:10030000001B61EB02014FF0004202EA0752CDE907
:100310000042001C41F5801132462B4600F080F966
:1003200003B0BDE8F08F40462146F9E7001B61EBC2
:100330000201001C41F5801300185B412018A2F552
:10034000001747EB030140EAD570B6196D4111E083
:100350006D084FEA360645EAC0754FEA0752001BA2
:1003600061EB0201001C41F5801149084FEA3000A1
:100370000019514132462B4603B0BDE8F04F00F062
:1003800040B90098012240000023D0EB020263EB49
:10039000E073009821464FEAE074B8EB000061EB8F
:1003A0000401E9E783F000435BE781F0004158E78F
:1003B0002DE9FE4F81EA030404F0004421F00041DE
:1003C00000944FF0000B23F0004350EA01045ED08C
:1003D00052EA03045BD0C3F30A54C1F30A552C4418
:1003E000A4F2F3340194A0FB0254C1F3130141F4CD
:1003F0008011C3F3130343F4801301FB024400FB99
:10040000034E840A970A44EA815447EA8357A4FBBF
:10041000076802958D0A05FB07854FEA932C04FBBC
:100420000C542705029D4FEA065847EA1637B5EBEC
:1004300008056EEB070C870E920E47EA811742EA19
:100440008312A7FB0201B6EB0B0164EB00042B0D3A
:1004500043EA0C335E1844EB1C50DA465146E7FB86
:100460000201C5F313044FEA0B3343EA14534FEA76
:100470000432019C43EA0603A4F10C040294009C9C
:10048000CDE900B400F0CCF803B0BDE8F08F002057
:100490000146F9E730B50B46014600202022012431
:1004A00009E021FA02F59D4205D303FA02F5491B42
:1004B00004FA02F52844151EA2F10102F1DC30BD58
:1004C0002DE9F05F0546002092469B468846064689
:1004D000814640241BE02846414647462246FFF716
:1004E00043FE53465A46C01A914110D3114618464E
:1004F000224600F016F82D1A67EB01084F462246F7
:100500000120002100F00DF817EB00094E41201EDC
:10051000A4F10104DFDC484631462A464346BDE8E3
:10052000F09F202A04DB203A00FA02F100207047F5
:100530009140C2F1200320FA03F319439040704721
:10054000202A06DBCB17203A41FA02F043EAE07397
:1005500006E041FA02F3D040C2F120029140084384
:10056000194670472DE9F05F82460078002715464E
:100570008B460AF10104B946302801D09DB113E041
:1005800014F8010B0127782803D0582801D045B171
:100590000AE00DB1102D07D10027102514F8010B2A
:1005A00002E0082500E00A250026B0460EE005FB23
:1005B000080005FB06F1012701EB10461FFA80F841
:1005C000B6F5803F00D3B94614F8010B294600F078
:1005D00027F90028EBDABBF1000F05D00FB1641E3C
:1005E00000E05446CBF80040B9F1000F06D002F00D
:1005F000F9FD02210160C81EBDE8F09F48EA0640EF
:10060000FAE710B5141E73F1000408DA401C41F13A
:10061000000192185B411A4301D120F0010010BD86
:100620002DE9F04D92469B4611B1B1FA81F202E0FC
:10063000B0FA80F220329046FFF773FF04460F466F
:1006400040EA0A0041EA0B0153465A46084313D0D8
:10065000114653EA010019D0C8F140025046FFF795
:1006600083FD05460E46504659464246FFF759FF60
:10067000084305D0012004E020463946BDE8F08D4E
:100680000020054346EAE0762C4337430A98630589
:10069000E40AA0EB08000022FD0A44EA47540A30AD
:1006A00002D500200146E9E7010510196941DDE99D
:1006B000084500196941BDE8F04DA2E72DE9F04D6C
:1006C00081EA030404F0004B21F0004514464FF08A
:1006D000000A23F0004150EA050220D054EA01024A
:1006E0001DD0C5F30A570246C5F31303C1F3130027
:1006F000C1F30A5640F4801543F48013A7EB0608B3
:10070000101BD64608F2FD3873EB050002D308F142
:10071000010801E092185B41B8F1000F03DA0020F4
:100720000146BDE8F08D00204FF480110646844656
:100730000EE0171B73EB050705D3121B63EB0503D4
:1007400006434CEA010C49084FEA300092185B411D
:1007500050EA0107EDD152EA030012D082EA040008
:1007600083EA0501084305D0101BAB4106D20122E4
:10077000002306E000224FF0004302E06FF0010288
:1007800053101AEB06004CEB085110EB0A0041EB3A
:100790000B01BDE8F04DFFF734BFC1F30A52C1F3BE
:1007A000130140F2FF3341F480119A4202DA002033
:1007B0000146704740F233439A42A2F2334202DCD0
:1007C0005242FFF7D1BCFFF7ACBE000030B5041EAB
:1007D00071F1000404DB4FF00044404264EB01017E
:1007E000141E73F1000405DB1C464FF00043524217
:1007F00063EB0403994208BF904230BD064C074D9D
:1008000006E0E06840F0010394E8070098471034E0
:10081000AC42F6D3FFF790FC000903082009030857
:100820003A2800D2303820F02002412A01D3A2F128
:100830003700884201D34FF0FF307047014807C8A6
:1008400001F044B918000020FEE7000010B5B8B070
:1008500000F042F801F042F9202217491AA8FFF7E8
:1008600097FC15493622203122A8FFF791FC124C43
:10087000B4F85600ADF8BE0054F8580F3090A08878
:10088000ADF8C400E088ADF8C6000B491122603114
:1008900032A8FFF77DFC607E8DF8D900E0693790C3
:1008A00068221EA96846FFF773FC1AAC94E80F0093
:1008B00001F029FC38B010BD4C000020FFF7C6FF46
:1008C00004F0A8FD00F000F84FF47A74FFF7B6FFCB
:1008D000204603F0E9FAF9E70548016841F0807124
:1008E00001600448016841F00101016070470000A7
:1008F000FCED00E0001000E0064A10B55368064920
:10090000064C0968B1FBF4F141435068C01A8842B3
:10091000FBD310BD001000E00000002040420F009B
:10092000704772B6FEE7000010B5012207A1002053
:1009300003F07EFE0649087018B106A002F01EFC06
:10094000FEE7BDE810400AA002F018BC313A0000F2
:10095000D00000206661696C20746F20756E6D6F29
:10096000756E742066617466732E0D0A00000000B7
:100970007375636365656420746F20756E6D6F7544
:100980006E742066617466732E0D0A0030B587B0F0
:1009900016A000F099F80446014618A002F0EEFBFC
:1009A0004FF0FF35002C19DD142269460FA004F02A
:1009B0004FFC694616A002F0E1FB42F21171684655
:1009C00004F0C1FC50B16846FFF73EFC421C1BA17D
:1009D00005A802F0E3FB2A4605A901E019492A46C9
:1009E00002A000F0E9F807B0204630BD313A2F6D83
:1009F000795F696E6465782E6373760066696C65ED
:100A00002073697A652069732025640D0A0000004F
:100A1000676574206C617374206C696E6520667202
:100A20006F6D2066696C653A0D0A3E3E3E0D0A25E3
:100A3000730D0A3C3C3C0D0A000000000D0A2564C1
:100A400000000000DC00002010B50AA002F096FBB8
:100A500001220DA10D4803F0EBFD0D49087018B1FE
:100A60000CA002F08BFBFEE7BDE810400FA002F0E7
:100A700085BB00006D7920666174667320746573B0
:100A8000742E0D0A00000000313A0000F40300202B
:100A9000D00000206661696C20746F206D6F756EE8
:100AA000742066617466732E0D0A000073756363AB
:100AB00065656420746F206D6F756E742066617457
:100AC00066732E0D0A000000F1B51A4C1A486568CD
:100AD00003F0FCFC13221848009903F0CFFD2070AE
:100AE00010B1694615A015E0134E00213046F56897
:100AF00003F0FAFC207010B1694616A00AE00D4B15
:100B00001A4908330C48F26803F051FF207020B1F5
:100B1000694617A002F032FB06E014491AA002F061
:100B20002DFB23A002F02AFB034803F0CFFC28464C
:100B3000F8BD0000D0000020241400206661696C1C
:100B400020746F20665F6F70656E205B25735D0D8E
:100B50000A0000006661696C20746F20665F6C7328
:100B600065656B205B25735D0D0A0000AC240020D9
:100B70006661696C20746F20665F72656164205BDA
:100B800025735D0D0A00000066696C6520636F6E59
:100B900074656E742061726520617320666F6C6C81
:100BA0006F773A200D0A3E3E3E0D0A257300000085
:100BB0000D0A3C3C3C0D0A00F7B515460E461C4894
:100BC00003F084FC13221A48009903F057FD194CD6
:100BD000207010B1694618A01DE0B5F1FF3F02DAA0
:100BE0001320207009E0681C0AD02946104803F041
:100BF0007BFC207010F0FF0F05D0694614A00AE0BE
:100C00000B48C168F2E73146094803F0DBFD207864
:100C100020B1694614A002F0B1FAFEBD044803F009
:100C200055FC17A002F0AAFA0098FFF74DFFFEBD91
:100C300024140020D00000206661696C20746F20AD
:100C4000665F6F70656E205B25735D0D0A000000A6
:100C50006661696C20746F20665F6C7365656B20DC
:100C60005B25735D0D0A00006661696C20746F205E
:100C7000665F72656164205B25735D0D0A0000008C
:100C80007772697465206973207375636365656441
:100C90002C206E6F772072656164206974202D3E70
:100CA0000D0A00002DE9F05F90F8211000240229C0
:100CB00003D004218163012485E001680A6822F0E1
:100CC0000E020A6001680A6822F001020A603F4EC3
:100CD0003E4FB215DFF8F4C0DFF8F090DFF8ECA07B
:100CE000DFF8E8B0DFF8E4E00168783F13011502AF
:100CF000ACF1640CA9F15009AAF13C0AABF1280B44
:100D0000AEF1140E4FF48018B14227D9B9420ED07B
:100D1000614512D049451DD0514518D0594518D0CC
:100D2000714501D1424615E0294EB14201D101225F
:100D300010E0274E1436B14201D110220AE0244EB1
:100D40002836B14206D0224A3C32914201D11A469D
:100D500000E02A461E49091F0A602BE0B94213D061
:100D6000614517D0494522D051451DD059451DD068
:100D7000714501D142461AE0B14202D14FF0807272
:100D800015E0134EB14201D1012210E0104E14368D
:100D9000B14201D110220AE00D4E2836B14206D0F0
:100DA0000B4A3C32914201D11A4600E02A460749DB
:100DB00080394A60012180F82110002180F820103C
:100DC000416B01B188472046BDE8F09F800002409A
:100DD000080402402DE9F84FDFF8C891002409F11A
:100DE000040A0AF1040B23460F270BF1040ED1E08D
:100DF0000125A54006EA0502AA4276D1DFF8A8C17E
:100E00004E68A6EB0C0866452BD00DDC032E34D0C3
:100E100005DC36B3012E19D0022E2FD11BE0112E86
:100E200016D0122E2AD119E0B8F5881F19D006DC89
:100E3000B8F5803F15D0B8F5801F1FD111E0B8F587
:100E4000001F0ED0B8F5041F18D10AE0CB6815E0DA
:100E5000CB681B1D12E0CB6808330FE0CB680C3366
:100E60000CE08B682BB1012B4FF0080303D04561D8
:100E700004E0042302E0056100E00023FF2A01D81A
:100E8000064601E000F104064FEA840501D9A5F108
:100E90002005D6F8008007FA05FC28EA0C0803FABA
:100EA00005F548EA0508C6F800804D68ED0070D5E4
:100EB0003E4DAE6946F00106AE61AD6924F0030611
:100EC00005F0010500953A4D06EB050CDCF80850DD
:100ED000A607360F07FA06F825EA0805DFF8D480DA
:100EE000404503D14FF0000825E052E0DFF8C8800C
:100EF000404502D14FF001081DE0DFF8C0804045B9
:100F000002D14FF0020816E0DFF8B480404502D16C
:100F10004FF003080FE0DFF8AC80404502D14FF0FE
:100F2000040808E0DFF8A080404502D14FF0050832
:100F300001E04FF0060808FA06F848EA0508CCF880
:100F400008804D68D9F80060ED034D4601D5164381
:100F500000E096432E604D68DAF80060AD03554618
:100F600001D5164300E096432E604D68DBF8006023
:100F7000ED025D4601D5164300E096432E604D68B4
:100F8000DEF80060AD02754601D5164300E09643D9
:100F90002E60641C0A681646E2407FF429AFBDE863
:100FA000F88F000000040140000011100010024002
:100FB0000000014000080140000C01400010014009
:100FC0000014014000180140001C0140C2680A42A0
:100FD00001D041617047016170470AB101617047FA
:100FE0000904FBE701488068704700000400002006
:100FF0000248816802781144816070470400002033
:10100000074810B5016841F010010160032000F0AD
:1010100079F8032000F006F800F024F8002010BD55
:101020000020024070B50D4D04464FF47A712878C7
:10103000B1FBF0F00A490968B1FBF0F000F066FB83
:1010400048B9102C07D200222146501E00F03AF871
:1010500000206C6070BD012070BD00000400002005
:10106000000000200E4808B5816941F0010181614E
:10107000816901F001010091C16941F08051C161B4
:10108000C06900F080500090052000F03BF8054852
:10109000416821F0E06141F00071416008BD00004D
:1010A0000010024000000140002809DB00F01F0290
:1010B000012191404009800000F1E020C0F80011BA
:1010C00070470000F0B40E4B1B680C46C3F30223BC
:1010D000C3F10705042D00D90425191D072901D2E4
:1010E000002300E0DB1E012606FA05F1491E21401F
:1010F00099409E40761E16403143F0BC02F062B823
:101100000CED00E0064900F0070208684FF6FF0307
:10111000184040EA0220034A10430860704700006C
:101120000CED00E00000FA052DE9F0470F46050040
:1011300061D0434E306800F00700B84209D23068F1
:1011400020F0070038433060306800F00700B842F4
:1011500051D128683B4C810712D5400703D5606800
:1011600040F4E06060602878000703D5606840F4D0
:10117000605060606068A96820F0F000084360601B
:101180002878C00728D06868012810D02168022874
:1011900010D0890700292EDA616821F0030101438C
:1011A0006160FFF71FFF804641F288390DE021683A
:1011B0008903EFE78901EDE7FFF714FFA0EB0801D2
:1011C000494502D90320BDE8F0876068696800F0EE
:1011D0000C00B0EB810FEFD1306800F00700B8428F
:1011E0000BD9306820F0070038433060306800F0D9
:1011F0000700B84201D00120E5E72878400705D56F
:101200006068E96820F4E0600843606028780007BF
:1012100006D56068296920F4605040EAC10060602A
:1012200000F038F86168084AC1F30311515CC84006
:101230000649086006480068FFF7F4FE0020C2E790
:101240000020024000100240685700080000002003
:10125000080000200448054900684968044AC1F3B1
:101260000221515CC840704700000020001002407D
:10127000785700080448054900684968044AC1F3E2
:10128000C221515CC840704700000020001002409D
:101290007857000812A185B00FC98DE80F0014A07F
:1012A000144A006804905168134801F00C03042BA1
:1012B00010D0082B0ED1C1F38343C9031DF80300DE
:1012C0000AD5516804AAC1F34041515C0A4A50430F
:1012D000B0FBF1F005B0704708494843FAE7000059
:1012E00002030405060708090A0B0C0D0E0F101067
:1012F000010200000010024000127A0000093D00C7
:101300002DE9F84F040070D02078C04DC00749D0B7
:101310006868C0F38100012807D06868C0F38100C5
:10132000022809D16868C00306D52868800339D52A
:1013300060680028E7D035E06068B0F5803F0BD0EA
:1013400010B1B0F5A02F11D0286820F480302860AB
:10135000286820F4802002E0286840F4803028606B
:10136000606890B1FFF73EFE06460AE0286840F448
:1013700080202860F0E700BFFFF734FE801B642860
:1013800073D828688003F7D50CE0FFF72BFE0646DC
:1013900005E000BFFFF726FE801B6428F0D8286810
:1013A0008003F7D420789A4E80074FF001094FF060
:1013B000000839D5686810F00C0F07D06868C0F3D2
:1013C0008100022809D16868C00306D42868800714
:1013D00014D52069012808D110E02069B0B1C6F801
:1013E0000090FFF7FFFD074605E00AE1FFF7FAFD71
:1013F000C01B0228C4D828688007F7D5286861690F
:1014000020F0F80040EAC10028600DE0C6F8008036
:10141000FFF7E8FD074604E0FFF7E4FDC01B0228E4
:1014200023D828688007F7D4207800072CD579487E
:10143000A169D9B1C0F80090FFF7D4FD074604E0D8
:10144000FFF7D0FDC01B02280FD8686A8007F7D5C8
:1014500071484FF4FA510068B0FBF1F0009000BF02
:101460000098411E0091FAD20EE080E0C0F80080A2
:10147000FFF7B8FD074604E0FFF7B4FDC01B0228E4
:1014800075D8686A8007F7D42078400760D5E86986
:101490000027C00008D4E86940F08050E861E8699E
:1014A000012700F0805000905C480168C90513D402
:1014B0000168834641F480710160FFF793FD824625
:1014C00006E000BFFFF78EFDA0EB0A0064284ED8AF
:1014D000DBF80000C005F5D5E06801280AD008B1A6
:1014E000052813D0286A20F001002862286A20F01D
:1014F000040002E0286A40F001002862E06841F23E
:10150000883B98B1FFF76EFD82460BE0286A40F0F9
:1015100004002862EEE700BFFFF764FDA0EB0A01BC
:1015200059455AD8286A8007F6D50CE0FFF75AFDCE
:10153000824605E0FFF756FDA0EB0A0159454CD85D
:10154000286A8007F6D41FB1E86920F08050E8616E
:10155000E06988B36968C1F38101022944D0022897
:10156000C6F8608004D0FFF73DFD044638E034E063
:10157000FFF738FD074604E0FFF734FDC01B0228E3
:101580002BD828688001F7D4206AB0F5803F05D1B8
:101590006868A16820F4003008436860D4E9080155
:1015A0000843696821F4741108436860C6F86090C4
:1015B000FFF718FD044606E025E000BFFFF712FD27
:1015C000001B022809D828688001F7D51BE000BF5E
:1015D000FFF708FD001B022802D90320BDE8F88FA1
:1015E00028688001F4D40EE00128F7D06868226AE8
:1015F00000F48031914204D1616A00F47010884295
:1016000001D00120EAE70020E8E7000000100240D6
:10161000000042428004424200000020007000406E
:1016200070B5040005D00025A56294F8510010B1F2
:1016300006E0012070BD84F85050204600F02EF8DE
:10164000022084F851002068016821F04001016007
:10165000D4E901010843D4E9031211430843616945
:101660000843218B01F400710843E1690843216AB2
:101670000843A16A084321680860A069042101EABF
:101680001040216848602068C16921F40061C1618F
:101690006565012084F85100002070BD30B585B02B
:1016A0000024009401940294039400681449884231
:1016B00023D11448816941F480518161816901F429
:1016C00080510491816941F00401816180690E4D6E
:1016D00000F004000490A02000900220019003205C
:1016E000039069462846FFF775FB4020CDE90004CA
:1016F000694628460294FFF76DFB05B030BD000037
:1017000000300140001002400008014010B5401EAA
:10171000B0F1807F01D3012010BD4FF0E024606163
:101720000F21601701F04EFD0020A061072020610D
:10173000002010BD7047000070B5026804461068B4
:10174000D168536910F00F0F51D003F0010501F477
:10175000907635435DD0C20705D0CA0503D5E26B4C
:1017600042F00102E263420705D5DA0703D0E26BDB
:1017700042F00202E263820705D5DA0703D0E26B8A
:1017800042F00402E263020705D5DA0703D0E26BF8
:1017900042F00802E263E26B002A34D0800604D5EE
:1017A000880602D5204600F093FF20684069E16B6F
:1017B000C0F3801001F008010143204624D000F05E
:1017C00079FF2068416949061AD5416921F0400135
:1017D0004161606BA0B11B494163606BFFF762FA26
:1017E000002810D0606B416BBDE87040084783064D
:1017F0000FD58B060DD52046BDE8704000F068BFC0
:101800002046FFF797FF70BDFFF794FF0020E063CD
:1018100070BD030606D50B0604D52046BDE8704012
:1018200000F0FEBF4006F3D54806F1D5D16820464A
:1018300021F04001D160202184F8391000F0DCF85B
:1018400070BD0000A526000870B5040004D094F80F
:101850003900002510B106E0012070BD84F8385031
:10186000204600F023F8242084F839002068C1685D
:1018700021F40051C160204600F076FF2068016924
:1018800021F4904101612068416921F02A01416100
:101890002068C16841F40051C160E563202084F8EC
:1018A000390084F83A00002070BD000030B585B0E2
:1018B000002400940194029403940068184988421B
:1018C0002CD11848816941F480418161816901F41A
:1018D00080410491816941F0040181618069124D68
:1018E00000F0040004904FF400700090022001907A
:1018F0000320039069462846FFF76CFA2815CDE9C6
:101900000004694628460294FFF764FA0022012188
:101910002520FFF7D7FB2520FFF7C6FB05B030BD1C
:1019200000380140001002400008014090F83A30B1
:10193000202B22D1F9B1F2B190F83830012B1CD014
:1019400081628285C2850021C163222280F83A200B
:1019500080F838100168CA6842F48072CA60016871
:101960004A6942F001024A610068C16841F0200101
:10197000C1600020704701207047022070470000BE
:1019800070B500681549884217D1154841880A0486
:1019900013D402464C0412784FF000030ED50A2AE5
:1019A0000AD141F4004141800E490FA001F0E6FB4D
:1019B000BDE8704003F0F4BD438070BD0D2A09D02E
:1019C000C1F30D04074D491C89B22A554180C7292E
:1019D000F2D870BD41F48041418070BD00380140B3
:1019E000100000202C010020726563697665643A5E
:1019F0002025730D0A0000007047FEE7F0B585B0A2
:101A0000002000900190029003901F48816941F0EE
:101A100020018161816901F020010491816941F017
:101A200004018161816901F004010491816941F03F
:101A3000080181618069154E00F0080004900022C1
:101A400010213046FFF7C9FA114F4FF44C650122BF
:101A500029463846FFF7C1FA10200124CDE90004D9
:101A60000220CDE9024069463046FFF7B3F9112064
:101A70000095CDE901040320039069463846FFF73D
:101A8000A9F905B0F0BD00000010024000080140B7
:101A9000000C01400C4810B50A4901604FF4E131D7
:101AA0004160002181600C22C160C0E904128161A3
:101AB000C161FFF7C9FE002803D0BDE81040FEF762
:101AC00030BF10BD00380140EC000020024608463F
:101AD00091B2FFF77BBAFEE7FEE700000122024960
:101AE0000248FFF723BF000010000020EC00002098
:101AF00070470FB420222DE9F041BAB040A9DDE9CA
:101B00005E541BA8609EFEF743FB48A93622884618
:101B100023A8FEF73DFBBDF85601ADF8C20056986C
:101B20003190BDF85C01ADF8C800BDF85E01ADF8BC
:101B3000CA0058A911220F4633A8FEF729FB9DF8C9
:101B400071018DF8DD005D98389000201A906822B0
:101B50001FA96846FEF71CFB0DF16C0C9CE80F00FA
:101B600000F086FC202240A91BA8FEF711FB3622BC
:101B7000414623A8FEF70CFBBDF85601ADF8C200A4
:101B800056983190BDF85C01ADF8C800BDF85E0113
:101B9000ADF8CA001122394633A8FEF7F9FA9DF8CC
:101BA00071018DF8DD005D98389003201A9068224D
:101BB0001FA96846FEF7ECFA0DF16C0C9CE80F00CB
:101BC00000F07EFC202240A91BA8FEF7E1FA362295
:101BD000414623A8FEF7DCFABDF85601ADF8C20075
:101BE00056983190BDF85C01ADF8C800BDF85E01B3
:101BF000ADF8CA001122394633A8FEF7C9FA9DF89C
:101C000071018DF8DD005D983890C6F307401A9099
:101C100068221FA96846FEF7BBFA0DF16C0C9CE820
:101C20000F0000F04DFC202240A91BA8FEF7B0FADF
:101C30003622414623A8FEF7ABFABDF85601ADF8AF
:101C4000C20056983190BDF85C01ADF8C800BDF8EF
:101C50005E01ADF8CA001122394633A8FEF798FAA2
:101C60009DF871018DF8DD005D983890C6F307206E
:101C70001A9068221FA96846FEF78AFA0DF16C0CCB
:101C80009CE80F0000F01CFC202240A91BA8FEF7D6
:101C90007FFA3622414623A8FEF77AFABDF85601AC
:101CA000ADF8C20056983190BDF85C01ADF8C8009F
:101CB000BDF85E01ADF8CA001122394633A8FEF71F
:101CC00067FA9DF871018DF8DD005D983890F0B2EB
:101CD0001A9068221FA96846FEF75AFA0DF16C0C9B
:101CE0009CE80F0000F0ECFB2DE0FEF751FA3622E5
:101CF000414623A8FEF74CFABDF85601ADF8C200E4
:101D000056983190BDF85C01ADF8C800BDF85E0191
:101D1000ADF8CA001122394633A8FEF739FA9DF80A
:101D200071018DF8DD005D983890FF201A906822CF
:101D30001FA96846FEF72CFA1BAE96E80F0000F0CC
:101D4000BFFB05F8010B641EA4B24FF0200240A9AE
:101D50001BA8CAD2FEF71CFA3622414623A8FEF77A
:101D600017FABDF85601ADF8C20056983190BDF88B
:101D70005C01ADF8C800BDF85E01ADF8CA001122E3
:101D8000394633A8FEF704FA9DF871018DF8DD009D
:101D90005D98389001201A9068221FA96846FEF7C6
:101DA000F7F91BAC94E80F0000F062FB3AB0BDE815
:101DB000F0015DF814FB00000FB42DE9F04FBDB049
:101DC0005EAADDE9658414F0FF01C1F10000C6B22E
:101DD000649DBDF874914EA8CDE93B204FEA1827C9
:101DE00008F0FF0A3ED0E0B24042C0B204EB000B64
:101DF000002F78D0A8EB060080B2070A00F0FF0899
:101E0000202246A91DA8FEF7C3F9362225A83C9931
:101E1000FEF7BEF9BDF86E01ADF8CA005C983390CC
:101E2000BDF87601ADF8D090ADF8D200112235A8FA
:101E30003B99FEF7ADF99DF889018DF8E5006398AF
:101E40003A901A95CDE91B64682221A96846FEF7ED
:101E50009FF90DF1740A9AE80F0000F081F95C46D1
:101E600035441FE1F7BB202246A91DA8FEF790F9D3
:101E7000362225A83C99FEF78BF9BDF86E01ADF826
:101E8000CA005C983390ADF8D09026E1FEF780F957
:101E9000362225A83C99FEF77BF9BDF86E01ADF816
:101EA000CA005C983390BDF87401ADF8D000BDF85D
:101EB0007601ADF8D200112235A83B99FEF768F9FA
:101EC0009DF889018DF8E50063983A904FF4807091
:101ED0001A95CDE91B04682221A96846FEF758F936
:101EE0001DAE01E008E042E096E80F0000F038F98E
:101EF00004F5807405F580757F1EFFB24FF0200257
:101F000046A91DA8C2D2FEF743F9362225A83C995E
:101F1000FEF73EF9BDF86E01ADF8CA005C9833904B
:101F2000BDF87401ADF8D000BDF87601ADF8D2006F
:101F3000112235A83B99FEF72BF99DF889018DF800
:101F4000E50063983A901A95CDE91BA4682221A96F
:101F5000684600BFFEF71CF91DAE96E80F0000BFF3
:101F600000F0FEF83DB0BDE8F00F5DF814FBB2459F
:101F70007FF679AFAAEB0600C7B2202246A91DA8BA
:101F8000FEF706F9362225A83C99FEF701F9BDF8BF
:101F90006E01ADF8CA005C983390BDF87601ADF8DB
:101FA000D090ADF8D200112235A83B99FEF7F0F899
:101FB0009DF889018DF8E50063983A901A95CDE96E
:101FC0001B64682221A96846FEF7E2F80DF1740847
:101FD00098E80F0000F0C4F85C463544202246A97A
:101FE0001DA8FEF7D5F8362225A83C99FEF7D0F8B3
:101FF000BDF86E01ADF8CA005C983390BDF874016D
:10200000ADF8D000BDF87601ADF8D200112235A8A8
:102010003B99FEF7BDF89DF889018DF8E5006398BE
:102020003A901A95CDE91B74682221A96846FEF7FB
:10203000AFF898E80F0093E7202246A91DA8FEF705
:10204000A7F8362225A83C99FEF7A2F8BDF86E0144
:10205000ADF8CA005C983390BDF87401ADF8D000BB
:10206000BDF87601ADF8D200112235A83B99FEF7F4
:102070008FF89DF889018DF8E50063983A904FF448
:1020800080701A95CDE91B04682221A96846FEF7E5
:102090007FF81DAE96E80F0000F062F804F580743A
:1020A00005F580757F1EFFB2C6D2B8F1000F3FF470
:1020B00059AF202246A91DA8FEF76AF8362225A8A6
:1020C0003C99FEF765F8BDF86E01ADF8CA005C9862
:1020D0003390BDF87401ADF8D000BDF87601ADF8CD
:1020E000D200112235A83B99FEF752F89DF88901DC
:1020F0008DF8E50063983A901A95CDE91B84682223
:1021000021A9684626E70FB4362200B597B020A96A
:102110006846FEF73DF8BDF8B600ADF836002E98DB
:102120000E90BDF8BC00ADF83C00BDF8BE00ADF8A7
:102130003E00112230A910A8FEF72AF89DF8D10020
:102140008DF85100359815906846FFF769FA0098A8
:102150000068009940F04000086017B05DF814FB7B
:102160000FB42DE9F041BAB0DDE95F455E9E00F0A5
:102170006FFF202240A91BA8FEF70AF848A93622C3
:10218000884623A8FEF704F8BDF85601ADF8C20052
:1021900056983190BDF85C01ADF8C800BDF85E01FD
:1021A000ADF8CA0058A911220F4633A8FDF7F0FF79
:1021B0009DF871018DF8DD005D98389000201A902F
:1021C00068221FA96846FDF7E3FF0DF16C0C9CE83F
:1021D0000F0000F04DF9202240A91BA8FDF7D8FF01
:1021E0003622414623A8FDF7D3FFBDF85601ADF8CE
:1021F000C20056983190BDF85C01ADF8C800BDF83A
:102200005E01ADF8CA001122394633A8FDF7C0FFC0
:102210009DF871018DF8DD005D98389002201A90CC
:1022200068221FA96846FDF7B3FF0DF16C0C9CE80E
:102230000F0000F045F9202240A91BA8FDF7A8FFD8
:102240003622414623A8FDF7A3FFBDF85601ADF89D
:10225000C20056983190BDF85C01ADF8C800BDF8D9
:102260005E01ADF8CA001122394633A8FDF790FF90
:102270009DF871018DF8DD005D983890C5F3074039
:102280001A9068221FA96846FDF782FF0DF16C0CB9
:102290009CE80F0000F014F9202240A91BA8FDF7CC
:1022A00077FF3622414623A8FDF772FFBDF856019D
:1022B000ADF8C20056983190BDF85C01ADF8C80089
:1022C000BDF85E01ADF8CA001122394633A8FDF70A
:1022D0005FFF9DF871018DF8DD005D983890C5F3C2
:1022E00007201A9068221FA96846FDF751FF0DF1DB
:1022F0006C0C9CE80F0000F0E3F8202240A91BA81A
:10230000FDF746FF3622414623A8FDF741FFBDF801
:102310005601ADF8C20056983190BDF85C01ADF899
:10232000C800BDF85E01ADF8CA001122394633A8D5
:10233000FDF72EFF9DF871018DF8DD005D98389056
:10234000E8B21A9068221FA96846FDF721FF0DF137
:102350006C0C9CE80F0000F0B3F8B4F5807F33D923
:1023600036A000F00BFFFF24202240A91BA8FDF798
:102370000FFF3622414623A8FDF70AFFBDF856019C
:10238000ADF8C20056983190BDF85C01ADF8C800B8
:10239000BDF85E01ADF8CA001122394633A8FDF739
:1023A000F7FE9DF871018DF8DD005D98389030786A
:1023B0001A9068221FA96846FDF7EAFE1BAD95E852
:1023C0000F0000F07DF8761C641EA4B2CCD220224F
:1023D00040A91BA8FDF7DCFE3622414623A8FDF7E5
:1023E000D7FEBDF85601ADF8C20056983190BDF841
:1023F0005C01ADF8C800BDF85E01ADF8CA0011225D
:10240000394633A8FDF7C4FE9DF871018DF8DD0053
:102410005D98389001201A9068221FA96846FDF740
:10242000B7FE1BAC94E80F0000F022F83AB0BDE80C
:10243000F0015DF814EB00F005BD00003C3C2D46BA
:102440004C4153482D4552524F522D3E3E20535041
:10245000495F464C4153485F5061676557726974E4
:102460006520746F6F206C61726765210A0000003F
:102470000FB4BDF800101E9A019804B0FEF7ADBD70
:1024800010B503A01C9900F079FE002010BD0000DB
:102490003C3C2D464C4153482D4552524F522D3E07
:1024A0003E2053504920B5C8B4FDB3ACCAB1216534
:1024B00072726F72436F6465203D2025640A0000CC
:1024C0000FB43622F0B5EDB07AA90F4657A8909D0B
:1024D000FDF75EFEBDF81E02ADF89201889865908A
:1024E000BDF82442ADF89841BDF82602ADF89A0136
:1024F0008AA911220E4667A8FDF74AFE9DF8390207
:102500008DF8AD018F986C904FF4005001462DE08E
:10251000491E2BD2202272A91BA8FDF739FE3622B4
:10252000394623A8FDF734FEBDF81E02ADF8C200FF
:1025300088983190BDF82602ADF8C840ADF8CA00C1
:102540001122314633A8FDF723FE9DF839028DF89C
:10255000DD008F98389000201A9068221FA96846E5
:10256000FDF716FE1BAD95E80F0036E0579A92680E
:10257000D2439207CCD45799CD6034E0401E32D27A
:10258000202272A939A8FDF703FE3622394641A858
:10259000FDF7FEFDBDF81E02ADF83A0188984F9098
:1025A000BDF82402ADF84001BDF82602ADF84201A5
:1025B0001122314651A8FDF7EBFD9DF839028DF847
:1025C00055018F98569001201A9068223DA96846BF
:1025D000FDF7DEFD39AC94E80F00FFF751FF6DB059
:1025E000F0BC5DF814FB57998968C943C907C5D188
:1025F0005798C068C0B2F2E77047FEF7F9BC30B533
:102600008FB028216846FDF7DCFD14210AA8FDF7EC
:10261000D8FD01210804CDE9001000240294022510
:102620000491CDE907504FF4E01009906846FEF799
:1026300067FE08B172B6FEE70F20CDE90A054FF438
:102640008060CDE90C4002210AA80E94FEF76CFDD3
:10265000002801D072B6FEE70FB030BD0D4801680A
:1026600041F00101016041680B4A1140416001687D
:102670000A4A11400160016821F48021016041682B
:1026800021F4FE0141604FF41F0181600449C00341
:1026900008607047001002400000FFF8FFFFF6FEE0
:1026A00008ED00E010B5406A0021C185C184FFF744
:1026B00041F810BD0168CA6822F49072CA600168CE
:1026C0004A6922F001024A61202180F83A107047DD
:1026D00010B590F83A10222901D0022010BD81686F
:1026E000B1F5805F11D00169002901681FD04968E8
:1026F00001F07F03816A4A1C82620B70C18D491E02
:102700000904090CC18518D02BE00269816A002AEE
:102710000268526805D0D2B20A80816A491C81627F
:10272000ECE7C2F308020A80816A891CF7E74A686D
:10273000816A4B1C83620A70E0E70168CA6822F074
:102740002002CA600168CA6822F48072CA60016807
:102750004A6922F001024A61202180F83A10FFF70D
:102760000FF9002010BD00002DE9F041044600687B
:102770000169E26821F44051114301612169A068B7
:102780000843616908432168CA6841F20C639A43AF
:102790000243CA6020684169A26921F44071114373
:1027A00041611E49206864253226884202D1FEF725
:1027B00061FD01E0FEF74EFD00EBC00101EB0011F1
:1027C00060686FF018078000B1FBF0F2B2FBF5F221
:1027D000B1FBF0F37A4303EB8202B1FBF0F306EBBB
:1027E0000212B2FBF5F2B3FBF5F302F0F00202EBDA
:1027F0000312B1FBF0F3B1FBF0F0B0FBF5F078435E
:1028000003EB800006EB0010B0FBF5F0216800F050
:102810000F0010448860BDE8F081000000380140DE
:1028200090F83910212901D0022070478168B1F554
:10283000805F016A0BD04A1C02620268097851600D
:10284000C18C491E0904090CC1840ED017E0098807
:102850000268C1F30801516001690029016A02D0D0
:10286000491C0162ECE7891CFBE70168CA6822F099
:102870008002CA600068C16841F04001C160002068
:102880007047000010B50348FEF756FFBDE8104042
:10289000FFF724B9EC000020FEE70000F0B5B9B066
:1028A000054600F0D5FB00F0CDFA20228C491BA88C
:1028B000FDF76EFC8A49362220310F4623A8FDF72A
:1028C00067FC874CB4F85600ADF8C20054F8580FB6
:1028D0003190A088ADF8C800E088ADF8CA00804902
:1028E000112260310E4633A8FDF752FC607E8DF850
:1028F000DD00E069389000201A9068221FA9684620
:10290000FDF746FC0DF16C0C9CE80F00FFF7B0FDE5
:10291000202273491BA8FDF73BFC3622394623A829
:10292000FDF736FC34F8020CADF8C2002068319097
:10293000A088ADF8C800E088ADF8CA001122314681
:1029400033A8FDF725FC607E8DF8DD00E069389046
:1029500020201A9068221FA96846FDF719FC0DF186
:102960006C0C9CE80F00FFF7ABFD20225C491BA814
:10297000FDF70EFC3622394623A8FDF709FC34F892
:10298000020CADF8C20020683190A088ADF8C800F4
:10299000E088ADF8CA001122314633A8FDF7F8FBF4
:1029A000607E8DF8DD00E0693890C5F307401A902D
:1029B00068221FA96846FDF7EBFB0DF16C0C9CE843
:1029C0000F00FFF77DFD202245491BA8FDF7E0FB26
:1029D0003622394623A8FDF7DBFB34F8020CADF8AC
:1029E000C20020683190A088ADF8C800E088ADF83A
:1029F000CA001122314633A8FDF7CAFB607E8DF86C
:102A0000DD00E0693890C5F307201A9068221FA9FD
:102A10006846FDF7BDFB0DF16C0C9CE80F00FFF75D
:102A20004FFD20222E491BA8FDF7B2FB3622394666
:102A300023A8FDF7ADFB34F8020CADF8C200206806
:102A40003190A088ADF8C800E088ADF8CA00112226
:102A5000314633A8FDF79CFB607E8DF8DD00E06910
:102A60003890E8B21A9068221FA96846FDF790FBDB
:102A70000DF16C0C9CE80F00FFF722FD2022184995
:102A80001BA8FDF785FB3622394623A8FDF780FBFE
:102A900034F8020CADF8C20020683190A088ADF87F
:102AA000C800E088ADF8CA001122314633A8FDF70E
:102AB0006FFB607E8DF8DD00E069389001201A9090
:102AC00068221FA96846FDF763FB1BAC94E80F0062
:102AD000FFF7CEFC39B0BDE8F04000F0B3B900001C
:102AE0004C0000202DE9F043B9B0202289491BA8F1
:102AF000FDF74EFB874936222031894623A8FDF792
:102B000047FB844CB4F85600ADF8C20054F8580F97
:102B10003190A088ADF8C800E088ADF8CA007D49C2
:102B200011226031884633A8FDF732FB607E8DF8B4
:102B3000DD00E069389000201A9068221FA96846DD
:102B4000FDF726FB1BAD95E80F00FFF791FC202257
:102B500070491BA8FDF71CFB3622494623A8FDF748
:102B600017FB34F8020CADF8C20020683190A08841
:102B7000ADF8C800E088ADF8CA001122414633A87C
:102B8000FDF706FB607E8DF8DD00E06938909F2040
:102B90001A9068221FA96846FDF7FAFA95E80F0017
:102BA000FFF78EFC20225B491BA8FDF7F1FA3622C5
:102BB000494623A8FDF7ECFA34F8020CADF8C20040
:102BC00020683190A088ADF8C800E088ADF8CA0050
:102BD0001122414633A8FDF7DBFA607E8DF8DD0057
:102BE000E0693890FF2568221FA968461A95FDF70D
:102BF000CFFA1BAE96E80F00FFF762FC07462022D3
:102C000044491BA8FDF7C4FA3622494623A8FDF71C
:102C1000BFFA34F8020CADF8C20020683190A088E9
:102C2000ADF8C800E088ADF8CA001122414633A8CB
:102C3000FDF7AEFA607E8DF8DD00E069389068221D
:102C40001FA968461A95FDF7A3FA96E80F00FFF74B
:102C500037FC064620222F491BA8FDF799FA362299
:102C6000494623A8FDF794FA34F8020CADF8C200E7
:102C700020683190A088ADF8C800E088ADF8CA009F
:102C80001122414633A8FDF783FA607E8DF8DD00FE
:102C9000E069389068221FA968461A95FDF778FA0E
:102CA0001BAD95E80F00FFF70BFC054620221949E4
:102CB0001BA8FDF76DFA3622494623A8FDF768FAEE
:102CC00034F8020CADF8C20020683190A088ADF84D
:102CD000C800E088ADF8CA001122414633A8FDF7CC
:102CE00057FA607E8DF8DD00E069389001201A9077
:102CF00068221FA96846FDF74BFA1BAC94E80F0049
:102D0000FFF7B6FB380440EA062139B041EA050076
:102D1000BDE8F0834C000020F0B5B9B0202248494E
:102D20001BA8FDF735FA4649362220310F4623A865
:102D3000FDF72EFA424C34F8560FADF8C200404D64
:102D40002D1F55F85C0F3190A888ADF8C800208978
:102D5000ADF8CA003A49112260310E4633A8FDF79A
:102D600017FAE07E8DF8DD00D4F81E0038900020C0
:102D70001A9068221FA96846FDF70AFA0DF16C0C3B
:102D80009CE80F00FFF774FB20222D491BA8FDF7DC
:102D9000FFF93622394623A8FDF7FAF92088ADF865
:102DA000C20028683190A888ADF8C8002089ADF825
:102DB000CA001122314633A8FDF7EAF9E07E8DF80A
:102DC000DD00D4F81E003890AB201A9068221FA9AD
:102DD0006846FDF7DDF90DF16C0C9CE80F00FFF77C
:102DE0006FFB202216491BA8FDF7D2F9362239467F
:102DF00023A8FDF7CDF92088ADF8C20028683190EE
:102E0000A888ADF8C8002089ADF8CA001122314663
:102E100033A8FDF7BDF9E07E8DF8DD00D4F81E0083
:102E2000389001201A9068221FA96846FDF7B0F972
:102E30001BAC94E80F00FFF71BFB39B0F0BD00009E
:102E40004C0000202DE9F04FB9B020227F491BA88B
:102E5000FDF79EF97D49362220318A4623A8FDF7E9
:102E600097F97A4C34F8560FADF8C200774D2D1F04
:102E7000E86D3190B5F86000ADF8C8002089ADF874
:102E8000CA0005F1640111228B4633A8FDF780F9D1
:102E9000E07E8DF8DD00D4F81E00389000201A90F6
:102EA00068221FA96846FDF773F91BAE96E80F006C
:102EB000FFF7DEFA2022291D1BA8FDF769F936224B
:102EC000514623A8FDF764F92088ADF8C200E86DEB
:102ED0003190B5F86000ADF8C8002089ADF8CA009F
:102EE0001122594633A8FDF753F9E07E8DF8DD0035
:102EF000D4F81E00389005201A9068221FA9684651
:102F0000563CFDF745F996E80F00FFF7D9FA4FF464
:102F10000050286028600DF18C090DF1CC08FF26C7
:102F20001FAF202249491BA8FDF732F9362251462E
:102F30004846FDF72DF9B4F85600ADF8C200E86D2B
:102F40003190B5F86000ADF8C800B4F85E00ADF897
:102F5000CA00112259464046FDF71AF994F871004B
:102F60008DF8DD00606F38906822394668461A9601
:102F7000FDF70EF90DF16C0C9CE80F00FFF7A0FABD
:102F800029684A1E2A6030D2202230491BA8FDF74A
:102F9000FFF83622514623A8FDF7FAF834F8560F09
:102FA000ADF8C200E86D3190B5F86000ADF8C8002A
:102FB0002089ADF8CA001122594633A8FDF7E8F878
:102FC000E07E8DF8DD00D4F81E00389004201A90C1
:102FD00068221FA96846FDF7DBF81BAE96E80F00D4
:102FE000FFF74EFA39B0BDE8F08FC00799D1202223
:102FF00016491BA8FDF7CCF83622514623A8FDF749
:10300000C7F834F8560FADF8C200E86D3190B5F846
:103010006000ADF8C8002089ADF8CA0011225946F9
:1030200033A8FDF7B5F8E07E8DF8DD00D4F81E007A
:10303000389001201A9068221FA96846FDF7A8F869
:103040001BAE96E80F00FFF713FACBE74C00002009
:10305000F0B5B9B0202248491BA8FDF799F84649B8
:10306000362220310F4623A8FDF792F8424C34F85F
:10307000560FADF8C200404D2D1F55F85C0F319032
:10308000A888ADF8C8002089ADF8CA003A491122D5
:1030900060310E4633A8FDF77BF8E07E8DF8DD0049
:1030A000D4F81E00389000201A9068221FA96846A4
:1030B000FDF76EF80DF16C0C9CE80F00FFF7D8F9E6
:1030C00020222D491BA8FDF763F83622394623A894
:1030D000FDF75EF82088ADF8C20028683190A88816
:1030E000ADF8C8002089ADF8CA001122314633A8D6
:1030F000FDF74EF8E07E8DF8DD00D4F81E00389024
:1031000006201A9068221FA96846FDF741F80DF1C4
:103110006C0C9CE80F00FFF7D3F9202216491BA87E
:10312000FDF736F83622394623A8FDF731F8208816
:10313000ADF8C20028683190A888ADF8C800208991
:10314000ADF8CA001122314633A8FDF721F8E07E20
:103150008DF8DD00D4F81E00389001201A90682206
:103160001FA96846FDF714F81BAC94E80F00FFF7A1
:103170007FF939B0F0BD00004C0000200FB4054BC2
:1031800010B503A9044A029800F002F910BC5DF8DA
:1031900014FB0000BD500008140000200FB4084BC1
:1031A00010B504A902AA039800F0F2F8044602A997
:1031B000002000F084FC204610BC5DF814FB0000E9
:1031C000BF3A00080907090E002804DB00F1E020DF
:1031D00080F80014704700F00F0000F1E02080F844
:1031E000141D704700487047E800002002E008C83E
:1031F000121F08C1002AFAD170477047002001E071
:1032000001C1121F002AFBD1704700002DE9FF5FAA
:1032100082B00021DDE90430020DDDF840B0034347
:1032200018D044F61050A2F2FF3242431514119800
:1032300001281FD0A5EB0B00401C5FEA000A4FF0ED
:1032400000064E4FDFF83891B046504615D5CAF10A
:10325000000413E0119801244AA3012801D16FEA68
:103260000B010298119AC0E90031C0E9024206B090
:10327000BDE8F09FCBF10000DFE704460021404AA3
:10328000491842EB0450CDE9001012E0E00707D0E6
:1032900032463B4640464946FDF78AF88046894615
:1032A00032463B4610461946FDF782F806460F4661
:1032B0006410002CEAD1DDE90401DDE90023BAF154
:1032C000000F06DAFDF774F842464B46FDF770F83A
:1032D00005E0FDF7F3F942464B46FDF7EFF90446EA
:1032E0000E460022284BFDF771FA03D84FF0FF304D
:1032F000014607E00022254B20463146FCF7B1FF8E
:10330000FDF74BFA102409E0002C0ADB0A22002307
:10331000FDF7D6F8039B30321A55641E50EA0102BD
:10332000F2D1641C039AC4F111031444119A012AC6
:1033300003D0012208430DD10AE0084304D0002045
:103340004FF0110B119072E7A3EB0B056D1E0DE012
:103350005B4504DD4FF0000205F1010504E003DAEE
:103360004FF00002A5F10105002AECD00298119956
:10337000C0E90231C0E9004579E7000000001440CF
:103380000000F03F300000000000F0430000E03F8C
:103390002DE9FF4F95B09B468946064600250FE272
:1033A000252877D100242746F84A0121059400E01A
:1033B000044316F8013F203B01FA03F01042F7D115
:1033C00030782A2811D06FF02F033078A0F1300226
:1033D000092A16D8059A44F0020402EB820203EB94
:1033E00042021044761C0590EFE759F8042B059231
:1033F000002A03DA504244F40054059044F00204D9
:10340000761C30782E2816D116F8010F44F00404EB
:103410002A280DD06FF02F023078A0F13003092B4D
:1034200009D807EB870302EB4303C718761CF3E7C1
:1034300059F8047B761C30786C280FD006DC4C28B9
:1034400017D068280DD06A2814D104E0742810D051
:103450007A280FD10DE044F400140AE044F48014FB
:1034600001E044F440147278824202D104F58014E1
:10347000761C761C307866280BD013DC582877D061
:1034800009DC002875D04528F6D04628F4D0472816
:103490001AD19DE118E0632835D0642879D06528D9
:1034A00012D195E1702873D008DC6728F1D0692823
:1034B0006FD06E280DD06F2806D1B5E073282CD0C0
:1034C000752875D0782874D05A46179990476D1C86
:1034D00075E1C4F30250022809D003280DD0D9F8B1
:1034E000001004280DD00D6009F1040967E1D9F836
:1034F0000010EA17C1E90052F6E7D9F800100D8074
:10350000F2E70D70F0E719F8041B8DF800100020A9
:103510008DF80100EA46012003E059F804AB4FF0B2
:10352000FF3061074FF0000102D40DE008F1010106
:103530008846B9420FDA8045F8DB1AF808100029EE
:10354000F4D108E008F1010188468142FADB1AF85B
:1035500008100029F6D105985B46A0EB0807214624
:103560003846179A00F094FA284400EB080507E063
:103570004DE029E10DE01AF8010B5A4617999047E2
:10358000B8F10108F7D25B4621463846179A13E195
:1035900042E00A220092C4F302524FF0000A022ACB
:1035A00008D059F804CB032A4FEAEC710AD00DE099
:1035B00029E02AE009F1070121F00702F2E802C13F
:1035C000914609E00FFA8CFC4FEAEC71042A03D112
:1035D0004FFA8CFC4FEAEC71002907DA0A46002109
:1035E000DCF1000C61EB02012D2202E0220504D582
:1035F0002B228DF80420012203E0E20701D02022D3
:10360000F7E7904659E00A2102E010220DE0102170
:103610004FF0000A00910BE010224FF0000A44F036
:1036200004040827009203E008224FF0000A0092E9
:10363000C4F30252022A05D059F804CB0021032A10
:1036400008D009E009F1070121F00702F2E802C100
:10365000914605E01FFA8CFC042A01D10CF0FF0C06
:103660004FF00008220728D5702806D0009B83F071
:10367000100353EA0A0305D00EE040228DF804201F
:10368000012208E05CEA010206D030228DF8042015
:103690008DF8050002229046009B83F0080353EA50
:1036A0000A030AD15CEA010201D1620705D5302282
:1036B0008DF804204FF001087F1E582804D034A054
:1036C00003900EA802900DE036A0F9E7534660463D
:1036D000009AFCF7F5FE84460398825C0298401E2F
:1036E000029002705CEA0100F0D1029806A9081A63
:1036F00000F1200A600702D524F4803400E001279D
:10370000574502DDA7EB0A0000E0002000EB0A01AC
:10371000009005984144401A0590E00306D45B46AA
:103720002146179A059800F0B3F90544002706E0F2
:1037300001A85A46C05D179990476D1C7F1C4745EC
:10374000F6DBE0030CD55B462146179A059800F09E
:103750009FF9054404E030205A46179990476D1CA4
:103760000099481E00900029F5DC08E002980299B3
:103770005A460078491C0291179990476D1CBAF17E
:103780000001AAF1010AF1DC65E10000092801004D
:1037900030313233343536373839616263646566C7
:1037A0000000000030313233343536373839414289
:1037B000434445460000000000F058F90544761CDB
:1037C000307800287FF4ECAD19B02846BDE8F08FC2
:1037D000620700D4062709F1070222F0070CFCE873
:1037E0000223E14603F000485FEA080C02D00FF222
:1037F000702C0DE05FEA045C02D50FF2682C07E044
:103800005FEAC47C02D00FF2602C01E0AFF2700CD2
:103810004FF0FF3823F00043CDF850C065280CD09E
:1038200006DC452809D046281DD047283DD13DE07B
:10383000662818D067287ED138E00021112F01DBDF
:10384000112000E0781CCDE9000106A90EA8FFF7C1
:10385000DDFCDDE90F010E9A03910021009207F1D2
:10386000010A04914DE04FF000400097CDE90110AE
:1038700006A90EA8FFF7CAFCDDE90F0203920E9B12
:1038800011990022DDF80CA00093049211B9791C63
:1038900000EB010AB7EB0A0004D4C0F1FF3007F1D6
:1038A000010A0490AAEB0700019044E0012F00DA1E
:1038B00001270021112F01DD112000E03846CDE95C
:1038C000000106A90EA8FFF7A1FCDDE90F010E9A81
:1038D0000391002104910092BA4621070CD4039968
:1038E000514500DA8A46BAF1010F05DD009AAAF1C6
:1038F0000101515C302908D0B84202DA10F1040FFE
:1039000006DA0121CDE9011015E0AAF10101E9E78C
:10391000002805DC049901440491AAEB000102E0AF
:10392000411C514500DD8A460499401A401C019013
:103930004FF000400290200704D40198504501DB6D
:10394000CDF8048000208DF84F0002980DF14F074C
:10395000B0F1004F25D02B200E9002984FF00208B6
:1039600000280CDA404202902D200E9007E00A2138
:103970000298FCF78FFD3031029007F8011DB8F175
:103980000001A8F10108F2DC02980028EFD1791EAD
:103990000E980870307800F0200040F0450007F8DD
:1039A000020D12A8C01B00F107081498007800B19E
:1039B000012000EB0A01019801EBE07105984144F8
:1039C000401A401E0590E00306D45B462146179A34
:1039D000059800F05DF805441498007818B15A462F
:1039E000179990476D1CE00324D55B462146179A32
:1039F000059800F04DF805441CE00498002807DB0A
:103A0000DDE90301884203DD0098405C179901E07D
:103A1000179930205A469047049805F10105401C3B
:103A200004900198401E019004D12E205A46179907
:103A300090476D1CBAF10001AAF1010ADDDC05E036
:103A400017F8010B5A46179990476D1CB8F1000101
:103A5000A8F10108F4DC5B462146179A0598ABE60D
:103A60002D0000002B000000200000002DE9F04197
:103A7000044600251E461746880404D405E039464E
:103A80002020B0476D1C641EF9D52846BDE8F081A2
:103A90002DE9F041044600251E469046C80301D595
:103AA000302700E02027880404D505E04146384649
:103AB000B0476D1C641EF9D52846BDE8F0810A6840
:103AC000531C0B601070704710B504460020207125
:103AD000401EE062204601F083FC08B1032010BDC7
:103AE000B4F82E02A0F52A41553901D0022010BDAC
:103AF00094F86600B4F8671040EA01210848B0EB7A
:103B0000012F08D094F88210B4F8832041EA0221F2
:103B1000B0EB012F01D1002010BD012010BD00002D
:103B20000046415400E0401C02780AB18A42FAD1B2
:103B3000D0B270474269891E921E8A4201D8002085
:103B40007047826A807801FB002070472DE9F05FA2
:103B50008246488B0E4670BB3078DFF8649000F0E8
:103B60003F00401E00EB800101EBC0040120002556
:103B70004FF6FF7B19F8051031440988884670B16B
:103B8000FF2C18D2084601F00DF907463AF8140048
:103B9000641C01F007F987420DD1404601E0D84589
:103BA00009D16D1C0D2DE5D33178490606D528B114
:103BB0003AF8140010B10020BDE8F09F0120FBE7A7
:103BC000400803082DE9F0410F00054606D001F03A
:103BD000C7FA022809D20120BDE8F081EE6816B1CB
:103BE0006869B04207D8012605E0411CF4D0696934
:103BF0008142F1D83E4634466869641CA04202D82E
:103C00000224022E0AD32146284601F0A9FA38B12F
:103C1000411CE1D00128DFD0B442EDD10020DBE728
:103C20006FF070422146284601F00CFC30B957B1C4
:103C300022463946284601F005FC20B101280DD066
:103C400001242046C8E7EC602869411CF9D0401ED9
:103C50002861687940F001006871F2E74FF0FF34A5
:103C6000EFE700002DE9F84F884682460F6800E034
:103C70007F1C38782F28FBD05C28F9D00024DAF894
:103C80001C602546785D6D1C202827D32F2825D061
:103C90005C2823D0FF2C42D2A0F181017D290BD8D2
:103CA000795D6D1C01EB0020A1F1400280B23F2A3A
:103CB00002D380397F2932D2012101F04DF85FEA29
:103CC00000092CD0B9F1800F04D2014671A0FFF792
:103CD00029FF20BB26F81490641CD3E77A19C8F892
:103CE0000020202801D2042517E0002515E000BFA0
:103CF00006EB440030F8020C20280DD02E280BD003
:103D00006CB1002026F814000B222021DAF81800EC
:103D100001F05FFB002706E0641E002CE8D10620BE
:103D2000BDE8F88F7F1C36F817002028FAD02E281F
:103D3000F8D01FB145F0030500E0641E2CB106EB7E
:103D4000440030F8020C2E28F7D1002081464FF0B5
:103D5000080B009036F8170007F101075FEA00082A
:103D600024D0B8F1200F04D0B8F12E0F04D1A7420F
:103D700002D045F00305EDE70099594501D2A7426D
:103D80001AD1BBF10B0F0FD0A74201D045F00305AC
:103D90000CD84FF0080000904FEA896027464FF09A
:103DA0000B0B4FEA1069D5E745F00305DAF8180068
:103DB0000178E52949D04AE04046B8F1800F07D3A1
:103DC00000F0F0FF002100F0C7FF804645F002053B
:103DD000B8F1FF0F13D90099ABF10100814204D370
:103DE00045F00305CDF800B0B4E7DAF818200098E4
:103DF0004FEA182111540098401C00901CE0B8F1C3
:103E0000000F04D0014626A0FFF78CFE20B14FF032
:103E10005F0845F003050FE0A8F14100192802D81A
:103E200049F0020908E0A8F16100192804D84130DE
:103E300049F001091FFA80F8DAF81820009902F811
:103E400001800098401C009084E705210170BBF1BF
:103E5000080F03D14FEA89604FEA1069C9F3810066
:103E6000032803D06FEA0901890701D145F0020553
:103E7000A90709D409F00301012901D145F0100572
:103E8000012801D145F00805DAF81800C5720020B4
:103E900046E70000222A3A3C3E3F7C7F00000000BB
:103EA0002B2C3B3D5B5D000030B504464FF47A752A
:103EB00002E02846FCF720FD641EA4B2F9D230BD12
:103EC0002DE9F0470646002100F0AEF9002857D151
:103ED000FF244FF6FF78A146A6F8208031693068AC
:103EE00001F07EFA07004AD17569287848B1E97A6D
:103EF000E52801F03F0139D00A0704D50F2935D153
:103F000005E004273BE00F2901D0D4B11EE0F2699F
:103F10007AB3410606D595F80D9020F04000F1885F
:103F200004463184A04209D1697B494506D129461E
:103F30001046FFF70BFE08B1641E00E0FF24E4B258
:103F400017E0284601F071FB484518D0B069C17AE6
:103F5000C9070BD10A2101E0491E06D315F8012B30
:103F600010F8013BD21AF7D000E042B1FF24A6F8C6
:103F700020800021304600F005F80700AED038461A
:103F8000BDE8F0872DE9F041C6880446761C300470
:103F90000F46000C33D0216989B320684289520949
:103FA000B6FBF2F302FB1362002A59D1491C2161CE
:103FB000E16809B3428983785209B6FBF2F25B1ECD
:103FC0001A424DD101F0CCF8054601281CD9681CD5
:103FD00032D020684169A9423CD887B1E168FFF737
:103FE000F1FD05000ED0012D0ED0681C24D02068F4
:103FF00001F080FB00BB09E00089B04230D804200A
:10400000BDE8F0810720FBE70220F9E720680021E6
:104010004289303001F0DDF929462068FFF78AFD3A
:10402000216800274FF00108C8620CE080F8048086
:10403000206801F05FFB08B10120E1E72068C16A58
:10404000491C7F1CC16220688178B942EED8C16AE0
:10405000C91BC162E56029462068FFF76BFD20613E
:10406000E680206841894909B6FBF1F201FB126143
:10407000302202EB4111084460610020C0E70000DB
:104080002DE9FF5F04460C22D4E9067639466846DE
:1040900001F096F99DF80B00C00718D00020F872C7
:1040A0000125E0612B4632466946384601F012F898
:1040B0002046FFF705FF10B96D1C642DF2D3642D67
:1040C0000BD004280AD19DF80B00F872E6619DF828
:1040D0000B0080070FD5002004E0072004B0BDE8E6
:1040E000F09F401C36F810100029FAD10D2119302C
:1040F000B0FBF1F600E001260021204600F094F824
:1041000088B900272169206801F06AF958B9606907
:104110000078E5280AD048B1002701212046FFF7A2
:1041200031FF0028EED0042811D011E07F1C30466A
:10413000B742F2D1461E5FEA060A57D0E188204610
:10414000A1EB0A0100F070F8050003D067E007203A
:10415000054664E0A06901F068FA039021692068CF
:1041600001F03EF905005AD16169D4F81C9003981A
:1041700048730F20C8720020087388760AF0FF0B7E
:10418000C876ABF1010000EB800202EBC005002312
:104190004FF6FF7E234E4A1C01E0604503D039F8FC
:1041A0001500F4466D1CF75CC85516F80380070A25
:1041B00008F8027000B960465B1C0D2BEDD370450A
:1041C00002D039F8150008B94BF0400B81F800B067
:1041D00021680120087100212046FFF7D3FE050069
:1041E0001DD1AAF101005FEA000AB7D12169206858
:1041F00001F0F6F8050012D120220021606901F0DB
:10420000E8F8D4E905010B2201F0DAF8A069616948
:10421000C07A00F018000873216801200871284650
:104220005CE700004008030870B5C18083680D4654
:104230000446012B3ED02068416999423AD923B9FE
:104240000178032906D1436A23B1418980784E0958
:10425000464311E00189A9422CD9406A12E000BF0F
:1042600000F07EFF0346401C22D0022B22D32068A0
:10427000406998421ED9AD1B2068B5421946EFD25D
:10428000FFF758FCE360A8B121684A895209B5FBE1
:10429000F2F21044206148894009B5FBF0F200FBBE
:1042A0001250302202EB401008446061002070BDC3
:1042B000012070BD022070BD10B50100B8B04FF0F4
:1042C00001003DD001293BD120221E491AA8FBF74D
:1042D0005FFF1C493622203122A8FBF759FF194CF9
:1042E000B4F85600ADF8BE0054F8580F3090A088CE
:1042F000ADF8C400E088ADF8C60012491122603163
:1043000032A8FBF745FF607E8DF8D900E069379051
:1043100068221EA96846FBF73BFF1AAC94E80F0021
:10432000FDF7F1FE4FF4FA70401E0004000CFBD1C3
:10433000FEF7F2FC38B00120BDE8104000F066B88E
:1043400038B010BD4C00002003004FF0040012D024
:10435000012B10D1012904D0022905D0032909D14C
:1043600006E040F2FE5004E04FF48050108001E07F
:104370000120106000207047F0B50E460100BBB070
:104380001D464FF004003DD001293BD117462022A5
:104390001D491DA8FBF7FCFE1B493622203125A82C
:1043A000FBF7F6FE184CB4F85600ADF8CA0054F806
:1043B000580F3390A088ADF8D000E088ADF8D20057
:1043C00011491122603135A8FBF7E2FE607E8DF8BD
:1043D000E500E0693A90380340F2022100EB013039
:1043E0004FF6FF7101EA05311A96CDE91B106822DC
:1043F00021A96846FBF7CCFE1DAC94E80F00FDF741
:1044000078FB00203BB0F0BD4C00002010B501242B
:1044100038B1012805D1FEF765FB0349884200D178
:104420000024204610BD00001740EF00F0B50F46F5
:104430000146BBB01E004FF0040043D000293FD01E
:1044400001293DD1100340F2022100EB013528463D
:10445000FEF724FA20221C491DA8FBF799FE1A49F1
:104460003622203125A8FBF793FE174CB4F85600EE
:10447000ADF8CA0054F8580F3390A088ADF8D000BA
:10448000E088ADF8D20010491122603135A8FBF761
:104490007FFE607E8DF8E500E0693A904FF6FF7090
:1044A00000EA06301A97CDE91B05682221A9684663
:1044B000FBF76EFE1DAC94E80F00FDF77DFC0020BD
:1044C0003BB0F0BD0420FBE74C00002010B50446D3
:1044D00000F023FB002806D1204601F034F9002823
:1044E00001D10021216010BD2DE9F0470D460446A1
:1044F00001F029F95FEA00087CD1E079002879D140
:10450000E068A84203D2A179890700D405460027B4
:10451000A0684FF00109A76015B322684FF0020AA6
:10452000967851894E4368B1691E401EB1FBF6F181
:10453000B0FBF6F3994205D3711E8843A0602D1A93
:1045400061690CE0216949B900211046FFF73AFB87
:10455000014601284BD0481C5AD021616161D1B974
:104560002DE0A0798007206805D5FFF72BFB01001F
:1045700004D1354611E000F0F3FD0146481C47D058
:10458000012934D920684069884230D96161A06826
:10459000AD1B3044A060B542E3D8A0682844A060B9
:1045A00020684289B5FBF2F302FB13523AB1FFF7E0
:1045B000C1FAE0B121684989B5FBF1F10F18206813
:1045C000A1684289B1FBF2F302FB131129B3A2697E
:1045D000BA4222D0A1794B0604F124010D460FD531
:1045E00040780123FFF722FF90B905E002E084F84C
:1045F00007A00220BDE8F087A07920F04000A0715C
:10460000206801233A4640782946FFF7B5FE18B1E5
:1046100084F807900120EDE7A761D4E90201884200
:1046200004D9E060A07940F02000A0714046E1E7A5
:1046300017B581B0144602980090684600F065FEF8
:10464000002802DA0B2004B010BD0B4A002352F8F8
:10465000201001B10B700199002900D00B7042F8B5
:10466000201001D0012C01D00020ECE7002202A98B
:1046700001A800F0BFFBE6E7C80000202DE9F747DE
:10468000ADF5137D06000ED04FF0000802F01F07B5
:1046900027F0010294A905A8C6F8008000F0AAFB43
:1046A000050005D08CE009200DF5167DBDE8F087EA
:1046B0008FA80B900FA80C9005A8949900F0CAFC45
:1046C0000A9C050001D104B9062517F01C0F50D033
:1046D00055B1042D03D105A8FFF7D2FC05460A9C6D
:1046E00047F0080755B16BE0E07A10F0110F01D0E8
:1046F000072565E0780701D5082561E0380746D52C
:1047000000F0A2FDA073010AE173020C2274030EF3
:104710006374A075E1752276637684F80B8084F863
:104720001C8084F81D8084F81E8084F81F80214638
:10473000059800F031FE81460021204600F06DFF13
:1047400005990120B9F1000F08711ED0059849465E
:10475000D0F82CA000F030FF050031D10599A9F167
:104760000100C8605146059800F03AFE05000AD0E5
:1047700026E02DBBE07AC10601D5042520E0B9076B
:1047800001D5C007B4D1380701D547F020070598F7
:104790002146C06AC6E90704B77186F80780474614
:1047A000059800F0F9FD3061207FD4F81D1040EA33
:1047B0000120C6E90270B76105983060C088B080FA
:1047C000284671E70FB42DE9F0479AB00DF1900932
:1047D0000290002003900DF154080490239810F8E3
:1047E000011B2390002976D0252903D002A800F0D0
:1047F000B9FEF3E7002510F8011B2E46239030295F
:1048000002D02D2902D010E0012500E0022510F889
:10481000011B239009E000BF06EB860001EB400678
:104820002398303E10F8011B2390A1F13000092895
:10483000F2D96C2901D04C2905D1239845F0040503
:1048400010F8011B2390002945D0A1F161000A4610
:10485000192801D8203AD2B24F2A42D006DC422A87
:104860003DD0432A38D0442AC0D13CE0532A0DD051
:10487000552A38D0582AB9D11023680701D4442AC0
:1048800033D059F8040B442A31D035E059F8047B71
:10489000002400E0641C385D0028FBD1A80704D583
:1048A0000CE0202102A800F05DFE2046641CB0420E
:1048B000F7D303E002A87F1C00F054FE39780029EA
:1048C000F8D103E0202102A800F04CFE2046641C31
:1048D000B04283D2F6E753E019F8041B86E70223BF
:1048E000CBE70823C9E70A23C7E759F8040B0028D8
:1048F00002DA404245F0080500244746B0FBF3F2D7
:1049000003FB1202B0FBF3F0D2B2092A05D97829D1
:1049100014D04FF0070C6244D2B230323A55641CC6
:1049200008B1102CEAD3280703D52D2008F804007D
:10493000641C2746E80704D0302003E04FF0270C22
:10494000E9E72020824603E0514602A800F00AFE73
:10495000A80703D438467F1CB042F5D34546641EF1
:1049600002A8295D00F0FEFD002CF8D103E05146BD
:1049700002A800F0F7FD38467F1CB042A9D2F6E746
:104980000398002810DB024601AB05A9029800F04D
:1049900010F948B901990398884205D104981AB0D2
:1049A000BDE8F0075DF814FB4FF0FF30F7E72DE9A5
:1049B000F04F044689B00020186099461546884695
:1049C000204600F0C0FE002812D1E07900280FD167
:1049D000A079C0070BD0D4E90210401A01274FF08C
:1049E000020A04F1240B854200D9054690E0072015
:1049F00009B0BDE8F08F2068A1684389B1FBF3F2EC
:104A000003FB1212002A64D1B1FBF3F283785B1E20
:104A10001A4012F0FF0608D111B3616900F0A0FB43
:104A200002281FD3411C4FD0606161692068FFF7E5
:104A300081F8B8B13044009020684189B5FBF1F1AC
:104A4000049141B3721881788A4201D9891B04917B
:104A500040784146049B009AFFF78EFCA0BB05E01E
:104A60002069DDE784F807A00220C1E7A0794006AD
:104A70000CD5A1690098081A0499884206D22168C9
:104A80004A89594600FB028000F09AFC206846895A
:104A90000498464332E0A26900998A4217D0A1796E
:104AA000490609D5407801235946FFF7BFFC58B99C
:104AB000A07920F04000A071206801235946407879
:104AC000009AFFF759FC10B1E771012090E70098B8
:104AD000A0612068A2684089B2FBF0F100FB1121BF
:104AE000461AAE4200D92E46B2FBF0F100FB11206F
:104AF000011932464046243100F062FCA068B044FF
:104B00003044A060D9F800008119AD1BC9F800102D
:104B1000002D7FF470AF00206AE770B5044600F006
:104B200012FE00280ED1A1798A060BD548060ED5B3
:104B30002068012304F124014078A269FFF776FC84
:104B400008B1012070BDA07920F04000A071E1699A
:104B5000206800F045FC0028F4D1256AE87A40F08E
:104B60002000E872207B2877A089000A6877E06837
:104B7000000CA877E068000EE8772846216900F06D
:104B80004CFD00F061FBA875010AE975010C29765E
:104B9000000E68760020A874E874A07920F0200048
:104BA000A0712168012008712068BDE8704000F004
:104BB00049BD2DE9F04F884689B000219946164637
:104BC0000446196000F0BFFD002806D1E0790028F6
:104BD00003D1A079800703D4072009B0BDE8F08F86
:104BE000A16801278A194FF0020A04F1240B8A42B6
:104BF00069D3A2E02268A0685189B0FBF1F301FB00
:104C00001303002B76D1B0FBF1F193785B1E1940B2
:104C100011F0FF0512D108B1616902E0206928B9DD
:104C200000211046FEF7CEFF00284CD001282FD0DF
:104C3000411C59D06061216901B92061A079400609
:104C40000BD52068012359464078A269FFF7EEFB97
:104C5000C0BBA07920F04000A07161692068FEF718
:104C600069FFA8B12844009021684889B6FBF0F09C
:104C7000049048B32A188878824201D9401B0490D6
:104C800048784146049B009AFFF7D0FBD0B903E077
:104C900084F807A00220A0E7A1690098081A0499E7
:104CA00088420AD221684A8900FB0281584600F0F6
:104CB00087FBA07920F04000A07120684589049806
:104CC000454330E010E03BE0FFE7A26900988242F4
:104CD0000ED0D4E9020290420AD248780123594604
:104CE000009AFFF749FB18B1E771012075E701E071
:104CF0000098A0612068A1684089B1FBF0F200FB38
:104D00001212851AB54200D93546B1FBF0F200FB0C
:104D1000121020442A464146243000F051FBA0796D
:104D200040F04000A071A068A8442844A060D9F8D1
:104D30000000761B2844C9F80000002E7FF45AAF0B
:104D4000D4E90201884200D9E060A07940F0200057
:104D5000A071002041E7000070B580281BD345F208
:104D6000205309B10D4D00E00D4D002110245A1AB9
:104D700002EBD27201EB620235F82260864206D065
:104D800001D2114600E01346641EF0D104E01CB1CC
:104D900005EB8200408870BD002070BD04AC0108A6
:104DA0008057000870B5802806D2A0F1610119294A
:104DB00001D8203880B270BD0C240C4D00224FF475
:104DC000F773991A02EB510135F81160864206D04B
:104DD00001D20A4600E00B46641EF2D170BD002CE1
:104DE000FCD0034830F8110070BD000088000308B3
:104DF000640403082DE9FF474FF0000A0746C0F896
:104E000000A01646084600F080FA050003D50B20E6
:104E100004B0BDE8F0878C4850F825408CB13C6068
:104E2000207820B16078FFF7F1FAC1070BD084F841
:104E300000A0E8B26070FFF73FFAC10708D0032076
:104E4000E6E70C20E4E70EB1400704D40020DFE7DA
:104E50001EB1400701D50A20DAE7607804F10A02A2
:104E60000221FFF771FAA0BB6089B0F5007F31D352
:104E7000B0F5805F2ED8002529462046FEF724FE97
:104E8000012822D100206F4604EB001191F8F22195
:104E900001F5F7712AB10A7AD1F8091042EA012125
:104EA00000E0002147F82010401C0428ECD3002625
:104EB00057F826502DB129462046FEF705FE08B9C1
:104EC0000AE00220761C042EF2D3032802D0E8BBAD
:104ED00002E0FFE701209BE7B4F83B00B4F80AC00A
:104EE000604560D1B4F8460028B994F85400D4F86D
:104EF000551040EA0120A06194F840108146E1700D
:104F0000012901D002294ED1414394F83D00A070FF
:104F1000E0B1421E104246D1B4F841204FEA5C1382
:104F2000B2FBF3F603FB162622817EB9B4F8436088
:104F30002EB994F85060D4F8517046EA0726E78FEE
:104F400027B1B2FBF3F307EB010800E02BE0434489
:104F50009E4228D3F61AB6FBF0F020B3012640F6A5
:104F6000F678404500D302264FF6F678404500D348
:104F70000326801C2B44A3622F446061C4E90757B9
:104F8000032E12D07AB139446162022E18D000F09B
:104F9000010100EB400001EB5000401E6044B0FBFB
:104FA000FCF149450ED90D2032E7002AFBD194F8D7
:104FB0005C10D4F85D20800041EA02216162ECE7D8
:104FC0004000EAE74FF0FF302061E0608020607130
:104FD000032E30D1B4F8600001282CD12046691C82
:104FE00000F0FEF938BB84F805A0B4F82E02A0F555
:104FF0002A4155391FD194F83000D4F8311040EAD5
:1050000001201249884216D194F81402D4F81512DE
:1050100040EA01200E4988420DD194F81802D4F8D4
:10502000191240EA0120206194F81C02D4F81D12E4
:1050300040EA0120E06004492670091F0888401CEE
:105040000880E08002E70000C80000205252614161
:105050007272416173B50446019801782F2901D01D
:105060005C2901D1401C01900025A56001980078C1
:10507000202805D200212046FFF7D6F865617CBDC7
:1050800001A92046FEF7EEFD0028F8D12046FEF7E4
:1050900017FFA169C97A28B10428F0D14907EED4D5
:1050A00005207CBD4907FCD46169C87AC006F7D5E4
:1050B000206800F071F9A060E2E7000004490A6886
:1050C0005206FCD5024AC1B2121D116070470000A1
:1050D000003801407CB516461C4605460B2200F000
:1050E0006FF9052C11D91D4A0CE00021B61C23468E
:1050F000044663F35F044008E30300D55440491CB1
:105100001029F4D330880028EFD107214FEA0D038E
:1051100004F00F003030392800D9C01D5854491E02
:105120002409F5D17E20002258544C1E06E0813817
:105130007D2802D8A24206D0521C521C8A4202D2BA
:10514000A85C2028F3D1082902D2585C491C00E051
:105150002020A854521C082AF5D37CBD2110010040
:105160002DE9F0410D46044602290BD36069A8429F
:1051700008D920784FF0FF36012807D0022834D014
:10518000032846D001263046BDE8F081608905EB52
:105190005507B7FBF0F0216A0144204600F020F9E2
:1051A0000028F0D16089B7FBF0F100FB11717F1C82
:1051B000B7FBF0F0214491F83080216A0144204689
:1051C00000F00EF90028DED16089B7FBF0F100FB9A
:1051D0001170204490F8301048EA0120E90701D00E
:1051E0000609D0E7C0F30B06CDE76089216A4008C5
:1051F000B5FBF0F00144204600F0F2F80028C2D1DF
:1052000061896800B0FBF1F201FB12002044068EB8
:10521000B9E76089216A8008B5FBF0F001442046B7
:1052200000F0DEF80028AED16189A800B0FBF1F2F1
:1052300001FB1200204490F83010D0F8310041EA10
:10524000002020F070469EE700487047000021468D
:105250002DE9F05FADF5825D88469146014603AECB
:10526000002501223046FFF709FA002849D13046CF
:105270000699FFF739F904001ED030463EE0411E82
:105280003046FFF731F90400F7D13B460122514681
:105290003046FFF78CFB0400EFD100980028ECD0DB
:1052A0009DF808000A280DD005993046491EFFF7E1
:1052B0001BF9040003D0E0E70DF1080A6F460598DA
:1052C0000028DCD1B2460DF1040BA9F10106B5426C
:1052D00010D23B46012259465046FFF768FB0400B6
:1052E00008D1009830B101980A2803D008F80500C9
:1052F0006D1CECE7002108F805105046FFF7E6F8B2
:1053000020460DF5825DBDE8F09F10B504464FF0D4
:10531000FF302268002A13D0114600E0491C0B78A8
:10532000202B0ED33A2BF9D112F8013B303B0A2B3C
:1053300006D28A4204D1022B02D2491C18462160AF
:1053400010BD002010BD70B50C46054600F00EF8EB
:10535000002807D00A2200212846FAF73DFFA04284
:1053600001D3012070BD002070BD000070B50500A4
:105370000AD0287840B1002409E000BFFAF704FF02
:105380000068805D202801D0002070BD641C2E5D67
:10539000002EF3D1012070BD0246488B1278032AFB
:1053A00002D1898A40EA01407047FBF729FEFDF7E8
:1053B00026F9FCF723FBFCF76DFBFBF77FFAFEE712
:1053C00004E000BF11F8013B00F8013B521EF9D286
:1053D0007047C9B201E000F8011B521EFBD27047B2
:1053E00070B50446C06A0D460026A8420FD020467C
:1053F00000F080F906000AD1607801232A4604F102
:105400003001FEF7B9FF08B1751E0126E56230468E
:1054100070BD00001FB507A30FCB8DE80F00FBF791
:1054200013FB6846FBF750FBFBF7B0FAFBF77CFA7F
:10543000FEE70000313A2F6D795F696E6465782E62
:10544000637376002DE9F04717460D46044602299E
:1054500002D36069A84202D80220BDE8F087217813
:1054600007F0FF084FF00109012925D002295FD07C
:105470000329F1D16089216A8008B5FBF0F001446D
:105480002046FFF7ADFF0028E7D16289A900B1FBF4
:10549000F2F302FB13110A194FF07043D2F83110E6
:1054A00003EA0121394302F8301F0B0A53700B0C39
:1054B0009370090ED17052E0608905EB5506B6FB7A
:1054C000F0F0216A01442046FFF78AFF0028C4D18A
:1054D0006089B6FBF0F100FB116020443030761C8F
:1054E000E90703D0017868F31F1100E03946017025
:1054F00084F804906089216AB6FBF0F001442046EC
:10550000FFF76EFF0028A8D16189B6FBF1F201FB1D
:10551000126121443031EA0702D0C7F3071205E0D7
:105520000A78C7F3032302F0F0021A430A7016E068
:105530006089216A4008B5FBF0F001442046FFF77E
:105540004FFF002889D162896900B1FBF2F302FBA9
:10555000131121443A0A81F8308081F8312084F80F
:1055600004907AE738B545680446002D16DB6019CB
:105570006D1C01733D2D0DDB6B462A4604F10C01B9
:105580002068FFF716FB0098A84201D1002501E032
:105590004FF0FF356560A068401CA06038BD00007A
:1055A000034900204880C8210248FAF70ABE0000DB
:1055B000100000202C0100202DE9F0410F46064686
:1055C000022916D37069B84213D900251FE0394665
:1055D0003046FFF7C5FD04001CD0012C09D0601C2B
:1055E00009D0002239463046FFF72CFF050011D1C3
:1055F00003E002250EE001250CE03069411C05D0D6
:10560000401C3061707940F001007071274670696C
:10561000B842DCD82846BDE8F08181760A0AC27615
:105620000A0C0275090E41757047014600200B22D5
:10563000430803EBC01011F8013B521E1844C0B2DE
:10564000F6D1704770B5044600F054F805004FD10C
:105650002078032845D16079012842D104F1300037
:10566000628900210646FFF7B4FE552084F82E0219
:10567000AA2084F82F02522084F8300084F83100E8
:10568000612084F83200412184F83310722284F8BA
:10569000142284F8152284F8161284F8170220695F
:1056A00084F81802010A84F81912010C84F81A12FD
:1056B000000E84F81B02E06884F81C02010A84F8DA
:1056C0001D12010C84F81E12000E84F81F02E269FC
:1056D0000123521CE26260783146FEF7A7FE0020EB
:1056E0006071002260781146FEF72EFE00B10125A0
:1056F000284670BD2DE9F041044600790027F8B135
:10570000E56A04F13001607801232A468846FEF7F5
:105710008DFE08B1012713E000202071206AA169E5
:10572000281A88420CD2E67808E0A06901230544D3
:1057300060782A464146FEF779FE761E022EF4D2A4
:105740003846BDE8F08110B560B1016851B10A7802
:1057500042B1CA888088824204D14878FEF756FE5A
:10576000C00700D0092010BD0000000000000000AC
:1057700001020304060708090000000001020304F7
:10578000A400E8A1A700ECA1A800A7A1B000E3A194
:10579000B100C0A1B700A4A1D700C1A1E000A4A896
:1057A000E100A2A8E800A8A8E900A6A8EA00BAA813
:1057B000EC00ACA8ED00AAA8F200B0A8F300AEA8D7
:1057C000F700C2A1F900B4A8FA00B2A8FC00B9A879
:1057D0000101A1A81301A5A81B01A7A82B01A9A835
:1057E0004401BDA84801BEA84D01ADA86B01B1A8F8
:1057F000CE01A3A8D001ABA8D201AFA8D401B3A811
:10580000D601B5A8D801B6A8DA01B7A8DC01B8A8B6
:105810005102BBA86102C0A8C702A6A1C902A5A1E6
:10582000CA0240A8CB0241A8D90242A89103A1A66E
:105830009203A2A69303A3A69403A4A69503A5A6E8
:105840009603A6A69703A7A69803A8A69903A9A6B8
:105850009A03AAA69B03ABA69C03ACA69D03ADA688
:105860009E03AEA69F03AFA6A003B0A6A103B1A658
:10587000A303B2A6A403B3A6A503B4A6A603B5A624
:10588000A703B6A6A803B7A6A903B8A6B103C1A6E5
:10589000B203C2A6B303C3A6B403C4A6B503C5A688
:1058A000B603C6A6B703C7A6B803C8A6B903C9A658
:1058B000BA03CAA6BB03CBA6BC03CCA6BD03CDA628
:1058C000BE03CEA6BF03CFA6C003D0A6C103D1A6F8
:1058D000C303D2A6C403D3A6C503D4A6C603D5A6C4
:1058E000C703D6A6C803D7A6C903D8A60104A7A78D
:1058F0001004A1A71104A2A71204A3A71304A4A72C
:105900001404A5A71504A6A71604A8A71704A9A7F9
:105910001804AAA71904ABA71A04ACA71B04ADA7C7
:105920001C04AEA71D04AFA71E04B0A71F04B1A797
:105930002004B2A72104B3A72204B4A72304B5A767
:105940002404B6A72504B7A72604B8A72704B9A737
:105950002804BAA72904BBA72A04BCA72B04BDA707
:105960002C04BEA72D04BFA72E04C0A72F04C1A7D7
:105970003004D1A73104D2A73204D3A73304D4A76B
:105980003404D5A73504D6A73604D8A73704D9A739
:105990003804DAA73904DBA73A04DCA73B04DDA707
:1059A0003C04DEA73D04DFA73E04E0A73F04E1A7D7
:1059B0004004E2A74104E3A74204E4A74304E5A7A7
:1059C0004404E6A74504E7A74604E8A74704E9A777
:1059D0004804EAA74904EBA74A04ECA74B04EDA747
:1059E0004C04EEA74D04EFA74E04F0A74F04F1A717
:1059F0005104D7A710205CA9132043A81420AAA102
:105A0000152044A81620ACA11820AEA11920AFA1E2
:105A10001C20B0A11D20B1A1252045A82620ADA1A4
:105A20003020EBA13220E4A13320E5A1352046A8A7
:105A30003B20F9A1AC2080000321E6A1052147A865
:105A4000092148A81621EDA1212159A96021F1A21F
:105A50006121F2A26221F3A26321F4A26421F5A2E2
:105A60006521F6A26621F7A26721F8A26821F9A2B2
:105A70006921FAA26A21FBA26B21FCA27021A1A2DA
:105A80007121A2A27221A3A27321A4A27421A5A2B2
:105A90007521A6A27621A7A27721A8A27821A9A282
:105AA0007921AAA29021FBA19121FCA19221FAA126
:105AB0009321FDA1962149A897214AA898214BA896
:105AC00099214CA80822CAA10F22C7A11122C6A160
:105AD00015224DA81A22CCA11D22D8A11E22DEA17A
