:020000040800F2
:10000000B85C002045010008EF320008052C00080C
:10001000EB3200089310000895450008000000002E
:100020000000000000000000000000001140000877
:100030003D12000800000000F332000813400008E1
:100040005F0100085F0100085F0100085F01000810
:100050005F0100085F0100085F0100085F01000800
:100060005F0100085F0100085F0100085F010008F0
:100070005F0100085F0100085F0100085F010008E0
:100080005F0100085F0100085F0100085F010008D0
:100090005F0100085F0100085F0100085F010008C0
:1000A0005F0100085F0100085F0100085F010008B0
:1000B0005F0100085F010008D94000085F010008E7
:1000C0005F0100085F0100085F0100085F01000890
:1000D0005F010008554500085F0100085F01000846
:1000E0005F0100085F0100085F0100085F01000870
:1000F0005F0100085F0100085F0100085F01000860
:100100005F0100085F0100085F0100085F0100084F
:100110005F0100085F0100085F0100085F0100083F
:100120005F0100085F0100085F0100085F0100082F
:10013000DFF80CD000F09AFD004800476B930008F0
:10014000B85C00200648804706480047FEE7FEE707
:10015000FEE7FEE7FEE7FEE7FEE7FEE7FEE7FEE777
:100160008140000831010008202A04DB203A21FAEE
:1001700002F00021704721FA02F3D040C2F12002C0
:100180009140084319467047004870472C5E0308A9
:1001900010B50446FFF7F8FF0068005D00F00100AD
:1001A00010BD40EA01039B0703D009E008C9121FF4
:1001B00008C0042AFAD203E011F8013B00F8013B21
:1001C000521EF9D27047D2B201E000F8012B491E4D
:1001D000FBD270470022F6E710B513460A460446E4
:1001E0001946FFF7F0FF204610BD10B5044604E0A5
:1001F0000B7800F8013B03B1491C521EF8D220468F
:1002000010BD421C10F8011B0029FBD1801A704759
:10021000034611F8012B00F8012B002AF9D11846EA
:100220007047000070B500B91068002512E00B4659
:1002300002E0A64203D05B1C1C78002CF9D1E3B28B
:100240002B4305D02CB125B1002100F8011B04E09F
:100250000546401C0678002EE9D11060284670BD86
:10026000004ADFE7580300202DE9F04791460F468A
:1002700080460446002614F8015B2DB1FFF784FF89
:100280000068405DC007F6D12B2D02D02D2D18D06F
:10029000641E4A463946204600F0AEFA27B1396856
:1002A000A14201D1C7F8008071054FF002040BD5BF
:1002B0004042002803DD04F003FF0460A007BDE80E
:1002C000F08746F48066E4E70028F8DA04F0F8FEE8
:1002D00004606FF00040F2E7F0B480EA0102D40F4E
:1002E0004200B2EB410F02D20246084611464A00D4
:1002F00042D0C30DDDB2C1F3C752AD1A202D35DA9D
:10030000C1F3160141F4000204B15242C5F12006C6
:1003100002FA06F12A411044B3EBD05F23D0C4B1F6
:10032000012DA0EBC35009DCF0BC4FF0004202EA03
:10033000C352DBB200F5000000F005BB400000F145
:10034000807000EBC350A0F1807040EAD17049008A
:1003500009E0490841EAC071A0EBC35000F5000074
:10036000400800EBC350F0BC00F0E4BA6142012247
:1003700002EB4101001BF6E7F0BC704781F0004141
:10038000AAE780F00040A7E780EA010210B502F07A
:100390000043400022D04A001FD0010E01EB126141
:1003A000C0F35600C2F3560240F4000042F40002CB
:1003B000A0FB022000047F39140400D0401C50EA46
:1003C000124001D44000491EC2B20C0604EBD0100A
:1003D000401C4008802A02D003E0002010BD20F01D
:1003E0000100002900DA0020184310BD30B480EA73
:1003F000010202F0004530F0004221F0004013D02D
:1004000090B1C30DD40DC2F31601C0F31600E41A67
:1004100041F4000140F400027D34914201D3641C98
:1004200000E04900002C02DA30BC002070474FF495
:1004300000000023914201D3891A034340084FEA88
:100440004101F7D151B1914202D14FF0004105E095
:1004500002D24FF0010101E06FF0010103EBC45043
:10046000284430BC00F066BA2DE9FE4F804681EA90
:100470000300C00F0C46009021F0004123F000451E
:10048000B8EB0200A94105D24046214690461C46E1
:100490000B46024623F00040104347D0270DC7F318
:1004A0000A00C3F30A510290401A019040286BDA07
:1004B000C3F3130040F4801B0098924620B1002340
:1004C000D2EB030A63EB0B0B01985946C0F14002D3
:1004D000504600F070F906460D4650465946019ABE
:1004E00000F078F910EB08006141002487EA11520E
:1004F00084EAE7731A4340D0009A62B3019A012A52
:100500004FEA075215DC001B61EB02014FF000427D
:1005100002EA0752CDE90042001C41F58011324643
:100520002B4600F04DFA03B0BDE8F08F404621465F
:10053000F9E7001B61EB0201001C41F58013001874
:100540005B412018A2F5001747EB030140EAD57084
:10055000B6196D4111E06D084FEA360645EAC075DF
:100560004FEA0752001B61EB0201001C41F58011AC
:1005700049084FEA30000019514132462B4603B07A
:10058000BDE8F04F00F00DBA0098012240000023B2
:10059000D0EB020263EBE073009821464FEAE0746F
:1005A000B8EB000061EB0401E9E783F000435BE78F
:1005B00081F0004158E72DE9FE4F81EA030404F081
:1005C000004421F0004100944FF0000B23F0004361
:1005D00050EA01045ED052EA03045BD0C3F30A542C
:1005E000C1F30A552C44A4F2F3340194A0FB025445
:1005F000C1F3130141F48011C3F3130343F48013D7
:1006000001FB024400FB034E840A970A44EA81542A
:1006100047EA8357A4FB076802958D0A05FB078507
:100620004FEA932C04FB0C542705029D4FEA065811
:1006300047EA1637B5EB08056EEB070C870E920EEE
:1006400047EA811742EA8312A7FB0201B6EB0B01CE
:1006500064EB00042B0D43EA0C335E1844EB1C5092
:10066000DA465146E7FB0201C5F313044FEA0B33A8
:1006700043EA14534FEA0432019C43EA0603A4F10F
:100680000C040294009CCDE900B400F099F903B089
:10069000BDE8F08F00200146F9E7C10F80EAE07065
:1006A0000844CA079623002100F04DB99623002282
:1006B000114600F048B900F0004230F000400AD086
:1006C000C10D01F56071C0F3160042EA0151C20884
:1006D00040071143704700200146704701F0004376
:1006E00030B421F0004150EA010206D00A0DA2F513
:1006F0006072C1F31301002A02DC30BC0020704795
:10070000440F44EAC104C100E01830BC00EBC25001
:1007100000F010B9002801DBC0F10040002901DB26
:10072000C1F100418142704730B50B4601460020BF
:100730002022012409E021FA02F59D4205D303FAA3
:1007400002F5491B04FA02F52844151EA2F1010224
:10075000F1DC30BD2DE9F05F0546002092469B4656
:1007600088460646814640241BE0284641464746C7
:100770002246FFF7F9FC53465A46C01A914110D35E
:1007800011461846224600F016F82D1A67EB0108AC
:100790004F4622460120002100F00DF817EB00091A
:1007A0004E41201EA4F10104DFDC484631462A46B2
:1007B0004346BDE8F09F202A04DB203A00FA02F10C
:1007C000002070479140C2F1200320FA03F319433F
:1007D00090407047202A06DBCB17203A41FA02F0FE
:1007E00043EAE07306E041FA02F3D040C2F120028E
:1007F00091400843194670472DE9F05F8246007822
:10080000002715468B460AF10104B946302801D06D
:100810009DB113E014F8010B0127782803D0582864
:1008200001D045B10AE00DB1102D07D100271025E8
:1008300014F8010B02E0082500E00A250026B04666
:100840000EE005FB080005FB06F1012701EB104651
:100850001FFA80F8B6F5803F00D3B94614F8010BB3
:10086000294600F015FA0028EBDABBF1000F05D09D
:100870000FB1641E00E05446CBF80040B9F1000F00
:1008800006D004F01DFC02210160C81EBDE8F09FE7
:1008900048EA0640FAE700000FB4002300B589B02B
:1008A0000CA900910B996FF00042CB601E4B069390
:1008B0001E4B07930423CDE901321D4A08920246DC
:1008C0006B46002000F072FA09B05DF814FB70B5B9
:1008D00086B006464FF0FF300091CDE901010020BF
:1008E00015460C4604903246694604A8FFF7D4FF2B
:1008F00002460498211825B108B1084600E02046B8
:100900002860049800280DD0002A02DD0098884253
:1009100008D0081B0094CDE901043246694604A8BA
:10092000FFF7BAFF06B070BDE50F0008031000081E
:10093000910100080029A8BF7047401C490008BF6A
:1009400020F00100704710B4B0FA80FC00FA0CF0FF
:1009500050EA010404BF10BC704749B1CCF1200437
:1009600021FA04F411FA0CF118BF012121430843C4
:10097000A3EB0C01CB1D4FEA00614FEA102042BFF0
:10098000002010BC704700EBC35010440029A4BFE6
:1009900010BC7047401C490008BF20F0010010BC8B
:1009A000704710B5141E73F1000408DA401C41F1C1
:1009B000000192185B411A4301D120F0010010BDE3
:1009C0002DE9F04D92469B4611B1B1FA81F202E059
:1009D000B0FA80F220329046FFF7EDFE04460F4653
:1009E00040EA0A0041EA0B0153465A46084313D035
:1009F000114653EA010019D0C8F140025046FFF7F2
:100A0000B3FB05460E46504659464246FFF7D3FE15
:100A1000084305D0012004E020463946BDE8F08DAA
:100A20000020054346EAE0762C4337430A986305E5
:100A3000E40AA0EB08000022FD0A44EA47540A3009
:100A400002D500200146E9E7010510196941DDE9F9
:100A5000084500196941BDE8F04DA2E72DE9F04DC8
:100A600081EA030404F0004B21F0004514464FF0E6
:100A7000000A23F0004150EA050220D054EA0102A6
:100A80001DD0C5F30A570246C5F31303C1F3130083
:100A9000C1F30A5640F4801543F48013A7EB06080F
:100AA000101BD64608F2FD3873EB050002D308F19F
:100AB000010801E092185B41B8F1000F03DA002051
:100AC0000146BDE8F08D00204FF4801106468446B3
:100AD0000EE0171B73EB050705D3121B63EB050331
:100AE00006434CEA010C49084FEA300092185B417A
:100AF00050EA0107EDD152EA030012D082EA040065
:100B000083EA0501084305D0101BAB4106D2012240
:100B1000002306E000224FF0004302E06FF00102E4
:100B200053101AEB06004CEB085110EB0A0041EB96
:100B30000B01BDE8F04DFFF734BF70B521F0004365
:100B400003430CD0C1F30A550024D5EB040564EB34
:100B50000403D617AD1AB34102DB0020014670BD75
:100B6000201841EB025170BD2DE9F04D00231A46CB
:100B70001B1A8A4103DB00200146BDE8F08DC1F35A
:100B80000A52C1F3130141F480154FF0000BD10755
:100B900002D100186D41521E0027044640F2FF1199
:100BA000384601EB620A3E468046024600204FF47A
:100BB0008011FFF7D9FAC2197141BB1846EB010049
:100BC000B4EB030C75EB000C04D3E41A65EB0005E1
:100BD00017460E46241908F101006D41804634285D
:100BE000E3DDF91946EB0600091BA84103D24FF0DB
:100BF000FF32134601E0002213461BEB070046EBD1
:100C00000A51BDE8F04DFFF7CCBEC1F30A52C1F363
:100C1000130140F2FF3341F480119A4202DA0020BE
:100C20000146704740F233439A42A2F2334202DC5B
:100C30005242FFF799BAFFF7BEBD000030B5041E5F
:100C400071F1000404DB4FF00044404264EB010109
:100C5000141E73F1000405DB1C464FF000435242A2
:100C600063EB0403994208BF904230BD064C074D28
:100C700006E0E06840F0010394E80700984710346C
:100C8000AC42F6D3FFF758FAE065030800660308A4
:100C90003A2800D2303820F02002412A01D3A2F1B4
:100CA0003700884201D34FF0FF3070472DE9FF4FE6
:100CB000087881B09946FF2805D0491C2D2804D01A
:100CC0000024002308E000230BE00124F9E703EBF4
:100CD000830300EB4303491C0878FF28F7D104B1D4
:100CE0005B4200200090147801462D2C01D02B2C63
:100CF00004D1521C2D2C12D000240094002516780B
:100D0000FF2E0ED00A24A0FB04C801FB048100279B
:100D100000FB0711521C16EB0C006941EFE70124A0
:100D2000EBE7994450EA01020ED00024AA4D264672
:100D3000DFF8A88200F076F982468B46B9F1000010
:100D400009DAC9F100071BE001980021C0E9001190
:100D500005B0BDE8F08F074612E0F80707D022463D
:100D60002B4630464146FFF726FC0646884622467B
:100D70002B4610461946FFF71EFC04460D467F1011
:100D8000002FEAD1B9F1000F32464346504659468A
:100D900002DAFFF763FE01E0FFF70DFC009A0AB1EB
:100DA00081F00041019AC2E90001D1E72DE9FF4F2E
:100DB0001F468DB0D7E901464FF0FF382E2045463B
:100DC0004FF000090B90B9696D1C0E988847396A7D
:100DD000824688470028F6D1BAF1FF3F0AD024F4B2
:100DE000D064002E11DDBAF12B0F08D0BAF12D0F0F
:100DF0000BD102E0404611B0ABE744F48064B9691E
:100E00006D1C0E9888478246761E6946600501D59E
:100E10002D2000E02B208DF8000001F1010B0DF1D9
:100E2000200809E0B9696D1C0E98884782460F9822
:100E300044F40074761E0560002E02DDBAF1300F16
:100E4000F0D00B998A453ED144F0800406E00F991A
:100E5000681CA9F1010944F400740860B9696D1CAB
:100E6000761E0E98884782463028F0D02BE00B99EA
:100E70008A4505D1200603D444F08004761E18E08C
:100E8000504604F067FA08B30DF11301761E44F4DE
:100E900000748B4508D2AAF130000BF8010B200634
:100EA00007D5A9F1010003E0200602D409F10100F1
:100EB0008146A00502D50F99681C0860B9696D1CB0
:100EC0000E9888478246002ED1DC53E0002E51DD7B
:100ED000BAF1650F02D0BAF1450F4BD1A00549D543
:100EE000B9696D1C24F44074761E0E9888478246BA
:100EF000002E0CDD2B2804D0BAF12D0F07D144F4BD
:100F00008074B9696D1C0E9888478246761EE0058C
:100F100001D52D2100E02B2108F8011BCDF82C80F4
:100F200021E00DF12901761E44F4007488450CD2AD
:100F3000AAF1300010F0FF0088F8000002D10B99F0
:100F4000884509D908F1010806E0E00501D52448E3
:100F500001E042F20F708146B9696D1C0E98884716
:100F600082460F980560002E04DD504604F0F2F929
:100F70000028D6D1F9690E988847FF208BF8000029
:100F800088F800000020069007904B466A4608A9A2
:100F900006A8FFF78BFEA00502D46FF001002AE738
:100FA00014F0240F0AD0E00714D1DDE906123868E6
:100FB000031D3B600068C0E900120BE0DDE906019B
:100FC000FFF78CFB0146E00704D13868021D3A6048
:100FD0000068016028460EE7000024400000F03F52
:100FE000F1D8FFFF426842B1016811F8013B23B11B
:100FF000521EC0E90012184670470121C160881EC8
:10100000704742685AB1C368016843B983688B422C
:1010100005D0491E521CC0E90012002070474FF055
:10102000FF3070470EB540F2334202920022CDE904
:1010300000221346FFF7C4FC03B000BD70B58C1846
:1010400010F8015B15F0070301D110F8013B2A11DC
:1010500006D110F8012B03E010F8016B01F8016BC9
:101060005B1EF9D12B0705D40023521E0DD401F8C5
:10107000013BFAE710F8013BCB1A921C03E013F88E
:10108000015B01F8015B521EF9D5A142D8D30020C3
:1010900070BD00BFFEE7000000B5B9B003F0BAF8BC
:1010A00002F028F901F0D7FF20221D491BA8FFF705
:1010B00078F836221A49203123A8FFF772F8184829
:1010C000B0F85610ADF8C2101BA815498A6D3192C0
:1010D000B1F85C10ADF8C8101148B0F85E10ADF86A
:1010E000CA10112200F1600133A8FFF75AF80C482A
:1010F00090F871108DF8DD10416F1BA841676822D0
:101100001FA96846FFF74DF81BA80FC802F0F1FCB5
:1011100002F04AF8012000F015FA39B000BD0000D5
:1011200084000020FFF7B8FF00F000F805A003F0EE
:101130005BFF07A003F058FF002000F08FF900BF0D
:10114000FEE70000C6F4B6AFB3C9B9A6210D0A0088
:10115000D2B0BBF02D463130332DC3D4C4E30D0AD9
:10116000000000002DE9F043A1B005460E462148DD
:1011700021A102681CA803F05FFF4FF005090024BD
:10118000642103A8FFF726F831461EA003F02CFFC8
:1011900000BF19E05CB955F82400FFF78CFA1CA2D7
:1011A000CDE90001642103A803F02EFF0BE055F800
:1011B0002400FFF780FA03AB17A2CDE900016421F8
:1011C00003A803F021FF641C4C45E3DB00235A1EF7
:1011D00003A91CA800F0E8FA2EB900231A4610A1B2
:1011E0001CA800F0E1FA9DF80810084621B0BDE8FF
:1011F000F083000090010020313A2F25642E6373A4
:1012000076000000D0B4C8EB3A202533640D0A0004
:101210000D0A25660000000025732C2566000000DD
:10122000696E6465782C726F6C6C2C70697463687D
:101230002C7961772C646174650D0A00704772B671
:1012400000BFFEE72DE9F04104460021204600F0F2
:10125000EFF9154804F0FCFF144AD2F84811D2F80F
:10126000F800FFF739F80746FFF725FA05462A4642
:101270000B460FA003F0B8FE0C49D1F8F800FFF7B9
:101280001AFA05462A460B4610A003F0ADFE0749A0
:10129000D1F84801FFF70FFA05462A460B460FA082
:1012A00003F0A2FEBDE8F081882A0020882C0020EF
:1012B0000D0A5B335D5B325D202B205B345D5B325E
:1012C0005D203D2025660D0A000000000D0A5B33FD
:1012D0005D5B325D203D2025660D0A000D0A5B3402
:1012E0005D5B325D203D2025660D0A0010B5044689
:1012F00001220BA1002005F0D1FE0A490870084622
:10130000007818B908A003F06FFE08E00DA003F004
:101310006BFE24B112A003F067FE00BFFEE710BD14
:10132000313A0000880100207375636365656420AD
:10133000746F20756E6D6F756E7420666174667360
:101340002E0D0A006661696C20746F20756E6D6FDA
:10135000756E742066617466732E0D0A00000000BD
:101360006E6F77206974206973207061757365648E
:101370002E2E2E0D0A00000070B504460D461646AE
:10138000134805F0ADFD214612A003F02DFE2046C6
:1013900006F058FA154908700846007850B92146F9
:1013A00013A003F021FE7DB118A003F01DFE00F094
:1013B000E1F909E021461DA003F016FE26B121A0A7
:1013C00003F012FE00BFFEE7014805F089FD70BD85
:1013D000001A002074727920746F2064656C657443
:1013E00065205B25735D2E0D0A000000880100203A
:1013F0007375636365656420746F2064656C6574E0
:1014000065205B25735D2E0D0A0000006E6F77204E
:101410007363616E2066696C657320746F20636806
:1014200065636B202D3E0D0A000000006661696C4B
:1014300020746F20665F756E6C696E6B205B257320
:101440005D0D0A006E6F77206974206973207061EA
:10145000757365642E2E2E0D0A000000F0B587B05E
:1014600004460025002120A000F0E2F80646002EE8
:101470000ADD142202A91CA006F0C2FF42F211717B
:1014800002A807F035FFC5B2002C26D0ADB10A2264
:10149000002102A8FEF7E8FE0746781C16490860FE
:1014A000084616A10268684603F0C6FD00235A1ECE
:1014B00069460DA000F078F909E042F211700E497A
:1014C000086001239A1E0FA107A000F06DF90A48D9
:1014D00001680EA003F088FD03E002A912A003F04A
:1014E00083FD07B0F0BD0000313A2F6D795F696E62
:1014F0006465782E63737600900100200D0A2564E0
:10150000000000000D0A3130303031005B4641549C
:1015100046535F496E6465785F43757272656E7499
:101520003A2025645D0D0A005B46415446535F49ED
:101530006E6465785F43757272656E743A202573C8
:101540005D0D0A0010B5044601220BA10B4805F001
:10155000A5FD0B4908700846007818B909A003F0EA
:1015600043FD08E00EA003F03FFD24B112A003F0FC
:101570003BFD00BFFEE710BD313A0000D00900205E
:10158000880100207375636365656420746F206D46
:101590006F756E742066617466732E0D0A0000000C
:1015A0006661696C20746F206D6F756E7420666162
:1015B0007466732E0D0A00006E6F772069742069BF
:1015C00073207061757365642E2E2E0D0A00000065
:1015D00000B587B00020FFF7B5FF00F0CBF8182268
:1015E0000BA101A8FEF7DDFD0022012101A8FFF7F4
:1015F000C3FE012101A800F01BF801239A1E0AA1D5
:1016000001A800F0D1F80020FFF770FE07B000BD80
:10161000313A2F546573744469722F74657374661C
:10162000696C652E747874000D0A313030303100E9
:1016300070B505460E46254805F052FC1322294692
:10164000224805F059FD2249087008460078002814
:1016500030D11E48C468002105F052FC1C490870B6
:101660000846007800281ED14FF400711948FEF793
:10167000B1FD194B22461749144805F071FF144972
:1016800008700846007848B9002E19D0114913A0F7
:1016900003F0AAFC1BA003F0A7FC11E029461BA045
:1016A00003F0A2FC0CE00A48027829461DA003F0D2
:1016B0009BFC05E006480278294624A003F094FC30
:1016C000024805F00DFC204670BD0000001A002005
:1016D00088010020882A00208C01002066696C6542
:1016E00020636F6E74656E74206172652061732073
:1016F000666F6C6C6F773A200D0A3E3E3E0D0A25F0
:10170000730000000D0A3C3C3C0D0A006661696CE8
:1017100020746F20665F72656164205B25735D0DC8
:101720000A0000006661696C20746F20665F6C734C
:1017300065656B205B25735D2C20726573756C7419
:10174000206973205B25645D2E0D0A006661696C5B
:1017500020746F20665F6F70656E205B25735D2C53
:1017600020726573756C74206973205B25645D2E2F
:101770000D0A000010B505A003F036FC08A10948C9
:10178000FEF746FD074808F023F810BD7363616E4D
:10179000696E672066696C65732E2E2E0D0A000037
:1017A000313A0000242A00207FB50E4614461D461B
:1017B000284805F095FB13222648009905F09CFC6B
:1017C000254908700846007800283BD1B4F1FF3F56
:1017D00005DA1320087021A003F006FC0EE0601C5F
:1017E00030B91C48C16805F08BFB1B49087005E047
:1017F0002146184805F084FB174908701648007800
:10180000D8B93146134805F071FD1348007878B90E
:10181000104805F065FB1AA003F0E6FB002D15D07B
:101820001CA003F0E1FB01210098FFF701FF0DE090
:1018300069461DA003F0D8FB08E0694620A003F02C
:10184000D3FB03E0694624A003F0CEFB014805F07A
:1018500047FB7FBD001A00208801002074686520C6
:10186000777269746520706F736974696F6E20692F
:101870007320696E76616C69642E0D0A00000000A9
:101880007772697465206973207375636365656435
:101890002E0D0A006E6F77207265616420697420D6
:1018A0002D3E0D0A000000006661696C20746F20F7
:1018B000665F7072696E7466205B25735D0D0A0049
:1018C0006661696C20746F20665F6C7365656B2060
:1018D0005B25735D0D0A00006661696C20746F20E2
:1018E000665F6F70656E205B25735D0D0A000000FA
:1018F00070B50446002594F82100022803D0042086
:10190000A0630125C1E02068006820F00E00216876
:1019100008602068006820F00100216808605C49C8
:101920002068884252D95A4978392068884201D1C2
:10193000012047E0564964392068884201D11020CF
:1019400040E0534950392068884201D1801539E080
:101950004F493C392068884201D1801432E04C491B
:1019600028392068884202D14FF480302AE0484963
:1019700014392068884202D14FF4801022E0444993
:101980002068884201D140041CE042492068884216
:1019900001D1012016E03F4914312068884201D16D
:1019A00010200FE03B4928312068884201D1801582
:1019B00008E038493C312068884201D1801401E0B8
:1019C0004FF480303349091F086051E030497839BD
:1019D0002068884201D1012047E02D496439206800
:1019E000884201D1102040E02949503920688842BE
:1019F00001D1801539E026493C392068884201D15F
:101A0000801432E0224928392068884202D14FF4FC
:101A100080302AE01E4914392068884202D14FF4F0
:101A2000801022E01A492068884201D140041CE05D
:101A300018492068884201D1012016E01549143167
:101A40002068884201D110200FE012492831206817
:101A5000884201D1801508E00E493C312068884257
:101A600001D1801401E04FF4803009498039486089
:101A7000012084F8210000BF002084F8200000BF6E
:101A8000606B10B12046616B8847284670BD00002E
:101A900080000240080402402DE9F8470246002376
:101AA0009C467BE14FF0010808FA03F4D1F800806E
:101AB00008EA0400A0427DD1DFF8F4A2D1F8048046
:101AC000A8EB0A09D0453AD014DCB8F1030F50D086
:101AD00009DCB8F1000F31D0B8F1010F1CD0B8F11A
:101AE000020F49D120E0B8F1110F18D0B8F1120F50
:101AF00042D11EE0B9F5881F25D006DCB9F5803F3C
:101B000020D0B9F5801F37D11AE0B9F5001F18D0E1
:101B1000B9F5041F30D117E0D1F80CC02DE0D1F891
:101B20000C8008F1040C28E0D1F80C8008F1080CB6
:101B300023E0D1F80C8008F10C0C1EE000BF00BFC0
:101B400000BF00BF00BF00BFD1F80880B8F1000F90
:101B500002D14FF0040C0BE0D1F80880B8F1010F6E
:101B600003D14FF0080C146102E04FF0080C5461EF
:101B700003E04FF0000C00E000BF00BFFF2801D8D9
:101B8000904601E002F104084646FF2802D84FEAD9
:101B9000830803E0A3F108084FEA88084746D6F80F
:101BA00000804FF00F0909FA07F928EA09080CFA32
:101BB00007F900E07AE048EA0908C6F80080D1F8A1
:101BC000048008F08058B8F1805F6FD100BFDFF863
:101BD000E481D8F8188048F00108DFF8D891C9F8F6
:101BE0001880C846D8F8188008F00108CDF80080A1
:101BF00000BF00BF4FEAB9384FEA930958F829509F
:101C00004FEA83784FEA18794FF00F0808FA09F87D
:101C100025EA0805DFF8A081424502D14FF000080F
:101C200024E0DFF89881424502D14FF001081DE021
:101C3000DFF88C81424502D14FF0020816E0DFF850
:101C40008481424502D14FF003080FE0DFF878812C
:101C5000424502D14FF0040808E0DFF870814245A8
:101C600002D14FF0050801E04FF006084FEA8379F2
:101C70004FEA197908FA09F848EA0505DFF85081B2
:101C80004FEA930948F82950D1F8048008F48038C5
:101C9000B8F5803F0BD1DFF83C81D8F8008048EAE6
:101CA0000008DFF83091C9F800800AE075E0DFF83D
:101CB0002481D8F8008028EA0008DFF81891C9F8D4
:101CC0000080D1F8048008F40038B8F5003F0ED148
:101CD000DFF8008108F10408D8F8008048EA00081D
:101CE000DFF8F09009F10409C9F800800DE0DFF891
:101CF000E48008F10408D8F8008028EA0008DFF83A
:101D0000D49009F10409C9F80080D1F8048008F4DE
:101D10008018B8F5801F0ED1DFF8B88008F10808E8
:101D2000D8F8008048EA0008DFF8A89009F108090F
:101D3000C9F800800DE0DFF89C8008F10808D8F8A9
:101D4000008028EA0008DFF88C9009F10809C9F83A
:101D50000080D1F8048008F40018B8F5001F0ED1F7
:101D6000DFF8708008F10C08D8F8008048EA000815
:101D7000DFF8609009F10C09C9F800800DE0DFF888
:101D8000548008F10C08D8F8008028EA0008DFF831
:101D9000449009F10C09C9F800805B1CD1F800805F
:101DA00028FA03F8B8F1000F7FF47CAEBDE8F8879D
:101DB000000011100010024000080140000C01401A
:101DC000001001400014014000180140001C0140B7
:101DD0000800014000040140024693680B400BB12B
:101DE000012000E0002070470AB1016101E00B040E
:101DF000036170470148006870470000040000203C
:101E0000034800680349097808440149086070479D
:101E1000040000200C00002010B50848006840F0C5
:101E2000100006490860032000F0ACF8032000F021
:101E300007F800F02BF8002010BD00000020024041
:101E400070B504460E4800784FF47A71B1FBF0F09B
:101E50000C490968B1FBF0F5284600F0CBFC08B14D
:101E6000012070BD102C07D200222146501E00F028
:101E70004BF80548046001E00120F2E70020F0E79C
:101E80000C000020000000200800002008B500BF62
:101E90001348806940F00100114988610846806953
:101EA00000F00100009000BF00BF00BF0846C069FD
:101EB00040F08050C8610846C06900F08050009032
:101EC00000BF00BF052000F05DF800BF054948686D
:101ED00020F0E06040F00070486000BF08BD0000E6
:101EE000001002400000014001460846002809DBBE
:101EF00000F01F0301229A4043099B0003F1E023F5
:101F0000C3F8002100BF70472DE9F05F80460D4601
:101F10001646002703F0B8F8074639462A463346E6
:101F200001F00700C0F1070ABAF1040F02D94FF01F
:101F3000040A01E0C0F1070AD14600F1040ABAF12F
:101F4000070F02D24FF0000A01E0A0F1030AD446C5
:101F50004FF0010A0AFA09FAAAF1010A0AEA020A8A
:101F60000AFA0CFA4FF0010B0BFA0CFBABF1010B68
:101F70000BEA030B4AEA0B042146404603F08CF8B7
:101F8000BDE8F09F00BF00F00702064B19684FF64E
:101F9000FF031940044B0B4343EA0221014B196034
:101FA00000BF70470CED00E00000FA0500BF00BF65
:101FB00000BF00BF00BFBFF34F8F00BF00BF00BF17
:101FC0000948006800F4E06008490843001D06491C
:101FD000086000BF00BF00BFBFF34F8F00BF00BF4E
:101FE00000BF00BF00BFFDE70CED00E00000FA05F8
:101FF00070B504460D460CB9012070BD5A48006802
:1020000000F00700A8420ED25748006820F00700F1
:102010002843554908600846006800F00700A842B8
:1020200001D00120E9E7207800F0020002281DD14C
:10203000207800F00400042805D14C48406840F4A2
:10204000E0604A494860207800F00800082805D17F
:102050004648406840F460504449486043484068FE
:1020600020F0F000A168084340494860207800F063
:10207000010078B36068012806D13C48006800F48C
:10208000003090B90120B8E76068022806D13748CF
:10209000006800F0007040B90120AEE733480068E6
:1020A00000F0020008B90120A7E73048406820F09E
:1020B0000300616808432D494860FFF79BFE064610
:1020C00009E0FFF797FE801B41F28831884202D970
:1020D000032092E707E02548406800F00C006168A3
:1020E000B0EB810FEDD12048006800F00700A84256
:1020F0000ED91D48006820F0070028431A490860DF
:102100000846006800F00700A84201D0012074E7EB
:10211000207800F00400042807D11448406820F417
:10212000E060E168084311494860207800F0080049
:10213000082808D10D48406820F46050216940EA21
:10214000C1000A49486000F03FF808494968C1F3F6
:102150000311074A515CC8400649086006480068F8
:10216000FFF76EFE002048E700200240001002400A
:102170002AAC000800000020080000200148006888
:10218000704700000000002000B5FFF7F7FF04498A
:102190004968C1F30221034A515CC84000BD0000F8
:1021A000001002403AAC000800B5FFF7E7FF044911
:1021B0004968C1F3C221034A515CC84000BD000018
:1021C000001002403AAC0008F0B585B00FF26C0C7C
:1021D0009CE8E01001A8A0E8E0101CA52D6800957F
:1021E00000210022002300240020194D696801F01D
:1021F0000C05F5B1042D02D0082D19D101E01548C8
:1022000019E001ADC1F38346AC5D01F4803555B1F1
:102210000F4D6D68C5F340451DF805200D4D654314
:10222000B5FBF2F302E00C4D04FB05F3184602E0A7
:1022300000BF084800BF00BF05B0F0BD02030405A1
:10224000060708090A0B0C0D0E0F10100102000002
:102250000010024000127A0000093D00F8B5044663
:102260000CB90120F8BD207800F00100002878D0DA
:10227000F848406800F00C0004280CD0F54840688D
:1022800000F00C00082811D1F248406800F48030BA
:10229000B0F5803F0AD1EF48006800F40030002814
:1022A0005FD0606800285CD10120DBE700BF606878
:1022B000B0F5803F06D1E748006840F48030E5493A
:1022C000086028E0606858B9E248006820F480306F
:1022D000E04908600846006820F4802008601AE0A1
:1022E0006068B0F5A02F0BD1DA48006840F4802078
:1022F000D84908600846006840F4803008600AE069
:10230000D448006820F48030D2490860084600684C
:1023100020F48020086000BF606888B1FFF76AFD84
:10232000054606E0FFF766FD401B642801D903203F
:1023300098E7C848006800F400300028F2D010E0A8
:10234000FFF758FD054606E0FFF754FD401B6428E3
:1023500001D9032086E7BF48006800F40030002858
:10236000F2D1207800F00200022857D1B948406825
:1023700000F00C0050B1B748406800F00C0008288D
:1023800018D1B448406800F4803098B9B14800686A
:1023900000F0020020B12069012801D0012061E78E
:1023A000AC48006820F0F800616940EAC100A94922
:1023B000086033E02069E8B10120A7490860FFF711
:1023C00019FD054606E0FFF715FD401B022801D95F
:1023D000032047E79F48006800F002000028F2D081
:1023E0009C48006820F0F800616940EAC100994902
:1023F000086013E0002098490860FFF7FBFC0546E1
:1024000006E0FFF7F7FC401B022801D9032029E76B
:102410009048006800F002000028F2D1207800F017
:10242000080008282DD1A069B8B101208B490860A7
:10243000FFF7E0FC054606E0FFF7DCFC401B022846
:1024400001D903200EE78348406A00F0020000280B
:10245000F2D0012000F0ACFF13E000207F490860BB
:10246000FFF7C8FC054606E0FFF7C4FC401B022846
:1024700001D90320F6E67748406A00F00200002800
:10248000F2D1207800F00400042873D100277148AD
:10249000C06900F0805070B900BF6E48C06940F05C
:1024A00080506C49C8610846C06900F080500090B7
:1024B00000BF00BF01276A48006800F48070B0B90F
:1024C0006748006840F4807065490860FFF792FC37
:1024D000054606E0FFF78EFC401B642801D9032067
:1024E000C0E65F48006800F480700028F2D000BFAA
:1024F000E068012806D15748006A40F001005549BC
:10250000086227E0E06858B95248006A20F00100EC
:10251000504908620846006A20F00400086219E089
:10252000E06805280BD14B48006A40F00400494997
:1025300008620846006A40F0010008620AE0454867
:10254000006A20F00100434908620846006A20F052
:102550000400086200BFE068A0B1FFF74BFC05462D
:1025600009E0FFF747FC401B41F28831884202D95D
:10257000032077E622E03748006A00F002000028D6
:10258000EFD012E0FFF736FC054608E0FFF732FC1B
:10259000401B41F28831884201D9032062E62D4870
:1025A000006A00F002000028F0D1012F05D129486F
:1025B000C06920F080502749C86100BFE069C8B3F6
:1025C0002448406800F00C00082860D0E069022828
:1025D00048D1002020490866FFF70CFC054606E0BC
:1025E000FFF708FC401B022801D903203AE61948EE
:1025F000006800F000700028F2D1206AB0F5803F3A
:1026000007D11448406820F40030A16808431149FC
:102610004860D4E9080108430E49496821F474115F
:1026200008430C49486001200B490866FFF7E2FBAC
:10263000054607E03DE0FFF7DDFB401B022801D91E
:1026400003200FE60348006800F000700028F2D075
:102650002FE000000010024000004242800442428D
:1026600000700040002014490866FFF7C3FB0546D0
:1026700006E0FFF7BFFB401B022801D90320F1E56C
:102680000E48006800F000700028F2D111E0E06907
:10269000012800D1E6E50948466806F48031206A41
:1026A000814204D106F47011606A814201D0012098
:1026B000D8E50020D6E500000000424200100240AC
:1026C00010B504460CB9012010BD606A00B900BF06
:1026D0000021A16294F8510028B9002084F850002C
:1026E000204600F031F8022084F85100206800688C
:1026F00020F0400021680860D4E901010843E16846
:1027000008432169084361690843218B01F4007182
:102710000843E1690843216A0843A16A0843216824
:1027200008600421A06901EA10402168486020681F
:10273000C06920F400602168C86100206065012044
:1027400084F851000020BFE710B586B00446002091
:1027500002900390049005901949206888422DD179
:1027600000BF1848806940F48050164988610846C7
:10277000806900F48050019000BF00BF00BF084690
:10278000806940F0040088610846806900F0040018
:10279000019000BF00BFA020029002200390032000
:1027A000059002A90848FFF777F940200290002021
:1027B0000390049002A90448FFF76EF906B010BD1B
:1027C000003001400010024000080140042808D1F8
:1027D0004FF0E021096941F004014FF0E02211615E
:1027E00007E04FF0E021096921F004014FF0E022F9
:1027F0001161704770B504462546681EB0F1807FB0
:1028000001D301200FE0681E4FF0E02148610F2145
:102810004FF0FF3002F040FC00204FF0E0218861D3
:1028200007200861002070BD10B504460CB90120D6
:1028300010BD94F83D0028B9002084F83C002046E3
:1028400000F00CF8022084F83D00211D206801F002
:1028500065FC012084F83D000020E9E7704701464F
:102860000868C06840F001000B68D860086880689C
:1028700000F00702062A05D00868006840F0010051
:102880000B68186000207047704701460022002343
:1028900091F8392091F83A3042EA0300704700007D
:1028A0002DE9F0470446206805682068C66820685E
:1028B00047694FF00008C14605F00F08B8F1000F56
:1028C0000AD105F0200038B106F0200020B12046E2
:1028D00001F0E8FCBDE8F087B8F1000F6DD007F01B
:1028E000010018B906F49070002866D005F00100C8
:1028F00030B106F4807018B1E06B40F00100E06385
:1029000005F0040030B107F0010018B1E06B40F0B1
:102910000200E06305F0020030B107F0010018B1D9
:10292000E06B40F00400E06305F0080030B107F010
:10293000010018B1E06B40F00800E063E06B68B3A1
:1029400005F0200028B106F0200010B1204601F06B
:10295000A9FC20684069C0F38019E06B00F0080012
:1029600010B9B9F1000F22D0204601F07BFC20689D
:10297000406900F04000B0B12068406920F040009C
:1029800021684861606B50B11748616B4863606BA8
:10299000FEF7AEFF10B1606B416B88470CE020463C
:1029A000FFF772FF08E02046FFF76EFF04E02046C5
:1029B000FFF76AFF0020E0638CE705F0800030B18C
:1029C00006F0800018B1204601F090FD82E705F086
:1029D000400030B106F0400018B1204601F052FC32
:1029E00078E700BF76E700005142000810B50446C2
:1029F0000CB9012010BDA06900B100E000BF94F83F
:102A0000390028B9002084F83800204600F028F862
:102A1000242084F839002068C06820F40050216820
:102A2000C860204601F092FC2068006920F49040C4
:102A3000216808612068406920F02A002168486107
:102A40002068C06840F400502168C8600020E0633E
:102A5000202084F8390084F83A000020CAE70000FA
:102A600010B586B0044625492068884244D100BF8D
:102A70002348806940F00400214988610846806944
:102A800000F00400019000BF00BF00BF084680694D
:102A900040F4804088610846806900F480400190DD
:102AA00000BF00BF00BF0846806940F00100886198
:102AB0000846806900F00100019000BF00BF481582
:102AC000029002200390012004900320059002A9A7
:102AD0000C48FEF7E1FF4FF4806002900020039065
:102AE00002A90848FEF7D8FF2520FFF7FDF90322C9
:102AF00011462520FFF708FA06B010BD0038014046
:102B0000001002400008014010B5034693F83A0057
:102B100020282FD101B10AB9012010BD00BF93F8C0
:102B20003800012801D10220F7E7012083F838009E
:102B300000BF99629A85DA850020D863222083F845
:102B40003A0000BF002083F8380000BF1868C06852
:102B500040F480701C68E0601868406940F0010033
:102B60001C6860611868C06840F020001C68E06064
:102B70000020D2E70220D0E71D4A0168914236D1F9
:102B80001C49098801F4004189BB1A49098801F4EC
:102B9000804171B1184909780A2903D00021154AEA
:102BA000118024E01349098841F40041114A118041
:102BB0001DE0114909780D2906D10E49098841F413
:102BC00080410C4A118012E00B490978094A1288A9
:102BD000C2F30D02094B995406490988491C054A5C
:102BE000118011460988C72901DD00211180704735
:102BF00000380140A0010020A2010020C84D0020A3
:102C00007047000000B5ADF2844D11E00BA002F05A
:102C1000EBF913A002F0E8F940F284421449684647
:102C2000FDF7BFFA684602F0DFF9FFF7BFF900E0F1
:102C3000ECE700BF0DF2844D00BD000048617264F6
:102C40004661756C745F48616E646C65723A20D33E
:102C5000B2BCFEB4EDCEF3C0B12E0D0A00000000F0
:102C6000B3A2CAD4D6D8C6F42E2E2E0D0A00000068
:102C7000D05E03087CB504460D460348CDE9004507
:102C80000FC800F02BF87CBD1C000020FEB50446E8
:102C90000D46164603488DE870000FC800F056F840
:102CA000FEBD00001C0000207CB504460D46034814
:102CB000CDE900450FC800F011F87CBD2C000020C4
:102CC000FEB504460D46164603488DE870000FC851
:102CD00000F03CF8FEBD00002C0000207FB582B063
:102CE000DDE90A45002602A80FC800F0C7F80094E5
:102CF00002A80FC800F02EF902A80FC800F0FCF8D7
:102D0000009502A80FC800F025F902A80FC800F02E
:102D1000F3F802A80FC800F0B1F844F001000090E9
:102D200002A80FC800F016F902A80FC800F0E4F8D6
:102D30000020009002A80FC800F06FF8064602A815
:102D40000FC800F0BDF8304606B070BD7FB582B048
:102D50000AAC70CC02A80FC800F090F8009402A84A
:102D60000FC800F0F7F802A80FC800F0C5F80095EA
:102D700002A80FC800F0EEF802A80FC800F0BCF8D7
:102D8000009602A80FC800F0E5F802A80FC800F0EE
:102D9000B3F802A80FC800F093F806B070BD0FB5E5
:102DA00081B00020009001A80FC800F025F905F0BF
:102DB000BEFB0120009001A80FC800F012F905F039
:102DC000B6FB0020009001A80FC800F00AF905F03A
:102DD000AEFB0120009001A80FC800F00DF905B06E
:102DE00000BD0FB581B00120009001A80FC800F010
:102DF00003F905F09CFB0120009001A80FC800F02A
:102E0000F0F805F094FB0020009001A80FC800F036
:102E1000E8F805F08CFB05B000BD7FB582B00A9ED6
:102E2000002400251AE06006040E0120009002A88C
:102E30000FC800F0D6F805F07AFB02A80FC800F022
:102E4000C4F808B1601CC4B20020009002A80FC8EA
:102E500000F0C7F805F06BFB681CC5B2082DE2DB7B
:102E6000012E04D102A80FC8FFF799FF03E002A8C2
:102E70000FC8FFF7B6FF204606B070BD0FB581B092
:102E80000120009001A80FC800F0B6F801200090C2
:102E900001A80FC800F0A5F805F049FB002000903C
:102EA00001A80FC800F0A8F805F041FB0020009031
:102EB00001A80FC800F095F805F039FB05B000BD7A
:102EC0000FB581B00020009001A80FC800F094F861
:102ED00005F02DFB0120009001A80FC800F081F83B
:102EE00005F025FB0120009001A80FC800F084F830
:102EF00005F01DFB05B000BD1FB582B00024012008
:102F0000009002A80FC800F077F805F010FB012030
:102F1000009002A80FC800F064F805F008FB0AE072
:102F2000601CC4B2FA2C06DD02A80FC8FFF7C8FF68
:102F3000002006B010BD02A80FC800F046F8002817
:102F4000EED1009002A80FC800F04BF805F0EFFAA0
:102F50000120EEE73FB581B0089C00252BE0002062
:102F6000009001A80FC800F03CF805F0E0FA04F06A
:102F7000800030B10120009001A80FC800F03CF89B
:102F800005E00020009001A80FC800F035F805F01A
:102F9000CEFA0120009001A80FC800F022F805F039
:102FA000C6FA0020009001A80FC800F01AF86006C9
:102FB000040E681CC5B2082DD1DB0120009001A8C9
:102FC0000FC800F019F805B030BD7FB5039CBDF8FF
:102FD000085029462046FEF7FFFE0646304604B05C
:102FE00070BD7FB5089C019DBDF80060224631464A
:102FF0002846FEF7F9FE7FBD7FB5089C039DBDF80E
:103000000860224631462846FEF7EEFE7FBD70B5C9
:1030100004460D4629462046FFF746FE70BD70B5B2
:1030200004460D4629462046FFF724FE70BD70B5C4
:1030300004460D461646324629462046FFF740FE16
:1030400070BD70B504460D461646324629462046E8
:10305000FFF71CFE70BD10B538221821D620FFF7EF
:10306000E6FF38221921D620FFF7E1FF6122102167
:10307000D620FFF7DCFF68221121D620FFF7D7FF0B
:103080000A2003F0E1FA10BD10B52821D620FFF781
:10309000BEFF1D4908702921D620FFF7B8FF1A4945
:1030A00048702A21D620FFF7B2FF174988702B21DC
:1030B000D620FFF7ACFF1449C8702C21D620FFF7AB
:1030C000A6FF114908712D21D620FFF7A0FF0E4958
:1030D000487108460078497840EA012000B20B495F
:1030E0000880094880780849C97840EA012000B280
:1030F00006494880044800790349497940EA01209B
:1031000000B20249888010BD480000203C00002029
:1031100010B52221D620FFF77AFF1E49087023211F
:10312000D620FFF774FF1B4948702421D620FFF7F3
:103130006EFF184988702521D620FFF768FF1549D2
:10314000C8702621D620FFF762FF12490871272197
:10315000D620FFF75CFF0F49487108460078497890
:1031600040EA012000B20C4908800A4880780949E9
:10317000C97840EA012000B20749488005484079F3
:103180000002404203490979084300B2024988809D
:1031900010BD0000480000204200002010B5FFF7DD
:1031A00073FFFFF7B5FF10BD00B5002006F042F930
:1031B00000BD000000B585B0002001900290039092
:1031C000049000BF3448806940F020003249886193
:1031D0000846806900F02000009000BF00BF00BFDB
:1031E0000846806940F0100088610846806900F058
:1031F0001000009000BF00BF00BF0846806940F08B
:10320000040088610846806900F00400009000BF57
:1032100000BF00BF0846806940F00800886108468A
:10322000806900F00800009000BF00BF0122042167
:103230001A48FEF7D9FD002210211948FEF7D4FDE7
:1032400001224FF44C611748FEF7CEFD0420019097
:103250000120029003900320049001A90F48FEF77B
:103260001BFC10200190012002900390022004908A
:1032700001A90B48FEF710FC4FF44C60019011209F
:103280000290012003900320049001A90548FEF755
:1032900003FC05B000BD000000100240001001401A
:1032A00000080140000C0140F7B5019CBDF800503A
:1032B0009DF80960324629462046FEF795FDFEBD81
:1032C000F7B5019CBDF800509DF8086032462946CC
:1032D0002046FEF789FDFEBD37B5019CBDF80050C4
:1032E00029462046FEF778FD3EBD00BFFEE700BF41
:1032F000FEE7704710B501220B211A20FFF7A1FE4F
:103300001D2209211A20FFF79CFE0A2003F09CF9D8
:1033100010BD000010B500211A20FFF780FE2049E3
:10332000087001211A20FFF77AFE1D49487002211A
:103330001A20FFF774FE1A49887003211A20FFF73C
:103340006EFE1749C87004211A20FFF768FE144961
:10335000087105211A20FFF762FE114948710846DD
:103360000078497840EA012000B20E4948800C48B4
:1033700080780B49C97840EA012000B209490880E9
:10338000074800790649497940EA012000B2054919
:10339000888008468088404200B2888010BD0000C6
:1033A000540000204E00002010B5FFF7B3FF10BD01
:1033B00008B508490968C9084FF47A72B1FBF2F1FF
:1033C0004143009100BF00BF00994A1E00920029AE
:1033D000F9D108BD000000200FB470B5BAB05D9EF1
:1033E0005C9D5E9C20223EA91CA8FCF7DAFE3622DA
:1033F00046A924A8FCF7D5FEBDF84E11ADF8C610BD
:10340000549A3292BDF85411ADF8CC10BDF8561153
:10341000ADF8CE10112256A934A8FCF7C2FE9DF8D3
:1034200069118DF8E1103EA8416F1CA8416700208A
:10343000682220A91A906846FCF7B3FE1CA80FC8A2
:1034400000F010FD20223EA91CA8FCF7AAFE36229F
:1034500046A924A8FCF7A5FEBDF84E11ADF8C6108C
:10346000549A3292BDF85411ADF8CC10BDF85611F3
:10347000ADF8CE10112256A934A8FCF792FE9DF8A3
:1034800069118DF8E1103EA8416F1CA84167032027
:10349000682220A91A906846FCF783FE1CA80FC872
:1034A00000F00EFD20223EA91CA8FCF77AFE362271
:1034B00046A924A8FCF775FEBDF84E11ADF8C6105C
:1034C000549A3292BDF85411ADF8CC10BDF8561193
:1034D000ADF8CE10112256A934A8FCF762FE9DF873
:1034E00069118DF8E1103EA8416F1CA84167C4F333
:1034F0000740682220A91A906846FCF752FE1CA8D3
:103500000FC800F0DDFC20223EA91CA8FCF749FEF4
:10351000362246A924A8FCF744FEBDF84E11ADF8AA
:10352000C610549A3292BDF85411ADF8CC10BDF8C3
:103530005611ADF8CE10112256A934A8FCF731FE71
:103540009DF869118DF8E1103EA8416F1CA84167F4
:10355000C4F30720682220A91A906846FCF721FED0
:103560001CA80FC800F0ACFC20223EA91CA8FCF748
:1035700018FE362246A924A8FCF713FEBDF84E110A
:10358000ADF8C610549A3292BDF85411ADF8CC1073
:10359000BDF85611ADF8CE10112256A934A8FCF78B
:1035A00000FE9DF869118DF8E1103EA8416F1CA83E
:1035B0004167E0B2682220A91A906846FCF7F1FD45
:1035C0001CA80FC800F07CFC31E020223EA91CA8FA
:1035D000FCF7E7FD362246A924A8FCF7E2FDBDF87A
:1035E0004E11ADF8C610549A3292BDF85411ADF890
:1035F000CC10BDF85611ADF8CE10112256A934A842
:10360000FCF7CFFD9DF869118DF8E1103EA8416FE0
:103610001CA84167FF20682220A91A906846FCF781
:10362000C0FD1CA80FC800F04BFC28706D1C301E9C
:10363000A6F101018EB2C8D120223EA91CA8FCF738
:10364000B0FD362246A924A8FCF7ABFDBDF84E110B
:10365000ADF8C610549A3292BDF85411ADF8CC10A2
:10366000BDF85611ADF8CE10112256A934A8FCF7BA
:1036700098FD9DF869118DF8E1103EA8416F1CA8D6
:1036800041670120682220A91A906846FCF789FD4D
:103690001CA80FC800F0E6FB3AB070BC5DF814FB44
:1036A0000FB42DE9F04FBBB0629E649D639C4FF058
:1036B0000009C846C2460027BB4605F0FF0ACAF10A
:1036C0000000C7B22046E11704EB1161C1F30729DE
:1036D000E11704EB11610912A4EB012101F0FF08CD
:1036E000BAF1000F7ED1B9F1000F31D1202244A9E7
:1036F0001DA8FCF756FD36224CA925A8FCF751FD64
:10370000BDF86611ADF8CA105A9A3392BDF86C1123
:10371000ADF8D010BDF86E11ADF8D21011225CA931
:1037200035A8FCF73EFD9DF881118DF8E51044A801
:10373000416F1DA84167682221A96846CDE91A6436
:103740001C95FCF72EFD1DA80FC800F001FACBE177
:1037500036E0202244A91DA8FCF723FD36224CA9FF
:1037600025A8FCF71EFDBDF86611ADF8CA105A9ADF
:103770003392BDF86C11ADF8D010BDF86E11ADF8F4
:10378000D21011225CA935A8FCF70BFD9DF8811120
:103790008DF8E51044A8416F1DA841674FF4807073
:1037A000682221A9CDE91A601C956846FCF7F9FC4E
:1037B0001DA80FC800F0CCF905F5807506F58076D8
:1037C000B9F10000A9F1010101F0FF09C1D12022E6
:1037D00044A91DA8FCF7E5FC36224CA925A8FCF756
:1037E000E0FC00E027E0BDF86611ADF8CA105A9A77
:1037F0003392BDF86C11ADF8D010BDF86E11ADF874
:10380000D21011225CA935A8FCF7CBFC9DF88111E0
:103810008DF8E51044A8416F1DA84167682221A9D1
:103820006846CDE91A681C95FCF7BBFC1DA80FC8BB
:1038300000F08EF958E1B9F1000F7DD1B84568DD8F
:10384000A8EB070000F0FF0B202244A91DA8FCF7FD
:10385000A8FC36224CA925A8FCF7A3FCBDF86611EC
:10386000ADF8CA105A9A3392BDF86C11ADF8D01069
:10387000BDF86E11ADF8D21011225CA935A8FCF785
:1038800090FC9DF881118DF8E51044A8416F1DA8AA
:103890004167682221A96846CDE91A671C95FCF7A3
:1038A00080FC1DA80FC800F053F93D443E4420227F
:1038B00044A91DA8FCF775FC36224CA925A8FCF7E5
:1038C00070FCBDF86611ADF8CA105A9A3392BDF873
:1038D0006C11ADF8D010BDF86E11ADF8D2101122F8
:1038E0005CA935A8FCF75DFC9DF881118DF8E51009
:1038F00044A8416F1DA84167682221A96846CDE907
:103900001A6B1C95FCF74DFC1DA80FC800F020F9A0
:10391000EAE0202244A91DA8FCF743FC36224CA96A
:1039200025A8FCF73EFCBDF86611ADF8CA105A9AFE
:103930003392BDF86C1100E01FE0ADF8D010BDF877
:103940006E11ADF8D21011225CA935A8FCF729FC44
:103950009DF881118DF8E51044A8416F1DA84167BD
:10396000682221A96846CDE91A641C95FCF719FC68
:103970001DA80FC800F0ECF8B6E0E01B84B22046AA
:10398000E11704EB1161C1F30729E11704EB1161A1
:103990000912A4EB012101F0FF08202244A91DA86F
:1039A000FCF7FFFB36224CA925A8FCF7FAFBBDF873
:1039B0006611ADF8CA105A9A3392BDF86C11ADF881
:1039C000D010BDF86E11ADF8D21011225CA935A847
:1039D000FCF7E7FB9DF881118DF8E51044A8416FD5
:1039E0001DA84167682221A96846CDE91A671C9580
:1039F000FCF7D7FB1DA80FC800F0AAF83D443E44D1
:103A000036E0202244A91DA8FCF7CBFB36224CA9A6
:103A100025A8FCF7C6FBBDF86611ADF8CA105A9A86
:103A20003392BDF86C11ADF8D010BDF86E11ADF841
:103A3000D21011225CA935A8FCF7B3FB9DF88111C7
:103A40008DF8E51044A8416F1DA841674FF48070C0
:103A5000682221A9CDE91A601C956846FCF7A1FBF4
:103A60001DA80FC800F074F805F5807506F580767E
:103A7000B9F10000A9F1010101F0FF09C1D1B8F1CC
:103A8000000F31D0202244A91DA8FCF78AFB362262
:103A90004CA925A8FCF785FBBDF86611ADF8CA1046
:103AA0001DA95A9A3392BDF86C01ADF8D000BDF84B
:103AB0006E11ADF8D21011225CA935A8FCF771FB8C
:103AC0009DF881118DF8E51044A8416F1DA841674C
:103AD000682221A96846CDE91A681C95FCF761FBAC
:103AE0001DA80FC800F034F83BB0BDE8F00F5DF83A
:103AF00014FB0FB400B597B0362220A901A8FCF73B
:103B000050FBBDF8B600ADF83A002E990F91BDF804
:103B1000BC00ADF84000BDF8BE00ADF84200112277
:103B200030A911A8FCF73DFB9DF8D1008DF8550098
:103B300018A8406F169001A8FEF7C2FD0198006812
:103B400040F040000199086017B05DF814FB0000D8
:103B50000FB470B5BAB05D9E5C9D5E9C01F09CF99F
:103B600020223EA91CA8FCF71CFB362246A924A84B
:103B7000FCF717FBBDF84E11ADF8C610549A3292FF
:103B8000BDF85411ADF8CC10BDF85611ADF8CE10FB
:103B9000112256A934A8FCF704FB9DF869118DF891
:103BA000E1103EA8416F1CA841670020682220A9AF
:103BB0001A906846FCF7F5FA1CA80FC800F052F9F5
:103BC00020223EA91CA8FCF7ECFA362246A924A81C
:103BD000FCF7E7FABDF84E11ADF8C610549A3292D0
:103BE000BDF85411ADF8CC10BDF85611ADF8CE109B
:103BF000112256A934A8FCF7D4FA9DF869118DF862
:103C0000E1103EA8416F1CA841670220682220A94C
:103C10001A906846FCF7C5FA1CA80FC800F050F9C6
:103C200020223EA91CA8FCF7BCFA362246A924A8EB
:103C3000FCF7B7FABDF84E11ADF8C610549A32929F
:103C4000BDF85411ADF8CC10BDF85611ADF8CE103A
:103C5000112256A934A8FCF7A4FA9DF869118DF831
:103C6000E1103EA8416F1CA84167C4F307406822D9
:103C700020A91A906846FCF794FA1CA80FC800F017
:103C80001FF920223EA91CA8FCF78BFA362246A970
:103C900024A8FCF786FABDF84E11ADF8C610549A68
:103CA0003292BDF85411ADF8CC10BDF85611ADF8F4
:103CB000CE10112256A934A8FCF773FA9DF86911A9
:103CC0008DF8E1103EA8416F1CA84167C4F307209E
:103CD000682220A91A906846FCF763FA1CA80FC84E
:103CE00000F0EEF820223EA91CA8FCF75AFA362272
:103CF00046A924A8FCF755FABDF84E11ADF8C61038
:103D0000549A3292BDF85411ADF8CC10BDF856114A
:103D1000ADF8CE10112256A934A8FCF742FA9DF84E
:103D200069118DF8E1103EA8416F1CA84167E0B20F
:103D3000682220A91A906846FCF733FA1CA80FC81D
:103D400000F0BEF8B6F5807F04DD4FF4807638A031
:103D500001F04AF930E020223EA91CA8FCF721FA24
:103D6000362246A924A8FCF71CFABDF84E11ADF87E
:103D7000C610549A3292BDF85411ADF8CC10BDF86B
:103D80005611ADF8CE10112256A934A8FCF709FA45
:103D90009DF869118DF8E1103EA8416F1CA841679C
:103DA0002878682220A91A906846FCF7FAF91CA81E
:103DB0000FC800F085F86D1C301EA6F101018EB20F
:103DC000C9D120223EA91CA8FCF7EBF9362246A94E
:103DD00024A8FCF7E6F9BDF84E11ADF8C610549AC8
:103DE0003292BDF85411ADF8CC10BDF85611ADF8B3
:103DF000CE10112256A934A8FCF7D3F99DF8691109
:103E00008DF8E1103EA8416F1CA84167012068228F
:103E100020A91A906846FCF7C4F91CA80FC800F046
:103E200021F800F00DFF3AB070BC5DF814FB000003
:103E30003C3C2D464C4153482D4552524F522D3E4D
:103E40003E205350495F464C4153485F506167657F
:103E5000577269746520746F6F206C617267652199
:103E60000A0000000FB470B5229C059DBDF81060DB
:103E7000224631462846FDF7B7FF70BC5DF814FBBB
:103E800010B51C9C214602A001F0AEF8002010BD28
:103E90003C3C2D464C4153482D4552524F522D3EED
:103EA0003E2053504920B5C8B4FDB3ACCAB121651A
:103EB00072726F72436F6465203D2025640A0000B2
:103EC0000FB430B5EDB08E9D362278A957A8FCF717
:103ED00068F9BDF81602ADF8920186996591BDF8B2
:103EE0001C02ADF89801BDF81E02ADF89A0111222E
:103EF00088A967A8FCF755F99DF831028DF8AD0146
:103F000070A8406F6C904FF4005437E0201EA4F16D
:103F1000010433D1202270A939A8FCF742F93622D6
:103F200078A941A8FCF73DF9BDF81612ADF83A1191
:103F3000869A4F92BDF81C12ADF84011BDF81E12C2
:103F4000ADF84211112288A951A8FCF72AF99DF871
:103F500031128DF8551170A8416F39A841670020C2
:103F600068223DA91A906846FCF71BF939A80FC8CA
:103F7000FFF786FF6DB030BC5DF814FB5798806882
:103F8000C0F340000028C1D05798C5604FF40054DA
:103F900034E0201EA4F1010430D1202270A91BA816
:103FA000FCF7FFF8362278A923A8FCF7FAF8BDF849
:103FB0001612ADF8C210869A3192BDF81C12ADF8F7
:103FC000C810BDF81E12ADF8CA10112288A933A876
:103FD000FCF7E7F89DF831128DF8DD1070A8416FFD
:103FE0001BA84167012068221FA91A906846FCF7A8
:103FF000D8F81BA80FC8FFF743FFBBE757988068A6
:1040000000F001000028C4D05798C068C0B2B1E7E2
:10401000704710B5FDF7F4FE10BD00B58FB0282134
:1040200005A8FCF7D7F814216846FCF7D3F801205F
:1040300005900004069000200790012009900220BE
:104040000C90C1030D914FF4E0110E9105A8FEF7FD
:1040500005F908B1FDF7F3F80F2000900220019058
:10406000002002904FF48060039000200490022111
:104070006846FDF7BDFF08B1FDF7E1F80FB000BDE0
:104080001148006840F001000F4908600846406888
:104090000E4908400C494860084600680C49084031
:1040A000094908600846006820F480200860084636
:1040B000406820F4FE0048604FF41F008860C80389
:1040C0000449086070470000001002400000FFF83B
:1040D000FFFFF6FE08ED00E010B50E480068C0686E
:1040E00000F0010078B10C490869804700200949B7
:1040F0000968486200BF642006490968C8626421F3
:104100000448C16000BF6FF00100024909680861FE
:1041100010BD0000D04E00204002002010B5026803
:10412000204B98420ED0204B98420BD0B0F1804FDC
:1041300008D01E4B984205D01D4B984202D01D4B13
:10414000984203D122F070024B681A43154B9842F3
:104150000ED0154B98420BD0B0F1804F08D0134BC6
:10416000984205D0124B984202D0124B984203D18C
:1041700022F44072CB681A4322F080034C6943EA70
:10418000040202608B68C3620B688362054B98422D
:1041900002D0054B984201D10B69036301234361AF
:1041A00010BD0000002C014000340140000400401C
:1041B00000080040000C004038B504460D4600BF22
:1041C0001148C06940F004000F49C8610846C06941
:1041D00000F00400009000BF00BF032211461E2023
:1041E000FDF792FE1E20FDF77FFE08480849086093
:1041F0000846456000218160C4600161FEF714FB40
:104200000348FEF72CFB38BD0010024000080040B8
:10421000D04E002010B5482002F00CFA4FF4E130E7
:1042200005F022FC542006F01DF802A000F0DCFE90
:1042300010BD0000287965732920D4DAD3C3D5FDD9
:10424000B5E3D4ADD7D3B5C4BAAFCAFD2E0D0A00BD
:1042500070B505466C6A0020E085E0842046FEF7D4
:1042600013FB70BD0168C96821F490710268D160C8
:104270000168496921F0010102685161202180F83B
:104280003A10704710B504462068C06820F040001E
:104290002168C860202084F839002046FEF7B0FC71
:1042A000002010BD70B5044694F83A0022284AD187
:1042B000A068B0F5805F13D1A56A206940B9206875
:1042C0004068C0F308002880A06A801CA06219E042
:1042D00020684068C0B22880A06A401CA06211E03B
:1042E000206938B920684068C1B2A26A501CA06237
:1042F000117007E02068406800F07F01A26A501C3E
:10430000A0621170E08D401E80B2E085C8B92068BF
:10431000C06820F020002168C8602068C06820F4D0
:1043200080702168C8602068406920F00100216821
:104330004861202084F83A002046FEF71DFC00204A
:1043400070BD0020FCE70220FAE7000070B50446CB
:104350002168096921F44051E26811432268116122
:104360002269A1681143626941EA02052168C968AE
:1043700041F20C62914329432268D1602168496966
:1043800021F44071A269114322685161564A2168A3
:10439000914254D1FDF708FF00EBC00101EB001181
:1043A00062689200B1FBF2F100EBC00202EB001276
:1043B00063689B00B2FBF3F26423B2FBF3F202EBFF
:1043C000C20303EB0212A1EB8201322202EB0111C4
:1043D0006422B1FBF2F101F0F00100EBC00202EB4C
:1043E000001263689B00B2FBF3F26423B2FBF3F2AA
:1043F00001EB021200EBC00101EB001163689B00AE
:10440000B1FBF3F100EBC00303EB00136668B600E9
:10441000B3FBF6F36426B3FBF6F303EBC30606EB3C
:104420000313A1EB8301322303EB01116423B1FBDE
:10443000F3F101F00F0111442268916053E0FDF7A0
:10444000A3FE00EBC00101EB001162689200B1FB1A
:10445000F2F100EBC00202EB001263689B00B2FBBA
:10446000F3F26423B2FBF3F202EBC20303EB02129A
:10447000A1EB8201322202EB01116422B1FBF2F1C5
:1044800001F0F00100EBC00202EB001263689B0038
:10449000B2FBF3F26423B2FBF3F201EB021200EB86
:1044A000C00101EB001163689B00B1FBF3F100EB6D
:1044B000C00303EB00136668B600B3FBF6F3642693
:1044C000B3FBF6F303EBC30606EB0313A1EB830187
:1044D000322303EB01116423B1FBF3F101F00F016F
:1044E00011442268916070BD00380140014691F886
:1044F000390021282CD18868B0F5805F0FD10A6A75
:104500001088C0F308000B685860086918B9086A79
:10451000801C086209E0086A401C086205E00B6A1A
:10452000581C086218780B685860C88C401E80B20E
:10453000C88458B90868C06820F080000B68D8604B
:104540000868C06840F040000B68D86000207047E1
:104550000220FCE710B500240C48FEF7A1F900BFCB
:1045600001E0641C00BF0948FEF78FF92028F8D14C
:1045700000BF002401E0641C00BF0122044903487D
:10458000FEF7C2FA0028F6D100BF10BD904E002001
:10459000A201002000BFFEE710B5BAB0044600F04B
:1045A0007BFC00F04DFB2022A4491CA8FBF7F9FD81
:1045B0003622A249203124A8FBF7F3FD9F48B0F82A
:1045C0005610ADF8C6101CA89C498A6D3292B1F8FD
:1045D0005C10ADF8CC109948B0F85E10ADF8CE1074
:1045E000112200F1600134A8FBF7DBFD934890F83D
:1045F00071108DF8E110416F1CA8416700206822FE
:1046000020A91A906846FBF7CCFD1CA80FC8FFF73D
:1046100029FC202289491CA8FBF7C3FD36228749C3
:10462000203124A8FBF7BDFD8448B0F85610ADF842
:10463000C6101CA881498A6D3292B1F85C10ADF8A1
:10464000CC107E48B0F85E10ADF8CE10112200F10B
:10465000600134A8FBF7A5FD784890F871108DF83B
:10466000E110416F1CA841672020682220A91A9000
:104670006846FBF796FD1CA80FC8FFF721FC202217
:104680006E491CA8FBF78DFD36226C49203124A809
:10469000FBF787FD6948B0F85610ADF8C6101CA8A6
:1046A00066498A6D3292B1F85C10ADF8CC1063485F
:1046B000B0F85E10ADF8CE10112200F1600134A800
:1046C000FBF76FFD5D4890F871108DF8E110416FB8
:1046D0001CA84167C4F30740682220A91A906846C5
:1046E000FBF75FFD1CA80FC8FFF7EAFB2022534928
:1046F0001CA8FBF756FD36225049203124A8FBF7B1
:1047000050FD4E48B0F85610ADF8C6101CA84B49E5
:104710008A6D3292B1F85C10ADF8CC104748B0F811
:104720005E10ADF8CE10112200F1600134A8FBF745
:1047300038FD424890F871108DF8E110416F1CA8C7
:104740004167C4F30720682220A91A906846FBF746
:1047500028FD1CA80FC8FFF7B3FB202237491CA86F
:10476000FBF71FFD36223549203124A8FBF719FD40
:104770003248B0F85610ADF8C6101CA82F498A6D03
:104780003292B1F85C10ADF8CC102C48B0F85E1045
:10479000ADF8CE10112200F1600134A8FBF701FD45
:1047A000264890F871108DF8E110416F1CA8416700
:1047B000E0B2682220A91A906846FBF7F2FC1CA818
:1047C0000FC8FFF77DFB20221C491CA8FBF7E9FC62
:1047D00036221A49203124A8FBF7E3FC1748B0F829
:1047E0005610ADF8C6101CA814498A6D3292B1F863
:1047F0005C10ADF8CC101148B0F85E10ADF8CE10DA
:10480000112200F1600134A8FBF7CBFC0B4890F8B3
:1048100071108DF8E110416F1CA8416701206822DA
:1048200020A91A906846FBF7BCFC1CA80FC8FFF72C
:1048300019FB00F005FA3AB010BD0000840000201A
:10484000F0B5B9B000240025002600272022A74992
:104850001BA8FBF7A6FC3622A449203123A8FBF7AE
:10486000A0FCA248B0F85610ADF8C2101BA89F4992
:104870008A6D3192B1F85C10ADF8C8109B48B0F861
:104880005E10ADF8CA10112200F1600133A8FBF7E9
:1048900088FC964890F871108DF8DD10416F1BA8C8
:1048A0004167002068221FA91A906846FBF779FC2F
:1048B0001BA80FC8FFF7D6FA20228C491BA8FBF7CC
:1048C00070FC36228949203123A8FBF76AFC87480F
:1048D000B0F85610ADF8C2101BA884498A6D319209
:1048E000B1F85C10ADF8C8108048B0F85E10ADF8B3
:1048F000CA10112200F1600133A8FBF752FC7B487B
:1049000090F871108DF8DD10416F1BA841679F2052
:1049100068221FA91A906846FBF743FC1BA80FC822
:10492000FFF7CEFA202271491BA8FBF73AFC36228A
:104930006E49203123A8FBF734FC6C48B0F85610C0
:10494000ADF8C2101BA869498A6D3192B1F85C10AC
:10495000ADF8C8106548B0F85E10ADF8CA10112265
:1049600000F1600133A8FBF71CFC604890F871105F
:104970008DF8DD10416F1BA84167FF2068221FA939
:104980001A906846FBF70DFC1BA80FC8FFF798FAB2
:104990000546202255491BA8FBF703FC3622534944
:1049A000203123A8FBF7FDFB5048B0F85610ADF8B6
:1049B000C2101BA84D498A6D3192B1F85C10ADF858
:1049C000C8104A48B0F85E10ADF8CA10112200F1C4
:1049D000600133A8FBF7E5FB444890F871108DF8AF
:1049E000DD10416F1BA84167FF2068221FA91A90A4
:1049F0006846FBF7D6FB1BA80FC8FFF761FA06460F
:104A000020223A491BA8FBF7CCFB3622374920313C
:104A100023A8FBF7C6FB3548B0F85610ADF8C21016
:104A20001BA832498A6D3192B1F85C10ADF8C810FC
:104A30002E48B0F85E10ADF8CA10112200F16001E6
:104A400033A8FBF7AEFB294890F871108DF8DD1004
:104A5000416F1BA84167FF2068221FA91A90684672
:104A6000FBF79FFB1BA80FC8FFF72AFA0746202277
:104A70001E491BA8FBF795FB36221C49203123A8B1
:104A8000FBF78FFB1948B0F85610ADF8C2101BA801
:104A900016498A6D3192B1F85C10ADF8C810134810
:104AA000B0F85E10ADF8CA10112200F1600133A811
:104AB000FBF777FB0D4890F871108DF8DD10416F12
:104AC0001BA84167012068221FA91A906846FBF7BE
:104AD00068FB1BA80FC8FFF7C5F9280440EA0620A9
:104AE00040EA0704204639B0F0BD000084000020F1
:104AF00000B5B9B0202251491BA8FBF752FB362262
:104B00004E49203123A8FBF74CFB4C48B0F8561017
:104B1000ADF8C2101BA849498A6D3192B1F85C10FA
:104B2000ADF8C8104548B0F85E10ADF8CA101122B3
:104B300000F1600133A8FBF734FB404890F8711096
:104B40008DF8DD10416F1BA84167002068221FA966
:104B50001A906846FBF725FB1BA80FC8FFF782F9E0
:104B6000202236491BA8FBF71CFB36223349203193
:104B700023A8FBF716FB3148B0F85610ADF8C21069
:104B80001BA82E498A6D3192B1F85C10ADF8C8109F
:104B90002A48B0F85E10ADF8CA10112200F1600189
:104BA00033A8FBF7FEFA254890F871108DF8DD1058
:104BB000416F1BA84167AB2068221FA91A90684665
:104BC000FBF7EFFA1BA80FC8FFF77AF920221B4961
:104BD0001BA8FBF7E6FA36221849203123A8FBF779
:104BE000E0FA1648B0F85610ADF8C2101BA81349E9
:104BF0008A6D3192B1F85C10ADF8C8100F48B0F86A
:104C00005E10ADF8CA10112200F1600133A8FBF765
:104C1000C8FA0A4890F871108DF8DD10416F1BA892
:104C20004167012068221FA91A906846FBF7B9FA6C
:104C30001BA80FC8FFF716F939B000BD840000208B
:104C400010B5BAB00024202291491CA8FBF7A9FA9C
:104C500036228F49203124A8FBF7A3FA8C48B0F8FC
:104C60005610ADF8C6101CA889498A6D3292B1F869
:104C70005C10ADF8CC108648B0F85E10ADF8CE10E0
:104C8000112200F1600134A8FBF78BFA804890F8FC
:104C900071108DF8E110416F1CA841670020682257
:104CA00020A91A906846FBF77CFA1CA80FC8FFF7EA
:104CB000D9F8202276491CA8FBF773FA36227449EA
:104CC000203124A8FBF76DFA7148B0F85610ADF802
:104CD000C6101CA86E498A6D3292B1F85C10ADF80E
:104CE000CC106B48B0F85E10ADF8CE10112200F178
:104CF000600134A8FBF755FA654890F871108DF8FB
:104D0000E110416F1CA841670520682220A91A9074
:104D10006846FBF746FA1CA80FC8FFF7D1F84FF416
:104D200000505C490860086000BF202258491CA858
:104D3000FBF737FA36225649203124A8FBF731FA1F
:104D40005348B0F85610ADF8C6101CA850498A6DEB
:104D50003292B1F85C10ADF8CC104D48B0F85E104E
:104D6000ADF8CE10112200F1600134A8FBF719FA5A
:104D7000474890F871108DF8E110416F1CA8416709
:104D8000FF20682220A91A906846FBF70AFA1CA89F
:104D90000FC8FFF795F804463E490868411E3D4A92
:104DA0001160B8BB20223A491CA8FBF7FAF9362259
:104DB0003749203124A8FBF7F4F93548B0F85610EC
:104DC000ADF8C6101CA832498A6D3292B1F85C1059
:104DD000ADF8CC102E48B0F85E10ADF8CE10112210
:104DE00000F1600134A8FBF7DCF9294890F8711054
:104DF0008DF8E110416F1CA841670420682220A9AA
:104E00001A906846FBF7CDF91CA80FC8FFF738F8D1
:104E10003AB010BDFFE704F00100002885D1202240
:104E20001B491CA8FBF7BDF936221949203124A8DB
:104E3000FBF7B7F91648B0F85610ADF8C6101CA825
:104E400013498A6D3292B1F85C10ADF8CC1010485D
:104E5000B0F85E10ADF8CE10112200F1600134A858
:104E6000FBF79FF90A4890F871108DF8E110416F37
:104E70001CA841670120682220A91A906846FBF708
:104E800090F91CA80FC8FEF7EDFF00BFC0E70000B7
:104E9000840000208000002000B5B9B020225149D4
:104EA0001BA8FBF77EF936224E49203123A8FBF7D9
:104EB00078F94C48B0F85610ADF8C2101BA8494913
:104EC0008A6D3192B1F85C10ADF8C8104548B0F861
:104ED0005E10ADF8CA10112200F1600133A8FBF793
:104EE00060F9404890F871108DF8DD10416F1BA8F3
:104EF0004167002068221FA91A906846FBF751F904
:104F00001BA80FC8FEF7AEFF202236491BA8FBF7EF
:104F100048F936223349203123A8FBF742F93148BA
:104F2000B0F85610ADF8C2101BA82E498A6D319208
:104F3000B1F85C10ADF8C8102A48B0F85E10ADF8B2
:104F4000CA10112200F1600133A8FBF72AF92548A5
:104F500090F871108DF8DD10416F1BA84167062095
:104F600068221FA91A906846FBF71BF91BA80FC8F7
:104F7000FEF7A6FF20221B491BA8FBF712F93622D9
:104F80001849203123A8FBF70CF91648B0F8561041
:104F9000ADF8C2101BA813498A6D3192B1F85C10AC
:104FA000ADF8C8100F48B0F85E10ADF8CA10112265
:104FB00000F1600133A8FBF7F4F80A4890F871108B
:104FC0008DF8DD10416F1BA84167012068221FA9E1
:104FD0001A906846FBF7E5F81BA80FC8FEF742FFDA
:104FE00039B000BD840000200FB4054B10B503A9F3
:104FF000044A029800F0B6F910BC5DF814FB0000FA
:10500000C18000089C0100200FB41CB5024600209E
:1050100007AC00290BD0491ECDE90021054B6A469B
:105020002146069800F09EF9009A002111701CBCE0
:105030005DF814FB935A00080FB4084B10B504A98F
:1050400002AA039800F08EF9044602A9002000F09D
:105050002BFD204610BC5DF814FB0000A95A000887
:10506000490050EAC12018BF04204A0D18BF40F083
:10507000010040F2FF72B2EB515F08BF40F0020046
:10508000012808BF0520704702480068C0F30220CD
:10509000704700000CED00E010B5002804DB0A07A3
:1050A000130E054A135406E00A07140E034A00F0D3
:1050B0000F031B1FD45410BD00E400E018ED00E006
:1050C000004870475C0300202DE9F0414F1E00EBC3
:1050D000C7010446D1E9000115461E4637F0060215
:1050E0000DD02A463346FBF766FA7F1E04EBC70352
:1050F000D3E90023FBF7B8F937F00602F1D1022F0C
:1051000025D0042F13D0062F18BFBDE8F0812A4602
:105110003346FBF750FAD4E90A23FBF7A5F92A46F0
:105120003346FBF748FAD4E90823FBF79DF92A46F2
:105130003346FBF740FAD4E90623FBF795F92A46F4
:105140003346FBF738FAD4E90423FBF78DF92A46F6
:105150003346FBF730FAD4E90223FBF785F92A46F8
:105160003346FBF728FAD4E90023BDE8F041FBF70A
:105170007BB90122FBF7E1BCFBF776B900221346AD
:1051800010461146FBF76ABC024A00201107FBF7E4
:10519000D4BC000001FDFFFF01480068704700001B
:1051A0005C03002002E008C8121F08C1002AFAD1DF
:1051B00070477047002001E001C1121F002AFBD197
:1051C0007047000001490860704700005C03002040
:1051D0002DE9FF5F82B00021DDE90430020DDDF82A
:1051E00040B0034318D044F61050A2F2FF324243BD
:1051F0001514119801281FD0A5EB0B00401C5FEA85
:10520000000A4FF000064E4FDFF83891B046504686
:1052100015D5CAF1000413E0119801244AA301280E
:1052200001D16FEA0B010298119AC0E90031C0E97F
:10523000024206B0BDE8F09FCBF10000DFE7044674
:105240000021404A491842EB0450CDE9001012E019
:10525000E00707D032463B4640464946FBF7ABF9EC
:105260008046894632463B4610461946FBF7A3F96D
:1052700006460F466410002CEAD1DDE90401DDE9A1
:105280000023BAF1000F06DAFBF795F942464B46C8
:10529000FBF791F905E0FBF7E1FB42464B46FBF7D4
:1052A000DDFB04460E460022284BFBF7C7FC03D863
:1052B0004FF0FF30014607E00022254B20463146E3
:1052C000FBF7D2F8FBF7A1FC102409E0002C0ADB65
:1052D0000A220023FBF73EFA039B30321A55641E64
:1052E00050EA0102F2D1641C039AC4F11103144480
:1052F000119A012A03D0012208430DD10AE0084384
:1053000004D000204FF0110B119072E7A3EB0B05B6
:105310006D1E0DE05B4504DD4FF0000205F1010557
:1053200004E003DA4FF00002A5F10105002AECD0F9
:1053300002981199C0E90231C0E9004579E70000FF
:10534000000014400000F03F300000000000F04377
:105350000000E03F30380A2801D2012070470020C9
:10536000704700002DE9FF4F95B09B4689460646E1
:1053700000250FE2252877D100242746F84A01218D
:10538000059400E0044316F8013F203B01FA03F0C6
:105390001042F7D130782A2811D06FF02F033078DF
:1053A000A0F13002092A16D8059A44F0020402EB53
:1053B000820203EB42021044761C0590EFE759F895
:1053C000042B0592002A03DA504244F4005405905D
:1053D00044F00204761C30782E2816D116F8010FFE
:1053E00044F004042A280DD06FF02F023078A0F189
:1053F0003003092B09D807EB870302EB4303C718D7
:10540000761CF3E759F8047B761C30786C280FD0B3
:1054100006DC4C2817D068280DD06A2814D104E087
:10542000742810D07A280FD10DE044F400140AE05B
:1054300044F4801401E044F440147278824202D1B2
:1054400004F58014761C761C307866280BD013DCAB
:10545000582877D009DC002875D04528F6D0462892
:10546000F4D047281AD19DE118E0632835D064288C
:1054700079D0652812D195E1702873D008DC6728AF
:10548000F1D069286FD06E280DD06F2806D1B5E015
:1054900073282CD0752875D0782874D05A4617995F
:1054A00090476D1C75E1C4F30250022809D003280F
:1054B0000DD0D9F8001004280DD00D6009F10409B1
:1054C00067E1D9F80010EA17C1E90052F6E7D9F808
:1054D00000100D80F2E70D70F0E719F8041B8DF84D
:1054E000001000208DF80100EA46012003E059F881
:1054F00004AB4FF0FF3061074FF0000102D40DE024
:1055000008F101018846B9420FDA8045F8DB1AF844
:1055100008100029F4D108E008F101018846814211
:10552000FADB1AF808100029F6D105985B46A0EBC3
:10553000080721463846179A00F094FA284400EBF1
:10554000080507E04DE029E10DE01AF8010B5A4685
:1055500017999047B8F10108F7D25B4621463846C3
:10556000179A13E142E00A220092C4F302524FF06C
:10557000000A022A08D059F804CB032A4FEAEC713A
:105580000AD00DE029E02AE009F1070121F0070225
:10559000F2E802C1914609E00FFA8CFC4FEAEC7187
:1055A000042A03D14FFA8CFC4FEAEC71002907DA88
:1055B0000A460021DCF1000C61EB02012D2202E021
:1055C000220504D52B228DF80420012203E0E207F6
:1055D00001D02022F7E7904659E00A2102E010228C
:1055E0000DE010214FF0000A00910BE010224FF067
:1055F000000A44F004040827009203E008224FF058
:10560000000A0092C4F30252022A05D059F804CBD2
:105610000021032A08D009E009F1070121F007025F
:10562000F2E802C1914605E01FFA8CFC042A01D180
:105630000CF0FF0C4FF00008220728D5702806D088
:10564000009B83F0100353EA0A0305D00EE04022CA
:105650008DF80420012208E05CEA010206D0302225
:105660008DF804208DF8050002229046009B83F0FF
:10567000080353EA0A030AD15CEA010201D1620776
:1056800005D530228DF804204FF001087F1E5828E0
:1056900004D034A003900EA802900DE036A0F9E7E4
:1056A00053466046009AFBF755F884460398825C9F
:1056B0000298401E029002705CEA0100F0D102984C
:1056C00006A9081A00F1200A600702D524F48034E4
:1056D00000E00127574502DDA7EB0A0000E00020AB
:1056E00000EB0A01009005984144401A0590E00340
:1056F00006D45B462146179A059800F0B3F9054495
:10570000002706E001A85A46C05D179990476D1C16
:105710007F1C4745F6DBE0030CD55B462146179A14
:10572000059800F09FF9054404E030205A46179987
:1057300090476D1C0099481E00900029F5DC08E098
:10574000029802995A460078491C0291179990478D
:105750006D1CBAF10001AAF1010AF1DC65E100005B
:105760000928010030313233343536373839616237
:1057700063646566000000003031323334353637FB
:1057800038394142434445460000000000F058F9D2
:105790000544761C307800287FF4ECAD19B028461B
:1057A000BDE8F08F620700D4062709F1070222F056
:1057B000070CFCE80223E14603F000485FEA080C0E
:1057C00002D00FF2702C0DE05FEA045C02D50FF2FC
:1057D000682C07E05FEAC47C02D00FF2602C01E085
:1057E000AFF2700C4FF0FF3823F00043CDF850C0FB
:1057F00065280CD006DC452809D046281DD047284E
:105800003DD13DE0662818D067287ED138E00021E0
:10581000112F01DB112000E0781CCDE9000106A961
:105820000EA8FFF7D5FCDDE90F010E9A03910021C8
:10583000009207F1010A04914DE04FF000400097FB
:10584000CDE9011006A90EA8FFF7C2FCDDE90F02A1
:1058500003920E9B11990022DDF80CA00093049294
:1058600011B9791C00EB010AB7EB0A0004D4C0F1AE
:10587000FF3007F1010A0490AAEB0700019044E011
:10588000012F00DA01270021112F01DD112000E096
:105890003846CDE9000106A90EA8FFF799FCDDE91D
:1058A0000F010E9A0391002104910092BA4621073C
:1058B0000CD40399514500DA8A46BAF1010F05DD8F
:1058C000009AAAF10101515C302908D0B84202DAED
:1058D00010F1040F06DA0121CDE9011015E0AAF15B
:1058E0000101E9E7002805DC049901440491AAEBD1
:1058F000000102E0411C514500DD8A460499401A2E
:10590000401C01904FF000400290200704D4019801
:10591000504501DBCDF8048000208DF84F0002983F
:105920000DF14F07B0F1004F25D02B200E900298BB
:105930004FF0020800280CDA404202902D200E9011
:1059400007E00A210298FAF7EFFE3031029007F8DB
:10595000011DB8F10001A8F10108F2DC029800284D
:10596000EFD1791E0E980870307800F0200040F0DA
:10597000450007F8020D12A8C01B00F10708149893
:10598000007800B1012000EB0A01019801EBE07101
:1059900005984144401A401E0590E00306D45B463A
:1059A0002146179A059800F05DF805441498007890
:1059B00018B15A46179990476D1CE00324D55B46F1
:1059C0002146179A059800F04DF805441CE004980C
:1059D000002807DBDDE90301884203DD0098405C15
:1059E000179901E0179930205A469047049805F11D
:1059F0000105401C04900198401E019004D12E2006
:105A00005A46179990476D1CBAF10001AAF1010A94
:105A1000DDDC05E017F8010B5A46179990476D1C1D
:105A2000B8F10001A8F10108F4DC5B462146179AA1
:105A30000598ABE62D0000002B00000020000000C0
:105A40002DE9F041044600251E461746880404D47B
:105A500005E039462020B0476D1C641EF9D5284664
:105A6000BDE8F0812DE9F041044600251E46904630
:105A7000C80301D5302700E02027880404D505E0BD
:105A800041463846B0476D1C641EF9D52846BDE82E
:105A9000F0814A68002A06D00A68531C0B60107017
:105AA0004868401E486070470A68531C0B601070BD
:105AB000704700002DE9F04D8D4F21F0004A86B06F
:105AC00005460C46BA452ADBAAEB070028430AD054
:105AD0008848824501DC1AD1CDB106B02846BDE820
